{
	"data": {
		"bytecode": {
			"linkReferences": {},
			"object": "608060405234801561001057600080fd5b506101ca806100206000396000f3fe608060405234801561001057600080fd5b50600436106100365760003560e01c8063027eca311461003b578063eca98adb14610045575b600080fd5b610043610073565b005b6100436004803603604081101561005b57600080fd5b506001600160a01b0381358116916020013516610111565b60408051630971d70b60e11b815273818ec0a7fe18ff94269904fced6ae3dae6d6dc0b60048201527363d03492cd26c0c1f73a563f7eab79b52334852a60248201529051732f75feda7423d8b85988d9545428d00f3213cf009182916312e3ae169160448082019260009290919082900301818387803b1580156100f657600080fd5b505af115801561010a573d6000803e3d6000fd5b5050505050565b60408051630971d70b60e11b81526001600160a01b038481166004830152831660248201529051732f75feda7423d8b85988d9545428d00f3213cf009182916312e3ae169160448082019260009290919082900301818387803b15801561017757600080fd5b505af115801561018b573d6000803e3d6000fd5b5050505050505056fea264697066735822122068ca0fc8fae0977e81c9359b1274dd8e2f1c30706500d847fe3befd711fb34b664736f6c63430007050033",
			"opcodes": "PUSH1 0x80 PUSH1 0x40 MSTORE CALLVALUE DUP1 ISZERO PUSH2 0x10 JUMPI PUSH1 0x0 DUP1 REVERT JUMPDEST POP PUSH2 0x1CA DUP1 PUSH2 0x20 PUSH1 0x0 CODECOPY PUSH1 0x0 RETURN INVALID PUSH1 0x80 PUSH1 0x40 MSTORE CALLVALUE DUP1 ISZERO PUSH2 0x10 JUMPI PUSH1 0x0 DUP1 REVERT JUMPDEST POP PUSH1 0x4 CALLDATASIZE LT PUSH2 0x36 JUMPI PUSH1 0x0 CALLDATALOAD PUSH1 0xE0 SHR DUP1 PUSH4 0x27ECA31 EQ PUSH2 0x3B JUMPI DUP1 PUSH4 0xECA98ADB EQ PUSH2 0x45 JUMPI JUMPDEST PUSH1 0x0 DUP1 REVERT JUMPDEST PUSH2 0x43 PUSH2 0x73 JUMP JUMPDEST STOP JUMPDEST PUSH2 0x43 PUSH1 0x4 DUP1 CALLDATASIZE SUB PUSH1 0x40 DUP2 LT ISZERO PUSH2 0x5B JUMPI PUSH1 0x0 DUP1 REVERT JUMPDEST POP PUSH1 0x1 PUSH1 0x1 PUSH1 0xA0 SHL SUB DUP2 CALLDATALOAD DUP2 AND SWAP2 PUSH1 0x20 ADD CALLDATALOAD AND PUSH2 0x111 JUMP JUMPDEST PUSH1 0x40 DUP1 MLOAD PUSH4 0x971D70B PUSH1 0xE1 SHL DUP2 MSTORE PUSH20 0x818EC0A7FE18FF94269904FCED6AE3DAE6D6DC0B PUSH1 0x4 DUP3 ADD MSTORE PUSH20 0x63D03492CD26C0C1F73A563F7EAB79B52334852A PUSH1 0x24 DUP3 ADD MSTORE SWAP1 MLOAD PUSH20 0x2F75FEDA7423D8B85988D9545428D00F3213CF00 SWAP2 DUP3 SWAP2 PUSH4 0x12E3AE16 SWAP2 PUSH1 0x44 DUP1 DUP3 ADD SWAP3 PUSH1 0x0 SWAP3 SWAP1 SWAP2 SWAP1 DUP3 SWAP1 SUB ADD DUP2 DUP4 DUP8 DUP1 EXTCODESIZE ISZERO DUP1 ISZERO PUSH2 0xF6 JUMPI PUSH1 0x0 DUP1 REVERT JUMPDEST POP GAS CALL ISZERO DUP1 ISZERO PUSH2 0x10A JUMPI RETURNDATASIZE PUSH1 0x0 DUP1 RETURNDATACOPY RETURNDATASIZE PUSH1 0x0 REVERT JUMPDEST POP POP POP POP POP JUMP JUMPDEST PUSH1 0x40 DUP1 MLOAD PUSH4 0x971D70B PUSH1 0xE1 SHL DUP2 MSTORE PUSH1 0x1 PUSH1 0x1 PUSH1 0xA0 SHL SUB DUP5 DUP2 AND PUSH1 0x4 DUP4 ADD MSTORE DUP4 AND PUSH1 0x24 DUP3 ADD MSTORE SWAP1 MLOAD PUSH20 0x2F75FEDA7423D8B85988D9545428D00F3213CF00 SWAP2 DUP3 SWAP2 PUSH4 0x12E3AE16 SWAP2 PUSH1 0x44 DUP1 DUP3 ADD SWAP3 PUSH1 0x0 SWAP3 SWAP1 SWAP2 SWAP1 DUP3 SWAP1 SUB ADD DUP2 DUP4 DUP8 DUP1 EXTCODESIZE ISZERO DUP1 ISZERO PUSH2 0x177 JUMPI PUSH1 0x0 DUP1 REVERT JUMPDEST POP GAS CALL ISZERO DUP1 ISZERO PUSH2 0x18B JUMPI RETURNDATASIZE PUSH1 0x0 DUP1 RETURNDATACOPY RETURNDATASIZE PUSH1 0x0 REVERT JUMPDEST POP POP POP POP POP POP POP JUMP INVALID LOG2 PUSH5 0x6970667358 0x22 SLT KECCAK256 PUSH9 0xCA0FC8FAE0977E81C9 CALLDATALOAD SWAP12 SLT PUSH21 0xDD8E2F1C30706500D847FE3BEFD711FB34B664736F PUSH13 0x63430007050033000000000000 "
		},
		"gasEstimates": {
			"creation": {
				"codeDepositCost": "91600",
				"executionCost": "141",
				"totalCost": "91741"
			},
			"external": {
				"executeChange(address,address)": "infinite",
				"executeFixed()": "infinite"
			}
		},
		"methodIdentifiers": {
			"executeChange(address,address)": "eca98adb",
			"executeFixed()": "027eca31"
		}
	},
	"abi": [
		{
			"inputs": [
				{
					"internalType": "address",
					"name": "_reserves",
					"type": "address"
				},
				{
					"internalType": "address",
					"name": "_myoTokenImplementations",
					"type": "address"
				}
			],
			"name": "executeChange",
			"outputs": [],
			"stateMutability": "nonpayable",
			"type": "function"
		},
		{
			"inputs": [],
			"name": "executeFixed",
			"outputs": [],
			"stateMutability": "nonpayable",
			"type": "function"
		}
	]
}