{
	"contracts/Omnidex-incentives/incentives/TempIncentivesVault.sol": {
		"TempIncentivesVault": {
			"abi": [
				{
					"inputs": [
						{
							"internalType": "contract IERC20",
							"name": "_token",
							"type": "address"
						},
						{
							"internalType": "address",
							"name": "_approvedSpender",
							"type": "address"
						},
						{
							"internalType": "address",
							"name": "_admin",
							"type": "address"
						},
						{
							"internalType": "uint256",
							"name": "_dailyLimit",
							"type": "uint256"
						}
					],
					"stateMutability": "nonpayable",
					"type": "constructor"
				},
				{
					"anonymous": false,
					"inputs": [
						{
							"indexed": true,
							"internalType": "address",
							"name": "sender",
							"type": "address"
						},
						{
							"indexed": false,
							"internalType": "uint256",
							"name": "amount",
							"type": "uint256"
						}
					],
					"name": "Deposit",
					"type": "event"
				},
				{
					"anonymous": false,
					"inputs": [
						{
							"indexed": true,
							"internalType": "address",
							"name": "previousOwner",
							"type": "address"
						},
						{
							"indexed": true,
							"internalType": "address",
							"name": "newOwner",
							"type": "address"
						}
					],
					"name": "OwnershipTransferred",
					"type": "event"
				},
				{
					"anonymous": false,
					"inputs": [],
					"name": "Pause",
					"type": "event"
				},
				{
					"anonymous": false,
					"inputs": [
						{
							"indexed": false,
							"internalType": "address",
							"name": "account",
							"type": "address"
						}
					],
					"name": "Paused",
					"type": "event"
				},
				{
					"anonymous": false,
					"inputs": [],
					"name": "Unpause",
					"type": "event"
				},
				{
					"anonymous": false,
					"inputs": [
						{
							"indexed": false,
							"internalType": "address",
							"name": "account",
							"type": "address"
						}
					],
					"name": "Unpaused",
					"type": "event"
				},
				{
					"anonymous": false,
					"inputs": [
						{
							"indexed": true,
							"internalType": "address",
							"name": "sender",
							"type": "address"
						},
						{
							"indexed": false,
							"internalType": "uint256",
							"name": "amount",
							"type": "uint256"
						}
					],
					"name": "Withdraw",
					"type": "event"
				},
				{
					"inputs": [],
					"name": "admin",
					"outputs": [
						{
							"internalType": "address",
							"name": "",
							"type": "address"
						}
					],
					"stateMutability": "view",
					"type": "function"
				},
				{
					"inputs": [],
					"name": "approvedSpender",
					"outputs": [
						{
							"internalType": "address",
							"name": "",
							"type": "address"
						}
					],
					"stateMutability": "view",
					"type": "function"
				},
				{
					"inputs": [],
					"name": "dailyLimit",
					"outputs": [
						{
							"internalType": "uint256",
							"name": "",
							"type": "uint256"
						}
					],
					"stateMutability": "view",
					"type": "function"
				},
				{
					"inputs": [
						{
							"internalType": "uint256",
							"name": "_amount",
							"type": "uint256"
						}
					],
					"name": "deposit",
					"outputs": [],
					"stateMutability": "nonpayable",
					"type": "function"
				},
				{
					"inputs": [],
					"name": "getDailyLimit",
					"outputs": [
						{
							"internalType": "uint256",
							"name": "",
							"type": "uint256"
						}
					],
					"stateMutability": "view",
					"type": "function"
				},
				{
					"inputs": [
						{
							"internalType": "address",
							"name": "_token",
							"type": "address"
						}
					],
					"name": "inCaseTokensGetStuck",
					"outputs": [],
					"stateMutability": "nonpayable",
					"type": "function"
				},
				{
					"inputs": [],
					"name": "lastDay",
					"outputs": [
						{
							"internalType": "uint256",
							"name": "",
							"type": "uint256"
						}
					],
					"stateMutability": "view",
					"type": "function"
				},
				{
					"inputs": [],
					"name": "owner",
					"outputs": [
						{
							"internalType": "address",
							"name": "",
							"type": "address"
						}
					],
					"stateMutability": "view",
					"type": "function"
				},
				{
					"inputs": [],
					"name": "pause",
					"outputs": [],
					"stateMutability": "nonpayable",
					"type": "function"
				},
				{
					"inputs": [],
					"name": "paused",
					"outputs": [
						{
							"internalType": "bool",
							"name": "",
							"type": "bool"
						}
					],
					"stateMutability": "view",
					"type": "function"
				},
				{
					"inputs": [],
					"name": "renounceOwnership",
					"outputs": [],
					"stateMutability": "nonpayable",
					"type": "function"
				},
				{
					"inputs": [
						{
							"internalType": "address",
							"name": "_admin",
							"type": "address"
						}
					],
					"name": "setAdmin",
					"outputs": [],
					"stateMutability": "nonpayable",
					"type": "function"
				},
				{
					"inputs": [
						{
							"internalType": "uint256",
							"name": "_newDailyLimit",
							"type": "uint256"
						}
					],
					"name": "setDailyLimit",
					"outputs": [],
					"stateMutability": "nonpayable",
					"type": "function"
				},
				{
					"inputs": [],
					"name": "spentToday",
					"outputs": [
						{
							"internalType": "uint256",
							"name": "",
							"type": "uint256"
						}
					],
					"stateMutability": "view",
					"type": "function"
				},
				{
					"inputs": [],
					"name": "token",
					"outputs": [
						{
							"internalType": "contract IERC20",
							"name": "",
							"type": "address"
						}
					],
					"stateMutability": "view",
					"type": "function"
				},
				{
					"inputs": [
						{
							"internalType": "address",
							"name": "newOwner",
							"type": "address"
						}
					],
					"name": "transferOwnership",
					"outputs": [],
					"stateMutability": "nonpayable",
					"type": "function"
				},
				{
					"inputs": [],
					"name": "unpause",
					"outputs": [],
					"stateMutability": "nonpayable",
					"type": "function"
				},
				{
					"inputs": [
						{
							"internalType": "address",
							"name": "_to",
							"type": "address"
						},
						{
							"internalType": "uint256",
							"name": "_amount",
							"type": "uint256"
						}
					],
					"name": "withdraw",
					"outputs": [],
					"stateMutability": "nonpayable",
					"type": "function"
				},
				{
					"inputs": [],
					"name": "withdrawAll",
					"outputs": [],
					"stateMutability": "nonpayable",
					"type": "function"
				}
			],
			"devdoc": {
				"kind": "dev",
				"methods": {
					"constructor": {
						"params": {
							"_admin": ": address of the admin",
							"_approvedSpender": ": PullRewardsIncentivesController contract",
							"_dailyLimit": ": max permitted incentives spend each day",
							"_token": ": Incentives token contract"
						}
					},
					"deposit(uint256)": {
						"details": "Only possible when contract not paused.",
						"params": {
							"_amount": ": number of tokens to deposit (in TLOS)"
						}
					},
					"owner()": {
						"details": "Returns the address of the current owner."
					},
					"pause()": {
						"details": "Only possible when contract not paused."
					},
					"paused()": {
						"details": "Returns true if the contract is paused, and false otherwise."
					},
					"renounceOwnership()": {
						"details": "Leaves the contract without owner. It will not be possible to call `onlyOwner` functions anymore. Can only be called by the current owner. NOTE: Renouncing ownership will leave the contract without an owner, thereby removing any functionality that is only available to the owner."
					},
					"setAdmin(address)": {
						"details": "Only callable by the contract owner."
					},
					"setDailyLimit(uint256)": {
						"details": "Only callable by the contract owner."
					},
					"transferOwnership(address)": {
						"details": "Transfers ownership of the contract to a new account (`newOwner`). Can only be called by the current owner."
					},
					"unpause()": {
						"details": "Only possible when contract is paused."
					},
					"withdraw(address,uint256)": {
						"params": {
							"_amount": ": amount to withdraw"
						}
					}
				},
				"version": 1
			},
			"evm": {
				"assembly": "    /* \"contracts/Omnidex-incentives/incentives/TempIncentivesVault.sol\":575:5263  contract TempIncentivesVault is Ownable, Pausable {... */\n  mstore(0x40, 0xa0)\n    /* \"contracts/Omnidex-incentives/incentives/TempIncentivesVault.sol\":1328:1698  constructor(... */\n  callvalue\n  dup1\n  iszero\n  tag_1\n  jumpi\n  0x00\n  dup1\n  revert\ntag_1:\n  pop\n  mload(0x40)\n  sub(codesize, bytecodeSize)\n  dup1\n  bytecodeSize\n  dup4\n  codecopy\n  dup2\n  dup2\n  add\n  0x40\n  mstore\n  0x80\n  dup2\n  lt\n  iszero\n  tag_2\n  jumpi\n  0x00\n  dup1\n  revert\ntag_2:\n  dup2\n  add\n  swap1\n  dup1\n  dup1\n  mload\n  swap1\n  0x20\n  add\n  swap1\n  swap3\n  swap2\n  swap1\n  dup1\n  mload\n  swap1\n  0x20\n  add\n  swap1\n  swap3\n  swap2\n  swap1\n  dup1\n  mload\n  swap1\n  0x20\n  add\n  swap1\n  swap3\n  swap2\n  swap1\n  dup1\n  mload\n  swap1\n  0x20\n  add\n  swap1\n  swap3\n  swap2\n  swap1\n  pop\n  pop\n  pop\n    /* \"https://github.com/OmniDexFinance/helper/blob/master/%40openzeppelin/contracts/access/Ownable.sol\":884:901  address msgSender */\n  0x00\n    /* \"https://github.com/OmniDexFinance/helper/blob/master/%40openzeppelin/contracts/access/Ownable.sol\":904:916  _msgSender() */\n  tag_7\n    /* \"https://github.com/OmniDexFinance/helper/blob/master/%40openzeppelin/contracts/access/Ownable.sol\":904:914  _msgSender */\n  shl(0x20, tag_8)\n    /* \"https://github.com/OmniDexFinance/helper/blob/master/%40openzeppelin/contracts/access/Ownable.sol\":904:916  _msgSender() */\n  0x20\n  shr\n  jump\t// in\ntag_7:\n    /* \"https://github.com/OmniDexFinance/helper/blob/master/%40openzeppelin/contracts/access/Ownable.sol\":884:916  address msgSender = _msgSender() */\n  swap1\n  pop\n    /* \"https://github.com/OmniDexFinance/helper/blob/master/%40openzeppelin/contracts/access/Ownable.sol\":935:944  msgSender */\n  dup1\n    /* \"https://github.com/OmniDexFinance/helper/blob/master/%40openzeppelin/contracts/access/Ownable.sol\":926:932  _owner */\n  0x00\n  dup1\n    /* \"https://github.com/OmniDexFinance/helper/blob/master/%40openzeppelin/contracts/access/Ownable.sol\":926:944  _owner = msgSender */\n  0x0100\n  exp\n  dup2\n  sload\n  dup2\n  0xffffffffffffffffffffffffffffffffffffffff\n  mul\n  not\n  and\n  swap1\n  dup4\n  0xffffffffffffffffffffffffffffffffffffffff\n  and\n  mul\n  or\n  swap1\n  sstore\n  pop\n    /* \"https://github.com/OmniDexFinance/helper/blob/master/%40openzeppelin/contracts/access/Ownable.sol\":992:1001  msgSender */\n  dup1\n    /* \"https://github.com/OmniDexFinance/helper/blob/master/%40openzeppelin/contracts/access/Ownable.sol\":959:1002  OwnershipTransferred(address(0), msgSender) */\n  0xffffffffffffffffffffffffffffffffffffffff\n  and\n    /* \"https://github.com/OmniDexFinance/helper/blob/master/%40openzeppelin/contracts/access/Ownable.sol\":988:989  0 */\n  0x00\n    /* \"https://github.com/OmniDexFinance/helper/blob/master/%40openzeppelin/contracts/access/Ownable.sol\":959:1002  OwnershipTransferred(address(0), msgSender) */\n  0xffffffffffffffffffffffffffffffffffffffff\n  and\n  0x8be0079c531659141344cd1fd0a4f28419497f9722a3daafe3b4186f6b6457e0\n  mload(0x40)\n  mload(0x40)\n  dup1\n  swap2\n  sub\n  swap1\n  log3\n    /* \"https://github.com/OmniDexFinance/helper/blob/master/%40openzeppelin/contracts/access/Ownable.sol\":850:1009  constructor () internal {... */\n  pop\n    /* \"https://github.com/OmniDexFinance/helper/blob/master/%40openzeppelin/contracts/utils/Pausable.sol\":945:950  false */\n  0x00\n    /* \"https://github.com/OmniDexFinance/helper/blob/master/%40openzeppelin/contracts/utils/Pausable.sol\":935:942  _paused */\n  dup1\n  0x14\n    /* \"https://github.com/OmniDexFinance/helper/blob/master/%40openzeppelin/contracts/utils/Pausable.sol\":935:950  _paused = false */\n  0x0100\n  exp\n  dup2\n  sload\n  dup2\n  0xff\n  mul\n  not\n  and\n  swap1\n  dup4\n  iszero\n  iszero\n  mul\n  or\n  swap1\n  sstore\n  pop\n    /* \"contracts/Omnidex-incentives/incentives/TempIncentivesVault.sol\":1478:1484  _token */\n  dup4\n    /* \"contracts/Omnidex-incentives/incentives/TempIncentivesVault.sol\":1470:1484  token = _token */\n  0xffffffffffffffffffffffffffffffffffffffff\n  and\n  0x80\n  dup2\n  0xffffffffffffffffffffffffffffffffffffffff\n  and\n  0x60\n  shl\n  dup2\n  mstore\n  pop\n  pop\n    /* \"contracts/Omnidex-incentives/incentives/TempIncentivesVault.sol\":1512:1528  _approvedSpender */\n  dup3\n    /* \"contracts/Omnidex-incentives/incentives/TempIncentivesVault.sol\":1494:1509  approvedSpender */\n  0x02\n  0x00\n    /* \"contracts/Omnidex-incentives/incentives/TempIncentivesVault.sol\":1494:1528  approvedSpender = _approvedSpender */\n  0x0100\n  exp\n  dup2\n  sload\n  dup2\n  0xffffffffffffffffffffffffffffffffffffffff\n  mul\n  not\n  and\n  swap1\n  dup4\n  0xffffffffffffffffffffffffffffffffffffffff\n  and\n  mul\n  or\n  swap1\n  sstore\n  pop\n    /* \"contracts/Omnidex-incentives/incentives/TempIncentivesVault.sol\":1546:1552  _admin */\n  dup2\n    /* \"contracts/Omnidex-incentives/incentives/TempIncentivesVault.sol\":1538:1543  admin */\n  0x01\n  0x00\n    /* \"contracts/Omnidex-incentives/incentives/TempIncentivesVault.sol\":1538:1552  admin = _admin */\n  0x0100\n  exp\n  dup2\n  sload\n  dup2\n  0xffffffffffffffffffffffffffffffffffffffff\n  mul\n  not\n  and\n  swap1\n  dup4\n  0xffffffffffffffffffffffffffffffffffffffff\n  and\n  mul\n  or\n  swap1\n  sstore\n  pop\n    /* \"contracts/Omnidex-incentives/incentives/TempIncentivesVault.sol\":1575:1586  _dailyLimit */\n  dup1\n    /* \"contracts/Omnidex-incentives/incentives/TempIncentivesVault.sol\":1562:1572  dailyLimit */\n  0x03\n    /* \"contracts/Omnidex-incentives/incentives/TempIncentivesVault.sol\":1562:1586  dailyLimit = _dailyLimit */\n  dup2\n  swap1\n  sstore\n  pop\n    /* \"contracts/Omnidex-incentives/incentives/TempIncentivesVault.sol\":1625:1691  IERC20(_token).safeApprove(address(_approvedSpender), uint256(-1)) */\n  tag_11\n    /* \"contracts/Omnidex-incentives/incentives/TempIncentivesVault.sol\":1660:1676  _approvedSpender */\n  dup4\n    /* \"contracts/Omnidex-incentives/incentives/TempIncentivesVault.sol\":1687:1689  -1 */\n  0xffffffffffffffffffffffffffffffffffffffffffffffffffffffffffffffff\n    /* \"contracts/Omnidex-incentives/incentives/TempIncentivesVault.sol\":1632:1638  _token */\n  dup7\n    /* \"contracts/Omnidex-incentives/incentives/TempIncentivesVault.sol\":1625:1651  IERC20(_token).safeApprove */\n  0xffffffffffffffffffffffffffffffffffffffff\n  and\n  or(tag_0_69, shl(0x20, tag_12))\n  swap1\n    /* \"contracts/Omnidex-incentives/incentives/TempIncentivesVault.sol\":1625:1691  IERC20(_token).safeApprove(address(_approvedSpender), uint256(-1)) */\n  swap3\n  swap2\n  swap1\n  0x20\n  shr\n  jump\t// in\ntag_11:\n    /* \"contracts/Omnidex-incentives/incentives/TempIncentivesVault.sol\":1328:1698  constructor(... */\n  pop\n  pop\n  pop\n  pop\n    /* \"contracts/Omnidex-incentives/incentives/TempIncentivesVault.sol\":575:5263  contract TempIncentivesVault is Ownable, Pausable {... */\n  jump(tag_13)\n    /* \"https://github.com/OmniDexFinance/helper/blob/master/%40openzeppelin/contracts/utils/Context.sol\":598:702  function _msgSender() internal view virtual returns (address payable) {... */\ntag_8:\n    /* \"https://github.com/OmniDexFinance/helper/blob/master/%40openzeppelin/contracts/utils/Context.sol\":651:666  address payable */\n  0x00\n    /* \"https://github.com/OmniDexFinance/helper/blob/master/%40openzeppelin/contracts/utils/Context.sol\":685:695  msg.sender */\n  caller\n    /* \"https://github.com/OmniDexFinance/helper/blob/master/%40openzeppelin/contracts/utils/Context.sol\":678:695  return msg.sender */\n  swap1\n  pop\n    /* \"https://github.com/OmniDexFinance/helper/blob/master/%40openzeppelin/contracts/utils/Context.sol\":598:702  function _msgSender() internal view virtual returns (address payable) {... */\n  swap1\n  jump\t// out\n    /* \"https://github.com/OmniDexFinance/helper/blob/master/%40openzeppelin/contracts/token/ERC20/SafeERC20.sol\":1348:1961  function safeApprove(IERC20 token, address spender, uint256 value) internal {... */\ntag_12:\n    /* \"https://github.com/OmniDexFinance/helper/blob/master/%40openzeppelin/contracts/token/ERC20/SafeERC20.sol\":1722:1723  0 */\n  0x00\n    /* \"https://github.com/OmniDexFinance/helper/blob/master/%40openzeppelin/contracts/token/ERC20/SafeERC20.sol\":1713:1718  value */\n  dup2\n    /* \"https://github.com/OmniDexFinance/helper/blob/master/%40openzeppelin/contracts/token/ERC20/SafeERC20.sol\":1713:1723  value == 0 */\n  eq\n    /* \"https://github.com/OmniDexFinance/helper/blob/master/%40openzeppelin/contracts/token/ERC20/SafeERC20.sol\":1712:1774  (value == 0) || (token.allowance(address(this), spender) == 0) */\n  dup1\n  tag_16\n  jumpi\n  pop\n    /* \"https://github.com/OmniDexFinance/helper/blob/master/%40openzeppelin/contracts/token/ERC20/SafeERC20.sol\":1772:1773  0 */\n  0x00\n    /* \"https://github.com/OmniDexFinance/helper/blob/master/%40openzeppelin/contracts/token/ERC20/SafeERC20.sol\":1729:1734  token */\n  dup4\n    /* \"https://github.com/OmniDexFinance/helper/blob/master/%40openzeppelin/contracts/token/ERC20/SafeERC20.sol\":1729:1744  token.allowance */\n  0xffffffffffffffffffffffffffffffffffffffff\n  and\n  0xdd62ed3e\n    /* \"https://github.com/OmniDexFinance/helper/blob/master/%40openzeppelin/contracts/token/ERC20/SafeERC20.sol\":1753:1757  this */\n  address\n    /* \"https://github.com/OmniDexFinance/helper/blob/master/%40openzeppelin/contracts/token/ERC20/SafeERC20.sol\":1760:1767  spender */\n  dup6\n    /* \"https://github.com/OmniDexFinance/helper/blob/master/%40openzeppelin/contracts/token/ERC20/SafeERC20.sol\":1729:1768  token.allowance(address(this), spender) */\n  mload(0x40)\n  dup4\n  0xffffffff\n  and\n  0xe0\n  shl\n  dup2\n  mstore\n  0x04\n  add\n  dup1\n  dup4\n  0xffffffffffffffffffffffffffffffffffffffff\n  and\n  dup2\n  mstore\n  0x20\n  add\n  dup3\n  0xffffffffffffffffffffffffffffffffffffffff\n  and\n  dup2\n  mstore\n  0x20\n  add\n  swap3\n  pop\n  pop\n  pop\n  0x20\n  mload(0x40)\n  dup1\n  dup4\n  sub\n  dup2\n  dup7\n  dup1\n  extcodesize\n  iszero\n  dup1\n  iszero\n  tag_17\n  jumpi\n  0x00\n  dup1\n  revert\ntag_17:\n  pop\n  gas\n  staticcall\n  iszero\n  dup1\n  iszero\n  tag_19\n  jumpi\n  returndatasize\n  0x00\n  dup1\n  returndatacopy\n  revert(0x00, returndatasize)\ntag_19:\n  pop\n  pop\n  pop\n  pop\n  mload(0x40)\n  returndatasize\n  0x20\n  dup2\n  lt\n  iszero\n  tag_20\n  jumpi\n  0x00\n  dup1\n  revert\ntag_20:\n  dup2\n  add\n  swap1\n  dup1\n  dup1\n  mload\n  swap1\n  0x20\n  add\n  swap1\n  swap3\n  swap2\n  swap1\n  pop\n  pop\n  pop\n    /* \"https://github.com/OmniDexFinance/helper/blob/master/%40openzeppelin/contracts/token/ERC20/SafeERC20.sol\":1729:1773  token.allowance(address(this), spender) == 0 */\n  eq\n    /* \"https://github.com/OmniDexFinance/helper/blob/master/%40openzeppelin/contracts/token/ERC20/SafeERC20.sol\":1712:1774  (value == 0) || (token.allowance(address(this), spender) == 0) */\ntag_16:\n    /* \"https://github.com/OmniDexFinance/helper/blob/master/%40openzeppelin/contracts/token/ERC20/SafeERC20.sol\":1704:1854  require((value == 0) || (token.allowance(address(this), spender) == 0),... */\n  tag_21\n  jumpi\n  mload(0x40)\n  0x08c379a000000000000000000000000000000000000000000000000000000000\n  dup2\n  mstore\n  0x04\n  add\n  dup1\n  dup1\n  0x20\n  add\n  dup3\n  dup2\n  sub\n  dup3\n  mstore\n  0x36\n  dup2\n  mstore\n  0x20\n  add\n  dup1\n  data_ef945ddb1bfdc0da870feb4560d868b047642b4ac7f2fb7f8b7c51cb4a411e25\n  0x36\n  swap2\n  codecopy\n  0x40\n  add\n  swap2\n  pop\n  pop\n  mload(0x40)\n  dup1\n  swap2\n  sub\n  swap1\n  revert\ntag_21:\n    /* \"https://github.com/OmniDexFinance/helper/blob/master/%40openzeppelin/contracts/token/ERC20/SafeERC20.sol\":1864:1954  _callOptionalReturn(token, abi.encodeWithSelector(token.approve.selector, spender, value)) */\n  tag_22\n    /* \"https://github.com/OmniDexFinance/helper/blob/master/%40openzeppelin/contracts/token/ERC20/SafeERC20.sol\":1884:1889  token */\n  dup4\n    /* \"https://github.com/OmniDexFinance/helper/blob/master/%40openzeppelin/contracts/token/ERC20/SafeERC20.sol\":1914:1936  token.approve.selector */\n  shl(0xe0, 0x095ea7b3)\n    /* \"https://github.com/OmniDexFinance/helper/blob/master/%40openzeppelin/contracts/token/ERC20/SafeERC20.sol\":1938:1945  spender */\n  dup5\n    /* \"https://github.com/OmniDexFinance/helper/blob/master/%40openzeppelin/contracts/token/ERC20/SafeERC20.sol\":1947:1952  value */\n  dup5\n    /* \"https://github.com/OmniDexFinance/helper/blob/master/%40openzeppelin/contracts/token/ERC20/SafeERC20.sol\":1891:1953  abi.encodeWithSelector(token.approve.selector, spender, value) */\n  add(0x24, mload(0x40))\n  dup1\n  dup4\n  0xffffffffffffffffffffffffffffffffffffffff\n  and\n  dup2\n  mstore\n  0x20\n  add\n  dup3\n  dup2\n  mstore\n  0x20\n  add\n  swap3\n  pop\n  pop\n  pop\n  mload(0x40)\n  0x20\n  dup2\n  dup4\n  sub\n  sub\n  dup2\n  mstore\n  swap1\n  0x40\n  mstore\n  swap1\n  not(0xffffffffffffffffffffffffffffffffffffffffffffffffffffffff)\n  and\n  0x20\n  dup3\n  add\n  dup1\n  mload\n  0xffffffffffffffffffffffffffffffffffffffffffffffffffffffff\n  dup4\n  dup2\n  dup4\n  and\n  or\n  dup4\n  mstore\n  pop\n  pop\n  pop\n  pop\n    /* \"https://github.com/OmniDexFinance/helper/blob/master/%40openzeppelin/contracts/token/ERC20/SafeERC20.sol\":1864:1883  _callOptionalReturn */\n  shl(0x20, tag_23)\n    /* \"https://github.com/OmniDexFinance/helper/blob/master/%40openzeppelin/contracts/token/ERC20/SafeERC20.sol\":1864:1954  _callOptionalReturn(token, abi.encodeWithSelector(token.approve.selector, spender, value)) */\n  0x20\n  shr\n  jump\t// in\ntag_22:\n    /* \"https://github.com/OmniDexFinance/helper/blob/master/%40openzeppelin/contracts/token/ERC20/SafeERC20.sol\":1348:1961  function safeApprove(IERC20 token, address spender, uint256 value) internal {... */\n  pop\n  pop\n  pop\n  jump\t// out\n    /* \"https://github.com/OmniDexFinance/helper/blob/master/%40openzeppelin/contracts/token/ERC20/SafeERC20.sol\":2967:3718  function _callOptionalReturn(IERC20 token, bytes memory data) private {... */\ntag_23:\n    /* \"https://github.com/OmniDexFinance/helper/blob/master/%40openzeppelin/contracts/token/ERC20/SafeERC20.sol\":3386:3409  bytes memory returndata */\n  0x60\n    /* \"https://github.com/OmniDexFinance/helper/blob/master/%40openzeppelin/contracts/token/ERC20/SafeERC20.sol\":3412:3481  address(token).functionCall(data, \"SafeERC20: low-level call failed\") */\n  tag_25\n    /* \"https://github.com/OmniDexFinance/helper/blob/master/%40openzeppelin/contracts/token/ERC20/SafeERC20.sol\":3440:3444  data */\n  dup3\n    /* \"https://github.com/OmniDexFinance/helper/blob/master/%40openzeppelin/contracts/token/ERC20/SafeERC20.sol\":3412:3481  address(token).functionCall(data, \"SafeERC20: low-level call failed\") */\n  mload(0x40)\n  dup1\n  0x40\n  add\n  0x40\n  mstore\n  dup1\n  0x20\n  dup2\n  mstore\n  0x20\n  add\n  0x5361666545524332303a206c6f772d6c6576656c2063616c6c206661696c6564\n  dup2\n  mstore\n  pop\n    /* \"https://github.com/OmniDexFinance/helper/blob/master/%40openzeppelin/contracts/token/ERC20/SafeERC20.sol\":3420:3425  token */\n  dup6\n    /* \"https://github.com/OmniDexFinance/helper/blob/master/%40openzeppelin/contracts/token/ERC20/SafeERC20.sol\":3412:3439  address(token).functionCall */\n  0xffffffffffffffffffffffffffffffffffffffff\n  and\n  or(tag_0_70, shl(0x20, tag_26))\n  swap1\n    /* \"https://github.com/OmniDexFinance/helper/blob/master/%40openzeppelin/contracts/token/ERC20/SafeERC20.sol\":3412:3481  address(token).functionCall(data, \"SafeERC20: low-level call failed\") */\n  swap3\n  swap2\n  swap1\n  0x20\n  shr\n  jump\t// in\ntag_25:\n    /* \"https://github.com/OmniDexFinance/helper/blob/master/%40openzeppelin/contracts/token/ERC20/SafeERC20.sol\":3386:3481  bytes memory returndata = address(token).functionCall(data, \"SafeERC20: low-level call failed\") */\n  swap1\n  pop\n    /* \"https://github.com/OmniDexFinance/helper/blob/master/%40openzeppelin/contracts/token/ERC20/SafeERC20.sol\":3515:3516  0 */\n  0x00\n    /* \"https://github.com/OmniDexFinance/helper/blob/master/%40openzeppelin/contracts/token/ERC20/SafeERC20.sol\":3495:3505  returndata */\n  dup2\n    /* \"https://github.com/OmniDexFinance/helper/blob/master/%40openzeppelin/contracts/token/ERC20/SafeERC20.sol\":3495:3512  returndata.length */\n  mload\n    /* \"https://github.com/OmniDexFinance/helper/blob/master/%40openzeppelin/contracts/token/ERC20/SafeERC20.sol\":3495:3516  returndata.length > 0 */\n  gt\n    /* \"https://github.com/OmniDexFinance/helper/blob/master/%40openzeppelin/contracts/token/ERC20/SafeERC20.sol\":3491:3712  if (returndata.length > 0) { // Return data is optional... */\n  iszero\n  tag_27\n  jumpi\n    /* \"https://github.com/OmniDexFinance/helper/blob/master/%40openzeppelin/contracts/token/ERC20/SafeERC20.sol\":3635:3645  returndata */\n  dup1\n    /* \"https://github.com/OmniDexFinance/helper/blob/master/%40openzeppelin/contracts/token/ERC20/SafeERC20.sol\":3624:3654  abi.decode(returndata, (bool)) */\n  dup1\n  0x20\n  add\n  swap1\n  mload\n  0x20\n  dup2\n  lt\n  iszero\n  tag_28\n  jumpi\n  0x00\n  dup1\n  revert\ntag_28:\n  dup2\n  add\n  swap1\n  dup1\n  dup1\n  mload\n  swap1\n  0x20\n  add\n  swap1\n  swap3\n  swap2\n  swap1\n  pop\n  pop\n  pop\n    /* \"https://github.com/OmniDexFinance/helper/blob/master/%40openzeppelin/contracts/token/ERC20/SafeERC20.sol\":3616:3701  require(abi.decode(returndata, (bool)), \"SafeERC20: ERC20 operation did not succeed\") */\n  tag_29\n  jumpi\n  mload(0x40)\n  0x08c379a000000000000000000000000000000000000000000000000000000000\n  dup2\n  mstore\n  0x04\n  add\n  dup1\n  dup1\n  0x20\n  add\n  dup3\n  dup2\n  sub\n  dup3\n  mstore\n  0x2a\n  dup2\n  mstore\n  0x20\n  add\n  dup1\n  data_e11ad79d1e4a7f2e5f376964cb99e8e8f7904e3fc16a109f7a7ecb9aa7956dcd\n  0x2a\n  swap2\n  codecopy\n  0x40\n  add\n  swap2\n  pop\n  pop\n  mload(0x40)\n  dup1\n  swap2\n  sub\n  swap1\n  revert\ntag_29:\n    /* \"https://github.com/OmniDexFinance/helper/blob/master/%40openzeppelin/contracts/token/ERC20/SafeERC20.sol\":3491:3712  if (returndata.length > 0) { // Return data is optional... */\ntag_27:\n    /* \"https://github.com/OmniDexFinance/helper/blob/master/%40openzeppelin/contracts/token/ERC20/SafeERC20.sol\":2967:3718  function _callOptionalReturn(IERC20 token, bytes memory data) private {... */\n  pop\n  pop\n  pop\n  jump\t// out\n    /* \"https://github.com/OmniDexFinance/helper/blob/master/%40openzeppelin/contracts/utils/Address.sol\":3581:3774  function functionCall(address target, bytes memory data, string memory errorMessage) internal returns (bytes memory) {... */\ntag_26:\n    /* \"https://github.com/OmniDexFinance/helper/blob/master/%40openzeppelin/contracts/utils/Address.sol\":3684:3696  bytes memory */\n  0x60\n    /* \"https://github.com/OmniDexFinance/helper/blob/master/%40openzeppelin/contracts/utils/Address.sol\":3715:3767  functionCallWithValue(target, data, 0, errorMessage) */\n  tag_31\n    /* \"https://github.com/OmniDexFinance/helper/blob/master/%40openzeppelin/contracts/utils/Address.sol\":3737:3743  target */\n  dup5\n    /* \"https://github.com/OmniDexFinance/helper/blob/master/%40openzeppelin/contracts/utils/Address.sol\":3745:3749  data */\n  dup5\n    /* \"https://github.com/OmniDexFinance/helper/blob/master/%40openzeppelin/contracts/utils/Address.sol\":3751:3752  0 */\n  0x00\n    /* \"https://github.com/OmniDexFinance/helper/blob/master/%40openzeppelin/contracts/utils/Address.sol\":3754:3766  errorMessage */\n  dup6\n    /* \"https://github.com/OmniDexFinance/helper/blob/master/%40openzeppelin/contracts/utils/Address.sol\":3715:3736  functionCallWithValue */\n  shl(0x20, tag_32)\n    /* \"https://github.com/OmniDexFinance/helper/blob/master/%40openzeppelin/contracts/utils/Address.sol\":3715:3767  functionCallWithValue(target, data, 0, errorMessage) */\n  0x20\n  shr\n  jump\t// in\ntag_31:\n    /* \"https://github.com/OmniDexFinance/helper/blob/master/%40openzeppelin/contracts/utils/Address.sol\":3708:3767  return functionCallWithValue(target, data, 0, errorMessage) */\n  swap1\n  pop\n    /* \"https://github.com/OmniDexFinance/helper/blob/master/%40openzeppelin/contracts/utils/Address.sol\":3581:3774  function functionCall(address target, bytes memory data, string memory errorMessage) internal returns (bytes memory) {... */\n  swap4\n  swap3\n  pop\n  pop\n  pop\n  jump\t// out\n    /* \"https://github.com/OmniDexFinance/helper/blob/master/%40openzeppelin/contracts/utils/Address.sol\":4608:5131  function functionCallWithValue(address target, bytes memory data, uint256 value, string memory errorMessage) internal returns (bytes memory) {... */\ntag_32:\n    /* \"https://github.com/OmniDexFinance/helper/blob/master/%40openzeppelin/contracts/utils/Address.sol\":4735:4747  bytes memory */\n  0x60\n    /* \"https://github.com/OmniDexFinance/helper/blob/master/%40openzeppelin/contracts/utils/Address.sol\":4792:4797  value */\n  dup3\n    /* \"https://github.com/OmniDexFinance/helper/blob/master/%40openzeppelin/contracts/utils/Address.sol\":4767:4788  address(this).balance */\n  selfbalance\n    /* \"https://github.com/OmniDexFinance/helper/blob/master/%40openzeppelin/contracts/utils/Address.sol\":4767:4797  address(this).balance >= value */\n  lt\n  iszero\n    /* \"https://github.com/OmniDexFinance/helper/blob/master/%40openzeppelin/contracts/utils/Address.sol\":4759:4840  require(address(this).balance >= value, \"Address: insufficient balance for call\") */\n  tag_34\n  jumpi\n  mload(0x40)\n  0x08c379a000000000000000000000000000000000000000000000000000000000\n  dup2\n  mstore\n  0x04\n  add\n  dup1\n  dup1\n  0x20\n  add\n  dup3\n  dup2\n  sub\n  dup3\n  mstore\n  0x26\n  dup2\n  mstore\n  0x20\n  add\n  dup1\n  data_565f1a77334fc4792800921178c71e4521acffab18ff9e7885b49377ee80ab4c\n  0x26\n  swap2\n  codecopy\n  0x40\n  add\n  swap2\n  pop\n  pop\n  mload(0x40)\n  dup1\n  swap2\n  sub\n  swap1\n  revert\ntag_34:\n    /* \"https://github.com/OmniDexFinance/helper/blob/master/%40openzeppelin/contracts/utils/Address.sol\":4858:4876  isContract(target) */\n  tag_35\n    /* \"https://github.com/OmniDexFinance/helper/blob/master/%40openzeppelin/contracts/utils/Address.sol\":4869:4875  target */\n  dup6\n    /* \"https://github.com/OmniDexFinance/helper/blob/master/%40openzeppelin/contracts/utils/Address.sol\":4858:4868  isContract */\n  shl(0x20, tag_36)\n    /* \"https://github.com/OmniDexFinance/helper/blob/master/%40openzeppelin/contracts/utils/Address.sol\":4858:4876  isContract(target) */\n  0x20\n  shr\n  jump\t// in\ntag_35:\n    /* \"https://github.com/OmniDexFinance/helper/blob/master/%40openzeppelin/contracts/utils/Address.sol\":4850:4910  require(isContract(target), \"Address: call to non-contract\") */\n  tag_37\n  jumpi\n  mload(0x40)\n  0x08c379a000000000000000000000000000000000000000000000000000000000\n  dup2\n  mstore\n  0x04\n  add\n  dup1\n  dup1\n  0x20\n  add\n  dup3\n  dup2\n  sub\n  dup3\n  mstore\n  0x1d\n  dup2\n  mstore\n  0x20\n  add\n  dup1\n  0x416464726573733a2063616c6c20746f206e6f6e2d636f6e7472616374000000\n  dup2\n  mstore\n  pop\n  0x20\n  add\n  swap2\n  pop\n  pop\n  mload(0x40)\n  dup1\n  swap2\n  sub\n  swap1\n  revert\ntag_37:\n    /* \"https://github.com/OmniDexFinance/helper/blob/master/%40openzeppelin/contracts/utils/Address.sol\":4981:4993  bool success */\n  0x00\n    /* \"https://github.com/OmniDexFinance/helper/blob/master/%40openzeppelin/contracts/utils/Address.sol\":4995:5018  bytes memory returndata */\n  0x60\n    /* \"https://github.com/OmniDexFinance/helper/blob/master/%40openzeppelin/contracts/utils/Address.sol\":5022:5028  target */\n  dup7\n    /* \"https://github.com/OmniDexFinance/helper/blob/master/%40openzeppelin/contracts/utils/Address.sol\":5022:5033  target.call */\n  0xffffffffffffffffffffffffffffffffffffffff\n  and\n    /* \"https://github.com/OmniDexFinance/helper/blob/master/%40openzeppelin/contracts/utils/Address.sol\":5042:5047  value */\n  dup6\n    /* \"https://github.com/OmniDexFinance/helper/blob/master/%40openzeppelin/contracts/utils/Address.sol\":5050:5054  data */\n  dup8\n    /* \"https://github.com/OmniDexFinance/helper/blob/master/%40openzeppelin/contracts/utils/Address.sol\":5022:5055  target.call{ value: value }(data) */\n  mload(0x40)\n  dup1\n  dup3\n  dup1\n  mload\n  swap1\n  0x20\n  add\n  swap1\n  dup1\n  dup4\n  dup4\ntag_38:\n  0x20\n  dup4\n  lt\n  tag_40\n  jumpi\n  dup1\n  mload\n  dup3\n  mstore\n  0x20\n  dup3\n  add\n  swap2\n  pop\n  0x20\n  dup2\n  add\n  swap1\n  pop\n  0x20\n  dup4\n  sub\n  swap3\n  pop\n  jump(tag_38)\ntag_40:\n  0x01\n  dup4\n  0x20\n  sub\n  0x0100\n  exp\n  sub\n  dup1\n  not\n  dup3\n  mload\n  and\n  dup2\n  dup5\n  mload\n  and\n  dup1\n  dup3\n  or\n  dup6\n  mstore\n  pop\n  pop\n  pop\n  pop\n  pop\n  pop\n  swap1\n  pop\n  add\n  swap2\n  pop\n  pop\n  0x00\n  mload(0x40)\n  dup1\n  dup4\n  sub\n  dup2\n  dup6\n  dup8\n  gas\n  call\n  swap3\n  pop\n  pop\n  pop\n  returndatasize\n  dup1\n  0x00\n  dup2\n  eq\n  tag_43\n  jumpi\n  mload(0x40)\n  swap2\n  pop\n  and(add(returndatasize, 0x3f), not(0x1f))\n  dup3\n  add\n  0x40\n  mstore\n  returndatasize\n  dup3\n  mstore\n  returndatasize\n  0x00\n  0x20\n  dup5\n  add\n  returndatacopy\n  jump(tag_42)\ntag_43:\n  0x60\n  swap2\n  pop\ntag_42:\n  pop\n    /* \"https://github.com/OmniDexFinance/helper/blob/master/%40openzeppelin/contracts/utils/Address.sol\":4980:5055  (bool success, bytes memory returndata) = target.call{ value: value }(data) */\n  swap2\n  pop\n  swap2\n  pop\n    /* \"https://github.com/OmniDexFinance/helper/blob/master/%40openzeppelin/contracts/utils/Address.sol\":5072:5124  _verifyCallResult(success, returndata, errorMessage) */\n  tag_44\n    /* \"https://github.com/OmniDexFinance/helper/blob/master/%40openzeppelin/contracts/utils/Address.sol\":5090:5097  success */\n  dup3\n    /* \"https://github.com/OmniDexFinance/helper/blob/master/%40openzeppelin/contracts/utils/Address.sol\":5099:5109  returndata */\n  dup3\n    /* \"https://github.com/OmniDexFinance/helper/blob/master/%40openzeppelin/contracts/utils/Address.sol\":5111:5123  errorMessage */\n  dup7\n    /* \"https://github.com/OmniDexFinance/helper/blob/master/%40openzeppelin/contracts/utils/Address.sol\":5072:5089  _verifyCallResult */\n  shl(0x20, tag_45)\n    /* \"https://github.com/OmniDexFinance/helper/blob/master/%40openzeppelin/contracts/utils/Address.sol\":5072:5124  _verifyCallResult(success, returndata, errorMessage) */\n  0x20\n  shr\n  jump\t// in\ntag_44:\n    /* \"https://github.com/OmniDexFinance/helper/blob/master/%40openzeppelin/contracts/utils/Address.sol\":5065:5124  return _verifyCallResult(success, returndata, errorMessage) */\n  swap3\n  pop\n  pop\n  pop\n    /* \"https://github.com/OmniDexFinance/helper/blob/master/%40openzeppelin/contracts/utils/Address.sol\":4608:5131  function functionCallWithValue(address target, bytes memory data, uint256 value, string memory errorMessage) internal returns (bytes memory) {... */\n  swap5\n  swap4\n  pop\n  pop\n  pop\n  pop\n  jump\t// out\n    /* \"https://github.com/OmniDexFinance/helper/blob/master/%40openzeppelin/contracts/utils/Address.sol\":726:1139  function isContract(address account) internal view returns (bool) {... */\ntag_36:\n    /* \"https://github.com/OmniDexFinance/helper/blob/master/%40openzeppelin/contracts/utils/Address.sol\":786:790  bool */\n  0x00\n    /* \"https://github.com/OmniDexFinance/helper/blob/master/%40openzeppelin/contracts/utils/Address.sol\":989:1001  uint256 size */\n  dup1\n    /* \"https://github.com/OmniDexFinance/helper/blob/master/%40openzeppelin/contracts/utils/Address.sol\":1098:1105  account */\n  dup3\n    /* \"https://github.com/OmniDexFinance/helper/blob/master/%40openzeppelin/contracts/utils/Address.sol\":1086:1106  extcodesize(account) */\n  extcodesize\n    /* \"https://github.com/OmniDexFinance/helper/blob/master/%40openzeppelin/contracts/utils/Address.sol\":1078:1106  size := extcodesize(account) */\n  swap1\n  pop\n    /* \"https://github.com/OmniDexFinance/helper/blob/master/%40openzeppelin/contracts/utils/Address.sol\":1131:1132  0 */\n  0x00\n    /* \"https://github.com/OmniDexFinance/helper/blob/master/%40openzeppelin/contracts/utils/Address.sol\":1124:1128  size */\n  dup2\n    /* \"https://github.com/OmniDexFinance/helper/blob/master/%40openzeppelin/contracts/utils/Address.sol\":1124:1132  size > 0 */\n  gt\n    /* \"https://github.com/OmniDexFinance/helper/blob/master/%40openzeppelin/contracts/utils/Address.sol\":1117:1132  return size > 0 */\n  swap2\n  pop\n  pop\n    /* \"https://github.com/OmniDexFinance/helper/blob/master/%40openzeppelin/contracts/utils/Address.sol\":726:1139  function isContract(address account) internal view returns (bool) {... */\n  swap2\n  swap1\n  pop\n  jump\t// out\n    /* \"https://github.com/OmniDexFinance/helper/blob/master/%40openzeppelin/contracts/utils/Address.sol\":7091:7816  function _verifyCallResult(bool success, bytes memory returndata, string memory errorMessage) private pure returns(bytes memory) {... */\ntag_45:\n    /* \"https://github.com/OmniDexFinance/helper/blob/master/%40openzeppelin/contracts/utils/Address.sol\":7206:7218  bytes memory */\n  0x60\n    /* \"https://github.com/OmniDexFinance/helper/blob/master/%40openzeppelin/contracts/utils/Address.sol\":7234:7241  success */\n  dup4\n    /* \"https://github.com/OmniDexFinance/helper/blob/master/%40openzeppelin/contracts/utils/Address.sol\":7230:7810  if (success) {... */\n  iszero\n  tag_48\n  jumpi\n    /* \"https://github.com/OmniDexFinance/helper/blob/master/%40openzeppelin/contracts/utils/Address.sol\":7264:7274  returndata */\n  dup3\n    /* \"https://github.com/OmniDexFinance/helper/blob/master/%40openzeppelin/contracts/utils/Address.sol\":7257:7274  return returndata */\n  swap1\n  pop\n  jump(tag_47)\n    /* \"https://github.com/OmniDexFinance/helper/blob/master/%40openzeppelin/contracts/utils/Address.sol\":7230:7810  if (success) {... */\ntag_48:\n    /* \"https://github.com/OmniDexFinance/helper/blob/master/%40openzeppelin/contracts/utils/Address.sol\":7395:7396  0 */\n  0x00\n    /* \"https://github.com/OmniDexFinance/helper/blob/master/%40openzeppelin/contracts/utils/Address.sol\":7375:7385  returndata */\n  dup4\n    /* \"https://github.com/OmniDexFinance/helper/blob/master/%40openzeppelin/contracts/utils/Address.sol\":7375:7392  returndata.length */\n  mload\n    /* \"https://github.com/OmniDexFinance/helper/blob/master/%40openzeppelin/contracts/utils/Address.sol\":7375:7396  returndata.length > 0 */\n  gt\n    /* \"https://github.com/OmniDexFinance/helper/blob/master/%40openzeppelin/contracts/utils/Address.sol\":7371:7800  if (returndata.length > 0) {... */\n  iszero\n  tag_50\n  jumpi\n    /* \"https://github.com/OmniDexFinance/helper/blob/master/%40openzeppelin/contracts/utils/Address.sol\":7633:7643  returndata */\n  dup3\n    /* \"https://github.com/OmniDexFinance/helper/blob/master/%40openzeppelin/contracts/utils/Address.sol\":7627:7644  mload(returndata) */\n  mload\n    /* \"https://github.com/OmniDexFinance/helper/blob/master/%40openzeppelin/contracts/utils/Address.sol\":7693:7708  returndata_size */\n  dup1\n    /* \"https://github.com/OmniDexFinance/helper/blob/master/%40openzeppelin/contracts/utils/Address.sol\":7680:7690  returndata */\n  dup5\n    /* \"https://github.com/OmniDexFinance/helper/blob/master/%40openzeppelin/contracts/utils/Address.sol\":7676:7678  32 */\n  0x20\n    /* \"https://github.com/OmniDexFinance/helper/blob/master/%40openzeppelin/contracts/utils/Address.sol\":7672:7691  add(32, returndata) */\n  add\n    /* \"https://github.com/OmniDexFinance/helper/blob/master/%40openzeppelin/contracts/utils/Address.sol\":7665:7709  revert(add(32, returndata), returndata_size) */\n  revert\n    /* \"https://github.com/OmniDexFinance/helper/blob/master/%40openzeppelin/contracts/utils/Address.sol\":7582:7727  {... */\ntag_50:\n    /* \"https://github.com/OmniDexFinance/helper/blob/master/%40openzeppelin/contracts/utils/Address.sol\":7772:7784  errorMessage */\n  dup2\n    /* \"https://github.com/OmniDexFinance/helper/blob/master/%40openzeppelin/contracts/utils/Address.sol\":7765:7785  revert(errorMessage) */\n  mload(0x40)\n  0x08c379a000000000000000000000000000000000000000000000000000000000\n  dup2\n  mstore\n  0x04\n  add\n  dup1\n  dup1\n  0x20\n  add\n  dup3\n  dup2\n  sub\n  dup3\n  mstore\n  dup4\n  dup2\n  dup2\n  mload\n  dup2\n  mstore\n  0x20\n  add\n  swap2\n  pop\n  dup1\n  mload\n  swap1\n  0x20\n  add\n  swap1\n  dup1\n  dup4\n  dup4\n  0x00\ntag_52:\n  dup4\n  dup2\n  lt\n  iszero\n  tag_54\n  jumpi\n  dup1\n  dup3\n  add\n  mload\n  dup2\n  dup5\n  add\n  mstore\n  0x20\n  dup2\n  add\n  swap1\n  pop\n  jump(tag_52)\ntag_54:\n  pop\n  pop\n  pop\n  pop\n  swap1\n  pop\n  swap1\n  dup2\n  add\n  swap1\n  0x1f\n  and\n  dup1\n  iszero\n  tag_55\n  jumpi\n  dup1\n  dup3\n  sub\n  dup1\n  mload\n  0x01\n  dup4\n  0x20\n  sub\n  0x0100\n  exp\n  sub\n  not\n  and\n  dup2\n  mstore\n  0x20\n  add\n  swap2\n  pop\ntag_55:\n  pop\n  swap3\n  pop\n  pop\n  pop\n  mload(0x40)\n  dup1\n  swap2\n  sub\n  swap1\n  revert\n    /* \"https://github.com/OmniDexFinance/helper/blob/master/%40openzeppelin/contracts/utils/Address.sol\":7091:7816  function _verifyCallResult(bool success, bytes memory returndata, string memory errorMessage) private pure returns(bytes memory) {... */\ntag_47:\n  swap4\n  swap3\n  pop\n  pop\n  pop\n  jump\t// out\n    /* \"contracts/Omnidex-incentives/incentives/TempIncentivesVault.sol\":575:5263  contract TempIncentivesVault is Ownable, Pausable {... */\ntag_13:\n  shr(0x60, mload(0x80))\n  codecopy(0x00, dataOffset(sub_0), dataSize(sub_0))\n  assignImmutable(\"0x8fef2229291b68be841adf029e58b87f39ba144b2d3b0af1760243d0a9bc6a1c\")\n  return(0x00, dataSize(sub_0))\nstop\ndata_565f1a77334fc4792800921178c71e4521acffab18ff9e7885b49377ee80ab4c 416464726573733a20696e73756666696369656e742062616c616e636520666f722063616c6c\ndata_e11ad79d1e4a7f2e5f376964cb99e8e8f7904e3fc16a109f7a7ecb9aa7956dcd 5361666545524332303a204552433230206f7065726174696f6e20646964206e6f742073756363656564\ndata_ef945ddb1bfdc0da870feb4560d868b047642b4ac7f2fb7f8b7c51cb4a411e25 5361666545524332303a20617070726f76652066726f6d206e6f6e2d7a65726f20746f206e6f6e2d7a65726f20616c6c6f77616e6365\n\nsub_0: assembly {\n        /* \"contracts/Omnidex-incentives/incentives/TempIncentivesVault.sol\":575:5263  contract TempIncentivesVault is Ownable, Pausable {... */\n      mstore(0x40, 0x80)\n      callvalue\n      dup1\n      iszero\n      tag_1\n      jumpi\n      0x00\n      dup1\n      revert\n    tag_1:\n      pop\n      jumpi(tag_2, lt(calldatasize, 0x04))\n      shr(0xe0, calldataload(0x00))\n      dup1\n      0x8ef57f5e\n      gt\n      tag_22\n      jumpi\n      dup1\n      0xf059cf2b\n      gt\n      tag_23\n      jumpi\n      dup1\n      0xf059cf2b\n      eq\n      tag_17\n      jumpi\n      dup1\n      0xf2fde38b\n      eq\n      tag_18\n      jumpi\n      dup1\n      0xf3fef3a3\n      eq\n      tag_19\n      jumpi\n      dup1\n      0xf851a440\n      eq\n      tag_20\n      jumpi\n      dup1\n      0xfc0c546a\n      eq\n      tag_21\n      jumpi\n      jump(tag_2)\n    tag_23:\n      dup1\n      0x8ef57f5e\n      eq\n      tag_12\n      jumpi\n      dup1\n      0xa6895b5a\n      eq\n      tag_13\n      jumpi\n      dup1\n      0xb20d30a9\n      eq\n      tag_14\n      jumpi\n      dup1\n      0xb6b55f25\n      eq\n      tag_15\n      jumpi\n      dup1\n      0xdef68a9c\n      eq\n      tag_16\n      jumpi\n      jump(tag_2)\n    tag_22:\n      dup1\n      0x704b6c02\n      gt\n      tag_24\n      jumpi\n      dup1\n      0x704b6c02\n      eq\n      tag_7\n      jumpi\n      dup1\n      0x715018a6\n      eq\n      tag_8\n      jumpi\n      dup1\n      0x8456cb59\n      eq\n      tag_9\n      jumpi\n      dup1\n      0x853828b6\n      eq\n      tag_10\n      jumpi\n      dup1\n      0x8da5cb5b\n      eq\n      tag_11\n      jumpi\n      jump(tag_2)\n    tag_24:\n      dup1\n      0x3f4ba83a\n      eq\n      tag_3\n      jumpi\n      dup1\n      0x5c975abb\n      eq\n      tag_4\n      jumpi\n      dup1\n      0x67eeba0c\n      eq\n      tag_5\n      jumpi\n      dup1\n      0x6b0c932d\n      eq\n      tag_6\n      jumpi\n    tag_2:\n      0x00\n      dup1\n      revert\n        /* \"contracts/Omnidex-incentives/incentives/TempIncentivesVault.sol\":4001:4101  function unpause() external onlyAdmin whenPaused {... */\n    tag_3:\n      tag_25\n      tag_26\n      jump\t// in\n    tag_25:\n      stop\n        /* \"https://github.com/OmniDexFinance/helper/blob/master/%40openzeppelin/contracts/utils/Pausable.sol\":1052:1136  function paused() public view virtual returns (bool) {... */\n    tag_4:\n      tag_27\n      tag_28\n      jump\t// in\n    tag_27:\n      mload(0x40)\n      dup1\n      dup3\n      iszero\n      iszero\n      dup2\n      mstore\n      0x20\n      add\n      swap2\n      pop\n      pop\n      mload(0x40)\n      dup1\n      swap2\n      sub\n      swap1\n      return\n        /* \"contracts/Omnidex-incentives/incentives/TempIncentivesVault.sol\":812:834  uint public dailyLimit */\n    tag_5:\n      tag_29\n      tag_30\n      jump\t// in\n    tag_29:\n      mload(0x40)\n      dup1\n      dup3\n      dup2\n      mstore\n      0x20\n      add\n      swap2\n      pop\n      pop\n      mload(0x40)\n      dup1\n      swap2\n      sub\n      swap1\n      return\n        /* \"contracts/Omnidex-incentives/incentives/TempIncentivesVault.sol\":840:859  uint public lastDay */\n    tag_6:\n      tag_31\n      tag_32\n      jump\t// in\n    tag_31:\n      mload(0x40)\n      dup1\n      dup3\n      dup2\n      mstore\n      0x20\n      add\n      swap2\n      pop\n      pop\n      mload(0x40)\n      dup1\n      swap2\n      sub\n      swap1\n      return\n        /* \"contracts/Omnidex-incentives/incentives/TempIncentivesVault.sol\":3161:3310  function setAdmin(address _admin) external onlyOwner {... */\n    tag_7:\n      tag_33\n      0x04\n      dup1\n      calldatasize\n      sub\n      0x20\n      dup2\n      lt\n      iszero\n      tag_34\n      jumpi\n      0x00\n      dup1\n      revert\n    tag_34:\n      dup2\n      add\n      swap1\n      dup1\n      dup1\n      calldataload\n      0xffffffffffffffffffffffffffffffffffffffff\n      and\n      swap1\n      0x20\n      add\n      swap1\n      swap3\n      swap2\n      swap1\n      pop\n      pop\n      pop\n      tag_35\n      jump\t// in\n    tag_33:\n      stop\n        /* \"https://github.com/OmniDexFinance/helper/blob/master/%40openzeppelin/contracts/access/Ownable.sol\":1717:1862  function renounceOwnership() public virtual onlyOwner {... */\n    tag_8:\n      tag_36\n      tag_37\n      jump\t// in\n    tag_36:\n      stop\n        /* \"contracts/Omnidex-incentives/incentives/TempIncentivesVault.sol\":3792:3889  function pause() external onlyAdmin whenNotPaused {... */\n    tag_9:\n      tag_38\n      tag_39\n      jump\t// in\n    tag_38:\n      stop\n        /* \"contracts/Omnidex-incentives/incentives/TempIncentivesVault.sol\":2562:2683  function withdrawAll() external onlyOwner {... */\n    tag_10:\n      tag_40\n      tag_41\n      jump\t// in\n    tag_40:\n      stop\n        /* \"https://github.com/OmniDexFinance/helper/blob/master/%40openzeppelin/contracts/access/Ownable.sol\":1085:1170  function owner() public view virtual returns (address) {... */\n    tag_11:\n      tag_42\n      tag_43\n      jump\t// in\n    tag_42:\n      mload(0x40)\n      dup1\n      dup3\n      0xffffffffffffffffffffffffffffffffffffffff\n      and\n      dup2\n      mstore\n      0x20\n      add\n      swap2\n      pop\n      pop\n      mload(0x40)\n      dup1\n      swap2\n      sub\n      swap1\n      return\n        /* \"contracts/Omnidex-incentives/incentives/TempIncentivesVault.sol\":776:806  address public approvedSpender */\n    tag_12:\n      tag_44\n      tag_45\n      jump\t// in\n    tag_44:\n      mload(0x40)\n      dup1\n      dup3\n      0xffffffffffffffffffffffffffffffffffffffff\n      and\n      dup2\n      mstore\n      0x20\n      add\n      swap2\n      pop\n      pop\n      mload(0x40)\n      dup1\n      swap2\n      sub\n      swap1\n      return\n        /* \"contracts/Omnidex-incentives/incentives/TempIncentivesVault.sol\":2970:3056  function getDailyLimit() public view returns (uint) {... */\n    tag_13:\n      tag_46\n      tag_47\n      jump\t// in\n    tag_46:\n      mload(0x40)\n      dup1\n      dup3\n      dup2\n      mstore\n      0x20\n      add\n      swap2\n      pop\n      pop\n      mload(0x40)\n      dup1\n      swap2\n      sub\n      swap1\n      return\n        /* \"contracts/Omnidex-incentives/incentives/TempIncentivesVault.sol\":2790:2964  function setDailyLimit(uint _newDailyLimit) external onlyOwner {... */\n    tag_14:\n      tag_48\n      0x04\n      dup1\n      calldatasize\n      sub\n      0x20\n      dup2\n      lt\n      iszero\n      tag_49\n      jumpi\n      0x00\n      dup1\n      revert\n    tag_49:\n      dup2\n      add\n      swap1\n      dup1\n      dup1\n      calldataload\n      swap1\n      0x20\n      add\n      swap1\n      swap3\n      swap2\n      swap1\n      pop\n      pop\n      pop\n      tag_50\n      jump\t// in\n    tag_48:\n      stop\n        /* \"contracts/Omnidex-incentives/incentives/TempIncentivesVault.sol\":2263:2491  function deposit(uint256 _amount) external whenNotPaused {... */\n    tag_15:\n      tag_51\n      0x04\n      dup1\n      calldatasize\n      sub\n      0x20\n      dup2\n      lt\n      iszero\n      tag_52\n      jumpi\n      0x00\n      dup1\n      revert\n    tag_52:\n      dup2\n      add\n      swap1\n      dup1\n      dup1\n      calldataload\n      swap1\n      0x20\n      add\n      swap1\n      swap3\n      swap2\n      swap1\n      pop\n      pop\n      pop\n      tag_53\n      jump\t// in\n    tag_51:\n      stop\n        /* \"contracts/Omnidex-incentives/incentives/TempIncentivesVault.sol\":3398:3680  function inCaseTokensGetStuck(address _token) external onlyAdmin {... */\n    tag_16:\n      tag_54\n      0x04\n      dup1\n      calldatasize\n      sub\n      0x20\n      dup2\n      lt\n      iszero\n      tag_55\n      jumpi\n      0x00\n      dup1\n      revert\n    tag_55:\n      dup2\n      add\n      swap1\n      dup1\n      dup1\n      calldataload\n      0xffffffffffffffffffffffffffffffffffffffff\n      and\n      swap1\n      0x20\n      add\n      swap1\n      swap3\n      swap2\n      swap1\n      pop\n      pop\n      pop\n      tag_56\n      jump\t// in\n    tag_54:\n      stop\n        /* \"contracts/Omnidex-incentives/incentives/TempIncentivesVault.sol\":865:887  uint public spentToday */\n    tag_17:\n      tag_57\n      tag_58\n      jump\t// in\n    tag_57:\n      mload(0x40)\n      dup1\n      dup3\n      dup2\n      mstore\n      0x20\n      add\n      swap2\n      pop\n      pop\n      mload(0x40)\n      dup1\n      swap2\n      sub\n      swap1\n      return\n        /* \"https://github.com/OmniDexFinance/helper/blob/master/%40openzeppelin/contracts/access/Ownable.sol\":2011:2251  function transferOwnership(address newOwner) public virtual onlyOwner {... */\n    tag_18:\n      tag_59\n      0x04\n      dup1\n      calldatasize\n      sub\n      0x20\n      dup2\n      lt\n      iszero\n      tag_60\n      jumpi\n      0x00\n      dup1\n      revert\n    tag_60:\n      dup2\n      add\n      swap1\n      dup1\n      dup1\n      calldataload\n      0xffffffffffffffffffffffffffffffffffffffff\n      and\n      swap1\n      0x20\n      add\n      swap1\n      swap3\n      swap2\n      swap1\n      pop\n      pop\n      pop\n      tag_61\n      jump\t// in\n    tag_59:\n      stop\n        /* \"contracts/Omnidex-incentives/incentives/TempIncentivesVault.sol\":4282:4681  function withdraw(address _to, uint256 _amount) public whenNotPaused onlyAuth {... */\n    tag_19:\n      tag_62\n      0x04\n      dup1\n      calldatasize\n      sub\n      0x40\n      dup2\n      lt\n      iszero\n      tag_63\n      jumpi\n      0x00\n      dup1\n      revert\n    tag_63:\n      dup2\n      add\n      swap1\n      dup1\n      dup1\n      calldataload\n      0xffffffffffffffffffffffffffffffffffffffff\n      and\n      swap1\n      0x20\n      add\n      swap1\n      swap3\n      swap2\n      swap1\n      dup1\n      calldataload\n      swap1\n      0x20\n      add\n      swap1\n      swap3\n      swap2\n      swap1\n      pop\n      pop\n      pop\n      tag_64\n      jump\t// in\n    tag_62:\n      stop\n        /* \"contracts/Omnidex-incentives/incentives/TempIncentivesVault.sol\":750:770  address public admin */\n    tag_20:\n      tag_65\n      tag_66\n      jump\t// in\n    tag_65:\n      mload(0x40)\n      dup1\n      dup3\n      0xffffffffffffffffffffffffffffffffffffffff\n      and\n      dup2\n      mstore\n      0x20\n      add\n      swap2\n      pop\n      pop\n      mload(0x40)\n      dup1\n      swap2\n      sub\n      swap1\n      return\n        /* \"contracts/Omnidex-incentives/incentives/TempIncentivesVault.sol\":696:725  IERC20 public immutable token */\n    tag_21:\n      tag_67\n      tag_68\n      jump\t// in\n    tag_67:\n      mload(0x40)\n      dup1\n      dup3\n      0xffffffffffffffffffffffffffffffffffffffff\n      and\n      dup2\n      mstore\n      0x20\n      add\n      swap2\n      pop\n      pop\n      mload(0x40)\n      dup1\n      swap2\n      sub\n      swap1\n      return\n        /* \"contracts/Omnidex-incentives/incentives/TempIncentivesVault.sol\":4001:4101  function unpause() external onlyAdmin whenPaused {... */\n    tag_26:\n        /* \"contracts/Omnidex-incentives/incentives/TempIncentivesVault.sol\":1834:1839  admin */\n      0x01\n      0x00\n      swap1\n      sload\n      swap1\n      0x0100\n      exp\n      swap1\n      div\n      0xffffffffffffffffffffffffffffffffffffffff\n      and\n        /* \"contracts/Omnidex-incentives/incentives/TempIncentivesVault.sol\":1820:1839  msg.sender == admin */\n      0xffffffffffffffffffffffffffffffffffffffff\n      and\n        /* \"contracts/Omnidex-incentives/incentives/TempIncentivesVault.sol\":1820:1830  msg.sender */\n      caller\n        /* \"contracts/Omnidex-incentives/incentives/TempIncentivesVault.sol\":1820:1839  msg.sender == admin */\n      0xffffffffffffffffffffffffffffffffffffffff\n      and\n      eq\n        /* \"contracts/Omnidex-incentives/incentives/TempIncentivesVault.sol\":1812:1864  require(msg.sender == admin, \"Only admin permitted\") */\n      tag_72\n      jumpi\n      mload(0x40)\n      0x08c379a000000000000000000000000000000000000000000000000000000000\n      dup2\n      mstore\n      0x04\n      add\n      dup1\n      dup1\n      0x20\n      add\n      dup3\n      dup2\n      sub\n      dup3\n      mstore\n      0x14\n      dup2\n      mstore\n      0x20\n      add\n      dup1\n      0x4f6e6c792061646d696e207065726d6974746564000000000000000000000000\n      dup2\n      mstore\n      pop\n      0x20\n      add\n      swap2\n      pop\n      pop\n      mload(0x40)\n      dup1\n      swap2\n      sub\n      swap1\n      revert\n    tag_72:\n        /* \"https://github.com/OmniDexFinance/helper/blob/master/%40openzeppelin/contracts/utils/Pausable.sol\":1631:1639  paused() */\n      tag_74\n        /* \"https://github.com/OmniDexFinance/helper/blob/master/%40openzeppelin/contracts/utils/Pausable.sol\":1631:1637  paused */\n      tag_28\n        /* \"https://github.com/OmniDexFinance/helper/blob/master/%40openzeppelin/contracts/utils/Pausable.sol\":1631:1639  paused() */\n      jump\t// in\n    tag_74:\n        /* \"https://github.com/OmniDexFinance/helper/blob/master/%40openzeppelin/contracts/utils/Pausable.sol\":1623:1664  require(paused(), \"Pausable: not paused\") */\n      tag_75\n      jumpi\n      mload(0x40)\n      0x08c379a000000000000000000000000000000000000000000000000000000000\n      dup2\n      mstore\n      0x04\n      add\n      dup1\n      dup1\n      0x20\n      add\n      dup3\n      dup2\n      sub\n      dup3\n      mstore\n      0x14\n      dup2\n      mstore\n      0x20\n      add\n      dup1\n      0x5061757361626c653a206e6f7420706175736564000000000000000000000000\n      dup2\n      mstore\n      pop\n      0x20\n      add\n      swap2\n      pop\n      pop\n      mload(0x40)\n      dup1\n      swap2\n      sub\n      swap1\n      revert\n    tag_75:\n        /* \"contracts/Omnidex-incentives/incentives/TempIncentivesVault.sol\":4060:4070  _unpause() */\n      tag_77\n        /* \"contracts/Omnidex-incentives/incentives/TempIncentivesVault.sol\":4060:4068  _unpause */\n      tag_78\n        /* \"contracts/Omnidex-incentives/incentives/TempIncentivesVault.sol\":4060:4070  _unpause() */\n      jump\t// in\n    tag_77:\n        /* \"contracts/Omnidex-incentives/incentives/TempIncentivesVault.sol\":4085:4094  Unpause() */\n      0x7805862f689e2f13df9f062ff482ad3ad112aca9e0847911ed832e158c525b33\n      mload(0x40)\n      mload(0x40)\n      dup1\n      swap2\n      sub\n      swap1\n      log1\n        /* \"contracts/Omnidex-incentives/incentives/TempIncentivesVault.sol\":4001:4101  function unpause() external onlyAdmin whenPaused {... */\n      jump\t// out\n        /* \"https://github.com/OmniDexFinance/helper/blob/master/%40openzeppelin/contracts/utils/Pausable.sol\":1052:1136  function paused() public view virtual returns (bool) {... */\n    tag_28:\n        /* \"https://github.com/OmniDexFinance/helper/blob/master/%40openzeppelin/contracts/utils/Pausable.sol\":1099:1103  bool */\n      0x00\n        /* \"https://github.com/OmniDexFinance/helper/blob/master/%40openzeppelin/contracts/utils/Pausable.sol\":1122:1129  _paused */\n      dup1\n      0x14\n      swap1\n      sload\n      swap1\n      0x0100\n      exp\n      swap1\n      div\n      0xff\n      and\n        /* \"https://github.com/OmniDexFinance/helper/blob/master/%40openzeppelin/contracts/utils/Pausable.sol\":1115:1129  return _paused */\n      swap1\n      pop\n        /* \"https://github.com/OmniDexFinance/helper/blob/master/%40openzeppelin/contracts/utils/Pausable.sol\":1052:1136  function paused() public view virtual returns (bool) {... */\n      swap1\n      jump\t// out\n        /* \"contracts/Omnidex-incentives/incentives/TempIncentivesVault.sol\":812:834  uint public dailyLimit */\n    tag_30:\n      sload(0x03)\n      dup2\n      jump\t// out\n        /* \"contracts/Omnidex-incentives/incentives/TempIncentivesVault.sol\":840:859  uint public lastDay */\n    tag_32:\n      sload(0x04)\n      dup2\n      jump\t// out\n        /* \"contracts/Omnidex-incentives/incentives/TempIncentivesVault.sol\":3161:3310  function setAdmin(address _admin) external onlyOwner {... */\n    tag_35:\n        /* \"https://github.com/OmniDexFinance/helper/blob/master/%40openzeppelin/contracts/access/Ownable.sol\":1308:1320  _msgSender() */\n      tag_81\n        /* \"https://github.com/OmniDexFinance/helper/blob/master/%40openzeppelin/contracts/access/Ownable.sol\":1308:1318  _msgSender */\n      tag_82\n        /* \"https://github.com/OmniDexFinance/helper/blob/master/%40openzeppelin/contracts/access/Ownable.sol\":1308:1320  _msgSender() */\n      jump\t// in\n    tag_81:\n        /* \"https://github.com/OmniDexFinance/helper/blob/master/%40openzeppelin/contracts/access/Ownable.sol\":1297:1320  owner() == _msgSender() */\n      0xffffffffffffffffffffffffffffffffffffffff\n      and\n        /* \"https://github.com/OmniDexFinance/helper/blob/master/%40openzeppelin/contracts/access/Ownable.sol\":1297:1304  owner() */\n      tag_83\n        /* \"https://github.com/OmniDexFinance/helper/blob/master/%40openzeppelin/contracts/access/Ownable.sol\":1297:1302  owner */\n      tag_43\n        /* \"https://github.com/OmniDexFinance/helper/blob/master/%40openzeppelin/contracts/access/Ownable.sol\":1297:1304  owner() */\n      jump\t// in\n    tag_83:\n        /* \"https://github.com/OmniDexFinance/helper/blob/master/%40openzeppelin/contracts/access/Ownable.sol\":1297:1320  owner() == _msgSender() */\n      0xffffffffffffffffffffffffffffffffffffffff\n      and\n      eq\n        /* \"https://github.com/OmniDexFinance/helper/blob/master/%40openzeppelin/contracts/access/Ownable.sol\":1289:1357  require(owner() == _msgSender(), \"Ownable: caller is not the owner\") */\n      tag_84\n      jumpi\n      mload(0x40)\n      0x08c379a000000000000000000000000000000000000000000000000000000000\n      dup2\n      mstore\n      0x04\n      add\n      dup1\n      dup1\n      0x20\n      add\n      dup3\n      dup2\n      sub\n      dup3\n      mstore\n      0x20\n      dup2\n      mstore\n      0x20\n      add\n      dup1\n      0x4f776e61626c653a2063616c6c6572206973206e6f7420746865206f776e6572\n      dup2\n      mstore\n      pop\n      0x20\n      add\n      swap2\n      pop\n      pop\n      mload(0x40)\n      dup1\n      swap2\n      sub\n      swap1\n      revert\n    tag_84:\n        /* \"contracts/Omnidex-incentives/incentives/TempIncentivesVault.sol\":3250:3251  0 */\n      0x00\n        /* \"contracts/Omnidex-incentives/incentives/TempIncentivesVault.sol\":3232:3252  _admin != address(0) */\n      0xffffffffffffffffffffffffffffffffffffffff\n      and\n        /* \"contracts/Omnidex-incentives/incentives/TempIncentivesVault.sol\":3232:3238  _admin */\n      dup2\n        /* \"contracts/Omnidex-incentives/incentives/TempIncentivesVault.sol\":3232:3252  _admin != address(0) */\n      0xffffffffffffffffffffffffffffffffffffffff\n      and\n      eq\n      iszero\n        /* \"contracts/Omnidex-incentives/incentives/TempIncentivesVault.sol\":3224:3279  require(_admin != address(0), \"Cannot be zero address\") */\n      tag_86\n      jumpi\n      mload(0x40)\n      0x08c379a000000000000000000000000000000000000000000000000000000000\n      dup2\n      mstore\n      0x04\n      add\n      dup1\n      dup1\n      0x20\n      add\n      dup3\n      dup2\n      sub\n      dup3\n      mstore\n      0x16\n      dup2\n      mstore\n      0x20\n      add\n      dup1\n      0x43616e6e6f74206265207a65726f206164647265737300000000000000000000\n      dup2\n      mstore\n      pop\n      0x20\n      add\n      swap2\n      pop\n      pop\n      mload(0x40)\n      dup1\n      swap2\n      sub\n      swap1\n      revert\n    tag_86:\n        /* \"contracts/Omnidex-incentives/incentives/TempIncentivesVault.sol\":3297:3303  _admin */\n      dup1\n        /* \"contracts/Omnidex-incentives/incentives/TempIncentivesVault.sol\":3289:3294  admin */\n      0x01\n      0x00\n        /* \"contracts/Omnidex-incentives/incentives/TempIncentivesVault.sol\":3289:3303  admin = _admin */\n      0x0100\n      exp\n      dup2\n      sload\n      dup2\n      0xffffffffffffffffffffffffffffffffffffffff\n      mul\n      not\n      and\n      swap1\n      dup4\n      0xffffffffffffffffffffffffffffffffffffffff\n      and\n      mul\n      or\n      swap1\n      sstore\n      pop\n        /* \"contracts/Omnidex-incentives/incentives/TempIncentivesVault.sol\":3161:3310  function setAdmin(address _admin) external onlyOwner {... */\n      pop\n      jump\t// out\n        /* \"https://github.com/OmniDexFinance/helper/blob/master/%40openzeppelin/contracts/access/Ownable.sol\":1717:1862  function renounceOwnership() public virtual onlyOwner {... */\n    tag_37:\n        /* \"https://github.com/OmniDexFinance/helper/blob/master/%40openzeppelin/contracts/access/Ownable.sol\":1308:1320  _msgSender() */\n      tag_88\n        /* \"https://github.com/OmniDexFinance/helper/blob/master/%40openzeppelin/contracts/access/Ownable.sol\":1308:1318  _msgSender */\n      tag_82\n        /* \"https://github.com/OmniDexFinance/helper/blob/master/%40openzeppelin/contracts/access/Ownable.sol\":1308:1320  _msgSender() */\n      jump\t// in\n    tag_88:\n        /* \"https://github.com/OmniDexFinance/helper/blob/master/%40openzeppelin/contracts/access/Ownable.sol\":1297:1320  owner() == _msgSender() */\n      0xffffffffffffffffffffffffffffffffffffffff\n      and\n        /* \"https://github.com/OmniDexFinance/helper/blob/master/%40openzeppelin/contracts/access/Ownable.sol\":1297:1304  owner() */\n      tag_89\n        /* \"https://github.com/OmniDexFinance/helper/blob/master/%40openzeppelin/contracts/access/Ownable.sol\":1297:1302  owner */\n      tag_43\n        /* \"https://github.com/OmniDexFinance/helper/blob/master/%40openzeppelin/contracts/access/Ownable.sol\":1297:1304  owner() */\n      jump\t// in\n    tag_89:\n        /* \"https://github.com/OmniDexFinance/helper/blob/master/%40openzeppelin/contracts/access/Ownable.sol\":1297:1320  owner() == _msgSender() */\n      0xffffffffffffffffffffffffffffffffffffffff\n      and\n      eq\n        /* \"https://github.com/OmniDexFinance/helper/blob/master/%40openzeppelin/contracts/access/Ownable.sol\":1289:1357  require(owner() == _msgSender(), \"Ownable: caller is not the owner\") */\n      tag_90\n      jumpi\n      mload(0x40)\n      0x08c379a000000000000000000000000000000000000000000000000000000000\n      dup2\n      mstore\n      0x04\n      add\n      dup1\n      dup1\n      0x20\n      add\n      dup3\n      dup2\n      sub\n      dup3\n      mstore\n      0x20\n      dup2\n      mstore\n      0x20\n      add\n      dup1\n      0x4f776e61626c653a2063616c6c6572206973206e6f7420746865206f776e6572\n      dup2\n      mstore\n      pop\n      0x20\n      add\n      swap2\n      pop\n      pop\n      mload(0x40)\n      dup1\n      swap2\n      sub\n      swap1\n      revert\n    tag_90:\n        /* \"https://github.com/OmniDexFinance/helper/blob/master/%40openzeppelin/contracts/access/Ownable.sol\":1823:1824  0 */\n      0x00\n        /* \"https://github.com/OmniDexFinance/helper/blob/master/%40openzeppelin/contracts/access/Ownable.sol\":1786:1826  OwnershipTransferred(_owner, address(0)) */\n      0xffffffffffffffffffffffffffffffffffffffff\n      and\n        /* \"https://github.com/OmniDexFinance/helper/blob/master/%40openzeppelin/contracts/access/Ownable.sol\":1807:1813  _owner */\n      0x00\n      dup1\n      sload\n      swap1\n      0x0100\n      exp\n      swap1\n      div\n      0xffffffffffffffffffffffffffffffffffffffff\n      and\n        /* \"https://github.com/OmniDexFinance/helper/blob/master/%40openzeppelin/contracts/access/Ownable.sol\":1786:1826  OwnershipTransferred(_owner, address(0)) */\n      0xffffffffffffffffffffffffffffffffffffffff\n      and\n      0x8be0079c531659141344cd1fd0a4f28419497f9722a3daafe3b4186f6b6457e0\n      mload(0x40)\n      mload(0x40)\n      dup1\n      swap2\n      sub\n      swap1\n      log3\n        /* \"https://github.com/OmniDexFinance/helper/blob/master/%40openzeppelin/contracts/access/Ownable.sol\":1853:1854  0 */\n      0x00\n        /* \"https://github.com/OmniDexFinance/helper/blob/master/%40openzeppelin/contracts/access/Ownable.sol\":1836:1842  _owner */\n      dup1\n      0x00\n        /* \"https://github.com/OmniDexFinance/helper/blob/master/%40openzeppelin/contracts/access/Ownable.sol\":1836:1855  _owner = address(0) */\n      0x0100\n      exp\n      dup2\n      sload\n      dup2\n      0xffffffffffffffffffffffffffffffffffffffff\n      mul\n      not\n      and\n      swap1\n      dup4\n      0xffffffffffffffffffffffffffffffffffffffff\n      and\n      mul\n      or\n      swap1\n      sstore\n      pop\n        /* \"https://github.com/OmniDexFinance/helper/blob/master/%40openzeppelin/contracts/access/Ownable.sol\":1717:1862  function renounceOwnership() public virtual onlyOwner {... */\n      jump\t// out\n        /* \"contracts/Omnidex-incentives/incentives/TempIncentivesVault.sol\":3792:3889  function pause() external onlyAdmin whenNotPaused {... */\n    tag_39:\n        /* \"contracts/Omnidex-incentives/incentives/TempIncentivesVault.sol\":1834:1839  admin */\n      0x01\n      0x00\n      swap1\n      sload\n      swap1\n      0x0100\n      exp\n      swap1\n      div\n      0xffffffffffffffffffffffffffffffffffffffff\n      and\n        /* \"contracts/Omnidex-incentives/incentives/TempIncentivesVault.sol\":1820:1839  msg.sender == admin */\n      0xffffffffffffffffffffffffffffffffffffffff\n      and\n        /* \"contracts/Omnidex-incentives/incentives/TempIncentivesVault.sol\":1820:1830  msg.sender */\n      caller\n        /* \"contracts/Omnidex-incentives/incentives/TempIncentivesVault.sol\":1820:1839  msg.sender == admin */\n      0xffffffffffffffffffffffffffffffffffffffff\n      and\n      eq\n        /* \"contracts/Omnidex-incentives/incentives/TempIncentivesVault.sol\":1812:1864  require(msg.sender == admin, \"Only admin permitted\") */\n      tag_93\n      jumpi\n      mload(0x40)\n      0x08c379a000000000000000000000000000000000000000000000000000000000\n      dup2\n      mstore\n      0x04\n      add\n      dup1\n      dup1\n      0x20\n      add\n      dup3\n      dup2\n      sub\n      dup3\n      mstore\n      0x14\n      dup2\n      mstore\n      0x20\n      add\n      dup1\n      0x4f6e6c792061646d696e207065726d6974746564000000000000000000000000\n      dup2\n      mstore\n      pop\n      0x20\n      add\n      swap2\n      pop\n      pop\n      mload(0x40)\n      dup1\n      swap2\n      sub\n      swap1\n      revert\n    tag_93:\n        /* \"https://github.com/OmniDexFinance/helper/blob/master/%40openzeppelin/contracts/utils/Pausable.sol\":1366:1374  paused() */\n      tag_95\n        /* \"https://github.com/OmniDexFinance/helper/blob/master/%40openzeppelin/contracts/utils/Pausable.sol\":1366:1372  paused */\n      tag_28\n        /* \"https://github.com/OmniDexFinance/helper/blob/master/%40openzeppelin/contracts/utils/Pausable.sol\":1366:1374  paused() */\n      jump\t// in\n    tag_95:\n        /* \"https://github.com/OmniDexFinance/helper/blob/master/%40openzeppelin/contracts/utils/Pausable.sol\":1365:1374  !paused() */\n      iszero\n        /* \"https://github.com/OmniDexFinance/helper/blob/master/%40openzeppelin/contracts/utils/Pausable.sol\":1357:1395  require(!paused(), \"Pausable: paused\") */\n      tag_96\n      jumpi\n      mload(0x40)\n      0x08c379a000000000000000000000000000000000000000000000000000000000\n      dup2\n      mstore\n      0x04\n      add\n      dup1\n      dup1\n      0x20\n      add\n      dup3\n      dup2\n      sub\n      dup3\n      mstore\n      0x10\n      dup2\n      mstore\n      0x20\n      add\n      dup1\n      0x5061757361626c653a2070617573656400000000000000000000000000000000\n      dup2\n      mstore\n      pop\n      0x20\n      add\n      swap2\n      pop\n      pop\n      mload(0x40)\n      dup1\n      swap2\n      sub\n      swap1\n      revert\n    tag_96:\n        /* \"contracts/Omnidex-incentives/incentives/TempIncentivesVault.sol\":3852:3860  _pause() */\n      tag_98\n        /* \"contracts/Omnidex-incentives/incentives/TempIncentivesVault.sol\":3852:3858  _pause */\n      tag_99\n        /* \"contracts/Omnidex-incentives/incentives/TempIncentivesVault.sol\":3852:3860  _pause() */\n      jump\t// in\n    tag_98:\n        /* \"contracts/Omnidex-incentives/incentives/TempIncentivesVault.sol\":3875:3882  Pause() */\n      0x6985a02210a168e66602d3235cb6db0e70f92b3ba4d376a33c0f3d9434bff625\n      mload(0x40)\n      mload(0x40)\n      dup1\n      swap2\n      sub\n      swap1\n      log1\n        /* \"contracts/Omnidex-incentives/incentives/TempIncentivesVault.sol\":3792:3889  function pause() external onlyAdmin whenNotPaused {... */\n      jump\t// out\n        /* \"contracts/Omnidex-incentives/incentives/TempIncentivesVault.sol\":2562:2683  function withdrawAll() external onlyOwner {... */\n    tag_41:\n        /* \"https://github.com/OmniDexFinance/helper/blob/master/%40openzeppelin/contracts/access/Ownable.sol\":1308:1320  _msgSender() */\n      tag_101\n        /* \"https://github.com/OmniDexFinance/helper/blob/master/%40openzeppelin/contracts/access/Ownable.sol\":1308:1318  _msgSender */\n      tag_82\n        /* \"https://github.com/OmniDexFinance/helper/blob/master/%40openzeppelin/contracts/access/Ownable.sol\":1308:1320  _msgSender() */\n      jump\t// in\n    tag_101:\n        /* \"https://github.com/OmniDexFinance/helper/blob/master/%40openzeppelin/contracts/access/Ownable.sol\":1297:1320  owner() == _msgSender() */\n      0xffffffffffffffffffffffffffffffffffffffff\n      and\n        /* \"https://github.com/OmniDexFinance/helper/blob/master/%40openzeppelin/contracts/access/Ownable.sol\":1297:1304  owner() */\n      tag_102\n        /* \"https://github.com/OmniDexFinance/helper/blob/master/%40openzeppelin/contracts/access/Ownable.sol\":1297:1302  owner */\n      tag_43\n        /* \"https://github.com/OmniDexFinance/helper/blob/master/%40openzeppelin/contracts/access/Ownable.sol\":1297:1304  owner() */\n      jump\t// in\n    tag_102:\n        /* \"https://github.com/OmniDexFinance/helper/blob/master/%40openzeppelin/contracts/access/Ownable.sol\":1297:1320  owner() == _msgSender() */\n      0xffffffffffffffffffffffffffffffffffffffff\n      and\n      eq\n        /* \"https://github.com/OmniDexFinance/helper/blob/master/%40openzeppelin/contracts/access/Ownable.sol\":1289:1357  require(owner() == _msgSender(), \"Ownable: caller is not the owner\") */\n      tag_103\n      jumpi\n      mload(0x40)\n      0x08c379a000000000000000000000000000000000000000000000000000000000\n      dup2\n      mstore\n      0x04\n      add\n      dup1\n      dup1\n      0x20\n      add\n      dup3\n      dup2\n      sub\n      dup3\n      mstore\n      0x20\n      dup2\n      mstore\n      0x20\n      add\n      dup1\n      0x4f776e61626c653a2063616c6c6572206973206e6f7420746865206f776e6572\n      dup2\n      mstore\n      pop\n      0x20\n      add\n      swap2\n      pop\n      pop\n      mload(0x40)\n      dup1\n      swap2\n      sub\n      swap1\n      revert\n    tag_103:\n        /* \"contracts/Omnidex-incentives/incentives/TempIncentivesVault.sol\":2614:2676  token.safeTransfer(msg.sender, token.balanceOf(address(this))) */\n      tag_105\n        /* \"contracts/Omnidex-incentives/incentives/TempIncentivesVault.sol\":2633:2643  msg.sender */\n      caller\n        /* \"contracts/Omnidex-incentives/incentives/TempIncentivesVault.sol\":2645:2650  token */\n      immutable(\"0x8fef2229291b68be841adf029e58b87f39ba144b2d3b0af1760243d0a9bc6a1c\")\n        /* \"contracts/Omnidex-incentives/incentives/TempIncentivesVault.sol\":2645:2660  token.balanceOf */\n      0xffffffffffffffffffffffffffffffffffffffff\n      and\n      0x70a08231\n        /* \"contracts/Omnidex-incentives/incentives/TempIncentivesVault.sol\":2669:2673  this */\n      address\n        /* \"contracts/Omnidex-incentives/incentives/TempIncentivesVault.sol\":2645:2675  token.balanceOf(address(this)) */\n      mload(0x40)\n      dup3\n      0xffffffff\n      and\n      0xe0\n      shl\n      dup2\n      mstore\n      0x04\n      add\n      dup1\n      dup3\n      0xffffffffffffffffffffffffffffffffffffffff\n      and\n      dup2\n      mstore\n      0x20\n      add\n      swap2\n      pop\n      pop\n      0x20\n      mload(0x40)\n      dup1\n      dup4\n      sub\n      dup2\n      dup7\n      dup1\n      extcodesize\n      iszero\n      dup1\n      iszero\n      tag_106\n      jumpi\n      0x00\n      dup1\n      revert\n    tag_106:\n      pop\n      gas\n      staticcall\n      iszero\n      dup1\n      iszero\n      tag_108\n      jumpi\n      returndatasize\n      0x00\n      dup1\n      returndatacopy\n      revert(0x00, returndatasize)\n    tag_108:\n      pop\n      pop\n      pop\n      pop\n      mload(0x40)\n      returndatasize\n      0x20\n      dup2\n      lt\n      iszero\n      tag_109\n      jumpi\n      0x00\n      dup1\n      revert\n    tag_109:\n      dup2\n      add\n      swap1\n      dup1\n      dup1\n      mload\n      swap1\n      0x20\n      add\n      swap1\n      swap3\n      swap2\n      swap1\n      pop\n      pop\n      pop\n        /* \"contracts/Omnidex-incentives/incentives/TempIncentivesVault.sol\":2614:2619  token */\n      immutable(\"0x8fef2229291b68be841adf029e58b87f39ba144b2d3b0af1760243d0a9bc6a1c\")\n        /* \"contracts/Omnidex-incentives/incentives/TempIncentivesVault.sol\":2614:2632  token.safeTransfer */\n      0xffffffffffffffffffffffffffffffffffffffff\n      and\n      tag_110\n      swap1\n        /* \"contracts/Omnidex-incentives/incentives/TempIncentivesVault.sol\":2614:2676  token.safeTransfer(msg.sender, token.balanceOf(address(this))) */\n      swap3\n      swap2\n      swap1\n      0xffffffff\n      and\n      jump\t// in\n    tag_105:\n        /* \"contracts/Omnidex-incentives/incentives/TempIncentivesVault.sol\":2562:2683  function withdrawAll() external onlyOwner {... */\n      jump\t// out\n        /* \"https://github.com/OmniDexFinance/helper/blob/master/%40openzeppelin/contracts/access/Ownable.sol\":1085:1170  function owner() public view virtual returns (address) {... */\n    tag_43:\n        /* \"https://github.com/OmniDexFinance/helper/blob/master/%40openzeppelin/contracts/access/Ownable.sol\":1131:1138  address */\n      0x00\n        /* \"https://github.com/OmniDexFinance/helper/blob/master/%40openzeppelin/contracts/access/Ownable.sol\":1157:1163  _owner */\n      dup1\n      0x00\n      swap1\n      sload\n      swap1\n      0x0100\n      exp\n      swap1\n      div\n      0xffffffffffffffffffffffffffffffffffffffff\n      and\n        /* \"https://github.com/OmniDexFinance/helper/blob/master/%40openzeppelin/contracts/access/Ownable.sol\":1150:1163  return _owner */\n      swap1\n      pop\n        /* \"https://github.com/OmniDexFinance/helper/blob/master/%40openzeppelin/contracts/access/Ownable.sol\":1085:1170  function owner() public view virtual returns (address) {... */\n      swap1\n      jump\t// out\n        /* \"contracts/Omnidex-incentives/incentives/TempIncentivesVault.sol\":776:806  address public approvedSpender */\n    tag_45:\n      0x02\n      0x00\n      swap1\n      sload\n      swap1\n      0x0100\n      exp\n      swap1\n      div\n      0xffffffffffffffffffffffffffffffffffffffff\n      and\n      dup2\n      jump\t// out\n        /* \"contracts/Omnidex-incentives/incentives/TempIncentivesVault.sol\":2970:3056  function getDailyLimit() public view returns (uint) {... */\n    tag_47:\n        /* \"contracts/Omnidex-incentives/incentives/TempIncentivesVault.sol\":3016:3020  uint */\n      0x00\n        /* \"contracts/Omnidex-incentives/incentives/TempIncentivesVault.sol\":3039:3049  dailyLimit */\n      sload(0x03)\n        /* \"contracts/Omnidex-incentives/incentives/TempIncentivesVault.sol\":3032:3049  return dailyLimit */\n      swap1\n      pop\n        /* \"contracts/Omnidex-incentives/incentives/TempIncentivesVault.sol\":2970:3056  function getDailyLimit() public view returns (uint) {... */\n      swap1\n      jump\t// out\n        /* \"contracts/Omnidex-incentives/incentives/TempIncentivesVault.sol\":2790:2964  function setDailyLimit(uint _newDailyLimit) external onlyOwner {... */\n    tag_50:\n        /* \"https://github.com/OmniDexFinance/helper/blob/master/%40openzeppelin/contracts/access/Ownable.sol\":1308:1320  _msgSender() */\n      tag_114\n        /* \"https://github.com/OmniDexFinance/helper/blob/master/%40openzeppelin/contracts/access/Ownable.sol\":1308:1318  _msgSender */\n      tag_82\n        /* \"https://github.com/OmniDexFinance/helper/blob/master/%40openzeppelin/contracts/access/Ownable.sol\":1308:1320  _msgSender() */\n      jump\t// in\n    tag_114:\n        /* \"https://github.com/OmniDexFinance/helper/blob/master/%40openzeppelin/contracts/access/Ownable.sol\":1297:1320  owner() == _msgSender() */\n      0xffffffffffffffffffffffffffffffffffffffff\n      and\n        /* \"https://github.com/OmniDexFinance/helper/blob/master/%40openzeppelin/contracts/access/Ownable.sol\":1297:1304  owner() */\n      tag_115\n        /* \"https://github.com/OmniDexFinance/helper/blob/master/%40openzeppelin/contracts/access/Ownable.sol\":1297:1302  owner */\n      tag_43\n        /* \"https://github.com/OmniDexFinance/helper/blob/master/%40openzeppelin/contracts/access/Ownable.sol\":1297:1304  owner() */\n      jump\t// in\n    tag_115:\n        /* \"https://github.com/OmniDexFinance/helper/blob/master/%40openzeppelin/contracts/access/Ownable.sol\":1297:1320  owner() == _msgSender() */\n      0xffffffffffffffffffffffffffffffffffffffff\n      and\n      eq\n        /* \"https://github.com/OmniDexFinance/helper/blob/master/%40openzeppelin/contracts/access/Ownable.sol\":1289:1357  require(owner() == _msgSender(), \"Ownable: caller is not the owner\") */\n      tag_116\n      jumpi\n      mload(0x40)\n      0x08c379a000000000000000000000000000000000000000000000000000000000\n      dup2\n      mstore\n      0x04\n      add\n      dup1\n      dup1\n      0x20\n      add\n      dup3\n      dup2\n      sub\n      dup3\n      mstore\n      0x20\n      dup2\n      mstore\n      0x20\n      add\n      dup1\n      0x4f776e61626c653a2063616c6c6572206973206e6f7420746865206f776e6572\n      dup2\n      mstore\n      pop\n      0x20\n      add\n      swap2\n      pop\n      pop\n      mload(0x40)\n      dup1\n      swap2\n      sub\n      swap1\n      revert\n    tag_116:\n        /* \"contracts/Omnidex-incentives/incentives/TempIncentivesVault.sol\":2888:2889  0 */\n      0x00\n        /* \"contracts/Omnidex-incentives/incentives/TempIncentivesVault.sol\":2871:2885  _newDailyLimit */\n      dup2\n        /* \"contracts/Omnidex-incentives/incentives/TempIncentivesVault.sol\":2871:2889  _newDailyLimit >=0 */\n      lt\n      iszero\n        /* \"contracts/Omnidex-incentives/incentives/TempIncentivesVault.sol\":2863:2920  require(_newDailyLimit >=0 , \"Cannot be negative number\") */\n      tag_118\n      jumpi\n      mload(0x40)\n      0x08c379a000000000000000000000000000000000000000000000000000000000\n      dup2\n      mstore\n      0x04\n      add\n      dup1\n      dup1\n      0x20\n      add\n      dup3\n      dup2\n      sub\n      dup3\n      mstore\n      0x19\n      dup2\n      mstore\n      0x20\n      add\n      dup1\n      0x43616e6e6f74206265206e65676174697665206e756d62657200000000000000\n      dup2\n      mstore\n      pop\n      0x20\n      add\n      swap2\n      pop\n      pop\n      mload(0x40)\n      dup1\n      swap2\n      sub\n      swap1\n      revert\n    tag_118:\n        /* \"contracts/Omnidex-incentives/incentives/TempIncentivesVault.sol\":2943:2957  _newDailyLimit */\n      dup1\n        /* \"contracts/Omnidex-incentives/incentives/TempIncentivesVault.sol\":2930:2940  dailyLimit */\n      0x03\n        /* \"contracts/Omnidex-incentives/incentives/TempIncentivesVault.sol\":2930:2957  dailyLimit = _newDailyLimit */\n      dup2\n      swap1\n      sstore\n      pop\n        /* \"contracts/Omnidex-incentives/incentives/TempIncentivesVault.sol\":2790:2964  function setDailyLimit(uint _newDailyLimit) external onlyOwner {... */\n      pop\n      jump\t// out\n        /* \"contracts/Omnidex-incentives/incentives/TempIncentivesVault.sol\":2263:2491  function deposit(uint256 _amount) external whenNotPaused {... */\n    tag_53:\n        /* \"https://github.com/OmniDexFinance/helper/blob/master/%40openzeppelin/contracts/utils/Pausable.sol\":1366:1374  paused() */\n      tag_120\n        /* \"https://github.com/OmniDexFinance/helper/blob/master/%40openzeppelin/contracts/utils/Pausable.sol\":1366:1372  paused */\n      tag_28\n        /* \"https://github.com/OmniDexFinance/helper/blob/master/%40openzeppelin/contracts/utils/Pausable.sol\":1366:1374  paused() */\n      jump\t// in\n    tag_120:\n        /* \"https://github.com/OmniDexFinance/helper/blob/master/%40openzeppelin/contracts/utils/Pausable.sol\":1365:1374  !paused() */\n      iszero\n        /* \"https://github.com/OmniDexFinance/helper/blob/master/%40openzeppelin/contracts/utils/Pausable.sol\":1357:1395  require(!paused(), \"Pausable: paused\") */\n      tag_121\n      jumpi\n      mload(0x40)\n      0x08c379a000000000000000000000000000000000000000000000000000000000\n      dup2\n      mstore\n      0x04\n      add\n      dup1\n      dup1\n      0x20\n      add\n      dup3\n      dup2\n      sub\n      dup3\n      mstore\n      0x10\n      dup2\n      mstore\n      0x20\n      add\n      dup1\n      0x5061757361626c653a2070617573656400000000000000000000000000000000\n      dup2\n      mstore\n      pop\n      0x20\n      add\n      swap2\n      pop\n      pop\n      mload(0x40)\n      dup1\n      swap2\n      sub\n      swap1\n      revert\n    tag_121:\n        /* \"contracts/Omnidex-incentives/incentives/TempIncentivesVault.sol\":2348:2349  0 */\n      0x00\n        /* \"contracts/Omnidex-incentives/incentives/TempIncentivesVault.sol\":2338:2345  _amount */\n      dup2\n        /* \"contracts/Omnidex-incentives/incentives/TempIncentivesVault.sol\":2338:2349  _amount > 0 */\n      gt\n        /* \"contracts/Omnidex-incentives/incentives/TempIncentivesVault.sol\":2330:2372  require(_amount > 0, \"Nothing to deposit\") */\n      tag_123\n      jumpi\n      mload(0x40)\n      0x08c379a000000000000000000000000000000000000000000000000000000000\n      dup2\n      mstore\n      0x04\n      add\n      dup1\n      dup1\n      0x20\n      add\n      dup3\n      dup2\n      sub\n      dup3\n      mstore\n      0x12\n      dup2\n      mstore\n      0x20\n      add\n      dup1\n      0x4e6f7468696e6720746f206465706f7369740000000000000000000000000000\n      dup2\n      mstore\n      pop\n      0x20\n      add\n      swap2\n      pop\n      pop\n      mload(0x40)\n      dup1\n      swap2\n      sub\n      swap1\n      revert\n    tag_123:\n        /* \"contracts/Omnidex-incentives/incentives/TempIncentivesVault.sol\":2382:2440  token.safeTransferFrom(msg.sender, address(this), _amount) */\n      tag_124\n        /* \"contracts/Omnidex-incentives/incentives/TempIncentivesVault.sol\":2405:2415  msg.sender */\n      caller\n        /* \"contracts/Omnidex-incentives/incentives/TempIncentivesVault.sol\":2425:2429  this */\n      address\n        /* \"contracts/Omnidex-incentives/incentives/TempIncentivesVault.sol\":2432:2439  _amount */\n      dup4\n        /* \"contracts/Omnidex-incentives/incentives/TempIncentivesVault.sol\":2382:2387  token */\n      immutable(\"0x8fef2229291b68be841adf029e58b87f39ba144b2d3b0af1760243d0a9bc6a1c\")\n        /* \"contracts/Omnidex-incentives/incentives/TempIncentivesVault.sol\":2382:2404  token.safeTransferFrom */\n      0xffffffffffffffffffffffffffffffffffffffff\n      and\n      tag_125\n      swap1\n        /* \"contracts/Omnidex-incentives/incentives/TempIncentivesVault.sol\":2382:2440  token.safeTransferFrom(msg.sender, address(this), _amount) */\n      swap4\n      swap3\n      swap2\n      swap1\n      0xffffffff\n      and\n      jump\t// in\n    tag_124:\n        /* \"contracts/Omnidex-incentives/incentives/TempIncentivesVault.sol\":2464:2474  msg.sender */\n      caller\n        /* \"contracts/Omnidex-incentives/incentives/TempIncentivesVault.sol\":2456:2484  Deposit(msg.sender, _amount) */\n      0xffffffffffffffffffffffffffffffffffffffff\n      and\n      0xe1fffcc4923d04b559f4d29a8bfc6cda04eb5b0d3c460751c2402c5c5cc9109c\n        /* \"contracts/Omnidex-incentives/incentives/TempIncentivesVault.sol\":2476:2483  _amount */\n      dup3\n        /* \"contracts/Omnidex-incentives/incentives/TempIncentivesVault.sol\":2456:2484  Deposit(msg.sender, _amount) */\n      mload(0x40)\n      dup1\n      dup3\n      dup2\n      mstore\n      0x20\n      add\n      swap2\n      pop\n      pop\n      mload(0x40)\n      dup1\n      swap2\n      sub\n      swap1\n      log2\n        /* \"contracts/Omnidex-incentives/incentives/TempIncentivesVault.sol\":2263:2491  function deposit(uint256 _amount) external whenNotPaused {... */\n      pop\n      jump\t// out\n        /* \"contracts/Omnidex-incentives/incentives/TempIncentivesVault.sol\":3398:3680  function inCaseTokensGetStuck(address _token) external onlyAdmin {... */\n    tag_56:\n        /* \"contracts/Omnidex-incentives/incentives/TempIncentivesVault.sol\":1834:1839  admin */\n      0x01\n      0x00\n      swap1\n      sload\n      swap1\n      0x0100\n      exp\n      swap1\n      div\n      0xffffffffffffffffffffffffffffffffffffffff\n      and\n        /* \"contracts/Omnidex-incentives/incentives/TempIncentivesVault.sol\":1820:1839  msg.sender == admin */\n      0xffffffffffffffffffffffffffffffffffffffff\n      and\n        /* \"contracts/Omnidex-incentives/incentives/TempIncentivesVault.sol\":1820:1830  msg.sender */\n      caller\n        /* \"contracts/Omnidex-incentives/incentives/TempIncentivesVault.sol\":1820:1839  msg.sender == admin */\n      0xffffffffffffffffffffffffffffffffffffffff\n      and\n      eq\n        /* \"contracts/Omnidex-incentives/incentives/TempIncentivesVault.sol\":1812:1864  require(msg.sender == admin, \"Only admin permitted\") */\n      tag_127\n      jumpi\n      mload(0x40)\n      0x08c379a000000000000000000000000000000000000000000000000000000000\n      dup2\n      mstore\n      0x04\n      add\n      dup1\n      dup1\n      0x20\n      add\n      dup3\n      dup2\n      sub\n      dup3\n      mstore\n      0x14\n      dup2\n      mstore\n      0x20\n      add\n      dup1\n      0x4f6e6c792061646d696e207065726d6974746564000000000000000000000000\n      dup2\n      mstore\n      pop\n      0x20\n      add\n      swap2\n      pop\n      pop\n      mload(0x40)\n      dup1\n      swap2\n      sub\n      swap1\n      revert\n    tag_127:\n        /* \"contracts/Omnidex-incentives/incentives/TempIncentivesVault.sol\":3499:3504  token */\n      immutable(\"0x8fef2229291b68be841adf029e58b87f39ba144b2d3b0af1760243d0a9bc6a1c\")\n        /* \"contracts/Omnidex-incentives/incentives/TempIncentivesVault.sol\":3481:3505  _token != address(token) */\n      0xffffffffffffffffffffffffffffffffffffffff\n      and\n        /* \"contracts/Omnidex-incentives/incentives/TempIncentivesVault.sol\":3481:3487  _token */\n      dup2\n        /* \"contracts/Omnidex-incentives/incentives/TempIncentivesVault.sol\":3481:3505  _token != address(token) */\n      0xffffffffffffffffffffffffffffffffffffffff\n      and\n      eq\n      iszero\n        /* \"contracts/Omnidex-incentives/incentives/TempIncentivesVault.sol\":3473:3550  require(_token != address(token), \"Token cannot be same as incentives token\") */\n      tag_129\n      jumpi\n      mload(0x40)\n      0x08c379a000000000000000000000000000000000000000000000000000000000\n      dup2\n      mstore\n      0x04\n      add\n      dup1\n      dup1\n      0x20\n      add\n      dup3\n      dup2\n      sub\n      dup3\n      mstore\n      0x28\n      dup2\n      mstore\n      0x20\n      add\n      dup1\n      data_bcc168664a3c14c72586057eda5ba29201ba9e86de7cd2fcc768efe9bd2f6ac9\n      0x28\n      swap2\n      codecopy\n      0x40\n      add\n      swap2\n      pop\n      pop\n      mload(0x40)\n      dup1\n      swap2\n      sub\n      swap1\n      revert\n    tag_129:\n        /* \"contracts/Omnidex-incentives/incentives/TempIncentivesVault.sol\":3560:3574  uint256 amount */\n      0x00\n        /* \"contracts/Omnidex-incentives/incentives/TempIncentivesVault.sol\":3584:3590  _token */\n      dup2\n        /* \"contracts/Omnidex-incentives/incentives/TempIncentivesVault.sol\":3577:3601  IERC20(_token).balanceOf */\n      0xffffffffffffffffffffffffffffffffffffffff\n      and\n      0x70a08231\n        /* \"contracts/Omnidex-incentives/incentives/TempIncentivesVault.sol\":3610:3614  this */\n      address\n        /* \"contracts/Omnidex-incentives/incentives/TempIncentivesVault.sol\":3577:3616  IERC20(_token).balanceOf(address(this)) */\n      mload(0x40)\n      dup3\n      0xffffffff\n      and\n      0xe0\n      shl\n      dup2\n      mstore\n      0x04\n      add\n      dup1\n      dup3\n      0xffffffffffffffffffffffffffffffffffffffff\n      and\n      dup2\n      mstore\n      0x20\n      add\n      swap2\n      pop\n      pop\n      0x20\n      mload(0x40)\n      dup1\n      dup4\n      sub\n      dup2\n      dup7\n      dup1\n      extcodesize\n      iszero\n      dup1\n      iszero\n      tag_130\n      jumpi\n      0x00\n      dup1\n      revert\n    tag_130:\n      pop\n      gas\n      staticcall\n      iszero\n      dup1\n      iszero\n      tag_132\n      jumpi\n      returndatasize\n      0x00\n      dup1\n      returndatacopy\n      revert(0x00, returndatasize)\n    tag_132:\n      pop\n      pop\n      pop\n      pop\n      mload(0x40)\n      returndatasize\n      0x20\n      dup2\n      lt\n      iszero\n      tag_133\n      jumpi\n      0x00\n      dup1\n      revert\n    tag_133:\n      dup2\n      add\n      swap1\n      dup1\n      dup1\n      mload\n      swap1\n      0x20\n      add\n      swap1\n      swap3\n      swap2\n      swap1\n      pop\n      pop\n      pop\n        /* \"contracts/Omnidex-incentives/incentives/TempIncentivesVault.sol\":3560:3616  uint256 amount = IERC20(_token).balanceOf(address(this)) */\n      swap1\n      pop\n        /* \"contracts/Omnidex-incentives/incentives/TempIncentivesVault.sol\":3626:3673  IERC20(_token).safeTransfer(msg.sender, amount) */\n      tag_134\n        /* \"contracts/Omnidex-incentives/incentives/TempIncentivesVault.sol\":3654:3664  msg.sender */\n      caller\n        /* \"contracts/Omnidex-incentives/incentives/TempIncentivesVault.sol\":3666:3672  amount */\n      dup3\n        /* \"contracts/Omnidex-incentives/incentives/TempIncentivesVault.sol\":3633:3639  _token */\n      dup5\n        /* \"contracts/Omnidex-incentives/incentives/TempIncentivesVault.sol\":3626:3653  IERC20(_token).safeTransfer */\n      0xffffffffffffffffffffffffffffffffffffffff\n      and\n      tag_110\n      swap1\n        /* \"contracts/Omnidex-incentives/incentives/TempIncentivesVault.sol\":3626:3673  IERC20(_token).safeTransfer(msg.sender, amount) */\n      swap3\n      swap2\n      swap1\n      0xffffffff\n      and\n      jump\t// in\n    tag_134:\n        /* \"contracts/Omnidex-incentives/incentives/TempIncentivesVault.sol\":1874:1875  _ */\n      pop\n        /* \"contracts/Omnidex-incentives/incentives/TempIncentivesVault.sol\":3398:3680  function inCaseTokensGetStuck(address _token) external onlyAdmin {... */\n      pop\n      jump\t// out\n        /* \"contracts/Omnidex-incentives/incentives/TempIncentivesVault.sol\":865:887  uint public spentToday */\n    tag_58:\n      sload(0x05)\n      dup2\n      jump\t// out\n        /* \"https://github.com/OmniDexFinance/helper/blob/master/%40openzeppelin/contracts/access/Ownable.sol\":2011:2251  function transferOwnership(address newOwner) public virtual onlyOwner {... */\n    tag_61:\n        /* \"https://github.com/OmniDexFinance/helper/blob/master/%40openzeppelin/contracts/access/Ownable.sol\":1308:1320  _msgSender() */\n      tag_136\n        /* \"https://github.com/OmniDexFinance/helper/blob/master/%40openzeppelin/contracts/access/Ownable.sol\":1308:1318  _msgSender */\n      tag_82\n        /* \"https://github.com/OmniDexFinance/helper/blob/master/%40openzeppelin/contracts/access/Ownable.sol\":1308:1320  _msgSender() */\n      jump\t// in\n    tag_136:\n        /* \"https://github.com/OmniDexFinance/helper/blob/master/%40openzeppelin/contracts/access/Ownable.sol\":1297:1320  owner() == _msgSender() */\n      0xffffffffffffffffffffffffffffffffffffffff\n      and\n        /* \"https://github.com/OmniDexFinance/helper/blob/master/%40openzeppelin/contracts/access/Ownable.sol\":1297:1304  owner() */\n      tag_137\n        /* \"https://github.com/OmniDexFinance/helper/blob/master/%40openzeppelin/contracts/access/Ownable.sol\":1297:1302  owner */\n      tag_43\n        /* \"https://github.com/OmniDexFinance/helper/blob/master/%40openzeppelin/contracts/access/Ownable.sol\":1297:1304  owner() */\n      jump\t// in\n    tag_137:\n        /* \"https://github.com/OmniDexFinance/helper/blob/master/%40openzeppelin/contracts/access/Ownable.sol\":1297:1320  owner() == _msgSender() */\n      0xffffffffffffffffffffffffffffffffffffffff\n      and\n      eq\n        /* \"https://github.com/OmniDexFinance/helper/blob/master/%40openzeppelin/contracts/access/Ownable.sol\":1289:1357  require(owner() == _msgSender(), \"Ownable: caller is not the owner\") */\n      tag_138\n      jumpi\n      mload(0x40)\n      0x08c379a000000000000000000000000000000000000000000000000000000000\n      dup2\n      mstore\n      0x04\n      add\n      dup1\n      dup1\n      0x20\n      add\n      dup3\n      dup2\n      sub\n      dup3\n      mstore\n      0x20\n      dup2\n      mstore\n      0x20\n      add\n      dup1\n      0x4f776e61626c653a2063616c6c6572206973206e6f7420746865206f776e6572\n      dup2\n      mstore\n      pop\n      0x20\n      add\n      swap2\n      pop\n      pop\n      mload(0x40)\n      dup1\n      swap2\n      sub\n      swap1\n      revert\n    tag_138:\n        /* \"https://github.com/OmniDexFinance/helper/blob/master/%40openzeppelin/contracts/access/Ownable.sol\":2119:2120  0 */\n      0x00\n        /* \"https://github.com/OmniDexFinance/helper/blob/master/%40openzeppelin/contracts/access/Ownable.sol\":2099:2121  newOwner != address(0) */\n      0xffffffffffffffffffffffffffffffffffffffff\n      and\n        /* \"https://github.com/OmniDexFinance/helper/blob/master/%40openzeppelin/contracts/access/Ownable.sol\":2099:2107  newOwner */\n      dup2\n        /* \"https://github.com/OmniDexFinance/helper/blob/master/%40openzeppelin/contracts/access/Ownable.sol\":2099:2121  newOwner != address(0) */\n      0xffffffffffffffffffffffffffffffffffffffff\n      and\n      eq\n      iszero\n        /* \"https://github.com/OmniDexFinance/helper/blob/master/%40openzeppelin/contracts/access/Ownable.sol\":2091:2164  require(newOwner != address(0), \"Ownable: new owner is the zero address\") */\n      tag_140\n      jumpi\n      mload(0x40)\n      0x08c379a000000000000000000000000000000000000000000000000000000000\n      dup2\n      mstore\n      0x04\n      add\n      dup1\n      dup1\n      0x20\n      add\n      dup3\n      dup2\n      sub\n      dup3\n      mstore\n      0x26\n      dup2\n      mstore\n      0x20\n      add\n      dup1\n      data_245f15ff17f551913a7a18385165551503906a406f905ac1c2437281a7cd0cfe\n      0x26\n      swap2\n      codecopy\n      0x40\n      add\n      swap2\n      pop\n      pop\n      mload(0x40)\n      dup1\n      swap2\n      sub\n      swap1\n      revert\n    tag_140:\n        /* \"https://github.com/OmniDexFinance/helper/blob/master/%40openzeppelin/contracts/access/Ownable.sol\":2208:2216  newOwner */\n      dup1\n        /* \"https://github.com/OmniDexFinance/helper/blob/master/%40openzeppelin/contracts/access/Ownable.sol\":2179:2217  OwnershipTransferred(_owner, newOwner) */\n      0xffffffffffffffffffffffffffffffffffffffff\n      and\n        /* \"https://github.com/OmniDexFinance/helper/blob/master/%40openzeppelin/contracts/access/Ownable.sol\":2200:2206  _owner */\n      0x00\n      dup1\n      sload\n      swap1\n      0x0100\n      exp\n      swap1\n      div\n      0xffffffffffffffffffffffffffffffffffffffff\n      and\n        /* \"https://github.com/OmniDexFinance/helper/blob/master/%40openzeppelin/contracts/access/Ownable.sol\":2179:2217  OwnershipTransferred(_owner, newOwner) */\n      0xffffffffffffffffffffffffffffffffffffffff\n      and\n      0x8be0079c531659141344cd1fd0a4f28419497f9722a3daafe3b4186f6b6457e0\n      mload(0x40)\n      mload(0x40)\n      dup1\n      swap2\n      sub\n      swap1\n      log3\n        /* \"https://github.com/OmniDexFinance/helper/blob/master/%40openzeppelin/contracts/access/Ownable.sol\":2236:2244  newOwner */\n      dup1\n        /* \"https://github.com/OmniDexFinance/helper/blob/master/%40openzeppelin/contracts/access/Ownable.sol\":2227:2233  _owner */\n      0x00\n      dup1\n        /* \"https://github.com/OmniDexFinance/helper/blob/master/%40openzeppelin/contracts/access/Ownable.sol\":2227:2244  _owner = newOwner */\n      0x0100\n      exp\n      dup2\n      sload\n      dup2\n      0xffffffffffffffffffffffffffffffffffffffff\n      mul\n      not\n      and\n      swap1\n      dup4\n      0xffffffffffffffffffffffffffffffffffffffff\n      and\n      mul\n      or\n      swap1\n      sstore\n      pop\n        /* \"https://github.com/OmniDexFinance/helper/blob/master/%40openzeppelin/contracts/access/Ownable.sol\":2011:2251  function transferOwnership(address newOwner) public virtual onlyOwner {... */\n      pop\n      jump\t// out\n        /* \"contracts/Omnidex-incentives/incentives/TempIncentivesVault.sol\":4282:4681  function withdraw(address _to, uint256 _amount) public whenNotPaused onlyAuth {... */\n    tag_64:\n        /* \"https://github.com/OmniDexFinance/helper/blob/master/%40openzeppelin/contracts/utils/Pausable.sol\":1366:1374  paused() */\n      tag_142\n        /* \"https://github.com/OmniDexFinance/helper/blob/master/%40openzeppelin/contracts/utils/Pausable.sol\":1366:1372  paused */\n      tag_28\n        /* \"https://github.com/OmniDexFinance/helper/blob/master/%40openzeppelin/contracts/utils/Pausable.sol\":1366:1374  paused() */\n      jump\t// in\n    tag_142:\n        /* \"https://github.com/OmniDexFinance/helper/blob/master/%40openzeppelin/contracts/utils/Pausable.sol\":1365:1374  !paused() */\n      iszero\n        /* \"https://github.com/OmniDexFinance/helper/blob/master/%40openzeppelin/contracts/utils/Pausable.sol\":1357:1395  require(!paused(), \"Pausable: paused\") */\n      tag_143\n      jumpi\n      mload(0x40)\n      0x08c379a000000000000000000000000000000000000000000000000000000000\n      dup2\n      mstore\n      0x04\n      add\n      dup1\n      dup1\n      0x20\n      add\n      dup3\n      dup2\n      sub\n      dup3\n      mstore\n      0x10\n      dup2\n      mstore\n      0x20\n      add\n      dup1\n      0x5061757361626c653a2070617573656400000000000000000000000000000000\n      dup2\n      mstore\n      pop\n      0x20\n      add\n      swap2\n      pop\n      pop\n      mload(0x40)\n      dup1\n      swap2\n      sub\n      swap1\n      revert\n    tag_143:\n        /* \"contracts/Omnidex-incentives/incentives/TempIncentivesVault.sol\":2019:2034  approvedSpender */\n      0x02\n      0x00\n      swap1\n      sload\n      swap1\n      0x0100\n      exp\n      swap1\n      div\n      0xffffffffffffffffffffffffffffffffffffffff\n      and\n        /* \"contracts/Omnidex-incentives/incentives/TempIncentivesVault.sol\":2005:2034  msg.sender == approvedSpender */\n      0xffffffffffffffffffffffffffffffffffffffff\n      and\n        /* \"contracts/Omnidex-incentives/incentives/TempIncentivesVault.sol\":2005:2015  msg.sender */\n      caller\n        /* \"contracts/Omnidex-incentives/incentives/TempIncentivesVault.sol\":2005:2034  msg.sender == approvedSpender */\n      0xffffffffffffffffffffffffffffffffffffffff\n      and\n      eq\n        /* \"contracts/Omnidex-incentives/incentives/TempIncentivesVault.sol\":1997:2064  require(msg.sender == approvedSpender, \"Not an authorised spender\") */\n      tag_145\n      jumpi\n      mload(0x40)\n      0x08c379a000000000000000000000000000000000000000000000000000000000\n      dup2\n      mstore\n      0x04\n      add\n      dup1\n      dup1\n      0x20\n      add\n      dup3\n      dup2\n      sub\n      dup3\n      mstore\n      0x19\n      dup2\n      mstore\n      0x20\n      add\n      dup1\n      0x4e6f7420616e20617574686f7269736564207370656e64657200000000000000\n      dup2\n      mstore\n      pop\n      0x20\n      add\n      swap2\n      pop\n      pop\n      mload(0x40)\n      dup1\n      swap2\n      sub\n      swap1\n      revert\n    tag_145:\n        /* \"contracts/Omnidex-incentives/incentives/TempIncentivesVault.sol\":4388:4389  0 */\n      0x00\n        /* \"contracts/Omnidex-incentives/incentives/TempIncentivesVault.sol\":4378:4385  _amount */\n      dup2\n        /* \"contracts/Omnidex-incentives/incentives/TempIncentivesVault.sol\":4378:4389  _amount > 0 */\n      gt\n        /* \"contracts/Omnidex-incentives/incentives/TempIncentivesVault.sol\":4370:4413  require(_amount > 0, \"Nothing to withdraw\") */\n      tag_147\n      jumpi\n      mload(0x40)\n      0x08c379a000000000000000000000000000000000000000000000000000000000\n      dup2\n      mstore\n      0x04\n      add\n      dup1\n      dup1\n      0x20\n      add\n      dup3\n      dup2\n      sub\n      dup3\n      mstore\n      0x13\n      dup2\n      mstore\n      0x20\n      add\n      dup1\n      0x4e6f7468696e6720746f20776974686472617700000000000000000000000000\n      dup2\n      mstore\n      pop\n      0x20\n      add\n      swap2\n      pop\n      pop\n      mload(0x40)\n      dup1\n      swap2\n      sub\n      swap1\n      revert\n    tag_147:\n        /* \"contracts/Omnidex-incentives/incentives/TempIncentivesVault.sol\":4464:4471  _amount */\n      dup1\n        /* \"contracts/Omnidex-incentives/incentives/TempIncentivesVault.sol\":4431:4436  token */\n      immutable(\"0x8fef2229291b68be841adf029e58b87f39ba144b2d3b0af1760243d0a9bc6a1c\")\n        /* \"contracts/Omnidex-incentives/incentives/TempIncentivesVault.sol\":4431:4446  token.balanceOf */\n      0xffffffffffffffffffffffffffffffffffffffff\n      and\n      0x70a08231\n        /* \"contracts/Omnidex-incentives/incentives/TempIncentivesVault.sol\":4455:4459  this */\n      address\n        /* \"contracts/Omnidex-incentives/incentives/TempIncentivesVault.sol\":4431:4461  token.balanceOf(address(this)) */\n      mload(0x40)\n      dup3\n      0xffffffff\n      and\n      0xe0\n      shl\n      dup2\n      mstore\n      0x04\n      add\n      dup1\n      dup3\n      0xffffffffffffffffffffffffffffffffffffffff\n      and\n      dup2\n      mstore\n      0x20\n      add\n      swap2\n      pop\n      pop\n      0x20\n      mload(0x40)\n      dup1\n      dup4\n      sub\n      dup2\n      dup7\n      dup1\n      extcodesize\n      iszero\n      dup1\n      iszero\n      tag_148\n      jumpi\n      0x00\n      dup1\n      revert\n    tag_148:\n      pop\n      gas\n      staticcall\n      iszero\n      dup1\n      iszero\n      tag_150\n      jumpi\n      returndatasize\n      0x00\n      dup1\n      returndatacopy\n      revert(0x00, returndatasize)\n    tag_150:\n      pop\n      pop\n      pop\n      pop\n      mload(0x40)\n      returndatasize\n      0x20\n      dup2\n      lt\n      iszero\n      tag_151\n      jumpi\n      0x00\n      dup1\n      revert\n    tag_151:\n      dup2\n      add\n      swap1\n      dup1\n      dup1\n      mload\n      swap1\n      0x20\n      add\n      swap1\n      swap3\n      swap2\n      swap1\n      pop\n      pop\n      pop\n        /* \"contracts/Omnidex-incentives/incentives/TempIncentivesVault.sol\":4431:4471  token.balanceOf(address(this)) > _amount */\n      gt\n        /* \"contracts/Omnidex-incentives/incentives/TempIncentivesVault.sol\":4423:4509  require(token.balanceOf(address(this)) > _amount, \"Insufficient incentives available\") */\n      tag_152\n      jumpi\n      mload(0x40)\n      0x08c379a000000000000000000000000000000000000000000000000000000000\n      dup2\n      mstore\n      0x04\n      add\n      dup1\n      dup1\n      0x20\n      add\n      dup3\n      dup2\n      sub\n      dup3\n      mstore\n      0x21\n      dup2\n      mstore\n      0x20\n      add\n      dup1\n      data_2186895f526e488d7755616513a09664eedf819bfafe4f6fa94396f5afb14e38\n      0x21\n      swap2\n      codecopy\n      0x40\n      add\n      swap2\n      pop\n      pop\n      mload(0x40)\n      dup1\n      swap2\n      sub\n      swap1\n      revert\n    tag_152:\n        /* \"contracts/Omnidex-incentives/incentives/TempIncentivesVault.sol\":4523:4544  isUnderLimit(_amount) */\n      tag_153\n        /* \"contracts/Omnidex-incentives/incentives/TempIncentivesVault.sol\":4536:4543  _amount */\n      dup2\n        /* \"contracts/Omnidex-incentives/incentives/TempIncentivesVault.sol\":4523:4535  isUnderLimit */\n      tag_154\n        /* \"contracts/Omnidex-incentives/incentives/TempIncentivesVault.sol\":4523:4544  isUnderLimit(_amount) */\n      jump\t// in\n    tag_153:\n        /* \"contracts/Omnidex-incentives/incentives/TempIncentivesVault.sol\":4519:4637  if (isUnderLimit(_amount)){... */\n      iszero\n      tag_155\n      jumpi\n        /* \"contracts/Omnidex-incentives/incentives/TempIncentivesVault.sol\":4573:4580  _amount */\n      dup1\n        /* \"contracts/Omnidex-incentives/incentives/TempIncentivesVault.sol\":4559:4569  spentToday */\n      0x05\n      0x00\n        /* \"contracts/Omnidex-incentives/incentives/TempIncentivesVault.sol\":4559:4580  spentToday += _amount */\n      dup3\n      dup3\n      sload\n      add\n      swap3\n      pop\n      pop\n      dup2\n      swap1\n      sstore\n      pop\n        /* \"contracts/Omnidex-incentives/incentives/TempIncentivesVault.sol\":4594:4626  token.safeTransfer(_to, _amount) */\n      tag_156\n        /* \"contracts/Omnidex-incentives/incentives/TempIncentivesVault.sol\":4613:4616  _to */\n      dup3\n        /* \"contracts/Omnidex-incentives/incentives/TempIncentivesVault.sol\":4618:4625  _amount */\n      dup3\n        /* \"contracts/Omnidex-incentives/incentives/TempIncentivesVault.sol\":4594:4599  token */\n      immutable(\"0x8fef2229291b68be841adf029e58b87f39ba144b2d3b0af1760243d0a9bc6a1c\")\n        /* \"contracts/Omnidex-incentives/incentives/TempIncentivesVault.sol\":4594:4612  token.safeTransfer */\n      0xffffffffffffffffffffffffffffffffffffffff\n      and\n      tag_110\n      swap1\n        /* \"contracts/Omnidex-incentives/incentives/TempIncentivesVault.sol\":4594:4626  token.safeTransfer(_to, _amount) */\n      swap3\n      swap2\n      swap1\n      0xffffffff\n      and\n      jump\t// in\n    tag_156:\n        /* \"contracts/Omnidex-incentives/incentives/TempIncentivesVault.sol\":4519:4637  if (isUnderLimit(_amount)){... */\n    tag_155:\n        /* \"contracts/Omnidex-incentives/incentives/TempIncentivesVault.sol\":4661:4664  _to */\n      dup2\n        /* \"contracts/Omnidex-incentives/incentives/TempIncentivesVault.sol\":4652:4674  Withdraw(_to, _amount) */\n      0xffffffffffffffffffffffffffffffffffffffff\n      and\n      0x884edad9ce6fa2440d8a54cc123490eb96d2768479d49ff9c7366125a9424364\n        /* \"contracts/Omnidex-incentives/incentives/TempIncentivesVault.sol\":4666:4673  _amount */\n      dup3\n        /* \"contracts/Omnidex-incentives/incentives/TempIncentivesVault.sol\":4652:4674  Withdraw(_to, _amount) */\n      mload(0x40)\n      dup1\n      dup3\n      dup2\n      mstore\n      0x20\n      add\n      swap2\n      pop\n      pop\n      mload(0x40)\n      dup1\n      swap2\n      sub\n      swap1\n      log2\n        /* \"contracts/Omnidex-incentives/incentives/TempIncentivesVault.sol\":4282:4681  function withdraw(address _to, uint256 _amount) public whenNotPaused onlyAuth {... */\n      pop\n      pop\n      jump\t// out\n        /* \"contracts/Omnidex-incentives/incentives/TempIncentivesVault.sol\":750:770  address public admin */\n    tag_66:\n      0x01\n      0x00\n      swap1\n      sload\n      swap1\n      0x0100\n      exp\n      swap1\n      div\n      0xffffffffffffffffffffffffffffffffffffffff\n      and\n      dup2\n      jump\t// out\n        /* \"contracts/Omnidex-incentives/incentives/TempIncentivesVault.sol\":696:725  IERC20 public immutable token */\n    tag_68:\n      immutable(\"0x8fef2229291b68be841adf029e58b87f39ba144b2d3b0af1760243d0a9bc6a1c\")\n      dup2\n      jump\t// out\n        /* \"https://github.com/OmniDexFinance/helper/blob/master/%40openzeppelin/contracts/token/ERC20/SafeERC20.sol\":1348:1961  function safeApprove(IERC20 token, address spender, uint256 value) internal {... */\n    tag_69:\n        /* \"https://github.com/OmniDexFinance/helper/blob/master/%40openzeppelin/contracts/token/ERC20/SafeERC20.sol\":1722:1723  0 */\n      0x00\n        /* \"https://github.com/OmniDexFinance/helper/blob/master/%40openzeppelin/contracts/token/ERC20/SafeERC20.sol\":1713:1718  value */\n      dup2\n        /* \"https://github.com/OmniDexFinance/helper/blob/master/%40openzeppelin/contracts/token/ERC20/SafeERC20.sol\":1713:1723  value == 0 */\n      eq\n        /* \"https://github.com/OmniDexFinance/helper/blob/master/%40openzeppelin/contracts/token/ERC20/SafeERC20.sol\":1712:1774  (value == 0) || (token.allowance(address(this), spender) == 0) */\n      dup1\n      tag_158\n      jumpi\n      pop\n        /* \"https://github.com/OmniDexFinance/helper/blob/master/%40openzeppelin/contracts/token/ERC20/SafeERC20.sol\":1772:1773  0 */\n      0x00\n        /* \"https://github.com/OmniDexFinance/helper/blob/master/%40openzeppelin/contracts/token/ERC20/SafeERC20.sol\":1729:1734  token */\n      dup4\n        /* \"https://github.com/OmniDexFinance/helper/blob/master/%40openzeppelin/contracts/token/ERC20/SafeERC20.sol\":1729:1744  token.allowance */\n      0xffffffffffffffffffffffffffffffffffffffff\n      and\n      0xdd62ed3e\n        /* \"https://github.com/OmniDexFinance/helper/blob/master/%40openzeppelin/contracts/token/ERC20/SafeERC20.sol\":1753:1757  this */\n      address\n        /* \"https://github.com/OmniDexFinance/helper/blob/master/%40openzeppelin/contracts/token/ERC20/SafeERC20.sol\":1760:1767  spender */\n      dup6\n        /* \"https://github.com/OmniDexFinance/helper/blob/master/%40openzeppelin/contracts/token/ERC20/SafeERC20.sol\":1729:1768  token.allowance(address(this), spender) */\n      mload(0x40)\n      dup4\n      0xffffffff\n      and\n      0xe0\n      shl\n      dup2\n      mstore\n      0x04\n      add\n      dup1\n      dup4\n      0xffffffffffffffffffffffffffffffffffffffff\n      and\n      dup2\n      mstore\n      0x20\n      add\n      dup3\n      0xffffffffffffffffffffffffffffffffffffffff\n      and\n      dup2\n      mstore\n      0x20\n      add\n      swap3\n      pop\n      pop\n      pop\n      0x20\n      mload(0x40)\n      dup1\n      dup4\n      sub\n      dup2\n      dup7\n      dup1\n      extcodesize\n      iszero\n      dup1\n      iszero\n      tag_159\n      jumpi\n      0x00\n      dup1\n      revert\n    tag_159:\n      pop\n      gas\n      staticcall\n      iszero\n      dup1\n      iszero\n      tag_161\n      jumpi\n      returndatasize\n      0x00\n      dup1\n      returndatacopy\n      revert(0x00, returndatasize)\n    tag_161:\n      pop\n      pop\n      pop\n      pop\n      mload(0x40)\n      returndatasize\n      0x20\n      dup2\n      lt\n      iszero\n      tag_162\n      jumpi\n      0x00\n      dup1\n      revert\n    tag_162:\n      dup2\n      add\n      swap1\n      dup1\n      dup1\n      mload\n      swap1\n      0x20\n      add\n      swap1\n      swap3\n      swap2\n      swap1\n      pop\n      pop\n      pop\n        /* \"https://github.com/OmniDexFinance/helper/blob/master/%40openzeppelin/contracts/token/ERC20/SafeERC20.sol\":1729:1773  token.allowance(address(this), spender) == 0 */\n      eq\n        /* \"https://github.com/OmniDexFinance/helper/blob/master/%40openzeppelin/contracts/token/ERC20/SafeERC20.sol\":1712:1774  (value == 0) || (token.allowance(address(this), spender) == 0) */\n    tag_158:\n        /* \"https://github.com/OmniDexFinance/helper/blob/master/%40openzeppelin/contracts/token/ERC20/SafeERC20.sol\":1704:1854  require((value == 0) || (token.allowance(address(this), spender) == 0),... */\n      tag_163\n      jumpi\n      mload(0x40)\n      0x08c379a000000000000000000000000000000000000000000000000000000000\n      dup2\n      mstore\n      0x04\n      add\n      dup1\n      dup1\n      0x20\n      add\n      dup3\n      dup2\n      sub\n      dup3\n      mstore\n      0x36\n      dup2\n      mstore\n      0x20\n      add\n      dup1\n      data_ef945ddb1bfdc0da870feb4560d868b047642b4ac7f2fb7f8b7c51cb4a411e25\n      0x36\n      swap2\n      codecopy\n      0x40\n      add\n      swap2\n      pop\n      pop\n      mload(0x40)\n      dup1\n      swap2\n      sub\n      swap1\n      revert\n    tag_163:\n        /* \"https://github.com/OmniDexFinance/helper/blob/master/%40openzeppelin/contracts/token/ERC20/SafeERC20.sol\":1864:1954  _callOptionalReturn(token, abi.encodeWithSelector(token.approve.selector, spender, value)) */\n      tag_164\n        /* \"https://github.com/OmniDexFinance/helper/blob/master/%40openzeppelin/contracts/token/ERC20/SafeERC20.sol\":1884:1889  token */\n      dup4\n        /* \"https://github.com/OmniDexFinance/helper/blob/master/%40openzeppelin/contracts/token/ERC20/SafeERC20.sol\":1914:1936  token.approve.selector */\n      shl(0xe0, 0x095ea7b3)\n        /* \"https://github.com/OmniDexFinance/helper/blob/master/%40openzeppelin/contracts/token/ERC20/SafeERC20.sol\":1938:1945  spender */\n      dup5\n        /* \"https://github.com/OmniDexFinance/helper/blob/master/%40openzeppelin/contracts/token/ERC20/SafeERC20.sol\":1947:1952  value */\n      dup5\n        /* \"https://github.com/OmniDexFinance/helper/blob/master/%40openzeppelin/contracts/token/ERC20/SafeERC20.sol\":1891:1953  abi.encodeWithSelector(token.approve.selector, spender, value) */\n      add(0x24, mload(0x40))\n      dup1\n      dup4\n      0xffffffffffffffffffffffffffffffffffffffff\n      and\n      dup2\n      mstore\n      0x20\n      add\n      dup3\n      dup2\n      mstore\n      0x20\n      add\n      swap3\n      pop\n      pop\n      pop\n      mload(0x40)\n      0x20\n      dup2\n      dup4\n      sub\n      sub\n      dup2\n      mstore\n      swap1\n      0x40\n      mstore\n      swap1\n      not(0xffffffffffffffffffffffffffffffffffffffffffffffffffffffff)\n      and\n      0x20\n      dup3\n      add\n      dup1\n      mload\n      0xffffffffffffffffffffffffffffffffffffffffffffffffffffffff\n      dup4\n      dup2\n      dup4\n      and\n      or\n      dup4\n      mstore\n      pop\n      pop\n      pop\n      pop\n        /* \"https://github.com/OmniDexFinance/helper/blob/master/%40openzeppelin/contracts/token/ERC20/SafeERC20.sol\":1864:1883  _callOptionalReturn */\n      tag_165\n        /* \"https://github.com/OmniDexFinance/helper/blob/master/%40openzeppelin/contracts/token/ERC20/SafeERC20.sol\":1864:1954  _callOptionalReturn(token, abi.encodeWithSelector(token.approve.selector, spender, value)) */\n      jump\t// in\n    tag_164:\n        /* \"https://github.com/OmniDexFinance/helper/blob/master/%40openzeppelin/contracts/token/ERC20/SafeERC20.sol\":1348:1961  function safeApprove(IERC20 token, address spender, uint256 value) internal {... */\n      pop\n      pop\n      pop\n      jump\t// out\n        /* \"https://github.com/OmniDexFinance/helper/blob/master/%40openzeppelin/contracts/utils/Address.sol\":3581:3774  function functionCall(address target, bytes memory data, string memory errorMessage) internal returns (bytes memory) {... */\n    tag_70:\n        /* \"https://github.com/OmniDexFinance/helper/blob/master/%40openzeppelin/contracts/utils/Address.sol\":3684:3696  bytes memory */\n      0x60\n        /* \"https://github.com/OmniDexFinance/helper/blob/master/%40openzeppelin/contracts/utils/Address.sol\":3715:3767  functionCallWithValue(target, data, 0, errorMessage) */\n      tag_167\n        /* \"https://github.com/OmniDexFinance/helper/blob/master/%40openzeppelin/contracts/utils/Address.sol\":3737:3743  target */\n      dup5\n        /* \"https://github.com/OmniDexFinance/helper/blob/master/%40openzeppelin/contracts/utils/Address.sol\":3745:3749  data */\n      dup5\n        /* \"https://github.com/OmniDexFinance/helper/blob/master/%40openzeppelin/contracts/utils/Address.sol\":3751:3752  0 */\n      0x00\n        /* \"https://github.com/OmniDexFinance/helper/blob/master/%40openzeppelin/contracts/utils/Address.sol\":3754:3766  errorMessage */\n      dup6\n        /* \"https://github.com/OmniDexFinance/helper/blob/master/%40openzeppelin/contracts/utils/Address.sol\":3715:3736  functionCallWithValue */\n      tag_168\n        /* \"https://github.com/OmniDexFinance/helper/blob/master/%40openzeppelin/contracts/utils/Address.sol\":3715:3767  functionCallWithValue(target, data, 0, errorMessage) */\n      jump\t// in\n    tag_167:\n        /* \"https://github.com/OmniDexFinance/helper/blob/master/%40openzeppelin/contracts/utils/Address.sol\":3708:3767  return functionCallWithValue(target, data, 0, errorMessage) */\n      swap1\n      pop\n        /* \"https://github.com/OmniDexFinance/helper/blob/master/%40openzeppelin/contracts/utils/Address.sol\":3581:3774  function functionCall(address target, bytes memory data, string memory errorMessage) internal returns (bytes memory) {... */\n      swap4\n      swap3\n      pop\n      pop\n      pop\n      jump\t// out\n        /* \"https://github.com/OmniDexFinance/helper/blob/master/%40openzeppelin/contracts/utils/Pausable.sol\":2064:2181  function _unpause() internal virtual whenPaused {... */\n    tag_78:\n        /* \"https://github.com/OmniDexFinance/helper/blob/master/%40openzeppelin/contracts/utils/Pausable.sol\":1631:1639  paused() */\n      tag_170\n        /* \"https://github.com/OmniDexFinance/helper/blob/master/%40openzeppelin/contracts/utils/Pausable.sol\":1631:1637  paused */\n      tag_28\n        /* \"https://github.com/OmniDexFinance/helper/blob/master/%40openzeppelin/contracts/utils/Pausable.sol\":1631:1639  paused() */\n      jump\t// in\n    tag_170:\n        /* \"https://github.com/OmniDexFinance/helper/blob/master/%40openzeppelin/contracts/utils/Pausable.sol\":1623:1664  require(paused(), \"Pausable: not paused\") */\n      tag_171\n      jumpi\n      mload(0x40)\n      0x08c379a000000000000000000000000000000000000000000000000000000000\n      dup2\n      mstore\n      0x04\n      add\n      dup1\n      dup1\n      0x20\n      add\n      dup3\n      dup2\n      sub\n      dup3\n      mstore\n      0x14\n      dup2\n      mstore\n      0x20\n      add\n      dup1\n      0x5061757361626c653a206e6f7420706175736564000000000000000000000000\n      dup2\n      mstore\n      pop\n      0x20\n      add\n      swap2\n      pop\n      pop\n      mload(0x40)\n      dup1\n      swap2\n      sub\n      swap1\n      revert\n    tag_171:\n        /* \"https://github.com/OmniDexFinance/helper/blob/master/%40openzeppelin/contracts/utils/Pausable.sol\":2132:2137  false */\n      0x00\n        /* \"https://github.com/OmniDexFinance/helper/blob/master/%40openzeppelin/contracts/utils/Pausable.sol\":2122:2129  _paused */\n      dup1\n      0x14\n        /* \"https://github.com/OmniDexFinance/helper/blob/master/%40openzeppelin/contracts/utils/Pausable.sol\":2122:2137  _paused = false */\n      0x0100\n      exp\n      dup2\n      sload\n      dup2\n      0xff\n      mul\n      not\n      and\n      swap1\n      dup4\n      iszero\n      iszero\n      mul\n      or\n      swap1\n      sstore\n      pop\n        /* \"https://github.com/OmniDexFinance/helper/blob/master/%40openzeppelin/contracts/utils/Pausable.sol\":2152:2174  Unpaused(_msgSender()) */\n      0x5db9ee0a495bf2e6ff9c91a7834c1ba4fdd244a5e8aa4e537bd38aeae4b073aa\n        /* \"https://github.com/OmniDexFinance/helper/blob/master/%40openzeppelin/contracts/utils/Pausable.sol\":2161:2173  _msgSender() */\n      tag_173\n        /* \"https://github.com/OmniDexFinance/helper/blob/master/%40openzeppelin/contracts/utils/Pausable.sol\":2161:2171  _msgSender */\n      tag_82\n        /* \"https://github.com/OmniDexFinance/helper/blob/master/%40openzeppelin/contracts/utils/Pausable.sol\":2161:2173  _msgSender() */\n      jump\t// in\n    tag_173:\n        /* \"https://github.com/OmniDexFinance/helper/blob/master/%40openzeppelin/contracts/utils/Pausable.sol\":2152:2174  Unpaused(_msgSender()) */\n      mload(0x40)\n      dup1\n      dup3\n      0xffffffffffffffffffffffffffffffffffffffff\n      and\n      dup2\n      mstore\n      0x20\n      add\n      swap2\n      pop\n      pop\n      mload(0x40)\n      dup1\n      swap2\n      sub\n      swap1\n      log1\n        /* \"https://github.com/OmniDexFinance/helper/blob/master/%40openzeppelin/contracts/utils/Pausable.sol\":2064:2181  function _unpause() internal virtual whenPaused {... */\n      jump\t// out\n        /* \"https://github.com/OmniDexFinance/helper/blob/master/%40openzeppelin/contracts/utils/Context.sol\":598:702  function _msgSender() internal view virtual returns (address payable) {... */\n    tag_82:\n        /* \"https://github.com/OmniDexFinance/helper/blob/master/%40openzeppelin/contracts/utils/Context.sol\":651:666  address payable */\n      0x00\n        /* \"https://github.com/OmniDexFinance/helper/blob/master/%40openzeppelin/contracts/utils/Context.sol\":685:695  msg.sender */\n      caller\n        /* \"https://github.com/OmniDexFinance/helper/blob/master/%40openzeppelin/contracts/utils/Context.sol\":678:695  return msg.sender */\n      swap1\n      pop\n        /* \"https://github.com/OmniDexFinance/helper/blob/master/%40openzeppelin/contracts/utils/Context.sol\":598:702  function _msgSender() internal view virtual returns (address payable) {... */\n      swap1\n      jump\t// out\n        /* \"https://github.com/OmniDexFinance/helper/blob/master/%40openzeppelin/contracts/utils/Pausable.sol\":1817:1932  function _pause() internal virtual whenNotPaused {... */\n    tag_99:\n        /* \"https://github.com/OmniDexFinance/helper/blob/master/%40openzeppelin/contracts/utils/Pausable.sol\":1366:1374  paused() */\n      tag_176\n        /* \"https://github.com/OmniDexFinance/helper/blob/master/%40openzeppelin/contracts/utils/Pausable.sol\":1366:1372  paused */\n      tag_28\n        /* \"https://github.com/OmniDexFinance/helper/blob/master/%40openzeppelin/contracts/utils/Pausable.sol\":1366:1374  paused() */\n      jump\t// in\n    tag_176:\n        /* \"https://github.com/OmniDexFinance/helper/blob/master/%40openzeppelin/contracts/utils/Pausable.sol\":1365:1374  !paused() */\n      iszero\n        /* \"https://github.com/OmniDexFinance/helper/blob/master/%40openzeppelin/contracts/utils/Pausable.sol\":1357:1395  require(!paused(), \"Pausable: paused\") */\n      tag_177\n      jumpi\n      mload(0x40)\n      0x08c379a000000000000000000000000000000000000000000000000000000000\n      dup2\n      mstore\n      0x04\n      add\n      dup1\n      dup1\n      0x20\n      add\n      dup3\n      dup2\n      sub\n      dup3\n      mstore\n      0x10\n      dup2\n      mstore\n      0x20\n      add\n      dup1\n      0x5061757361626c653a2070617573656400000000000000000000000000000000\n      dup2\n      mstore\n      pop\n      0x20\n      add\n      swap2\n      pop\n      pop\n      mload(0x40)\n      dup1\n      swap2\n      sub\n      swap1\n      revert\n    tag_177:\n        /* \"https://github.com/OmniDexFinance/helper/blob/master/%40openzeppelin/contracts/utils/Pausable.sol\":1886:1890  true */\n      0x01\n        /* \"https://github.com/OmniDexFinance/helper/blob/master/%40openzeppelin/contracts/utils/Pausable.sol\":1876:1883  _paused */\n      0x00\n      0x14\n        /* \"https://github.com/OmniDexFinance/helper/blob/master/%40openzeppelin/contracts/utils/Pausable.sol\":1876:1890  _paused = true */\n      0x0100\n      exp\n      dup2\n      sload\n      dup2\n      0xff\n      mul\n      not\n      and\n      swap1\n      dup4\n      iszero\n      iszero\n      mul\n      or\n      swap1\n      sstore\n      pop\n        /* \"https://github.com/OmniDexFinance/helper/blob/master/%40openzeppelin/contracts/utils/Pausable.sol\":1905:1925  Paused(_msgSender()) */\n      0x62e78cea01bee320cd4e420270b5ea74000d11b0c9f74754ebdbfc544b05a258\n        /* \"https://github.com/OmniDexFinance/helper/blob/master/%40openzeppelin/contracts/utils/Pausable.sol\":1912:1924  _msgSender() */\n      tag_179\n        /* \"https://github.com/OmniDexFinance/helper/blob/master/%40openzeppelin/contracts/utils/Pausable.sol\":1912:1922  _msgSender */\n      tag_82\n        /* \"https://github.com/OmniDexFinance/helper/blob/master/%40openzeppelin/contracts/utils/Pausable.sol\":1912:1924  _msgSender() */\n      jump\t// in\n    tag_179:\n        /* \"https://github.com/OmniDexFinance/helper/blob/master/%40openzeppelin/contracts/utils/Pausable.sol\":1905:1925  Paused(_msgSender()) */\n      mload(0x40)\n      dup1\n      dup3\n      0xffffffffffffffffffffffffffffffffffffffff\n      and\n      dup2\n      mstore\n      0x20\n      add\n      swap2\n      pop\n      pop\n      mload(0x40)\n      dup1\n      swap2\n      sub\n      swap1\n      log1\n        /* \"https://github.com/OmniDexFinance/helper/blob/master/%40openzeppelin/contracts/utils/Pausable.sol\":1817:1932  function _pause() internal virtual whenNotPaused {... */\n      jump\t// out\n        /* \"https://github.com/OmniDexFinance/helper/blob/master/%40openzeppelin/contracts/token/ERC20/SafeERC20.sol\":704:879  function safeTransfer(IERC20 token, address to, uint256 value) internal {... */\n    tag_110:\n        /* \"https://github.com/OmniDexFinance/helper/blob/master/%40openzeppelin/contracts/token/ERC20/SafeERC20.sol\":786:872  _callOptionalReturn(token, abi.encodeWithSelector(token.transfer.selector, to, value)) */\n      tag_181\n        /* \"https://github.com/OmniDexFinance/helper/blob/master/%40openzeppelin/contracts/token/ERC20/SafeERC20.sol\":806:811  token */\n      dup4\n        /* \"https://github.com/OmniDexFinance/helper/blob/master/%40openzeppelin/contracts/token/ERC20/SafeERC20.sol\":836:859  token.transfer.selector */\n      shl(0xe0, 0xa9059cbb)\n        /* \"https://github.com/OmniDexFinance/helper/blob/master/%40openzeppelin/contracts/token/ERC20/SafeERC20.sol\":861:863  to */\n      dup5\n        /* \"https://github.com/OmniDexFinance/helper/blob/master/%40openzeppelin/contracts/token/ERC20/SafeERC20.sol\":865:870  value */\n      dup5\n        /* \"https://github.com/OmniDexFinance/helper/blob/master/%40openzeppelin/contracts/token/ERC20/SafeERC20.sol\":813:871  abi.encodeWithSelector(token.transfer.selector, to, value) */\n      add(0x24, mload(0x40))\n      dup1\n      dup4\n      0xffffffffffffffffffffffffffffffffffffffff\n      and\n      dup2\n      mstore\n      0x20\n      add\n      dup3\n      dup2\n      mstore\n      0x20\n      add\n      swap3\n      pop\n      pop\n      pop\n      mload(0x40)\n      0x20\n      dup2\n      dup4\n      sub\n      sub\n      dup2\n      mstore\n      swap1\n      0x40\n      mstore\n      swap1\n      not(0xffffffffffffffffffffffffffffffffffffffffffffffffffffffff)\n      and\n      0x20\n      dup3\n      add\n      dup1\n      mload\n      0xffffffffffffffffffffffffffffffffffffffffffffffffffffffff\n      dup4\n      dup2\n      dup4\n      and\n      or\n      dup4\n      mstore\n      pop\n      pop\n      pop\n      pop\n        /* \"https://github.com/OmniDexFinance/helper/blob/master/%40openzeppelin/contracts/token/ERC20/SafeERC20.sol\":786:805  _callOptionalReturn */\n      tag_165\n        /* \"https://github.com/OmniDexFinance/helper/blob/master/%40openzeppelin/contracts/token/ERC20/SafeERC20.sol\":786:872  _callOptionalReturn(token, abi.encodeWithSelector(token.transfer.selector, to, value)) */\n      jump\t// in\n    tag_181:\n        /* \"https://github.com/OmniDexFinance/helper/blob/master/%40openzeppelin/contracts/token/ERC20/SafeERC20.sol\":704:879  function safeTransfer(IERC20 token, address to, uint256 value) internal {... */\n      pop\n      pop\n      pop\n      jump\t// out\n        /* \"https://github.com/OmniDexFinance/helper/blob/master/%40openzeppelin/contracts/token/ERC20/SafeERC20.sol\":885:1088  function safeTransferFrom(IERC20 token, address from, address to, uint256 value) internal {... */\n    tag_125:\n        /* \"https://github.com/OmniDexFinance/helper/blob/master/%40openzeppelin/contracts/token/ERC20/SafeERC20.sol\":985:1081  _callOptionalReturn(token, abi.encodeWithSelector(token.transferFrom.selector, from, to, value)) */\n      tag_183\n        /* \"https://github.com/OmniDexFinance/helper/blob/master/%40openzeppelin/contracts/token/ERC20/SafeERC20.sol\":1005:1010  token */\n      dup5\n        /* \"https://github.com/OmniDexFinance/helper/blob/master/%40openzeppelin/contracts/token/ERC20/SafeERC20.sol\":1035:1062  token.transferFrom.selector */\n      shl(0xe0, 0x23b872dd)\n        /* \"https://github.com/OmniDexFinance/helper/blob/master/%40openzeppelin/contracts/token/ERC20/SafeERC20.sol\":1064:1068  from */\n      dup6\n        /* \"https://github.com/OmniDexFinance/helper/blob/master/%40openzeppelin/contracts/token/ERC20/SafeERC20.sol\":1070:1072  to */\n      dup6\n        /* \"https://github.com/OmniDexFinance/helper/blob/master/%40openzeppelin/contracts/token/ERC20/SafeERC20.sol\":1074:1079  value */\n      dup6\n        /* \"https://github.com/OmniDexFinance/helper/blob/master/%40openzeppelin/contracts/token/ERC20/SafeERC20.sol\":1012:1080  abi.encodeWithSelector(token.transferFrom.selector, from, to, value) */\n      add(0x24, mload(0x40))\n      dup1\n      dup5\n      0xffffffffffffffffffffffffffffffffffffffff\n      and\n      dup2\n      mstore\n      0x20\n      add\n      dup4\n      0xffffffffffffffffffffffffffffffffffffffff\n      and\n      dup2\n      mstore\n      0x20\n      add\n      dup3\n      dup2\n      mstore\n      0x20\n      add\n      swap4\n      pop\n      pop\n      pop\n      pop\n      mload(0x40)\n      0x20\n      dup2\n      dup4\n      sub\n      sub\n      dup2\n      mstore\n      swap1\n      0x40\n      mstore\n      swap1\n      not(0xffffffffffffffffffffffffffffffffffffffffffffffffffffffff)\n      and\n      0x20\n      dup3\n      add\n      dup1\n      mload\n      0xffffffffffffffffffffffffffffffffffffffffffffffffffffffff\n      dup4\n      dup2\n      dup4\n      and\n      or\n      dup4\n      mstore\n      pop\n      pop\n      pop\n      pop\n        /* \"https://github.com/OmniDexFinance/helper/blob/master/%40openzeppelin/contracts/token/ERC20/SafeERC20.sol\":985:1004  _callOptionalReturn */\n      tag_165\n        /* \"https://github.com/OmniDexFinance/helper/blob/master/%40openzeppelin/contracts/token/ERC20/SafeERC20.sol\":985:1081  _callOptionalReturn(token, abi.encodeWithSelector(token.transferFrom.selector, from, to, value)) */\n      jump\t// in\n    tag_183:\n        /* \"https://github.com/OmniDexFinance/helper/blob/master/%40openzeppelin/contracts/token/ERC20/SafeERC20.sol\":885:1088  function safeTransferFrom(IERC20 token, address from, address to, uint256 value) internal {... */\n      pop\n      pop\n      pop\n      pop\n      jump\t// out\n        /* \"contracts/Omnidex-incentives/incentives/TempIncentivesVault.sol\":4917:5261  function isUnderLimit(uint amount)... */\n    tag_154:\n        /* \"contracts/Omnidex-incentives/incentives/TempIncentivesVault.sol\":4986:4990  bool */\n      0x00\n        /* \"contracts/Omnidex-incentives/incentives/TempIncentivesVault.sol\":5038:5046  24 hours */\n      0x015180\n        /* \"contracts/Omnidex-incentives/incentives/TempIncentivesVault.sol\":5028:5035  lastDay */\n      sload(0x04)\n        /* \"contracts/Omnidex-incentives/incentives/TempIncentivesVault.sol\":5028:5046  lastDay + 24 hours */\n      add\n        /* \"contracts/Omnidex-incentives/incentives/TempIncentivesVault.sol\":5010:5025  block.timestamp */\n      timestamp\n        /* \"contracts/Omnidex-incentives/incentives/TempIncentivesVault.sol\":5010:5046  block.timestamp > lastDay + 24 hours */\n      gt\n        /* \"contracts/Omnidex-incentives/incentives/TempIncentivesVault.sol\":5006:5126  if (block.timestamp > lastDay + 24 hours) {... */\n      iszero\n      tag_185\n      jumpi\n        /* \"contracts/Omnidex-incentives/incentives/TempIncentivesVault.sol\":5072:5087  block.timestamp */\n      timestamp\n        /* \"contracts/Omnidex-incentives/incentives/TempIncentivesVault.sol\":5062:5069  lastDay */\n      0x04\n        /* \"contracts/Omnidex-incentives/incentives/TempIncentivesVault.sol\":5062:5087  lastDay = block.timestamp */\n      dup2\n      swap1\n      sstore\n      pop\n        /* \"contracts/Omnidex-incentives/incentives/TempIncentivesVault.sol\":5114:5115  0 */\n      0x00\n        /* \"contracts/Omnidex-incentives/incentives/TempIncentivesVault.sol\":5101:5111  spentToday */\n      0x05\n        /* \"contracts/Omnidex-incentives/incentives/TempIncentivesVault.sol\":5101:5115  spentToday = 0 */\n      dup2\n      swap1\n      sstore\n      pop\n        /* \"contracts/Omnidex-incentives/incentives/TempIncentivesVault.sol\":5006:5126  if (block.timestamp > lastDay + 24 hours) {... */\n    tag_185:\n        /* \"contracts/Omnidex-incentives/incentives/TempIncentivesVault.sol\":5161:5171  dailyLimit */\n      sload(0x03)\n        /* \"contracts/Omnidex-incentives/incentives/TempIncentivesVault.sol\":5152:5158  amount */\n      dup3\n        /* \"contracts/Omnidex-incentives/incentives/TempIncentivesVault.sol\":5139:5149  spentToday */\n      sload(0x05)\n        /* \"contracts/Omnidex-incentives/incentives/TempIncentivesVault.sol\":5139:5158  spentToday + amount */\n      add\n        /* \"contracts/Omnidex-incentives/incentives/TempIncentivesVault.sol\":5139:5171  spentToday + amount > dailyLimit */\n      gt\n        /* \"contracts/Omnidex-incentives/incentives/TempIncentivesVault.sol\":5139:5207  spentToday + amount > dailyLimit || spentToday + amount < spentToday */\n      dup1\n      tag_186\n      jumpi\n      pop\n        /* \"contracts/Omnidex-incentives/incentives/TempIncentivesVault.sol\":5197:5207  spentToday */\n      sload(0x05)\n        /* \"contracts/Omnidex-incentives/incentives/TempIncentivesVault.sol\":5188:5194  amount */\n      dup3\n        /* \"contracts/Omnidex-incentives/incentives/TempIncentivesVault.sol\":5175:5185  spentToday */\n      sload(0x05)\n        /* \"contracts/Omnidex-incentives/incentives/TempIncentivesVault.sol\":5175:5194  spentToday + amount */\n      add\n        /* \"contracts/Omnidex-incentives/incentives/TempIncentivesVault.sol\":5175:5207  spentToday + amount < spentToday */\n      lt\n        /* \"contracts/Omnidex-incentives/incentives/TempIncentivesVault.sol\":5139:5207  spentToday + amount > dailyLimit || spentToday + amount < spentToday */\n    tag_186:\n        /* \"contracts/Omnidex-incentives/incentives/TempIncentivesVault.sol\":5135:5233  if (spentToday + amount > dailyLimit || spentToday + amount < spentToday)... */\n      iszero\n      tag_187\n      jumpi\n        /* \"contracts/Omnidex-incentives/incentives/TempIncentivesVault.sol\":5228:5233  false */\n      0x00\n        /* \"contracts/Omnidex-incentives/incentives/TempIncentivesVault.sol\":5221:5233  return false */\n      swap1\n      pop\n      jump(tag_184)\n        /* \"contracts/Omnidex-incentives/incentives/TempIncentivesVault.sol\":5135:5233  if (spentToday + amount > dailyLimit || spentToday + amount < spentToday)... */\n    tag_187:\n        /* \"contracts/Omnidex-incentives/incentives/TempIncentivesVault.sol\":5250:5254  true */\n      0x01\n        /* \"contracts/Omnidex-incentives/incentives/TempIncentivesVault.sol\":5243:5254  return true */\n      swap1\n      pop\n        /* \"contracts/Omnidex-incentives/incentives/TempIncentivesVault.sol\":4917:5261  function isUnderLimit(uint amount)... */\n    tag_184:\n      swap2\n      swap1\n      pop\n      jump\t// out\n        /* \"https://github.com/OmniDexFinance/helper/blob/master/%40openzeppelin/contracts/token/ERC20/SafeERC20.sol\":2967:3718  function _callOptionalReturn(IERC20 token, bytes memory data) private {... */\n    tag_165:\n        /* \"https://github.com/OmniDexFinance/helper/blob/master/%40openzeppelin/contracts/token/ERC20/SafeERC20.sol\":3386:3409  bytes memory returndata */\n      0x60\n        /* \"https://github.com/OmniDexFinance/helper/blob/master/%40openzeppelin/contracts/token/ERC20/SafeERC20.sol\":3412:3481  address(token).functionCall(data, \"SafeERC20: low-level call failed\") */\n      tag_189\n        /* \"https://github.com/OmniDexFinance/helper/blob/master/%40openzeppelin/contracts/token/ERC20/SafeERC20.sol\":3440:3444  data */\n      dup3\n        /* \"https://github.com/OmniDexFinance/helper/blob/master/%40openzeppelin/contracts/token/ERC20/SafeERC20.sol\":3412:3481  address(token).functionCall(data, \"SafeERC20: low-level call failed\") */\n      mload(0x40)\n      dup1\n      0x40\n      add\n      0x40\n      mstore\n      dup1\n      0x20\n      dup2\n      mstore\n      0x20\n      add\n      0x5361666545524332303a206c6f772d6c6576656c2063616c6c206661696c6564\n      dup2\n      mstore\n      pop\n        /* \"https://github.com/OmniDexFinance/helper/blob/master/%40openzeppelin/contracts/token/ERC20/SafeERC20.sol\":3420:3425  token */\n      dup6\n        /* \"https://github.com/OmniDexFinance/helper/blob/master/%40openzeppelin/contracts/token/ERC20/SafeERC20.sol\":3412:3439  address(token).functionCall */\n      0xffffffffffffffffffffffffffffffffffffffff\n      and\n      tag_70\n      swap1\n        /* \"https://github.com/OmniDexFinance/helper/blob/master/%40openzeppelin/contracts/token/ERC20/SafeERC20.sol\":3412:3481  address(token).functionCall(data, \"SafeERC20: low-level call failed\") */\n      swap3\n      swap2\n      swap1\n      0xffffffff\n      and\n      jump\t// in\n    tag_189:\n        /* \"https://github.com/OmniDexFinance/helper/blob/master/%40openzeppelin/contracts/token/ERC20/SafeERC20.sol\":3386:3481  bytes memory returndata = address(token).functionCall(data, \"SafeERC20: low-level call failed\") */\n      swap1\n      pop\n        /* \"https://github.com/OmniDexFinance/helper/blob/master/%40openzeppelin/contracts/token/ERC20/SafeERC20.sol\":3515:3516  0 */\n      0x00\n        /* \"https://github.com/OmniDexFinance/helper/blob/master/%40openzeppelin/contracts/token/ERC20/SafeERC20.sol\":3495:3505  returndata */\n      dup2\n        /* \"https://github.com/OmniDexFinance/helper/blob/master/%40openzeppelin/contracts/token/ERC20/SafeERC20.sol\":3495:3512  returndata.length */\n      mload\n        /* \"https://github.com/OmniDexFinance/helper/blob/master/%40openzeppelin/contracts/token/ERC20/SafeERC20.sol\":3495:3516  returndata.length > 0 */\n      gt\n        /* \"https://github.com/OmniDexFinance/helper/blob/master/%40openzeppelin/contracts/token/ERC20/SafeERC20.sol\":3491:3712  if (returndata.length > 0) { // Return data is optional... */\n      iszero\n      tag_190\n      jumpi\n        /* \"https://github.com/OmniDexFinance/helper/blob/master/%40openzeppelin/contracts/token/ERC20/SafeERC20.sol\":3635:3645  returndata */\n      dup1\n        /* \"https://github.com/OmniDexFinance/helper/blob/master/%40openzeppelin/contracts/token/ERC20/SafeERC20.sol\":3624:3654  abi.decode(returndata, (bool)) */\n      dup1\n      0x20\n      add\n      swap1\n      mload\n      0x20\n      dup2\n      lt\n      iszero\n      tag_191\n      jumpi\n      0x00\n      dup1\n      revert\n    tag_191:\n      dup2\n      add\n      swap1\n      dup1\n      dup1\n      mload\n      swap1\n      0x20\n      add\n      swap1\n      swap3\n      swap2\n      swap1\n      pop\n      pop\n      pop\n        /* \"https://github.com/OmniDexFinance/helper/blob/master/%40openzeppelin/contracts/token/ERC20/SafeERC20.sol\":3616:3701  require(abi.decode(returndata, (bool)), \"SafeERC20: ERC20 operation did not succeed\") */\n      tag_192\n      jumpi\n      mload(0x40)\n      0x08c379a000000000000000000000000000000000000000000000000000000000\n      dup2\n      mstore\n      0x04\n      add\n      dup1\n      dup1\n      0x20\n      add\n      dup3\n      dup2\n      sub\n      dup3\n      mstore\n      0x2a\n      dup2\n      mstore\n      0x20\n      add\n      dup1\n      data_e11ad79d1e4a7f2e5f376964cb99e8e8f7904e3fc16a109f7a7ecb9aa7956dcd\n      0x2a\n      swap2\n      codecopy\n      0x40\n      add\n      swap2\n      pop\n      pop\n      mload(0x40)\n      dup1\n      swap2\n      sub\n      swap1\n      revert\n    tag_192:\n        /* \"https://github.com/OmniDexFinance/helper/blob/master/%40openzeppelin/contracts/token/ERC20/SafeERC20.sol\":3491:3712  if (returndata.length > 0) { // Return data is optional... */\n    tag_190:\n        /* \"https://github.com/OmniDexFinance/helper/blob/master/%40openzeppelin/contracts/token/ERC20/SafeERC20.sol\":2967:3718  function _callOptionalReturn(IERC20 token, bytes memory data) private {... */\n      pop\n      pop\n      pop\n      jump\t// out\n        /* \"https://github.com/OmniDexFinance/helper/blob/master/%40openzeppelin/contracts/utils/Address.sol\":4608:5131  function functionCallWithValue(address target, bytes memory data, uint256 value, string memory errorMessage) internal returns (bytes memory) {... */\n    tag_168:\n        /* \"https://github.com/OmniDexFinance/helper/blob/master/%40openzeppelin/contracts/utils/Address.sol\":4735:4747  bytes memory */\n      0x60\n        /* \"https://github.com/OmniDexFinance/helper/blob/master/%40openzeppelin/contracts/utils/Address.sol\":4792:4797  value */\n      dup3\n        /* \"https://github.com/OmniDexFinance/helper/blob/master/%40openzeppelin/contracts/utils/Address.sol\":4767:4788  address(this).balance */\n      selfbalance\n        /* \"https://github.com/OmniDexFinance/helper/blob/master/%40openzeppelin/contracts/utils/Address.sol\":4767:4797  address(this).balance >= value */\n      lt\n      iszero\n        /* \"https://github.com/OmniDexFinance/helper/blob/master/%40openzeppelin/contracts/utils/Address.sol\":4759:4840  require(address(this).balance >= value, \"Address: insufficient balance for call\") */\n      tag_194\n      jumpi\n      mload(0x40)\n      0x08c379a000000000000000000000000000000000000000000000000000000000\n      dup2\n      mstore\n      0x04\n      add\n      dup1\n      dup1\n      0x20\n      add\n      dup3\n      dup2\n      sub\n      dup3\n      mstore\n      0x26\n      dup2\n      mstore\n      0x20\n      add\n      dup1\n      data_565f1a77334fc4792800921178c71e4521acffab18ff9e7885b49377ee80ab4c\n      0x26\n      swap2\n      codecopy\n      0x40\n      add\n      swap2\n      pop\n      pop\n      mload(0x40)\n      dup1\n      swap2\n      sub\n      swap1\n      revert\n    tag_194:\n        /* \"https://github.com/OmniDexFinance/helper/blob/master/%40openzeppelin/contracts/utils/Address.sol\":4858:4876  isContract(target) */\n      tag_195\n        /* \"https://github.com/OmniDexFinance/helper/blob/master/%40openzeppelin/contracts/utils/Address.sol\":4869:4875  target */\n      dup6\n        /* \"https://github.com/OmniDexFinance/helper/blob/master/%40openzeppelin/contracts/utils/Address.sol\":4858:4868  isContract */\n      tag_196\n        /* \"https://github.com/OmniDexFinance/helper/blob/master/%40openzeppelin/contracts/utils/Address.sol\":4858:4876  isContract(target) */\n      jump\t// in\n    tag_195:\n        /* \"https://github.com/OmniDexFinance/helper/blob/master/%40openzeppelin/contracts/utils/Address.sol\":4850:4910  require(isContract(target), \"Address: call to non-contract\") */\n      tag_197\n      jumpi\n      mload(0x40)\n      0x08c379a000000000000000000000000000000000000000000000000000000000\n      dup2\n      mstore\n      0x04\n      add\n      dup1\n      dup1\n      0x20\n      add\n      dup3\n      dup2\n      sub\n      dup3\n      mstore\n      0x1d\n      dup2\n      mstore\n      0x20\n      add\n      dup1\n      0x416464726573733a2063616c6c20746f206e6f6e2d636f6e7472616374000000\n      dup2\n      mstore\n      pop\n      0x20\n      add\n      swap2\n      pop\n      pop\n      mload(0x40)\n      dup1\n      swap2\n      sub\n      swap1\n      revert\n    tag_197:\n        /* \"https://github.com/OmniDexFinance/helper/blob/master/%40openzeppelin/contracts/utils/Address.sol\":4981:4993  bool success */\n      0x00\n        /* \"https://github.com/OmniDexFinance/helper/blob/master/%40openzeppelin/contracts/utils/Address.sol\":4995:5018  bytes memory returndata */\n      0x60\n        /* \"https://github.com/OmniDexFinance/helper/blob/master/%40openzeppelin/contracts/utils/Address.sol\":5022:5028  target */\n      dup7\n        /* \"https://github.com/OmniDexFinance/helper/blob/master/%40openzeppelin/contracts/utils/Address.sol\":5022:5033  target.call */\n      0xffffffffffffffffffffffffffffffffffffffff\n      and\n        /* \"https://github.com/OmniDexFinance/helper/blob/master/%40openzeppelin/contracts/utils/Address.sol\":5042:5047  value */\n      dup6\n        /* \"https://github.com/OmniDexFinance/helper/blob/master/%40openzeppelin/contracts/utils/Address.sol\":5050:5054  data */\n      dup8\n        /* \"https://github.com/OmniDexFinance/helper/blob/master/%40openzeppelin/contracts/utils/Address.sol\":5022:5055  target.call{ value: value }(data) */\n      mload(0x40)\n      dup1\n      dup3\n      dup1\n      mload\n      swap1\n      0x20\n      add\n      swap1\n      dup1\n      dup4\n      dup4\n    tag_198:\n      0x20\n      dup4\n      lt\n      tag_200\n      jumpi\n      dup1\n      mload\n      dup3\n      mstore\n      0x20\n      dup3\n      add\n      swap2\n      pop\n      0x20\n      dup2\n      add\n      swap1\n      pop\n      0x20\n      dup4\n      sub\n      swap3\n      pop\n      jump(tag_198)\n    tag_200:\n      0x01\n      dup4\n      0x20\n      sub\n      0x0100\n      exp\n      sub\n      dup1\n      not\n      dup3\n      mload\n      and\n      dup2\n      dup5\n      mload\n      and\n      dup1\n      dup3\n      or\n      dup6\n      mstore\n      pop\n      pop\n      pop\n      pop\n      pop\n      pop\n      swap1\n      pop\n      add\n      swap2\n      pop\n      pop\n      0x00\n      mload(0x40)\n      dup1\n      dup4\n      sub\n      dup2\n      dup6\n      dup8\n      gas\n      call\n      swap3\n      pop\n      pop\n      pop\n      returndatasize\n      dup1\n      0x00\n      dup2\n      eq\n      tag_203\n      jumpi\n      mload(0x40)\n      swap2\n      pop\n      and(add(returndatasize, 0x3f), not(0x1f))\n      dup3\n      add\n      0x40\n      mstore\n      returndatasize\n      dup3\n      mstore\n      returndatasize\n      0x00\n      0x20\n      dup5\n      add\n      returndatacopy\n      jump(tag_202)\n    tag_203:\n      0x60\n      swap2\n      pop\n    tag_202:\n      pop\n        /* \"https://github.com/OmniDexFinance/helper/blob/master/%40openzeppelin/contracts/utils/Address.sol\":4980:5055  (bool success, bytes memory returndata) = target.call{ value: value }(data) */\n      swap2\n      pop\n      swap2\n      pop\n        /* \"https://github.com/OmniDexFinance/helper/blob/master/%40openzeppelin/contracts/utils/Address.sol\":5072:5124  _verifyCallResult(success, returndata, errorMessage) */\n      tag_204\n        /* \"https://github.com/OmniDexFinance/helper/blob/master/%40openzeppelin/contracts/utils/Address.sol\":5090:5097  success */\n      dup3\n        /* \"https://github.com/OmniDexFinance/helper/blob/master/%40openzeppelin/contracts/utils/Address.sol\":5099:5109  returndata */\n      dup3\n        /* \"https://github.com/OmniDexFinance/helper/blob/master/%40openzeppelin/contracts/utils/Address.sol\":5111:5123  errorMessage */\n      dup7\n        /* \"https://github.com/OmniDexFinance/helper/blob/master/%40openzeppelin/contracts/utils/Address.sol\":5072:5089  _verifyCallResult */\n      tag_205\n        /* \"https://github.com/OmniDexFinance/helper/blob/master/%40openzeppelin/contracts/utils/Address.sol\":5072:5124  _verifyCallResult(success, returndata, errorMessage) */\n      jump\t// in\n    tag_204:\n        /* \"https://github.com/OmniDexFinance/helper/blob/master/%40openzeppelin/contracts/utils/Address.sol\":5065:5124  return _verifyCallResult(success, returndata, errorMessage) */\n      swap3\n      pop\n      pop\n      pop\n        /* \"https://github.com/OmniDexFinance/helper/blob/master/%40openzeppelin/contracts/utils/Address.sol\":4608:5131  function functionCallWithValue(address target, bytes memory data, uint256 value, string memory errorMessage) internal returns (bytes memory) {... */\n      swap5\n      swap4\n      pop\n      pop\n      pop\n      pop\n      jump\t// out\n        /* \"https://github.com/OmniDexFinance/helper/blob/master/%40openzeppelin/contracts/utils/Address.sol\":726:1139  function isContract(address account) internal view returns (bool) {... */\n    tag_196:\n        /* \"https://github.com/OmniDexFinance/helper/blob/master/%40openzeppelin/contracts/utils/Address.sol\":786:790  bool */\n      0x00\n        /* \"https://github.com/OmniDexFinance/helper/blob/master/%40openzeppelin/contracts/utils/Address.sol\":989:1001  uint256 size */\n      dup1\n        /* \"https://github.com/OmniDexFinance/helper/blob/master/%40openzeppelin/contracts/utils/Address.sol\":1098:1105  account */\n      dup3\n        /* \"https://github.com/OmniDexFinance/helper/blob/master/%40openzeppelin/contracts/utils/Address.sol\":1086:1106  extcodesize(account) */\n      extcodesize\n        /* \"https://github.com/OmniDexFinance/helper/blob/master/%40openzeppelin/contracts/utils/Address.sol\":1078:1106  size := extcodesize(account) */\n      swap1\n      pop\n        /* \"https://github.com/OmniDexFinance/helper/blob/master/%40openzeppelin/contracts/utils/Address.sol\":1131:1132  0 */\n      0x00\n        /* \"https://github.com/OmniDexFinance/helper/blob/master/%40openzeppelin/contracts/utils/Address.sol\":1124:1128  size */\n      dup2\n        /* \"https://github.com/OmniDexFinance/helper/blob/master/%40openzeppelin/contracts/utils/Address.sol\":1124:1132  size > 0 */\n      gt\n        /* \"https://github.com/OmniDexFinance/helper/blob/master/%40openzeppelin/contracts/utils/Address.sol\":1117:1132  return size > 0 */\n      swap2\n      pop\n      pop\n        /* \"https://github.com/OmniDexFinance/helper/blob/master/%40openzeppelin/contracts/utils/Address.sol\":726:1139  function isContract(address account) internal view returns (bool) {... */\n      swap2\n      swap1\n      pop\n      jump\t// out\n        /* \"https://github.com/OmniDexFinance/helper/blob/master/%40openzeppelin/contracts/utils/Address.sol\":7091:7816  function _verifyCallResult(bool success, bytes memory returndata, string memory errorMessage) private pure returns(bytes memory) {... */\n    tag_205:\n        /* \"https://github.com/OmniDexFinance/helper/blob/master/%40openzeppelin/contracts/utils/Address.sol\":7206:7218  bytes memory */\n      0x60\n        /* \"https://github.com/OmniDexFinance/helper/blob/master/%40openzeppelin/contracts/utils/Address.sol\":7234:7241  success */\n      dup4\n        /* \"https://github.com/OmniDexFinance/helper/blob/master/%40openzeppelin/contracts/utils/Address.sol\":7230:7810  if (success) {... */\n      iszero\n      tag_208\n      jumpi\n        /* \"https://github.com/OmniDexFinance/helper/blob/master/%40openzeppelin/contracts/utils/Address.sol\":7264:7274  returndata */\n      dup3\n        /* \"https://github.com/OmniDexFinance/helper/blob/master/%40openzeppelin/contracts/utils/Address.sol\":7257:7274  return returndata */\n      swap1\n      pop\n      jump(tag_207)\n        /* \"https://github.com/OmniDexFinance/helper/blob/master/%40openzeppelin/contracts/utils/Address.sol\":7230:7810  if (success) {... */\n    tag_208:\n        /* \"https://github.com/OmniDexFinance/helper/blob/master/%40openzeppelin/contracts/utils/Address.sol\":7395:7396  0 */\n      0x00\n        /* \"https://github.com/OmniDexFinance/helper/blob/master/%40openzeppelin/contracts/utils/Address.sol\":7375:7385  returndata */\n      dup4\n        /* \"https://github.com/OmniDexFinance/helper/blob/master/%40openzeppelin/contracts/utils/Address.sol\":7375:7392  returndata.length */\n      mload\n        /* \"https://github.com/OmniDexFinance/helper/blob/master/%40openzeppelin/contracts/utils/Address.sol\":7375:7396  returndata.length > 0 */\n      gt\n        /* \"https://github.com/OmniDexFinance/helper/blob/master/%40openzeppelin/contracts/utils/Address.sol\":7371:7800  if (returndata.length > 0) {... */\n      iszero\n      tag_210\n      jumpi\n        /* \"https://github.com/OmniDexFinance/helper/blob/master/%40openzeppelin/contracts/utils/Address.sol\":7633:7643  returndata */\n      dup3\n        /* \"https://github.com/OmniDexFinance/helper/blob/master/%40openzeppelin/contracts/utils/Address.sol\":7627:7644  mload(returndata) */\n      mload\n        /* \"https://github.com/OmniDexFinance/helper/blob/master/%40openzeppelin/contracts/utils/Address.sol\":7693:7708  returndata_size */\n      dup1\n        /* \"https://github.com/OmniDexFinance/helper/blob/master/%40openzeppelin/contracts/utils/Address.sol\":7680:7690  returndata */\n      dup5\n        /* \"https://github.com/OmniDexFinance/helper/blob/master/%40openzeppelin/contracts/utils/Address.sol\":7676:7678  32 */\n      0x20\n        /* \"https://github.com/OmniDexFinance/helper/blob/master/%40openzeppelin/contracts/utils/Address.sol\":7672:7691  add(32, returndata) */\n      add\n        /* \"https://github.com/OmniDexFinance/helper/blob/master/%40openzeppelin/contracts/utils/Address.sol\":7665:7709  revert(add(32, returndata), returndata_size) */\n      revert\n        /* \"https://github.com/OmniDexFinance/helper/blob/master/%40openzeppelin/contracts/utils/Address.sol\":7582:7727  {... */\n    tag_210:\n        /* \"https://github.com/OmniDexFinance/helper/blob/master/%40openzeppelin/contracts/utils/Address.sol\":7772:7784  errorMessage */\n      dup2\n        /* \"https://github.com/OmniDexFinance/helper/blob/master/%40openzeppelin/contracts/utils/Address.sol\":7765:7785  revert(errorMessage) */\n      mload(0x40)\n      0x08c379a000000000000000000000000000000000000000000000000000000000\n      dup2\n      mstore\n      0x04\n      add\n      dup1\n      dup1\n      0x20\n      add\n      dup3\n      dup2\n      sub\n      dup3\n      mstore\n      dup4\n      dup2\n      dup2\n      mload\n      dup2\n      mstore\n      0x20\n      add\n      swap2\n      pop\n      dup1\n      mload\n      swap1\n      0x20\n      add\n      swap1\n      dup1\n      dup4\n      dup4\n      0x00\n    tag_212:\n      dup4\n      dup2\n      lt\n      iszero\n      tag_214\n      jumpi\n      dup1\n      dup3\n      add\n      mload\n      dup2\n      dup5\n      add\n      mstore\n      0x20\n      dup2\n      add\n      swap1\n      pop\n      jump(tag_212)\n    tag_214:\n      pop\n      pop\n      pop\n      pop\n      swap1\n      pop\n      swap1\n      dup2\n      add\n      swap1\n      0x1f\n      and\n      dup1\n      iszero\n      tag_215\n      jumpi\n      dup1\n      dup3\n      sub\n      dup1\n      mload\n      0x01\n      dup4\n      0x20\n      sub\n      0x0100\n      exp\n      sub\n      not\n      and\n      dup2\n      mstore\n      0x20\n      add\n      swap2\n      pop\n    tag_215:\n      pop\n      swap3\n      pop\n      pop\n      pop\n      mload(0x40)\n      dup1\n      swap2\n      sub\n      swap1\n      revert\n        /* \"https://github.com/OmniDexFinance/helper/blob/master/%40openzeppelin/contracts/utils/Address.sol\":7091:7816  function _verifyCallResult(bool success, bytes memory returndata, string memory errorMessage) private pure returns(bytes memory) {... */\n    tag_207:\n      swap4\n      swap3\n      pop\n      pop\n      pop\n      jump\t// out\n    stop\n    data_2186895f526e488d7755616513a09664eedf819bfafe4f6fa94396f5afb14e38 496e73756666696369656e7420696e63656e746976657320617661696c61626c65\n    data_245f15ff17f551913a7a18385165551503906a406f905ac1c2437281a7cd0cfe 4f776e61626c653a206e6577206f776e657220697320746865207a65726f2061646472657373\n    data_565f1a77334fc4792800921178c71e4521acffab18ff9e7885b49377ee80ab4c 416464726573733a20696e73756666696369656e742062616c616e636520666f722063616c6c\n    data_bcc168664a3c14c72586057eda5ba29201ba9e86de7cd2fcc768efe9bd2f6ac9 546f6b656e2063616e6e6f742062652073616d6520617320696e63656e746976657320746f6b656e\n    data_e11ad79d1e4a7f2e5f376964cb99e8e8f7904e3fc16a109f7a7ecb9aa7956dcd 5361666545524332303a204552433230206f7065726174696f6e20646964206e6f742073756363656564\n    data_ef945ddb1bfdc0da870feb4560d868b047642b4ac7f2fb7f8b7c51cb4a411e25 5361666545524332303a20617070726f76652066726f6d206e6f6e2d7a65726f20746f206e6f6e2d7a65726f20616c6c6f77616e6365\n\n    auxdata: 0xa26469706673582212209e8d3b9c5968495f663085b31a831af62470be7523bc84b98eb76af87ddeddb164736f6c63430007050033\n}\n",
				"bytecode": {
					"linkReferences": {},
					"object": "60a06040523480156200001157600080fd5b50604051620029cf380380620029cf833981810160405260808110156200003757600080fd5b81019080805190602001909291908051906020019092919080519060200190929190805190602001909291905050506000620000786200024c60201b60201c565b9050806000806101000a81548173ffffffffffffffffffffffffffffffffffffffff021916908373ffffffffffffffffffffffffffffffffffffffff1602179055508073ffffffffffffffffffffffffffffffffffffffff16600073ffffffffffffffffffffffffffffffffffffffff167f8be0079c531659141344cd1fd0a4f28419497f9722a3daafe3b4186f6b6457e060405160405180910390a35060008060146101000a81548160ff0219169083151502179055508373ffffffffffffffffffffffffffffffffffffffff1660808173ffffffffffffffffffffffffffffffffffffffff1660601b8152505082600260006101000a81548173ffffffffffffffffffffffffffffffffffffffff021916908373ffffffffffffffffffffffffffffffffffffffff16021790555081600160006101000a81548173ffffffffffffffffffffffffffffffffffffffff021916908373ffffffffffffffffffffffffffffffffffffffff1602179055508060038190555062000242837fffffffffffffffffffffffffffffffffffffffffffffffffffffffffffffffff8673ffffffffffffffffffffffffffffffffffffffff166200025460201b62001715179092919060201c565b50505050620007e6565b600033905090565b600081148062000326575060008373ffffffffffffffffffffffffffffffffffffffff1663dd62ed3e30856040518363ffffffff1660e01b8152600401808373ffffffffffffffffffffffffffffffffffffffff1681526020018273ffffffffffffffffffffffffffffffffffffffff1681526020019250505060206040518083038186803b158015620002e757600080fd5b505afa158015620002fc573d6000803e3d6000fd5b505050506040513d60208110156200031357600080fd5b8101908080519060200190929190505050145b6200037d576040517f08c379a0000000000000000000000000000000000000000000000000000000008152600401808060200182810382526036815260200180620029996036913960400191505060405180910390fd5b620004228363095ea7b360e01b8484604051602401808373ffffffffffffffffffffffffffffffffffffffff16815260200182815260200192505050604051602081830303815290604052907bffffffffffffffffffffffffffffffffffffffffffffffffffffffff19166020820180517bffffffffffffffffffffffffffffffffffffffffffffffffffffffff83818316178352505050506200042760201b60201c565b505050565b606062000490826040518060400160405280602081526020017f5361666545524332303a206c6f772d6c6576656c2063616c6c206661696c65648152508573ffffffffffffffffffffffffffffffffffffffff166200052160201b620018da179092919060201c565b90506000815111156200051c57808060200190516020811015620004b357600080fd5b81019080805190602001909291905050506200051b576040517f08c379a000000000000000000000000000000000000000000000000000000000815260040180806020018281038252602a8152602001806200296f602a913960400191505060405180910390fd5b5b505050565b60606200053884846000856200054160201b60201c565b90509392505050565b6060824710156200059e576040517f08c379a0000000000000000000000000000000000000000000000000000000008152600401808060200182810382526026815260200180620029496026913960400191505060405180910390fd5b620005af856200070160201b60201c565b62000622576040517f08c379a000000000000000000000000000000000000000000000000000000000815260040180806020018281038252601d8152602001807f416464726573733a2063616c6c20746f206e6f6e2d636f6e747261637400000081525060200191505060405180910390fd5b600060608673ffffffffffffffffffffffffffffffffffffffff1685876040518082805190602001908083835b602083106200067457805182526020820191506020810190506020830392506200064f565b6001836020036101000a03801982511681845116808217855250505050505090500191505060006040518083038185875af1925050503d8060008114620006d8576040519150601f19603f3d011682016040523d82523d6000602084013e620006dd565b606091505b5091509150620006f58282866200071460201b60201c565b92505050949350505050565b600080823b905060008111915050919050565b606083156200072657829050620007df565b6000835111156200073a5782518084602001fd5b816040517f08c379a00000000000000000000000000000000000000000000000000000000081526004018080602001828103825283818151815260200191508051906020019080838360005b83811015620007a357808201518184015260208101905062000786565b50505050905090810190601f168015620007d15780820380516001836020036101000a031916815260200191505b509250505060405180910390fd5b9392505050565b60805160601c6121276200082260003980610aed5280610baf5280610e775280610fd252806114f9528061163452806116f352506121276000f3fe608060405234801561001057600080fd5b50600436106101215760003560e01c80638ef57f5e116100ad578063f059cf2b11610071578063f059cf2b14610314578063f2fde38b14610332578063f3fef3a314610376578063f851a440146103c4578063fc0c546a146103f857610121565b80638ef57f5e14610222578063a6895b5a14610256578063b20d30a914610274578063b6b55f25146102a2578063def68a9c146102d057610121565b8063704b6c02116100f4578063704b6c021461018c578063715018a6146101d05780638456cb59146101da578063853828b6146101e45780638da5cb5b146101ee57610121565b80633f4ba83a146101265780635c975abb1461013057806367eeba0c146101505780636b0c932d1461016e575b600080fd5b61012e61042c565b005b61013861059f565b60405180821515815260200191505060405180910390f35b6101586105b5565b6040518082815260200191505060405180910390f35b6101766105bb565b6040518082815260200191505060405180910390f35b6101ce600480360360208110156101a257600080fd5b81019080803573ffffffffffffffffffffffffffffffffffffffff1690602001909291905050506105c1565b005b6101d8610757565b005b6101e26108c4565b005b6101ec610a38565b005b6101f6610bf5565b604051808273ffffffffffffffffffffffffffffffffffffffff16815260200191505060405180910390f35b61022a610c1e565b604051808273ffffffffffffffffffffffffffffffffffffffff16815260200191505060405180910390f35b61025e610c44565b6040518082815260200191505060405180910390f35b6102a06004803603602081101561028a57600080fd5b8101908080359060200190929190505050610c4e565b005b6102ce600480360360208110156102b857600080fd5b8101908080359060200190929190505050610d7e565b005b610312600480360360208110156102e657600080fd5b81019080803573ffffffffffffffffffffffffffffffffffffffff169060200190929190505050610f0d565b005b61031c61114a565b6040518082815260200191505060405180910390f35b6103746004803603602081101561034857600080fd5b81019080803573ffffffffffffffffffffffffffffffffffffffff169060200190929190505050611150565b005b6103c26004803603604081101561038c57600080fd5b81019080803573ffffffffffffffffffffffffffffffffffffffff16906020019092919080359060200190929190505050611342565b005b6103cc6116cb565b604051808273ffffffffffffffffffffffffffffffffffffffff16815260200191505060405180910390f35b6104006116f1565b604051808273ffffffffffffffffffffffffffffffffffffffff16815260200191505060405180910390f35b600160009054906101000a900473ffffffffffffffffffffffffffffffffffffffff1673ffffffffffffffffffffffffffffffffffffffff163373ffffffffffffffffffffffffffffffffffffffff16146104ef576040517f08c379a00000000000000000000000000000000000000000000000000000000081526004018080602001828103825260148152602001807f4f6e6c792061646d696e207065726d697474656400000000000000000000000081525060200191505060405180910390fd5b6104f761059f565b610569576040517f08c379a00000000000000000000000000000000000000000000000000000000081526004018080602001828103825260148152602001807f5061757361626c653a206e6f742070617573656400000000000000000000000081525060200191505060405180910390fd5b6105716118f2565b7f7805862f689e2f13df9f062ff482ad3ad112aca9e0847911ed832e158c525b3360405160405180910390a1565b60008060149054906101000a900460ff16905090565b60035481565b60045481565b6105c96119dc565b73ffffffffffffffffffffffffffffffffffffffff166105e7610bf5565b73ffffffffffffffffffffffffffffffffffffffff1614610670576040517f08c379a00000000000000000000000000000000000000000000000000000000081526004018080602001828103825260208152602001807f4f776e61626c653a2063616c6c6572206973206e6f7420746865206f776e657281525060200191505060405180910390fd5b600073ffffffffffffffffffffffffffffffffffffffff168173ffffffffffffffffffffffffffffffffffffffff161415610713576040517f08c379a00000000000000000000000000000000000000000000000000000000081526004018080602001828103825260168152602001807f43616e6e6f74206265207a65726f20616464726573730000000000000000000081525060200191505060405180910390fd5b80600160006101000a81548173ffffffffffffffffffffffffffffffffffffffff021916908373ffffffffffffffffffffffffffffffffffffffff16021790555050565b61075f6119dc565b73ffffffffffffffffffffffffffffffffffffffff1661077d610bf5565b73ffffffffffffffffffffffffffffffffffffffff1614610806576040517f08c379a00000000000000000000000000000000000000000000000000000000081526004018080602001828103825260208152602001807f4f776e61626c653a2063616c6c6572206973206e6f7420746865206f776e657281525060200191505060405180910390fd5b600073ffffffffffffffffffffffffffffffffffffffff1660008054906101000a900473ffffffffffffffffffffffffffffffffffffffff1673ffffffffffffffffffffffffffffffffffffffff167f8be0079c531659141344cd1fd0a4f28419497f9722a3daafe3b4186f6b6457e060405160405180910390a360008060006101000a81548173ffffffffffffffffffffffffffffffffffffffff021916908373ffffffffffffffffffffffffffffffffffffffff160217905550565b600160009054906101000a900473ffffffffffffffffffffffffffffffffffffffff1673ffffffffffffffffffffffffffffffffffffffff163373ffffffffffffffffffffffffffffffffffffffff1614610987576040517f08c379a00000000000000000000000000000000000000000000000000000000081526004018080602001828103825260148152602001807f4f6e6c792061646d696e207065726d697474656400000000000000000000000081525060200191505060405180910390fd5b61098f61059f565b15610a02576040517f08c379a00000000000000000000000000000000000000000000000000000000081526004018080602001828103825260108152602001807f5061757361626c653a207061757365640000000000000000000000000000000081525060200191505060405180910390fd5b610a0a6119e4565b7f6985a02210a168e66602d3235cb6db0e70f92b3ba4d376a33c0f3d9434bff62560405160405180910390a1565b610a406119dc565b73ffffffffffffffffffffffffffffffffffffffff16610a5e610bf5565b73ffffffffffffffffffffffffffffffffffffffff1614610ae7576040517f08c379a00000000000000000000000000000000000000000000000000000000081526004018080602001828103825260208152602001807f4f776e61626c653a2063616c6c6572206973206e6f7420746865206f776e657281525060200191505060405180910390fd5b610bf3337f000000000000000000000000000000000000000000000000000000000000000073ffffffffffffffffffffffffffffffffffffffff166370a08231306040518263ffffffff1660e01b8152600401808273ffffffffffffffffffffffffffffffffffffffff16815260200191505060206040518083038186803b158015610b7257600080fd5b505afa158015610b86573d6000803e3d6000fd5b505050506040513d6020811015610b9c57600080fd5b81019080805190602001909291905050507f000000000000000000000000000000000000000000000000000000000000000073ffffffffffffffffffffffffffffffffffffffff16611ad09092919063ffffffff16565b565b60008060009054906101000a900473ffffffffffffffffffffffffffffffffffffffff16905090565b600260009054906101000a900473ffffffffffffffffffffffffffffffffffffffff1681565b6000600354905090565b610c566119dc565b73ffffffffffffffffffffffffffffffffffffffff16610c74610bf5565b73ffffffffffffffffffffffffffffffffffffffff1614610cfd576040517f08c379a00000000000000000000000000000000000000000000000000000000081526004018080602001828103825260208152602001807f4f776e61626c653a2063616c6c6572206973206e6f7420746865206f776e657281525060200191505060405180910390fd5b6000811015610d74576040517f08c379a00000000000000000000000000000000000000000000000000000000081526004018080602001828103825260198152602001807f43616e6e6f74206265206e65676174697665206e756d6265720000000000000081525060200191505060405180910390fd5b8060038190555050565b610d8661059f565b15610df9576040517f08c379a00000000000000000000000000000000000000000000000000000000081526004018080602001828103825260108152602001807f5061757361626c653a207061757365640000000000000000000000000000000081525060200191505060405180910390fd5b60008111610e6f576040517f08c379a00000000000000000000000000000000000000000000000000000000081526004018080602001828103825260128152602001807f4e6f7468696e6720746f206465706f736974000000000000000000000000000081525060200191505060405180910390fd5b610ebc3330837f000000000000000000000000000000000000000000000000000000000000000073ffffffffffffffffffffffffffffffffffffffff16611b72909392919063ffffffff16565b3373ffffffffffffffffffffffffffffffffffffffff167fe1fffcc4923d04b559f4d29a8bfc6cda04eb5b0d3c460751c2402c5c5cc9109c826040518082815260200191505060405180910390a250565b600160009054906101000a900473ffffffffffffffffffffffffffffffffffffffff1673ffffffffffffffffffffffffffffffffffffffff163373ffffffffffffffffffffffffffffffffffffffff1614610fd0576040517f08c379a00000000000000000000000000000000000000000000000000000000081526004018080602001828103825260148152602001807f4f6e6c792061646d696e207065726d697474656400000000000000000000000081525060200191505060405180910390fd5b7f000000000000000000000000000000000000000000000000000000000000000073ffffffffffffffffffffffffffffffffffffffff168173ffffffffffffffffffffffffffffffffffffffff161415611075576040517f08c379a000000000000000000000000000000000000000000000000000000000815260040180806020018281038252602881526020018061206a6028913960400191505060405180910390fd5b60008173ffffffffffffffffffffffffffffffffffffffff166370a08231306040518263ffffffff1660e01b8152600401808273ffffffffffffffffffffffffffffffffffffffff16815260200191505060206040518083038186803b1580156110de57600080fd5b505afa1580156110f2573d6000803e3d6000fd5b505050506040513d602081101561110857600080fd5b8101908080519060200190929190505050905061114633828473ffffffffffffffffffffffffffffffffffffffff16611ad09092919063ffffffff16565b5050565b60055481565b6111586119dc565b73ffffffffffffffffffffffffffffffffffffffff16611176610bf5565b73ffffffffffffffffffffffffffffffffffffffff16146111ff576040517f08c379a00000000000000000000000000000000000000000000000000000000081526004018080602001828103825260208152602001807f4f776e61626c653a2063616c6c6572206973206e6f7420746865206f776e657281525060200191505060405180910390fd5b600073ffffffffffffffffffffffffffffffffffffffff168173ffffffffffffffffffffffffffffffffffffffff161415611285576040517f08c379a000000000000000000000000000000000000000000000000000000000815260040180806020018281038252602681526020018061201e6026913960400191505060405180910390fd5b8073ffffffffffffffffffffffffffffffffffffffff1660008054906101000a900473ffffffffffffffffffffffffffffffffffffffff1673ffffffffffffffffffffffffffffffffffffffff167f8be0079c531659141344cd1fd0a4f28419497f9722a3daafe3b4186f6b6457e060405160405180910390a3806000806101000a81548173ffffffffffffffffffffffffffffffffffffffff021916908373ffffffffffffffffffffffffffffffffffffffff16021790555050565b61134a61059f565b156113bd576040517f08c379a00000000000000000000000000000000000000000000000000000000081526004018080602001828103825260108152602001807f5061757361626c653a207061757365640000000000000000000000000000000081525060200191505060405180910390fd5b600260009054906101000a900473ffffffffffffffffffffffffffffffffffffffff1673ffffffffffffffffffffffffffffffffffffffff163373ffffffffffffffffffffffffffffffffffffffff1614611480576040517f08c379a00000000000000000000000000000000000000000000000000000000081526004018080602001828103825260198152602001807f4e6f7420616e20617574686f7269736564207370656e6465720000000000000081525060200191505060405180910390fd5b600081116114f6576040517f08c379a00000000000000000000000000000000000000000000000000000000081526004018080602001828103825260138152602001807f4e6f7468696e6720746f2077697468647261770000000000000000000000000081525060200191505060405180910390fd5b807f000000000000000000000000000000000000000000000000000000000000000073ffffffffffffffffffffffffffffffffffffffff166370a08231306040518263ffffffff1660e01b8152600401808273ffffffffffffffffffffffffffffffffffffffff16815260200191505060206040518083038186803b15801561157e57600080fd5b505afa158015611592573d6000803e3d6000fd5b505050506040513d60208110156115a857600080fd5b81019080805190602001909291905050501161160f576040517f08c379a0000000000000000000000000000000000000000000000000000000008152600401808060200182810382526021815260200180611ffd6021913960400191505060405180910390fd5b61161881611c33565b15611679578060056000828254019250508190555061167882827f000000000000000000000000000000000000000000000000000000000000000073ffffffffffffffffffffffffffffffffffffffff16611ad09092919063ffffffff16565b5b8173ffffffffffffffffffffffffffffffffffffffff167f884edad9ce6fa2440d8a54cc123490eb96d2768479d49ff9c7366125a9424364826040518082815260200191505060405180910390a25050565b600160009054906101000a900473ffffffffffffffffffffffffffffffffffffffff1681565b7f000000000000000000000000000000000000000000000000000000000000000081565b60008114806117e3575060008373ffffffffffffffffffffffffffffffffffffffff1663dd62ed3e30856040518363ffffffff1660e01b8152600401808373ffffffffffffffffffffffffffffffffffffffff1681526020018273ffffffffffffffffffffffffffffffffffffffff1681526020019250505060206040518083038186803b1580156117a657600080fd5b505afa1580156117ba573d6000803e3d6000fd5b505050506040513d60208110156117d057600080fd5b8101908080519060200190929190505050145b611838576040517f08c379a00000000000000000000000000000000000000000000000000000000081526004018080602001828103825260368152602001806120bc6036913960400191505060405180910390fd5b6118d58363095ea7b360e01b8484604051602401808373ffffffffffffffffffffffffffffffffffffffff16815260200182815260200192505050604051602081830303815290604052907bffffffffffffffffffffffffffffffffffffffffffffffffffffffff19166020820180517bffffffffffffffffffffffffffffffffffffffffffffffffffffffff8381831617835250505050611c85565b505050565b60606118e98484600085611d74565b90509392505050565b6118fa61059f565b61196c576040517f08c379a00000000000000000000000000000000000000000000000000000000081526004018080602001828103825260148152602001807f5061757361626c653a206e6f742070617573656400000000000000000000000081525060200191505060405180910390fd5b60008060146101000a81548160ff0219169083151502179055507f5db9ee0a495bf2e6ff9c91a7834c1ba4fdd244a5e8aa4e537bd38aeae4b073aa6119af6119dc565b604051808273ffffffffffffffffffffffffffffffffffffffff16815260200191505060405180910390a1565b600033905090565b6119ec61059f565b15611a5f576040517f08c379a00000000000000000000000000000000000000000000000000000000081526004018080602001828103825260108152602001807f5061757361626c653a207061757365640000000000000000000000000000000081525060200191505060405180910390fd5b6001600060146101000a81548160ff0219169083151502179055507f62e78cea01bee320cd4e420270b5ea74000d11b0c9f74754ebdbfc544b05a258611aa36119dc565b604051808273ffffffffffffffffffffffffffffffffffffffff16815260200191505060405180910390a1565b611b6d8363a9059cbb60e01b8484604051602401808373ffffffffffffffffffffffffffffffffffffffff16815260200182815260200192505050604051602081830303815290604052907bffffffffffffffffffffffffffffffffffffffffffffffffffffffff19166020820180517bffffffffffffffffffffffffffffffffffffffffffffffffffffffff8381831617835250505050611c85565b505050565b611c2d846323b872dd60e01b858585604051602401808473ffffffffffffffffffffffffffffffffffffffff1681526020018373ffffffffffffffffffffffffffffffffffffffff1681526020018281526020019350505050604051602081830303815290604052907bffffffffffffffffffffffffffffffffffffffffffffffffffffffff19166020820180517bffffffffffffffffffffffffffffffffffffffffffffffffffffffff8381831617835250505050611c85565b50505050565b60006201518060045401421115611c54574260048190555060006005819055505b60035482600554011180611c6d57506005548260055401105b15611c7b5760009050611c80565b600190505b919050565b6060611ce7826040518060400160405280602081526020017f5361666545524332303a206c6f772d6c6576656c2063616c6c206661696c65648152508573ffffffffffffffffffffffffffffffffffffffff166118da9092919063ffffffff16565b9050600081511115611d6f57808060200190516020811015611d0857600080fd5b8101908080519060200190929190505050611d6e576040517f08c379a000000000000000000000000000000000000000000000000000000000815260040180806020018281038252602a815260200180612092602a913960400191505060405180910390fd5b5b505050565b606082471015611dcf576040517f08c379a00000000000000000000000000000000000000000000000000000000081526004018080602001828103825260268152602001806120446026913960400191505060405180910390fd5b611dd885611f1d565b611e4a576040517f08c379a000000000000000000000000000000000000000000000000000000000815260040180806020018281038252601d8152602001807f416464726573733a2063616c6c20746f206e6f6e2d636f6e747261637400000081525060200191505060405180910390fd5b600060608673ffffffffffffffffffffffffffffffffffffffff1685876040518082805190602001908083835b60208310611e9a5780518252602082019150602081019050602083039250611e77565b6001836020036101000a03801982511681845116808217855250505050505090500191505060006040518083038185875af1925050503d8060008114611efc576040519150601f19603f3d011682016040523d82523d6000602084013e611f01565b606091505b5091509150611f11828286611f30565b92505050949350505050565b600080823b905060008111915050919050565b60608315611f4057829050611ff5565b600083511115611f535782518084602001fd5b816040517f08c379a00000000000000000000000000000000000000000000000000000000081526004018080602001828103825283818151815260200191508051906020019080838360005b83811015611fba578082015181840152602081019050611f9f565b50505050905090810190601f168015611fe75780820380516001836020036101000a031916815260200191505b509250505060405180910390fd5b939250505056fe496e73756666696369656e7420696e63656e746976657320617661696c61626c654f776e61626c653a206e6577206f776e657220697320746865207a65726f2061646472657373416464726573733a20696e73756666696369656e742062616c616e636520666f722063616c6c546f6b656e2063616e6e6f742062652073616d6520617320696e63656e746976657320746f6b656e5361666545524332303a204552433230206f7065726174696f6e20646964206e6f7420737563636565645361666545524332303a20617070726f76652066726f6d206e6f6e2d7a65726f20746f206e6f6e2d7a65726f20616c6c6f77616e6365a26469706673582212209e8d3b9c5968495f663085b31a831af62470be7523bc84b98eb76af87ddeddb164736f6c63430007050033416464726573733a20696e73756666696369656e742062616c616e636520666f722063616c6c5361666545524332303a204552433230206f7065726174696f6e20646964206e6f7420737563636565645361666545524332303a20617070726f76652066726f6d206e6f6e2d7a65726f20746f206e6f6e2d7a65726f20616c6c6f77616e6365",
					"opcodes": "PUSH1 0xA0 PUSH1 0x40 MSTORE CALLVALUE DUP1 ISZERO PUSH3 0x11 JUMPI PUSH1 0x0 DUP1 REVERT JUMPDEST POP PUSH1 0x40 MLOAD PUSH3 0x29CF CODESIZE SUB DUP1 PUSH3 0x29CF DUP4 CODECOPY DUP2 DUP2 ADD PUSH1 0x40 MSTORE PUSH1 0x80 DUP2 LT ISZERO PUSH3 0x37 JUMPI PUSH1 0x0 DUP1 REVERT JUMPDEST DUP2 ADD SWAP1 DUP1 DUP1 MLOAD SWAP1 PUSH1 0x20 ADD SWAP1 SWAP3 SWAP2 SWAP1 DUP1 MLOAD SWAP1 PUSH1 0x20 ADD SWAP1 SWAP3 SWAP2 SWAP1 DUP1 MLOAD SWAP1 PUSH1 0x20 ADD SWAP1 SWAP3 SWAP2 SWAP1 DUP1 MLOAD SWAP1 PUSH1 0x20 ADD SWAP1 SWAP3 SWAP2 SWAP1 POP POP POP PUSH1 0x0 PUSH3 0x78 PUSH3 0x24C PUSH1 0x20 SHL PUSH1 0x20 SHR JUMP JUMPDEST SWAP1 POP DUP1 PUSH1 0x0 DUP1 PUSH2 0x100 EXP DUP2 SLOAD DUP2 PUSH20 0xFFFFFFFFFFFFFFFFFFFFFFFFFFFFFFFFFFFFFFFF MUL NOT AND SWAP1 DUP4 PUSH20 0xFFFFFFFFFFFFFFFFFFFFFFFFFFFFFFFFFFFFFFFF AND MUL OR SWAP1 SSTORE POP DUP1 PUSH20 0xFFFFFFFFFFFFFFFFFFFFFFFFFFFFFFFFFFFFFFFF AND PUSH1 0x0 PUSH20 0xFFFFFFFFFFFFFFFFFFFFFFFFFFFFFFFFFFFFFFFF AND PUSH32 0x8BE0079C531659141344CD1FD0A4F28419497F9722A3DAAFE3B4186F6B6457E0 PUSH1 0x40 MLOAD PUSH1 0x40 MLOAD DUP1 SWAP2 SUB SWAP1 LOG3 POP PUSH1 0x0 DUP1 PUSH1 0x14 PUSH2 0x100 EXP DUP2 SLOAD DUP2 PUSH1 0xFF MUL NOT AND SWAP1 DUP4 ISZERO ISZERO MUL OR SWAP1 SSTORE POP DUP4 PUSH20 0xFFFFFFFFFFFFFFFFFFFFFFFFFFFFFFFFFFFFFFFF AND PUSH1 0x80 DUP2 PUSH20 0xFFFFFFFFFFFFFFFFFFFFFFFFFFFFFFFFFFFFFFFF AND PUSH1 0x60 SHL DUP2 MSTORE POP POP DUP3 PUSH1 0x2 PUSH1 0x0 PUSH2 0x100 EXP DUP2 SLOAD DUP2 PUSH20 0xFFFFFFFFFFFFFFFFFFFFFFFFFFFFFFFFFFFFFFFF MUL NOT AND SWAP1 DUP4 PUSH20 0xFFFFFFFFFFFFFFFFFFFFFFFFFFFFFFFFFFFFFFFF AND MUL OR SWAP1 SSTORE POP DUP2 PUSH1 0x1 PUSH1 0x0 PUSH2 0x100 EXP DUP2 SLOAD DUP2 PUSH20 0xFFFFFFFFFFFFFFFFFFFFFFFFFFFFFFFFFFFFFFFF MUL NOT AND SWAP1 DUP4 PUSH20 0xFFFFFFFFFFFFFFFFFFFFFFFFFFFFFFFFFFFFFFFF AND MUL OR SWAP1 SSTORE POP DUP1 PUSH1 0x3 DUP2 SWAP1 SSTORE POP PUSH3 0x242 DUP4 PUSH32 0xFFFFFFFFFFFFFFFFFFFFFFFFFFFFFFFFFFFFFFFFFFFFFFFFFFFFFFFFFFFFFFFF DUP7 PUSH20 0xFFFFFFFFFFFFFFFFFFFFFFFFFFFFFFFFFFFFFFFF AND PUSH3 0x254 PUSH1 0x20 SHL PUSH3 0x1715 OR SWAP1 SWAP3 SWAP2 SWAP1 PUSH1 0x20 SHR JUMP JUMPDEST POP POP POP POP PUSH3 0x7E6 JUMP JUMPDEST PUSH1 0x0 CALLER SWAP1 POP SWAP1 JUMP JUMPDEST PUSH1 0x0 DUP2 EQ DUP1 PUSH3 0x326 JUMPI POP PUSH1 0x0 DUP4 PUSH20 0xFFFFFFFFFFFFFFFFFFFFFFFFFFFFFFFFFFFFFFFF AND PUSH4 0xDD62ED3E ADDRESS DUP6 PUSH1 0x40 MLOAD DUP4 PUSH4 0xFFFFFFFF AND PUSH1 0xE0 SHL DUP2 MSTORE PUSH1 0x4 ADD DUP1 DUP4 PUSH20 0xFFFFFFFFFFFFFFFFFFFFFFFFFFFFFFFFFFFFFFFF AND DUP2 MSTORE PUSH1 0x20 ADD DUP3 PUSH20 0xFFFFFFFFFFFFFFFFFFFFFFFFFFFFFFFFFFFFFFFF AND DUP2 MSTORE PUSH1 0x20 ADD SWAP3 POP POP POP PUSH1 0x20 PUSH1 0x40 MLOAD DUP1 DUP4 SUB DUP2 DUP7 DUP1 EXTCODESIZE ISZERO DUP1 ISZERO PUSH3 0x2E7 JUMPI PUSH1 0x0 DUP1 REVERT JUMPDEST POP GAS STATICCALL ISZERO DUP1 ISZERO PUSH3 0x2FC JUMPI RETURNDATASIZE PUSH1 0x0 DUP1 RETURNDATACOPY RETURNDATASIZE PUSH1 0x0 REVERT JUMPDEST POP POP POP POP PUSH1 0x40 MLOAD RETURNDATASIZE PUSH1 0x20 DUP2 LT ISZERO PUSH3 0x313 JUMPI PUSH1 0x0 DUP1 REVERT JUMPDEST DUP2 ADD SWAP1 DUP1 DUP1 MLOAD SWAP1 PUSH1 0x20 ADD SWAP1 SWAP3 SWAP2 SWAP1 POP POP POP EQ JUMPDEST PUSH3 0x37D JUMPI PUSH1 0x40 MLOAD PUSH32 0x8C379A000000000000000000000000000000000000000000000000000000000 DUP2 MSTORE PUSH1 0x4 ADD DUP1 DUP1 PUSH1 0x20 ADD DUP3 DUP2 SUB DUP3 MSTORE PUSH1 0x36 DUP2 MSTORE PUSH1 0x20 ADD DUP1 PUSH3 0x2999 PUSH1 0x36 SWAP2 CODECOPY PUSH1 0x40 ADD SWAP2 POP POP PUSH1 0x40 MLOAD DUP1 SWAP2 SUB SWAP1 REVERT JUMPDEST PUSH3 0x422 DUP4 PUSH4 0x95EA7B3 PUSH1 0xE0 SHL DUP5 DUP5 PUSH1 0x40 MLOAD PUSH1 0x24 ADD DUP1 DUP4 PUSH20 0xFFFFFFFFFFFFFFFFFFFFFFFFFFFFFFFFFFFFFFFF AND DUP2 MSTORE PUSH1 0x20 ADD DUP3 DUP2 MSTORE PUSH1 0x20 ADD SWAP3 POP POP POP PUSH1 0x40 MLOAD PUSH1 0x20 DUP2 DUP4 SUB SUB DUP2 MSTORE SWAP1 PUSH1 0x40 MSTORE SWAP1 PUSH28 0xFFFFFFFFFFFFFFFFFFFFFFFFFFFFFFFFFFFFFFFFFFFFFFFFFFFFFFFF NOT AND PUSH1 0x20 DUP3 ADD DUP1 MLOAD PUSH28 0xFFFFFFFFFFFFFFFFFFFFFFFFFFFFFFFFFFFFFFFFFFFFFFFFFFFFFFFF DUP4 DUP2 DUP4 AND OR DUP4 MSTORE POP POP POP POP PUSH3 0x427 PUSH1 0x20 SHL PUSH1 0x20 SHR JUMP JUMPDEST POP POP POP JUMP JUMPDEST PUSH1 0x60 PUSH3 0x490 DUP3 PUSH1 0x40 MLOAD DUP1 PUSH1 0x40 ADD PUSH1 0x40 MSTORE DUP1 PUSH1 0x20 DUP2 MSTORE PUSH1 0x20 ADD PUSH32 0x5361666545524332303A206C6F772D6C6576656C2063616C6C206661696C6564 DUP2 MSTORE POP DUP6 PUSH20 0xFFFFFFFFFFFFFFFFFFFFFFFFFFFFFFFFFFFFFFFF AND PUSH3 0x521 PUSH1 0x20 SHL PUSH3 0x18DA OR SWAP1 SWAP3 SWAP2 SWAP1 PUSH1 0x20 SHR JUMP JUMPDEST SWAP1 POP PUSH1 0x0 DUP2 MLOAD GT ISZERO PUSH3 0x51C JUMPI DUP1 DUP1 PUSH1 0x20 ADD SWAP1 MLOAD PUSH1 0x20 DUP2 LT ISZERO PUSH3 0x4B3 JUMPI PUSH1 0x0 DUP1 REVERT JUMPDEST DUP2 ADD SWAP1 DUP1 DUP1 MLOAD SWAP1 PUSH1 0x20 ADD SWAP1 SWAP3 SWAP2 SWAP1 POP POP POP PUSH3 0x51B JUMPI PUSH1 0x40 MLOAD PUSH32 0x8C379A000000000000000000000000000000000000000000000000000000000 DUP2 MSTORE PUSH1 0x4 ADD DUP1 DUP1 PUSH1 0x20 ADD DUP3 DUP2 SUB DUP3 MSTORE PUSH1 0x2A DUP2 MSTORE PUSH1 0x20 ADD DUP1 PUSH3 0x296F PUSH1 0x2A SWAP2 CODECOPY PUSH1 0x40 ADD SWAP2 POP POP PUSH1 0x40 MLOAD DUP1 SWAP2 SUB SWAP1 REVERT JUMPDEST JUMPDEST POP POP POP JUMP JUMPDEST PUSH1 0x60 PUSH3 0x538 DUP5 DUP5 PUSH1 0x0 DUP6 PUSH3 0x541 PUSH1 0x20 SHL PUSH1 0x20 SHR JUMP JUMPDEST SWAP1 POP SWAP4 SWAP3 POP POP POP JUMP JUMPDEST PUSH1 0x60 DUP3 SELFBALANCE LT ISZERO PUSH3 0x59E JUMPI PUSH1 0x40 MLOAD PUSH32 0x8C379A000000000000000000000000000000000000000000000000000000000 DUP2 MSTORE PUSH1 0x4 ADD DUP1 DUP1 PUSH1 0x20 ADD DUP3 DUP2 SUB DUP3 MSTORE PUSH1 0x26 DUP2 MSTORE PUSH1 0x20 ADD DUP1 PUSH3 0x2949 PUSH1 0x26 SWAP2 CODECOPY PUSH1 0x40 ADD SWAP2 POP POP PUSH1 0x40 MLOAD DUP1 SWAP2 SUB SWAP1 REVERT JUMPDEST PUSH3 0x5AF DUP6 PUSH3 0x701 PUSH1 0x20 SHL PUSH1 0x20 SHR JUMP JUMPDEST PUSH3 0x622 JUMPI PUSH1 0x40 MLOAD PUSH32 0x8C379A000000000000000000000000000000000000000000000000000000000 DUP2 MSTORE PUSH1 0x4 ADD DUP1 DUP1 PUSH1 0x20 ADD DUP3 DUP2 SUB DUP3 MSTORE PUSH1 0x1D DUP2 MSTORE PUSH1 0x20 ADD DUP1 PUSH32 0x416464726573733A2063616C6C20746F206E6F6E2D636F6E7472616374000000 DUP2 MSTORE POP PUSH1 0x20 ADD SWAP2 POP POP PUSH1 0x40 MLOAD DUP1 SWAP2 SUB SWAP1 REVERT JUMPDEST PUSH1 0x0 PUSH1 0x60 DUP7 PUSH20 0xFFFFFFFFFFFFFFFFFFFFFFFFFFFFFFFFFFFFFFFF AND DUP6 DUP8 PUSH1 0x40 MLOAD DUP1 DUP3 DUP1 MLOAD SWAP1 PUSH1 0x20 ADD SWAP1 DUP1 DUP4 DUP4 JUMPDEST PUSH1 0x20 DUP4 LT PUSH3 0x674 JUMPI DUP1 MLOAD DUP3 MSTORE PUSH1 0x20 DUP3 ADD SWAP2 POP PUSH1 0x20 DUP2 ADD SWAP1 POP PUSH1 0x20 DUP4 SUB SWAP3 POP PUSH3 0x64F JUMP JUMPDEST PUSH1 0x1 DUP4 PUSH1 0x20 SUB PUSH2 0x100 EXP SUB DUP1 NOT DUP3 MLOAD AND DUP2 DUP5 MLOAD AND DUP1 DUP3 OR DUP6 MSTORE POP POP POP POP POP POP SWAP1 POP ADD SWAP2 POP POP PUSH1 0x0 PUSH1 0x40 MLOAD DUP1 DUP4 SUB DUP2 DUP6 DUP8 GAS CALL SWAP3 POP POP POP RETURNDATASIZE DUP1 PUSH1 0x0 DUP2 EQ PUSH3 0x6D8 JUMPI PUSH1 0x40 MLOAD SWAP2 POP PUSH1 0x1F NOT PUSH1 0x3F RETURNDATASIZE ADD AND DUP3 ADD PUSH1 0x40 MSTORE RETURNDATASIZE DUP3 MSTORE RETURNDATASIZE PUSH1 0x0 PUSH1 0x20 DUP5 ADD RETURNDATACOPY PUSH3 0x6DD JUMP JUMPDEST PUSH1 0x60 SWAP2 POP JUMPDEST POP SWAP2 POP SWAP2 POP PUSH3 0x6F5 DUP3 DUP3 DUP7 PUSH3 0x714 PUSH1 0x20 SHL PUSH1 0x20 SHR JUMP JUMPDEST SWAP3 POP POP POP SWAP5 SWAP4 POP POP POP POP JUMP JUMPDEST PUSH1 0x0 DUP1 DUP3 EXTCODESIZE SWAP1 POP PUSH1 0x0 DUP2 GT SWAP2 POP POP SWAP2 SWAP1 POP JUMP JUMPDEST PUSH1 0x60 DUP4 ISZERO PUSH3 0x726 JUMPI DUP3 SWAP1 POP PUSH3 0x7DF JUMP JUMPDEST PUSH1 0x0 DUP4 MLOAD GT ISZERO PUSH3 0x73A JUMPI DUP3 MLOAD DUP1 DUP5 PUSH1 0x20 ADD REVERT JUMPDEST DUP2 PUSH1 0x40 MLOAD PUSH32 0x8C379A000000000000000000000000000000000000000000000000000000000 DUP2 MSTORE PUSH1 0x4 ADD DUP1 DUP1 PUSH1 0x20 ADD DUP3 DUP2 SUB DUP3 MSTORE DUP4 DUP2 DUP2 MLOAD DUP2 MSTORE PUSH1 0x20 ADD SWAP2 POP DUP1 MLOAD SWAP1 PUSH1 0x20 ADD SWAP1 DUP1 DUP4 DUP4 PUSH1 0x0 JUMPDEST DUP4 DUP2 LT ISZERO PUSH3 0x7A3 JUMPI DUP1 DUP3 ADD MLOAD DUP2 DUP5 ADD MSTORE PUSH1 0x20 DUP2 ADD SWAP1 POP PUSH3 0x786 JUMP JUMPDEST POP POP POP POP SWAP1 POP SWAP1 DUP2 ADD SWAP1 PUSH1 0x1F AND DUP1 ISZERO PUSH3 0x7D1 JUMPI DUP1 DUP3 SUB DUP1 MLOAD PUSH1 0x1 DUP4 PUSH1 0x20 SUB PUSH2 0x100 EXP SUB NOT AND DUP2 MSTORE PUSH1 0x20 ADD SWAP2 POP JUMPDEST POP SWAP3 POP POP POP PUSH1 0x40 MLOAD DUP1 SWAP2 SUB SWAP1 REVERT JUMPDEST SWAP4 SWAP3 POP POP POP JUMP JUMPDEST PUSH1 0x80 MLOAD PUSH1 0x60 SHR PUSH2 0x2127 PUSH3 0x822 PUSH1 0x0 CODECOPY DUP1 PUSH2 0xAED MSTORE DUP1 PUSH2 0xBAF MSTORE DUP1 PUSH2 0xE77 MSTORE DUP1 PUSH2 0xFD2 MSTORE DUP1 PUSH2 0x14F9 MSTORE DUP1 PUSH2 0x1634 MSTORE DUP1 PUSH2 0x16F3 MSTORE POP PUSH2 0x2127 PUSH1 0x0 RETURN INVALID PUSH1 0x80 PUSH1 0x40 MSTORE CALLVALUE DUP1 ISZERO PUSH2 0x10 JUMPI PUSH1 0x0 DUP1 REVERT JUMPDEST POP PUSH1 0x4 CALLDATASIZE LT PUSH2 0x121 JUMPI PUSH1 0x0 CALLDATALOAD PUSH1 0xE0 SHR DUP1 PUSH4 0x8EF57F5E GT PUSH2 0xAD JUMPI DUP1 PUSH4 0xF059CF2B GT PUSH2 0x71 JUMPI DUP1 PUSH4 0xF059CF2B EQ PUSH2 0x314 JUMPI DUP1 PUSH4 0xF2FDE38B EQ PUSH2 0x332 JUMPI DUP1 PUSH4 0xF3FEF3A3 EQ PUSH2 0x376 JUMPI DUP1 PUSH4 0xF851A440 EQ PUSH2 0x3C4 JUMPI DUP1 PUSH4 0xFC0C546A EQ PUSH2 0x3F8 JUMPI PUSH2 0x121 JUMP JUMPDEST DUP1 PUSH4 0x8EF57F5E EQ PUSH2 0x222 JUMPI DUP1 PUSH4 0xA6895B5A EQ PUSH2 0x256 JUMPI DUP1 PUSH4 0xB20D30A9 EQ PUSH2 0x274 JUMPI DUP1 PUSH4 0xB6B55F25 EQ PUSH2 0x2A2 JUMPI DUP1 PUSH4 0xDEF68A9C EQ PUSH2 0x2D0 JUMPI PUSH2 0x121 JUMP JUMPDEST DUP1 PUSH4 0x704B6C02 GT PUSH2 0xF4 JUMPI DUP1 PUSH4 0x704B6C02 EQ PUSH2 0x18C JUMPI DUP1 PUSH4 0x715018A6 EQ PUSH2 0x1D0 JUMPI DUP1 PUSH4 0x8456CB59 EQ PUSH2 0x1DA JUMPI DUP1 PUSH4 0x853828B6 EQ PUSH2 0x1E4 JUMPI DUP1 PUSH4 0x8DA5CB5B EQ PUSH2 0x1EE JUMPI PUSH2 0x121 JUMP JUMPDEST DUP1 PUSH4 0x3F4BA83A EQ PUSH2 0x126 JUMPI DUP1 PUSH4 0x5C975ABB EQ PUSH2 0x130 JUMPI DUP1 PUSH4 0x67EEBA0C EQ PUSH2 0x150 JUMPI DUP1 PUSH4 0x6B0C932D EQ PUSH2 0x16E JUMPI JUMPDEST PUSH1 0x0 DUP1 REVERT JUMPDEST PUSH2 0x12E PUSH2 0x42C JUMP JUMPDEST STOP JUMPDEST PUSH2 0x138 PUSH2 0x59F JUMP JUMPDEST PUSH1 0x40 MLOAD DUP1 DUP3 ISZERO ISZERO DUP2 MSTORE PUSH1 0x20 ADD SWAP2 POP POP PUSH1 0x40 MLOAD DUP1 SWAP2 SUB SWAP1 RETURN JUMPDEST PUSH2 0x158 PUSH2 0x5B5 JUMP JUMPDEST PUSH1 0x40 MLOAD DUP1 DUP3 DUP2 MSTORE PUSH1 0x20 ADD SWAP2 POP POP PUSH1 0x40 MLOAD DUP1 SWAP2 SUB SWAP1 RETURN JUMPDEST PUSH2 0x176 PUSH2 0x5BB JUMP JUMPDEST PUSH1 0x40 MLOAD DUP1 DUP3 DUP2 MSTORE PUSH1 0x20 ADD SWAP2 POP POP PUSH1 0x40 MLOAD DUP1 SWAP2 SUB SWAP1 RETURN JUMPDEST PUSH2 0x1CE PUSH1 0x4 DUP1 CALLDATASIZE SUB PUSH1 0x20 DUP2 LT ISZERO PUSH2 0x1A2 JUMPI PUSH1 0x0 DUP1 REVERT JUMPDEST DUP2 ADD SWAP1 DUP1 DUP1 CALLDATALOAD PUSH20 0xFFFFFFFFFFFFFFFFFFFFFFFFFFFFFFFFFFFFFFFF AND SWAP1 PUSH1 0x20 ADD SWAP1 SWAP3 SWAP2 SWAP1 POP POP POP PUSH2 0x5C1 JUMP JUMPDEST STOP JUMPDEST PUSH2 0x1D8 PUSH2 0x757 JUMP JUMPDEST STOP JUMPDEST PUSH2 0x1E2 PUSH2 0x8C4 JUMP JUMPDEST STOP JUMPDEST PUSH2 0x1EC PUSH2 0xA38 JUMP JUMPDEST STOP JUMPDEST PUSH2 0x1F6 PUSH2 0xBF5 JUMP JUMPDEST PUSH1 0x40 MLOAD DUP1 DUP3 PUSH20 0xFFFFFFFFFFFFFFFFFFFFFFFFFFFFFFFFFFFFFFFF AND DUP2 MSTORE PUSH1 0x20 ADD SWAP2 POP POP PUSH1 0x40 MLOAD DUP1 SWAP2 SUB SWAP1 RETURN JUMPDEST PUSH2 0x22A PUSH2 0xC1E JUMP JUMPDEST PUSH1 0x40 MLOAD DUP1 DUP3 PUSH20 0xFFFFFFFFFFFFFFFFFFFFFFFFFFFFFFFFFFFFFFFF AND DUP2 MSTORE PUSH1 0x20 ADD SWAP2 POP POP PUSH1 0x40 MLOAD DUP1 SWAP2 SUB SWAP1 RETURN JUMPDEST PUSH2 0x25E PUSH2 0xC44 JUMP JUMPDEST PUSH1 0x40 MLOAD DUP1 DUP3 DUP2 MSTORE PUSH1 0x20 ADD SWAP2 POP POP PUSH1 0x40 MLOAD DUP1 SWAP2 SUB SWAP1 RETURN JUMPDEST PUSH2 0x2A0 PUSH1 0x4 DUP1 CALLDATASIZE SUB PUSH1 0x20 DUP2 LT ISZERO PUSH2 0x28A JUMPI PUSH1 0x0 DUP1 REVERT JUMPDEST DUP2 ADD SWAP1 DUP1 DUP1 CALLDATALOAD SWAP1 PUSH1 0x20 ADD SWAP1 SWAP3 SWAP2 SWAP1 POP POP POP PUSH2 0xC4E JUMP JUMPDEST STOP JUMPDEST PUSH2 0x2CE PUSH1 0x4 DUP1 CALLDATASIZE SUB PUSH1 0x20 DUP2 LT ISZERO PUSH2 0x2B8 JUMPI PUSH1 0x0 DUP1 REVERT JUMPDEST DUP2 ADD SWAP1 DUP1 DUP1 CALLDATALOAD SWAP1 PUSH1 0x20 ADD SWAP1 SWAP3 SWAP2 SWAP1 POP POP POP PUSH2 0xD7E JUMP JUMPDEST STOP JUMPDEST PUSH2 0x312 PUSH1 0x4 DUP1 CALLDATASIZE SUB PUSH1 0x20 DUP2 LT ISZERO PUSH2 0x2E6 JUMPI PUSH1 0x0 DUP1 REVERT JUMPDEST DUP2 ADD SWAP1 DUP1 DUP1 CALLDATALOAD PUSH20 0xFFFFFFFFFFFFFFFFFFFFFFFFFFFFFFFFFFFFFFFF AND SWAP1 PUSH1 0x20 ADD SWAP1 SWAP3 SWAP2 SWAP1 POP POP POP PUSH2 0xF0D JUMP JUMPDEST STOP JUMPDEST PUSH2 0x31C PUSH2 0x114A JUMP JUMPDEST PUSH1 0x40 MLOAD DUP1 DUP3 DUP2 MSTORE PUSH1 0x20 ADD SWAP2 POP POP PUSH1 0x40 MLOAD DUP1 SWAP2 SUB SWAP1 RETURN JUMPDEST PUSH2 0x374 PUSH1 0x4 DUP1 CALLDATASIZE SUB PUSH1 0x20 DUP2 LT ISZERO PUSH2 0x348 JUMPI PUSH1 0x0 DUP1 REVERT JUMPDEST DUP2 ADD SWAP1 DUP1 DUP1 CALLDATALOAD PUSH20 0xFFFFFFFFFFFFFFFFFFFFFFFFFFFFFFFFFFFFFFFF AND SWAP1 PUSH1 0x20 ADD SWAP1 SWAP3 SWAP2 SWAP1 POP POP POP PUSH2 0x1150 JUMP JUMPDEST STOP JUMPDEST PUSH2 0x3C2 PUSH1 0x4 DUP1 CALLDATASIZE SUB PUSH1 0x40 DUP2 LT ISZERO PUSH2 0x38C JUMPI PUSH1 0x0 DUP1 REVERT JUMPDEST DUP2 ADD SWAP1 DUP1 DUP1 CALLDATALOAD PUSH20 0xFFFFFFFFFFFFFFFFFFFFFFFFFFFFFFFFFFFFFFFF AND SWAP1 PUSH1 0x20 ADD SWAP1 SWAP3 SWAP2 SWAP1 DUP1 CALLDATALOAD SWAP1 PUSH1 0x20 ADD SWAP1 SWAP3 SWAP2 SWAP1 POP POP POP PUSH2 0x1342 JUMP JUMPDEST STOP JUMPDEST PUSH2 0x3CC PUSH2 0x16CB JUMP JUMPDEST PUSH1 0x40 MLOAD DUP1 DUP3 PUSH20 0xFFFFFFFFFFFFFFFFFFFFFFFFFFFFFFFFFFFFFFFF AND DUP2 MSTORE PUSH1 0x20 ADD SWAP2 POP POP PUSH1 0x40 MLOAD DUP1 SWAP2 SUB SWAP1 RETURN JUMPDEST PUSH2 0x400 PUSH2 0x16F1 JUMP JUMPDEST PUSH1 0x40 MLOAD DUP1 DUP3 PUSH20 0xFFFFFFFFFFFFFFFFFFFFFFFFFFFFFFFFFFFFFFFF AND DUP2 MSTORE PUSH1 0x20 ADD SWAP2 POP POP PUSH1 0x40 MLOAD DUP1 SWAP2 SUB SWAP1 RETURN JUMPDEST PUSH1 0x1 PUSH1 0x0 SWAP1 SLOAD SWAP1 PUSH2 0x100 EXP SWAP1 DIV PUSH20 0xFFFFFFFFFFFFFFFFFFFFFFFFFFFFFFFFFFFFFFFF AND PUSH20 0xFFFFFFFFFFFFFFFFFFFFFFFFFFFFFFFFFFFFFFFF AND CALLER PUSH20 0xFFFFFFFFFFFFFFFFFFFFFFFFFFFFFFFFFFFFFFFF AND EQ PUSH2 0x4EF JUMPI PUSH1 0x40 MLOAD PUSH32 0x8C379A000000000000000000000000000000000000000000000000000000000 DUP2 MSTORE PUSH1 0x4 ADD DUP1 DUP1 PUSH1 0x20 ADD DUP3 DUP2 SUB DUP3 MSTORE PUSH1 0x14 DUP2 MSTORE PUSH1 0x20 ADD DUP1 PUSH32 0x4F6E6C792061646D696E207065726D6974746564000000000000000000000000 DUP2 MSTORE POP PUSH1 0x20 ADD SWAP2 POP POP PUSH1 0x40 MLOAD DUP1 SWAP2 SUB SWAP1 REVERT JUMPDEST PUSH2 0x4F7 PUSH2 0x59F JUMP JUMPDEST PUSH2 0x569 JUMPI PUSH1 0x40 MLOAD PUSH32 0x8C379A000000000000000000000000000000000000000000000000000000000 DUP2 MSTORE PUSH1 0x4 ADD DUP1 DUP1 PUSH1 0x20 ADD DUP3 DUP2 SUB DUP3 MSTORE PUSH1 0x14 DUP2 MSTORE PUSH1 0x20 ADD DUP1 PUSH32 0x5061757361626C653A206E6F7420706175736564000000000000000000000000 DUP2 MSTORE POP PUSH1 0x20 ADD SWAP2 POP POP PUSH1 0x40 MLOAD DUP1 SWAP2 SUB SWAP1 REVERT JUMPDEST PUSH2 0x571 PUSH2 0x18F2 JUMP JUMPDEST PUSH32 0x7805862F689E2F13DF9F062FF482AD3AD112ACA9E0847911ED832E158C525B33 PUSH1 0x40 MLOAD PUSH1 0x40 MLOAD DUP1 SWAP2 SUB SWAP1 LOG1 JUMP JUMPDEST PUSH1 0x0 DUP1 PUSH1 0x14 SWAP1 SLOAD SWAP1 PUSH2 0x100 EXP SWAP1 DIV PUSH1 0xFF AND SWAP1 POP SWAP1 JUMP JUMPDEST PUSH1 0x3 SLOAD DUP2 JUMP JUMPDEST PUSH1 0x4 SLOAD DUP2 JUMP JUMPDEST PUSH2 0x5C9 PUSH2 0x19DC JUMP JUMPDEST PUSH20 0xFFFFFFFFFFFFFFFFFFFFFFFFFFFFFFFFFFFFFFFF AND PUSH2 0x5E7 PUSH2 0xBF5 JUMP JUMPDEST PUSH20 0xFFFFFFFFFFFFFFFFFFFFFFFFFFFFFFFFFFFFFFFF AND EQ PUSH2 0x670 JUMPI PUSH1 0x40 MLOAD PUSH32 0x8C379A000000000000000000000000000000000000000000000000000000000 DUP2 MSTORE PUSH1 0x4 ADD DUP1 DUP1 PUSH1 0x20 ADD DUP3 DUP2 SUB DUP3 MSTORE PUSH1 0x20 DUP2 MSTORE PUSH1 0x20 ADD DUP1 PUSH32 0x4F776E61626C653A2063616C6C6572206973206E6F7420746865206F776E6572 DUP2 MSTORE POP PUSH1 0x20 ADD SWAP2 POP POP PUSH1 0x40 MLOAD DUP1 SWAP2 SUB SWAP1 REVERT JUMPDEST PUSH1 0x0 PUSH20 0xFFFFFFFFFFFFFFFFFFFFFFFFFFFFFFFFFFFFFFFF AND DUP2 PUSH20 0xFFFFFFFFFFFFFFFFFFFFFFFFFFFFFFFFFFFFFFFF AND EQ ISZERO PUSH2 0x713 JUMPI PUSH1 0x40 MLOAD PUSH32 0x8C379A000000000000000000000000000000000000000000000000000000000 DUP2 MSTORE PUSH1 0x4 ADD DUP1 DUP1 PUSH1 0x20 ADD DUP3 DUP2 SUB DUP3 MSTORE PUSH1 0x16 DUP2 MSTORE PUSH1 0x20 ADD DUP1 PUSH32 0x43616E6E6F74206265207A65726F206164647265737300000000000000000000 DUP2 MSTORE POP PUSH1 0x20 ADD SWAP2 POP POP PUSH1 0x40 MLOAD DUP1 SWAP2 SUB SWAP1 REVERT JUMPDEST DUP1 PUSH1 0x1 PUSH1 0x0 PUSH2 0x100 EXP DUP2 SLOAD DUP2 PUSH20 0xFFFFFFFFFFFFFFFFFFFFFFFFFFFFFFFFFFFFFFFF MUL NOT AND SWAP1 DUP4 PUSH20 0xFFFFFFFFFFFFFFFFFFFFFFFFFFFFFFFFFFFFFFFF AND MUL OR SWAP1 SSTORE POP POP JUMP JUMPDEST PUSH2 0x75F PUSH2 0x19DC JUMP JUMPDEST PUSH20 0xFFFFFFFFFFFFFFFFFFFFFFFFFFFFFFFFFFFFFFFF AND PUSH2 0x77D PUSH2 0xBF5 JUMP JUMPDEST PUSH20 0xFFFFFFFFFFFFFFFFFFFFFFFFFFFFFFFFFFFFFFFF AND EQ PUSH2 0x806 JUMPI PUSH1 0x40 MLOAD PUSH32 0x8C379A000000000000000000000000000000000000000000000000000000000 DUP2 MSTORE PUSH1 0x4 ADD DUP1 DUP1 PUSH1 0x20 ADD DUP3 DUP2 SUB DUP3 MSTORE PUSH1 0x20 DUP2 MSTORE PUSH1 0x20 ADD DUP1 PUSH32 0x4F776E61626C653A2063616C6C6572206973206E6F7420746865206F776E6572 DUP2 MSTORE POP PUSH1 0x20 ADD SWAP2 POP POP PUSH1 0x40 MLOAD DUP1 SWAP2 SUB SWAP1 REVERT JUMPDEST PUSH1 0x0 PUSH20 0xFFFFFFFFFFFFFFFFFFFFFFFFFFFFFFFFFFFFFFFF AND PUSH1 0x0 DUP1 SLOAD SWAP1 PUSH2 0x100 EXP SWAP1 DIV PUSH20 0xFFFFFFFFFFFFFFFFFFFFFFFFFFFFFFFFFFFFFFFF AND PUSH20 0xFFFFFFFFFFFFFFFFFFFFFFFFFFFFFFFFFFFFFFFF AND PUSH32 0x8BE0079C531659141344CD1FD0A4F28419497F9722A3DAAFE3B4186F6B6457E0 PUSH1 0x40 MLOAD PUSH1 0x40 MLOAD DUP1 SWAP2 SUB SWAP1 LOG3 PUSH1 0x0 DUP1 PUSH1 0x0 PUSH2 0x100 EXP DUP2 SLOAD DUP2 PUSH20 0xFFFFFFFFFFFFFFFFFFFFFFFFFFFFFFFFFFFFFFFF MUL NOT AND SWAP1 DUP4 PUSH20 0xFFFFFFFFFFFFFFFFFFFFFFFFFFFFFFFFFFFFFFFF AND MUL OR SWAP1 SSTORE POP JUMP JUMPDEST PUSH1 0x1 PUSH1 0x0 SWAP1 SLOAD SWAP1 PUSH2 0x100 EXP SWAP1 DIV PUSH20 0xFFFFFFFFFFFFFFFFFFFFFFFFFFFFFFFFFFFFFFFF AND PUSH20 0xFFFFFFFFFFFFFFFFFFFFFFFFFFFFFFFFFFFFFFFF AND CALLER PUSH20 0xFFFFFFFFFFFFFFFFFFFFFFFFFFFFFFFFFFFFFFFF AND EQ PUSH2 0x987 JUMPI PUSH1 0x40 MLOAD PUSH32 0x8C379A000000000000000000000000000000000000000000000000000000000 DUP2 MSTORE PUSH1 0x4 ADD DUP1 DUP1 PUSH1 0x20 ADD DUP3 DUP2 SUB DUP3 MSTORE PUSH1 0x14 DUP2 MSTORE PUSH1 0x20 ADD DUP1 PUSH32 0x4F6E6C792061646D696E207065726D6974746564000000000000000000000000 DUP2 MSTORE POP PUSH1 0x20 ADD SWAP2 POP POP PUSH1 0x40 MLOAD DUP1 SWAP2 SUB SWAP1 REVERT JUMPDEST PUSH2 0x98F PUSH2 0x59F JUMP JUMPDEST ISZERO PUSH2 0xA02 JUMPI PUSH1 0x40 MLOAD PUSH32 0x8C379A000000000000000000000000000000000000000000000000000000000 DUP2 MSTORE PUSH1 0x4 ADD DUP1 DUP1 PUSH1 0x20 ADD DUP3 DUP2 SUB DUP3 MSTORE PUSH1 0x10 DUP2 MSTORE PUSH1 0x20 ADD DUP1 PUSH32 0x5061757361626C653A2070617573656400000000000000000000000000000000 DUP2 MSTORE POP PUSH1 0x20 ADD SWAP2 POP POP PUSH1 0x40 MLOAD DUP1 SWAP2 SUB SWAP1 REVERT JUMPDEST PUSH2 0xA0A PUSH2 0x19E4 JUMP JUMPDEST PUSH32 0x6985A02210A168E66602D3235CB6DB0E70F92B3BA4D376A33C0F3D9434BFF625 PUSH1 0x40 MLOAD PUSH1 0x40 MLOAD DUP1 SWAP2 SUB SWAP1 LOG1 JUMP JUMPDEST PUSH2 0xA40 PUSH2 0x19DC JUMP JUMPDEST PUSH20 0xFFFFFFFFFFFFFFFFFFFFFFFFFFFFFFFFFFFFFFFF AND PUSH2 0xA5E PUSH2 0xBF5 JUMP JUMPDEST PUSH20 0xFFFFFFFFFFFFFFFFFFFFFFFFFFFFFFFFFFFFFFFF AND EQ PUSH2 0xAE7 JUMPI PUSH1 0x40 MLOAD PUSH32 0x8C379A000000000000000000000000000000000000000000000000000000000 DUP2 MSTORE PUSH1 0x4 ADD DUP1 DUP1 PUSH1 0x20 ADD DUP3 DUP2 SUB DUP3 MSTORE PUSH1 0x20 DUP2 MSTORE PUSH1 0x20 ADD DUP1 PUSH32 0x4F776E61626C653A2063616C6C6572206973206E6F7420746865206F776E6572 DUP2 MSTORE POP PUSH1 0x20 ADD SWAP2 POP POP PUSH1 0x40 MLOAD DUP1 SWAP2 SUB SWAP1 REVERT JUMPDEST PUSH2 0xBF3 CALLER PUSH32 0x0 PUSH20 0xFFFFFFFFFFFFFFFFFFFFFFFFFFFFFFFFFFFFFFFF AND PUSH4 0x70A08231 ADDRESS PUSH1 0x40 MLOAD DUP3 PUSH4 0xFFFFFFFF AND PUSH1 0xE0 SHL DUP2 MSTORE PUSH1 0x4 ADD DUP1 DUP3 PUSH20 0xFFFFFFFFFFFFFFFFFFFFFFFFFFFFFFFFFFFFFFFF AND DUP2 MSTORE PUSH1 0x20 ADD SWAP2 POP POP PUSH1 0x20 PUSH1 0x40 MLOAD DUP1 DUP4 SUB DUP2 DUP7 DUP1 EXTCODESIZE ISZERO DUP1 ISZERO PUSH2 0xB72 JUMPI PUSH1 0x0 DUP1 REVERT JUMPDEST POP GAS STATICCALL ISZERO DUP1 ISZERO PUSH2 0xB86 JUMPI RETURNDATASIZE PUSH1 0x0 DUP1 RETURNDATACOPY RETURNDATASIZE PUSH1 0x0 REVERT JUMPDEST POP POP POP POP PUSH1 0x40 MLOAD RETURNDATASIZE PUSH1 0x20 DUP2 LT ISZERO PUSH2 0xB9C JUMPI PUSH1 0x0 DUP1 REVERT JUMPDEST DUP2 ADD SWAP1 DUP1 DUP1 MLOAD SWAP1 PUSH1 0x20 ADD SWAP1 SWAP3 SWAP2 SWAP1 POP POP POP PUSH32 0x0 PUSH20 0xFFFFFFFFFFFFFFFFFFFFFFFFFFFFFFFFFFFFFFFF AND PUSH2 0x1AD0 SWAP1 SWAP3 SWAP2 SWAP1 PUSH4 0xFFFFFFFF AND JUMP JUMPDEST JUMP JUMPDEST PUSH1 0x0 DUP1 PUSH1 0x0 SWAP1 SLOAD SWAP1 PUSH2 0x100 EXP SWAP1 DIV PUSH20 0xFFFFFFFFFFFFFFFFFFFFFFFFFFFFFFFFFFFFFFFF AND SWAP1 POP SWAP1 JUMP JUMPDEST PUSH1 0x2 PUSH1 0x0 SWAP1 SLOAD SWAP1 PUSH2 0x100 EXP SWAP1 DIV PUSH20 0xFFFFFFFFFFFFFFFFFFFFFFFFFFFFFFFFFFFFFFFF AND DUP2 JUMP JUMPDEST PUSH1 0x0 PUSH1 0x3 SLOAD SWAP1 POP SWAP1 JUMP JUMPDEST PUSH2 0xC56 PUSH2 0x19DC JUMP JUMPDEST PUSH20 0xFFFFFFFFFFFFFFFFFFFFFFFFFFFFFFFFFFFFFFFF AND PUSH2 0xC74 PUSH2 0xBF5 JUMP JUMPDEST PUSH20 0xFFFFFFFFFFFFFFFFFFFFFFFFFFFFFFFFFFFFFFFF AND EQ PUSH2 0xCFD JUMPI PUSH1 0x40 MLOAD PUSH32 0x8C379A000000000000000000000000000000000000000000000000000000000 DUP2 MSTORE PUSH1 0x4 ADD DUP1 DUP1 PUSH1 0x20 ADD DUP3 DUP2 SUB DUP3 MSTORE PUSH1 0x20 DUP2 MSTORE PUSH1 0x20 ADD DUP1 PUSH32 0x4F776E61626C653A2063616C6C6572206973206E6F7420746865206F776E6572 DUP2 MSTORE POP PUSH1 0x20 ADD SWAP2 POP POP PUSH1 0x40 MLOAD DUP1 SWAP2 SUB SWAP1 REVERT JUMPDEST PUSH1 0x0 DUP2 LT ISZERO PUSH2 0xD74 JUMPI PUSH1 0x40 MLOAD PUSH32 0x8C379A000000000000000000000000000000000000000000000000000000000 DUP2 MSTORE PUSH1 0x4 ADD DUP1 DUP1 PUSH1 0x20 ADD DUP3 DUP2 SUB DUP3 MSTORE PUSH1 0x19 DUP2 MSTORE PUSH1 0x20 ADD DUP1 PUSH32 0x43616E6E6F74206265206E65676174697665206E756D62657200000000000000 DUP2 MSTORE POP PUSH1 0x20 ADD SWAP2 POP POP PUSH1 0x40 MLOAD DUP1 SWAP2 SUB SWAP1 REVERT JUMPDEST DUP1 PUSH1 0x3 DUP2 SWAP1 SSTORE POP POP JUMP JUMPDEST PUSH2 0xD86 PUSH2 0x59F JUMP JUMPDEST ISZERO PUSH2 0xDF9 JUMPI PUSH1 0x40 MLOAD PUSH32 0x8C379A000000000000000000000000000000000000000000000000000000000 DUP2 MSTORE PUSH1 0x4 ADD DUP1 DUP1 PUSH1 0x20 ADD DUP3 DUP2 SUB DUP3 MSTORE PUSH1 0x10 DUP2 MSTORE PUSH1 0x20 ADD DUP1 PUSH32 0x5061757361626C653A2070617573656400000000000000000000000000000000 DUP2 MSTORE POP PUSH1 0x20 ADD SWAP2 POP POP PUSH1 0x40 MLOAD DUP1 SWAP2 SUB SWAP1 REVERT JUMPDEST PUSH1 0x0 DUP2 GT PUSH2 0xE6F JUMPI PUSH1 0x40 MLOAD PUSH32 0x8C379A000000000000000000000000000000000000000000000000000000000 DUP2 MSTORE PUSH1 0x4 ADD DUP1 DUP1 PUSH1 0x20 ADD DUP3 DUP2 SUB DUP3 MSTORE PUSH1 0x12 DUP2 MSTORE PUSH1 0x20 ADD DUP1 PUSH32 0x4E6F7468696E6720746F206465706F7369740000000000000000000000000000 DUP2 MSTORE POP PUSH1 0x20 ADD SWAP2 POP POP PUSH1 0x40 MLOAD DUP1 SWAP2 SUB SWAP1 REVERT JUMPDEST PUSH2 0xEBC CALLER ADDRESS DUP4 PUSH32 0x0 PUSH20 0xFFFFFFFFFFFFFFFFFFFFFFFFFFFFFFFFFFFFFFFF AND PUSH2 0x1B72 SWAP1 SWAP4 SWAP3 SWAP2 SWAP1 PUSH4 0xFFFFFFFF AND JUMP JUMPDEST CALLER PUSH20 0xFFFFFFFFFFFFFFFFFFFFFFFFFFFFFFFFFFFFFFFF AND PUSH32 0xE1FFFCC4923D04B559F4D29A8BFC6CDA04EB5B0D3C460751C2402C5C5CC9109C DUP3 PUSH1 0x40 MLOAD DUP1 DUP3 DUP2 MSTORE PUSH1 0x20 ADD SWAP2 POP POP PUSH1 0x40 MLOAD DUP1 SWAP2 SUB SWAP1 LOG2 POP JUMP JUMPDEST PUSH1 0x1 PUSH1 0x0 SWAP1 SLOAD SWAP1 PUSH2 0x100 EXP SWAP1 DIV PUSH20 0xFFFFFFFFFFFFFFFFFFFFFFFFFFFFFFFFFFFFFFFF AND PUSH20 0xFFFFFFFFFFFFFFFFFFFFFFFFFFFFFFFFFFFFFFFF AND CALLER PUSH20 0xFFFFFFFFFFFFFFFFFFFFFFFFFFFFFFFFFFFFFFFF AND EQ PUSH2 0xFD0 JUMPI PUSH1 0x40 MLOAD PUSH32 0x8C379A000000000000000000000000000000000000000000000000000000000 DUP2 MSTORE PUSH1 0x4 ADD DUP1 DUP1 PUSH1 0x20 ADD DUP3 DUP2 SUB DUP3 MSTORE PUSH1 0x14 DUP2 MSTORE PUSH1 0x20 ADD DUP1 PUSH32 0x4F6E6C792061646D696E207065726D6974746564000000000000000000000000 DUP2 MSTORE POP PUSH1 0x20 ADD SWAP2 POP POP PUSH1 0x40 MLOAD DUP1 SWAP2 SUB SWAP1 REVERT JUMPDEST PUSH32 0x0 PUSH20 0xFFFFFFFFFFFFFFFFFFFFFFFFFFFFFFFFFFFFFFFF AND DUP2 PUSH20 0xFFFFFFFFFFFFFFFFFFFFFFFFFFFFFFFFFFFFFFFF AND EQ ISZERO PUSH2 0x1075 JUMPI PUSH1 0x40 MLOAD PUSH32 0x8C379A000000000000000000000000000000000000000000000000000000000 DUP2 MSTORE PUSH1 0x4 ADD DUP1 DUP1 PUSH1 0x20 ADD DUP3 DUP2 SUB DUP3 MSTORE PUSH1 0x28 DUP2 MSTORE PUSH1 0x20 ADD DUP1 PUSH2 0x206A PUSH1 0x28 SWAP2 CODECOPY PUSH1 0x40 ADD SWAP2 POP POP PUSH1 0x40 MLOAD DUP1 SWAP2 SUB SWAP1 REVERT JUMPDEST PUSH1 0x0 DUP2 PUSH20 0xFFFFFFFFFFFFFFFFFFFFFFFFFFFFFFFFFFFFFFFF AND PUSH4 0x70A08231 ADDRESS PUSH1 0x40 MLOAD DUP3 PUSH4 0xFFFFFFFF AND PUSH1 0xE0 SHL DUP2 MSTORE PUSH1 0x4 ADD DUP1 DUP3 PUSH20 0xFFFFFFFFFFFFFFFFFFFFFFFFFFFFFFFFFFFFFFFF AND DUP2 MSTORE PUSH1 0x20 ADD SWAP2 POP POP PUSH1 0x20 PUSH1 0x40 MLOAD DUP1 DUP4 SUB DUP2 DUP7 DUP1 EXTCODESIZE ISZERO DUP1 ISZERO PUSH2 0x10DE JUMPI PUSH1 0x0 DUP1 REVERT JUMPDEST POP GAS STATICCALL ISZERO DUP1 ISZERO PUSH2 0x10F2 JUMPI RETURNDATASIZE PUSH1 0x0 DUP1 RETURNDATACOPY RETURNDATASIZE PUSH1 0x0 REVERT JUMPDEST POP POP POP POP PUSH1 0x40 MLOAD RETURNDATASIZE PUSH1 0x20 DUP2 LT ISZERO PUSH2 0x1108 JUMPI PUSH1 0x0 DUP1 REVERT JUMPDEST DUP2 ADD SWAP1 DUP1 DUP1 MLOAD SWAP1 PUSH1 0x20 ADD SWAP1 SWAP3 SWAP2 SWAP1 POP POP POP SWAP1 POP PUSH2 0x1146 CALLER DUP3 DUP5 PUSH20 0xFFFFFFFFFFFFFFFFFFFFFFFFFFFFFFFFFFFFFFFF AND PUSH2 0x1AD0 SWAP1 SWAP3 SWAP2 SWAP1 PUSH4 0xFFFFFFFF AND JUMP JUMPDEST POP POP JUMP JUMPDEST PUSH1 0x5 SLOAD DUP2 JUMP JUMPDEST PUSH2 0x1158 PUSH2 0x19DC JUMP JUMPDEST PUSH20 0xFFFFFFFFFFFFFFFFFFFFFFFFFFFFFFFFFFFFFFFF AND PUSH2 0x1176 PUSH2 0xBF5 JUMP JUMPDEST PUSH20 0xFFFFFFFFFFFFFFFFFFFFFFFFFFFFFFFFFFFFFFFF AND EQ PUSH2 0x11FF JUMPI PUSH1 0x40 MLOAD PUSH32 0x8C379A000000000000000000000000000000000000000000000000000000000 DUP2 MSTORE PUSH1 0x4 ADD DUP1 DUP1 PUSH1 0x20 ADD DUP3 DUP2 SUB DUP3 MSTORE PUSH1 0x20 DUP2 MSTORE PUSH1 0x20 ADD DUP1 PUSH32 0x4F776E61626C653A2063616C6C6572206973206E6F7420746865206F776E6572 DUP2 MSTORE POP PUSH1 0x20 ADD SWAP2 POP POP PUSH1 0x40 MLOAD DUP1 SWAP2 SUB SWAP1 REVERT JUMPDEST PUSH1 0x0 PUSH20 0xFFFFFFFFFFFFFFFFFFFFFFFFFFFFFFFFFFFFFFFF AND DUP2 PUSH20 0xFFFFFFFFFFFFFFFFFFFFFFFFFFFFFFFFFFFFFFFF AND EQ ISZERO PUSH2 0x1285 JUMPI PUSH1 0x40 MLOAD PUSH32 0x8C379A000000000000000000000000000000000000000000000000000000000 DUP2 MSTORE PUSH1 0x4 ADD DUP1 DUP1 PUSH1 0x20 ADD DUP3 DUP2 SUB DUP3 MSTORE PUSH1 0x26 DUP2 MSTORE PUSH1 0x20 ADD DUP1 PUSH2 0x201E PUSH1 0x26 SWAP2 CODECOPY PUSH1 0x40 ADD SWAP2 POP POP PUSH1 0x40 MLOAD DUP1 SWAP2 SUB SWAP1 REVERT JUMPDEST DUP1 PUSH20 0xFFFFFFFFFFFFFFFFFFFFFFFFFFFFFFFFFFFFFFFF AND PUSH1 0x0 DUP1 SLOAD SWAP1 PUSH2 0x100 EXP SWAP1 DIV PUSH20 0xFFFFFFFFFFFFFFFFFFFFFFFFFFFFFFFFFFFFFFFF AND PUSH20 0xFFFFFFFFFFFFFFFFFFFFFFFFFFFFFFFFFFFFFFFF AND PUSH32 0x8BE0079C531659141344CD1FD0A4F28419497F9722A3DAAFE3B4186F6B6457E0 PUSH1 0x40 MLOAD PUSH1 0x40 MLOAD DUP1 SWAP2 SUB SWAP1 LOG3 DUP1 PUSH1 0x0 DUP1 PUSH2 0x100 EXP DUP2 SLOAD DUP2 PUSH20 0xFFFFFFFFFFFFFFFFFFFFFFFFFFFFFFFFFFFFFFFF MUL NOT AND SWAP1 DUP4 PUSH20 0xFFFFFFFFFFFFFFFFFFFFFFFFFFFFFFFFFFFFFFFF AND MUL OR SWAP1 SSTORE POP POP JUMP JUMPDEST PUSH2 0x134A PUSH2 0x59F JUMP JUMPDEST ISZERO PUSH2 0x13BD JUMPI PUSH1 0x40 MLOAD PUSH32 0x8C379A000000000000000000000000000000000000000000000000000000000 DUP2 MSTORE PUSH1 0x4 ADD DUP1 DUP1 PUSH1 0x20 ADD DUP3 DUP2 SUB DUP3 MSTORE PUSH1 0x10 DUP2 MSTORE PUSH1 0x20 ADD DUP1 PUSH32 0x5061757361626C653A2070617573656400000000000000000000000000000000 DUP2 MSTORE POP PUSH1 0x20 ADD SWAP2 POP POP PUSH1 0x40 MLOAD DUP1 SWAP2 SUB SWAP1 REVERT JUMPDEST PUSH1 0x2 PUSH1 0x0 SWAP1 SLOAD SWAP1 PUSH2 0x100 EXP SWAP1 DIV PUSH20 0xFFFFFFFFFFFFFFFFFFFFFFFFFFFFFFFFFFFFFFFF AND PUSH20 0xFFFFFFFFFFFFFFFFFFFFFFFFFFFFFFFFFFFFFFFF AND CALLER PUSH20 0xFFFFFFFFFFFFFFFFFFFFFFFFFFFFFFFFFFFFFFFF AND EQ PUSH2 0x1480 JUMPI PUSH1 0x40 MLOAD PUSH32 0x8C379A000000000000000000000000000000000000000000000000000000000 DUP2 MSTORE PUSH1 0x4 ADD DUP1 DUP1 PUSH1 0x20 ADD DUP3 DUP2 SUB DUP3 MSTORE PUSH1 0x19 DUP2 MSTORE PUSH1 0x20 ADD DUP1 PUSH32 0x4E6F7420616E20617574686F7269736564207370656E64657200000000000000 DUP2 MSTORE POP PUSH1 0x20 ADD SWAP2 POP POP PUSH1 0x40 MLOAD DUP1 SWAP2 SUB SWAP1 REVERT JUMPDEST PUSH1 0x0 DUP2 GT PUSH2 0x14F6 JUMPI PUSH1 0x40 MLOAD PUSH32 0x8C379A000000000000000000000000000000000000000000000000000000000 DUP2 MSTORE PUSH1 0x4 ADD DUP1 DUP1 PUSH1 0x20 ADD DUP3 DUP2 SUB DUP3 MSTORE PUSH1 0x13 DUP2 MSTORE PUSH1 0x20 ADD DUP1 PUSH32 0x4E6F7468696E6720746F20776974686472617700000000000000000000000000 DUP2 MSTORE POP PUSH1 0x20 ADD SWAP2 POP POP PUSH1 0x40 MLOAD DUP1 SWAP2 SUB SWAP1 REVERT JUMPDEST DUP1 PUSH32 0x0 PUSH20 0xFFFFFFFFFFFFFFFFFFFFFFFFFFFFFFFFFFFFFFFF AND PUSH4 0x70A08231 ADDRESS PUSH1 0x40 MLOAD DUP3 PUSH4 0xFFFFFFFF AND PUSH1 0xE0 SHL DUP2 MSTORE PUSH1 0x4 ADD DUP1 DUP3 PUSH20 0xFFFFFFFFFFFFFFFFFFFFFFFFFFFFFFFFFFFFFFFF AND DUP2 MSTORE PUSH1 0x20 ADD SWAP2 POP POP PUSH1 0x20 PUSH1 0x40 MLOAD DUP1 DUP4 SUB DUP2 DUP7 DUP1 EXTCODESIZE ISZERO DUP1 ISZERO PUSH2 0x157E JUMPI PUSH1 0x0 DUP1 REVERT JUMPDEST POP GAS STATICCALL ISZERO DUP1 ISZERO PUSH2 0x1592 JUMPI RETURNDATASIZE PUSH1 0x0 DUP1 RETURNDATACOPY RETURNDATASIZE PUSH1 0x0 REVERT JUMPDEST POP POP POP POP PUSH1 0x40 MLOAD RETURNDATASIZE PUSH1 0x20 DUP2 LT ISZERO PUSH2 0x15A8 JUMPI PUSH1 0x0 DUP1 REVERT JUMPDEST DUP2 ADD SWAP1 DUP1 DUP1 MLOAD SWAP1 PUSH1 0x20 ADD SWAP1 SWAP3 SWAP2 SWAP1 POP POP POP GT PUSH2 0x160F JUMPI PUSH1 0x40 MLOAD PUSH32 0x8C379A000000000000000000000000000000000000000000000000000000000 DUP2 MSTORE PUSH1 0x4 ADD DUP1 DUP1 PUSH1 0x20 ADD DUP3 DUP2 SUB DUP3 MSTORE PUSH1 0x21 DUP2 MSTORE PUSH1 0x20 ADD DUP1 PUSH2 0x1FFD PUSH1 0x21 SWAP2 CODECOPY PUSH1 0x40 ADD SWAP2 POP POP PUSH1 0x40 MLOAD DUP1 SWAP2 SUB SWAP1 REVERT JUMPDEST PUSH2 0x1618 DUP2 PUSH2 0x1C33 JUMP JUMPDEST ISZERO PUSH2 0x1679 JUMPI DUP1 PUSH1 0x5 PUSH1 0x0 DUP3 DUP3 SLOAD ADD SWAP3 POP POP DUP2 SWAP1 SSTORE POP PUSH2 0x1678 DUP3 DUP3 PUSH32 0x0 PUSH20 0xFFFFFFFFFFFFFFFFFFFFFFFFFFFFFFFFFFFFFFFF AND PUSH2 0x1AD0 SWAP1 SWAP3 SWAP2 SWAP1 PUSH4 0xFFFFFFFF AND JUMP JUMPDEST JUMPDEST DUP2 PUSH20 0xFFFFFFFFFFFFFFFFFFFFFFFFFFFFFFFFFFFFFFFF AND PUSH32 0x884EDAD9CE6FA2440D8A54CC123490EB96D2768479D49FF9C7366125A9424364 DUP3 PUSH1 0x40 MLOAD DUP1 DUP3 DUP2 MSTORE PUSH1 0x20 ADD SWAP2 POP POP PUSH1 0x40 MLOAD DUP1 SWAP2 SUB SWAP1 LOG2 POP POP JUMP JUMPDEST PUSH1 0x1 PUSH1 0x0 SWAP1 SLOAD SWAP1 PUSH2 0x100 EXP SWAP1 DIV PUSH20 0xFFFFFFFFFFFFFFFFFFFFFFFFFFFFFFFFFFFFFFFF AND DUP2 JUMP JUMPDEST PUSH32 0x0 DUP2 JUMP JUMPDEST PUSH1 0x0 DUP2 EQ DUP1 PUSH2 0x17E3 JUMPI POP PUSH1 0x0 DUP4 PUSH20 0xFFFFFFFFFFFFFFFFFFFFFFFFFFFFFFFFFFFFFFFF AND PUSH4 0xDD62ED3E ADDRESS DUP6 PUSH1 0x40 MLOAD DUP4 PUSH4 0xFFFFFFFF AND PUSH1 0xE0 SHL DUP2 MSTORE PUSH1 0x4 ADD DUP1 DUP4 PUSH20 0xFFFFFFFFFFFFFFFFFFFFFFFFFFFFFFFFFFFFFFFF AND DUP2 MSTORE PUSH1 0x20 ADD DUP3 PUSH20 0xFFFFFFFFFFFFFFFFFFFFFFFFFFFFFFFFFFFFFFFF AND DUP2 MSTORE PUSH1 0x20 ADD SWAP3 POP POP POP PUSH1 0x20 PUSH1 0x40 MLOAD DUP1 DUP4 SUB DUP2 DUP7 DUP1 EXTCODESIZE ISZERO DUP1 ISZERO PUSH2 0x17A6 JUMPI PUSH1 0x0 DUP1 REVERT JUMPDEST POP GAS STATICCALL ISZERO DUP1 ISZERO PUSH2 0x17BA JUMPI RETURNDATASIZE PUSH1 0x0 DUP1 RETURNDATACOPY RETURNDATASIZE PUSH1 0x0 REVERT JUMPDEST POP POP POP POP PUSH1 0x40 MLOAD RETURNDATASIZE PUSH1 0x20 DUP2 LT ISZERO PUSH2 0x17D0 JUMPI PUSH1 0x0 DUP1 REVERT JUMPDEST DUP2 ADD SWAP1 DUP1 DUP1 MLOAD SWAP1 PUSH1 0x20 ADD SWAP1 SWAP3 SWAP2 SWAP1 POP POP POP EQ JUMPDEST PUSH2 0x1838 JUMPI PUSH1 0x40 MLOAD PUSH32 0x8C379A000000000000000000000000000000000000000000000000000000000 DUP2 MSTORE PUSH1 0x4 ADD DUP1 DUP1 PUSH1 0x20 ADD DUP3 DUP2 SUB DUP3 MSTORE PUSH1 0x36 DUP2 MSTORE PUSH1 0x20 ADD DUP1 PUSH2 0x20BC PUSH1 0x36 SWAP2 CODECOPY PUSH1 0x40 ADD SWAP2 POP POP PUSH1 0x40 MLOAD DUP1 SWAP2 SUB SWAP1 REVERT JUMPDEST PUSH2 0x18D5 DUP4 PUSH4 0x95EA7B3 PUSH1 0xE0 SHL DUP5 DUP5 PUSH1 0x40 MLOAD PUSH1 0x24 ADD DUP1 DUP4 PUSH20 0xFFFFFFFFFFFFFFFFFFFFFFFFFFFFFFFFFFFFFFFF AND DUP2 MSTORE PUSH1 0x20 ADD DUP3 DUP2 MSTORE PUSH1 0x20 ADD SWAP3 POP POP POP PUSH1 0x40 MLOAD PUSH1 0x20 DUP2 DUP4 SUB SUB DUP2 MSTORE SWAP1 PUSH1 0x40 MSTORE SWAP1 PUSH28 0xFFFFFFFFFFFFFFFFFFFFFFFFFFFFFFFFFFFFFFFFFFFFFFFFFFFFFFFF NOT AND PUSH1 0x20 DUP3 ADD DUP1 MLOAD PUSH28 0xFFFFFFFFFFFFFFFFFFFFFFFFFFFFFFFFFFFFFFFFFFFFFFFFFFFFFFFF DUP4 DUP2 DUP4 AND OR DUP4 MSTORE POP POP POP POP PUSH2 0x1C85 JUMP JUMPDEST POP POP POP JUMP JUMPDEST PUSH1 0x60 PUSH2 0x18E9 DUP5 DUP5 PUSH1 0x0 DUP6 PUSH2 0x1D74 JUMP JUMPDEST SWAP1 POP SWAP4 SWAP3 POP POP POP JUMP JUMPDEST PUSH2 0x18FA PUSH2 0x59F JUMP JUMPDEST PUSH2 0x196C JUMPI PUSH1 0x40 MLOAD PUSH32 0x8C379A000000000000000000000000000000000000000000000000000000000 DUP2 MSTORE PUSH1 0x4 ADD DUP1 DUP1 PUSH1 0x20 ADD DUP3 DUP2 SUB DUP3 MSTORE PUSH1 0x14 DUP2 MSTORE PUSH1 0x20 ADD DUP1 PUSH32 0x5061757361626C653A206E6F7420706175736564000000000000000000000000 DUP2 MSTORE POP PUSH1 0x20 ADD SWAP2 POP POP PUSH1 0x40 MLOAD DUP1 SWAP2 SUB SWAP1 REVERT JUMPDEST PUSH1 0x0 DUP1 PUSH1 0x14 PUSH2 0x100 EXP DUP2 SLOAD DUP2 PUSH1 0xFF MUL NOT AND SWAP1 DUP4 ISZERO ISZERO MUL OR SWAP1 SSTORE POP PUSH32 0x5DB9EE0A495BF2E6FF9C91A7834C1BA4FDD244A5E8AA4E537BD38AEAE4B073AA PUSH2 0x19AF PUSH2 0x19DC JUMP JUMPDEST PUSH1 0x40 MLOAD DUP1 DUP3 PUSH20 0xFFFFFFFFFFFFFFFFFFFFFFFFFFFFFFFFFFFFFFFF AND DUP2 MSTORE PUSH1 0x20 ADD SWAP2 POP POP PUSH1 0x40 MLOAD DUP1 SWAP2 SUB SWAP1 LOG1 JUMP JUMPDEST PUSH1 0x0 CALLER SWAP1 POP SWAP1 JUMP JUMPDEST PUSH2 0x19EC PUSH2 0x59F JUMP JUMPDEST ISZERO PUSH2 0x1A5F JUMPI PUSH1 0x40 MLOAD PUSH32 0x8C379A000000000000000000000000000000000000000000000000000000000 DUP2 MSTORE PUSH1 0x4 ADD DUP1 DUP1 PUSH1 0x20 ADD DUP3 DUP2 SUB DUP3 MSTORE PUSH1 0x10 DUP2 MSTORE PUSH1 0x20 ADD DUP1 PUSH32 0x5061757361626C653A2070617573656400000000000000000000000000000000 DUP2 MSTORE POP PUSH1 0x20 ADD SWAP2 POP POP PUSH1 0x40 MLOAD DUP1 SWAP2 SUB SWAP1 REVERT JUMPDEST PUSH1 0x1 PUSH1 0x0 PUSH1 0x14 PUSH2 0x100 EXP DUP2 SLOAD DUP2 PUSH1 0xFF MUL NOT AND SWAP1 DUP4 ISZERO ISZERO MUL OR SWAP1 SSTORE POP PUSH32 0x62E78CEA01BEE320CD4E420270B5EA74000D11B0C9F74754EBDBFC544B05A258 PUSH2 0x1AA3 PUSH2 0x19DC JUMP JUMPDEST PUSH1 0x40 MLOAD DUP1 DUP3 PUSH20 0xFFFFFFFFFFFFFFFFFFFFFFFFFFFFFFFFFFFFFFFF AND DUP2 MSTORE PUSH1 0x20 ADD SWAP2 POP POP PUSH1 0x40 MLOAD DUP1 SWAP2 SUB SWAP1 LOG1 JUMP JUMPDEST PUSH2 0x1B6D DUP4 PUSH4 0xA9059CBB PUSH1 0xE0 SHL DUP5 DUP5 PUSH1 0x40 MLOAD PUSH1 0x24 ADD DUP1 DUP4 PUSH20 0xFFFFFFFFFFFFFFFFFFFFFFFFFFFFFFFFFFFFFFFF AND DUP2 MSTORE PUSH1 0x20 ADD DUP3 DUP2 MSTORE PUSH1 0x20 ADD SWAP3 POP POP POP PUSH1 0x40 MLOAD PUSH1 0x20 DUP2 DUP4 SUB SUB DUP2 MSTORE SWAP1 PUSH1 0x40 MSTORE SWAP1 PUSH28 0xFFFFFFFFFFFFFFFFFFFFFFFFFFFFFFFFFFFFFFFFFFFFFFFFFFFFFFFF NOT AND PUSH1 0x20 DUP3 ADD DUP1 MLOAD PUSH28 0xFFFFFFFFFFFFFFFFFFFFFFFFFFFFFFFFFFFFFFFFFFFFFFFFFFFFFFFF DUP4 DUP2 DUP4 AND OR DUP4 MSTORE POP POP POP POP PUSH2 0x1C85 JUMP JUMPDEST POP POP POP JUMP JUMPDEST PUSH2 0x1C2D DUP5 PUSH4 0x23B872DD PUSH1 0xE0 SHL DUP6 DUP6 DUP6 PUSH1 0x40 MLOAD PUSH1 0x24 ADD DUP1 DUP5 PUSH20 0xFFFFFFFFFFFFFFFFFFFFFFFFFFFFFFFFFFFFFFFF AND DUP2 MSTORE PUSH1 0x20 ADD DUP4 PUSH20 0xFFFFFFFFFFFFFFFFFFFFFFFFFFFFFFFFFFFFFFFF AND DUP2 MSTORE PUSH1 0x20 ADD DUP3 DUP2 MSTORE PUSH1 0x20 ADD SWAP4 POP POP POP POP PUSH1 0x40 MLOAD PUSH1 0x20 DUP2 DUP4 SUB SUB DUP2 MSTORE SWAP1 PUSH1 0x40 MSTORE SWAP1 PUSH28 0xFFFFFFFFFFFFFFFFFFFFFFFFFFFFFFFFFFFFFFFFFFFFFFFFFFFFFFFF NOT AND PUSH1 0x20 DUP3 ADD DUP1 MLOAD PUSH28 0xFFFFFFFFFFFFFFFFFFFFFFFFFFFFFFFFFFFFFFFFFFFFFFFFFFFFFFFF DUP4 DUP2 DUP4 AND OR DUP4 MSTORE POP POP POP POP PUSH2 0x1C85 JUMP JUMPDEST POP POP POP POP JUMP JUMPDEST PUSH1 0x0 PUSH3 0x15180 PUSH1 0x4 SLOAD ADD TIMESTAMP GT ISZERO PUSH2 0x1C54 JUMPI TIMESTAMP PUSH1 0x4 DUP2 SWAP1 SSTORE POP PUSH1 0x0 PUSH1 0x5 DUP2 SWAP1 SSTORE POP JUMPDEST PUSH1 0x3 SLOAD DUP3 PUSH1 0x5 SLOAD ADD GT DUP1 PUSH2 0x1C6D JUMPI POP PUSH1 0x5 SLOAD DUP3 PUSH1 0x5 SLOAD ADD LT JUMPDEST ISZERO PUSH2 0x1C7B JUMPI PUSH1 0x0 SWAP1 POP PUSH2 0x1C80 JUMP JUMPDEST PUSH1 0x1 SWAP1 POP JUMPDEST SWAP2 SWAP1 POP JUMP JUMPDEST PUSH1 0x60 PUSH2 0x1CE7 DUP3 PUSH1 0x40 MLOAD DUP1 PUSH1 0x40 ADD PUSH1 0x40 MSTORE DUP1 PUSH1 0x20 DUP2 MSTORE PUSH1 0x20 ADD PUSH32 0x5361666545524332303A206C6F772D6C6576656C2063616C6C206661696C6564 DUP2 MSTORE POP DUP6 PUSH20 0xFFFFFFFFFFFFFFFFFFFFFFFFFFFFFFFFFFFFFFFF AND PUSH2 0x18DA SWAP1 SWAP3 SWAP2 SWAP1 PUSH4 0xFFFFFFFF AND JUMP JUMPDEST SWAP1 POP PUSH1 0x0 DUP2 MLOAD GT ISZERO PUSH2 0x1D6F JUMPI DUP1 DUP1 PUSH1 0x20 ADD SWAP1 MLOAD PUSH1 0x20 DUP2 LT ISZERO PUSH2 0x1D08 JUMPI PUSH1 0x0 DUP1 REVERT JUMPDEST DUP2 ADD SWAP1 DUP1 DUP1 MLOAD SWAP1 PUSH1 0x20 ADD SWAP1 SWAP3 SWAP2 SWAP1 POP POP POP PUSH2 0x1D6E JUMPI PUSH1 0x40 MLOAD PUSH32 0x8C379A000000000000000000000000000000000000000000000000000000000 DUP2 MSTORE PUSH1 0x4 ADD DUP1 DUP1 PUSH1 0x20 ADD DUP3 DUP2 SUB DUP3 MSTORE PUSH1 0x2A DUP2 MSTORE PUSH1 0x20 ADD DUP1 PUSH2 0x2092 PUSH1 0x2A SWAP2 CODECOPY PUSH1 0x40 ADD SWAP2 POP POP PUSH1 0x40 MLOAD DUP1 SWAP2 SUB SWAP1 REVERT JUMPDEST JUMPDEST POP POP POP JUMP JUMPDEST PUSH1 0x60 DUP3 SELFBALANCE LT ISZERO PUSH2 0x1DCF JUMPI PUSH1 0x40 MLOAD PUSH32 0x8C379A000000000000000000000000000000000000000000000000000000000 DUP2 MSTORE PUSH1 0x4 ADD DUP1 DUP1 PUSH1 0x20 ADD DUP3 DUP2 SUB DUP3 MSTORE PUSH1 0x26 DUP2 MSTORE PUSH1 0x20 ADD DUP1 PUSH2 0x2044 PUSH1 0x26 SWAP2 CODECOPY PUSH1 0x40 ADD SWAP2 POP POP PUSH1 0x40 MLOAD DUP1 SWAP2 SUB SWAP1 REVERT JUMPDEST PUSH2 0x1DD8 DUP6 PUSH2 0x1F1D JUMP JUMPDEST PUSH2 0x1E4A JUMPI PUSH1 0x40 MLOAD PUSH32 0x8C379A000000000000000000000000000000000000000000000000000000000 DUP2 MSTORE PUSH1 0x4 ADD DUP1 DUP1 PUSH1 0x20 ADD DUP3 DUP2 SUB DUP3 MSTORE PUSH1 0x1D DUP2 MSTORE PUSH1 0x20 ADD DUP1 PUSH32 0x416464726573733A2063616C6C20746F206E6F6E2D636F6E7472616374000000 DUP2 MSTORE POP PUSH1 0x20 ADD SWAP2 POP POP PUSH1 0x40 MLOAD DUP1 SWAP2 SUB SWAP1 REVERT JUMPDEST PUSH1 0x0 PUSH1 0x60 DUP7 PUSH20 0xFFFFFFFFFFFFFFFFFFFFFFFFFFFFFFFFFFFFFFFF AND DUP6 DUP8 PUSH1 0x40 MLOAD DUP1 DUP3 DUP1 MLOAD SWAP1 PUSH1 0x20 ADD SWAP1 DUP1 DUP4 DUP4 JUMPDEST PUSH1 0x20 DUP4 LT PUSH2 0x1E9A JUMPI DUP1 MLOAD DUP3 MSTORE PUSH1 0x20 DUP3 ADD SWAP2 POP PUSH1 0x20 DUP2 ADD SWAP1 POP PUSH1 0x20 DUP4 SUB SWAP3 POP PUSH2 0x1E77 JUMP JUMPDEST PUSH1 0x1 DUP4 PUSH1 0x20 SUB PUSH2 0x100 EXP SUB DUP1 NOT DUP3 MLOAD AND DUP2 DUP5 MLOAD AND DUP1 DUP3 OR DUP6 MSTORE POP POP POP POP POP POP SWAP1 POP ADD SWAP2 POP POP PUSH1 0x0 PUSH1 0x40 MLOAD DUP1 DUP4 SUB DUP2 DUP6 DUP8 GAS CALL SWAP3 POP POP POP RETURNDATASIZE DUP1 PUSH1 0x0 DUP2 EQ PUSH2 0x1EFC JUMPI PUSH1 0x40 MLOAD SWAP2 POP PUSH1 0x1F NOT PUSH1 0x3F RETURNDATASIZE ADD AND DUP3 ADD PUSH1 0x40 MSTORE RETURNDATASIZE DUP3 MSTORE RETURNDATASIZE PUSH1 0x0 PUSH1 0x20 DUP5 ADD RETURNDATACOPY PUSH2 0x1F01 JUMP JUMPDEST PUSH1 0x60 SWAP2 POP JUMPDEST POP SWAP2 POP SWAP2 POP PUSH2 0x1F11 DUP3 DUP3 DUP7 PUSH2 0x1F30 JUMP JUMPDEST SWAP3 POP POP POP SWAP5 SWAP4 POP POP POP POP JUMP JUMPDEST PUSH1 0x0 DUP1 DUP3 EXTCODESIZE SWAP1 POP PUSH1 0x0 DUP2 GT SWAP2 POP POP SWAP2 SWAP1 POP JUMP JUMPDEST PUSH1 0x60 DUP4 ISZERO PUSH2 0x1F40 JUMPI DUP3 SWAP1 POP PUSH2 0x1FF5 JUMP JUMPDEST PUSH1 0x0 DUP4 MLOAD GT ISZERO PUSH2 0x1F53 JUMPI DUP3 MLOAD DUP1 DUP5 PUSH1 0x20 ADD REVERT JUMPDEST DUP2 PUSH1 0x40 MLOAD PUSH32 0x8C379A000000000000000000000000000000000000000000000000000000000 DUP2 MSTORE PUSH1 0x4 ADD DUP1 DUP1 PUSH1 0x20 ADD DUP3 DUP2 SUB DUP3 MSTORE DUP4 DUP2 DUP2 MLOAD DUP2 MSTORE PUSH1 0x20 ADD SWAP2 POP DUP1 MLOAD SWAP1 PUSH1 0x20 ADD SWAP1 DUP1 DUP4 DUP4 PUSH1 0x0 JUMPDEST DUP4 DUP2 LT ISZERO PUSH2 0x1FBA JUMPI DUP1 DUP3 ADD MLOAD DUP2 DUP5 ADD MSTORE PUSH1 0x20 DUP2 ADD SWAP1 POP PUSH2 0x1F9F JUMP JUMPDEST POP POP POP POP SWAP1 POP SWAP1 DUP2 ADD SWAP1 PUSH1 0x1F AND DUP1 ISZERO PUSH2 0x1FE7 JUMPI DUP1 DUP3 SUB DUP1 MLOAD PUSH1 0x1 DUP4 PUSH1 0x20 SUB PUSH2 0x100 EXP SUB NOT AND DUP2 MSTORE PUSH1 0x20 ADD SWAP2 POP JUMPDEST POP SWAP3 POP POP POP PUSH1 0x40 MLOAD DUP1 SWAP2 SUB SWAP1 REVERT JUMPDEST SWAP4 SWAP3 POP POP POP JUMP INVALID 0x49 PUSH15 0x73756666696369656E7420696E6365 PUSH15 0x746976657320617661696C61626C65 0x4F PUSH24 0x6E61626C653A206E6577206F776E65722069732074686520 PUSH27 0x65726F2061646472657373416464726573733A20696E7375666669 PUSH4 0x69656E74 KECCAK256 PUSH3 0x616C61 PUSH15 0x636520666F722063616C6C546F6B65 PUSH15 0x2063616E6E6F742062652073616D65 KECCAK256 PUSH2 0x7320 PUSH10 0x6E63656E746976657320 PUSH21 0x6F6B656E5361666545524332303A20455243323020 PUSH16 0x7065726174696F6E20646964206E6F74 KECCAK256 PUSH20 0x7563636565645361666545524332303A20617070 PUSH19 0x6F76652066726F6D206E6F6E2D7A65726F2074 PUSH16 0x206E6F6E2D7A65726F20616C6C6F7761 PUSH15 0x6365A26469706673582212209E8D3B SWAP13 MSIZE PUSH9 0x495F663085B31A831A 0xF6 0x24 PUSH17 0xBE7523BC84B98EB76AF87DDEDDB164736F PUSH13 0x63430007050033416464726573 PUSH20 0x3A20696E73756666696369656E742062616C616E PUSH4 0x6520666F PUSH19 0x2063616C6C5361666545524332303A20455243 ORIGIN ADDRESS KECCAK256 PUSH16 0x7065726174696F6E20646964206E6F74 KECCAK256 PUSH20 0x7563636565645361666545524332303A20617070 PUSH19 0x6F76652066726F6D206E6F6E2D7A65726F2074 PUSH16 0x206E6F6E2D7A65726F20616C6C6F7761 PUSH15 0x636500000000000000000000000000 "
				},
				"gasEstimates": {
					"creation": {
						"codeDepositCost": "1697400",
						"executionCost": "infinite",
						"totalCost": "infinite"
					},
					"external": {
						"admin()": "1135",
						"approvedSpender()": "1070",
						"dailyLimit()": "1073",
						"deposit(uint256)": "infinite",
						"getDailyLimit()": "1058",
						"inCaseTokensGetStuck(address)": "infinite",
						"lastDay()": "1095",
						"owner()": "1166",
						"pause()": "infinite",
						"paused()": "1151",
						"renounceOwnership()": "24374",
						"setAdmin(address)": "22102",
						"setDailyLimit(uint256)": "21275",
						"spentToday()": "1027",
						"token()": "infinite",
						"transferOwnership(address)": "infinite",
						"unpause()": "infinite",
						"withdraw(address,uint256)": "infinite",
						"withdrawAll()": "infinite"
					},
					"internal": {
						"isUnderLimit(uint256)": "29153"
					}
				},
				"methodIdentifiers": {
					"admin()": "f851a440",
					"approvedSpender()": "8ef57f5e",
					"dailyLimit()": "67eeba0c",
					"deposit(uint256)": "b6b55f25",
					"getDailyLimit()": "a6895b5a",
					"inCaseTokensGetStuck(address)": "def68a9c",
					"lastDay()": "6b0c932d",
					"owner()": "8da5cb5b",
					"pause()": "8456cb59",
					"paused()": "5c975abb",
					"renounceOwnership()": "715018a6",
					"setAdmin(address)": "704b6c02",
					"setDailyLimit(uint256)": "b20d30a9",
					"spentToday()": "f059cf2b",
					"token()": "fc0c546a",
					"transferOwnership(address)": "f2fde38b",
					"unpause()": "3f4ba83a",
					"withdraw(address,uint256)": "f3fef3a3",
					"withdrawAll()": "853828b6"
				}
			},
			"storageLayout": {
				"storage": [
					{
						"astId": 395,
						"contract": "contracts/Omnidex-incentives/incentives/TempIncentivesVault.sol:TempIncentivesVault",
						"label": "_owner",
						"offset": 0,
						"slot": "0",
						"type": "t_address"
					},
					{
						"astId": 1480,
						"contract": "contracts/Omnidex-incentives/incentives/TempIncentivesVault.sol:TempIncentivesVault",
						"label": "_paused",
						"offset": 20,
						"slot": "0",
						"type": "t_bool"
					},
					{
						"astId": 20,
						"contract": "contracts/Omnidex-incentives/incentives/TempIncentivesVault.sol:TempIncentivesVault",
						"label": "admin",
						"offset": 0,
						"slot": "1",
						"type": "t_address"
					},
					{
						"astId": 22,
						"contract": "contracts/Omnidex-incentives/incentives/TempIncentivesVault.sol:TempIncentivesVault",
						"label": "approvedSpender",
						"offset": 0,
						"slot": "2",
						"type": "t_address"
					},
					{
						"astId": 24,
						"contract": "contracts/Omnidex-incentives/incentives/TempIncentivesVault.sol:TempIncentivesVault",
						"label": "dailyLimit",
						"offset": 0,
						"slot": "3",
						"type": "t_uint256"
					},
					{
						"astId": 26,
						"contract": "contracts/Omnidex-incentives/incentives/TempIncentivesVault.sol:TempIncentivesVault",
						"label": "lastDay",
						"offset": 0,
						"slot": "4",
						"type": "t_uint256"
					},
					{
						"astId": 28,
						"contract": "contracts/Omnidex-incentives/incentives/TempIncentivesVault.sol:TempIncentivesVault",
						"label": "spentToday",
						"offset": 0,
						"slot": "5",
						"type": "t_uint256"
					}
				],
				"types": {
					"t_address": {
						"encoding": "inplace",
						"label": "address",
						"numberOfBytes": "20"
					},
					"t_bool": {
						"encoding": "inplace",
						"label": "bool",
						"numberOfBytes": "1"
					},
					"t_uint256": {
						"encoding": "inplace",
						"label": "uint256",
						"numberOfBytes": "32"
					}
				}
			},
			"userdoc": {
				"kind": "user",
				"methods": {
					"constructor": {
						"notice": "Constructor"
					},
					"deposit(uint256)": {
						"notice": "Deposits funds into the  Vault"
					},
					"inCaseTokensGetStuck(address)": {
						"notice": "Withdraw unexpected tokens sent to the Charm Vault"
					},
					"pause()": {
						"notice": "Triggers stopped state"
					},
					"setAdmin(address)": {
						"notice": "Sets admin address"
					},
					"setDailyLimit(uint256)": {
						"notice": "Sets new daily limit"
					},
					"unpause()": {
						"notice": "Returns to normal state"
					},
					"withdraw(address,uint256)": {
						"notice": "Withdraws incentives from funds in the Vaultcan only be called by authorised spenders"
					},
					"withdrawAll()": {
						"notice": "Withdraws all funds back to owner"
					}
				},
				"version": 1
			}
		}
	}
}