{
	"contracts/Omnidex-incentives/incentives/base/DistributionManager.sol": {
		"DistributionManager": {
			"abi": [
				{
					"inputs": [
						{
							"internalType": "address",
							"name": "emissionManager",
							"type": "address"
						}
					],
					"stateMutability": "nonpayable",
					"type": "constructor"
				},
				{
					"anonymous": false,
					"inputs": [
						{
							"indexed": true,
							"internalType": "address",
							"name": "asset",
							"type": "address"
						},
						{
							"indexed": false,
							"internalType": "uint256",
							"name": "emission",
							"type": "uint256"
						}
					],
					"name": "AssetConfigUpdated",
					"type": "event"
				},
				{
					"anonymous": false,
					"inputs": [
						{
							"indexed": true,
							"internalType": "address",
							"name": "asset",
							"type": "address"
						},
						{
							"indexed": false,
							"internalType": "uint256",
							"name": "index",
							"type": "uint256"
						}
					],
					"name": "AssetIndexUpdated",
					"type": "event"
				},
				{
					"anonymous": false,
					"inputs": [
						{
							"indexed": false,
							"internalType": "uint256",
							"name": "newDistributionEnd",
							"type": "uint256"
						}
					],
					"name": "DistributionEndUpdated",
					"type": "event"
				},
				{
					"anonymous": false,
					"inputs": [
						{
							"indexed": true,
							"internalType": "address",
							"name": "user",
							"type": "address"
						},
						{
							"indexed": true,
							"internalType": "address",
							"name": "asset",
							"type": "address"
						},
						{
							"indexed": false,
							"internalType": "uint256",
							"name": "index",
							"type": "uint256"
						}
					],
					"name": "UserIndexUpdated",
					"type": "event"
				},
				{
					"inputs": [],
					"name": "DISTRIBUTION_END",
					"outputs": [
						{
							"internalType": "uint256",
							"name": "",
							"type": "uint256"
						}
					],
					"stateMutability": "view",
					"type": "function"
				},
				{
					"inputs": [],
					"name": "EMISSION_MANAGER",
					"outputs": [
						{
							"internalType": "address",
							"name": "",
							"type": "address"
						}
					],
					"stateMutability": "view",
					"type": "function"
				},
				{
					"inputs": [],
					"name": "PRECISION",
					"outputs": [
						{
							"internalType": "uint8",
							"name": "",
							"type": "uint8"
						}
					],
					"stateMutability": "view",
					"type": "function"
				},
				{
					"inputs": [
						{
							"internalType": "address",
							"name": "",
							"type": "address"
						}
					],
					"name": "assets",
					"outputs": [
						{
							"internalType": "uint104",
							"name": "emissionPerSecond",
							"type": "uint104"
						},
						{
							"internalType": "uint104",
							"name": "index",
							"type": "uint104"
						},
						{
							"internalType": "uint40",
							"name": "lastUpdateTimestamp",
							"type": "uint40"
						}
					],
					"stateMutability": "view",
					"type": "function"
				},
				{
					"inputs": [
						{
							"internalType": "address",
							"name": "asset",
							"type": "address"
						}
					],
					"name": "getAssetData",
					"outputs": [
						{
							"internalType": "uint256",
							"name": "",
							"type": "uint256"
						},
						{
							"internalType": "uint256",
							"name": "",
							"type": "uint256"
						},
						{
							"internalType": "uint256",
							"name": "",
							"type": "uint256"
						}
					],
					"stateMutability": "view",
					"type": "function"
				},
				{
					"inputs": [],
					"name": "getDistributionEnd",
					"outputs": [
						{
							"internalType": "uint256",
							"name": "",
							"type": "uint256"
						}
					],
					"stateMutability": "view",
					"type": "function"
				},
				{
					"inputs": [
						{
							"internalType": "address",
							"name": "user",
							"type": "address"
						},
						{
							"internalType": "address",
							"name": "asset",
							"type": "address"
						}
					],
					"name": "getUserAssetData",
					"outputs": [
						{
							"internalType": "uint256",
							"name": "",
							"type": "uint256"
						}
					],
					"stateMutability": "view",
					"type": "function"
				},
				{
					"inputs": [
						{
							"internalType": "uint256",
							"name": "distributionEnd",
							"type": "uint256"
						}
					],
					"name": "setDistributionEnd",
					"outputs": [],
					"stateMutability": "nonpayable",
					"type": "function"
				}
			],
			"devdoc": {
				"author": "Omnidex*",
				"kind": "dev",
				"methods": {
					"DISTRIBUTION_END()": {
						"details": "for backwards compatibility with the previous DistributionManager used",
						"returns": {
							"_0": "The end of the distribution*"
						}
					},
					"getAssetData(address)": {
						"details": "Returns the configuration of the distribution for a certain asset",
						"params": {
							"asset": "The address of the reference asset of the distribution"
						},
						"returns": {
							"_0": "The asset index, the emission per second and the last updated timestamp*"
						}
					},
					"getDistributionEnd()": {
						"details": "Gets the end date for the distribution",
						"returns": {
							"_0": "The end of the distribution*"
						}
					},
					"getUserAssetData(address,address)": {
						"details": "Returns the data of an user on a distribution",
						"params": {
							"asset": "The address of the reference asset of the distribution",
							"user": "Address of the user"
						},
						"returns": {
							"_0": "The new index*"
						}
					},
					"setDistributionEnd(uint256)": {
						"details": "Sets the end date for the distribution",
						"params": {
							"distributionEnd": "The end date timestamp*"
						}
					}
				},
				"title": "DistributionManager",
				"version": 1
			},
			"evm": {
				"assembly": "    /* \"contracts/Omnidex-incentives/incentives/base/DistributionManager.sol\":449:8871  contract DistributionManager is IOmnidexDistributionManager {\r... */\n  mstore(0x40, 0xa0)\n    /* \"contracts/Omnidex-incentives/incentives/base/DistributionManager.sol\":1004:1088  constructor(address emissionManager) {\r... */\n  callvalue\n  dup1\n  iszero\n  tag_1\n  jumpi\n  0x00\n  dup1\n  revert\ntag_1:\n  pop\n  mload(0x40)\n  sub(codesize, bytecodeSize)\n  dup1\n  bytecodeSize\n  dup4\n  codecopy\n  dup2\n  dup2\n  add\n  0x40\n  mstore\n  dup2\n  add\n  swap1\n  tag_2\n  swap2\n  swap1\n  tag_3\n  jump\t// in\ntag_2:\n    /* \"contracts/Omnidex-incentives/incentives/base/DistributionManager.sol\":1067:1082  emissionManager */\n  dup1\n    /* \"contracts/Omnidex-incentives/incentives/base/DistributionManager.sol\":1048:1082  EMISSION_MANAGER = emissionManager */\n  0xffffffffffffffffffffffffffffffffffffffff\n  and\n  0x80\n  dup2\n  0xffffffffffffffffffffffffffffffffffffffff\n  and\n  0x60\n  shl\n  dup2\n  mstore\n  pop\n  pop\n    /* \"contracts/Omnidex-incentives/incentives/base/DistributionManager.sol\":1004:1088  constructor(address emissionManager) {\r... */\n  pop\n    /* \"contracts/Omnidex-incentives/incentives/base/DistributionManager.sol\":449:8871  contract DistributionManager is IOmnidexDistributionManager {\r... */\n  jump(tag_6)\n    /* \"#utility.yul\":7:150   */\ntag_8:\n  0x00\n    /* \"#utility.yul\":95:101   */\n  dup2\n    /* \"#utility.yul\":89:102   */\n  mload\n    /* \"#utility.yul\":80:102   */\n  swap1\n  pop\n    /* \"#utility.yul\":111:144   */\n  tag_10\n    /* \"#utility.yul\":138:143   */\n  dup2\n    /* \"#utility.yul\":111:144   */\n  tag_11\n  jump\t// in\ntag_10:\n    /* \"#utility.yul\":70:150   */\n  swap3\n  swap2\n  pop\n  pop\n  jump\t// out\n    /* \"#utility.yul\":156:438   */\ntag_3:\n  0x00\n    /* \"#utility.yul\":275:277   */\n  0x20\n    /* \"#utility.yul\":263:272   */\n  dup3\n    /* \"#utility.yul\":254:261   */\n  dup5\n    /* \"#utility.yul\":250:273   */\n  sub\n    /* \"#utility.yul\":246:278   */\n  slt\n    /* \"#utility.yul\":243:245   */\n  iszero\n  tag_13\n  jumpi\n    /* \"#utility.yul\":291:292   */\n  0x00\n    /* \"#utility.yul\":288:289   */\n  dup1\n    /* \"#utility.yul\":281:293   */\n  revert\n    /* \"#utility.yul\":243:245   */\ntag_13:\n    /* \"#utility.yul\":333:334   */\n  0x00\n    /* \"#utility.yul\":357:421   */\n  tag_14\n    /* \"#utility.yul\":413:420   */\n  dup5\n    /* \"#utility.yul\":404:410   */\n  dup3\n    /* \"#utility.yul\":393:402   */\n  dup6\n    /* \"#utility.yul\":389:411   */\n  add\n    /* \"#utility.yul\":357:421   */\n  tag_8\n  jump\t// in\ntag_14:\n    /* \"#utility.yul\":347:421   */\n  swap2\n  pop\n    /* \"#utility.yul\":305:431   */\n  pop\n    /* \"#utility.yul\":233:438   */\n  swap3\n  swap2\n  pop\n  pop\n  jump\t// out\n    /* \"#utility.yul\":444:540   */\ntag_15:\n  0x00\n    /* \"#utility.yul\":510:534   */\n  tag_17\n    /* \"#utility.yul\":528:533   */\n  dup3\n    /* \"#utility.yul\":510:534   */\n  tag_18\n  jump\t// in\ntag_17:\n    /* \"#utility.yul\":499:534   */\n  swap1\n  pop\n    /* \"#utility.yul\":489:540   */\n  swap2\n  swap1\n  pop\n  jump\t// out\n    /* \"#utility.yul\":546:672   */\ntag_18:\n  0x00\n    /* \"#utility.yul\":623:665   */\n  0xffffffffffffffffffffffffffffffffffffffff\n    /* \"#utility.yul\":616:621   */\n  dup3\n    /* \"#utility.yul\":612:666   */\n  and\n    /* \"#utility.yul\":601:666   */\n  swap1\n  pop\n    /* \"#utility.yul\":591:672   */\n  swap2\n  swap1\n  pop\n  jump\t// out\n    /* \"#utility.yul\":678:800   */\ntag_11:\n    /* \"#utility.yul\":751:775   */\n  tag_21\n    /* \"#utility.yul\":769:774   */\n  dup2\n    /* \"#utility.yul\":751:775   */\n  tag_15\n  jump\t// in\ntag_21:\n    /* \"#utility.yul\":744:749   */\n  dup2\n    /* \"#utility.yul\":741:776   */\n  eq\n    /* \"#utility.yul\":731:733   */\n  tag_22\n  jumpi\n    /* \"#utility.yul\":790:791   */\n  0x00\n    /* \"#utility.yul\":787:788   */\n  dup1\n    /* \"#utility.yul\":780:792   */\n  revert\n    /* \"#utility.yul\":731:733   */\ntag_22:\n    /* \"#utility.yul\":721:800   */\n  pop\n  jump\t// out\n    /* \"contracts/Omnidex-incentives/incentives/base/DistributionManager.sol\":449:8871  contract DistributionManager is IOmnidexDistributionManager {\r... */\ntag_6:\n  shr(0x60, mload(0x80))\n  codecopy(0x00, dataOffset(sub_0), dataSize(sub_0))\n  assignImmutable(\"0xfb72c19603b99a84eb94b2a957c683e899e1d0f4b28e255e051e7f1b190ba3b8\")\n  return(0x00, dataSize(sub_0))\nstop\n\nsub_0: assembly {\n        /* \"contracts/Omnidex-incentives/incentives/base/DistributionManager.sol\":449:8871  contract DistributionManager is IOmnidexDistributionManager {\r... */\n      mstore(0x40, 0x80)\n      callvalue\n      dup1\n      iszero\n      tag_1\n      jumpi\n      0x00\n      dup1\n      revert\n    tag_1:\n      pop\n      jumpi(tag_2, lt(calldatasize, 0x04))\n      shr(0xe0, calldataload(0x00))\n      dup1\n      0xaaf5eb68\n      gt\n      tag_11\n      jumpi\n      dup1\n      0xaaf5eb68\n      eq\n      tag_7\n      jumpi\n      dup1\n      0xcbcbb507\n      eq\n      tag_8\n      jumpi\n      dup1\n      0xcc69afec\n      eq\n      tag_9\n      jumpi\n      dup1\n      0xf11b8188\n      eq\n      tag_10\n      jumpi\n      jump(tag_2)\n    tag_11:\n      dup1\n      0x1652e7b7\n      eq\n      tag_3\n      jumpi\n      dup1\n      0x3373ee4c\n      eq\n      tag_4\n      jumpi\n      dup1\n      0x39ccbdd3\n      eq\n      tag_5\n      jumpi\n      dup1\n      0x919cd40f\n      eq\n      tag_6\n      jumpi\n    tag_2:\n      0x00\n      dup1\n      revert\n        /* \"contracts/Omnidex-incentives/incentives/base/DistributionManager.sol\":1893:2096  function getAssetData(address asset) public view override returns (uint256, uint256, uint256) {\r... */\n    tag_3:\n      tag_12\n      0x04\n      dup1\n      calldatasize\n      sub\n      dup2\n      add\n      swap1\n      tag_13\n      swap2\n      swap1\n      tag_14\n      jump\t// in\n    tag_13:\n      tag_15\n      jump\t// in\n    tag_12:\n      mload(0x40)\n      tag_16\n      swap4\n      swap3\n      swap2\n      swap1\n      tag_17\n      jump\t// in\n    tag_16:\n      mload(0x40)\n      dup1\n      swap2\n      sub\n      swap1\n      return\n        /* \"contracts/Omnidex-incentives/incentives/base/DistributionManager.sol\":1701:1840  function getUserAssetData(address user, address asset) public view override returns (uint256) {\r... */\n    tag_4:\n      tag_18\n      0x04\n      dup1\n      calldatasize\n      sub\n      dup2\n      add\n      swap1\n      tag_19\n      swap2\n      swap1\n      tag_20\n      jump\t// in\n    tag_19:\n      tag_21\n      jump\t// in\n    tag_18:\n      mload(0x40)\n      tag_22\n      swap2\n      swap1\n      tag_23\n      jump\t// in\n    tag_22:\n      mload(0x40)\n      dup1\n      swap2\n      sub\n      swap1\n      return\n        /* \"contracts/Omnidex-incentives/incentives/base/DistributionManager.sol\":1141:1330  function setDistributionEnd(uint256 distributionEnd) external override onlyEmissionManager {\r... */\n    tag_5:\n      tag_24\n      0x04\n      dup1\n      calldatasize\n      sub\n      dup2\n      add\n      swap1\n      tag_25\n      swap2\n      swap1\n      tag_26\n      jump\t// in\n    tag_25:\n      tag_27\n      jump\t// in\n    tag_24:\n      stop\n        /* \"contracts/Omnidex-incentives/incentives/base/DistributionManager.sol\":1543:1648  function DISTRIBUTION_END() external view override returns (uint256) {\r... */\n    tag_6:\n      tag_28\n      tag_29\n      jump\t// in\n    tag_28:\n      mload(0x40)\n      tag_30\n      swap2\n      swap1\n      tag_23\n      jump\t// in\n    tag_30:\n      mload(0x40)\n      dup1\n      swap2\n      sub\n      swap1\n      return\n        /* \"contracts/Omnidex-incentives/incentives/base/DistributionManager.sol\":749:785  uint8 public constant PRECISION = 18 */\n    tag_7:\n      tag_31\n      tag_32\n      jump\t// in\n    tag_31:\n      mload(0x40)\n      tag_33\n      swap2\n      swap1\n      tag_34\n      jump\t// in\n    tag_33:\n      mload(0x40)\n      dup1\n      swap2\n      sub\n      swap1\n      return\n        /* \"contracts/Omnidex-incentives/incentives/base/DistributionManager.sol\":701:742  address public immutable EMISSION_MANAGER */\n    tag_8:\n      tag_35\n      tag_36\n      jump\t// in\n    tag_35:\n      mload(0x40)\n      tag_37\n      swap2\n      swap1\n      tag_38\n      jump\t// in\n    tag_37:\n      mload(0x40)\n      dup1\n      swap2\n      sub\n      swap1\n      return\n        /* \"contracts/Omnidex-incentives/incentives/base/DistributionManager.sol\":1383:1490  function getDistributionEnd() external view override returns (uint256) {\r... */\n    tag_9:\n      tag_39\n      tag_40\n      jump\t// in\n    tag_39:\n      mload(0x40)\n      tag_41\n      swap2\n      swap1\n      tag_23\n      jump\t// in\n    tag_41:\n      mload(0x40)\n      dup1\n      swap2\n      sub\n      swap1\n      return\n        /* \"contracts/Omnidex-incentives/incentives/base/DistributionManager.sol\":792:835  mapping(address => AssetData) public assets */\n    tag_10:\n      tag_42\n      0x04\n      dup1\n      calldatasize\n      sub\n      dup2\n      add\n      swap1\n      tag_43\n      swap2\n      swap1\n      tag_14\n      jump\t// in\n    tag_43:\n      tag_44\n      jump\t// in\n    tag_42:\n      mload(0x40)\n      tag_45\n      swap4\n      swap3\n      swap2\n      swap1\n      tag_46\n      jump\t// in\n    tag_45:\n      mload(0x40)\n      dup1\n      swap2\n      sub\n      swap1\n      return\n        /* \"contracts/Omnidex-incentives/incentives/base/DistributionManager.sol\":1893:2096  function getAssetData(address asset) public view override returns (uint256, uint256, uint256) {\r... */\n    tag_15:\n        /* \"contracts/Omnidex-incentives/incentives/base/DistributionManager.sol\":1960:1967  uint256 */\n      0x00\n        /* \"contracts/Omnidex-incentives/incentives/base/DistributionManager.sol\":1969:1976  uint256 */\n      dup1\n        /* \"contracts/Omnidex-incentives/incentives/base/DistributionManager.sol\":1978:1985  uint256 */\n      0x00\n        /* \"contracts/Omnidex-incentives/incentives/base/DistributionManager.sol\":2002:2008  assets */\n      dup1\n        /* \"contracts/Omnidex-incentives/incentives/base/DistributionManager.sol\":2002:2015  assets[asset] */\n      0x00\n        /* \"contracts/Omnidex-incentives/incentives/base/DistributionManager.sol\":2009:2014  asset */\n      dup6\n        /* \"contracts/Omnidex-incentives/incentives/base/DistributionManager.sol\":2002:2015  assets[asset] */\n      0xffffffffffffffffffffffffffffffffffffffff\n      and\n      0xffffffffffffffffffffffffffffffffffffffff\n      and\n      dup2\n      mstore\n      0x20\n      add\n      swap1\n      dup2\n      mstore\n      0x20\n      add\n      0x00\n      keccak256\n        /* \"contracts/Omnidex-incentives/incentives/base/DistributionManager.sol\":2002:2021  assets[asset].index */\n      0x00\n      add\n      0x0d\n      swap1\n      sload\n      swap1\n      0x0100\n      exp\n      swap1\n      div\n      0xffffffffffffffffffffffffff\n      and\n        /* \"contracts/Omnidex-incentives/incentives/base/DistributionManager.sol\":2023:2029  assets */\n      0x00\n        /* \"contracts/Omnidex-incentives/incentives/base/DistributionManager.sol\":2023:2036  assets[asset] */\n      dup1\n        /* \"contracts/Omnidex-incentives/incentives/base/DistributionManager.sol\":2030:2035  asset */\n      dup7\n        /* \"contracts/Omnidex-incentives/incentives/base/DistributionManager.sol\":2023:2036  assets[asset] */\n      0xffffffffffffffffffffffffffffffffffffffff\n      and\n      0xffffffffffffffffffffffffffffffffffffffff\n      and\n      dup2\n      mstore\n      0x20\n      add\n      swap1\n      dup2\n      mstore\n      0x20\n      add\n      0x00\n      keccak256\n        /* \"contracts/Omnidex-incentives/incentives/base/DistributionManager.sol\":2023:2054  assets[asset].emissionPerSecond */\n      0x00\n      add\n      0x00\n      swap1\n      sload\n      swap1\n      0x0100\n      exp\n      swap1\n      div\n      0xffffffffffffffffffffffffff\n      and\n        /* \"contracts/Omnidex-incentives/incentives/base/DistributionManager.sol\":2056:2062  assets */\n      0x00\n        /* \"contracts/Omnidex-incentives/incentives/base/DistributionManager.sol\":2056:2069  assets[asset] */\n      dup1\n        /* \"contracts/Omnidex-incentives/incentives/base/DistributionManager.sol\":2063:2068  asset */\n      dup8\n        /* \"contracts/Omnidex-incentives/incentives/base/DistributionManager.sol\":2056:2069  assets[asset] */\n      0xffffffffffffffffffffffffffffffffffffffff\n      and\n      0xffffffffffffffffffffffffffffffffffffffff\n      and\n      dup2\n      mstore\n      0x20\n      add\n      swap1\n      dup2\n      mstore\n      0x20\n      add\n      0x00\n      keccak256\n        /* \"contracts/Omnidex-incentives/incentives/base/DistributionManager.sol\":2056:2089  assets[asset].lastUpdateTimestamp */\n      0x00\n      add\n      0x1a\n      swap1\n      sload\n      swap1\n      0x0100\n      exp\n      swap1\n      div\n      0xffffffffff\n      and\n        /* \"contracts/Omnidex-incentives/incentives/base/DistributionManager.sol\":1994:2090  return (assets[asset].index, assets[asset].emissionPerSecond, assets[asset].lastUpdateTimestamp) */\n      dup3\n      0xffffffffffffffffffffffffff\n      and\n      swap3\n      pop\n      dup2\n      0xffffffffffffffffffffffffff\n      and\n      swap2\n      pop\n      dup1\n      0xffffffffff\n      and\n      swap1\n      pop\n      swap3\n      pop\n      swap3\n      pop\n      swap3\n      pop\n        /* \"contracts/Omnidex-incentives/incentives/base/DistributionManager.sol\":1893:2096  function getAssetData(address asset) public view override returns (uint256, uint256, uint256) {\r... */\n      swap2\n      swap4\n      swap1\n      swap3\n      pop\n      jump\t// out\n        /* \"contracts/Omnidex-incentives/incentives/base/DistributionManager.sol\":1701:1840  function getUserAssetData(address user, address asset) public view override returns (uint256) {\r... */\n    tag_21:\n        /* \"contracts/Omnidex-incentives/incentives/base/DistributionManager.sol\":1786:1793  uint256 */\n      0x00\n        /* \"contracts/Omnidex-incentives/incentives/base/DistributionManager.sol\":1809:1815  assets */\n      dup1\n        /* \"contracts/Omnidex-incentives/incentives/base/DistributionManager.sol\":1809:1822  assets[asset] */\n      0x00\n        /* \"contracts/Omnidex-incentives/incentives/base/DistributionManager.sol\":1816:1821  asset */\n      dup4\n        /* \"contracts/Omnidex-incentives/incentives/base/DistributionManager.sol\":1809:1822  assets[asset] */\n      0xffffffffffffffffffffffffffffffffffffffff\n      and\n      0xffffffffffffffffffffffffffffffffffffffff\n      and\n      dup2\n      mstore\n      0x20\n      add\n      swap1\n      dup2\n      mstore\n      0x20\n      add\n      0x00\n      keccak256\n        /* \"contracts/Omnidex-incentives/incentives/base/DistributionManager.sol\":1809:1828  assets[asset].users */\n      0x01\n      add\n        /* \"contracts/Omnidex-incentives/incentives/base/DistributionManager.sol\":1809:1834  assets[asset].users[user] */\n      0x00\n        /* \"contracts/Omnidex-incentives/incentives/base/DistributionManager.sol\":1829:1833  user */\n      dup5\n        /* \"contracts/Omnidex-incentives/incentives/base/DistributionManager.sol\":1809:1834  assets[asset].users[user] */\n      0xffffffffffffffffffffffffffffffffffffffff\n      and\n      0xffffffffffffffffffffffffffffffffffffffff\n      and\n      dup2\n      mstore\n      0x20\n      add\n      swap1\n      dup2\n      mstore\n      0x20\n      add\n      0x00\n      keccak256\n      sload\n        /* \"contracts/Omnidex-incentives/incentives/base/DistributionManager.sol\":1802:1834  return assets[asset].users[user] */\n      swap1\n      pop\n        /* \"contracts/Omnidex-incentives/incentives/base/DistributionManager.sol\":1701:1840  function getUserAssetData(address user, address asset) public view override returns (uint256) {\r... */\n      swap3\n      swap2\n      pop\n      pop\n      jump\t// out\n        /* \"contracts/Omnidex-incentives/incentives/base/DistributionManager.sol\":1141:1330  function setDistributionEnd(uint256 distributionEnd) external override onlyEmissionManager {\r... */\n    tag_27:\n        /* \"contracts/Omnidex-incentives/incentives/base/DistributionManager.sol\":942:958  EMISSION_MANAGER */\n      immutable(\"0xfb72c19603b99a84eb94b2a957c683e899e1d0f4b28e255e051e7f1b190ba3b8\")\n        /* \"contracts/Omnidex-incentives/incentives/base/DistributionManager.sol\":928:958  msg.sender == EMISSION_MANAGER */\n      0xffffffffffffffffffffffffffffffffffffffff\n      and\n        /* \"contracts/Omnidex-incentives/incentives/base/DistributionManager.sol\":928:938  msg.sender */\n      caller\n        /* \"contracts/Omnidex-incentives/incentives/base/DistributionManager.sol\":928:958  msg.sender == EMISSION_MANAGER */\n      0xffffffffffffffffffffffffffffffffffffffff\n      and\n      eq\n        /* \"contracts/Omnidex-incentives/incentives/base/DistributionManager.sol\":920:984  require(msg.sender == EMISSION_MANAGER, 'ONLY_EMISSION_MANAGER') */\n      tag_50\n      jumpi\n      mload(0x40)\n      0x08c379a000000000000000000000000000000000000000000000000000000000\n      dup2\n      mstore\n      0x04\n      add\n      tag_51\n      swap1\n      tag_52\n      jump\t// in\n    tag_51:\n      mload(0x40)\n      dup1\n      swap2\n      sub\n      swap1\n      revert\n    tag_50:\n        /* \"contracts/Omnidex-incentives/incentives/base/DistributionManager.sol\":1258:1273  distributionEnd */\n      dup1\n        /* \"contracts/Omnidex-incentives/incentives/base/DistributionManager.sol\":1239:1255  _distributionEnd */\n      0x01\n        /* \"contracts/Omnidex-incentives/incentives/base/DistributionManager.sol\":1239:1273  _distributionEnd = distributionEnd */\n      dup2\n      swap1\n      sstore\n      pop\n        /* \"contracts/Omnidex-incentives/incentives/base/DistributionManager.sol\":1285:1324  DistributionEndUpdated(distributionEnd) */\n      0x1cc1849a6602c3e91f2088cadea4381cc5717f2f28584197060ed2ebb434c16f\n        /* \"contracts/Omnidex-incentives/incentives/base/DistributionManager.sol\":1308:1323  distributionEnd */\n      dup2\n        /* \"contracts/Omnidex-incentives/incentives/base/DistributionManager.sol\":1285:1324  DistributionEndUpdated(distributionEnd) */\n      mload(0x40)\n      tag_54\n      swap2\n      swap1\n      tag_23\n      jump\t// in\n    tag_54:\n      mload(0x40)\n      dup1\n      swap2\n      sub\n      swap1\n      log1\n        /* \"contracts/Omnidex-incentives/incentives/base/DistributionManager.sol\":1141:1330  function setDistributionEnd(uint256 distributionEnd) external override onlyEmissionManager {\r... */\n      pop\n      jump\t// out\n        /* \"contracts/Omnidex-incentives/incentives/base/DistributionManager.sol\":1543:1648  function DISTRIBUTION_END() external view override returns (uint256) {\r... */\n    tag_29:\n        /* \"contracts/Omnidex-incentives/incentives/base/DistributionManager.sol\":1603:1610  uint256 */\n      0x00\n        /* \"contracts/Omnidex-incentives/incentives/base/DistributionManager.sol\":1626:1642  _distributionEnd */\n      sload(0x01)\n        /* \"contracts/Omnidex-incentives/incentives/base/DistributionManager.sol\":1619:1642  return _distributionEnd */\n      swap1\n      pop\n        /* \"contracts/Omnidex-incentives/incentives/base/DistributionManager.sol\":1543:1648  function DISTRIBUTION_END() external view override returns (uint256) {\r... */\n      swap1\n      jump\t// out\n        /* \"contracts/Omnidex-incentives/incentives/base/DistributionManager.sol\":749:785  uint8 public constant PRECISION = 18 */\n    tag_32:\n        /* \"contracts/Omnidex-incentives/incentives/base/DistributionManager.sol\":783:785  18 */\n      0x12\n        /* \"contracts/Omnidex-incentives/incentives/base/DistributionManager.sol\":749:785  uint8 public constant PRECISION = 18 */\n      dup2\n      jump\t// out\n        /* \"contracts/Omnidex-incentives/incentives/base/DistributionManager.sol\":701:742  address public immutable EMISSION_MANAGER */\n    tag_36:\n      immutable(\"0xfb72c19603b99a84eb94b2a957c683e899e1d0f4b28e255e051e7f1b190ba3b8\")\n      dup2\n      jump\t// out\n        /* \"contracts/Omnidex-incentives/incentives/base/DistributionManager.sol\":1383:1490  function getDistributionEnd() external view override returns (uint256) {\r... */\n    tag_40:\n        /* \"contracts/Omnidex-incentives/incentives/base/DistributionManager.sol\":1445:1452  uint256 */\n      0x00\n        /* \"contracts/Omnidex-incentives/incentives/base/DistributionManager.sol\":1468:1484  _distributionEnd */\n      sload(0x01)\n        /* \"contracts/Omnidex-incentives/incentives/base/DistributionManager.sol\":1461:1484  return _distributionEnd */\n      swap1\n      pop\n        /* \"contracts/Omnidex-incentives/incentives/base/DistributionManager.sol\":1383:1490  function getDistributionEnd() external view override returns (uint256) {\r... */\n      swap1\n      jump\t// out\n        /* \"contracts/Omnidex-incentives/incentives/base/DistributionManager.sol\":792:835  mapping(address => AssetData) public assets */\n    tag_44:\n      mstore(0x20, 0x00)\n      dup1\n      0x00\n      mstore\n      keccak256(0x00, 0x40)\n      0x00\n      swap2\n      pop\n      swap1\n      pop\n      dup1\n      0x00\n      add\n      0x00\n      swap1\n      sload\n      swap1\n      0x0100\n      exp\n      swap1\n      div\n      0xffffffffffffffffffffffffff\n      and\n      swap1\n      dup1\n      0x00\n      add\n      0x0d\n      swap1\n      sload\n      swap1\n      0x0100\n      exp\n      swap1\n      div\n      0xffffffffffffffffffffffffff\n      and\n      swap1\n      dup1\n      0x00\n      add\n      0x1a\n      swap1\n      sload\n      swap1\n      0x0100\n      exp\n      swap1\n      div\n      0xffffffffff\n      and\n      swap1\n      pop\n      dup4\n      jump\t// out\n        /* \"#utility.yul\":7:146   */\n    tag_58:\n      0x00\n        /* \"#utility.yul\":91:97   */\n      dup2\n        /* \"#utility.yul\":78:98   */\n      calldataload\n        /* \"#utility.yul\":69:98   */\n      swap1\n      pop\n        /* \"#utility.yul\":107:140   */\n      tag_60\n        /* \"#utility.yul\":134:139   */\n      dup2\n        /* \"#utility.yul\":107:140   */\n      tag_61\n      jump\t// in\n    tag_60:\n        /* \"#utility.yul\":59:146   */\n      swap3\n      swap2\n      pop\n      pop\n      jump\t// out\n        /* \"#utility.yul\":152:291   */\n    tag_62:\n      0x00\n        /* \"#utility.yul\":236:242   */\n      dup2\n        /* \"#utility.yul\":223:243   */\n      calldataload\n        /* \"#utility.yul\":214:243   */\n      swap1\n      pop\n        /* \"#utility.yul\":252:285   */\n      tag_64\n        /* \"#utility.yul\":279:284   */\n      dup2\n        /* \"#utility.yul\":252:285   */\n      tag_65\n      jump\t// in\n    tag_64:\n        /* \"#utility.yul\":204:291   */\n      swap3\n      swap2\n      pop\n      pop\n      jump\t// out\n        /* \"#utility.yul\":297:557   */\n    tag_14:\n      0x00\n        /* \"#utility.yul\":405:407   */\n      0x20\n        /* \"#utility.yul\":393:402   */\n      dup3\n        /* \"#utility.yul\":384:391   */\n      dup5\n        /* \"#utility.yul\":380:403   */\n      sub\n        /* \"#utility.yul\":376:408   */\n      slt\n        /* \"#utility.yul\":373:375   */\n      iszero\n      tag_67\n      jumpi\n        /* \"#utility.yul\":421:422   */\n      0x00\n        /* \"#utility.yul\":418:419   */\n      dup1\n        /* \"#utility.yul\":411:423   */\n      revert\n        /* \"#utility.yul\":373:375   */\n    tag_67:\n        /* \"#utility.yul\":463:464   */\n      0x00\n        /* \"#utility.yul\":487:540   */\n      tag_68\n        /* \"#utility.yul\":532:539   */\n      dup5\n        /* \"#utility.yul\":523:529   */\n      dup3\n        /* \"#utility.yul\":512:521   */\n      dup6\n        /* \"#utility.yul\":508:530   */\n      add\n        /* \"#utility.yul\":487:540   */\n      tag_58\n      jump\t// in\n    tag_68:\n        /* \"#utility.yul\":477:540   */\n      swap2\n      pop\n        /* \"#utility.yul\":435:550   */\n      pop\n        /* \"#utility.yul\":363:557   */\n      swap3\n      swap2\n      pop\n      pop\n      jump\t// out\n        /* \"#utility.yul\":563:966   */\n    tag_20:\n      0x00\n      dup1\n        /* \"#utility.yul\":688:690   */\n      0x40\n        /* \"#utility.yul\":676:685   */\n      dup4\n        /* \"#utility.yul\":667:674   */\n      dup6\n        /* \"#utility.yul\":663:686   */\n      sub\n        /* \"#utility.yul\":659:691   */\n      slt\n        /* \"#utility.yul\":656:658   */\n      iszero\n      tag_70\n      jumpi\n        /* \"#utility.yul\":704:705   */\n      0x00\n        /* \"#utility.yul\":701:702   */\n      dup1\n        /* \"#utility.yul\":694:706   */\n      revert\n        /* \"#utility.yul\":656:658   */\n    tag_70:\n        /* \"#utility.yul\":746:747   */\n      0x00\n        /* \"#utility.yul\":770:823   */\n      tag_71\n        /* \"#utility.yul\":815:822   */\n      dup6\n        /* \"#utility.yul\":806:812   */\n      dup3\n        /* \"#utility.yul\":795:804   */\n      dup7\n        /* \"#utility.yul\":791:813   */\n      add\n        /* \"#utility.yul\":770:823   */\n      tag_58\n      jump\t// in\n    tag_71:\n        /* \"#utility.yul\":760:823   */\n      swap3\n      pop\n        /* \"#utility.yul\":718:833   */\n      pop\n        /* \"#utility.yul\":871:873   */\n      0x20\n        /* \"#utility.yul\":896:949   */\n      tag_72\n        /* \"#utility.yul\":941:948   */\n      dup6\n        /* \"#utility.yul\":932:938   */\n      dup3\n        /* \"#utility.yul\":921:930   */\n      dup7\n        /* \"#utility.yul\":917:939   */\n      add\n        /* \"#utility.yul\":896:949   */\n      tag_58\n      jump\t// in\n    tag_72:\n        /* \"#utility.yul\":886:949   */\n      swap2\n      pop\n        /* \"#utility.yul\":843:959   */\n      pop\n        /* \"#utility.yul\":646:966   */\n      swap3\n      pop\n      swap3\n      swap1\n      pop\n      jump\t// out\n        /* \"#utility.yul\":972:1232   */\n    tag_26:\n      0x00\n        /* \"#utility.yul\":1080:1082   */\n      0x20\n        /* \"#utility.yul\":1068:1077   */\n      dup3\n        /* \"#utility.yul\":1059:1066   */\n      dup5\n        /* \"#utility.yul\":1055:1078   */\n      sub\n        /* \"#utility.yul\":1051:1083   */\n      slt\n        /* \"#utility.yul\":1048:1050   */\n      iszero\n      tag_74\n      jumpi\n        /* \"#utility.yul\":1096:1097   */\n      0x00\n        /* \"#utility.yul\":1093:1094   */\n      dup1\n        /* \"#utility.yul\":1086:1098   */\n      revert\n        /* \"#utility.yul\":1048:1050   */\n    tag_74:\n        /* \"#utility.yul\":1138:1139   */\n      0x00\n        /* \"#utility.yul\":1162:1215   */\n      tag_75\n        /* \"#utility.yul\":1207:1214   */\n      dup5\n        /* \"#utility.yul\":1198:1204   */\n      dup3\n        /* \"#utility.yul\":1187:1196   */\n      dup6\n        /* \"#utility.yul\":1183:1205   */\n      add\n        /* \"#utility.yul\":1162:1215   */\n      tag_62\n      jump\t// in\n    tag_75:\n        /* \"#utility.yul\":1152:1215   */\n      swap2\n      pop\n        /* \"#utility.yul\":1110:1225   */\n      pop\n        /* \"#utility.yul\":1038:1232   */\n      swap3\n      swap2\n      pop\n      pop\n      jump\t// out\n        /* \"#utility.yul\":1238:1356   */\n    tag_76:\n        /* \"#utility.yul\":1325:1349   */\n      tag_78\n        /* \"#utility.yul\":1343:1348   */\n      dup2\n        /* \"#utility.yul\":1325:1349   */\n      tag_79\n      jump\t// in\n    tag_78:\n        /* \"#utility.yul\":1320:1323   */\n      dup3\n        /* \"#utility.yul\":1313:1350   */\n      mstore\n        /* \"#utility.yul\":1303:1356   */\n      pop\n      pop\n      jump\t// out\n        /* \"#utility.yul\":1362:1681   */\n    tag_80:\n      0x00\n        /* \"#utility.yul\":1525:1592   */\n      tag_82\n        /* \"#utility.yul\":1589:1591   */\n      0x15\n        /* \"#utility.yul\":1584:1587   */\n      dup4\n        /* \"#utility.yul\":1525:1592   */\n      tag_83\n      jump\t// in\n    tag_82:\n        /* \"#utility.yul\":1518:1592   */\n      swap2\n      pop\n        /* \"#utility.yul\":1622:1645   */\n      0x4f4e4c595f454d495353494f4e5f4d414e414745520000000000000000000000\n        /* \"#utility.yul\":1618:1619   */\n      0x00\n        /* \"#utility.yul\":1613:1616   */\n      dup4\n        /* \"#utility.yul\":1609:1620   */\n      add\n        /* \"#utility.yul\":1602:1646   */\n      mstore\n        /* \"#utility.yul\":1672:1674   */\n      0x20\n        /* \"#utility.yul\":1667:1670   */\n      dup3\n        /* \"#utility.yul\":1663:1675   */\n      add\n        /* \"#utility.yul\":1656:1675   */\n      swap1\n      pop\n        /* \"#utility.yul\":1508:1681   */\n      swap2\n      swap1\n      pop\n      jump\t// out\n        /* \"#utility.yul\":1687:1805   */\n    tag_84:\n        /* \"#utility.yul\":1774:1798   */\n      tag_86\n        /* \"#utility.yul\":1792:1797   */\n      dup2\n        /* \"#utility.yul\":1774:1798   */\n      tag_87\n      jump\t// in\n    tag_86:\n        /* \"#utility.yul\":1769:1772   */\n      dup3\n        /* \"#utility.yul\":1762:1799   */\n      mstore\n        /* \"#utility.yul\":1752:1805   */\n      pop\n      pop\n      jump\t// out\n        /* \"#utility.yul\":1811:1929   */\n    tag_88:\n        /* \"#utility.yul\":1898:1922   */\n      tag_90\n        /* \"#utility.yul\":1916:1921   */\n      dup2\n        /* \"#utility.yul\":1898:1922   */\n      tag_91\n      jump\t// in\n    tag_90:\n        /* \"#utility.yul\":1893:1896   */\n      dup3\n        /* \"#utility.yul\":1886:1923   */\n      mstore\n        /* \"#utility.yul\":1876:1929   */\n      pop\n      pop\n      jump\t// out\n        /* \"#utility.yul\":1935:2050   */\n    tag_92:\n        /* \"#utility.yul\":2020:2043   */\n      tag_94\n        /* \"#utility.yul\":2037:2042   */\n      dup2\n        /* \"#utility.yul\":2020:2043   */\n      tag_95\n      jump\t// in\n    tag_94:\n        /* \"#utility.yul\":2015:2018   */\n      dup3\n        /* \"#utility.yul\":2008:2044   */\n      mstore\n        /* \"#utility.yul\":1998:2050   */\n      pop\n      pop\n      jump\t// out\n        /* \"#utility.yul\":2056:2168   */\n    tag_96:\n        /* \"#utility.yul\":2139:2161   */\n      tag_98\n        /* \"#utility.yul\":2155:2160   */\n      dup2\n        /* \"#utility.yul\":2139:2161   */\n      tag_99\n      jump\t// in\n    tag_98:\n        /* \"#utility.yul\":2134:2137   */\n      dup3\n        /* \"#utility.yul\":2127:2162   */\n      mstore\n        /* \"#utility.yul\":2117:2168   */\n      pop\n      pop\n      jump\t// out\n        /* \"#utility.yul\":2174:2396   */\n    tag_38:\n      0x00\n        /* \"#utility.yul\":2305:2307   */\n      0x20\n        /* \"#utility.yul\":2294:2303   */\n      dup3\n        /* \"#utility.yul\":2290:2308   */\n      add\n        /* \"#utility.yul\":2282:2308   */\n      swap1\n      pop\n        /* \"#utility.yul\":2318:2389   */\n      tag_101\n        /* \"#utility.yul\":2386:2387   */\n      0x00\n        /* \"#utility.yul\":2375:2384   */\n      dup4\n        /* \"#utility.yul\":2371:2388   */\n      add\n        /* \"#utility.yul\":2362:2368   */\n      dup5\n        /* \"#utility.yul\":2318:2389   */\n      tag_76\n      jump\t// in\n    tag_101:\n        /* \"#utility.yul\":2272:2396   */\n      swap3\n      swap2\n      pop\n      pop\n      jump\t// out\n        /* \"#utility.yul\":2402:2821   */\n    tag_52:\n      0x00\n        /* \"#utility.yul\":2606:2608   */\n      0x20\n        /* \"#utility.yul\":2595:2604   */\n      dup3\n        /* \"#utility.yul\":2591:2609   */\n      add\n        /* \"#utility.yul\":2583:2609   */\n      swap1\n      pop\n        /* \"#utility.yul\":2655:2664   */\n      dup2\n        /* \"#utility.yul\":2649:2653   */\n      dup2\n        /* \"#utility.yul\":2645:2665   */\n      sub\n        /* \"#utility.yul\":2641:2642   */\n      0x00\n        /* \"#utility.yul\":2630:2639   */\n      dup4\n        /* \"#utility.yul\":2626:2643   */\n      add\n        /* \"#utility.yul\":2619:2666   */\n      mstore\n        /* \"#utility.yul\":2683:2814   */\n      tag_103\n        /* \"#utility.yul\":2809:2813   */\n      dup2\n        /* \"#utility.yul\":2683:2814   */\n      tag_80\n      jump\t// in\n    tag_103:\n        /* \"#utility.yul\":2675:2814   */\n      swap1\n      pop\n        /* \"#utility.yul\":2573:2821   */\n      swap2\n      swap1\n      pop\n      jump\t// out\n        /* \"#utility.yul\":2827:3265   */\n    tag_46:\n      0x00\n        /* \"#utility.yul\":3012:3014   */\n      0x60\n        /* \"#utility.yul\":3001:3010   */\n      dup3\n        /* \"#utility.yul\":2997:3015   */\n      add\n        /* \"#utility.yul\":2989:3015   */\n      swap1\n      pop\n        /* \"#utility.yul\":3025:3096   */\n      tag_105\n        /* \"#utility.yul\":3093:3094   */\n      0x00\n        /* \"#utility.yul\":3082:3091   */\n      dup4\n        /* \"#utility.yul\":3078:3095   */\n      add\n        /* \"#utility.yul\":3069:3075   */\n      dup7\n        /* \"#utility.yul\":3025:3096   */\n      tag_84\n      jump\t// in\n    tag_105:\n        /* \"#utility.yul\":3106:3178   */\n      tag_106\n        /* \"#utility.yul\":3174:3176   */\n      0x20\n        /* \"#utility.yul\":3163:3172   */\n      dup4\n        /* \"#utility.yul\":3159:3177   */\n      add\n        /* \"#utility.yul\":3150:3156   */\n      dup6\n        /* \"#utility.yul\":3106:3178   */\n      tag_84\n      jump\t// in\n    tag_106:\n        /* \"#utility.yul\":3188:3258   */\n      tag_107\n        /* \"#utility.yul\":3254:3256   */\n      0x40\n        /* \"#utility.yul\":3243:3252   */\n      dup4\n        /* \"#utility.yul\":3239:3257   */\n      add\n        /* \"#utility.yul\":3230:3236   */\n      dup5\n        /* \"#utility.yul\":3188:3258   */\n      tag_92\n      jump\t// in\n    tag_107:\n        /* \"#utility.yul\":2979:3265   */\n      swap5\n      swap4\n      pop\n      pop\n      pop\n      pop\n      jump\t// out\n        /* \"#utility.yul\":3271:3493   */\n    tag_23:\n      0x00\n        /* \"#utility.yul\":3402:3404   */\n      0x20\n        /* \"#utility.yul\":3391:3400   */\n      dup3\n        /* \"#utility.yul\":3387:3405   */\n      add\n        /* \"#utility.yul\":3379:3405   */\n      swap1\n      pop\n        /* \"#utility.yul\":3415:3486   */\n      tag_109\n        /* \"#utility.yul\":3483:3484   */\n      0x00\n        /* \"#utility.yul\":3472:3481   */\n      dup4\n        /* \"#utility.yul\":3468:3485   */\n      add\n        /* \"#utility.yul\":3459:3465   */\n      dup5\n        /* \"#utility.yul\":3415:3486   */\n      tag_88\n      jump\t// in\n    tag_109:\n        /* \"#utility.yul\":3369:3493   */\n      swap3\n      swap2\n      pop\n      pop\n      jump\t// out\n        /* \"#utility.yul\":3499:3941   */\n    tag_17:\n      0x00\n        /* \"#utility.yul\":3686:3688   */\n      0x60\n        /* \"#utility.yul\":3675:3684   */\n      dup3\n        /* \"#utility.yul\":3671:3689   */\n      add\n        /* \"#utility.yul\":3663:3689   */\n      swap1\n      pop\n        /* \"#utility.yul\":3699:3770   */\n      tag_111\n        /* \"#utility.yul\":3767:3768   */\n      0x00\n        /* \"#utility.yul\":3756:3765   */\n      dup4\n        /* \"#utility.yul\":3752:3769   */\n      add\n        /* \"#utility.yul\":3743:3749   */\n      dup7\n        /* \"#utility.yul\":3699:3770   */\n      tag_88\n      jump\t// in\n    tag_111:\n        /* \"#utility.yul\":3780:3852   */\n      tag_112\n        /* \"#utility.yul\":3848:3850   */\n      0x20\n        /* \"#utility.yul\":3837:3846   */\n      dup4\n        /* \"#utility.yul\":3833:3851   */\n      add\n        /* \"#utility.yul\":3824:3830   */\n      dup6\n        /* \"#utility.yul\":3780:3852   */\n      tag_88\n      jump\t// in\n    tag_112:\n        /* \"#utility.yul\":3862:3934   */\n      tag_113\n        /* \"#utility.yul\":3930:3932   */\n      0x40\n        /* \"#utility.yul\":3919:3928   */\n      dup4\n        /* \"#utility.yul\":3915:3933   */\n      add\n        /* \"#utility.yul\":3906:3912   */\n      dup5\n        /* \"#utility.yul\":3862:3934   */\n      tag_88\n      jump\t// in\n    tag_113:\n        /* \"#utility.yul\":3653:3941   */\n      swap5\n      swap4\n      pop\n      pop\n      pop\n      pop\n      jump\t// out\n        /* \"#utility.yul\":3947:4161   */\n    tag_34:\n      0x00\n        /* \"#utility.yul\":4074:4076   */\n      0x20\n        /* \"#utility.yul\":4063:4072   */\n      dup3\n        /* \"#utility.yul\":4059:4077   */\n      add\n        /* \"#utility.yul\":4051:4077   */\n      swap1\n      pop\n        /* \"#utility.yul\":4087:4154   */\n      tag_115\n        /* \"#utility.yul\":4151:4152   */\n      0x00\n        /* \"#utility.yul\":4140:4149   */\n      dup4\n        /* \"#utility.yul\":4136:4153   */\n      add\n        /* \"#utility.yul\":4127:4133   */\n      dup5\n        /* \"#utility.yul\":4087:4154   */\n      tag_96\n      jump\t// in\n    tag_115:\n        /* \"#utility.yul\":4041:4161   */\n      swap3\n      swap2\n      pop\n      pop\n      jump\t// out\n        /* \"#utility.yul\":4167:4336   */\n    tag_83:\n      0x00\n        /* \"#utility.yul\":4285:4291   */\n      dup3\n        /* \"#utility.yul\":4280:4283   */\n      dup3\n        /* \"#utility.yul\":4273:4292   */\n      mstore\n        /* \"#utility.yul\":4325:4329   */\n      0x20\n        /* \"#utility.yul\":4320:4323   */\n      dup3\n        /* \"#utility.yul\":4316:4330   */\n      add\n        /* \"#utility.yul\":4301:4330   */\n      swap1\n      pop\n        /* \"#utility.yul\":4263:4336   */\n      swap3\n      swap2\n      pop\n      pop\n      jump\t// out\n        /* \"#utility.yul\":4342:4438   */\n    tag_79:\n      0x00\n        /* \"#utility.yul\":4408:4432   */\n      tag_118\n        /* \"#utility.yul\":4426:4431   */\n      dup3\n        /* \"#utility.yul\":4408:4432   */\n      tag_119\n      jump\t// in\n    tag_118:\n        /* \"#utility.yul\":4397:4432   */\n      swap1\n      pop\n        /* \"#utility.yul\":4387:4438   */\n      swap2\n      swap1\n      pop\n      jump\t// out\n        /* \"#utility.yul\":4444:4556   */\n    tag_87:\n      0x00\n        /* \"#utility.yul\":4521:4549   */\n      0xffffffffffffffffffffffffff\n        /* \"#utility.yul\":4514:4519   */\n      dup3\n        /* \"#utility.yul\":4510:4550   */\n      and\n        /* \"#utility.yul\":4499:4550   */\n      swap1\n      pop\n        /* \"#utility.yul\":4489:4556   */\n      swap2\n      swap1\n      pop\n      jump\t// out\n        /* \"#utility.yul\":4562:4688   */\n    tag_119:\n      0x00\n        /* \"#utility.yul\":4639:4681   */\n      0xffffffffffffffffffffffffffffffffffffffff\n        /* \"#utility.yul\":4632:4637   */\n      dup3\n        /* \"#utility.yul\":4628:4682   */\n      and\n        /* \"#utility.yul\":4617:4682   */\n      swap1\n      pop\n        /* \"#utility.yul\":4607:4688   */\n      swap2\n      swap1\n      pop\n      jump\t// out\n        /* \"#utility.yul\":4694:4771   */\n    tag_91:\n      0x00\n        /* \"#utility.yul\":4760:4765   */\n      dup2\n        /* \"#utility.yul\":4749:4765   */\n      swap1\n      pop\n        /* \"#utility.yul\":4739:4771   */\n      swap2\n      swap1\n      pop\n      jump\t// out\n        /* \"#utility.yul\":4777:4872   */\n    tag_95:\n      0x00\n        /* \"#utility.yul\":4853:4865   */\n      0xffffffffff\n        /* \"#utility.yul\":4846:4851   */\n      dup3\n        /* \"#utility.yul\":4842:4866   */\n      and\n        /* \"#utility.yul\":4831:4866   */\n      swap1\n      pop\n        /* \"#utility.yul\":4821:4872   */\n      swap2\n      swap1\n      pop\n      jump\t// out\n        /* \"#utility.yul\":4878:4964   */\n    tag_99:\n      0x00\n        /* \"#utility.yul\":4953:4957   */\n      0xff\n        /* \"#utility.yul\":4946:4951   */\n      dup3\n        /* \"#utility.yul\":4942:4958   */\n      and\n        /* \"#utility.yul\":4931:4958   */\n      swap1\n      pop\n        /* \"#utility.yul\":4921:4964   */\n      swap2\n      swap1\n      pop\n      jump\t// out\n        /* \"#utility.yul\":4970:5092   */\n    tag_61:\n        /* \"#utility.yul\":5043:5067   */\n      tag_126\n        /* \"#utility.yul\":5061:5066   */\n      dup2\n        /* \"#utility.yul\":5043:5067   */\n      tag_79\n      jump\t// in\n    tag_126:\n        /* \"#utility.yul\":5036:5041   */\n      dup2\n        /* \"#utility.yul\":5033:5068   */\n      eq\n        /* \"#utility.yul\":5023:5025   */\n      tag_127\n      jumpi\n        /* \"#utility.yul\":5082:5083   */\n      0x00\n        /* \"#utility.yul\":5079:5080   */\n      dup1\n        /* \"#utility.yul\":5072:5084   */\n      revert\n        /* \"#utility.yul\":5023:5025   */\n    tag_127:\n        /* \"#utility.yul\":5013:5092   */\n      pop\n      jump\t// out\n        /* \"#utility.yul\":5098:5220   */\n    tag_65:\n        /* \"#utility.yul\":5171:5195   */\n      tag_129\n        /* \"#utility.yul\":5189:5194   */\n      dup2\n        /* \"#utility.yul\":5171:5195   */\n      tag_91\n      jump\t// in\n    tag_129:\n        /* \"#utility.yul\":5164:5169   */\n      dup2\n        /* \"#utility.yul\":5161:5196   */\n      eq\n        /* \"#utility.yul\":5151:5153   */\n      tag_130\n      jumpi\n        /* \"#utility.yul\":5210:5211   */\n      0x00\n        /* \"#utility.yul\":5207:5208   */\n      dup1\n        /* \"#utility.yul\":5200:5212   */\n      revert\n        /* \"#utility.yul\":5151:5153   */\n    tag_130:\n        /* \"#utility.yul\":5141:5220   */\n      pop\n      jump\t// out\n\n    auxdata: 0xa2646970667358221220f8e26c54eb4ad9eb64aa27816e54e81760b86b9a85fe40d049a34279bfa24d9064736f6c63430007050033\n}\n",
				"bytecode": {
					"linkReferences": {},
					"object": "60a060405234801561001057600080fd5b5060405161092238038061092283398181016040528101906100329190610084565b8073ffffffffffffffffffffffffffffffffffffffff1660808173ffffffffffffffffffffffffffffffffffffffff1660601b81525050506100f6565b60008151905061007e816100df565b92915050565b60006020828403121561009657600080fd5b60006100a48482850161006f565b91505092915050565b60006100b8826100bf565b9050919050565b600073ffffffffffffffffffffffffffffffffffffffff82169050919050565b6100e8816100ad565b81146100f357600080fd5b50565b60805160601c61080a610118600039806103895280610467525061080a6000f3fe608060405234801561001057600080fd5b50600436106100885760003560e01c8063aaf5eb681161005b578063aaf5eb6814610129578063cbcbb50714610147578063cc69afec14610165578063f11b81881461018357610088565b80631652e7b71461008d5780633373ee4c146100bf57806339ccbdd3146100ef578063919cd40f1461010b575b600080fd5b6100a760048036038101906100a2919061052a565b6101b5565b6040516100b6939291906106d0565b60405180910390f35b6100d960048036038101906100d49190610553565b6102fe565b6040516100e691906106b5565b60405180910390f35b6101096004803603810190610104919061058f565b610387565b005b610113610456565b60405161012091906106b5565b60405180910390f35b610131610460565b60405161013e9190610707565b60405180910390f35b61014f610465565b60405161015c9190610643565b60405180910390f35b61016d610489565b60405161017a91906106b5565b60405180910390f35b61019d6004803603810190610198919061052a565b610493565b6040516101ac9392919061067e565b60405180910390f35b60008060008060008573ffffffffffffffffffffffffffffffffffffffff1673ffffffffffffffffffffffffffffffffffffffff168152602001908152602001600020600001600d9054906101000a90046cffffffffffffffffffffffffff166000808673ffffffffffffffffffffffffffffffffffffffff1673ffffffffffffffffffffffffffffffffffffffff16815260200190815260200160002060000160009054906101000a90046cffffffffffffffffffffffffff166000808773ffffffffffffffffffffffffffffffffffffffff1673ffffffffffffffffffffffffffffffffffffffff168152602001908152602001600020600001601a9054906101000a900464ffffffffff16826cffffffffffffffffffffffffff169250816cffffffffffffffffffffffffff1691508064ffffffffff1690509250925092509193909250565b60008060008373ffffffffffffffffffffffffffffffffffffffff1673ffffffffffffffffffffffffffffffffffffffff16815260200190815260200160002060010160008473ffffffffffffffffffffffffffffffffffffffff1673ffffffffffffffffffffffffffffffffffffffff16815260200190815260200160002054905092915050565b7f000000000000000000000000000000000000000000000000000000000000000073ffffffffffffffffffffffffffffffffffffffff163373ffffffffffffffffffffffffffffffffffffffff1614610415576040517f08c379a000000000000000000000000000000000000000000000000000000000815260040161040c9061065e565b60405180910390fd5b806001819055507f1cc1849a6602c3e91f2088cadea4381cc5717f2f28584197060ed2ebb434c16f8160405161044b91906106b5565b60405180910390a150565b6000600154905090565b601281565b7f000000000000000000000000000000000000000000000000000000000000000081565b6000600154905090565b60006020528060005260406000206000915090508060000160009054906101000a90046cffffffffffffffffffffffffff169080600001600d9054906101000a90046cffffffffffffffffffffffffff169080600001601a9054906101000a900464ffffffffff16905083565b60008135905061050f816107a6565b92915050565b600081359050610524816107bd565b92915050565b60006020828403121561053c57600080fd5b600061054a84828501610500565b91505092915050565b6000806040838503121561056657600080fd5b600061057485828601610500565b925050602061058585828601610500565b9150509250929050565b6000602082840312156105a157600080fd5b60006105af84828501610515565b91505092915050565b6105c181610733565b82525050565b60006105d4601583610722565b91507f4f4e4c595f454d495353494f4e5f4d414e4147455200000000000000000000006000830152602082019050919050565b61061081610745565b82525050565b61061f8161077e565b82525050565b61062e81610788565b82525050565b61063d81610799565b82525050565b600060208201905061065860008301846105b8565b92915050565b60006020820190508181036000830152610677816105c7565b9050919050565b60006060820190506106936000830186610607565b6106a06020830185610607565b6106ad6040830184610625565b949350505050565b60006020820190506106ca6000830184610616565b92915050565b60006060820190506106e56000830186610616565b6106f26020830185610616565b6106ff6040830184610616565b949350505050565b600060208201905061071c6000830184610634565b92915050565b600082825260208201905092915050565b600061073e8261075e565b9050919050565b60006cffffffffffffffffffffffffff82169050919050565b600073ffffffffffffffffffffffffffffffffffffffff82169050919050565b6000819050919050565b600064ffffffffff82169050919050565b600060ff82169050919050565b6107af81610733565b81146107ba57600080fd5b50565b6107c68161077e565b81146107d157600080fd5b5056fea2646970667358221220f8e26c54eb4ad9eb64aa27816e54e81760b86b9a85fe40d049a34279bfa24d9064736f6c63430007050033",
					"opcodes": "PUSH1 0xA0 PUSH1 0x40 MSTORE CALLVALUE DUP1 ISZERO PUSH2 0x10 JUMPI PUSH1 0x0 DUP1 REVERT JUMPDEST POP PUSH1 0x40 MLOAD PUSH2 0x922 CODESIZE SUB DUP1 PUSH2 0x922 DUP4 CODECOPY DUP2 DUP2 ADD PUSH1 0x40 MSTORE DUP2 ADD SWAP1 PUSH2 0x32 SWAP2 SWAP1 PUSH2 0x84 JUMP JUMPDEST DUP1 PUSH20 0xFFFFFFFFFFFFFFFFFFFFFFFFFFFFFFFFFFFFFFFF AND PUSH1 0x80 DUP2 PUSH20 0xFFFFFFFFFFFFFFFFFFFFFFFFFFFFFFFFFFFFFFFF AND PUSH1 0x60 SHL DUP2 MSTORE POP POP POP PUSH2 0xF6 JUMP JUMPDEST PUSH1 0x0 DUP2 MLOAD SWAP1 POP PUSH2 0x7E DUP2 PUSH2 0xDF JUMP JUMPDEST SWAP3 SWAP2 POP POP JUMP JUMPDEST PUSH1 0x0 PUSH1 0x20 DUP3 DUP5 SUB SLT ISZERO PUSH2 0x96 JUMPI PUSH1 0x0 DUP1 REVERT JUMPDEST PUSH1 0x0 PUSH2 0xA4 DUP5 DUP3 DUP6 ADD PUSH2 0x6F JUMP JUMPDEST SWAP2 POP POP SWAP3 SWAP2 POP POP JUMP JUMPDEST PUSH1 0x0 PUSH2 0xB8 DUP3 PUSH2 0xBF JUMP JUMPDEST SWAP1 POP SWAP2 SWAP1 POP JUMP JUMPDEST PUSH1 0x0 PUSH20 0xFFFFFFFFFFFFFFFFFFFFFFFFFFFFFFFFFFFFFFFF DUP3 AND SWAP1 POP SWAP2 SWAP1 POP JUMP JUMPDEST PUSH2 0xE8 DUP2 PUSH2 0xAD JUMP JUMPDEST DUP2 EQ PUSH2 0xF3 JUMPI PUSH1 0x0 DUP1 REVERT JUMPDEST POP JUMP JUMPDEST PUSH1 0x80 MLOAD PUSH1 0x60 SHR PUSH2 0x80A PUSH2 0x118 PUSH1 0x0 CODECOPY DUP1 PUSH2 0x389 MSTORE DUP1 PUSH2 0x467 MSTORE POP PUSH2 0x80A PUSH1 0x0 RETURN INVALID PUSH1 0x80 PUSH1 0x40 MSTORE CALLVALUE DUP1 ISZERO PUSH2 0x10 JUMPI PUSH1 0x0 DUP1 REVERT JUMPDEST POP PUSH1 0x4 CALLDATASIZE LT PUSH2 0x88 JUMPI PUSH1 0x0 CALLDATALOAD PUSH1 0xE0 SHR DUP1 PUSH4 0xAAF5EB68 GT PUSH2 0x5B JUMPI DUP1 PUSH4 0xAAF5EB68 EQ PUSH2 0x129 JUMPI DUP1 PUSH4 0xCBCBB507 EQ PUSH2 0x147 JUMPI DUP1 PUSH4 0xCC69AFEC EQ PUSH2 0x165 JUMPI DUP1 PUSH4 0xF11B8188 EQ PUSH2 0x183 JUMPI PUSH2 0x88 JUMP JUMPDEST DUP1 PUSH4 0x1652E7B7 EQ PUSH2 0x8D JUMPI DUP1 PUSH4 0x3373EE4C EQ PUSH2 0xBF JUMPI DUP1 PUSH4 0x39CCBDD3 EQ PUSH2 0xEF JUMPI DUP1 PUSH4 0x919CD40F EQ PUSH2 0x10B JUMPI JUMPDEST PUSH1 0x0 DUP1 REVERT JUMPDEST PUSH2 0xA7 PUSH1 0x4 DUP1 CALLDATASIZE SUB DUP2 ADD SWAP1 PUSH2 0xA2 SWAP2 SWAP1 PUSH2 0x52A JUMP JUMPDEST PUSH2 0x1B5 JUMP JUMPDEST PUSH1 0x40 MLOAD PUSH2 0xB6 SWAP4 SWAP3 SWAP2 SWAP1 PUSH2 0x6D0 JUMP JUMPDEST PUSH1 0x40 MLOAD DUP1 SWAP2 SUB SWAP1 RETURN JUMPDEST PUSH2 0xD9 PUSH1 0x4 DUP1 CALLDATASIZE SUB DUP2 ADD SWAP1 PUSH2 0xD4 SWAP2 SWAP1 PUSH2 0x553 JUMP JUMPDEST PUSH2 0x2FE JUMP JUMPDEST PUSH1 0x40 MLOAD PUSH2 0xE6 SWAP2 SWAP1 PUSH2 0x6B5 JUMP JUMPDEST PUSH1 0x40 MLOAD DUP1 SWAP2 SUB SWAP1 RETURN JUMPDEST PUSH2 0x109 PUSH1 0x4 DUP1 CALLDATASIZE SUB DUP2 ADD SWAP1 PUSH2 0x104 SWAP2 SWAP1 PUSH2 0x58F JUMP JUMPDEST PUSH2 0x387 JUMP JUMPDEST STOP JUMPDEST PUSH2 0x113 PUSH2 0x456 JUMP JUMPDEST PUSH1 0x40 MLOAD PUSH2 0x120 SWAP2 SWAP1 PUSH2 0x6B5 JUMP JUMPDEST PUSH1 0x40 MLOAD DUP1 SWAP2 SUB SWAP1 RETURN JUMPDEST PUSH2 0x131 PUSH2 0x460 JUMP JUMPDEST PUSH1 0x40 MLOAD PUSH2 0x13E SWAP2 SWAP1 PUSH2 0x707 JUMP JUMPDEST PUSH1 0x40 MLOAD DUP1 SWAP2 SUB SWAP1 RETURN JUMPDEST PUSH2 0x14F PUSH2 0x465 JUMP JUMPDEST PUSH1 0x40 MLOAD PUSH2 0x15C SWAP2 SWAP1 PUSH2 0x643 JUMP JUMPDEST PUSH1 0x40 MLOAD DUP1 SWAP2 SUB SWAP1 RETURN JUMPDEST PUSH2 0x16D PUSH2 0x489 JUMP JUMPDEST PUSH1 0x40 MLOAD PUSH2 0x17A SWAP2 SWAP1 PUSH2 0x6B5 JUMP JUMPDEST PUSH1 0x40 MLOAD DUP1 SWAP2 SUB SWAP1 RETURN JUMPDEST PUSH2 0x19D PUSH1 0x4 DUP1 CALLDATASIZE SUB DUP2 ADD SWAP1 PUSH2 0x198 SWAP2 SWAP1 PUSH2 0x52A JUMP JUMPDEST PUSH2 0x493 JUMP JUMPDEST PUSH1 0x40 MLOAD PUSH2 0x1AC SWAP4 SWAP3 SWAP2 SWAP1 PUSH2 0x67E JUMP JUMPDEST PUSH1 0x40 MLOAD DUP1 SWAP2 SUB SWAP1 RETURN JUMPDEST PUSH1 0x0 DUP1 PUSH1 0x0 DUP1 PUSH1 0x0 DUP6 PUSH20 0xFFFFFFFFFFFFFFFFFFFFFFFFFFFFFFFFFFFFFFFF AND PUSH20 0xFFFFFFFFFFFFFFFFFFFFFFFFFFFFFFFFFFFFFFFF AND DUP2 MSTORE PUSH1 0x20 ADD SWAP1 DUP2 MSTORE PUSH1 0x20 ADD PUSH1 0x0 KECCAK256 PUSH1 0x0 ADD PUSH1 0xD SWAP1 SLOAD SWAP1 PUSH2 0x100 EXP SWAP1 DIV PUSH13 0xFFFFFFFFFFFFFFFFFFFFFFFFFF AND PUSH1 0x0 DUP1 DUP7 PUSH20 0xFFFFFFFFFFFFFFFFFFFFFFFFFFFFFFFFFFFFFFFF AND PUSH20 0xFFFFFFFFFFFFFFFFFFFFFFFFFFFFFFFFFFFFFFFF AND DUP2 MSTORE PUSH1 0x20 ADD SWAP1 DUP2 MSTORE PUSH1 0x20 ADD PUSH1 0x0 KECCAK256 PUSH1 0x0 ADD PUSH1 0x0 SWAP1 SLOAD SWAP1 PUSH2 0x100 EXP SWAP1 DIV PUSH13 0xFFFFFFFFFFFFFFFFFFFFFFFFFF AND PUSH1 0x0 DUP1 DUP8 PUSH20 0xFFFFFFFFFFFFFFFFFFFFFFFFFFFFFFFFFFFFFFFF AND PUSH20 0xFFFFFFFFFFFFFFFFFFFFFFFFFFFFFFFFFFFFFFFF AND DUP2 MSTORE PUSH1 0x20 ADD SWAP1 DUP2 MSTORE PUSH1 0x20 ADD PUSH1 0x0 KECCAK256 PUSH1 0x0 ADD PUSH1 0x1A SWAP1 SLOAD SWAP1 PUSH2 0x100 EXP SWAP1 DIV PUSH5 0xFFFFFFFFFF AND DUP3 PUSH13 0xFFFFFFFFFFFFFFFFFFFFFFFFFF AND SWAP3 POP DUP2 PUSH13 0xFFFFFFFFFFFFFFFFFFFFFFFFFF AND SWAP2 POP DUP1 PUSH5 0xFFFFFFFFFF AND SWAP1 POP SWAP3 POP SWAP3 POP SWAP3 POP SWAP2 SWAP4 SWAP1 SWAP3 POP JUMP JUMPDEST PUSH1 0x0 DUP1 PUSH1 0x0 DUP4 PUSH20 0xFFFFFFFFFFFFFFFFFFFFFFFFFFFFFFFFFFFFFFFF AND PUSH20 0xFFFFFFFFFFFFFFFFFFFFFFFFFFFFFFFFFFFFFFFF AND DUP2 MSTORE PUSH1 0x20 ADD SWAP1 DUP2 MSTORE PUSH1 0x20 ADD PUSH1 0x0 KECCAK256 PUSH1 0x1 ADD PUSH1 0x0 DUP5 PUSH20 0xFFFFFFFFFFFFFFFFFFFFFFFFFFFFFFFFFFFFFFFF AND PUSH20 0xFFFFFFFFFFFFFFFFFFFFFFFFFFFFFFFFFFFFFFFF AND DUP2 MSTORE PUSH1 0x20 ADD SWAP1 DUP2 MSTORE PUSH1 0x20 ADD PUSH1 0x0 KECCAK256 SLOAD SWAP1 POP SWAP3 SWAP2 POP POP JUMP JUMPDEST PUSH32 0x0 PUSH20 0xFFFFFFFFFFFFFFFFFFFFFFFFFFFFFFFFFFFFFFFF AND CALLER PUSH20 0xFFFFFFFFFFFFFFFFFFFFFFFFFFFFFFFFFFFFFFFF AND EQ PUSH2 0x415 JUMPI PUSH1 0x40 MLOAD PUSH32 0x8C379A000000000000000000000000000000000000000000000000000000000 DUP2 MSTORE PUSH1 0x4 ADD PUSH2 0x40C SWAP1 PUSH2 0x65E JUMP JUMPDEST PUSH1 0x40 MLOAD DUP1 SWAP2 SUB SWAP1 REVERT JUMPDEST DUP1 PUSH1 0x1 DUP2 SWAP1 SSTORE POP PUSH32 0x1CC1849A6602C3E91F2088CADEA4381CC5717F2F28584197060ED2EBB434C16F DUP2 PUSH1 0x40 MLOAD PUSH2 0x44B SWAP2 SWAP1 PUSH2 0x6B5 JUMP JUMPDEST PUSH1 0x40 MLOAD DUP1 SWAP2 SUB SWAP1 LOG1 POP JUMP JUMPDEST PUSH1 0x0 PUSH1 0x1 SLOAD SWAP1 POP SWAP1 JUMP JUMPDEST PUSH1 0x12 DUP2 JUMP JUMPDEST PUSH32 0x0 DUP2 JUMP JUMPDEST PUSH1 0x0 PUSH1 0x1 SLOAD SWAP1 POP SWAP1 JUMP JUMPDEST PUSH1 0x0 PUSH1 0x20 MSTORE DUP1 PUSH1 0x0 MSTORE PUSH1 0x40 PUSH1 0x0 KECCAK256 PUSH1 0x0 SWAP2 POP SWAP1 POP DUP1 PUSH1 0x0 ADD PUSH1 0x0 SWAP1 SLOAD SWAP1 PUSH2 0x100 EXP SWAP1 DIV PUSH13 0xFFFFFFFFFFFFFFFFFFFFFFFFFF AND SWAP1 DUP1 PUSH1 0x0 ADD PUSH1 0xD SWAP1 SLOAD SWAP1 PUSH2 0x100 EXP SWAP1 DIV PUSH13 0xFFFFFFFFFFFFFFFFFFFFFFFFFF AND SWAP1 DUP1 PUSH1 0x0 ADD PUSH1 0x1A SWAP1 SLOAD SWAP1 PUSH2 0x100 EXP SWAP1 DIV PUSH5 0xFFFFFFFFFF AND SWAP1 POP DUP4 JUMP JUMPDEST PUSH1 0x0 DUP2 CALLDATALOAD SWAP1 POP PUSH2 0x50F DUP2 PUSH2 0x7A6 JUMP JUMPDEST SWAP3 SWAP2 POP POP JUMP JUMPDEST PUSH1 0x0 DUP2 CALLDATALOAD SWAP1 POP PUSH2 0x524 DUP2 PUSH2 0x7BD JUMP JUMPDEST SWAP3 SWAP2 POP POP JUMP JUMPDEST PUSH1 0x0 PUSH1 0x20 DUP3 DUP5 SUB SLT ISZERO PUSH2 0x53C JUMPI PUSH1 0x0 DUP1 REVERT JUMPDEST PUSH1 0x0 PUSH2 0x54A DUP5 DUP3 DUP6 ADD PUSH2 0x500 JUMP JUMPDEST SWAP2 POP POP SWAP3 SWAP2 POP POP JUMP JUMPDEST PUSH1 0x0 DUP1 PUSH1 0x40 DUP4 DUP6 SUB SLT ISZERO PUSH2 0x566 JUMPI PUSH1 0x0 DUP1 REVERT JUMPDEST PUSH1 0x0 PUSH2 0x574 DUP6 DUP3 DUP7 ADD PUSH2 0x500 JUMP JUMPDEST SWAP3 POP POP PUSH1 0x20 PUSH2 0x585 DUP6 DUP3 DUP7 ADD PUSH2 0x500 JUMP JUMPDEST SWAP2 POP POP SWAP3 POP SWAP3 SWAP1 POP JUMP JUMPDEST PUSH1 0x0 PUSH1 0x20 DUP3 DUP5 SUB SLT ISZERO PUSH2 0x5A1 JUMPI PUSH1 0x0 DUP1 REVERT JUMPDEST PUSH1 0x0 PUSH2 0x5AF DUP5 DUP3 DUP6 ADD PUSH2 0x515 JUMP JUMPDEST SWAP2 POP POP SWAP3 SWAP2 POP POP JUMP JUMPDEST PUSH2 0x5C1 DUP2 PUSH2 0x733 JUMP JUMPDEST DUP3 MSTORE POP POP JUMP JUMPDEST PUSH1 0x0 PUSH2 0x5D4 PUSH1 0x15 DUP4 PUSH2 0x722 JUMP JUMPDEST SWAP2 POP PUSH32 0x4F4E4C595F454D495353494F4E5F4D414E414745520000000000000000000000 PUSH1 0x0 DUP4 ADD MSTORE PUSH1 0x20 DUP3 ADD SWAP1 POP SWAP2 SWAP1 POP JUMP JUMPDEST PUSH2 0x610 DUP2 PUSH2 0x745 JUMP JUMPDEST DUP3 MSTORE POP POP JUMP JUMPDEST PUSH2 0x61F DUP2 PUSH2 0x77E JUMP JUMPDEST DUP3 MSTORE POP POP JUMP JUMPDEST PUSH2 0x62E DUP2 PUSH2 0x788 JUMP JUMPDEST DUP3 MSTORE POP POP JUMP JUMPDEST PUSH2 0x63D DUP2 PUSH2 0x799 JUMP JUMPDEST DUP3 MSTORE POP POP JUMP JUMPDEST PUSH1 0x0 PUSH1 0x20 DUP3 ADD SWAP1 POP PUSH2 0x658 PUSH1 0x0 DUP4 ADD DUP5 PUSH2 0x5B8 JUMP JUMPDEST SWAP3 SWAP2 POP POP JUMP JUMPDEST PUSH1 0x0 PUSH1 0x20 DUP3 ADD SWAP1 POP DUP2 DUP2 SUB PUSH1 0x0 DUP4 ADD MSTORE PUSH2 0x677 DUP2 PUSH2 0x5C7 JUMP JUMPDEST SWAP1 POP SWAP2 SWAP1 POP JUMP JUMPDEST PUSH1 0x0 PUSH1 0x60 DUP3 ADD SWAP1 POP PUSH2 0x693 PUSH1 0x0 DUP4 ADD DUP7 PUSH2 0x607 JUMP JUMPDEST PUSH2 0x6A0 PUSH1 0x20 DUP4 ADD DUP6 PUSH2 0x607 JUMP JUMPDEST PUSH2 0x6AD PUSH1 0x40 DUP4 ADD DUP5 PUSH2 0x625 JUMP JUMPDEST SWAP5 SWAP4 POP POP POP POP JUMP JUMPDEST PUSH1 0x0 PUSH1 0x20 DUP3 ADD SWAP1 POP PUSH2 0x6CA PUSH1 0x0 DUP4 ADD DUP5 PUSH2 0x616 JUMP JUMPDEST SWAP3 SWAP2 POP POP JUMP JUMPDEST PUSH1 0x0 PUSH1 0x60 DUP3 ADD SWAP1 POP PUSH2 0x6E5 PUSH1 0x0 DUP4 ADD DUP7 PUSH2 0x616 JUMP JUMPDEST PUSH2 0x6F2 PUSH1 0x20 DUP4 ADD DUP6 PUSH2 0x616 JUMP JUMPDEST PUSH2 0x6FF PUSH1 0x40 DUP4 ADD DUP5 PUSH2 0x616 JUMP JUMPDEST SWAP5 SWAP4 POP POP POP POP JUMP JUMPDEST PUSH1 0x0 PUSH1 0x20 DUP3 ADD SWAP1 POP PUSH2 0x71C PUSH1 0x0 DUP4 ADD DUP5 PUSH2 0x634 JUMP JUMPDEST SWAP3 SWAP2 POP POP JUMP JUMPDEST PUSH1 0x0 DUP3 DUP3 MSTORE PUSH1 0x20 DUP3 ADD SWAP1 POP SWAP3 SWAP2 POP POP JUMP JUMPDEST PUSH1 0x0 PUSH2 0x73E DUP3 PUSH2 0x75E JUMP JUMPDEST SWAP1 POP SWAP2 SWAP1 POP JUMP JUMPDEST PUSH1 0x0 PUSH13 0xFFFFFFFFFFFFFFFFFFFFFFFFFF DUP3 AND SWAP1 POP SWAP2 SWAP1 POP JUMP JUMPDEST PUSH1 0x0 PUSH20 0xFFFFFFFFFFFFFFFFFFFFFFFFFFFFFFFFFFFFFFFF DUP3 AND SWAP1 POP SWAP2 SWAP1 POP JUMP JUMPDEST PUSH1 0x0 DUP2 SWAP1 POP SWAP2 SWAP1 POP JUMP JUMPDEST PUSH1 0x0 PUSH5 0xFFFFFFFFFF DUP3 AND SWAP1 POP SWAP2 SWAP1 POP JUMP JUMPDEST PUSH1 0x0 PUSH1 0xFF DUP3 AND SWAP1 POP SWAP2 SWAP1 POP JUMP JUMPDEST PUSH2 0x7AF DUP2 PUSH2 0x733 JUMP JUMPDEST DUP2 EQ PUSH2 0x7BA JUMPI PUSH1 0x0 DUP1 REVERT JUMPDEST POP JUMP JUMPDEST PUSH2 0x7C6 DUP2 PUSH2 0x77E JUMP JUMPDEST DUP2 EQ PUSH2 0x7D1 JUMPI PUSH1 0x0 DUP1 REVERT JUMPDEST POP JUMP INVALID LOG2 PUSH5 0x6970667358 0x22 SLT KECCAK256 0xF8 0xE2 PUSH13 0x54EB4AD9EB64AA27816E54E817 PUSH1 0xB8 PUSH12 0x9A85FE40D049A34279BFA24D SWAP1 PUSH5 0x736F6C6343 STOP SMOD SDIV STOP CALLER "
				},
				"gasEstimates": {
					"creation": {
						"codeDepositCost": "411600",
						"executionCost": "infinite",
						"totalCost": "infinite"
					},
					"external": {
						"DISTRIBUTION_END()": "1204",
						"EMISSION_MANAGER()": "infinite",
						"PRECISION()": "335",
						"assets(address)": "infinite",
						"getAssetData(address)": "infinite",
						"getDistributionEnd()": "1181",
						"getUserAssetData(address,address)": "infinite",
						"setDistributionEnd(uint256)": "infinite"
					},
					"internal": {
						"_claimRewards(address,struct DistributionTypes.UserStakeInput memory[] memory)": "infinite",
						"_configureAssets(struct DistributionTypes.AssetConfigInput memory[] memory)": "infinite",
						"_getAssetIndex(uint256,uint256,uint128,uint256)": "infinite",
						"_getRewards(uint256,uint256,uint256)": "infinite",
						"_getUnclaimedRewards(address,struct DistributionTypes.UserStakeInput memory[] memory)": "infinite",
						"_updateAssetStateInternal(address,struct DistributionManager.AssetData storage pointer,uint256)": "infinite",
						"_updateUserAssetInternal(address,address,uint256,uint256)": "infinite"
					}
				},
				"methodIdentifiers": {
					"DISTRIBUTION_END()": "919cd40f",
					"EMISSION_MANAGER()": "cbcbb507",
					"PRECISION()": "aaf5eb68",
					"assets(address)": "f11b8188",
					"getAssetData(address)": "1652e7b7",
					"getDistributionEnd()": "cc69afec",
					"getUserAssetData(address,address)": "3373ee4c",
					"setDistributionEnd(uint256)": "39ccbdd3"
				}
			},
			"storageLayout": {
				"storage": [
					{
						"astId": 1298,
						"contract": "contracts/Omnidex-incentives/incentives/base/DistributionManager.sol:DistributionManager",
						"label": "assets",
						"offset": 0,
						"slot": "0",
						"type": "t_mapping(t_address,t_struct(AssetData)1289_storage)"
					},
					{
						"astId": 1300,
						"contract": "contracts/Omnidex-incentives/incentives/base/DistributionManager.sol:DistributionManager",
						"label": "_distributionEnd",
						"offset": 0,
						"slot": "1",
						"type": "t_uint256"
					}
				],
				"types": {
					"t_address": {
						"encoding": "inplace",
						"label": "address",
						"numberOfBytes": "20"
					},
					"t_mapping(t_address,t_struct(AssetData)1289_storage)": {
						"encoding": "mapping",
						"key": "t_address",
						"label": "mapping(address => struct DistributionManager.AssetData)",
						"numberOfBytes": "32",
						"value": "t_struct(AssetData)1289_storage"
					},
					"t_mapping(t_address,t_uint256)": {
						"encoding": "mapping",
						"key": "t_address",
						"label": "mapping(address => uint256)",
						"numberOfBytes": "32",
						"value": "t_uint256"
					},
					"t_struct(AssetData)1289_storage": {
						"encoding": "inplace",
						"label": "struct DistributionManager.AssetData",
						"members": [
							{
								"astId": 1280,
								"contract": "contracts/Omnidex-incentives/incentives/base/DistributionManager.sol:DistributionManager",
								"label": "emissionPerSecond",
								"offset": 0,
								"slot": "0",
								"type": "t_uint104"
							},
							{
								"astId": 1282,
								"contract": "contracts/Omnidex-incentives/incentives/base/DistributionManager.sol:DistributionManager",
								"label": "index",
								"offset": 13,
								"slot": "0",
								"type": "t_uint104"
							},
							{
								"astId": 1284,
								"contract": "contracts/Omnidex-incentives/incentives/base/DistributionManager.sol:DistributionManager",
								"label": "lastUpdateTimestamp",
								"offset": 26,
								"slot": "0",
								"type": "t_uint40"
							},
							{
								"astId": 1288,
								"contract": "contracts/Omnidex-incentives/incentives/base/DistributionManager.sol:DistributionManager",
								"label": "users",
								"offset": 0,
								"slot": "1",
								"type": "t_mapping(t_address,t_uint256)"
							}
						],
						"numberOfBytes": "64"
					},
					"t_uint104": {
						"encoding": "inplace",
						"label": "uint104",
						"numberOfBytes": "13"
					},
					"t_uint256": {
						"encoding": "inplace",
						"label": "uint256",
						"numberOfBytes": "32"
					},
					"t_uint40": {
						"encoding": "inplace",
						"label": "uint40",
						"numberOfBytes": "5"
					}
				}
			},
			"userdoc": {
				"kind": "user",
				"methods": {},
				"notice": "Accounting contract to manage multiple staking distributions",
				"version": 1
			}
		}
	}
}