{
	"contracts/Omnidex-incentives/incentives/PullRewardsIncentivesController.sol": {
		"PullRewardsIncentivesController": {
			"abi": [
				{
					"inputs": [
						{
							"internalType": "contract IERC20",
							"name": "rewardToken",
							"type": "address"
						},
						{
							"internalType": "address",
							"name": "emissionManager",
							"type": "address"
						}
					],
					"stateMutability": "nonpayable",
					"type": "constructor"
				},
				{
					"anonymous": false,
					"inputs": [
						{
							"indexed": true,
							"internalType": "address",
							"name": "asset",
							"type": "address"
						},
						{
							"indexed": false,
							"internalType": "uint256",
							"name": "emission",
							"type": "uint256"
						}
					],
					"name": "AssetConfigUpdated",
					"type": "event"
				},
				{
					"anonymous": false,
					"inputs": [
						{
							"indexed": true,
							"internalType": "address",
							"name": "asset",
							"type": "address"
						},
						{
							"indexed": false,
							"internalType": "uint256",
							"name": "index",
							"type": "uint256"
						}
					],
					"name": "AssetIndexUpdated",
					"type": "event"
				},
				{
					"anonymous": false,
					"inputs": [
						{
							"indexed": true,
							"internalType": "address",
							"name": "user",
							"type": "address"
						},
						{
							"indexed": true,
							"internalType": "address",
							"name": "claimer",
							"type": "address"
						}
					],
					"name": "ClaimerSet",
					"type": "event"
				},
				{
					"anonymous": false,
					"inputs": [
						{
							"indexed": false,
							"internalType": "uint256",
							"name": "newDistributionEnd",
							"type": "uint256"
						}
					],
					"name": "DistributionEndUpdated",
					"type": "event"
				},
				{
					"anonymous": false,
					"inputs": [
						{
							"indexed": true,
							"internalType": "address",
							"name": "user",
							"type": "address"
						},
						{
							"indexed": false,
							"internalType": "uint256",
							"name": "amount",
							"type": "uint256"
						}
					],
					"name": "RewardsAccrued",
					"type": "event"
				},
				{
					"anonymous": false,
					"inputs": [
						{
							"indexed": true,
							"internalType": "address",
							"name": "user",
							"type": "address"
						},
						{
							"indexed": true,
							"internalType": "address",
							"name": "to",
							"type": "address"
						},
						{
							"indexed": true,
							"internalType": "address",
							"name": "claimer",
							"type": "address"
						},
						{
							"indexed": false,
							"internalType": "uint256",
							"name": "amount",
							"type": "uint256"
						}
					],
					"name": "RewardsClaimed",
					"type": "event"
				},
				{
					"anonymous": false,
					"inputs": [
						{
							"indexed": true,
							"internalType": "address",
							"name": "vault",
							"type": "address"
						}
					],
					"name": "RewardsVaultUpdated",
					"type": "event"
				},
				{
					"anonymous": false,
					"inputs": [
						{
							"indexed": true,
							"internalType": "address",
							"name": "user",
							"type": "address"
						},
						{
							"indexed": true,
							"internalType": "address",
							"name": "asset",
							"type": "address"
						},
						{
							"indexed": false,
							"internalType": "uint256",
							"name": "index",
							"type": "uint256"
						}
					],
					"name": "UserIndexUpdated",
					"type": "event"
				},
				{
					"inputs": [],
					"name": "DISTRIBUTION_END",
					"outputs": [
						{
							"internalType": "uint256",
							"name": "",
							"type": "uint256"
						}
					],
					"stateMutability": "view",
					"type": "function"
				},
				{
					"inputs": [],
					"name": "EMISSION_MANAGER",
					"outputs": [
						{
							"internalType": "address",
							"name": "",
							"type": "address"
						}
					],
					"stateMutability": "view",
					"type": "function"
				},
				{
					"inputs": [],
					"name": "PRECISION",
					"outputs": [
						{
							"internalType": "uint8",
							"name": "",
							"type": "uint8"
						}
					],
					"stateMutability": "view",
					"type": "function"
				},
				{
					"inputs": [],
					"name": "REVISION",
					"outputs": [
						{
							"internalType": "uint256",
							"name": "",
							"type": "uint256"
						}
					],
					"stateMutability": "view",
					"type": "function"
				},
				{
					"inputs": [],
					"name": "REWARD_TOKEN",
					"outputs": [
						{
							"internalType": "address",
							"name": "",
							"type": "address"
						}
					],
					"stateMutability": "view",
					"type": "function"
				},
				{
					"inputs": [
						{
							"internalType": "address",
							"name": "",
							"type": "address"
						}
					],
					"name": "assets",
					"outputs": [
						{
							"internalType": "uint104",
							"name": "emissionPerSecond",
							"type": "uint104"
						},
						{
							"internalType": "uint104",
							"name": "index",
							"type": "uint104"
						},
						{
							"internalType": "uint40",
							"name": "lastUpdateTimestamp",
							"type": "uint40"
						}
					],
					"stateMutability": "view",
					"type": "function"
				},
				{
					"inputs": [
						{
							"internalType": "address[]",
							"name": "assets",
							"type": "address[]"
						},
						{
							"internalType": "uint256",
							"name": "amount",
							"type": "uint256"
						},
						{
							"internalType": "address",
							"name": "to",
							"type": "address"
						}
					],
					"name": "claimRewards",
					"outputs": [
						{
							"internalType": "uint256",
							"name": "",
							"type": "uint256"
						}
					],
					"stateMutability": "nonpayable",
					"type": "function"
				},
				{
					"inputs": [
						{
							"internalType": "address[]",
							"name": "assets",
							"type": "address[]"
						},
						{
							"internalType": "uint256",
							"name": "amount",
							"type": "uint256"
						},
						{
							"internalType": "address",
							"name": "user",
							"type": "address"
						},
						{
							"internalType": "address",
							"name": "to",
							"type": "address"
						}
					],
					"name": "claimRewardsOnBehalf",
					"outputs": [
						{
							"internalType": "uint256",
							"name": "",
							"type": "uint256"
						}
					],
					"stateMutability": "nonpayable",
					"type": "function"
				},
				{
					"inputs": [
						{
							"internalType": "address[]",
							"name": "assets",
							"type": "address[]"
						},
						{
							"internalType": "uint256",
							"name": "amount",
							"type": "uint256"
						}
					],
					"name": "claimRewardsToSelf",
					"outputs": [
						{
							"internalType": "uint256",
							"name": "",
							"type": "uint256"
						}
					],
					"stateMutability": "nonpayable",
					"type": "function"
				},
				{
					"inputs": [
						{
							"internalType": "address[]",
							"name": "assets",
							"type": "address[]"
						},
						{
							"internalType": "uint256[]",
							"name": "emissionsPerSecond",
							"type": "uint256[]"
						}
					],
					"name": "configureAssets",
					"outputs": [],
					"stateMutability": "nonpayable",
					"type": "function"
				},
				{
					"inputs": [
						{
							"internalType": "address",
							"name": "asset",
							"type": "address"
						}
					],
					"name": "getAssetData",
					"outputs": [
						{
							"internalType": "uint256",
							"name": "",
							"type": "uint256"
						},
						{
							"internalType": "uint256",
							"name": "",
							"type": "uint256"
						},
						{
							"internalType": "uint256",
							"name": "",
							"type": "uint256"
						}
					],
					"stateMutability": "view",
					"type": "function"
				},
				{
					"inputs": [
						{
							"internalType": "address",
							"name": "user",
							"type": "address"
						}
					],
					"name": "getClaimer",
					"outputs": [
						{
							"internalType": "address",
							"name": "",
							"type": "address"
						}
					],
					"stateMutability": "view",
					"type": "function"
				},
				{
					"inputs": [],
					"name": "getDistributionEnd",
					"outputs": [
						{
							"internalType": "uint256",
							"name": "",
							"type": "uint256"
						}
					],
					"stateMutability": "view",
					"type": "function"
				},
				{
					"inputs": [
						{
							"internalType": "address[]",
							"name": "assets",
							"type": "address[]"
						},
						{
							"internalType": "address",
							"name": "user",
							"type": "address"
						}
					],
					"name": "getRewardsBalance",
					"outputs": [
						{
							"internalType": "uint256",
							"name": "",
							"type": "uint256"
						}
					],
					"stateMutability": "view",
					"type": "function"
				},
				{
					"inputs": [],
					"name": "getRewardsVault",
					"outputs": [
						{
							"internalType": "address",
							"name": "",
							"type": "address"
						}
					],
					"stateMutability": "view",
					"type": "function"
				},
				{
					"inputs": [
						{
							"internalType": "address",
							"name": "user",
							"type": "address"
						},
						{
							"internalType": "address",
							"name": "asset",
							"type": "address"
						}
					],
					"name": "getUserAssetData",
					"outputs": [
						{
							"internalType": "uint256",
							"name": "",
							"type": "uint256"
						}
					],
					"stateMutability": "view",
					"type": "function"
				},
				{
					"inputs": [
						{
							"internalType": "address",
							"name": "_user",
							"type": "address"
						}
					],
					"name": "getUserUnclaimedRewards",
					"outputs": [
						{
							"internalType": "uint256",
							"name": "",
							"type": "uint256"
						}
					],
					"stateMutability": "view",
					"type": "function"
				},
				{
					"inputs": [
						{
							"internalType": "address",
							"name": "user",
							"type": "address"
						},
						{
							"internalType": "uint256",
							"name": "totalSupply",
							"type": "uint256"
						},
						{
							"internalType": "uint256",
							"name": "userBalance",
							"type": "uint256"
						}
					],
					"name": "handleAction",
					"outputs": [],
					"stateMutability": "nonpayable",
					"type": "function"
				},
				{
					"inputs": [
						{
							"internalType": "address",
							"name": "rewardsVault",
							"type": "address"
						}
					],
					"name": "initialize",
					"outputs": [],
					"stateMutability": "nonpayable",
					"type": "function"
				},
				{
					"inputs": [
						{
							"internalType": "address",
							"name": "user",
							"type": "address"
						},
						{
							"internalType": "address",
							"name": "caller",
							"type": "address"
						}
					],
					"name": "setClaimer",
					"outputs": [],
					"stateMutability": "nonpayable",
					"type": "function"
				},
				{
					"inputs": [
						{
							"internalType": "uint256",
							"name": "distributionEnd",
							"type": "uint256"
						}
					],
					"name": "setDistributionEnd",
					"outputs": [],
					"stateMutability": "nonpayable",
					"type": "function"
				},
				{
					"inputs": [
						{
							"internalType": "address",
							"name": "rewardsVault",
							"type": "address"
						}
					],
					"name": "setRewardsVault",
					"outputs": [],
					"stateMutability": "nonpayable",
					"type": "function"
				}
			],
			"devdoc": {
				"author": "Omnidex*",
				"kind": "dev",
				"methods": {
					"DISTRIBUTION_END()": {
						"details": "for backwards compatibility with the previous DistributionManager used",
						"returns": {
							"_0": "The end of the distribution*"
						}
					},
					"claimRewards(address[],uint256,address)": {
						"details": "Claims reward for an user to the desired address, on all the assets of the lending pool, accumulating the pending rewards",
						"params": {
							"amount": "Amount of rewards to claim",
							"to": "Address that will be receiving the rewards"
						},
						"returns": {
							"_0": "Rewards claimed*"
						}
					},
					"claimRewardsOnBehalf(address[],uint256,address,address)": {
						"details": "Claims reward for an user on behalf, on all the assets of the lending pool, accumulating the pending rewards. The caller must be whitelisted via \"allowClaimOnBehalf\" function by the RewardsAdmin role manager",
						"params": {
							"amount": "Amount of rewards to claim",
							"to": "Address that will be receiving the rewards",
							"user": "Address to check and claim rewards"
						},
						"returns": {
							"_0": "Rewards claimed*"
						}
					},
					"claimRewardsToSelf(address[],uint256)": {
						"details": "Claims reward for msg.sender, on all the assets of the lending pool, accumulating the pending rewards",
						"params": {
							"amount": "Amount of rewards to claim"
						},
						"returns": {
							"_0": "Rewards claimed*"
						}
					},
					"configureAssets(address[],uint256[])": {
						"details": "Configure assets for a certain rewards emission",
						"params": {
							"assets": "The assets to incentivize",
							"emissionsPerSecond": "The emission for each asset"
						}
					},
					"getAssetData(address)": {
						"details": "Returns the configuration of the distribution for a certain asset",
						"params": {
							"asset": "The address of the reference asset of the distribution"
						},
						"returns": {
							"_0": "The asset index, the emission per second and the last updated timestamp*"
						}
					},
					"getClaimer(address)": {
						"details": "Returns the whitelisted claimer for a certain address (0x0 if not set)",
						"params": {
							"user": "The address of the user"
						},
						"returns": {
							"_0": "The claimer address"
						}
					},
					"getDistributionEnd()": {
						"details": "Gets the end date for the distribution",
						"returns": {
							"_0": "The end of the distribution*"
						}
					},
					"getRewardsBalance(address[],address)": {
						"details": "Returns the total of rewards of an user, already accrued + not yet accrued",
						"params": {
							"user": "The address of the user"
						},
						"returns": {
							"_0": "The rewards*"
						}
					},
					"getRewardsVault()": {
						"details": "returns the current rewards vault contract",
						"returns": {
							"_0": "address"
						}
					},
					"getUserAssetData(address,address)": {
						"details": "Returns the data of an user on a distribution",
						"params": {
							"asset": "The address of the reference asset of the distribution",
							"user": "Address of the user"
						},
						"returns": {
							"_0": "The new index*"
						}
					},
					"getUserUnclaimedRewards(address)": {
						"details": "returns the unclaimed rewards of the user",
						"params": {
							"user": "the address of the user"
						},
						"returns": {
							"_0": "the unclaimed user rewards"
						}
					},
					"handleAction(address,uint256,uint256)": {
						"details": "Called by the corresponding asset on any update that affects the rewards distribution",
						"params": {
							"asset": "The address of the user",
							"totalSupply": "The total supply of the asset in the lending pool*",
							"userBalance": "The balance of the user of the asset in the lending pool"
						}
					},
					"initialize(address)": {
						"details": "Initialize OmnidexIncentivesController",
						"params": {
							"rewardsVault": "rewards vault to pull ERC20 funds*"
						}
					},
					"setClaimer(address,address)": {
						"details": "Whitelists an address to claim the rewards on behalf of another address",
						"params": {
							"claimer": "The address of the claimer",
							"user": "The address of the user"
						}
					},
					"setDistributionEnd(uint256)": {
						"details": "Sets the end date for the distribution",
						"params": {
							"distributionEnd": "The end date timestamp*"
						}
					},
					"setRewardsVault(address)": {
						"details": "update the rewards vault address, only allowed by the Rewards admin",
						"params": {
							"rewardsVault": "The address of the rewards vault*"
						}
					}
				},
				"title": "PullRewardsIncentivesController",
				"version": 1
			},
			"evm": {
				"assembly": "    /* \"contracts/Omnidex-incentives/incentives/PullRewardsIncentivesController.sol\":530:1852  contract PullRewardsIncentivesController is\r... */\n  mstore(0x40, 0xc0)\n    /* \"@aave/aave-stake/contracts/utils/VersionedInitializable.sol\":924:925  0 */\n  0x00\n    /* \"@aave/aave-stake/contracts/utils/VersionedInitializable.sol\":881:925  uint256 internal lastInitializedRevision = 0 */\n  dup1\n  sstore\n    /* \"contracts/Omnidex-incentives/incentives/PullRewardsIncentivesController.sol\":735:857  constructor(IERC20 rewardToken, address emissionManager)\r... */\n  callvalue\n  dup1\n  iszero\n  tag_1\n  jumpi\n  0x00\n  dup1\n  revert\ntag_1:\n  pop\n  mload(0x40)\n  sub(codesize, bytecodeSize)\n  dup1\n  bytecodeSize\n  dup4\n  codecopy\n  dup2\n  dup2\n  add\n  0x40\n  mstore\n  dup2\n  add\n  swap1\n  tag_2\n  swap2\n  swap1\n  tag_3\n  jump\t// in\ntag_2:\n    /* \"contracts/Omnidex-incentives/incentives/PullRewardsIncentivesController.sol\":822:833  rewardToken */\n  dup2\n    /* \"contracts/Omnidex-incentives/incentives/PullRewardsIncentivesController.sol\":835:850  emissionManager */\n  dup2\n    /* \"contracts/Omnidex-incentives/incentives/base/BaseIncentivesController.sol\":1651:1666  emissionManager */\n  dup1\n    /* \"contracts/Omnidex-incentives/incentives/base/DistributionManager.sol\":1067:1082  emissionManager */\n  dup1\n    /* \"contracts/Omnidex-incentives/incentives/base/DistributionManager.sol\":1048:1082  EMISSION_MANAGER = emissionManager */\n  0xffffffffffffffffffffffffffffffffffffffff\n  and\n  0x80\n  dup2\n  0xffffffffffffffffffffffffffffffffffffffff\n  and\n  0x60\n  shl\n  dup2\n  mstore\n  pop\n  pop\n    /* \"contracts/Omnidex-incentives/incentives/base/DistributionManager.sol\":1004:1088  constructor(address emissionManager) {\r... */\n  pop\n    /* \"contracts/Omnidex-incentives/incentives/base/BaseIncentivesController.sol\":1701:1712  rewardToken */\n  dup2\n    /* \"contracts/Omnidex-incentives/incentives/base/BaseIncentivesController.sol\":1678:1713  REWARD_TOKEN = address(rewardToken) */\n  0xffffffffffffffffffffffffffffffffffffffff\n  and\n  0xa0\n  dup2\n  0xffffffffffffffffffffffffffffffffffffffff\n  and\n  0x60\n  shl\n  dup2\n  mstore\n  pop\n  pop\n    /* \"contracts/Omnidex-incentives/incentives/base/BaseIncentivesController.sol\":1569:1719  constructor(IERC20 rewardToken, address emissionManager)\r... */\n  pop\n  pop\n    /* \"contracts/Omnidex-incentives/incentives/PullRewardsIncentivesController.sol\":735:857  constructor(IERC20 rewardToken, address emissionManager)\r... */\n  pop\n  pop\n    /* \"contracts/Omnidex-incentives/incentives/PullRewardsIncentivesController.sol\":530:1852  contract PullRewardsIncentivesController is\r... */\n  jump(tag_10)\n    /* \"#utility.yul\":7:150   */\ntag_12:\n  0x00\n    /* \"#utility.yul\":95:101   */\n  dup2\n    /* \"#utility.yul\":89:102   */\n  mload\n    /* \"#utility.yul\":80:102   */\n  swap1\n  pop\n    /* \"#utility.yul\":111:144   */\n  tag_14\n    /* \"#utility.yul\":138:143   */\n  dup2\n    /* \"#utility.yul\":111:144   */\n  tag_15\n  jump\t// in\ntag_14:\n    /* \"#utility.yul\":70:150   */\n  swap3\n  swap2\n  pop\n  pop\n  jump\t// out\n    /* \"#utility.yul\":156:325   */\ntag_16:\n  0x00\n    /* \"#utility.yul\":257:263   */\n  dup2\n    /* \"#utility.yul\":251:264   */\n  mload\n    /* \"#utility.yul\":242:264   */\n  swap1\n  pop\n    /* \"#utility.yul\":273:319   */\n  tag_18\n    /* \"#utility.yul\":313:318   */\n  dup2\n    /* \"#utility.yul\":273:319   */\n  tag_19\n  jump\t// in\ntag_18:\n    /* \"#utility.yul\":232:325   */\n  swap3\n  swap2\n  pop\n  pop\n  jump\t// out\n    /* \"#utility.yul\":331:793   */\ntag_3:\n  0x00\n  dup1\n    /* \"#utility.yul\":480:482   */\n  0x40\n    /* \"#utility.yul\":468:477   */\n  dup4\n    /* \"#utility.yul\":459:466   */\n  dup6\n    /* \"#utility.yul\":455:478   */\n  sub\n    /* \"#utility.yul\":451:483   */\n  slt\n    /* \"#utility.yul\":448:450   */\n  iszero\n  tag_21\n  jumpi\n    /* \"#utility.yul\":496:497   */\n  0x00\n    /* \"#utility.yul\":493:494   */\n  dup1\n    /* \"#utility.yul\":486:498   */\n  revert\n    /* \"#utility.yul\":448:450   */\ntag_21:\n    /* \"#utility.yul\":538:539   */\n  0x00\n    /* \"#utility.yul\":562:639   */\n  tag_22\n    /* \"#utility.yul\":631:638   */\n  dup6\n    /* \"#utility.yul\":622:628   */\n  dup3\n    /* \"#utility.yul\":611:620   */\n  dup7\n    /* \"#utility.yul\":607:629   */\n  add\n    /* \"#utility.yul\":562:639   */\n  tag_16\n  jump\t// in\ntag_22:\n    /* \"#utility.yul\":552:639   */\n  swap3\n  pop\n    /* \"#utility.yul\":510:649   */\n  pop\n    /* \"#utility.yul\":687:689   */\n  0x20\n    /* \"#utility.yul\":712:776   */\n  tag_23\n    /* \"#utility.yul\":768:775   */\n  dup6\n    /* \"#utility.yul\":759:765   */\n  dup3\n    /* \"#utility.yul\":748:757   */\n  dup7\n    /* \"#utility.yul\":744:766   */\n  add\n    /* \"#utility.yul\":712:776   */\n  tag_12\n  jump\t// in\ntag_23:\n    /* \"#utility.yul\":702:776   */\n  swap2\n  pop\n    /* \"#utility.yul\":659:786   */\n  pop\n    /* \"#utility.yul\":438:793   */\n  swap3\n  pop\n  swap3\n  swap1\n  pop\n  jump\t// out\n    /* \"#utility.yul\":799:895   */\ntag_24:\n  0x00\n    /* \"#utility.yul\":865:889   */\n  tag_26\n    /* \"#utility.yul\":883:888   */\n  dup3\n    /* \"#utility.yul\":865:889   */\n  tag_27\n  jump\t// in\ntag_26:\n    /* \"#utility.yul\":854:889   */\n  swap1\n  pop\n    /* \"#utility.yul\":844:895   */\n  swap2\n  swap1\n  pop\n  jump\t// out\n    /* \"#utility.yul\":901:1010   */\ntag_28:\n  0x00\n    /* \"#utility.yul\":980:1004   */\n  tag_30\n    /* \"#utility.yul\":998:1003   */\n  dup3\n    /* \"#utility.yul\":980:1004   */\n  tag_24\n  jump\t// in\ntag_30:\n    /* \"#utility.yul\":969:1004   */\n  swap1\n  pop\n    /* \"#utility.yul\":959:1010   */\n  swap2\n  swap1\n  pop\n  jump\t// out\n    /* \"#utility.yul\":1016:1142   */\ntag_27:\n  0x00\n    /* \"#utility.yul\":1093:1135   */\n  0xffffffffffffffffffffffffffffffffffffffff\n    /* \"#utility.yul\":1086:1091   */\n  dup3\n    /* \"#utility.yul\":1082:1136   */\n  and\n    /* \"#utility.yul\":1071:1136   */\n  swap1\n  pop\n    /* \"#utility.yul\":1061:1142   */\n  swap2\n  swap1\n  pop\n  jump\t// out\n    /* \"#utility.yul\":1148:1270   */\ntag_15:\n    /* \"#utility.yul\":1221:1245   */\n  tag_33\n    /* \"#utility.yul\":1239:1244   */\n  dup2\n    /* \"#utility.yul\":1221:1245   */\n  tag_24\n  jump\t// in\ntag_33:\n    /* \"#utility.yul\":1214:1219   */\n  dup2\n    /* \"#utility.yul\":1211:1246   */\n  eq\n    /* \"#utility.yul\":1201:1203   */\n  tag_34\n  jumpi\n    /* \"#utility.yul\":1260:1261   */\n  0x00\n    /* \"#utility.yul\":1257:1258   */\n  dup1\n    /* \"#utility.yul\":1250:1262   */\n  revert\n    /* \"#utility.yul\":1201:1203   */\ntag_34:\n    /* \"#utility.yul\":1191:1270   */\n  pop\n  jump\t// out\n    /* \"#utility.yul\":1276:1424   */\ntag_19:\n    /* \"#utility.yul\":1362:1399   */\n  tag_36\n    /* \"#utility.yul\":1393:1398   */\n  dup2\n    /* \"#utility.yul\":1362:1399   */\n  tag_28\n  jump\t// in\ntag_36:\n    /* \"#utility.yul\":1355:1360   */\n  dup2\n    /* \"#utility.yul\":1352:1400   */\n  eq\n    /* \"#utility.yul\":1342:1344   */\n  tag_37\n  jumpi\n    /* \"#utility.yul\":1414:1415   */\n  0x00\n    /* \"#utility.yul\":1411:1412   */\n  dup1\n    /* \"#utility.yul\":1404:1416   */\n  revert\n    /* \"#utility.yul\":1342:1344   */\ntag_37:\n    /* \"#utility.yul\":1332:1424   */\n  pop\n  jump\t// out\n    /* \"contracts/Omnidex-incentives/incentives/PullRewardsIncentivesController.sol\":530:1852  contract PullRewardsIncentivesController is\r... */\ntag_10:\n  shr(0x60, mload(0x80))\n  shr(0x60, mload(0xa0))\n  codecopy(0x00, dataOffset(sub_0), dataSize(sub_0))\n  assignImmutable(\"0xe229503fec190040ef38484d41ddb4c2fce10c1aa73d9d5bd832f8c76f44643b\")\n  assignImmutable(\"0xfb72c19603b99a84eb94b2a957c683e899e1d0f4b28e255e051e7f1b190ba3b8\")\n  return(0x00, dataSize(sub_0))\nstop\n\nsub_0: assembly {\n        /* \"contracts/Omnidex-incentives/incentives/PullRewardsIncentivesController.sol\":530:1852  contract PullRewardsIncentivesController is\r... */\n      mstore(0x40, 0x80)\n      callvalue\n      dup1\n      iszero\n      tag_1\n      jumpi\n      0x00\n      dup1\n      revert\n    tag_1:\n      pop\n      jumpi(tag_2, lt(calldatasize, 0x04))\n      shr(0xe0, calldataload(0x00))\n      dup1\n      0x919cd40f\n      gt\n      tag_25\n      jumpi\n      dup1\n      0xcc69afec\n      gt\n      tag_26\n      jumpi\n      dup1\n      0xcc69afec\n      eq\n      tag_19\n      jumpi\n      dup1\n      0xdde43cba\n      eq\n      tag_20\n      jumpi\n      dup1\n      0xe23ddec5\n      eq\n      tag_21\n      jumpi\n      dup1\n      0xf11b8188\n      eq\n      tag_22\n      jumpi\n      dup1\n      0xf5bb3e02\n      eq\n      tag_23\n      jumpi\n      dup1\n      0xf5cf673b\n      eq\n      tag_24\n      jumpi\n      jump(tag_2)\n    tag_26:\n      dup1\n      0x919cd40f\n      eq\n      tag_14\n      jumpi\n      dup1\n      0x99248ea7\n      eq\n      tag_15\n      jumpi\n      dup1\n      0xaaf5eb68\n      eq\n      tag_16\n      jumpi\n      dup1\n      0xc4d66de8\n      eq\n      tag_17\n      jumpi\n      dup1\n      0xcbcbb507\n      eq\n      tag_18\n      jumpi\n      jump(tag_2)\n    tag_25:\n      dup1\n      0x39ccbdd3\n      gt\n      tag_27\n      jumpi\n      dup1\n      0x39ccbdd3\n      eq\n      tag_8\n      jumpi\n      dup1\n      0x41485304\n      eq\n      tag_9\n      jumpi\n      dup1\n      0x6d34b96e\n      eq\n      tag_10\n      jumpi\n      dup1\n      0x74d945ec\n      eq\n      tag_11\n      jumpi\n      dup1\n      0x79f171b2\n      eq\n      tag_12\n      jumpi\n      dup1\n      0x8b599f26\n      eq\n      tag_13\n      jumpi\n      jump(tag_2)\n    tag_27:\n      dup1\n      0x1652e7b7\n      eq\n      tag_3\n      jumpi\n      dup1\n      0x198fa81e\n      eq\n      tag_4\n      jumpi\n      dup1\n      0x3111e7b3\n      eq\n      tag_5\n      jumpi\n      dup1\n      0x31873e2e\n      eq\n      tag_6\n      jumpi\n      dup1\n      0x3373ee4c\n      eq\n      tag_7\n      jumpi\n    tag_2:\n      0x00\n      dup1\n      revert\n        /* \"contracts/Omnidex-incentives/incentives/base/DistributionManager.sol\":1893:2096  function getAssetData(address asset) public view override returns (uint256, uint256, uint256) {\r... */\n    tag_3:\n      tag_28\n      0x04\n      dup1\n      calldatasize\n      sub\n      dup2\n      add\n      swap1\n      tag_29\n      swap2\n      swap1\n      tag_30\n      jump\t// in\n    tag_29:\n      tag_31\n      jump\t// in\n    tag_28:\n      mload(0x40)\n      tag_32\n      swap4\n      swap3\n      swap2\n      swap1\n      tag_33\n      jump\t// in\n    tag_32:\n      mload(0x40)\n      dup1\n      swap2\n      sub\n      swap1\n      return\n        /* \"contracts/Omnidex-incentives/incentives/base/BaseIncentivesController.sol\":5231:5369  function getUserUnclaimedRewards(address _user) external view override returns (uint256) {\r... */\n    tag_4:\n      tag_34\n      0x04\n      dup1\n      calldatasize\n      sub\n      dup2\n      add\n      swap1\n      tag_35\n      swap2\n      swap1\n      tag_30\n      jump\t// in\n    tag_35:\n      tag_36\n      jump\t// in\n    tag_34:\n      mload(0x40)\n      tag_37\n      swap2\n      swap1\n      tag_38\n      jump\t// in\n    tag_37:\n      mload(0x40)\n      dup1\n      swap2\n      sub\n      swap1\n      return\n        /* \"contracts/Omnidex-incentives/incentives/base/BaseIncentivesController.sol\":3812:4076  function claimRewards(\r... */\n    tag_5:\n      tag_39\n      0x04\n      dup1\n      calldatasize\n      sub\n      dup2\n      add\n      swap1\n      tag_40\n      swap2\n      swap1\n      tag_41\n      jump\t// in\n    tag_40:\n      tag_42\n      jump\t// in\n    tag_39:\n      mload(0x40)\n      tag_43\n      swap2\n      swap1\n      tag_38\n      jump\t// in\n    tag_43:\n      mload(0x40)\n      dup1\n      swap2\n      sub\n      swap1\n      return\n        /* \"contracts/Omnidex-incentives/incentives/base/BaseIncentivesController.sol\":2619:3018  function handleAction(\r... */\n    tag_6:\n      tag_44\n      0x04\n      dup1\n      calldatasize\n      sub\n      dup2\n      add\n      swap1\n      tag_45\n      swap2\n      swap1\n      tag_46\n      jump\t// in\n    tag_45:\n      tag_47\n      jump\t// in\n    tag_44:\n      stop\n        /* \"contracts/Omnidex-incentives/incentives/base/DistributionManager.sol\":1701:1840  function getUserAssetData(address user, address asset) public view override returns (uint256) {\r... */\n    tag_7:\n      tag_48\n      0x04\n      dup1\n      calldatasize\n      sub\n      dup2\n      add\n      swap1\n      tag_49\n      swap2\n      swap1\n      tag_50\n      jump\t// in\n    tag_49:\n      tag_51\n      jump\t// in\n    tag_48:\n      mload(0x40)\n      tag_52\n      swap2\n      swap1\n      tag_38\n      jump\t// in\n    tag_52:\n      mload(0x40)\n      dup1\n      swap2\n      sub\n      swap1\n      return\n        /* \"contracts/Omnidex-incentives/incentives/base/DistributionManager.sol\":1141:1330  function setDistributionEnd(uint256 distributionEnd) external override onlyEmissionManager {\r... */\n    tag_8:\n      tag_53\n      0x04\n      dup1\n      calldatasize\n      sub\n      dup2\n      add\n      swap1\n      tag_54\n      swap2\n      swap1\n      tag_55\n      jump\t// in\n    tag_54:\n      tag_56\n      jump\t// in\n    tag_53:\n      stop\n        /* \"contracts/Omnidex-incentives/incentives/base/BaseIncentivesController.sol\":4568:4778  function claimRewardsToSelf(address[] calldata assets, uint256 amount)\r... */\n    tag_9:\n      tag_57\n      0x04\n      dup1\n      calldatasize\n      sub\n      dup2\n      add\n      swap1\n      tag_58\n      swap2\n      swap1\n      tag_59\n      jump\t// in\n    tag_58:\n      tag_60\n      jump\t// in\n    tag_57:\n      mload(0x40)\n      tag_61\n      swap2\n      swap1\n      tag_38\n      jump\t// in\n    tag_61:\n      mload(0x40)\n      dup1\n      swap2\n      sub\n      swap1\n      return\n        /* \"contracts/Omnidex-incentives/incentives/base/BaseIncentivesController.sol\":4130:4514  function claimRewardsOnBehalf(\r... */\n    tag_10:\n      tag_62\n      0x04\n      dup1\n      calldatasize\n      sub\n      dup2\n      add\n      swap1\n      tag_63\n      swap2\n      swap1\n      tag_64\n      jump\t// in\n    tag_63:\n      tag_65\n      jump\t// in\n    tag_62:\n      mload(0x40)\n      tag_66\n      swap2\n      swap1\n      tag_38\n      jump\t// in\n    tag_66:\n      mload(0x40)\n      dup1\n      swap2\n      sub\n      swap1\n      return\n        /* \"contracts/Omnidex-incentives/incentives/base/BaseIncentivesController.sol\":5057:5177  function getClaimer(address user) external view override returns (address) {\r... */\n    tag_11:\n      tag_67\n      0x04\n      dup1\n      calldatasize\n      sub\n      dup2\n      add\n      swap1\n      tag_68\n      swap2\n      swap1\n      tag_30\n      jump\t// in\n    tag_68:\n      tag_69\n      jump\t// in\n    tag_67:\n      mload(0x40)\n      tag_70\n      swap2\n      swap1\n      tag_71\n      jump\t// in\n    tag_70:\n      mload(0x40)\n      dup1\n      swap2\n      sub\n      swap1\n      return\n        /* \"contracts/Omnidex-incentives/incentives/base/BaseIncentivesController.sol\":1773:2565  function configureAssets(address[] calldata assets, uint256[] calldata emissionsPerSecond)\r... */\n    tag_12:\n      tag_72\n      0x04\n      dup1\n      calldatasize\n      sub\n      dup2\n      add\n      swap1\n      tag_73\n      swap2\n      swap1\n      tag_74\n      jump\t// in\n    tag_73:\n      tag_75\n      jump\t// in\n    tag_72:\n      stop\n        /* \"contracts/Omnidex-incentives/incentives/base/BaseIncentivesController.sol\":3072:3758  function getRewardsBalance(address[] calldata assets, address user)\r... */\n    tag_13:\n      tag_76\n      0x04\n      dup1\n      calldatasize\n      sub\n      dup2\n      add\n      swap1\n      tag_77\n      swap2\n      swap1\n      tag_78\n      jump\t// in\n    tag_77:\n      tag_79\n      jump\t// in\n    tag_76:\n      mload(0x40)\n      tag_80\n      swap2\n      swap1\n      tag_38\n      jump\t// in\n    tag_80:\n      mload(0x40)\n      dup1\n      swap2\n      sub\n      swap1\n      return\n        /* \"contracts/Omnidex-incentives/incentives/base/DistributionManager.sol\":1543:1648  function DISTRIBUTION_END() external view override returns (uint256) {\r... */\n    tag_14:\n      tag_81\n      tag_82\n      jump\t// in\n    tag_81:\n      mload(0x40)\n      tag_83\n      swap2\n      swap1\n      tag_38\n      jump\t// in\n    tag_83:\n      mload(0x40)\n      dup1\n      swap2\n      sub\n      swap1\n      return\n        /* \"contracts/Omnidex-incentives/incentives/base/BaseIncentivesController.sol\":1026:1072  address public immutable override REWARD_TOKEN */\n    tag_15:\n      tag_84\n      tag_85\n      jump\t// in\n    tag_84:\n      mload(0x40)\n      tag_86\n      swap2\n      swap1\n      tag_71\n      jump\t// in\n    tag_86:\n      mload(0x40)\n      dup1\n      swap2\n      sub\n      swap1\n      return\n        /* \"contracts/Omnidex-incentives/incentives/base/DistributionManager.sol\":749:785  uint8 public constant PRECISION = 18 */\n    tag_16:\n      tag_87\n      tag_88\n      jump\t// in\n    tag_87:\n      mload(0x40)\n      tag_89\n      swap2\n      swap1\n      tag_90\n      jump\t// in\n    tag_89:\n      mload(0x40)\n      dup1\n      swap2\n      sub\n      swap1\n      return\n        /* \"contracts/Omnidex-incentives/incentives/PullRewardsIncentivesController.sol\":988:1138  function initialize(address rewardsVault) external initializer {\r... */\n    tag_17:\n      tag_91\n      0x04\n      dup1\n      calldatasize\n      sub\n      dup2\n      add\n      swap1\n      tag_92\n      swap2\n      swap1\n      tag_30\n      jump\t// in\n    tag_92:\n      tag_93\n      jump\t// in\n    tag_91:\n      stop\n        /* \"contracts/Omnidex-incentives/incentives/base/DistributionManager.sol\":701:742  address public immutable EMISSION_MANAGER */\n    tag_18:\n      tag_94\n      tag_95\n      jump\t// in\n    tag_94:\n      mload(0x40)\n      tag_96\n      swap2\n      swap1\n      tag_71\n      jump\t// in\n    tag_96:\n      mload(0x40)\n      dup1\n      swap2\n      sub\n      swap1\n      return\n        /* \"contracts/Omnidex-incentives/incentives/base/DistributionManager.sol\":1383:1490  function getDistributionEnd() external view override returns (uint256) {\r... */\n    tag_19:\n      tag_97\n      tag_98\n      jump\t// in\n    tag_97:\n      mload(0x40)\n      tag_99\n      swap2\n      swap1\n      tag_38\n      jump\t// in\n    tag_99:\n      mload(0x40)\n      dup1\n      swap2\n      sub\n      swap1\n      return\n        /* \"contracts/Omnidex-incentives/incentives/base/BaseIncentivesController.sol\":983:1019  uint256 public constant REVISION = 1 */\n    tag_20:\n      tag_100\n      tag_101\n      jump\t// in\n    tag_100:\n      mload(0x40)\n      tag_102\n      swap2\n      swap1\n      tag_38\n      jump\t// in\n    tag_102:\n      mload(0x40)\n      dup1\n      swap2\n      sub\n      swap1\n      return\n        /* \"contracts/Omnidex-incentives/incentives/PullRewardsIncentivesController.sol\":1234:1326  function getRewardsVault() external view returns (address) {\r... */\n    tag_21:\n      tag_103\n      tag_104\n      jump\t// in\n    tag_103:\n      mload(0x40)\n      tag_105\n      swap2\n      swap1\n      tag_71\n      jump\t// in\n    tag_105:\n      mload(0x40)\n      dup1\n      swap2\n      sub\n      swap1\n      return\n        /* \"contracts/Omnidex-incentives/incentives/base/DistributionManager.sol\":792:835  mapping(address => AssetData) public assets */\n    tag_22:\n      tag_106\n      0x04\n      dup1\n      calldatasize\n      sub\n      dup2\n      add\n      swap1\n      tag_107\n      swap2\n      swap1\n      tag_30\n      jump\t// in\n    tag_107:\n      tag_108\n      jump\t// in\n    tag_106:\n      mload(0x40)\n      tag_109\n      swap4\n      swap3\n      swap2\n      swap1\n      tag_110\n      jump\t// in\n    tag_109:\n      mload(0x40)\n      dup1\n      swap2\n      sub\n      swap1\n      return\n        /* \"contracts/Omnidex-incentives/incentives/PullRewardsIncentivesController.sol\":1485:1647  function setRewardsVault(address rewardsVault) external onlyEmissionManager {\r... */\n    tag_23:\n      tag_111\n      0x04\n      dup1\n      calldatasize\n      sub\n      dup2\n      add\n      swap1\n      tag_112\n      swap2\n      swap1\n      tag_30\n      jump\t// in\n    tag_112:\n      tag_113\n      jump\t// in\n    tag_111:\n      stop\n        /* \"contracts/Omnidex-incentives/incentives/base/BaseIncentivesController.sol\":4832:5003  function setClaimer(address user, address caller) external override onlyEmissionManager {\r... */\n    tag_24:\n      tag_114\n      0x04\n      dup1\n      calldatasize\n      sub\n      dup2\n      add\n      swap1\n      tag_115\n      swap2\n      swap1\n      tag_50\n      jump\t// in\n    tag_115:\n      tag_116\n      jump\t// in\n    tag_114:\n      stop\n        /* \"contracts/Omnidex-incentives/incentives/base/DistributionManager.sol\":1893:2096  function getAssetData(address asset) public view override returns (uint256, uint256, uint256) {\r... */\n    tag_31:\n        /* \"contracts/Omnidex-incentives/incentives/base/DistributionManager.sol\":1960:1967  uint256 */\n      0x00\n        /* \"contracts/Omnidex-incentives/incentives/base/DistributionManager.sol\":1969:1976  uint256 */\n      dup1\n        /* \"contracts/Omnidex-incentives/incentives/base/DistributionManager.sol\":1978:1985  uint256 */\n      0x00\n        /* \"contracts/Omnidex-incentives/incentives/base/DistributionManager.sol\":2002:2008  assets */\n      0x33\n        /* \"contracts/Omnidex-incentives/incentives/base/DistributionManager.sol\":2002:2015  assets[asset] */\n      0x00\n        /* \"contracts/Omnidex-incentives/incentives/base/DistributionManager.sol\":2009:2014  asset */\n      dup6\n        /* \"contracts/Omnidex-incentives/incentives/base/DistributionManager.sol\":2002:2015  assets[asset] */\n      0xffffffffffffffffffffffffffffffffffffffff\n      and\n      0xffffffffffffffffffffffffffffffffffffffff\n      and\n      dup2\n      mstore\n      0x20\n      add\n      swap1\n      dup2\n      mstore\n      0x20\n      add\n      0x00\n      keccak256\n        /* \"contracts/Omnidex-incentives/incentives/base/DistributionManager.sol\":2002:2021  assets[asset].index */\n      0x00\n      add\n      0x0d\n      swap1\n      sload\n      swap1\n      0x0100\n      exp\n      swap1\n      div\n      0xffffffffffffffffffffffffff\n      and\n        /* \"contracts/Omnidex-incentives/incentives/base/DistributionManager.sol\":2023:2029  assets */\n      0x33\n        /* \"contracts/Omnidex-incentives/incentives/base/DistributionManager.sol\":2023:2036  assets[asset] */\n      0x00\n        /* \"contracts/Omnidex-incentives/incentives/base/DistributionManager.sol\":2030:2035  asset */\n      dup7\n        /* \"contracts/Omnidex-incentives/incentives/base/DistributionManager.sol\":2023:2036  assets[asset] */\n      0xffffffffffffffffffffffffffffffffffffffff\n      and\n      0xffffffffffffffffffffffffffffffffffffffff\n      and\n      dup2\n      mstore\n      0x20\n      add\n      swap1\n      dup2\n      mstore\n      0x20\n      add\n      0x00\n      keccak256\n        /* \"contracts/Omnidex-incentives/incentives/base/DistributionManager.sol\":2023:2054  assets[asset].emissionPerSecond */\n      0x00\n      add\n      0x00\n      swap1\n      sload\n      swap1\n      0x0100\n      exp\n      swap1\n      div\n      0xffffffffffffffffffffffffff\n      and\n        /* \"contracts/Omnidex-incentives/incentives/base/DistributionManager.sol\":2056:2062  assets */\n      0x33\n        /* \"contracts/Omnidex-incentives/incentives/base/DistributionManager.sol\":2056:2069  assets[asset] */\n      0x00\n        /* \"contracts/Omnidex-incentives/incentives/base/DistributionManager.sol\":2063:2068  asset */\n      dup8\n        /* \"contracts/Omnidex-incentives/incentives/base/DistributionManager.sol\":2056:2069  assets[asset] */\n      0xffffffffffffffffffffffffffffffffffffffff\n      and\n      0xffffffffffffffffffffffffffffffffffffffff\n      and\n      dup2\n      mstore\n      0x20\n      add\n      swap1\n      dup2\n      mstore\n      0x20\n      add\n      0x00\n      keccak256\n        /* \"contracts/Omnidex-incentives/incentives/base/DistributionManager.sol\":2056:2089  assets[asset].lastUpdateTimestamp */\n      0x00\n      add\n      0x1a\n      swap1\n      sload\n      swap1\n      0x0100\n      exp\n      swap1\n      div\n      0xffffffffff\n      and\n        /* \"contracts/Omnidex-incentives/incentives/base/DistributionManager.sol\":1994:2090  return (assets[asset].index, assets[asset].emissionPerSecond, assets[asset].lastUpdateTimestamp) */\n      dup3\n      0xffffffffffffffffffffffffff\n      and\n      swap3\n      pop\n      dup2\n      0xffffffffffffffffffffffffff\n      and\n      swap2\n      pop\n      dup1\n      0xffffffffff\n      and\n      swap1\n      pop\n      swap3\n      pop\n      swap3\n      pop\n      swap3\n      pop\n        /* \"contracts/Omnidex-incentives/incentives/base/DistributionManager.sol\":1893:2096  function getAssetData(address asset) public view override returns (uint256, uint256, uint256) {\r... */\n      swap2\n      swap4\n      swap1\n      swap3\n      pop\n      jump\t// out\n        /* \"contracts/Omnidex-incentives/incentives/base/BaseIncentivesController.sol\":5231:5369  function getUserUnclaimedRewards(address _user) external view override returns (uint256) {\r... */\n    tag_36:\n        /* \"contracts/Omnidex-incentives/incentives/base/BaseIncentivesController.sol\":5311:5318  uint256 */\n      0x00\n        /* \"contracts/Omnidex-incentives/incentives/base/BaseIncentivesController.sol\":5334:5356  _usersUnclaimedRewards */\n      0x35\n        /* \"contracts/Omnidex-incentives/incentives/base/BaseIncentivesController.sol\":5334:5363  _usersUnclaimedRewards[_user] */\n      0x00\n        /* \"contracts/Omnidex-incentives/incentives/base/BaseIncentivesController.sol\":5357:5362  _user */\n      dup4\n        /* \"contracts/Omnidex-incentives/incentives/base/BaseIncentivesController.sol\":5334:5363  _usersUnclaimedRewards[_user] */\n      0xffffffffffffffffffffffffffffffffffffffff\n      and\n      0xffffffffffffffffffffffffffffffffffffffff\n      and\n      dup2\n      mstore\n      0x20\n      add\n      swap1\n      dup2\n      mstore\n      0x20\n      add\n      0x00\n      keccak256\n      sload\n        /* \"contracts/Omnidex-incentives/incentives/base/BaseIncentivesController.sol\":5327:5363  return _usersUnclaimedRewards[_user] */\n      swap1\n      pop\n        /* \"contracts/Omnidex-incentives/incentives/base/BaseIncentivesController.sol\":5231:5369  function getUserUnclaimedRewards(address _user) external view override returns (uint256) {\r... */\n      swap2\n      swap1\n      pop\n      jump\t// out\n        /* \"contracts/Omnidex-incentives/incentives/base/BaseIncentivesController.sol\":3812:4076  function claimRewards(\r... */\n    tag_42:\n        /* \"contracts/Omnidex-incentives/incentives/base/BaseIncentivesController.sol\":3936:3943  uint256 */\n      0x00\n        /* \"contracts/Omnidex-incentives/incentives/base/BaseIncentivesController.sol\":3974:3975  0 */\n      dup1\n        /* \"contracts/Omnidex-incentives/incentives/base/BaseIncentivesController.sol\":3960:3976  to != address(0) */\n      0xffffffffffffffffffffffffffffffffffffffff\n      and\n        /* \"contracts/Omnidex-incentives/incentives/base/BaseIncentivesController.sol\":3960:3962  to */\n      dup3\n        /* \"contracts/Omnidex-incentives/incentives/base/BaseIncentivesController.sol\":3960:3976  to != address(0) */\n      0xffffffffffffffffffffffffffffffffffffffff\n      and\n      eq\n      iszero\n        /* \"contracts/Omnidex-incentives/incentives/base/BaseIncentivesController.sol\":3952:3999  require(to != address(0), 'INVALID_TO_ADDRESS') */\n      tag_120\n      jumpi\n      mload(0x40)\n      0x08c379a000000000000000000000000000000000000000000000000000000000\n      dup2\n      mstore\n      0x04\n      add\n      tag_121\n      swap1\n      tag_122\n      jump\t// in\n    tag_121:\n      mload(0x40)\n      dup1\n      swap2\n      sub\n      swap1\n      revert\n    tag_120:\n        /* \"contracts/Omnidex-incentives/incentives/base/BaseIncentivesController.sol\":4013:4070  _claimRewards(assets, amount, msg.sender, msg.sender, to) */\n      tag_123\n        /* \"contracts/Omnidex-incentives/incentives/base/BaseIncentivesController.sol\":4027:4033  assets */\n      dup6\n      dup6\n        /* \"contracts/Omnidex-incentives/incentives/base/BaseIncentivesController.sol\":4035:4041  amount */\n      dup6\n        /* \"contracts/Omnidex-incentives/incentives/base/BaseIncentivesController.sol\":4043:4053  msg.sender */\n      caller\n        /* \"contracts/Omnidex-incentives/incentives/base/BaseIncentivesController.sol\":4055:4065  msg.sender */\n      caller\n        /* \"contracts/Omnidex-incentives/incentives/base/BaseIncentivesController.sol\":4067:4069  to */\n      dup8\n        /* \"contracts/Omnidex-incentives/incentives/base/BaseIncentivesController.sol\":4013:4026  _claimRewards */\n      tag_124\n        /* \"contracts/Omnidex-incentives/incentives/base/BaseIncentivesController.sol\":4013:4070  _claimRewards(assets, amount, msg.sender, msg.sender, to) */\n      jump\t// in\n    tag_123:\n        /* \"contracts/Omnidex-incentives/incentives/base/BaseIncentivesController.sol\":4006:4070  return _claimRewards(assets, amount, msg.sender, msg.sender, to) */\n      swap1\n      pop\n        /* \"contracts/Omnidex-incentives/incentives/base/BaseIncentivesController.sol\":3812:4076  function claimRewards(\r... */\n      swap5\n      swap4\n      pop\n      pop\n      pop\n      pop\n      jump\t// out\n        /* \"contracts/Omnidex-incentives/incentives/base/BaseIncentivesController.sol\":2619:3018  function handleAction(\r... */\n    tag_47:\n        /* \"contracts/Omnidex-incentives/incentives/base/BaseIncentivesController.sol\":2742:2764  uint256 accruedRewards */\n      0x00\n        /* \"contracts/Omnidex-incentives/incentives/base/BaseIncentivesController.sol\":2767:2835  _updateUserAssetInternal(user, msg.sender, userBalance, totalSupply) */\n      tag_126\n        /* \"contracts/Omnidex-incentives/incentives/base/BaseIncentivesController.sol\":2792:2796  user */\n      dup5\n        /* \"contracts/Omnidex-incentives/incentives/base/BaseIncentivesController.sol\":2798:2808  msg.sender */\n      caller\n        /* \"contracts/Omnidex-incentives/incentives/base/BaseIncentivesController.sol\":2810:2821  userBalance */\n      dup5\n        /* \"contracts/Omnidex-incentives/incentives/base/BaseIncentivesController.sol\":2823:2834  totalSupply */\n      dup7\n        /* \"contracts/Omnidex-incentives/incentives/base/BaseIncentivesController.sol\":2767:2791  _updateUserAssetInternal */\n      tag_127\n        /* \"contracts/Omnidex-incentives/incentives/base/BaseIncentivesController.sol\":2767:2835  _updateUserAssetInternal(user, msg.sender, userBalance, totalSupply) */\n      jump\t// in\n    tag_126:\n        /* \"contracts/Omnidex-incentives/incentives/base/BaseIncentivesController.sol\":2742:2835  uint256 accruedRewards = _updateUserAssetInternal(user, msg.sender, userBalance, totalSupply) */\n      swap1\n      pop\n        /* \"contracts/Omnidex-incentives/incentives/base/BaseIncentivesController.sol\":2864:2865  0 */\n      0x00\n        /* \"contracts/Omnidex-incentives/incentives/base/BaseIncentivesController.sol\":2846:2860  accruedRewards */\n      dup2\n        /* \"contracts/Omnidex-incentives/incentives/base/BaseIncentivesController.sol\":2846:2865  accruedRewards != 0 */\n      eq\n        /* \"contracts/Omnidex-incentives/incentives/base/BaseIncentivesController.sol\":2842:3013  if (accruedRewards != 0) {\r... */\n      tag_128\n      jumpi\n        /* \"contracts/Omnidex-incentives/incentives/base/BaseIncentivesController.sol\":2907:2955  _usersUnclaimedRewards[user].add(accruedRewards) */\n      tag_129\n        /* \"contracts/Omnidex-incentives/incentives/base/BaseIncentivesController.sol\":2940:2954  accruedRewards */\n      dup2\n        /* \"contracts/Omnidex-incentives/incentives/base/BaseIncentivesController.sol\":2907:2929  _usersUnclaimedRewards */\n      0x35\n        /* \"contracts/Omnidex-incentives/incentives/base/BaseIncentivesController.sol\":2907:2935  _usersUnclaimedRewards[user] */\n      0x00\n        /* \"contracts/Omnidex-incentives/incentives/base/BaseIncentivesController.sol\":2930:2934  user */\n      dup8\n        /* \"contracts/Omnidex-incentives/incentives/base/BaseIncentivesController.sol\":2907:2935  _usersUnclaimedRewards[user] */\n      0xffffffffffffffffffffffffffffffffffffffff\n      and\n      0xffffffffffffffffffffffffffffffffffffffff\n      and\n      dup2\n      mstore\n      0x20\n      add\n      swap1\n      dup2\n      mstore\n      0x20\n      add\n      0x00\n      keccak256\n      sload\n        /* \"contracts/Omnidex-incentives/incentives/base/BaseIncentivesController.sol\":2907:2939  _usersUnclaimedRewards[user].add */\n      tag_130\n      swap1\n        /* \"contracts/Omnidex-incentives/incentives/base/BaseIncentivesController.sol\":2907:2955  _usersUnclaimedRewards[user].add(accruedRewards) */\n      swap2\n      swap1\n      0xffffffff\n      and\n      jump\t// in\n    tag_129:\n        /* \"contracts/Omnidex-incentives/incentives/base/BaseIncentivesController.sol\":2876:2898  _usersUnclaimedRewards */\n      0x35\n        /* \"contracts/Omnidex-incentives/incentives/base/BaseIncentivesController.sol\":2876:2904  _usersUnclaimedRewards[user] */\n      0x00\n        /* \"contracts/Omnidex-incentives/incentives/base/BaseIncentivesController.sol\":2899:2903  user */\n      dup7\n        /* \"contracts/Omnidex-incentives/incentives/base/BaseIncentivesController.sol\":2876:2904  _usersUnclaimedRewards[user] */\n      0xffffffffffffffffffffffffffffffffffffffff\n      and\n      0xffffffffffffffffffffffffffffffffffffffff\n      and\n      dup2\n      mstore\n      0x20\n      add\n      swap1\n      dup2\n      mstore\n      0x20\n      add\n      0x00\n      keccak256\n        /* \"contracts/Omnidex-incentives/incentives/base/BaseIncentivesController.sol\":2876:2955  _usersUnclaimedRewards[user] = _usersUnclaimedRewards[user].add(accruedRewards) */\n      dup2\n      swap1\n      sstore\n      pop\n        /* \"contracts/Omnidex-incentives/incentives/base/BaseIncentivesController.sol\":2984:2988  user */\n      dup4\n        /* \"contracts/Omnidex-incentives/incentives/base/BaseIncentivesController.sol\":2969:3005  RewardsAccrued(user, accruedRewards) */\n      0xffffffffffffffffffffffffffffffffffffffff\n      and\n      0x2468f9268c60ad90e2d49edb0032c8a001e733ae888b3ab8e982edf535be1a76\n        /* \"contracts/Omnidex-incentives/incentives/base/BaseIncentivesController.sol\":2990:3004  accruedRewards */\n      dup3\n        /* \"contracts/Omnidex-incentives/incentives/base/BaseIncentivesController.sol\":2969:3005  RewardsAccrued(user, accruedRewards) */\n      mload(0x40)\n      tag_131\n      swap2\n      swap1\n      tag_38\n      jump\t// in\n    tag_131:\n      mload(0x40)\n      dup1\n      swap2\n      sub\n      swap1\n      log2\n        /* \"contracts/Omnidex-incentives/incentives/base/BaseIncentivesController.sol\":2842:3013  if (accruedRewards != 0) {\r... */\n    tag_128:\n        /* \"contracts/Omnidex-incentives/incentives/base/BaseIncentivesController.sol\":2619:3018  function handleAction(\r... */\n      pop\n      pop\n      pop\n      pop\n      jump\t// out\n        /* \"contracts/Omnidex-incentives/incentives/base/DistributionManager.sol\":1701:1840  function getUserAssetData(address user, address asset) public view override returns (uint256) {\r... */\n    tag_51:\n        /* \"contracts/Omnidex-incentives/incentives/base/DistributionManager.sol\":1786:1793  uint256 */\n      0x00\n        /* \"contracts/Omnidex-incentives/incentives/base/DistributionManager.sol\":1809:1815  assets */\n      0x33\n        /* \"contracts/Omnidex-incentives/incentives/base/DistributionManager.sol\":1809:1822  assets[asset] */\n      0x00\n        /* \"contracts/Omnidex-incentives/incentives/base/DistributionManager.sol\":1816:1821  asset */\n      dup4\n        /* \"contracts/Omnidex-incentives/incentives/base/DistributionManager.sol\":1809:1822  assets[asset] */\n      0xffffffffffffffffffffffffffffffffffffffff\n      and\n      0xffffffffffffffffffffffffffffffffffffffff\n      and\n      dup2\n      mstore\n      0x20\n      add\n      swap1\n      dup2\n      mstore\n      0x20\n      add\n      0x00\n      keccak256\n        /* \"contracts/Omnidex-incentives/incentives/base/DistributionManager.sol\":1809:1828  assets[asset].users */\n      0x01\n      add\n        /* \"contracts/Omnidex-incentives/incentives/base/DistributionManager.sol\":1809:1834  assets[asset].users[user] */\n      0x00\n        /* \"contracts/Omnidex-incentives/incentives/base/DistributionManager.sol\":1829:1833  user */\n      dup5\n        /* \"contracts/Omnidex-incentives/incentives/base/DistributionManager.sol\":1809:1834  assets[asset].users[user] */\n      0xffffffffffffffffffffffffffffffffffffffff\n      and\n      0xffffffffffffffffffffffffffffffffffffffff\n      and\n      dup2\n      mstore\n      0x20\n      add\n      swap1\n      dup2\n      mstore\n      0x20\n      add\n      0x00\n      keccak256\n      sload\n        /* \"contracts/Omnidex-incentives/incentives/base/DistributionManager.sol\":1802:1834  return assets[asset].users[user] */\n      swap1\n      pop\n        /* \"contracts/Omnidex-incentives/incentives/base/DistributionManager.sol\":1701:1840  function getUserAssetData(address user, address asset) public view override returns (uint256) {\r... */\n      swap3\n      swap2\n      pop\n      pop\n      jump\t// out\n        /* \"contracts/Omnidex-incentives/incentives/base/DistributionManager.sol\":1141:1330  function setDistributionEnd(uint256 distributionEnd) external override onlyEmissionManager {\r... */\n    tag_56:\n        /* \"contracts/Omnidex-incentives/incentives/base/DistributionManager.sol\":942:958  EMISSION_MANAGER */\n      immutable(\"0xfb72c19603b99a84eb94b2a957c683e899e1d0f4b28e255e051e7f1b190ba3b8\")\n        /* \"contracts/Omnidex-incentives/incentives/base/DistributionManager.sol\":928:958  msg.sender == EMISSION_MANAGER */\n      0xffffffffffffffffffffffffffffffffffffffff\n      and\n        /* \"contracts/Omnidex-incentives/incentives/base/DistributionManager.sol\":928:938  msg.sender */\n      caller\n        /* \"contracts/Omnidex-incentives/incentives/base/DistributionManager.sol\":928:958  msg.sender == EMISSION_MANAGER */\n      0xffffffffffffffffffffffffffffffffffffffff\n      and\n      eq\n        /* \"contracts/Omnidex-incentives/incentives/base/DistributionManager.sol\":920:984  require(msg.sender == EMISSION_MANAGER, 'ONLY_EMISSION_MANAGER') */\n      tag_134\n      jumpi\n      mload(0x40)\n      0x08c379a000000000000000000000000000000000000000000000000000000000\n      dup2\n      mstore\n      0x04\n      add\n      tag_135\n      swap1\n      tag_136\n      jump\t// in\n    tag_135:\n      mload(0x40)\n      dup1\n      swap2\n      sub\n      swap1\n      revert\n    tag_134:\n        /* \"contracts/Omnidex-incentives/incentives/base/DistributionManager.sol\":1258:1273  distributionEnd */\n      dup1\n        /* \"contracts/Omnidex-incentives/incentives/base/DistributionManager.sol\":1239:1255  _distributionEnd */\n      0x34\n        /* \"contracts/Omnidex-incentives/incentives/base/DistributionManager.sol\":1239:1273  _distributionEnd = distributionEnd */\n      dup2\n      swap1\n      sstore\n      pop\n        /* \"contracts/Omnidex-incentives/incentives/base/DistributionManager.sol\":1285:1324  DistributionEndUpdated(distributionEnd) */\n      0x1cc1849a6602c3e91f2088cadea4381cc5717f2f28584197060ed2ebb434c16f\n        /* \"contracts/Omnidex-incentives/incentives/base/DistributionManager.sol\":1308:1323  distributionEnd */\n      dup2\n        /* \"contracts/Omnidex-incentives/incentives/base/DistributionManager.sol\":1285:1324  DistributionEndUpdated(distributionEnd) */\n      mload(0x40)\n      tag_138\n      swap2\n      swap1\n      tag_38\n      jump\t// in\n    tag_138:\n      mload(0x40)\n      dup1\n      swap2\n      sub\n      swap1\n      log1\n        /* \"contracts/Omnidex-incentives/incentives/base/DistributionManager.sol\":1141:1330  function setDistributionEnd(uint256 distributionEnd) external override onlyEmissionManager {\r... */\n      pop\n      jump\t// out\n        /* \"contracts/Omnidex-incentives/incentives/base/BaseIncentivesController.sol\":4568:4778  function claimRewardsToSelf(address[] calldata assets, uint256 amount)\r... */\n    tag_60:\n        /* \"contracts/Omnidex-incentives/incentives/base/BaseIncentivesController.sol\":4681:4688  uint256 */\n      0x00\n        /* \"contracts/Omnidex-incentives/incentives/base/BaseIncentivesController.sol\":4707:4772  _claimRewards(assets, amount, msg.sender, msg.sender, msg.sender) */\n      tag_140\n        /* \"contracts/Omnidex-incentives/incentives/base/BaseIncentivesController.sol\":4721:4727  assets */\n      dup5\n      dup5\n        /* \"contracts/Omnidex-incentives/incentives/base/BaseIncentivesController.sol\":4729:4735  amount */\n      dup5\n        /* \"contracts/Omnidex-incentives/incentives/base/BaseIncentivesController.sol\":4737:4747  msg.sender */\n      caller\n        /* \"contracts/Omnidex-incentives/incentives/base/BaseIncentivesController.sol\":4749:4759  msg.sender */\n      caller\n        /* \"contracts/Omnidex-incentives/incentives/base/BaseIncentivesController.sol\":4761:4771  msg.sender */\n      caller\n        /* \"contracts/Omnidex-incentives/incentives/base/BaseIncentivesController.sol\":4707:4720  _claimRewards */\n      tag_124\n        /* \"contracts/Omnidex-incentives/incentives/base/BaseIncentivesController.sol\":4707:4772  _claimRewards(assets, amount, msg.sender, msg.sender, msg.sender) */\n      jump\t// in\n    tag_140:\n        /* \"contracts/Omnidex-incentives/incentives/base/BaseIncentivesController.sol\":4700:4772  return _claimRewards(assets, amount, msg.sender, msg.sender, msg.sender) */\n      swap1\n      pop\n        /* \"contracts/Omnidex-incentives/incentives/base/BaseIncentivesController.sol\":4568:4778  function claimRewardsToSelf(address[] calldata assets, uint256 amount)\r... */\n      swap4\n      swap3\n      pop\n      pop\n      pop\n      jump\t// out\n        /* \"contracts/Omnidex-incentives/incentives/base/BaseIncentivesController.sol\":4130:4514  function claimRewardsOnBehalf(\r... */\n    tag_65:\n        /* \"contracts/Omnidex-incentives/incentives/base/BaseIncentivesController.sol\":4322:4329  uint256 */\n      0x00\n        /* \"contracts/Omnidex-incentives/incentives/base/BaseIncentivesController.sol\":4295:4305  msg.sender */\n      caller\n        /* \"contracts/Omnidex-incentives/incentives/base/BaseIncentivesController.sol\":4307:4311  user */\n      dup4\n        /* \"contracts/Omnidex-incentives/incentives/base/BaseIncentivesController.sol\":1517:1524  claimer */\n      dup2\n        /* \"contracts/Omnidex-incentives/incentives/base/BaseIncentivesController.sol\":1488:1524  _authorizedClaimers[user] == claimer */\n      0xffffffffffffffffffffffffffffffffffffffff\n      and\n        /* \"contracts/Omnidex-incentives/incentives/base/BaseIncentivesController.sol\":1488:1507  _authorizedClaimers */\n      0x36\n        /* \"contracts/Omnidex-incentives/incentives/base/BaseIncentivesController.sol\":1488:1513  _authorizedClaimers[user] */\n      0x00\n        /* \"contracts/Omnidex-incentives/incentives/base/BaseIncentivesController.sol\":1508:1512  user */\n      dup4\n        /* \"contracts/Omnidex-incentives/incentives/base/BaseIncentivesController.sol\":1488:1513  _authorizedClaimers[user] */\n      0xffffffffffffffffffffffffffffffffffffffff\n      and\n      0xffffffffffffffffffffffffffffffffffffffff\n      and\n      dup2\n      mstore\n      0x20\n      add\n      swap1\n      dup2\n      mstore\n      0x20\n      add\n      0x00\n      keccak256\n      0x00\n      swap1\n      sload\n      swap1\n      0x0100\n      exp\n      swap1\n      div\n      0xffffffffffffffffffffffffffffffffffffffff\n      and\n        /* \"contracts/Omnidex-incentives/incentives/base/BaseIncentivesController.sol\":1488:1524  _authorizedClaimers[user] == claimer */\n      0xffffffffffffffffffffffffffffffffffffffff\n      and\n      eq\n        /* \"contracts/Omnidex-incentives/incentives/base/BaseIncentivesController.sol\":1480:1549  require(_authorizedClaimers[user] == claimer, 'CLAIMER_UNAUTHORIZED') */\n      tag_142\n      jumpi\n      mload(0x40)\n      0x08c379a000000000000000000000000000000000000000000000000000000000\n      dup2\n      mstore\n      0x04\n      add\n      tag_143\n      swap1\n      tag_144\n      jump\t// in\n    tag_143:\n      mload(0x40)\n      dup1\n      swap2\n      sub\n      swap1\n      revert\n    tag_142:\n        /* \"contracts/Omnidex-incentives/incentives/base/BaseIncentivesController.sol\":4362:4363  0 */\n      0x00\n        /* \"contracts/Omnidex-incentives/incentives/base/BaseIncentivesController.sol\":4346:4364  user != address(0) */\n      0xffffffffffffffffffffffffffffffffffffffff\n      and\n        /* \"contracts/Omnidex-incentives/incentives/base/BaseIncentivesController.sol\":4346:4350  user */\n      dup6\n        /* \"contracts/Omnidex-incentives/incentives/base/BaseIncentivesController.sol\":4346:4364  user != address(0) */\n      0xffffffffffffffffffffffffffffffffffffffff\n      and\n      eq\n      iszero\n        /* \"contracts/Omnidex-incentives/incentives/base/BaseIncentivesController.sol\":4338:4389  require(user != address(0), 'INVALID_USER_ADDRESS') */\n      tag_146\n      jumpi\n      mload(0x40)\n      0x08c379a000000000000000000000000000000000000000000000000000000000\n      dup2\n      mstore\n      0x04\n      add\n      tag_147\n      swap1\n      tag_148\n      jump\t// in\n    tag_147:\n      mload(0x40)\n      dup1\n      swap2\n      sub\n      swap1\n      revert\n    tag_146:\n        /* \"contracts/Omnidex-incentives/incentives/base/BaseIncentivesController.sol\":4418:4419  0 */\n      0x00\n        /* \"contracts/Omnidex-incentives/incentives/base/BaseIncentivesController.sol\":4404:4420  to != address(0) */\n      0xffffffffffffffffffffffffffffffffffffffff\n      and\n        /* \"contracts/Omnidex-incentives/incentives/base/BaseIncentivesController.sol\":4404:4406  to */\n      dup5\n        /* \"contracts/Omnidex-incentives/incentives/base/BaseIncentivesController.sol\":4404:4420  to != address(0) */\n      0xffffffffffffffffffffffffffffffffffffffff\n      and\n      eq\n      iszero\n        /* \"contracts/Omnidex-incentives/incentives/base/BaseIncentivesController.sol\":4396:4443  require(to != address(0), 'INVALID_TO_ADDRESS') */\n      tag_149\n      jumpi\n      mload(0x40)\n      0x08c379a000000000000000000000000000000000000000000000000000000000\n      dup2\n      mstore\n      0x04\n      add\n      tag_150\n      swap1\n      tag_122\n      jump\t// in\n    tag_150:\n      mload(0x40)\n      dup1\n      swap2\n      sub\n      swap1\n      revert\n    tag_149:\n        /* \"contracts/Omnidex-incentives/incentives/base/BaseIncentivesController.sol\":4457:4508  _claimRewards(assets, amount, msg.sender, user, to) */\n      tag_151\n        /* \"contracts/Omnidex-incentives/incentives/base/BaseIncentivesController.sol\":4471:4477  assets */\n      dup9\n      dup9\n        /* \"contracts/Omnidex-incentives/incentives/base/BaseIncentivesController.sol\":4479:4485  amount */\n      dup9\n        /* \"contracts/Omnidex-incentives/incentives/base/BaseIncentivesController.sol\":4487:4497  msg.sender */\n      caller\n        /* \"contracts/Omnidex-incentives/incentives/base/BaseIncentivesController.sol\":4499:4503  user */\n      dup10\n        /* \"contracts/Omnidex-incentives/incentives/base/BaseIncentivesController.sol\":4505:4507  to */\n      dup10\n        /* \"contracts/Omnidex-incentives/incentives/base/BaseIncentivesController.sol\":4457:4470  _claimRewards */\n      tag_124\n        /* \"contracts/Omnidex-incentives/incentives/base/BaseIncentivesController.sol\":4457:4508  _claimRewards(assets, amount, msg.sender, user, to) */\n      jump\t// in\n    tag_151:\n        /* \"contracts/Omnidex-incentives/incentives/base/BaseIncentivesController.sol\":4450:4508  return _claimRewards(assets, amount, msg.sender, user, to) */\n      swap3\n      pop\n        /* \"contracts/Omnidex-incentives/incentives/base/BaseIncentivesController.sol\":4130:4514  function claimRewardsOnBehalf(\r... */\n      pop\n      pop\n      swap6\n      swap5\n      pop\n      pop\n      pop\n      pop\n      pop\n      jump\t// out\n        /* \"contracts/Omnidex-incentives/incentives/base/BaseIncentivesController.sol\":5057:5177  function getClaimer(address user) external view override returns (address) {\r... */\n    tag_69:\n        /* \"contracts/Omnidex-incentives/incentives/base/BaseIncentivesController.sol\":5123:5130  address */\n      0x00\n        /* \"contracts/Omnidex-incentives/incentives/base/BaseIncentivesController.sol\":5146:5165  _authorizedClaimers */\n      0x36\n        /* \"contracts/Omnidex-incentives/incentives/base/BaseIncentivesController.sol\":5146:5171  _authorizedClaimers[user] */\n      0x00\n        /* \"contracts/Omnidex-incentives/incentives/base/BaseIncentivesController.sol\":5166:5170  user */\n      dup4\n        /* \"contracts/Omnidex-incentives/incentives/base/BaseIncentivesController.sol\":5146:5171  _authorizedClaimers[user] */\n      0xffffffffffffffffffffffffffffffffffffffff\n      and\n      0xffffffffffffffffffffffffffffffffffffffff\n      and\n      dup2\n      mstore\n      0x20\n      add\n      swap1\n      dup2\n      mstore\n      0x20\n      add\n      0x00\n      keccak256\n      0x00\n      swap1\n      sload\n      swap1\n      0x0100\n      exp\n      swap1\n      div\n      0xffffffffffffffffffffffffffffffffffffffff\n      and\n        /* \"contracts/Omnidex-incentives/incentives/base/BaseIncentivesController.sol\":5139:5171  return _authorizedClaimers[user] */\n      swap1\n      pop\n        /* \"contracts/Omnidex-incentives/incentives/base/BaseIncentivesController.sol\":5057:5177  function getClaimer(address user) external view override returns (address) {\r... */\n      swap2\n      swap1\n      pop\n      jump\t// out\n        /* \"contracts/Omnidex-incentives/incentives/base/BaseIncentivesController.sol\":1773:2565  function configureAssets(address[] calldata assets, uint256[] calldata emissionsPerSecond)\r... */\n    tag_75:\n        /* \"contracts/Omnidex-incentives/incentives/base/DistributionManager.sol\":942:958  EMISSION_MANAGER */\n      immutable(\"0xfb72c19603b99a84eb94b2a957c683e899e1d0f4b28e255e051e7f1b190ba3b8\")\n        /* \"contracts/Omnidex-incentives/incentives/base/DistributionManager.sol\":928:958  msg.sender == EMISSION_MANAGER */\n      0xffffffffffffffffffffffffffffffffffffffff\n      and\n        /* \"contracts/Omnidex-incentives/incentives/base/DistributionManager.sol\":928:938  msg.sender */\n      caller\n        /* \"contracts/Omnidex-incentives/incentives/base/DistributionManager.sol\":928:958  msg.sender == EMISSION_MANAGER */\n      0xffffffffffffffffffffffffffffffffffffffff\n      and\n      eq\n        /* \"contracts/Omnidex-incentives/incentives/base/DistributionManager.sol\":920:984  require(msg.sender == EMISSION_MANAGER, 'ONLY_EMISSION_MANAGER') */\n      tag_154\n      jumpi\n      mload(0x40)\n      0x08c379a000000000000000000000000000000000000000000000000000000000\n      dup2\n      mstore\n      0x04\n      add\n      tag_155\n      swap1\n      tag_136\n      jump\t// in\n    tag_155:\n      mload(0x40)\n      dup1\n      swap2\n      sub\n      swap1\n      revert\n    tag_154:\n        /* \"contracts/Omnidex-incentives/incentives/base/BaseIncentivesController.sol\":1952:1970  emissionsPerSecond */\n      dup2\n      dup2\n        /* \"contracts/Omnidex-incentives/incentives/base/BaseIncentivesController.sol\":1952:1977  emissionsPerSecond.length */\n      swap1\n      pop\n        /* \"contracts/Omnidex-incentives/incentives/base/BaseIncentivesController.sol\":1935:1941  assets */\n      dup5\n      dup5\n        /* \"contracts/Omnidex-incentives/incentives/base/BaseIncentivesController.sol\":1935:1948  assets.length */\n      swap1\n      pop\n        /* \"contracts/Omnidex-incentives/incentives/base/BaseIncentivesController.sol\":1935:1977  assets.length == emissionsPerSecond.length */\n      eq\n        /* \"contracts/Omnidex-incentives/incentives/base/BaseIncentivesController.sol\":1927:2003  require(assets.length == emissionsPerSecond.length, 'INVALID_CONFIGURATION') */\n      tag_157\n      jumpi\n      mload(0x40)\n      0x08c379a000000000000000000000000000000000000000000000000000000000\n      dup2\n      mstore\n      0x04\n      add\n      tag_158\n      swap1\n      tag_159\n      jump\t// in\n    tag_158:\n      mload(0x40)\n      dup1\n      swap2\n      sub\n      swap1\n      revert\n    tag_157:\n        /* \"contracts/Omnidex-incentives/incentives/base/BaseIncentivesController.sol\":2012:2068  DistributionTypes.AssetConfigInput[] memory assetsConfig */\n      0x60\n        /* \"contracts/Omnidex-incentives/incentives/base/BaseIncentivesController.sol\":2119:2125  assets */\n      dup5\n      dup5\n        /* \"contracts/Omnidex-incentives/incentives/base/BaseIncentivesController.sol\":2119:2132  assets.length */\n      swap1\n      pop\n        /* \"contracts/Omnidex-incentives/incentives/base/BaseIncentivesController.sol\":2078:2133  new DistributionTypes.AssetConfigInput[](assets.length) */\n      0xffffffffffffffff\n      dup2\n      gt\n      dup1\n      iszero\n      tag_160\n      jumpi\n      0x00\n      dup1\n      revert\n    tag_160:\n      pop\n      mload(0x40)\n      swap1\n      dup1\n      dup3\n      mstore\n      dup1\n      0x20\n      mul\n      0x20\n      add\n      dup3\n      add\n      0x40\n      mstore\n      dup1\n      iszero\n      tag_161\n      jumpi\n      dup2\n      0x20\n      add\n    tag_162:\n      tag_163\n      tag_164\n      jump\t// in\n    tag_163:\n      dup2\n      mstore\n      0x20\n      add\n      swap1\n      0x01\n      swap1\n      sub\n      swap1\n      dup2\n      tag_162\n      jumpi\n      swap1\n      pop\n    tag_161:\n      pop\n        /* \"contracts/Omnidex-incentives/incentives/base/BaseIncentivesController.sol\":2012:2133  DistributionTypes.AssetConfigInput[] memory assetsConfig =\r... */\n      swap1\n      pop\n        /* \"contracts/Omnidex-incentives/incentives/base/BaseIncentivesController.sol\":2147:2156  uint256 i */\n      0x00\n        /* \"contracts/Omnidex-incentives/incentives/base/BaseIncentivesController.sol\":2142:2523  for (uint256 i = 0; i < assets.length; i++) {\r... */\n    tag_165:\n        /* \"contracts/Omnidex-incentives/incentives/base/BaseIncentivesController.sol\":2166:2172  assets */\n      dup6\n      dup6\n        /* \"contracts/Omnidex-incentives/incentives/base/BaseIncentivesController.sol\":2166:2179  assets.length */\n      swap1\n      pop\n        /* \"contracts/Omnidex-incentives/incentives/base/BaseIncentivesController.sol\":2162:2163  i */\n      dup2\n        /* \"contracts/Omnidex-incentives/incentives/base/BaseIncentivesController.sol\":2162:2179  i < assets.length */\n      lt\n        /* \"contracts/Omnidex-incentives/incentives/base/BaseIncentivesController.sol\":2142:2523  for (uint256 i = 0; i < assets.length; i++) {\r... */\n      iszero\n      tag_166\n      jumpi\n        /* \"contracts/Omnidex-incentives/incentives/base/BaseIncentivesController.sol\":2237:2255  emissionsPerSecond */\n      dup4\n      dup4\n        /* \"contracts/Omnidex-incentives/incentives/base/BaseIncentivesController.sol\":2256:2257  i */\n      dup3\n        /* \"contracts/Omnidex-incentives/incentives/base/BaseIncentivesController.sol\":2237:2258  emissionsPerSecond[i] */\n      dup2\n      dup2\n      lt\n      tag_168\n      jumpi\n      invalid\n    tag_168:\n      swap1\n      pop\n      0x20\n      mul\n      add\n      calldataload\n        /* \"contracts/Omnidex-incentives/incentives/base/BaseIncentivesController.sol\":2211:2229  emissionsPerSecond */\n      dup5\n      dup5\n        /* \"contracts/Omnidex-incentives/incentives/base/BaseIncentivesController.sol\":2230:2231  i */\n      dup4\n        /* \"contracts/Omnidex-incentives/incentives/base/BaseIncentivesController.sol\":2211:2232  emissionsPerSecond[i] */\n      dup2\n      dup2\n      lt\n      tag_169\n      jumpi\n      invalid\n    tag_169:\n      swap1\n      pop\n      0x20\n      mul\n      add\n      calldataload\n        /* \"contracts/Omnidex-incentives/incentives/base/BaseIncentivesController.sol\":2203:2258  uint104(emissionsPerSecond[i]) == emissionsPerSecond[i] */\n      0xffffffffffffffffffffffffff\n      and\n      eq\n        /* \"contracts/Omnidex-incentives/incentives/base/BaseIncentivesController.sol\":2195:2299  require(uint104(emissionsPerSecond[i]) == emissionsPerSecond[i], 'Index overflow at emissionsPerSecond') */\n      tag_170\n      jumpi\n      mload(0x40)\n      0x08c379a000000000000000000000000000000000000000000000000000000000\n      dup2\n      mstore\n      0x04\n      add\n      tag_171\n      swap1\n      tag_172\n      jump\t// in\n    tag_171:\n      mload(0x40)\n      dup1\n      swap2\n      sub\n      swap1\n      revert\n    tag_170:\n        /* \"contracts/Omnidex-incentives/incentives/base/BaseIncentivesController.sol\":2342:2348  assets */\n      dup6\n      dup6\n        /* \"contracts/Omnidex-incentives/incentives/base/BaseIncentivesController.sol\":2349:2350  i */\n      dup3\n        /* \"contracts/Omnidex-incentives/incentives/base/BaseIncentivesController.sol\":2342:2351  assets[i] */\n      dup2\n      dup2\n      lt\n      tag_173\n      jumpi\n      invalid\n    tag_173:\n      swap1\n      pop\n      0x20\n      mul\n      add\n      0x20\n      dup2\n      add\n      swap1\n      tag_174\n      swap2\n      swap1\n      tag_30\n      jump\t// in\n    tag_174:\n        /* \"contracts/Omnidex-incentives/incentives/base/BaseIncentivesController.sol\":2308:2320  assetsConfig */\n      dup3\n        /* \"contracts/Omnidex-incentives/incentives/base/BaseIncentivesController.sol\":2321:2322  i */\n      dup3\n        /* \"contracts/Omnidex-incentives/incentives/base/BaseIncentivesController.sol\":2308:2323  assetsConfig[i] */\n      dup2\n      mload\n      dup2\n      lt\n      tag_175\n      jumpi\n      invalid\n    tag_175:\n      0x20\n      mul\n      0x20\n      add\n      add\n      mload\n        /* \"contracts/Omnidex-incentives/incentives/base/BaseIncentivesController.sol\":2308:2339  assetsConfig[i].underlyingAsset */\n      0x40\n      add\n        /* \"contracts/Omnidex-incentives/incentives/base/BaseIncentivesController.sol\":2308:2351  assetsConfig[i].underlyingAsset = assets[i] */\n      swap1\n      0xffffffffffffffffffffffffffffffffffffffff\n      and\n      swap1\n      dup2\n      0xffffffffffffffffffffffffffffffffffffffff\n      and\n      dup2\n      mstore\n      pop\n      pop\n        /* \"contracts/Omnidex-incentives/incentives/base/BaseIncentivesController.sol\":2404:2422  emissionsPerSecond */\n      dup4\n      dup4\n        /* \"contracts/Omnidex-incentives/incentives/base/BaseIncentivesController.sol\":2423:2424  i */\n      dup3\n        /* \"contracts/Omnidex-incentives/incentives/base/BaseIncentivesController.sol\":2404:2425  emissionsPerSecond[i] */\n      dup2\n      dup2\n      lt\n      tag_176\n      jumpi\n      invalid\n    tag_176:\n      swap1\n      pop\n      0x20\n      mul\n      add\n      calldataload\n        /* \"contracts/Omnidex-incentives/incentives/base/BaseIncentivesController.sol\":2360:2372  assetsConfig */\n      dup3\n        /* \"contracts/Omnidex-incentives/incentives/base/BaseIncentivesController.sol\":2373:2374  i */\n      dup3\n        /* \"contracts/Omnidex-incentives/incentives/base/BaseIncentivesController.sol\":2360:2375  assetsConfig[i] */\n      dup2\n      mload\n      dup2\n      lt\n      tag_177\n      jumpi\n      invalid\n    tag_177:\n      0x20\n      mul\n      0x20\n      add\n      add\n      mload\n        /* \"contracts/Omnidex-incentives/incentives/base/BaseIncentivesController.sol\":2360:2393  assetsConfig[i].emissionPerSecond */\n      0x00\n      add\n        /* \"contracts/Omnidex-incentives/incentives/base/BaseIncentivesController.sol\":2360:2426  assetsConfig[i].emissionPerSecond = uint104(emissionsPerSecond[i]) */\n      swap1\n      0xffffffffffffffffffffffffff\n      and\n      swap1\n      dup2\n      0xffffffffffffffffffffffffff\n      and\n      dup2\n      mstore\n      pop\n      pop\n        /* \"contracts/Omnidex-incentives/incentives/base/BaseIncentivesController.sol\":2485:2491  assets */\n      dup6\n      dup6\n        /* \"contracts/Omnidex-incentives/incentives/base/BaseIncentivesController.sol\":2492:2493  i */\n      dup3\n        /* \"contracts/Omnidex-incentives/incentives/base/BaseIncentivesController.sol\":2485:2494  assets[i] */\n      dup2\n      dup2\n      lt\n      tag_178\n      jumpi\n      invalid\n    tag_178:\n      swap1\n      pop\n      0x20\n      mul\n      add\n      0x20\n      dup2\n      add\n      swap1\n      tag_179\n      swap2\n      swap1\n      tag_30\n      jump\t// in\n    tag_179:\n        /* \"contracts/Omnidex-incentives/incentives/base/BaseIncentivesController.sol\":2465:2513  IScaledBalanceToken(assets[i]).scaledTotalSupply */\n      0xffffffffffffffffffffffffffffffffffffffff\n      and\n      0xb1bf962d\n        /* \"contracts/Omnidex-incentives/incentives/base/BaseIncentivesController.sol\":2465:2515  IScaledBalanceToken(assets[i]).scaledTotalSupply() */\n      mload(0x40)\n      dup2\n      0xffffffff\n      and\n      0xe0\n      shl\n      dup2\n      mstore\n      0x04\n      add\n      0x20\n      mload(0x40)\n      dup1\n      dup4\n      sub\n      dup2\n      dup7\n      dup1\n      extcodesize\n      iszero\n      dup1\n      iszero\n      tag_180\n      jumpi\n      0x00\n      dup1\n      revert\n    tag_180:\n      pop\n      gas\n      staticcall\n      iszero\n      dup1\n      iszero\n      tag_182\n      jumpi\n      returndatasize\n      0x00\n      dup1\n      returndatacopy\n      revert(0x00, returndatasize)\n    tag_182:\n      pop\n      pop\n      pop\n      pop\n      mload(0x40)\n      returndatasize\n      not(0x1f)\n      0x1f\n      dup3\n      add\n      and\n      dup3\n      add\n      dup1\n      0x40\n      mstore\n      pop\n      dup2\n      add\n      swap1\n      tag_183\n      swap2\n      swap1\n      tag_184\n      jump\t// in\n    tag_183:\n        /* \"contracts/Omnidex-incentives/incentives/base/BaseIncentivesController.sol\":2435:2447  assetsConfig */\n      dup3\n        /* \"contracts/Omnidex-incentives/incentives/base/BaseIncentivesController.sol\":2448:2449  i */\n      dup3\n        /* \"contracts/Omnidex-incentives/incentives/base/BaseIncentivesController.sol\":2435:2450  assetsConfig[i] */\n      dup2\n      mload\n      dup2\n      lt\n      tag_185\n      jumpi\n      invalid\n    tag_185:\n      0x20\n      mul\n      0x20\n      add\n      add\n      mload\n        /* \"contracts/Omnidex-incentives/incentives/base/BaseIncentivesController.sol\":2435:2462  assetsConfig[i].totalStaked */\n      0x20\n      add\n        /* \"contracts/Omnidex-incentives/incentives/base/BaseIncentivesController.sol\":2435:2515  assetsConfig[i].totalStaked = IScaledBalanceToken(assets[i]).scaledTotalSupply() */\n      dup2\n      dup2\n      mstore\n      pop\n      pop\n        /* \"contracts/Omnidex-incentives/incentives/base/BaseIncentivesController.sol\":2181:2184  i++ */\n      dup1\n      dup1\n      0x01\n      add\n      swap2\n      pop\n      pop\n        /* \"contracts/Omnidex-incentives/incentives/base/BaseIncentivesController.sol\":2142:2523  for (uint256 i = 0; i < assets.length; i++) {\r... */\n      jump(tag_165)\n    tag_166:\n      pop\n        /* \"contracts/Omnidex-incentives/incentives/base/BaseIncentivesController.sol\":2529:2559  _configureAssets(assetsConfig) */\n      tag_186\n        /* \"contracts/Omnidex-incentives/incentives/base/BaseIncentivesController.sol\":2546:2558  assetsConfig */\n      dup2\n        /* \"contracts/Omnidex-incentives/incentives/base/BaseIncentivesController.sol\":2529:2545  _configureAssets */\n      tag_187\n        /* \"contracts/Omnidex-incentives/incentives/base/BaseIncentivesController.sol\":2529:2559  _configureAssets(assetsConfig) */\n      jump\t// in\n    tag_186:\n        /* \"contracts/Omnidex-incentives/incentives/base/DistributionManager.sol\":991:992  _ */\n      pop\n        /* \"contracts/Omnidex-incentives/incentives/base/BaseIncentivesController.sol\":1773:2565  function configureAssets(address[] calldata assets, uint256[] calldata emissionsPerSecond)\r... */\n      pop\n      pop\n      pop\n      pop\n      jump\t// out\n        /* \"contracts/Omnidex-incentives/incentives/base/BaseIncentivesController.sol\":3072:3758  function getRewardsBalance(address[] calldata assets, address user)\r... */\n    tag_79:\n        /* \"contracts/Omnidex-incentives/incentives/base/BaseIncentivesController.sol\":3192:3199  uint256 */\n      0x00\n        /* \"contracts/Omnidex-incentives/incentives/base/BaseIncentivesController.sol\":3211:3235  uint256 unclaimedRewards */\n      dup1\n        /* \"contracts/Omnidex-incentives/incentives/base/BaseIncentivesController.sol\":3238:3260  _usersUnclaimedRewards */\n      0x35\n        /* \"contracts/Omnidex-incentives/incentives/base/BaseIncentivesController.sol\":3238:3266  _usersUnclaimedRewards[user] */\n      0x00\n        /* \"contracts/Omnidex-incentives/incentives/base/BaseIncentivesController.sol\":3261:3265  user */\n      dup5\n        /* \"contracts/Omnidex-incentives/incentives/base/BaseIncentivesController.sol\":3238:3266  _usersUnclaimedRewards[user] */\n      0xffffffffffffffffffffffffffffffffffffffff\n      and\n      0xffffffffffffffffffffffffffffffffffffffff\n      and\n      dup2\n      mstore\n      0x20\n      add\n      swap1\n      dup2\n      mstore\n      0x20\n      add\n      0x00\n      keccak256\n      sload\n        /* \"contracts/Omnidex-incentives/incentives/base/BaseIncentivesController.sol\":3211:3266  uint256 unclaimedRewards = _usersUnclaimedRewards[user] */\n      swap1\n      pop\n        /* \"contracts/Omnidex-incentives/incentives/base/BaseIncentivesController.sol\":3275:3326  DistributionTypes.UserStakeInput[] memory userState */\n      0x60\n        /* \"contracts/Omnidex-incentives/incentives/base/BaseIncentivesController.sol\":3375:3381  assets */\n      dup6\n      dup6\n        /* \"contracts/Omnidex-incentives/incentives/base/BaseIncentivesController.sol\":3375:3388  assets.length */\n      swap1\n      pop\n        /* \"contracts/Omnidex-incentives/incentives/base/BaseIncentivesController.sol\":3336:3389  new DistributionTypes.UserStakeInput[](assets.length) */\n      0xffffffffffffffff\n      dup2\n      gt\n      dup1\n      iszero\n      tag_189\n      jumpi\n      0x00\n      dup1\n      revert\n    tag_189:\n      pop\n      mload(0x40)\n      swap1\n      dup1\n      dup3\n      mstore\n      dup1\n      0x20\n      mul\n      0x20\n      add\n      dup3\n      add\n      0x40\n      mstore\n      dup1\n      iszero\n      tag_190\n      jumpi\n      dup2\n      0x20\n      add\n    tag_191:\n      tag_192\n      tag_193\n      jump\t// in\n    tag_192:\n      dup2\n      mstore\n      0x20\n      add\n      swap1\n      0x01\n      swap1\n      sub\n      swap1\n      dup2\n      tag_191\n      jumpi\n      swap1\n      pop\n    tag_190:\n      pop\n        /* \"contracts/Omnidex-incentives/incentives/base/BaseIncentivesController.sol\":3275:3389  DistributionTypes.UserStakeInput[] memory userState =\r... */\n      swap1\n      pop\n        /* \"contracts/Omnidex-incentives/incentives/base/BaseIncentivesController.sol\":3401:3410  uint256 i */\n      0x00\n        /* \"contracts/Omnidex-incentives/incentives/base/BaseIncentivesController.sol\":3396:3638  for (uint256 i = 0; i < assets.length; i++) {\r... */\n    tag_194:\n        /* \"contracts/Omnidex-incentives/incentives/base/BaseIncentivesController.sol\":3420:3426  assets */\n      dup7\n      dup7\n        /* \"contracts/Omnidex-incentives/incentives/base/BaseIncentivesController.sol\":3420:3433  assets.length */\n      swap1\n      pop\n        /* \"contracts/Omnidex-incentives/incentives/base/BaseIncentivesController.sol\":3416:3417  i */\n      dup2\n        /* \"contracts/Omnidex-incentives/incentives/base/BaseIncentivesController.sol\":3416:3433  i < assets.length */\n      lt\n        /* \"contracts/Omnidex-incentives/incentives/base/BaseIncentivesController.sol\":3396:3638  for (uint256 i = 0; i < assets.length; i++) {\r... */\n      iszero\n      tag_195\n      jumpi\n        /* \"contracts/Omnidex-incentives/incentives/base/BaseIncentivesController.sol\":3480:3486  assets */\n      dup7\n      dup7\n        /* \"contracts/Omnidex-incentives/incentives/base/BaseIncentivesController.sol\":3487:3488  i */\n      dup3\n        /* \"contracts/Omnidex-incentives/incentives/base/BaseIncentivesController.sol\":3480:3489  assets[i] */\n      dup2\n      dup2\n      lt\n      tag_197\n      jumpi\n      invalid\n    tag_197:\n      swap1\n      pop\n      0x20\n      mul\n      add\n      0x20\n      dup2\n      add\n      swap1\n      tag_198\n      swap2\n      swap1\n      tag_30\n      jump\t// in\n    tag_198:\n        /* \"contracts/Omnidex-incentives/incentives/base/BaseIncentivesController.sol\":3449:3458  userState */\n      dup3\n        /* \"contracts/Omnidex-incentives/incentives/base/BaseIncentivesController.sol\":3459:3460  i */\n      dup3\n        /* \"contracts/Omnidex-incentives/incentives/base/BaseIncentivesController.sol\":3449:3461  userState[i] */\n      dup2\n      mload\n      dup2\n      lt\n      tag_199\n      jumpi\n      invalid\n    tag_199:\n      0x20\n      mul\n      0x20\n      add\n      add\n      mload\n        /* \"contracts/Omnidex-incentives/incentives/base/BaseIncentivesController.sol\":3449:3477  userState[i].underlyingAsset */\n      0x00\n      add\n        /* \"contracts/Omnidex-incentives/incentives/base/BaseIncentivesController.sol\":3449:3489  userState[i].underlyingAsset = assets[i] */\n      swap1\n      0xffffffffffffffffffffffffffffffffffffffff\n      and\n      swap1\n      dup2\n      0xffffffffffffffffffffffffffffffffffffffff\n      and\n      dup2\n      mstore\n      pop\n      pop\n        /* \"contracts/Omnidex-incentives/incentives/base/BaseIncentivesController.sol\":3574:3580  assets */\n      dup7\n      dup7\n        /* \"contracts/Omnidex-incentives/incentives/base/BaseIncentivesController.sol\":3581:3582  i */\n      dup3\n        /* \"contracts/Omnidex-incentives/incentives/base/BaseIncentivesController.sol\":3574:3583  assets[i] */\n      dup2\n      dup2\n      lt\n      tag_200\n      jumpi\n      invalid\n    tag_200:\n      swap1\n      pop\n      0x20\n      mul\n      add\n      0x20\n      dup2\n      add\n      swap1\n      tag_201\n      swap2\n      swap1\n      tag_30\n      jump\t// in\n    tag_201:\n        /* \"contracts/Omnidex-incentives/incentives/base/BaseIncentivesController.sol\":3554:3624  IScaledBalanceToken(assets[i])\r... */\n      0xffffffffffffffffffffffffffffffffffffffff\n      and\n      0x0afbcdc9\n        /* \"contracts/Omnidex-incentives/incentives/base/BaseIncentivesController.sol\":3625:3629  user */\n      dup7\n        /* \"contracts/Omnidex-incentives/incentives/base/BaseIncentivesController.sol\":3554:3630  IScaledBalanceToken(assets[i])\r... */\n      mload(0x40)\n      dup3\n      0xffffffff\n      and\n      0xe0\n      shl\n      dup2\n      mstore\n      0x04\n      add\n      tag_202\n      swap2\n      swap1\n      tag_71\n      jump\t// in\n    tag_202:\n      0x40\n      dup1\n      mload\n      dup1\n      dup4\n      sub\n      dup2\n      dup7\n      dup1\n      extcodesize\n      iszero\n      dup1\n      iszero\n      tag_203\n      jumpi\n      0x00\n      dup1\n      revert\n    tag_203:\n      pop\n      gas\n      staticcall\n      iszero\n      dup1\n      iszero\n      tag_205\n      jumpi\n      returndatasize\n      0x00\n      dup1\n      returndatacopy\n      revert(0x00, returndatasize)\n    tag_205:\n      pop\n      pop\n      pop\n      pop\n      mload(0x40)\n      returndatasize\n      not(0x1f)\n      0x1f\n      dup3\n      add\n      and\n      dup3\n      add\n      dup1\n      0x40\n      mstore\n      pop\n      dup2\n      add\n      swap1\n      tag_206\n      swap2\n      swap1\n      tag_207\n      jump\t// in\n    tag_206:\n        /* \"contracts/Omnidex-incentives/incentives/base/BaseIncentivesController.sol\":3499:3508  userState */\n      dup4\n        /* \"contracts/Omnidex-incentives/incentives/base/BaseIncentivesController.sol\":3509:3510  i */\n      dup4\n        /* \"contracts/Omnidex-incentives/incentives/base/BaseIncentivesController.sol\":3499:3511  userState[i] */\n      dup2\n      mload\n      dup2\n      lt\n      tag_208\n      jumpi\n      invalid\n    tag_208:\n      0x20\n      mul\n      0x20\n      add\n      add\n      mload\n        /* \"contracts/Omnidex-incentives/incentives/base/BaseIncentivesController.sol\":3499:3524  userState[i].stakedByUser */\n      0x20\n      add\n        /* \"contracts/Omnidex-incentives/incentives/base/BaseIncentivesController.sol\":3526:3535  userState */\n      dup5\n        /* \"contracts/Omnidex-incentives/incentives/base/BaseIncentivesController.sol\":3536:3537  i */\n      dup5\n        /* \"contracts/Omnidex-incentives/incentives/base/BaseIncentivesController.sol\":3526:3538  userState[i] */\n      dup2\n      mload\n      dup2\n      lt\n      tag_209\n      jumpi\n      invalid\n    tag_209:\n      0x20\n      mul\n      0x20\n      add\n      add\n      mload\n        /* \"contracts/Omnidex-incentives/incentives/base/BaseIncentivesController.sol\":3526:3550  userState[i].totalStaked */\n      0x40\n      add\n        /* \"contracts/Omnidex-incentives/incentives/base/BaseIncentivesController.sol\":3498:3630  (userState[i].stakedByUser, userState[i].totalStaked) = IScaledBalanceToken(assets[i])\r... */\n      dup3\n      dup2\n      mstore\n      pop\n      dup3\n      dup2\n      mstore\n      pop\n      pop\n      pop\n        /* \"contracts/Omnidex-incentives/incentives/base/BaseIncentivesController.sol\":3435:3438  i++ */\n      dup1\n      dup1\n      0x01\n      add\n      swap2\n      pop\n      pop\n        /* \"contracts/Omnidex-incentives/incentives/base/BaseIncentivesController.sol\":3396:3638  for (uint256 i = 0; i < assets.length; i++) {\r... */\n      jump(tag_194)\n    tag_195:\n      pop\n        /* \"contracts/Omnidex-incentives/incentives/base/BaseIncentivesController.sol\":3663:3722  unclaimedRewards.add(_getUnclaimedRewards(user, userState)) */\n      tag_210\n        /* \"contracts/Omnidex-incentives/incentives/base/BaseIncentivesController.sol\":3684:3721  _getUnclaimedRewards(user, userState) */\n      tag_211\n        /* \"contracts/Omnidex-incentives/incentives/base/BaseIncentivesController.sol\":3705:3709  user */\n      dup6\n        /* \"contracts/Omnidex-incentives/incentives/base/BaseIncentivesController.sol\":3711:3720  userState */\n      dup4\n        /* \"contracts/Omnidex-incentives/incentives/base/BaseIncentivesController.sol\":3684:3704  _getUnclaimedRewards */\n      tag_212\n        /* \"contracts/Omnidex-incentives/incentives/base/BaseIncentivesController.sol\":3684:3721  _getUnclaimedRewards(user, userState) */\n      jump\t// in\n    tag_211:\n        /* \"contracts/Omnidex-incentives/incentives/base/BaseIncentivesController.sol\":3663:3679  unclaimedRewards */\n      dup4\n        /* \"contracts/Omnidex-incentives/incentives/base/BaseIncentivesController.sol\":3663:3683  unclaimedRewards.add */\n      tag_130\n      swap1\n        /* \"contracts/Omnidex-incentives/incentives/base/BaseIncentivesController.sol\":3663:3722  unclaimedRewards.add(_getUnclaimedRewards(user, userState)) */\n      swap2\n      swap1\n      0xffffffff\n      and\n      jump\t// in\n    tag_210:\n        /* \"contracts/Omnidex-incentives/incentives/base/BaseIncentivesController.sol\":3644:3722  unclaimedRewards = unclaimedRewards.add(_getUnclaimedRewards(user, userState)) */\n      swap2\n      pop\n        /* \"contracts/Omnidex-incentives/incentives/base/BaseIncentivesController.sol\":3736:3752  unclaimedRewards */\n      dup2\n        /* \"contracts/Omnidex-incentives/incentives/base/BaseIncentivesController.sol\":3729:3752  return unclaimedRewards */\n      swap3\n      pop\n      pop\n      pop\n        /* \"contracts/Omnidex-incentives/incentives/base/BaseIncentivesController.sol\":3072:3758  function getRewardsBalance(address[] calldata assets, address user)\r... */\n      swap4\n      swap3\n      pop\n      pop\n      pop\n      jump\t// out\n        /* \"contracts/Omnidex-incentives/incentives/base/DistributionManager.sol\":1543:1648  function DISTRIBUTION_END() external view override returns (uint256) {\r... */\n    tag_82:\n        /* \"contracts/Omnidex-incentives/incentives/base/DistributionManager.sol\":1603:1610  uint256 */\n      0x00\n        /* \"contracts/Omnidex-incentives/incentives/base/DistributionManager.sol\":1626:1642  _distributionEnd */\n      sload(0x34)\n        /* \"contracts/Omnidex-incentives/incentives/base/DistributionManager.sol\":1619:1642  return _distributionEnd */\n      swap1\n      pop\n        /* \"contracts/Omnidex-incentives/incentives/base/DistributionManager.sol\":1543:1648  function DISTRIBUTION_END() external view override returns (uint256) {\r... */\n      swap1\n      jump\t// out\n        /* \"contracts/Omnidex-incentives/incentives/base/BaseIncentivesController.sol\":1026:1072  address public immutable override REWARD_TOKEN */\n    tag_85:\n      immutable(\"0xe229503fec190040ef38484d41ddb4c2fce10c1aa73d9d5bd832f8c76f44643b\")\n      dup2\n      jump\t// out\n        /* \"contracts/Omnidex-incentives/incentives/base/DistributionManager.sol\":749:785  uint8 public constant PRECISION = 18 */\n    tag_88:\n        /* \"contracts/Omnidex-incentives/incentives/base/DistributionManager.sol\":783:785  18 */\n      0x12\n        /* \"contracts/Omnidex-incentives/incentives/base/DistributionManager.sol\":749:785  uint8 public constant PRECISION = 18 */\n      dup2\n      jump\t// out\n        /* \"contracts/Omnidex-incentives/incentives/PullRewardsIncentivesController.sol\":988:1138  function initialize(address rewardsVault) external initializer {\r... */\n    tag_93:\n        /* \"@aave/aave-stake/contracts/utils/VersionedInitializable.sol\":1040:1056  uint256 revision */\n      0x00\n        /* \"@aave/aave-stake/contracts/utils/VersionedInitializable.sol\":1059:1072  getRevision() */\n      tag_215\n        /* \"@aave/aave-stake/contracts/utils/VersionedInitializable.sol\":1059:1070  getRevision */\n      tag_216\n        /* \"@aave/aave-stake/contracts/utils/VersionedInitializable.sol\":1059:1072  getRevision() */\n      jump\t// in\n    tag_215:\n        /* \"@aave/aave-stake/contracts/utils/VersionedInitializable.sol\":1040:1072  uint256 revision = getRevision() */\n      swap1\n      pop\n        /* \"@aave/aave-stake/contracts/utils/VersionedInitializable.sol\":1097:1120  lastInitializedRevision */\n      sload(0x00)\n        /* \"@aave/aave-stake/contracts/utils/VersionedInitializable.sol\":1086:1094  revision */\n      dup2\n        /* \"@aave/aave-stake/contracts/utils/VersionedInitializable.sol\":1086:1120  revision > lastInitializedRevision */\n      gt\n        /* \"@aave/aave-stake/contracts/utils/VersionedInitializable.sol\":1078:1171  require(revision > lastInitializedRevision, 'Contract instance has already been initialized') */\n      tag_217\n      jumpi\n      mload(0x40)\n      0x08c379a000000000000000000000000000000000000000000000000000000000\n      dup2\n      mstore\n      0x04\n      add\n      dup1\n      dup1\n      0x20\n      add\n      dup3\n      dup2\n      sub\n      dup3\n      mstore\n      0x2e\n      dup2\n      mstore\n      0x20\n      add\n      dup1\n      data_9fbba6c4dcac9134893b633b9564f36435b3f927c1d5fa152c5c14b20cecb1a4\n      0x2e\n      swap2\n      codecopy\n      0x40\n      add\n      swap2\n      pop\n      pop\n      mload(0x40)\n      dup1\n      swap2\n      sub\n      swap1\n      revert\n    tag_217:\n        /* \"@aave/aave-stake/contracts/utils/VersionedInitializable.sol\":1204:1212  revision */\n      dup1\n        /* \"@aave/aave-stake/contracts/utils/VersionedInitializable.sol\":1178:1201  lastInitializedRevision */\n      0x00\n        /* \"@aave/aave-stake/contracts/utils/VersionedInitializable.sol\":1178:1212  lastInitializedRevision = revision */\n      dup2\n      swap1\n      sstore\n      pop\n        /* \"contracts/Omnidex-incentives/incentives/PullRewardsIncentivesController.sol\":1074:1086  rewardsVault */\n      dup2\n        /* \"contracts/Omnidex-incentives/incentives/PullRewardsIncentivesController.sol\":1058:1071  _rewardsVault */\n      0x37\n      0x00\n        /* \"contracts/Omnidex-incentives/incentives/PullRewardsIncentivesController.sol\":1058:1086  _rewardsVault = rewardsVault */\n      0x0100\n      exp\n      dup2\n      sload\n      dup2\n      0xffffffffffffffffffffffffffffffffffffffff\n      mul\n      not\n      and\n      swap1\n      dup4\n      0xffffffffffffffffffffffffffffffffffffffff\n      and\n      mul\n      or\n      swap1\n      sstore\n      pop\n        /* \"contracts/Omnidex-incentives/incentives/PullRewardsIncentivesController.sol\":1118:1131  _rewardsVault */\n      0x37\n      0x00\n      swap1\n      sload\n      swap1\n      0x0100\n      exp\n      swap1\n      div\n      0xffffffffffffffffffffffffffffffffffffffff\n      and\n        /* \"contracts/Omnidex-incentives/incentives/PullRewardsIncentivesController.sol\":1098:1132  RewardsVaultUpdated(_rewardsVault) */\n      0xffffffffffffffffffffffffffffffffffffffff\n      and\n      0x28a48cbce43190d77247f342cf319b1607bff4ef716cf26b76cf7bb71baebaa5\n      mload(0x40)\n      mload(0x40)\n      dup1\n      swap2\n      sub\n      swap1\n      log2\n        /* \"contracts/Omnidex-incentives/incentives/PullRewardsIncentivesController.sol\":988:1138  function initialize(address rewardsVault) external initializer {\r... */\n      pop\n      pop\n      jump\t// out\n        /* \"contracts/Omnidex-incentives/incentives/base/DistributionManager.sol\":701:742  address public immutable EMISSION_MANAGER */\n    tag_95:\n      immutable(\"0xfb72c19603b99a84eb94b2a957c683e899e1d0f4b28e255e051e7f1b190ba3b8\")\n      dup2\n      jump\t// out\n        /* \"contracts/Omnidex-incentives/incentives/base/DistributionManager.sol\":1383:1490  function getDistributionEnd() external view override returns (uint256) {\r... */\n    tag_98:\n        /* \"contracts/Omnidex-incentives/incentives/base/DistributionManager.sol\":1445:1452  uint256 */\n      0x00\n        /* \"contracts/Omnidex-incentives/incentives/base/DistributionManager.sol\":1468:1484  _distributionEnd */\n      sload(0x34)\n        /* \"contracts/Omnidex-incentives/incentives/base/DistributionManager.sol\":1461:1484  return _distributionEnd */\n      swap1\n      pop\n        /* \"contracts/Omnidex-incentives/incentives/base/DistributionManager.sol\":1383:1490  function getDistributionEnd() external view override returns (uint256) {\r... */\n      swap1\n      jump\t// out\n        /* \"contracts/Omnidex-incentives/incentives/base/BaseIncentivesController.sol\":983:1019  uint256 public constant REVISION = 1 */\n    tag_101:\n        /* \"contracts/Omnidex-incentives/incentives/base/BaseIncentivesController.sol\":1018:1019  1 */\n      0x01\n        /* \"contracts/Omnidex-incentives/incentives/base/BaseIncentivesController.sol\":983:1019  uint256 public constant REVISION = 1 */\n      dup2\n      jump\t// out\n        /* \"contracts/Omnidex-incentives/incentives/PullRewardsIncentivesController.sol\":1234:1326  function getRewardsVault() external view returns (address) {\r... */\n    tag_104:\n        /* \"contracts/Omnidex-incentives/incentives/PullRewardsIncentivesController.sol\":1284:1291  address */\n      0x00\n        /* \"contracts/Omnidex-incentives/incentives/PullRewardsIncentivesController.sol\":1307:1320  _rewardsVault */\n      0x37\n      0x00\n      swap1\n      sload\n      swap1\n      0x0100\n      exp\n      swap1\n      div\n      0xffffffffffffffffffffffffffffffffffffffff\n      and\n        /* \"contracts/Omnidex-incentives/incentives/PullRewardsIncentivesController.sol\":1300:1320  return _rewardsVault */\n      swap1\n      pop\n        /* \"contracts/Omnidex-incentives/incentives/PullRewardsIncentivesController.sol\":1234:1326  function getRewardsVault() external view returns (address) {\r... */\n      swap1\n      jump\t// out\n        /* \"contracts/Omnidex-incentives/incentives/base/DistributionManager.sol\":792:835  mapping(address => AssetData) public assets */\n    tag_108:\n      mstore(0x20, 0x33)\n      dup1\n      0x00\n      mstore\n      keccak256(0x00, 0x40)\n      0x00\n      swap2\n      pop\n      swap1\n      pop\n      dup1\n      0x00\n      add\n      0x00\n      swap1\n      sload\n      swap1\n      0x0100\n      exp\n      swap1\n      div\n      0xffffffffffffffffffffffffff\n      and\n      swap1\n      dup1\n      0x00\n      add\n      0x0d\n      swap1\n      sload\n      swap1\n      0x0100\n      exp\n      swap1\n      div\n      0xffffffffffffffffffffffffff\n      and\n      swap1\n      dup1\n      0x00\n      add\n      0x1a\n      swap1\n      sload\n      swap1\n      0x0100\n      exp\n      swap1\n      div\n      0xffffffffff\n      and\n      swap1\n      pop\n      dup4\n      jump\t// out\n        /* \"contracts/Omnidex-incentives/incentives/PullRewardsIncentivesController.sol\":1485:1647  function setRewardsVault(address rewardsVault) external onlyEmissionManager {\r... */\n    tag_113:\n        /* \"contracts/Omnidex-incentives/incentives/base/DistributionManager.sol\":942:958  EMISSION_MANAGER */\n      immutable(\"0xfb72c19603b99a84eb94b2a957c683e899e1d0f4b28e255e051e7f1b190ba3b8\")\n        /* \"contracts/Omnidex-incentives/incentives/base/DistributionManager.sol\":928:958  msg.sender == EMISSION_MANAGER */\n      0xffffffffffffffffffffffffffffffffffffffff\n      and\n        /* \"contracts/Omnidex-incentives/incentives/base/DistributionManager.sol\":928:938  msg.sender */\n      caller\n        /* \"contracts/Omnidex-incentives/incentives/base/DistributionManager.sol\":928:958  msg.sender == EMISSION_MANAGER */\n      0xffffffffffffffffffffffffffffffffffffffff\n      and\n      eq\n        /* \"contracts/Omnidex-incentives/incentives/base/DistributionManager.sol\":920:984  require(msg.sender == EMISSION_MANAGER, 'ONLY_EMISSION_MANAGER') */\n      tag_222\n      jumpi\n      mload(0x40)\n      0x08c379a000000000000000000000000000000000000000000000000000000000\n      dup2\n      mstore\n      0x04\n      add\n      tag_223\n      swap1\n      tag_136\n      jump\t// in\n    tag_223:\n      mload(0x40)\n      dup1\n      swap2\n      sub\n      swap1\n      revert\n    tag_222:\n        /* \"contracts/Omnidex-incentives/incentives/PullRewardsIncentivesController.sol\":1584:1596  rewardsVault */\n      dup1\n        /* \"contracts/Omnidex-incentives/incentives/PullRewardsIncentivesController.sol\":1568:1581  _rewardsVault */\n      0x37\n      0x00\n        /* \"contracts/Omnidex-incentives/incentives/PullRewardsIncentivesController.sol\":1568:1596  _rewardsVault = rewardsVault */\n      0x0100\n      exp\n      dup2\n      sload\n      dup2\n      0xffffffffffffffffffffffffffffffffffffffff\n      mul\n      not\n      and\n      swap1\n      dup4\n      0xffffffffffffffffffffffffffffffffffffffff\n      and\n      mul\n      or\n      swap1\n      sstore\n      pop\n        /* \"contracts/Omnidex-incentives/incentives/PullRewardsIncentivesController.sol\":1628:1640  rewardsVault */\n      dup1\n        /* \"contracts/Omnidex-incentives/incentives/PullRewardsIncentivesController.sol\":1608:1641  RewardsVaultUpdated(rewardsVault) */\n      0xffffffffffffffffffffffffffffffffffffffff\n      and\n      0x28a48cbce43190d77247f342cf319b1607bff4ef716cf26b76cf7bb71baebaa5\n      mload(0x40)\n      mload(0x40)\n      dup1\n      swap2\n      sub\n      swap1\n      log2\n        /* \"contracts/Omnidex-incentives/incentives/PullRewardsIncentivesController.sol\":1485:1647  function setRewardsVault(address rewardsVault) external onlyEmissionManager {\r... */\n      pop\n      jump\t// out\n        /* \"contracts/Omnidex-incentives/incentives/base/BaseIncentivesController.sol\":4832:5003  function setClaimer(address user, address caller) external override onlyEmissionManager {\r... */\n    tag_116:\n        /* \"contracts/Omnidex-incentives/incentives/base/DistributionManager.sol\":942:958  EMISSION_MANAGER */\n      immutable(\"0xfb72c19603b99a84eb94b2a957c683e899e1d0f4b28e255e051e7f1b190ba3b8\")\n        /* \"contracts/Omnidex-incentives/incentives/base/DistributionManager.sol\":928:958  msg.sender == EMISSION_MANAGER */\n      0xffffffffffffffffffffffffffffffffffffffff\n      and\n        /* \"contracts/Omnidex-incentives/incentives/base/DistributionManager.sol\":928:938  msg.sender */\n      caller\n        /* \"contracts/Omnidex-incentives/incentives/base/DistributionManager.sol\":928:958  msg.sender == EMISSION_MANAGER */\n      0xffffffffffffffffffffffffffffffffffffffff\n      and\n      eq\n        /* \"contracts/Omnidex-incentives/incentives/base/DistributionManager.sol\":920:984  require(msg.sender == EMISSION_MANAGER, 'ONLY_EMISSION_MANAGER') */\n      tag_226\n      jumpi\n      mload(0x40)\n      0x08c379a000000000000000000000000000000000000000000000000000000000\n      dup2\n      mstore\n      0x04\n      add\n      tag_227\n      swap1\n      tag_136\n      jump\t// in\n    tag_227:\n      mload(0x40)\n      dup1\n      swap2\n      sub\n      swap1\n      revert\n    tag_226:\n        /* \"contracts/Omnidex-incentives/incentives/base/BaseIncentivesController.sol\":4955:4961  caller */\n      dup1\n        /* \"contracts/Omnidex-incentives/incentives/base/BaseIncentivesController.sol\":4927:4946  _authorizedClaimers */\n      0x36\n        /* \"contracts/Omnidex-incentives/incentives/base/BaseIncentivesController.sol\":4927:4952  _authorizedClaimers[user] */\n      0x00\n        /* \"contracts/Omnidex-incentives/incentives/base/BaseIncentivesController.sol\":4947:4951  user */\n      dup5\n        /* \"contracts/Omnidex-incentives/incentives/base/BaseIncentivesController.sol\":4927:4952  _authorizedClaimers[user] */\n      0xffffffffffffffffffffffffffffffffffffffff\n      and\n      0xffffffffffffffffffffffffffffffffffffffff\n      and\n      dup2\n      mstore\n      0x20\n      add\n      swap1\n      dup2\n      mstore\n      0x20\n      add\n      0x00\n      keccak256\n      0x00\n        /* \"contracts/Omnidex-incentives/incentives/base/BaseIncentivesController.sol\":4927:4961  _authorizedClaimers[user] = caller */\n      0x0100\n      exp\n      dup2\n      sload\n      dup2\n      0xffffffffffffffffffffffffffffffffffffffff\n      mul\n      not\n      and\n      swap1\n      dup4\n      0xffffffffffffffffffffffffffffffffffffffff\n      and\n      mul\n      or\n      swap1\n      sstore\n      pop\n        /* \"contracts/Omnidex-incentives/incentives/base/BaseIncentivesController.sol\":4990:4996  caller */\n      dup1\n        /* \"contracts/Omnidex-incentives/incentives/base/BaseIncentivesController.sol\":4973:4997  ClaimerSet(user, caller) */\n      0xffffffffffffffffffffffffffffffffffffffff\n      and\n        /* \"contracts/Omnidex-incentives/incentives/base/BaseIncentivesController.sol\":4984:4988  user */\n      dup3\n        /* \"contracts/Omnidex-incentives/incentives/base/BaseIncentivesController.sol\":4973:4997  ClaimerSet(user, caller) */\n      0xffffffffffffffffffffffffffffffffffffffff\n      and\n      0x4925eafc82d0c4d67889898eeed64b18488ab19811e61620f387026dec126a28\n      mload(0x40)\n      mload(0x40)\n      dup1\n      swap2\n      sub\n      swap1\n      log3\n        /* \"contracts/Omnidex-incentives/incentives/base/BaseIncentivesController.sol\":4832:5003  function setClaimer(address user, address caller) external override onlyEmissionManager {\r... */\n      pop\n      pop\n      jump\t// out\n        /* \"contracts/Omnidex-incentives/incentives/base/BaseIncentivesController.sol\":5875:7196  function _claimRewards(\r... */\n    tag_124:\n        /* \"contracts/Omnidex-incentives/incentives/base/BaseIncentivesController.sol\":6032:6039  uint256 */\n      0x00\n        /* \"contracts/Omnidex-incentives/incentives/base/BaseIncentivesController.sol\":6062:6063  0 */\n      dup1\n        /* \"contracts/Omnidex-incentives/incentives/base/BaseIncentivesController.sol\":6052:6058  amount */\n      dup6\n        /* \"contracts/Omnidex-incentives/incentives/base/BaseIncentivesController.sol\":6052:6063  amount == 0 */\n      eq\n        /* \"contracts/Omnidex-incentives/incentives/base/BaseIncentivesController.sol\":6048:6090  if (amount == 0) {\r... */\n      iszero\n      tag_230\n      jumpi\n        /* \"contracts/Omnidex-incentives/incentives/base/BaseIncentivesController.sol\":6081:6082  0 */\n      0x00\n        /* \"contracts/Omnidex-incentives/incentives/base/BaseIncentivesController.sol\":6074:6082  return 0 */\n      swap1\n      pop\n      jump(tag_229)\n        /* \"contracts/Omnidex-incentives/incentives/base/BaseIncentivesController.sol\":6048:6090  if (amount == 0) {\r... */\n    tag_230:\n        /* \"contracts/Omnidex-incentives/incentives/base/BaseIncentivesController.sol\":6096:6120  uint256 unclaimedRewards */\n      0x00\n        /* \"contracts/Omnidex-incentives/incentives/base/BaseIncentivesController.sol\":6123:6145  _usersUnclaimedRewards */\n      0x35\n        /* \"contracts/Omnidex-incentives/incentives/base/BaseIncentivesController.sol\":6123:6151  _usersUnclaimedRewards[user] */\n      0x00\n        /* \"contracts/Omnidex-incentives/incentives/base/BaseIncentivesController.sol\":6146:6150  user */\n      dup6\n        /* \"contracts/Omnidex-incentives/incentives/base/BaseIncentivesController.sol\":6123:6151  _usersUnclaimedRewards[user] */\n      0xffffffffffffffffffffffffffffffffffffffff\n      and\n      0xffffffffffffffffffffffffffffffffffffffff\n      and\n      dup2\n      mstore\n      0x20\n      add\n      swap1\n      dup2\n      mstore\n      0x20\n      add\n      0x00\n      keccak256\n      sload\n        /* \"contracts/Omnidex-incentives/incentives/base/BaseIncentivesController.sol\":6096:6151  uint256 unclaimedRewards = _usersUnclaimedRewards[user] */\n      swap1\n      pop\n        /* \"contracts/Omnidex-incentives/incentives/base/BaseIncentivesController.sol\":6173:6189  unclaimedRewards */\n      dup1\n        /* \"contracts/Omnidex-incentives/incentives/base/BaseIncentivesController.sol\":6164:6170  amount */\n      dup7\n        /* \"contracts/Omnidex-incentives/incentives/base/BaseIncentivesController.sol\":6164:6189  amount > unclaimedRewards */\n      gt\n        /* \"contracts/Omnidex-incentives/incentives/base/BaseIncentivesController.sol\":6160:6809  if (amount > unclaimedRewards) {\r... */\n      iszero\n      tag_231\n      jumpi\n        /* \"contracts/Omnidex-incentives/incentives/base/BaseIncentivesController.sol\":6200:6251  DistributionTypes.UserStakeInput[] memory userState */\n      0x60\n        /* \"contracts/Omnidex-incentives/incentives/base/BaseIncentivesController.sol\":6302:6308  assets */\n      dup9\n      dup9\n        /* \"contracts/Omnidex-incentives/incentives/base/BaseIncentivesController.sol\":6302:6315  assets.length */\n      swap1\n      pop\n        /* \"contracts/Omnidex-incentives/incentives/base/BaseIncentivesController.sol\":6263:6316  new DistributionTypes.UserStakeInput[](assets.length) */\n      0xffffffffffffffff\n      dup2\n      gt\n      dup1\n      iszero\n      tag_232\n      jumpi\n      0x00\n      dup1\n      revert\n    tag_232:\n      pop\n      mload(0x40)\n      swap1\n      dup1\n      dup3\n      mstore\n      dup1\n      0x20\n      mul\n      0x20\n      add\n      dup3\n      add\n      0x40\n      mstore\n      dup1\n      iszero\n      tag_233\n      jumpi\n      dup2\n      0x20\n      add\n    tag_234:\n      tag_235\n      tag_193\n      jump\t// in\n    tag_235:\n      dup2\n      mstore\n      0x20\n      add\n      swap1\n      0x01\n      swap1\n      sub\n      swap1\n      dup2\n      tag_234\n      jumpi\n      swap1\n      pop\n    tag_233:\n      pop\n        /* \"contracts/Omnidex-incentives/incentives/base/BaseIncentivesController.sol\":6200:6316  DistributionTypes.UserStakeInput[] memory userState =\r... */\n      swap1\n      pop\n        /* \"contracts/Omnidex-incentives/incentives/base/BaseIncentivesController.sol\":6330:6339  uint256 i */\n      0x00\n        /* \"contracts/Omnidex-incentives/incentives/base/BaseIncentivesController.sol\":6325:6575  for (uint256 i = 0; i < assets.length; i++) {\r... */\n    tag_236:\n        /* \"contracts/Omnidex-incentives/incentives/base/BaseIncentivesController.sol\":6349:6355  assets */\n      dup10\n      dup10\n        /* \"contracts/Omnidex-incentives/incentives/base/BaseIncentivesController.sol\":6349:6362  assets.length */\n      swap1\n      pop\n        /* \"contracts/Omnidex-incentives/incentives/base/BaseIncentivesController.sol\":6345:6346  i */\n      dup2\n        /* \"contracts/Omnidex-incentives/incentives/base/BaseIncentivesController.sol\":6345:6362  i < assets.length */\n      lt\n        /* \"contracts/Omnidex-incentives/incentives/base/BaseIncentivesController.sol\":6325:6575  for (uint256 i = 0; i < assets.length; i++) {\r... */\n      iszero\n      tag_237\n      jumpi\n        /* \"contracts/Omnidex-incentives/incentives/base/BaseIncentivesController.sol\":6411:6417  assets */\n      dup10\n      dup10\n        /* \"contracts/Omnidex-incentives/incentives/base/BaseIncentivesController.sol\":6418:6419  i */\n      dup3\n        /* \"contracts/Omnidex-incentives/incentives/base/BaseIncentivesController.sol\":6411:6420  assets[i] */\n      dup2\n      dup2\n      lt\n      tag_239\n      jumpi\n      invalid\n    tag_239:\n      swap1\n      pop\n      0x20\n      mul\n      add\n      0x20\n      dup2\n      add\n      swap1\n      tag_240\n      swap2\n      swap1\n      tag_30\n      jump\t// in\n    tag_240:\n        /* \"contracts/Omnidex-incentives/incentives/base/BaseIncentivesController.sol\":6380:6389  userState */\n      dup3\n        /* \"contracts/Omnidex-incentives/incentives/base/BaseIncentivesController.sol\":6390:6391  i */\n      dup3\n        /* \"contracts/Omnidex-incentives/incentives/base/BaseIncentivesController.sol\":6380:6392  userState[i] */\n      dup2\n      mload\n      dup2\n      lt\n      tag_241\n      jumpi\n      invalid\n    tag_241:\n      0x20\n      mul\n      0x20\n      add\n      add\n      mload\n        /* \"contracts/Omnidex-incentives/incentives/base/BaseIncentivesController.sol\":6380:6408  userState[i].underlyingAsset */\n      0x00\n      add\n        /* \"contracts/Omnidex-incentives/incentives/base/BaseIncentivesController.sol\":6380:6420  userState[i].underlyingAsset = assets[i] */\n      swap1\n      0xffffffffffffffffffffffffffffffffffffffff\n      and\n      swap1\n      dup2\n      0xffffffffffffffffffffffffffffffffffffffff\n      and\n      dup2\n      mstore\n      pop\n      pop\n        /* \"contracts/Omnidex-incentives/incentives/base/BaseIncentivesController.sol\":6507:6513  assets */\n      dup10\n      dup10\n        /* \"contracts/Omnidex-incentives/incentives/base/BaseIncentivesController.sol\":6514:6515  i */\n      dup3\n        /* \"contracts/Omnidex-incentives/incentives/base/BaseIncentivesController.sol\":6507:6516  assets[i] */\n      dup2\n      dup2\n      lt\n      tag_242\n      jumpi\n      invalid\n    tag_242:\n      swap1\n      pop\n      0x20\n      mul\n      add\n      0x20\n      dup2\n      add\n      swap1\n      tag_243\n      swap2\n      swap1\n      tag_30\n      jump\t// in\n    tag_243:\n        /* \"contracts/Omnidex-incentives/incentives/base/BaseIncentivesController.sol\":6487:6559  IScaledBalanceToken(assets[i])\r... */\n      0xffffffffffffffffffffffffffffffffffffffff\n      and\n      0x0afbcdc9\n        /* \"contracts/Omnidex-incentives/incentives/base/BaseIncentivesController.sol\":6560:6564  user */\n      dup8\n        /* \"contracts/Omnidex-incentives/incentives/base/BaseIncentivesController.sol\":6487:6565  IScaledBalanceToken(assets[i])\r... */\n      mload(0x40)\n      dup3\n      0xffffffff\n      and\n      0xe0\n      shl\n      dup2\n      mstore\n      0x04\n      add\n      tag_244\n      swap2\n      swap1\n      tag_71\n      jump\t// in\n    tag_244:\n      0x40\n      dup1\n      mload\n      dup1\n      dup4\n      sub\n      dup2\n      dup7\n      dup1\n      extcodesize\n      iszero\n      dup1\n      iszero\n      tag_245\n      jumpi\n      0x00\n      dup1\n      revert\n    tag_245:\n      pop\n      gas\n      staticcall\n      iszero\n      dup1\n      iszero\n      tag_247\n      jumpi\n      returndatasize\n      0x00\n      dup1\n      returndatacopy\n      revert(0x00, returndatasize)\n    tag_247:\n      pop\n      pop\n      pop\n      pop\n      mload(0x40)\n      returndatasize\n      not(0x1f)\n      0x1f\n      dup3\n      add\n      and\n      dup3\n      add\n      dup1\n      0x40\n      mstore\n      pop\n      dup2\n      add\n      swap1\n      tag_248\n      swap2\n      swap1\n      tag_207\n      jump\t// in\n    tag_248:\n        /* \"contracts/Omnidex-incentives/incentives/base/BaseIncentivesController.sol\":6432:6441  userState */\n      dup4\n        /* \"contracts/Omnidex-incentives/incentives/base/BaseIncentivesController.sol\":6442:6443  i */\n      dup4\n        /* \"contracts/Omnidex-incentives/incentives/base/BaseIncentivesController.sol\":6432:6444  userState[i] */\n      dup2\n      mload\n      dup2\n      lt\n      tag_249\n      jumpi\n      invalid\n    tag_249:\n      0x20\n      mul\n      0x20\n      add\n      add\n      mload\n        /* \"contracts/Omnidex-incentives/incentives/base/BaseIncentivesController.sol\":6432:6457  userState[i].stakedByUser */\n      0x20\n      add\n        /* \"contracts/Omnidex-incentives/incentives/base/BaseIncentivesController.sol\":6459:6468  userState */\n      dup5\n        /* \"contracts/Omnidex-incentives/incentives/base/BaseIncentivesController.sol\":6469:6470  i */\n      dup5\n        /* \"contracts/Omnidex-incentives/incentives/base/BaseIncentivesController.sol\":6459:6471  userState[i] */\n      dup2\n      mload\n      dup2\n      lt\n      tag_250\n      jumpi\n      invalid\n    tag_250:\n      0x20\n      mul\n      0x20\n      add\n      add\n      mload\n        /* \"contracts/Omnidex-incentives/incentives/base/BaseIncentivesController.sol\":6459:6483  userState[i].totalStaked */\n      0x40\n      add\n        /* \"contracts/Omnidex-incentives/incentives/base/BaseIncentivesController.sol\":6431:6565  (userState[i].stakedByUser, userState[i].totalStaked) = IScaledBalanceToken(assets[i])\r... */\n      dup3\n      dup2\n      mstore\n      pop\n      dup3\n      dup2\n      mstore\n      pop\n      pop\n      pop\n        /* \"contracts/Omnidex-incentives/incentives/base/BaseIncentivesController.sol\":6364:6367  i++ */\n      dup1\n      dup1\n      0x01\n      add\n      swap2\n      pop\n      pop\n        /* \"contracts/Omnidex-incentives/incentives/base/BaseIncentivesController.sol\":6325:6575  for (uint256 i = 0; i < assets.length; i++) {\r... */\n      jump(tag_236)\n    tag_237:\n      pop\n        /* \"contracts/Omnidex-incentives/incentives/base/BaseIncentivesController.sol\":6585:6607  uint256 accruedRewards */\n      0x00\n        /* \"contracts/Omnidex-incentives/incentives/base/BaseIncentivesController.sol\":6610:6640  _claimRewards(user, userState) */\n      tag_251\n        /* \"contracts/Omnidex-incentives/incentives/base/BaseIncentivesController.sol\":6624:6628  user */\n      dup7\n        /* \"contracts/Omnidex-incentives/incentives/base/BaseIncentivesController.sol\":6630:6639  userState */\n      dup4\n        /* \"contracts/Omnidex-incentives/incentives/base/BaseIncentivesController.sol\":6610:6623  _claimRewards */\n      tag_252\n        /* \"contracts/Omnidex-incentives/incentives/base/BaseIncentivesController.sol\":6610:6640  _claimRewards(user, userState) */\n      jump\t// in\n    tag_251:\n        /* \"contracts/Omnidex-incentives/incentives/base/BaseIncentivesController.sol\":6585:6640  uint256 accruedRewards = _claimRewards(user, userState) */\n      swap1\n      pop\n        /* \"contracts/Omnidex-incentives/incentives/base/BaseIncentivesController.sol\":6671:6672  0 */\n      0x00\n        /* \"contracts/Omnidex-incentives/incentives/base/BaseIncentivesController.sol\":6653:6667  accruedRewards */\n      dup2\n        /* \"contracts/Omnidex-incentives/incentives/base/BaseIncentivesController.sol\":6653:6672  accruedRewards != 0 */\n      eq\n        /* \"contracts/Omnidex-incentives/incentives/base/BaseIncentivesController.sol\":6649:6802  if (accruedRewards != 0) {\r... */\n      tag_253\n      jumpi\n        /* \"contracts/Omnidex-incentives/incentives/base/BaseIncentivesController.sol\":6704:6740  unclaimedRewards.add(accruedRewards) */\n      tag_254\n        /* \"contracts/Omnidex-incentives/incentives/base/BaseIncentivesController.sol\":6725:6739  accruedRewards */\n      dup2\n        /* \"contracts/Omnidex-incentives/incentives/base/BaseIncentivesController.sol\":6704:6720  unclaimedRewards */\n      dup5\n        /* \"contracts/Omnidex-incentives/incentives/base/BaseIncentivesController.sol\":6704:6724  unclaimedRewards.add */\n      tag_130\n      swap1\n        /* \"contracts/Omnidex-incentives/incentives/base/BaseIncentivesController.sol\":6704:6740  unclaimedRewards.add(accruedRewards) */\n      swap2\n      swap1\n      0xffffffff\n      and\n      jump\t// in\n    tag_254:\n        /* \"contracts/Omnidex-incentives/incentives/base/BaseIncentivesController.sol\":6685:6740  unclaimedRewards = unclaimedRewards.add(accruedRewards) */\n      swap3\n      pop\n        /* \"contracts/Omnidex-incentives/incentives/base/BaseIncentivesController.sol\":6771:6775  user */\n      dup6\n        /* \"contracts/Omnidex-incentives/incentives/base/BaseIncentivesController.sol\":6756:6792  RewardsAccrued(user, accruedRewards) */\n      0xffffffffffffffffffffffffffffffffffffffff\n      and\n      0x2468f9268c60ad90e2d49edb0032c8a001e733ae888b3ab8e982edf535be1a76\n        /* \"contracts/Omnidex-incentives/incentives/base/BaseIncentivesController.sol\":6777:6791  accruedRewards */\n      dup3\n        /* \"contracts/Omnidex-incentives/incentives/base/BaseIncentivesController.sol\":6756:6792  RewardsAccrued(user, accruedRewards) */\n      mload(0x40)\n      tag_255\n      swap2\n      swap1\n      tag_38\n      jump\t// in\n    tag_255:\n      mload(0x40)\n      dup1\n      swap2\n      sub\n      swap1\n      log2\n        /* \"contracts/Omnidex-incentives/incentives/base/BaseIncentivesController.sol\":6649:6802  if (accruedRewards != 0) {\r... */\n    tag_253:\n        /* \"contracts/Omnidex-incentives/incentives/base/BaseIncentivesController.sol\":6160:6809  if (amount > unclaimedRewards) {\r... */\n      pop\n      pop\n    tag_231:\n        /* \"contracts/Omnidex-incentives/incentives/base/BaseIncentivesController.sol\":6841:6842  0 */\n      0x00\n        /* \"contracts/Omnidex-incentives/incentives/base/BaseIncentivesController.sol\":6821:6837  unclaimedRewards */\n      dup2\n        /* \"contracts/Omnidex-incentives/incentives/base/BaseIncentivesController.sol\":6821:6842  unclaimedRewards == 0 */\n      eq\n        /* \"contracts/Omnidex-incentives/incentives/base/BaseIncentivesController.sol\":6817:6869  if (unclaimedRewards == 0) {\r... */\n      iszero\n      tag_256\n      jumpi\n        /* \"contracts/Omnidex-incentives/incentives/base/BaseIncentivesController.sol\":6860:6861  0 */\n      0x00\n        /* \"contracts/Omnidex-incentives/incentives/base/BaseIncentivesController.sol\":6853:6861  return 0 */\n      swap2\n      pop\n      pop\n      jump(tag_229)\n        /* \"contracts/Omnidex-incentives/incentives/base/BaseIncentivesController.sol\":6817:6869  if (unclaimedRewards == 0) {\r... */\n    tag_256:\n        /* \"contracts/Omnidex-incentives/incentives/base/BaseIncentivesController.sol\":6877:6898  uint256 amountToClaim */\n      0x00\n        /* \"contracts/Omnidex-incentives/incentives/base/BaseIncentivesController.sol\":6910:6926  unclaimedRewards */\n      dup2\n        /* \"contracts/Omnidex-incentives/incentives/base/BaseIncentivesController.sol\":6901:6907  amount */\n      dup8\n        /* \"contracts/Omnidex-incentives/incentives/base/BaseIncentivesController.sol\":6901:6926  amount > unclaimedRewards */\n      gt\n        /* \"contracts/Omnidex-incentives/incentives/base/BaseIncentivesController.sol\":6901:6954  amount > unclaimedRewards ? unclaimedRewards : amount */\n      tag_257\n      jumpi\n        /* \"contracts/Omnidex-incentives/incentives/base/BaseIncentivesController.sol\":6948:6954  amount */\n      dup7\n        /* \"contracts/Omnidex-incentives/incentives/base/BaseIncentivesController.sol\":6901:6954  amount > unclaimedRewards ? unclaimedRewards : amount */\n      jump(tag_258)\n    tag_257:\n        /* \"contracts/Omnidex-incentives/incentives/base/BaseIncentivesController.sol\":6929:6945  unclaimedRewards */\n      dup2\n        /* \"contracts/Omnidex-incentives/incentives/base/BaseIncentivesController.sol\":6901:6954  amount > unclaimedRewards ? unclaimedRewards : amount */\n    tag_258:\n        /* \"contracts/Omnidex-incentives/incentives/base/BaseIncentivesController.sol\":6877:6954  uint256 amountToClaim = amount > unclaimedRewards ? unclaimedRewards : amount */\n      swap1\n      pop\n        /* \"contracts/Omnidex-incentives/incentives/base/BaseIncentivesController.sol\":7011:7024  amountToClaim */\n      dup1\n        /* \"contracts/Omnidex-incentives/incentives/base/BaseIncentivesController.sol\":6992:7008  unclaimedRewards */\n      dup3\n        /* \"contracts/Omnidex-incentives/incentives/base/BaseIncentivesController.sol\":6992:7024  unclaimedRewards - amountToClaim */\n      sub\n        /* \"contracts/Omnidex-incentives/incentives/base/BaseIncentivesController.sol\":6961:6983  _usersUnclaimedRewards */\n      0x35\n        /* \"contracts/Omnidex-incentives/incentives/base/BaseIncentivesController.sol\":6961:6989  _usersUnclaimedRewards[user] */\n      0x00\n        /* \"contracts/Omnidex-incentives/incentives/base/BaseIncentivesController.sol\":6984:6988  user */\n      dup8\n        /* \"contracts/Omnidex-incentives/incentives/base/BaseIncentivesController.sol\":6961:6989  _usersUnclaimedRewards[user] */\n      0xffffffffffffffffffffffffffffffffffffffff\n      and\n      0xffffffffffffffffffffffffffffffffffffffff\n      and\n      dup2\n      mstore\n      0x20\n      add\n      swap1\n      dup2\n      mstore\n      0x20\n      add\n      0x00\n      keccak256\n        /* \"contracts/Omnidex-incentives/incentives/base/BaseIncentivesController.sol\":6961:7024  _usersUnclaimedRewards[user] = unclaimedRewards - amountToClaim */\n      dup2\n      swap1\n      sstore\n      pop\n        /* \"contracts/Omnidex-incentives/incentives/base/BaseIncentivesController.sol\":7066:7101  _transferRewards(to, amountToClaim) */\n      tag_259\n        /* \"contracts/Omnidex-incentives/incentives/base/BaseIncentivesController.sol\":7083:7085  to */\n      dup5\n        /* \"contracts/Omnidex-incentives/incentives/base/BaseIncentivesController.sol\":7087:7100  amountToClaim */\n      dup3\n        /* \"contracts/Omnidex-incentives/incentives/base/BaseIncentivesController.sol\":7066:7082  _transferRewards */\n      tag_260\n        /* \"contracts/Omnidex-incentives/incentives/base/BaseIncentivesController.sol\":7066:7101  _transferRewards(to, amountToClaim) */\n      jump\t// in\n    tag_259:\n        /* \"contracts/Omnidex-incentives/incentives/base/BaseIncentivesController.sol\":7138:7145  claimer */\n      dup6\n        /* \"contracts/Omnidex-incentives/incentives/base/BaseIncentivesController.sol\":7113:7161  RewardsClaimed(user, to, claimer, amountToClaim) */\n      0xffffffffffffffffffffffffffffffffffffffff\n      and\n        /* \"contracts/Omnidex-incentives/incentives/base/BaseIncentivesController.sol\":7134:7136  to */\n      dup5\n        /* \"contracts/Omnidex-incentives/incentives/base/BaseIncentivesController.sol\":7113:7161  RewardsClaimed(user, to, claimer, amountToClaim) */\n      0xffffffffffffffffffffffffffffffffffffffff\n      and\n        /* \"contracts/Omnidex-incentives/incentives/base/BaseIncentivesController.sol\":7128:7132  user */\n      dup7\n        /* \"contracts/Omnidex-incentives/incentives/base/BaseIncentivesController.sol\":7113:7161  RewardsClaimed(user, to, claimer, amountToClaim) */\n      0xffffffffffffffffffffffffffffffffffffffff\n      and\n      0x5637d7f962248a7f05a7ab69eec6446e31f3d0a299d997f135a65c62806e7891\n        /* \"contracts/Omnidex-incentives/incentives/base/BaseIncentivesController.sol\":7147:7160  amountToClaim */\n      dup5\n        /* \"contracts/Omnidex-incentives/incentives/base/BaseIncentivesController.sol\":7113:7161  RewardsClaimed(user, to, claimer, amountToClaim) */\n      mload(0x40)\n      tag_261\n      swap2\n      swap1\n      tag_38\n      jump\t// in\n    tag_261:\n      mload(0x40)\n      dup1\n      swap2\n      sub\n      swap1\n      log4\n        /* \"contracts/Omnidex-incentives/incentives/base/BaseIncentivesController.sol\":7177:7190  amountToClaim */\n      dup1\n        /* \"contracts/Omnidex-incentives/incentives/base/BaseIncentivesController.sol\":7170:7190  return amountToClaim */\n      swap3\n      pop\n      pop\n      pop\n        /* \"contracts/Omnidex-incentives/incentives/base/BaseIncentivesController.sol\":5875:7196  function _claimRewards(\r... */\n    tag_229:\n      swap7\n      swap6\n      pop\n      pop\n      pop\n      pop\n      pop\n      pop\n      jump\t// out\n        /* \"contracts/Omnidex-incentives/incentives/base/DistributionManager.sol\":4616:5279  function _updateUserAssetInternal(\r... */\n    tag_127:\n        /* \"contracts/Omnidex-incentives/incentives/base/DistributionManager.sol\":4765:4772  uint256 */\n      0x00\n        /* \"contracts/Omnidex-incentives/incentives/base/DistributionManager.sol\":4781:4808  AssetData storage assetData */\n      dup1\n        /* \"contracts/Omnidex-incentives/incentives/base/DistributionManager.sol\":4811:4817  assets */\n      0x33\n        /* \"contracts/Omnidex-incentives/incentives/base/DistributionManager.sol\":4811:4824  assets[asset] */\n      0x00\n        /* \"contracts/Omnidex-incentives/incentives/base/DistributionManager.sol\":4818:4823  asset */\n      dup7\n        /* \"contracts/Omnidex-incentives/incentives/base/DistributionManager.sol\":4811:4824  assets[asset] */\n      0xffffffffffffffffffffffffffffffffffffffff\n      and\n      0xffffffffffffffffffffffffffffffffffffffff\n      and\n      dup2\n      mstore\n      0x20\n      add\n      swap1\n      dup2\n      mstore\n      0x20\n      add\n      0x00\n      keccak256\n        /* \"contracts/Omnidex-incentives/incentives/base/DistributionManager.sol\":4781:4824  AssetData storage assetData = assets[asset] */\n      swap1\n      pop\n        /* \"contracts/Omnidex-incentives/incentives/base/DistributionManager.sol\":4831:4848  uint256 userIndex */\n      0x00\n        /* \"contracts/Omnidex-incentives/incentives/base/DistributionManager.sol\":4851:4860  assetData */\n      dup2\n        /* \"contracts/Omnidex-incentives/incentives/base/DistributionManager.sol\":4851:4866  assetData.users */\n      0x01\n      add\n        /* \"contracts/Omnidex-incentives/incentives/base/DistributionManager.sol\":4851:4872  assetData.users[user] */\n      0x00\n        /* \"contracts/Omnidex-incentives/incentives/base/DistributionManager.sol\":4867:4871  user */\n      dup9\n        /* \"contracts/Omnidex-incentives/incentives/base/DistributionManager.sol\":4851:4872  assetData.users[user] */\n      0xffffffffffffffffffffffffffffffffffffffff\n      and\n      0xffffffffffffffffffffffffffffffffffffffff\n      and\n      dup2\n      mstore\n      0x20\n      add\n      swap1\n      dup2\n      mstore\n      0x20\n      add\n      0x00\n      keccak256\n      sload\n        /* \"contracts/Omnidex-incentives/incentives/base/DistributionManager.sol\":4831:4872  uint256 userIndex = assetData.users[user] */\n      swap1\n      pop\n        /* \"contracts/Omnidex-incentives/incentives/base/DistributionManager.sol\":4879:4901  uint256 accruedRewards */\n      0x00\n        /* \"contracts/Omnidex-incentives/incentives/base/DistributionManager.sol\":4914:4930  uint256 newIndex */\n      dup1\n        /* \"contracts/Omnidex-incentives/incentives/base/DistributionManager.sol\":4933:4989  _updateAssetStateInternal(asset, assetData, totalStaked) */\n      tag_263\n        /* \"contracts/Omnidex-incentives/incentives/base/DistributionManager.sol\":4959:4964  asset */\n      dup9\n        /* \"contracts/Omnidex-incentives/incentives/base/DistributionManager.sol\":4966:4975  assetData */\n      dup6\n        /* \"contracts/Omnidex-incentives/incentives/base/DistributionManager.sol\":4977:4988  totalStaked */\n      dup9\n        /* \"contracts/Omnidex-incentives/incentives/base/DistributionManager.sol\":4933:4958  _updateAssetStateInternal */\n      tag_264\n        /* \"contracts/Omnidex-incentives/incentives/base/DistributionManager.sol\":4933:4989  _updateAssetStateInternal(asset, assetData, totalStaked) */\n      jump\t// in\n    tag_263:\n        /* \"contracts/Omnidex-incentives/incentives/base/DistributionManager.sol\":4914:4989  uint256 newIndex = _updateAssetStateInternal(asset, assetData, totalStaked) */\n      swap1\n      pop\n        /* \"contracts/Omnidex-incentives/incentives/base/DistributionManager.sol\":5015:5023  newIndex */\n      dup1\n        /* \"contracts/Omnidex-incentives/incentives/base/DistributionManager.sol\":5002:5011  userIndex */\n      dup4\n        /* \"contracts/Omnidex-incentives/incentives/base/DistributionManager.sol\":5002:5023  userIndex != newIndex */\n      eq\n        /* \"contracts/Omnidex-incentives/incentives/base/DistributionManager.sol\":4998:5244  if (userIndex != newIndex) {\r... */\n      tag_265\n      jumpi\n        /* \"contracts/Omnidex-incentives/incentives/base/DistributionManager.sol\":5054:5055  0 */\n      0x00\n        /* \"contracts/Omnidex-incentives/incentives/base/DistributionManager.sol\":5038:5050  stakedByUser */\n      dup8\n        /* \"contracts/Omnidex-incentives/incentives/base/DistributionManager.sol\":5038:5055  stakedByUser != 0 */\n      eq\n        /* \"contracts/Omnidex-incentives/incentives/base/DistributionManager.sol\":5034:5141  if (stakedByUser != 0) {\r... */\n      tag_266\n      jumpi\n        /* \"contracts/Omnidex-incentives/incentives/base/DistributionManager.sol\":5085:5131  _getRewards(stakedByUser, newIndex, userIndex) */\n      tag_267\n        /* \"contracts/Omnidex-incentives/incentives/base/DistributionManager.sol\":5097:5109  stakedByUser */\n      dup8\n        /* \"contracts/Omnidex-incentives/incentives/base/DistributionManager.sol\":5111:5119  newIndex */\n      dup3\n        /* \"contracts/Omnidex-incentives/incentives/base/DistributionManager.sol\":5121:5130  userIndex */\n      dup6\n        /* \"contracts/Omnidex-incentives/incentives/base/DistributionManager.sol\":5085:5096  _getRewards */\n      tag_268\n        /* \"contracts/Omnidex-incentives/incentives/base/DistributionManager.sol\":5085:5131  _getRewards(stakedByUser, newIndex, userIndex) */\n      jump\t// in\n    tag_267:\n        /* \"contracts/Omnidex-incentives/incentives/base/DistributionManager.sol\":5068:5131  accruedRewards = _getRewards(stakedByUser, newIndex, userIndex) */\n      swap2\n      pop\n        /* \"contracts/Omnidex-incentives/incentives/base/DistributionManager.sol\":5034:5141  if (stakedByUser != 0) {\r... */\n    tag_266:\n        /* \"contracts/Omnidex-incentives/incentives/base/DistributionManager.sol\":5175:5183  newIndex */\n      dup1\n        /* \"contracts/Omnidex-incentives/incentives/base/DistributionManager.sol\":5151:5160  assetData */\n      dup5\n        /* \"contracts/Omnidex-incentives/incentives/base/DistributionManager.sol\":5151:5166  assetData.users */\n      0x01\n      add\n        /* \"contracts/Omnidex-incentives/incentives/base/DistributionManager.sol\":5151:5172  assetData.users[user] */\n      0x00\n        /* \"contracts/Omnidex-incentives/incentives/base/DistributionManager.sol\":5167:5171  user */\n      dup12\n        /* \"contracts/Omnidex-incentives/incentives/base/DistributionManager.sol\":5151:5172  assetData.users[user] */\n      0xffffffffffffffffffffffffffffffffffffffff\n      and\n      0xffffffffffffffffffffffffffffffffffffffff\n      and\n      dup2\n      mstore\n      0x20\n      add\n      swap1\n      dup2\n      mstore\n      0x20\n      add\n      0x00\n      keccak256\n        /* \"contracts/Omnidex-incentives/incentives/base/DistributionManager.sol\":5151:5183  assetData.users[user] = newIndex */\n      dup2\n      swap1\n      sstore\n      pop\n        /* \"contracts/Omnidex-incentives/incentives/base/DistributionManager.sol\":5220:5225  asset */\n      dup8\n        /* \"contracts/Omnidex-incentives/incentives/base/DistributionManager.sol\":5197:5236  UserIndexUpdated(user, asset, newIndex) */\n      0xffffffffffffffffffffffffffffffffffffffff\n      and\n        /* \"contracts/Omnidex-incentives/incentives/base/DistributionManager.sol\":5214:5218  user */\n      dup10\n        /* \"contracts/Omnidex-incentives/incentives/base/DistributionManager.sol\":5197:5236  UserIndexUpdated(user, asset, newIndex) */\n      0xffffffffffffffffffffffffffffffffffffffff\n      and\n      0xbb123b5c06d5408bbea3c4fef481578175cfb432e3b482c6186f02ed9086585b\n        /* \"contracts/Omnidex-incentives/incentives/base/DistributionManager.sol\":5227:5235  newIndex */\n      dup4\n        /* \"contracts/Omnidex-incentives/incentives/base/DistributionManager.sol\":5197:5236  UserIndexUpdated(user, asset, newIndex) */\n      mload(0x40)\n      tag_269\n      swap2\n      swap1\n      tag_38\n      jump\t// in\n    tag_269:\n      mload(0x40)\n      dup1\n      swap2\n      sub\n      swap1\n      log3\n        /* \"contracts/Omnidex-incentives/incentives/base/DistributionManager.sol\":4998:5244  if (userIndex != newIndex) {\r... */\n    tag_265:\n        /* \"contracts/Omnidex-incentives/incentives/base/DistributionManager.sol\":5259:5273  accruedRewards */\n      dup2\n        /* \"contracts/Omnidex-incentives/incentives/base/DistributionManager.sol\":5252:5273  return accruedRewards */\n      swap5\n      pop\n      pop\n      pop\n      pop\n      pop\n        /* \"contracts/Omnidex-incentives/incentives/base/DistributionManager.sol\":4616:5279  function _updateUserAssetInternal(\r... */\n      swap5\n      swap4\n      pop\n      pop\n      pop\n      pop\n      jump\t// out\n        /* \"contracts/Omnidex-incentives/lib/SafeMath.sol\":460:573  function add(uint256 x, uint256 y) internal pure returns (uint256 z) {\r... */\n    tag_130:\n        /* \"contracts/Omnidex-incentives/lib/SafeMath.sol\":518:527  uint256 z */\n      0x00\n        /* \"contracts/Omnidex-incentives/lib/SafeMath.sol\":563:564  x */\n      dup3\n        /* \"contracts/Omnidex-incentives/lib/SafeMath.sol\":557:558  y */\n      dup3\n        /* \"contracts/Omnidex-incentives/lib/SafeMath.sol\":553:554  x */\n      dup5\n        /* \"contracts/Omnidex-incentives/lib/SafeMath.sol\":553:558  x + y */\n      add\n        /* \"contracts/Omnidex-incentives/lib/SafeMath.sol\":549:558  z = x + y */\n      swap2\n      pop\n      dup2\n        /* \"contracts/Omnidex-incentives/lib/SafeMath.sol\":548:564  (z = x + y) >= x */\n      lt\n      iszero\n        /* \"contracts/Omnidex-incentives/lib/SafeMath.sol\":540:565  require((z = x + y) >= x) */\n      tag_271\n      jumpi\n      0x00\n      dup1\n      revert\n    tag_271:\n        /* \"contracts/Omnidex-incentives/lib/SafeMath.sol\":460:573  function add(uint256 x, uint256 y) internal pure returns (uint256 z) {\r... */\n      swap3\n      swap2\n      pop\n      pop\n      jump\t// out\n        /* \"contracts/Omnidex-incentives/incentives/base/DistributionManager.sol\":2242:2885  function _configureAssets(DistributionTypes.AssetConfigInput[] memory assetsConfigInput)\r... */\n    tag_187:\n        /* \"contracts/Omnidex-incentives/incentives/base/DistributionManager.sol\":2360:2369  uint256 i */\n      0x00\n        /* \"contracts/Omnidex-incentives/incentives/base/DistributionManager.sol\":2355:2880  for (uint256 i = 0; i < assetsConfigInput.length; i++) {\r... */\n    tag_273:\n        /* \"contracts/Omnidex-incentives/incentives/base/DistributionManager.sol\":2379:2396  assetsConfigInput */\n      dup2\n        /* \"contracts/Omnidex-incentives/incentives/base/DistributionManager.sol\":2379:2403  assetsConfigInput.length */\n      mload\n        /* \"contracts/Omnidex-incentives/incentives/base/DistributionManager.sol\":2375:2376  i */\n      dup2\n        /* \"contracts/Omnidex-incentives/incentives/base/DistributionManager.sol\":2375:2403  i < assetsConfigInput.length */\n      lt\n        /* \"contracts/Omnidex-incentives/incentives/base/DistributionManager.sol\":2355:2880  for (uint256 i = 0; i < assetsConfigInput.length; i++) {\r... */\n      iszero\n      tag_274\n      jumpi\n        /* \"contracts/Omnidex-incentives/incentives/base/DistributionManager.sol\":2419:2448  AssetData storage assetConfig */\n      0x00\n        /* \"contracts/Omnidex-incentives/incentives/base/DistributionManager.sol\":2451:2457  assets */\n      0x33\n        /* \"contracts/Omnidex-incentives/incentives/base/DistributionManager.sol\":2451:2495  assets[assetsConfigInput[i].underlyingAsset] */\n      0x00\n        /* \"contracts/Omnidex-incentives/incentives/base/DistributionManager.sol\":2458:2475  assetsConfigInput */\n      dup5\n        /* \"contracts/Omnidex-incentives/incentives/base/DistributionManager.sol\":2476:2477  i */\n      dup5\n        /* \"contracts/Omnidex-incentives/incentives/base/DistributionManager.sol\":2458:2478  assetsConfigInput[i] */\n      dup2\n      mload\n      dup2\n      lt\n      tag_276\n      jumpi\n      invalid\n    tag_276:\n      0x20\n      mul\n      0x20\n      add\n      add\n      mload\n        /* \"contracts/Omnidex-incentives/incentives/base/DistributionManager.sol\":2458:2494  assetsConfigInput[i].underlyingAsset */\n      0x40\n      add\n      mload\n        /* \"contracts/Omnidex-incentives/incentives/base/DistributionManager.sol\":2451:2495  assets[assetsConfigInput[i].underlyingAsset] */\n      0xffffffffffffffffffffffffffffffffffffffff\n      and\n      0xffffffffffffffffffffffffffffffffffffffff\n      and\n      dup2\n      mstore\n      0x20\n      add\n      swap1\n      dup2\n      mstore\n      0x20\n      add\n      0x00\n      keccak256\n        /* \"contracts/Omnidex-incentives/incentives/base/DistributionManager.sol\":2419:2495  AssetData storage assetConfig = assets[assetsConfigInput[i].underlyingAsset] */\n      swap1\n      pop\n        /* \"contracts/Omnidex-incentives/incentives/base/DistributionManager.sol\":2506:2652  _updateAssetStateInternal(\r... */\n      tag_277\n        /* \"contracts/Omnidex-incentives/incentives/base/DistributionManager.sol\":2542:2559  assetsConfigInput */\n      dup4\n        /* \"contracts/Omnidex-incentives/incentives/base/DistributionManager.sol\":2560:2561  i */\n      dup4\n        /* \"contracts/Omnidex-incentives/incentives/base/DistributionManager.sol\":2542:2562  assetsConfigInput[i] */\n      dup2\n      mload\n      dup2\n      lt\n      tag_278\n      jumpi\n      invalid\n    tag_278:\n      0x20\n      mul\n      0x20\n      add\n      add\n      mload\n        /* \"contracts/Omnidex-incentives/incentives/base/DistributionManager.sol\":2542:2578  assetsConfigInput[i].underlyingAsset */\n      0x40\n      add\n      mload\n        /* \"contracts/Omnidex-incentives/incentives/base/DistributionManager.sol\":2589:2600  assetConfig */\n      dup3\n        /* \"contracts/Omnidex-incentives/incentives/base/DistributionManager.sol\":2611:2628  assetsConfigInput */\n      dup6\n        /* \"contracts/Omnidex-incentives/incentives/base/DistributionManager.sol\":2629:2630  i */\n      dup6\n        /* \"contracts/Omnidex-incentives/incentives/base/DistributionManager.sol\":2611:2631  assetsConfigInput[i] */\n      dup2\n      mload\n      dup2\n      lt\n      tag_279\n      jumpi\n      invalid\n    tag_279:\n      0x20\n      mul\n      0x20\n      add\n      add\n      mload\n        /* \"contracts/Omnidex-incentives/incentives/base/DistributionManager.sol\":2611:2643  assetsConfigInput[i].totalStaked */\n      0x20\n      add\n      mload\n        /* \"contracts/Omnidex-incentives/incentives/base/DistributionManager.sol\":2506:2531  _updateAssetStateInternal */\n      tag_264\n        /* \"contracts/Omnidex-incentives/incentives/base/DistributionManager.sol\":2506:2652  _updateAssetStateInternal(\r... */\n      jump\t// in\n    tag_277:\n      pop\n        /* \"contracts/Omnidex-incentives/incentives/base/DistributionManager.sol\":2695:2712  assetsConfigInput */\n      dup3\n        /* \"contracts/Omnidex-incentives/incentives/base/DistributionManager.sol\":2713:2714  i */\n      dup3\n        /* \"contracts/Omnidex-incentives/incentives/base/DistributionManager.sol\":2695:2715  assetsConfigInput[i] */\n      dup2\n      mload\n      dup2\n      lt\n      tag_280\n      jumpi\n      invalid\n    tag_280:\n      0x20\n      mul\n      0x20\n      add\n      add\n      mload\n        /* \"contracts/Omnidex-incentives/incentives/base/DistributionManager.sol\":2695:2733  assetsConfigInput[i].emissionPerSecond */\n      0x00\n      add\n      mload\n        /* \"contracts/Omnidex-incentives/incentives/base/DistributionManager.sol\":2663:2674  assetConfig */\n      dup2\n        /* \"contracts/Omnidex-incentives/incentives/base/DistributionManager.sol\":2663:2692  assetConfig.emissionPerSecond */\n      0x00\n      add\n      0x00\n        /* \"contracts/Omnidex-incentives/incentives/base/DistributionManager.sol\":2663:2733  assetConfig.emissionPerSecond = assetsConfigInput[i].emissionPerSecond */\n      0x0100\n      exp\n      dup2\n      sload\n      dup2\n      0xffffffffffffffffffffffffff\n      mul\n      not\n      and\n      swap1\n      dup4\n      0xffffffffffffffffffffffffff\n      and\n      mul\n      or\n      swap1\n      sstore\n      pop\n        /* \"contracts/Omnidex-incentives/incentives/base/DistributionManager.sol\":2778:2795  assetsConfigInput */\n      dup3\n        /* \"contracts/Omnidex-incentives/incentives/base/DistributionManager.sol\":2796:2797  i */\n      dup3\n        /* \"contracts/Omnidex-incentives/incentives/base/DistributionManager.sol\":2778:2798  assetsConfigInput[i] */\n      dup2\n      mload\n      dup2\n      lt\n      tag_281\n      jumpi\n      invalid\n    tag_281:\n      0x20\n      mul\n      0x20\n      add\n      add\n      mload\n        /* \"contracts/Omnidex-incentives/incentives/base/DistributionManager.sol\":2778:2814  assetsConfigInput[i].underlyingAsset */\n      0x40\n      add\n      mload\n        /* \"contracts/Omnidex-incentives/incentives/base/DistributionManager.sol\":2749:2872  AssetConfigUpdated(\r... */\n      0xffffffffffffffffffffffffffffffffffffffff\n      and\n      0x87fa03892a0556cb6b8f97e6d533a150d4d55fcbf275fff5fa003fa636bcc7fa\n        /* \"contracts/Omnidex-incentives/incentives/base/DistributionManager.sol\":2825:2842  assetsConfigInput */\n      dup5\n        /* \"contracts/Omnidex-incentives/incentives/base/DistributionManager.sol\":2843:2844  i */\n      dup5\n        /* \"contracts/Omnidex-incentives/incentives/base/DistributionManager.sol\":2825:2845  assetsConfigInput[i] */\n      dup2\n      mload\n      dup2\n      lt\n      tag_282\n      jumpi\n      invalid\n    tag_282:\n      0x20\n      mul\n      0x20\n      add\n      add\n      mload\n        /* \"contracts/Omnidex-incentives/incentives/base/DistributionManager.sol\":2825:2863  assetsConfigInput[i].emissionPerSecond */\n      0x00\n      add\n      mload\n        /* \"contracts/Omnidex-incentives/incentives/base/DistributionManager.sol\":2749:2872  AssetConfigUpdated(\r... */\n      mload(0x40)\n      tag_283\n      swap2\n      swap1\n      tag_284\n      jump\t// in\n    tag_283:\n      mload(0x40)\n      dup1\n      swap2\n      sub\n      swap1\n      log2\n        /* \"contracts/Omnidex-incentives/incentives/base/DistributionManager.sol\":2355:2880  for (uint256 i = 0; i < assetsConfigInput.length; i++) {\r... */\n      pop\n        /* \"contracts/Omnidex-incentives/incentives/base/DistributionManager.sol\":2405:2408  i++ */\n      dup1\n      dup1\n      0x01\n      add\n      swap2\n      pop\n      pop\n        /* \"contracts/Omnidex-incentives/incentives/base/DistributionManager.sol\":2355:2880  for (uint256 i = 0; i < assetsConfigInput.length; i++) {\r... */\n      jump(tag_273)\n    tag_274:\n      pop\n        /* \"contracts/Omnidex-incentives/incentives/base/DistributionManager.sol\":2242:2885  function _configureAssets(DistributionTypes.AssetConfigInput[] memory assetsConfigInput)\r... */\n      pop\n      jump\t// out\n        /* \"contracts/Omnidex-incentives/incentives/base/DistributionManager.sol\":6351:7048  function _getUnclaimedRewards(address user, DistributionTypes.UserStakeInput[] memory stakes)\r... */\n    tag_212:\n        /* \"contracts/Omnidex-incentives/incentives/base/DistributionManager.sol\":6483:6490  uint256 */\n      0x00\n        /* \"contracts/Omnidex-incentives/incentives/base/DistributionManager.sol\":6502:6524  uint256 accruedRewards */\n      dup1\n        /* \"contracts/Omnidex-incentives/incentives/base/DistributionManager.sol\":6527:6528  0 */\n      0x00\n        /* \"contracts/Omnidex-incentives/incentives/base/DistributionManager.sol\":6502:6528  uint256 accruedRewards = 0 */\n      swap1\n      pop\n        /* \"contracts/Omnidex-incentives/incentives/base/DistributionManager.sol\":6542:6551  uint256 i */\n      0x00\n        /* \"contracts/Omnidex-incentives/incentives/base/DistributionManager.sol\":6537:7015  for (uint256 i = 0; i < stakes.length; i++) {\r... */\n    tag_286:\n        /* \"contracts/Omnidex-incentives/incentives/base/DistributionManager.sol\":6561:6567  stakes */\n      dup4\n        /* \"contracts/Omnidex-incentives/incentives/base/DistributionManager.sol\":6561:6574  stakes.length */\n      mload\n        /* \"contracts/Omnidex-incentives/incentives/base/DistributionManager.sol\":6557:6558  i */\n      dup2\n        /* \"contracts/Omnidex-incentives/incentives/base/DistributionManager.sol\":6557:6574  i < stakes.length */\n      lt\n        /* \"contracts/Omnidex-incentives/incentives/base/DistributionManager.sol\":6537:7015  for (uint256 i = 0; i < stakes.length; i++) {\r... */\n      iszero\n      tag_287\n      jumpi\n        /* \"contracts/Omnidex-incentives/incentives/base/DistributionManager.sol\":6590:6619  AssetData storage assetConfig */\n      0x00\n        /* \"contracts/Omnidex-incentives/incentives/base/DistributionManager.sol\":6622:6628  assets */\n      0x33\n        /* \"contracts/Omnidex-incentives/incentives/base/DistributionManager.sol\":6622:6655  assets[stakes[i].underlyingAsset] */\n      0x00\n        /* \"contracts/Omnidex-incentives/incentives/base/DistributionManager.sol\":6629:6635  stakes */\n      dup7\n        /* \"contracts/Omnidex-incentives/incentives/base/DistributionManager.sol\":6636:6637  i */\n      dup5\n        /* \"contracts/Omnidex-incentives/incentives/base/DistributionManager.sol\":6629:6638  stakes[i] */\n      dup2\n      mload\n      dup2\n      lt\n      tag_289\n      jumpi\n      invalid\n    tag_289:\n      0x20\n      mul\n      0x20\n      add\n      add\n      mload\n        /* \"contracts/Omnidex-incentives/incentives/base/DistributionManager.sol\":6629:6654  stakes[i].underlyingAsset */\n      0x00\n      add\n      mload\n        /* \"contracts/Omnidex-incentives/incentives/base/DistributionManager.sol\":6622:6655  assets[stakes[i].underlyingAsset] */\n      0xffffffffffffffffffffffffffffffffffffffff\n      and\n      0xffffffffffffffffffffffffffffffffffffffff\n      and\n      dup2\n      mstore\n      0x20\n      add\n      swap1\n      dup2\n      mstore\n      0x20\n      add\n      0x00\n      keccak256\n        /* \"contracts/Omnidex-incentives/incentives/base/DistributionManager.sol\":6590:6655  AssetData storage assetConfig = assets[stakes[i].underlyingAsset] */\n      swap1\n      pop\n        /* \"contracts/Omnidex-incentives/incentives/base/DistributionManager.sol\":6664:6682  uint256 assetIndex */\n      0x00\n        /* \"contracts/Omnidex-incentives/incentives/base/DistributionManager.sol\":6694:6869  _getAssetIndex(\r... */\n      tag_290\n        /* \"contracts/Omnidex-incentives/incentives/base/DistributionManager.sol\":6721:6732  assetConfig */\n      dup3\n        /* \"contracts/Omnidex-incentives/incentives/base/DistributionManager.sol\":6721:6738  assetConfig.index */\n      0x00\n      add\n      0x0d\n      swap1\n      sload\n      swap1\n      0x0100\n      exp\n      swap1\n      div\n      0xffffffffffffffffffffffffff\n      and\n        /* \"contracts/Omnidex-incentives/incentives/base/DistributionManager.sol\":6694:6869  _getAssetIndex(\r... */\n      0xffffffffffffffffffffffffff\n      and\n        /* \"contracts/Omnidex-incentives/incentives/base/DistributionManager.sol\":6751:6762  assetConfig */\n      dup4\n        /* \"contracts/Omnidex-incentives/incentives/base/DistributionManager.sol\":6751:6780  assetConfig.emissionPerSecond */\n      0x00\n      add\n      0x00\n      swap1\n      sload\n      swap1\n      0x0100\n      exp\n      swap1\n      div\n      0xffffffffffffffffffffffffff\n      and\n        /* \"contracts/Omnidex-incentives/incentives/base/DistributionManager.sol\":6694:6869  _getAssetIndex(\r... */\n      0xffffffffffffffffffffffffff\n      and\n        /* \"contracts/Omnidex-incentives/incentives/base/DistributionManager.sol\":6793:6804  assetConfig */\n      dup5\n        /* \"contracts/Omnidex-incentives/incentives/base/DistributionManager.sol\":6793:6824  assetConfig.lastUpdateTimestamp */\n      0x00\n      add\n      0x1a\n      swap1\n      sload\n      swap1\n      0x0100\n      exp\n      swap1\n      div\n      0xffffffffff\n      and\n        /* \"contracts/Omnidex-incentives/incentives/base/DistributionManager.sol\":6694:6869  _getAssetIndex(\r... */\n      0xffffffffff\n      and\n        /* \"contracts/Omnidex-incentives/incentives/base/DistributionManager.sol\":6837:6843  stakes */\n      dup10\n        /* \"contracts/Omnidex-incentives/incentives/base/DistributionManager.sol\":6844:6845  i */\n      dup8\n        /* \"contracts/Omnidex-incentives/incentives/base/DistributionManager.sol\":6837:6846  stakes[i] */\n      dup2\n      mload\n      dup2\n      lt\n      tag_291\n      jumpi\n      invalid\n    tag_291:\n      0x20\n      mul\n      0x20\n      add\n      add\n      mload\n        /* \"contracts/Omnidex-incentives/incentives/base/DistributionManager.sol\":6837:6858  stakes[i].totalStaked */\n      0x40\n      add\n      mload\n        /* \"contracts/Omnidex-incentives/incentives/base/DistributionManager.sol\":6694:6708  _getAssetIndex */\n      tag_292\n        /* \"contracts/Omnidex-incentives/incentives/base/DistributionManager.sol\":6694:6869  _getAssetIndex(\r... */\n      jump\t// in\n    tag_290:\n        /* \"contracts/Omnidex-incentives/incentives/base/DistributionManager.sol\":6664:6869  uint256 assetIndex =\r... */\n      swap1\n      pop\n        /* \"contracts/Omnidex-incentives/incentives/base/DistributionManager.sol\":6897:7007  accruedRewards.add(\r... */\n      tag_293\n        /* \"contracts/Omnidex-incentives/incentives/base/DistributionManager.sol\":6926:6998  _getRewards(stakes[i].stakedByUser, assetIndex, assetConfig.users[user]) */\n      tag_294\n        /* \"contracts/Omnidex-incentives/incentives/base/DistributionManager.sol\":6938:6944  stakes */\n      dup8\n        /* \"contracts/Omnidex-incentives/incentives/base/DistributionManager.sol\":6945:6946  i */\n      dup6\n        /* \"contracts/Omnidex-incentives/incentives/base/DistributionManager.sol\":6938:6947  stakes[i] */\n      dup2\n      mload\n      dup2\n      lt\n      tag_295\n      jumpi\n      invalid\n    tag_295:\n      0x20\n      mul\n      0x20\n      add\n      add\n      mload\n        /* \"contracts/Omnidex-incentives/incentives/base/DistributionManager.sol\":6938:6960  stakes[i].stakedByUser */\n      0x20\n      add\n      mload\n        /* \"contracts/Omnidex-incentives/incentives/base/DistributionManager.sol\":6962:6972  assetIndex */\n      dup4\n        /* \"contracts/Omnidex-incentives/incentives/base/DistributionManager.sol\":6974:6985  assetConfig */\n      dup6\n        /* \"contracts/Omnidex-incentives/incentives/base/DistributionManager.sol\":6974:6991  assetConfig.users */\n      0x01\n      add\n        /* \"contracts/Omnidex-incentives/incentives/base/DistributionManager.sol\":6974:6997  assetConfig.users[user] */\n      0x00\n        /* \"contracts/Omnidex-incentives/incentives/base/DistributionManager.sol\":6992:6996  user */\n      dup13\n        /* \"contracts/Omnidex-incentives/incentives/base/DistributionManager.sol\":6974:6997  assetConfig.users[user] */\n      0xffffffffffffffffffffffffffffffffffffffff\n      and\n      0xffffffffffffffffffffffffffffffffffffffff\n      and\n      dup2\n      mstore\n      0x20\n      add\n      swap1\n      dup2\n      mstore\n      0x20\n      add\n      0x00\n      keccak256\n      sload\n        /* \"contracts/Omnidex-incentives/incentives/base/DistributionManager.sol\":6926:6937  _getRewards */\n      tag_268\n        /* \"contracts/Omnidex-incentives/incentives/base/DistributionManager.sol\":6926:6998  _getRewards(stakes[i].stakedByUser, assetIndex, assetConfig.users[user]) */\n      jump\t// in\n    tag_294:\n        /* \"contracts/Omnidex-incentives/incentives/base/DistributionManager.sol\":6897:6911  accruedRewards */\n      dup6\n        /* \"contracts/Omnidex-incentives/incentives/base/DistributionManager.sol\":6897:6915  accruedRewards.add */\n      tag_130\n      swap1\n        /* \"contracts/Omnidex-incentives/incentives/base/DistributionManager.sol\":6897:7007  accruedRewards.add(\r... */\n      swap2\n      swap1\n      0xffffffff\n      and\n      jump\t// in\n    tag_293:\n        /* \"contracts/Omnidex-incentives/incentives/base/DistributionManager.sol\":6880:7007  accruedRewards = accruedRewards.add(\r... */\n      swap4\n      pop\n        /* \"contracts/Omnidex-incentives/incentives/base/DistributionManager.sol\":6537:7015  for (uint256 i = 0; i < stakes.length; i++) {\r... */\n      pop\n      pop\n        /* \"contracts/Omnidex-incentives/incentives/base/DistributionManager.sol\":6576:6579  i++ */\n      dup1\n      dup1\n      0x01\n      add\n      swap2\n      pop\n      pop\n        /* \"contracts/Omnidex-incentives/incentives/base/DistributionManager.sol\":6537:7015  for (uint256 i = 0; i < stakes.length; i++) {\r... */\n      jump(tag_286)\n    tag_287:\n      pop\n        /* \"contracts/Omnidex-incentives/incentives/base/DistributionManager.sol\":7028:7042  accruedRewards */\n      dup1\n        /* \"contracts/Omnidex-incentives/incentives/base/DistributionManager.sol\":7021:7042  return accruedRewards */\n      swap2\n      pop\n      pop\n        /* \"contracts/Omnidex-incentives/incentives/base/DistributionManager.sol\":6351:7048  function _getUnclaimedRewards(address user, DistributionTypes.UserStakeInput[] memory stakes)\r... */\n      swap3\n      swap2\n      pop\n      pop\n      jump\t// out\n        /* \"contracts/Omnidex-incentives/incentives/base/BaseIncentivesController.sol\":5452:5544  function getRevision() internal pure override returns (uint256) {\r... */\n    tag_216:\n        /* \"contracts/Omnidex-incentives/incentives/base/BaseIncentivesController.sol\":5507:5514  uint256 */\n      0x00\n        /* \"contracts/Omnidex-incentives/incentives/base/BaseIncentivesController.sol\":1018:1019  1 */\n      0x01\n        /* \"contracts/Omnidex-incentives/incentives/base/BaseIncentivesController.sol\":5523:5538  return REVISION */\n      swap1\n      pop\n        /* \"contracts/Omnidex-incentives/incentives/base/BaseIncentivesController.sol\":5452:5544  function getRevision() internal pure override returns (uint256) {\r... */\n      swap1\n      jump\t// out\n        /* \"contracts/Omnidex-incentives/incentives/base/DistributionManager.sol\":5591:6070  function _claimRewards(address user, DistributionTypes.UserStakeInput[] memory stakes)\r... */\n    tag_252:\n        /* \"contracts/Omnidex-incentives/incentives/base/DistributionManager.sol\":5706:5713  uint256 */\n      0x00\n        /* \"contracts/Omnidex-incentives/incentives/base/DistributionManager.sol\":5725:5747  uint256 accruedRewards */\n      dup1\n        /* \"contracts/Omnidex-incentives/incentives/base/DistributionManager.sol\":5750:5751  0 */\n      0x00\n        /* \"contracts/Omnidex-incentives/incentives/base/DistributionManager.sol\":5725:5751  uint256 accruedRewards = 0 */\n      swap1\n      pop\n        /* \"contracts/Omnidex-incentives/incentives/base/DistributionManager.sol\":5765:5774  uint256 i */\n      0x00\n        /* \"contracts/Omnidex-incentives/incentives/base/DistributionManager.sol\":5760:6035  for (uint256 i = 0; i < stakes.length; i++) {\r... */\n    tag_298:\n        /* \"contracts/Omnidex-incentives/incentives/base/DistributionManager.sol\":5784:5790  stakes */\n      dup4\n        /* \"contracts/Omnidex-incentives/incentives/base/DistributionManager.sol\":5784:5797  stakes.length */\n      mload\n        /* \"contracts/Omnidex-incentives/incentives/base/DistributionManager.sol\":5780:5781  i */\n      dup2\n        /* \"contracts/Omnidex-incentives/incentives/base/DistributionManager.sol\":5780:5797  i < stakes.length */\n      lt\n        /* \"contracts/Omnidex-incentives/incentives/base/DistributionManager.sol\":5760:6035  for (uint256 i = 0; i < stakes.length; i++) {\r... */\n      iszero\n      tag_299\n      jumpi\n        /* \"contracts/Omnidex-incentives/incentives/base/DistributionManager.sol\":5830:6027  accruedRewards.add(\r... */\n      tag_301\n        /* \"contracts/Omnidex-incentives/incentives/base/DistributionManager.sol\":5859:6018  _updateUserAssetInternal(\r... */\n      tag_302\n        /* \"contracts/Omnidex-incentives/incentives/base/DistributionManager.sol\":5896:5900  user */\n      dup7\n        /* \"contracts/Omnidex-incentives/incentives/base/DistributionManager.sol\":5913:5919  stakes */\n      dup7\n        /* \"contracts/Omnidex-incentives/incentives/base/DistributionManager.sol\":5920:5921  i */\n      dup5\n        /* \"contracts/Omnidex-incentives/incentives/base/DistributionManager.sol\":5913:5922  stakes[i] */\n      dup2\n      mload\n      dup2\n      lt\n      tag_303\n      jumpi\n      invalid\n    tag_303:\n      0x20\n      mul\n      0x20\n      add\n      add\n      mload\n        /* \"contracts/Omnidex-incentives/incentives/base/DistributionManager.sol\":5913:5938  stakes[i].underlyingAsset */\n      0x00\n      add\n      mload\n        /* \"contracts/Omnidex-incentives/incentives/base/DistributionManager.sol\":5951:5957  stakes */\n      dup8\n        /* \"contracts/Omnidex-incentives/incentives/base/DistributionManager.sol\":5958:5959  i */\n      dup6\n        /* \"contracts/Omnidex-incentives/incentives/base/DistributionManager.sol\":5951:5960  stakes[i] */\n      dup2\n      mload\n      dup2\n      lt\n      tag_304\n      jumpi\n      invalid\n    tag_304:\n      0x20\n      mul\n      0x20\n      add\n      add\n      mload\n        /* \"contracts/Omnidex-incentives/incentives/base/DistributionManager.sol\":5951:5973  stakes[i].stakedByUser */\n      0x20\n      add\n      mload\n        /* \"contracts/Omnidex-incentives/incentives/base/DistributionManager.sol\":5986:5992  stakes */\n      dup9\n        /* \"contracts/Omnidex-incentives/incentives/base/DistributionManager.sol\":5993:5994  i */\n      dup7\n        /* \"contracts/Omnidex-incentives/incentives/base/DistributionManager.sol\":5986:5995  stakes[i] */\n      dup2\n      mload\n      dup2\n      lt\n      tag_305\n      jumpi\n      invalid\n    tag_305:\n      0x20\n      mul\n      0x20\n      add\n      add\n      mload\n        /* \"contracts/Omnidex-incentives/incentives/base/DistributionManager.sol\":5986:6007  stakes[i].totalStaked */\n      0x40\n      add\n      mload\n        /* \"contracts/Omnidex-incentives/incentives/base/DistributionManager.sol\":5859:5883  _updateUserAssetInternal */\n      tag_127\n        /* \"contracts/Omnidex-incentives/incentives/base/DistributionManager.sol\":5859:6018  _updateUserAssetInternal(\r... */\n      jump\t// in\n    tag_302:\n        /* \"contracts/Omnidex-incentives/incentives/base/DistributionManager.sol\":5830:5844  accruedRewards */\n      dup4\n        /* \"contracts/Omnidex-incentives/incentives/base/DistributionManager.sol\":5830:5848  accruedRewards.add */\n      tag_130\n      swap1\n        /* \"contracts/Omnidex-incentives/incentives/base/DistributionManager.sol\":5830:6027  accruedRewards.add(\r... */\n      swap2\n      swap1\n      0xffffffff\n      and\n      jump\t// in\n    tag_301:\n        /* \"contracts/Omnidex-incentives/incentives/base/DistributionManager.sol\":5813:6027  accruedRewards = accruedRewards.add(\r... */\n      swap2\n      pop\n        /* \"contracts/Omnidex-incentives/incentives/base/DistributionManager.sol\":5799:5802  i++ */\n      dup1\n      dup1\n      0x01\n      add\n      swap2\n      pop\n      pop\n        /* \"contracts/Omnidex-incentives/incentives/base/DistributionManager.sol\":5760:6035  for (uint256 i = 0; i < stakes.length; i++) {\r... */\n      jump(tag_298)\n    tag_299:\n      pop\n        /* \"contracts/Omnidex-incentives/incentives/base/DistributionManager.sol\":6050:6064  accruedRewards */\n      dup1\n        /* \"contracts/Omnidex-incentives/incentives/base/DistributionManager.sol\":6043:6064  return accruedRewards */\n      swap2\n      pop\n      pop\n        /* \"contracts/Omnidex-incentives/incentives/base/DistributionManager.sol\":5591:6070  function _claimRewards(address user, DistributionTypes.UserStakeInput[] memory stakes)\r... */\n      swap3\n      swap2\n      pop\n      pop\n      jump\t// out\n        /* \"contracts/Omnidex-incentives/incentives/PullRewardsIncentivesController.sol\":1700:1849  function _transferRewards(address to, uint256 amount) internal override {\r... */\n    tag_260:\n        /* \"contracts/Omnidex-incentives/incentives/PullRewardsIncentivesController.sol\":1779:1843  IERC20(REWARD_TOKEN).safeTransferFrom(_rewardsVault, to, amount) */\n      tag_307\n        /* \"contracts/Omnidex-incentives/incentives/PullRewardsIncentivesController.sol\":1817:1830  _rewardsVault */\n      0x37\n      0x00\n      swap1\n      sload\n      swap1\n      0x0100\n      exp\n      swap1\n      div\n      0xffffffffffffffffffffffffffffffffffffffff\n      and\n        /* \"contracts/Omnidex-incentives/incentives/PullRewardsIncentivesController.sol\":1832:1834  to */\n      dup4\n        /* \"contracts/Omnidex-incentives/incentives/PullRewardsIncentivesController.sol\":1836:1842  amount */\n      dup4\n        /* \"contracts/Omnidex-incentives/incentives/PullRewardsIncentivesController.sol\":1786:1798  REWARD_TOKEN */\n      immutable(\"0xe229503fec190040ef38484d41ddb4c2fce10c1aa73d9d5bd832f8c76f44643b\")\n        /* \"contracts/Omnidex-incentives/incentives/PullRewardsIncentivesController.sol\":1779:1816  IERC20(REWARD_TOKEN).safeTransferFrom */\n      0xffffffffffffffffffffffffffffffffffffffff\n      and\n      tag_308\n      swap1\n        /* \"contracts/Omnidex-incentives/incentives/PullRewardsIncentivesController.sol\":1779:1843  IERC20(REWARD_TOKEN).safeTransferFrom(_rewardsVault, to, amount) */\n      swap4\n      swap3\n      swap2\n      swap1\n      0xffffffff\n      and\n      jump\t// in\n    tag_307:\n        /* \"contracts/Omnidex-incentives/incentives/PullRewardsIncentivesController.sol\":1700:1849  function _transferRewards(address to, uint256 amount) internal override {\r... */\n      pop\n      pop\n      jump\t// out\n        /* \"contracts/Omnidex-incentives/incentives/base/DistributionManager.sol\":3238:4201  function _updateAssetStateInternal(\r... */\n    tag_264:\n        /* \"contracts/Omnidex-incentives/incentives/base/DistributionManager.sol\":3378:3385  uint256 */\n      0x00\n        /* \"contracts/Omnidex-incentives/incentives/base/DistributionManager.sol\":3394:3410  uint256 oldIndex */\n      dup1\n        /* \"contracts/Omnidex-incentives/incentives/base/DistributionManager.sol\":3413:3424  assetConfig */\n      dup4\n        /* \"contracts/Omnidex-incentives/incentives/base/DistributionManager.sol\":3413:3430  assetConfig.index */\n      0x00\n      add\n      0x0d\n      swap1\n      sload\n      swap1\n      0x0100\n      exp\n      swap1\n      div\n      0xffffffffffffffffffffffffff\n      and\n        /* \"contracts/Omnidex-incentives/incentives/base/DistributionManager.sol\":3394:3430  uint256 oldIndex = assetConfig.index */\n      0xffffffffffffffffffffffffff\n      and\n      swap1\n      pop\n        /* \"contracts/Omnidex-incentives/incentives/base/DistributionManager.sol\":3437:3462  uint256 emissionPerSecond */\n      0x00\n        /* \"contracts/Omnidex-incentives/incentives/base/DistributionManager.sol\":3465:3476  assetConfig */\n      dup5\n        /* \"contracts/Omnidex-incentives/incentives/base/DistributionManager.sol\":3465:3494  assetConfig.emissionPerSecond */\n      0x00\n      add\n      0x00\n      swap1\n      sload\n      swap1\n      0x0100\n      exp\n      swap1\n      div\n      0xffffffffffffffffffffffffff\n      and\n        /* \"contracts/Omnidex-incentives/incentives/base/DistributionManager.sol\":3437:3494  uint256 emissionPerSecond = assetConfig.emissionPerSecond */\n      0xffffffffffffffffffffffffff\n      and\n      swap1\n      pop\n        /* \"contracts/Omnidex-incentives/incentives/base/DistributionManager.sol\":3501:3528  uint128 lastUpdateTimestamp */\n      0x00\n        /* \"contracts/Omnidex-incentives/incentives/base/DistributionManager.sol\":3531:3542  assetConfig */\n      dup6\n        /* \"contracts/Omnidex-incentives/incentives/base/DistributionManager.sol\":3531:3562  assetConfig.lastUpdateTimestamp */\n      0x00\n      add\n      0x1a\n      swap1\n      sload\n      swap1\n      0x0100\n      exp\n      swap1\n      div\n      0xffffffffff\n      and\n        /* \"contracts/Omnidex-incentives/incentives/base/DistributionManager.sol\":3501:3562  uint128 lastUpdateTimestamp = assetConfig.lastUpdateTimestamp */\n      0xffffffffff\n      and\n      swap1\n      pop\n        /* \"contracts/Omnidex-incentives/incentives/base/DistributionManager.sol\":3594:3613  lastUpdateTimestamp */\n      dup1\n        /* \"contracts/Omnidex-incentives/incentives/base/DistributionManager.sol\":3575:3613  block.timestamp == lastUpdateTimestamp */\n      0xffffffffffffffffffffffffffffffff\n      and\n        /* \"contracts/Omnidex-incentives/incentives/base/DistributionManager.sol\":3575:3590  block.timestamp */\n      timestamp\n        /* \"contracts/Omnidex-incentives/incentives/base/DistributionManager.sol\":3575:3613  block.timestamp == lastUpdateTimestamp */\n      eq\n        /* \"contracts/Omnidex-incentives/incentives/base/DistributionManager.sol\":3571:3647  if (block.timestamp == lastUpdateTimestamp) {\r... */\n      iszero\n      tag_310\n      jumpi\n        /* \"contracts/Omnidex-incentives/incentives/base/DistributionManager.sol\":3631:3639  oldIndex */\n      dup3\n        /* \"contracts/Omnidex-incentives/incentives/base/DistributionManager.sol\":3624:3639  return oldIndex */\n      swap4\n      pop\n      pop\n      pop\n      pop\n      jump(tag_309)\n        /* \"contracts/Omnidex-incentives/incentives/base/DistributionManager.sol\":3571:3647  if (block.timestamp == lastUpdateTimestamp) {\r... */\n    tag_310:\n        /* \"contracts/Omnidex-incentives/incentives/base/DistributionManager.sol\":3655:3671  uint256 newIndex */\n      0x00\n        /* \"contracts/Omnidex-incentives/incentives/base/DistributionManager.sol\":3681:3758  _getAssetIndex(oldIndex, emissionPerSecond, lastUpdateTimestamp, totalStaked) */\n      tag_311\n        /* \"contracts/Omnidex-incentives/incentives/base/DistributionManager.sol\":3696:3704  oldIndex */\n      dup5\n        /* \"contracts/Omnidex-incentives/incentives/base/DistributionManager.sol\":3706:3723  emissionPerSecond */\n      dup5\n        /* \"contracts/Omnidex-incentives/incentives/base/DistributionManager.sol\":3725:3744  lastUpdateTimestamp */\n      dup5\n        /* \"contracts/Omnidex-incentives/incentives/base/DistributionManager.sol\":3746:3757  totalStaked */\n      dup10\n        /* \"contracts/Omnidex-incentives/incentives/base/DistributionManager.sol\":3681:3695  _getAssetIndex */\n      tag_292\n        /* \"contracts/Omnidex-incentives/incentives/base/DistributionManager.sol\":3681:3758  _getAssetIndex(oldIndex, emissionPerSecond, lastUpdateTimestamp, totalStaked) */\n      jump\t// in\n    tag_311:\n        /* \"contracts/Omnidex-incentives/incentives/base/DistributionManager.sol\":3655:3758  uint256 newIndex =\r... */\n      swap1\n      pop\n        /* \"contracts/Omnidex-incentives/incentives/base/DistributionManager.sol\":3783:3791  oldIndex */\n      dup4\n        /* \"contracts/Omnidex-incentives/incentives/base/DistributionManager.sol\":3771:3779  newIndex */\n      dup2\n        /* \"contracts/Omnidex-incentives/incentives/base/DistributionManager.sol\":3771:3791  newIndex != oldIndex */\n      eq\n        /* \"contracts/Omnidex-incentives/incentives/base/DistributionManager.sol\":3767:4172  if (newIndex != oldIndex) {\r... */\n      tag_312\n      jumpi\n        /* \"contracts/Omnidex-incentives/incentives/base/DistributionManager.sol\":3831:3839  newIndex */\n      dup1\n        /* \"contracts/Omnidex-incentives/incentives/base/DistributionManager.sol\":3818:3826  newIndex */\n      dup2\n        /* \"contracts/Omnidex-incentives/incentives/base/DistributionManager.sol\":3810:3839  uint104(newIndex) == newIndex */\n      0xffffffffffffffffffffffffff\n      and\n      eq\n        /* \"contracts/Omnidex-incentives/incentives/base/DistributionManager.sol\":3802:3858  require(uint104(newIndex) == newIndex, 'Index overflow') */\n      tag_313\n      jumpi\n      mload(0x40)\n      0x08c379a000000000000000000000000000000000000000000000000000000000\n      dup2\n      mstore\n      0x04\n      add\n      tag_314\n      swap1\n      tag_315\n      jump\t// in\n    tag_314:\n      mload(0x40)\n      dup1\n      swap2\n      sub\n      swap1\n      revert\n    tag_313:\n        /* \"contracts/Omnidex-incentives/incentives/base/DistributionManager.sol\":3961:3969  newIndex */\n      dup1\n        /* \"contracts/Omnidex-incentives/incentives/base/DistributionManager.sol\":3933:3944  assetConfig */\n      dup8\n        /* \"contracts/Omnidex-incentives/incentives/base/DistributionManager.sol\":3933:3950  assetConfig.index */\n      0x00\n      add\n      0x0d\n        /* \"contracts/Omnidex-incentives/incentives/base/DistributionManager.sol\":3933:3970  assetConfig.index = uint104(newIndex) */\n      0x0100\n      exp\n      dup2\n      sload\n      dup2\n      0xffffffffffffffffffffffffff\n      mul\n      not\n      and\n      swap1\n      dup4\n      0xffffffffffffffffffffffffff\n      and\n      mul\n      or\n      swap1\n      sstore\n      pop\n        /* \"contracts/Omnidex-incentives/incentives/base/DistributionManager.sol\":4020:4035  block.timestamp */\n      timestamp\n        /* \"contracts/Omnidex-incentives/incentives/base/DistributionManager.sol\":3979:3990  assetConfig */\n      dup8\n        /* \"contracts/Omnidex-incentives/incentives/base/DistributionManager.sol\":3979:4010  assetConfig.lastUpdateTimestamp */\n      0x00\n      add\n      0x1a\n        /* \"contracts/Omnidex-incentives/incentives/base/DistributionManager.sol\":3979:4036  assetConfig.lastUpdateTimestamp = uint40(block.timestamp) */\n      0x0100\n      exp\n      dup2\n      sload\n      dup2\n      0xffffffffff\n      mul\n      not\n      and\n      swap1\n      dup4\n      0xffffffffff\n      and\n      mul\n      or\n      swap1\n      sstore\n      pop\n        /* \"contracts/Omnidex-incentives/incentives/base/DistributionManager.sol\":4068:4073  asset */\n      dup8\n        /* \"contracts/Omnidex-incentives/incentives/base/DistributionManager.sol\":4050:4084  AssetIndexUpdated(asset, newIndex) */\n      0xffffffffffffffffffffffffffffffffffffffff\n      and\n      0x5777ca300dfe5bead41006fbce4389794dbc0ed8d6cccebfaf94630aa04184bc\n        /* \"contracts/Omnidex-incentives/incentives/base/DistributionManager.sol\":4075:4083  newIndex */\n      dup3\n        /* \"contracts/Omnidex-incentives/incentives/base/DistributionManager.sol\":4050:4084  AssetIndexUpdated(asset, newIndex) */\n      mload(0x40)\n      tag_316\n      swap2\n      swap1\n      tag_38\n      jump\t// in\n    tag_316:\n      mload(0x40)\n      dup1\n      swap2\n      sub\n      swap1\n      log2\n        /* \"contracts/Omnidex-incentives/incentives/base/DistributionManager.sol\":3767:4172  if (newIndex != oldIndex) {\r... */\n      jump(tag_317)\n    tag_312:\n        /* \"contracts/Omnidex-incentives/incentives/base/DistributionManager.sol\":4148:4163  block.timestamp */\n      timestamp\n        /* \"contracts/Omnidex-incentives/incentives/base/DistributionManager.sol\":4107:4118  assetConfig */\n      dup8\n        /* \"contracts/Omnidex-incentives/incentives/base/DistributionManager.sol\":4107:4138  assetConfig.lastUpdateTimestamp */\n      0x00\n      add\n      0x1a\n        /* \"contracts/Omnidex-incentives/incentives/base/DistributionManager.sol\":4107:4164  assetConfig.lastUpdateTimestamp = uint40(block.timestamp) */\n      0x0100\n      exp\n      dup2\n      sload\n      dup2\n      0xffffffffff\n      mul\n      not\n      and\n      swap1\n      dup4\n      0xffffffffff\n      and\n      mul\n      or\n      swap1\n      sstore\n      pop\n        /* \"contracts/Omnidex-incentives/incentives/base/DistributionManager.sol\":3767:4172  if (newIndex != oldIndex) {\r... */\n    tag_317:\n        /* \"contracts/Omnidex-incentives/incentives/base/DistributionManager.sol\":4187:4195  newIndex */\n      dup1\n        /* \"contracts/Omnidex-incentives/incentives/base/DistributionManager.sol\":4180:4195  return newIndex */\n      swap5\n      pop\n      pop\n      pop\n      pop\n      pop\n        /* \"contracts/Omnidex-incentives/incentives/base/DistributionManager.sol\":3238:4201  function _updateAssetStateInternal(\r... */\n    tag_309:\n      swap4\n      swap3\n      pop\n      pop\n      pop\n      jump\t// out\n        /* \"contracts/Omnidex-incentives/incentives/base/DistributionManager.sol\":7402:7644  function _getRewards(\r... */\n    tag_268:\n        /* \"contracts/Omnidex-incentives/incentives/base/DistributionManager.sol\":7537:7544  uint256 */\n      0x00\n        /* \"contracts/Omnidex-incentives/incentives/base/DistributionManager.sol\":783:785  18 */\n      0x12\n        /* \"contracts/Omnidex-incentives/incentives/base/DistributionManager.sol\":7620:7638  uint256(PRECISION) */\n      0xff\n      and\n        /* \"contracts/Omnidex-incentives/incentives/base/DistributionManager.sol\":7616:7618  10 */\n      0x0a\n        /* \"contracts/Omnidex-incentives/incentives/base/DistributionManager.sol\":7616:7638  10**uint256(PRECISION) */\n      exp\n        /* \"contracts/Omnidex-incentives/incentives/base/DistributionManager.sol\":7560:7613  principalUserBalance.mul(reserveIndex.sub(userIndex)) */\n      tag_319\n        /* \"contracts/Omnidex-incentives/incentives/base/DistributionManager.sol\":7585:7612  reserveIndex.sub(userIndex) */\n      tag_320\n        /* \"contracts/Omnidex-incentives/incentives/base/DistributionManager.sol\":7602:7611  userIndex */\n      dup5\n        /* \"contracts/Omnidex-incentives/incentives/base/DistributionManager.sol\":7585:7597  reserveIndex */\n      dup7\n        /* \"contracts/Omnidex-incentives/incentives/base/DistributionManager.sol\":7585:7601  reserveIndex.sub */\n      tag_321\n      swap1\n        /* \"contracts/Omnidex-incentives/incentives/base/DistributionManager.sol\":7585:7612  reserveIndex.sub(userIndex) */\n      swap2\n      swap1\n      0xffffffff\n      and\n      jump\t// in\n    tag_320:\n        /* \"contracts/Omnidex-incentives/incentives/base/DistributionManager.sol\":7560:7580  principalUserBalance */\n      dup7\n        /* \"contracts/Omnidex-incentives/incentives/base/DistributionManager.sol\":7560:7584  principalUserBalance.mul */\n      tag_322\n      swap1\n        /* \"contracts/Omnidex-incentives/incentives/base/DistributionManager.sol\":7560:7613  principalUserBalance.mul(reserveIndex.sub(userIndex)) */\n      swap2\n      swap1\n      0xffffffff\n      and\n      jump\t// in\n    tag_319:\n        /* \"contracts/Omnidex-incentives/incentives/base/DistributionManager.sol\":7560:7638  principalUserBalance.mul(reserveIndex.sub(userIndex)) / 10**uint256(PRECISION) */\n      dup2\n      tag_323\n      jumpi\n      invalid\n    tag_323:\n      div\n        /* \"contracts/Omnidex-incentives/incentives/base/DistributionManager.sol\":7553:7638  return principalUserBalance.mul(reserveIndex.sub(userIndex)) / 10**uint256(PRECISION) */\n      swap1\n      pop\n        /* \"contracts/Omnidex-incentives/incentives/base/DistributionManager.sol\":7402:7644  function _getRewards(\r... */\n      swap4\n      swap3\n      pop\n      pop\n      pop\n      jump\t// out\n        /* \"contracts/Omnidex-incentives/incentives/base/DistributionManager.sol\":8107:8868  function _getAssetIndex(\r... */\n    tag_292:\n        /* \"contracts/Omnidex-incentives/incentives/base/DistributionManager.sol\":8279:8286  uint256 */\n      0x00\n        /* \"contracts/Omnidex-incentives/incentives/base/DistributionManager.sol\":8295:8318  uint256 distributionEnd */\n      dup1\n        /* \"contracts/Omnidex-incentives/incentives/base/DistributionManager.sol\":8321:8337  _distributionEnd */\n      sload(0x34)\n        /* \"contracts/Omnidex-incentives/incentives/base/DistributionManager.sol\":8295:8337  uint256 distributionEnd = _distributionEnd */\n      swap1\n      pop\n        /* \"contracts/Omnidex-incentives/incentives/base/DistributionManager.sol\":8377:8378  0 */\n      0x00\n        /* \"contracts/Omnidex-incentives/incentives/base/DistributionManager.sol\":8356:8373  emissionPerSecond */\n      dup6\n        /* \"contracts/Omnidex-incentives/incentives/base/DistributionManager.sol\":8356:8378  emissionPerSecond == 0 */\n      eq\n        /* \"contracts/Omnidex-incentives/incentives/base/DistributionManager.sol\":8356:8406  emissionPerSecond == 0 ||\r... */\n      dup1\n      tag_325\n      jumpi\n      pop\n        /* \"contracts/Omnidex-incentives/incentives/base/DistributionManager.sol\":8405:8406  0 */\n      0x00\n        /* \"contracts/Omnidex-incentives/incentives/base/DistributionManager.sol\":8389:8401  totalBalance */\n      dup4\n        /* \"contracts/Omnidex-incentives/incentives/base/DistributionManager.sol\":8389:8406  totalBalance == 0 */\n      eq\n        /* \"contracts/Omnidex-incentives/incentives/base/DistributionManager.sol\":8356:8406  emissionPerSecond == 0 ||\r... */\n    tag_325:\n        /* \"contracts/Omnidex-incentives/incentives/base/DistributionManager.sol\":8356:8455  emissionPerSecond == 0 ||\r... */\n      dup1\n      tag_326\n      jumpi\n      pop\n        /* \"contracts/Omnidex-incentives/incentives/base/DistributionManager.sol\":8440:8455  block.timestamp */\n      timestamp\n        /* \"contracts/Omnidex-incentives/incentives/base/DistributionManager.sol\":8417:8436  lastUpdateTimestamp */\n      dup5\n        /* \"contracts/Omnidex-incentives/incentives/base/DistributionManager.sol\":8417:8455  lastUpdateTimestamp == block.timestamp */\n      0xffffffffffffffffffffffffffffffff\n      and\n      eq\n        /* \"contracts/Omnidex-incentives/incentives/base/DistributionManager.sol\":8356:8455  emissionPerSecond == 0 ||\r... */\n    tag_326:\n        /* \"contracts/Omnidex-incentives/incentives/base/DistributionManager.sol\":8356:8504  emissionPerSecond == 0 ||\r... */\n      dup1\n      tag_327\n      jumpi\n      pop\n        /* \"contracts/Omnidex-incentives/incentives/base/DistributionManager.sol\":8489:8504  distributionEnd */\n      dup1\n        /* \"contracts/Omnidex-incentives/incentives/base/DistributionManager.sol\":8466:8485  lastUpdateTimestamp */\n      dup5\n        /* \"contracts/Omnidex-incentives/incentives/base/DistributionManager.sol\":8466:8504  lastUpdateTimestamp >= distributionEnd */\n      0xffffffffffffffffffffffffffffffff\n      and\n      lt\n      iszero\n        /* \"contracts/Omnidex-incentives/incentives/base/DistributionManager.sol\":8356:8504  emissionPerSecond == 0 ||\r... */\n    tag_327:\n        /* \"contracts/Omnidex-incentives/incentives/base/DistributionManager.sol\":8344:8548  if (\r... */\n      iszero\n      tag_328\n      jumpi\n        /* \"contracts/Omnidex-incentives/incentives/base/DistributionManager.sol\":8528:8540  currentIndex */\n      dup6\n        /* \"contracts/Omnidex-incentives/incentives/base/DistributionManager.sol\":8521:8540  return currentIndex */\n      swap2\n      pop\n      pop\n      jump(tag_324)\n        /* \"contracts/Omnidex-incentives/incentives/base/DistributionManager.sol\":8344:8548  if (\r... */\n    tag_328:\n        /* \"contracts/Omnidex-incentives/incentives/base/DistributionManager.sol\":8556:8580  uint256 currentTimestamp */\n      0x00\n        /* \"contracts/Omnidex-incentives/incentives/base/DistributionManager.sol\":8608:8623  distributionEnd */\n      dup2\n        /* \"contracts/Omnidex-incentives/incentives/base/DistributionManager.sol\":8590:8605  block.timestamp */\n      timestamp\n        /* \"contracts/Omnidex-incentives/incentives/base/DistributionManager.sol\":8590:8623  block.timestamp > distributionEnd */\n      gt\n        /* \"contracts/Omnidex-incentives/incentives/base/DistributionManager.sol\":8590:8659  block.timestamp > distributionEnd ? distributionEnd : block.timestamp */\n      tag_329\n      jumpi\n        /* \"contracts/Omnidex-incentives/incentives/base/DistributionManager.sol\":8644:8659  block.timestamp */\n      timestamp\n        /* \"contracts/Omnidex-incentives/incentives/base/DistributionManager.sol\":8590:8659  block.timestamp > distributionEnd ? distributionEnd : block.timestamp */\n      jump(tag_330)\n    tag_329:\n        /* \"contracts/Omnidex-incentives/incentives/base/DistributionManager.sol\":8626:8641  distributionEnd */\n      dup2\n        /* \"contracts/Omnidex-incentives/incentives/base/DistributionManager.sol\":8590:8659  block.timestamp > distributionEnd ? distributionEnd : block.timestamp */\n    tag_330:\n        /* \"contracts/Omnidex-incentives/incentives/base/DistributionManager.sol\":8556:8659  uint256 currentTimestamp =\r... */\n      swap1\n      pop\n        /* \"contracts/Omnidex-incentives/incentives/base/DistributionManager.sol\":8666:8683  uint256 timeDelta */\n      0x00\n        /* \"contracts/Omnidex-incentives/incentives/base/DistributionManager.sol\":8686:8727  currentTimestamp.sub(lastUpdateTimestamp) */\n      tag_331\n        /* \"contracts/Omnidex-incentives/incentives/base/DistributionManager.sol\":8707:8726  lastUpdateTimestamp */\n      dup7\n        /* \"contracts/Omnidex-incentives/incentives/base/DistributionManager.sol\":8686:8727  currentTimestamp.sub(lastUpdateTimestamp) */\n      0xffffffffffffffffffffffffffffffff\n      and\n        /* \"contracts/Omnidex-incentives/incentives/base/DistributionManager.sol\":8686:8702  currentTimestamp */\n      dup4\n        /* \"contracts/Omnidex-incentives/incentives/base/DistributionManager.sol\":8686:8706  currentTimestamp.sub */\n      tag_321\n      swap1\n        /* \"contracts/Omnidex-incentives/incentives/base/DistributionManager.sol\":8686:8727  currentTimestamp.sub(lastUpdateTimestamp) */\n      swap2\n      swap1\n      0xffffffff\n      and\n      jump\t// in\n    tag_331:\n        /* \"contracts/Omnidex-incentives/incentives/base/DistributionManager.sol\":8666:8727  uint256 timeDelta = currentTimestamp.sub(lastUpdateTimestamp) */\n      swap1\n      pop\n        /* \"contracts/Omnidex-incentives/incentives/base/DistributionManager.sol\":8748:8862  emissionPerSecond.mul(timeDelta).mul(10**uint256(PRECISION)).div(totalBalance).add(\r... */\n      tag_332\n        /* \"contracts/Omnidex-incentives/incentives/base/DistributionManager.sol\":8841:8853  currentIndex */\n      dup9\n        /* \"contracts/Omnidex-incentives/incentives/base/DistributionManager.sol\":8748:8826  emissionPerSecond.mul(timeDelta).mul(10**uint256(PRECISION)).div(totalBalance) */\n      tag_333\n        /* \"contracts/Omnidex-incentives/incentives/base/DistributionManager.sol\":8813:8825  totalBalance */\n      dup8\n        /* \"contracts/Omnidex-incentives/incentives/base/DistributionManager.sol\":8748:8808  emissionPerSecond.mul(timeDelta).mul(10**uint256(PRECISION)) */\n      tag_334\n        /* \"contracts/Omnidex-incentives/incentives/base/DistributionManager.sol\":783:785  18 */\n      0x12\n        /* \"contracts/Omnidex-incentives/incentives/base/DistributionManager.sol\":8789:8807  uint256(PRECISION) */\n      0xff\n      and\n        /* \"contracts/Omnidex-incentives/incentives/base/DistributionManager.sol\":8785:8787  10 */\n      0x0a\n        /* \"contracts/Omnidex-incentives/incentives/base/DistributionManager.sol\":8785:8807  10**uint256(PRECISION) */\n      exp\n        /* \"contracts/Omnidex-incentives/incentives/base/DistributionManager.sol\":8748:8780  emissionPerSecond.mul(timeDelta) */\n      tag_335\n        /* \"contracts/Omnidex-incentives/incentives/base/DistributionManager.sol\":8770:8779  timeDelta */\n      dup8\n        /* \"contracts/Omnidex-incentives/incentives/base/DistributionManager.sol\":8748:8765  emissionPerSecond */\n      dup15\n        /* \"contracts/Omnidex-incentives/incentives/base/DistributionManager.sol\":8748:8769  emissionPerSecond.mul */\n      tag_322\n      swap1\n        /* \"contracts/Omnidex-incentives/incentives/base/DistributionManager.sol\":8748:8780  emissionPerSecond.mul(timeDelta) */\n      swap2\n      swap1\n      0xffffffff\n      and\n      jump\t// in\n    tag_335:\n        /* \"contracts/Omnidex-incentives/incentives/base/DistributionManager.sol\":8748:8784  emissionPerSecond.mul(timeDelta).mul */\n      tag_322\n      swap1\n        /* \"contracts/Omnidex-incentives/incentives/base/DistributionManager.sol\":8748:8808  emissionPerSecond.mul(timeDelta).mul(10**uint256(PRECISION)) */\n      swap2\n      swap1\n      0xffffffff\n      and\n      jump\t// in\n    tag_334:\n        /* \"contracts/Omnidex-incentives/incentives/base/DistributionManager.sol\":8748:8812  emissionPerSecond.mul(timeDelta).mul(10**uint256(PRECISION)).div */\n      tag_336\n      swap1\n        /* \"contracts/Omnidex-incentives/incentives/base/DistributionManager.sol\":8748:8826  emissionPerSecond.mul(timeDelta).mul(10**uint256(PRECISION)).div(totalBalance) */\n      swap2\n      swap1\n      0xffffffff\n      and\n      jump\t// in\n    tag_333:\n        /* \"contracts/Omnidex-incentives/incentives/base/DistributionManager.sol\":8748:8830  emissionPerSecond.mul(timeDelta).mul(10**uint256(PRECISION)).div(totalBalance).add */\n      tag_130\n      swap1\n        /* \"contracts/Omnidex-incentives/incentives/base/DistributionManager.sol\":8748:8862  emissionPerSecond.mul(timeDelta).mul(10**uint256(PRECISION)).div(totalBalance).add(\r... */\n      swap2\n      swap1\n      0xffffffff\n      and\n      jump\t// in\n    tag_332:\n        /* \"contracts/Omnidex-incentives/incentives/base/DistributionManager.sol\":8734:8862  return\r... */\n      swap4\n      pop\n      pop\n      pop\n      pop\n        /* \"contracts/Omnidex-incentives/incentives/base/DistributionManager.sol\":8107:8868  function _getAssetIndex(\r... */\n    tag_324:\n      swap5\n      swap4\n      pop\n      pop\n      pop\n      pop\n      jump\t// out\n        /* \"@aave/aave-stake/contracts/lib/SafeERC20.sol\":978:1194  function safeTransferFrom(... */\n    tag_308:\n        /* \"@aave/aave-stake/contracts/lib/SafeERC20.sol\":1094:1189  callOptionalReturn(token, abi.encodeWithSelector(token.transferFrom.selector, from, to, value)) */\n      tag_338\n        /* \"@aave/aave-stake/contracts/lib/SafeERC20.sol\":1113:1118  token */\n      dup5\n        /* \"@aave/aave-stake/contracts/lib/SafeERC20.sol\":1143:1170  token.transferFrom.selector */\n      shl(0xe0, 0x23b872dd)\n        /* \"@aave/aave-stake/contracts/lib/SafeERC20.sol\":1172:1176  from */\n      dup6\n        /* \"@aave/aave-stake/contracts/lib/SafeERC20.sol\":1178:1180  to */\n      dup6\n        /* \"@aave/aave-stake/contracts/lib/SafeERC20.sol\":1182:1187  value */\n      dup6\n        /* \"@aave/aave-stake/contracts/lib/SafeERC20.sol\":1120:1188  abi.encodeWithSelector(token.transferFrom.selector, from, to, value) */\n      add(0x24, mload(0x40))\n      dup1\n      dup5\n      0xffffffffffffffffffffffffffffffffffffffff\n      and\n      dup2\n      mstore\n      0x20\n      add\n      dup4\n      0xffffffffffffffffffffffffffffffffffffffff\n      and\n      dup2\n      mstore\n      0x20\n      add\n      dup3\n      dup2\n      mstore\n      0x20\n      add\n      swap4\n      pop\n      pop\n      pop\n      pop\n      mload(0x40)\n      0x20\n      dup2\n      dup4\n      sub\n      sub\n      dup2\n      mstore\n      swap1\n      0x40\n      mstore\n      swap1\n      not(0xffffffffffffffffffffffffffffffffffffffffffffffffffffffff)\n      and\n      0x20\n      dup3\n      add\n      dup1\n      mload\n      0xffffffffffffffffffffffffffffffffffffffffffffffffffffffff\n      dup4\n      dup2\n      dup4\n      and\n      or\n      dup4\n      mstore\n      pop\n      pop\n      pop\n      pop\n        /* \"@aave/aave-stake/contracts/lib/SafeERC20.sol\":1094:1112  callOptionalReturn */\n      tag_339\n        /* \"@aave/aave-stake/contracts/lib/SafeERC20.sol\":1094:1189  callOptionalReturn(token, abi.encodeWithSelector(token.transferFrom.selector, from, to, value)) */\n      jump\t// in\n    tag_338:\n        /* \"@aave/aave-stake/contracts/lib/SafeERC20.sol\":978:1194  function safeTransferFrom(... */\n      pop\n      pop\n      pop\n      pop\n      jump\t// out\n        /* \"contracts/Omnidex-incentives/lib/SafeMath.sol\":743:856  function sub(uint256 x, uint256 y) internal pure returns (uint256 z) {\r... */\n    tag_321:\n        /* \"contracts/Omnidex-incentives/lib/SafeMath.sol\":801:810  uint256 z */\n      0x00\n        /* \"contracts/Omnidex-incentives/lib/SafeMath.sol\":846:847  x */\n      dup3\n        /* \"contracts/Omnidex-incentives/lib/SafeMath.sol\":840:841  y */\n      dup3\n        /* \"contracts/Omnidex-incentives/lib/SafeMath.sol\":836:837  x */\n      dup5\n        /* \"contracts/Omnidex-incentives/lib/SafeMath.sol\":836:841  x - y */\n      sub\n        /* \"contracts/Omnidex-incentives/lib/SafeMath.sol\":832:841  z = x - y */\n      swap2\n      pop\n      dup2\n        /* \"contracts/Omnidex-incentives/lib/SafeMath.sol\":831:847  (z = x - y) <= x */\n      gt\n      iszero\n        /* \"contracts/Omnidex-incentives/lib/SafeMath.sol\":823:848  require((z = x - y) <= x) */\n      tag_341\n      jumpi\n      0x00\n      dup1\n      revert\n    tag_341:\n        /* \"contracts/Omnidex-incentives/lib/SafeMath.sol\":743:856  function sub(uint256 x, uint256 y) internal pure returns (uint256 z) {\r... */\n      swap3\n      swap2\n      pop\n      pop\n      jump\t// out\n        /* \"contracts/Omnidex-incentives/lib/SafeMath.sol\":1027:1154  function mul(uint256 x, uint256 y) internal pure returns (uint256 z) {\r... */\n    tag_322:\n        /* \"contracts/Omnidex-incentives/lib/SafeMath.sol\":1085:1094  uint256 z */\n      0x00\n        /* \"contracts/Omnidex-incentives/lib/SafeMath.sol\":1120:1121  0 */\n      dup1\n        /* \"contracts/Omnidex-incentives/lib/SafeMath.sol\":1115:1116  x */\n      dup4\n        /* \"contracts/Omnidex-incentives/lib/SafeMath.sol\":1115:1121  x == 0 */\n      eq\n        /* \"contracts/Omnidex-incentives/lib/SafeMath.sol\":1115:1145  x == 0 || (z = x * y) / x == y */\n      dup1\n      tag_343\n      jumpi\n      pop\n        /* \"contracts/Omnidex-incentives/lib/SafeMath.sol\":1144:1145  y */\n      dup2\n        /* \"contracts/Omnidex-incentives/lib/SafeMath.sol\":1139:1140  x */\n      dup4\n        /* \"contracts/Omnidex-incentives/lib/SafeMath.sol\":1134:1135  y */\n      dup4\n        /* \"contracts/Omnidex-incentives/lib/SafeMath.sol\":1130:1131  x */\n      dup6\n        /* \"contracts/Omnidex-incentives/lib/SafeMath.sol\":1130:1135  x * y */\n      mul\n        /* \"contracts/Omnidex-incentives/lib/SafeMath.sol\":1126:1135  z = x * y */\n      swap3\n      pop\n      dup3\n        /* \"contracts/Omnidex-incentives/lib/SafeMath.sol\":1125:1140  (z = x * y) / x */\n      dup2\n      tag_344\n      jumpi\n      invalid\n    tag_344:\n      div\n        /* \"contracts/Omnidex-incentives/lib/SafeMath.sol\":1125:1145  (z = x * y) / x == y */\n      eq\n        /* \"contracts/Omnidex-incentives/lib/SafeMath.sol\":1115:1145  x == 0 || (z = x * y) / x == y */\n    tag_343:\n        /* \"contracts/Omnidex-incentives/lib/SafeMath.sol\":1107:1146  require(x == 0 || (z = x * y) / x == y) */\n      tag_345\n      jumpi\n      0x00\n      dup1\n      revert\n    tag_345:\n        /* \"contracts/Omnidex-incentives/lib/SafeMath.sol\":1027:1154  function mul(uint256 x, uint256 y) internal pure returns (uint256 z) {\r... */\n      swap3\n      swap2\n      pop\n      pop\n      jump\t// out\n        /* \"contracts/Omnidex-incentives/lib/SafeMath.sol\":1162:1336  function div(uint256 x, uint256 y) internal pure returns(uint256) {\r... */\n    tag_336:\n        /* \"contracts/Omnidex-incentives/lib/SafeMath.sol\":1219:1226  uint256 */\n      0x00\n        /* \"contracts/Omnidex-incentives/lib/SafeMath.sol\":1327:1328  y */\n      dup2\n        /* \"contracts/Omnidex-incentives/lib/SafeMath.sol\":1323:1324  x */\n      dup4\n        /* \"contracts/Omnidex-incentives/lib/SafeMath.sol\":1323:1328  x / y */\n      dup2\n      tag_347\n      jumpi\n      invalid\n    tag_347:\n      div\n        /* \"contracts/Omnidex-incentives/lib/SafeMath.sol\":1316:1328  return x / y */\n      swap1\n      pop\n        /* \"contracts/Omnidex-incentives/lib/SafeMath.sol\":1162:1336  function div(uint256 x, uint256 y) internal pure returns(uint256) {\r... */\n      swap3\n      swap2\n      pop\n      pop\n      jump\t// out\n        /* \"@aave/aave-stake/contracts/lib/SafeERC20.sol\":1547:2102  function callOptionalReturn(IERC20 token, bytes memory data) private {... */\n    tag_339:\n        /* \"@aave/aave-stake/contracts/lib/SafeERC20.sol\":1630:1657  address(token).isContract() */\n      tag_349\n        /* \"@aave/aave-stake/contracts/lib/SafeERC20.sol\":1638:1643  token */\n      dup3\n        /* \"@aave/aave-stake/contracts/lib/SafeERC20.sol\":1630:1655  address(token).isContract */\n      0xffffffffffffffffffffffffffffffffffffffff\n      and\n      tag_350\n        /* \"@aave/aave-stake/contracts/lib/SafeERC20.sol\":1630:1657  address(token).isContract() */\n      jump\t// in\n    tag_349:\n        /* \"@aave/aave-stake/contracts/lib/SafeERC20.sol\":1622:1693  require(address(token).isContract(), 'SafeERC20: call to non-contract') */\n      tag_351\n      jumpi\n      mload(0x40)\n      0x08c379a000000000000000000000000000000000000000000000000000000000\n      dup2\n      mstore\n      0x04\n      add\n      dup1\n      dup1\n      0x20\n      add\n      dup3\n      dup2\n      sub\n      dup3\n      mstore\n      0x1f\n      dup2\n      mstore\n      0x20\n      add\n      dup1\n      0x5361666545524332303a2063616c6c20746f206e6f6e2d636f6e747261637400\n      dup2\n      mstore\n      pop\n      0x20\n      add\n      swap2\n      pop\n      pop\n      mload(0x40)\n      dup1\n      swap2\n      sub\n      swap1\n      revert\n    tag_351:\n        /* \"@aave/aave-stake/contracts/lib/SafeERC20.sol\":1756:1768  bool success */\n      0x00\n        /* \"@aave/aave-stake/contracts/lib/SafeERC20.sol\":1770:1793  bytes memory returndata */\n      0x60\n        /* \"@aave/aave-stake/contracts/lib/SafeERC20.sol\":1805:1810  token */\n      dup4\n        /* \"@aave/aave-stake/contracts/lib/SafeERC20.sol\":1797:1816  address(token).call */\n      0xffffffffffffffffffffffffffffffffffffffff\n      and\n        /* \"@aave/aave-stake/contracts/lib/SafeERC20.sol\":1817:1821  data */\n      dup4\n        /* \"@aave/aave-stake/contracts/lib/SafeERC20.sol\":1797:1822  address(token).call(data) */\n      mload(0x40)\n      dup1\n      dup3\n      dup1\n      mload\n      swap1\n      0x20\n      add\n      swap1\n      dup1\n      dup4\n      dup4\n    tag_352:\n      0x20\n      dup4\n      lt\n      tag_354\n      jumpi\n      dup1\n      mload\n      dup3\n      mstore\n      0x20\n      dup3\n      add\n      swap2\n      pop\n      0x20\n      dup2\n      add\n      swap1\n      pop\n      0x20\n      dup4\n      sub\n      swap3\n      pop\n      jump(tag_352)\n    tag_354:\n      0x01\n      dup4\n      0x20\n      sub\n      0x0100\n      exp\n      sub\n      dup1\n      not\n      dup3\n      mload\n      and\n      dup2\n      dup5\n      mload\n      and\n      dup1\n      dup3\n      or\n      dup6\n      mstore\n      pop\n      pop\n      pop\n      pop\n      pop\n      pop\n      swap1\n      pop\n      add\n      swap2\n      pop\n      pop\n      0x00\n      mload(0x40)\n      dup1\n      dup4\n      sub\n      dup2\n      0x00\n      dup7\n      gas\n      call\n      swap2\n      pop\n      pop\n      returndatasize\n      dup1\n      0x00\n      dup2\n      eq\n      tag_357\n      jumpi\n      mload(0x40)\n      swap2\n      pop\n      and(add(returndatasize, 0x3f), not(0x1f))\n      dup3\n      add\n      0x40\n      mstore\n      returndatasize\n      dup3\n      mstore\n      returndatasize\n      0x00\n      0x20\n      dup5\n      add\n      returndatacopy\n      jump(tag_356)\n    tag_357:\n      0x60\n      swap2\n      pop\n    tag_356:\n      pop\n        /* \"@aave/aave-stake/contracts/lib/SafeERC20.sol\":1755:1822  (bool success, bytes memory returndata) = address(token).call(data) */\n      swap2\n      pop\n      swap2\n      pop\n        /* \"@aave/aave-stake/contracts/lib/SafeERC20.sol\":1836:1843  success */\n      dup2\n        /* \"@aave/aave-stake/contracts/lib/SafeERC20.sol\":1828:1880  require(success, 'SafeERC20: low-level call failed') */\n      tag_358\n      jumpi\n      mload(0x40)\n      0x08c379a000000000000000000000000000000000000000000000000000000000\n      dup2\n      mstore\n      0x04\n      add\n      dup1\n      dup1\n      0x20\n      add\n      dup3\n      dup2\n      sub\n      dup3\n      mstore\n      0x20\n      dup2\n      mstore\n      0x20\n      add\n      dup1\n      0x5361666545524332303a206c6f772d6c6576656c2063616c6c206661696c6564\n      dup2\n      mstore\n      pop\n      0x20\n      add\n      swap2\n      pop\n      pop\n      mload(0x40)\n      dup1\n      swap2\n      sub\n      swap1\n      revert\n    tag_358:\n        /* \"@aave/aave-stake/contracts/lib/SafeERC20.sol\":1911:1912  0 */\n      0x00\n        /* \"@aave/aave-stake/contracts/lib/SafeERC20.sol\":1891:1901  returndata */\n      dup2\n        /* \"@aave/aave-stake/contracts/lib/SafeERC20.sol\":1891:1908  returndata.length */\n      mload\n        /* \"@aave/aave-stake/contracts/lib/SafeERC20.sol\":1891:1912  returndata.length > 0 */\n      gt\n        /* \"@aave/aave-stake/contracts/lib/SafeERC20.sol\":1887:2098  if (returndata.length > 0) {... */\n      iszero\n      tag_359\n      jumpi\n        /* \"@aave/aave-stake/contracts/lib/SafeERC20.sol\":2025:2035  returndata */\n      dup1\n        /* \"@aave/aave-stake/contracts/lib/SafeERC20.sol\":2014:2044  abi.decode(returndata, (bool)) */\n      dup1\n      0x20\n      add\n      swap1\n      mload\n      0x20\n      dup2\n      lt\n      iszero\n      tag_360\n      jumpi\n      0x00\n      dup1\n      revert\n    tag_360:\n      dup2\n      add\n      swap1\n      dup1\n      dup1\n      mload\n      swap1\n      0x20\n      add\n      swap1\n      swap3\n      swap2\n      swap1\n      pop\n      pop\n      pop\n        /* \"@aave/aave-stake/contracts/lib/SafeERC20.sol\":2006:2091  require(abi.decode(returndata, (bool)), 'SafeERC20: ERC20 operation did not succeed') */\n      tag_361\n      jumpi\n      mload(0x40)\n      0x08c379a000000000000000000000000000000000000000000000000000000000\n      dup2\n      mstore\n      0x04\n      add\n      dup1\n      dup1\n      0x20\n      add\n      dup3\n      dup2\n      sub\n      dup3\n      mstore\n      0x2a\n      dup2\n      mstore\n      0x20\n      add\n      dup1\n      data_e11ad79d1e4a7f2e5f376964cb99e8e8f7904e3fc16a109f7a7ecb9aa7956dcd\n      0x2a\n      swap2\n      codecopy\n      0x40\n      add\n      swap2\n      pop\n      pop\n      mload(0x40)\n      dup1\n      swap2\n      sub\n      swap1\n      revert\n    tag_361:\n        /* \"@aave/aave-stake/contracts/lib/SafeERC20.sol\":1887:2098  if (returndata.length > 0) {... */\n    tag_359:\n        /* \"@aave/aave-stake/contracts/lib/SafeERC20.sol\":1547:2102  function callOptionalReturn(IERC20 token, bytes memory data) private {... */\n      pop\n      pop\n      pop\n      pop\n      jump\t// out\n        /* \"@aave/aave-stake/contracts/lib/Address.sol\":743:1329  function isContract(address account) internal view returns (bool) {... */\n    tag_350:\n        /* \"@aave/aave-stake/contracts/lib/Address.sol\":803:807  bool */\n      0x00\n        /* \"@aave/aave-stake/contracts/lib/Address.sol\":1045:1061  bytes32 codehash */\n      dup1\n        /* \"@aave/aave-stake/contracts/lib/Address.sol\":1067:1086  bytes32 accountHash */\n      0x00\n        /* \"@aave/aave-stake/contracts/lib/Address.sol\":1089:1155  0xc5d2460186f7233c927e7db2dcc703c0e500b653ca82273b7bfad8045d85a470 */\n      0xc5d2460186f7233c927e7db2dcc703c0e500b653ca82273b7bfad8045d85a470\n        /* \"@aave/aave-stake/contracts/lib/Address.sol\":1067:1155  bytes32 accountHash = 0xc5d2460186f7233c927e7db2dcc703c0e500b653ca82273b7bfad8045d85a470 */\n      0x00\n      shl\n      swap1\n      pop\n        /* \"@aave/aave-stake/contracts/lib/Address.sol\":1254:1261  account */\n      dup4\n        /* \"@aave/aave-stake/contracts/lib/Address.sol\":1242:1262  extcodehash(account) */\n      extcodehash\n        /* \"@aave/aave-stake/contracts/lib/Address.sol\":1230:1262  codehash := extcodehash(account) */\n      swap2\n      pop\n        /* \"@aave/aave-stake/contracts/lib/Address.sol\":1293:1304  accountHash */\n      dup1\n        /* \"@aave/aave-stake/contracts/lib/Address.sol\":1281:1289  codehash */\n      dup3\n        /* \"@aave/aave-stake/contracts/lib/Address.sol\":1281:1304  codehash != accountHash */\n      eq\n      iszero\n        /* \"@aave/aave-stake/contracts/lib/Address.sol\":1281:1323  codehash != accountHash && codehash != 0x0 */\n      dup1\n      iszero\n      tag_363\n      jumpi\n      pop\n        /* \"@aave/aave-stake/contracts/lib/Address.sol\":1320:1323  0x0 */\n      0x00\n        /* \"@aave/aave-stake/contracts/lib/Address.sol\":1308:1323  codehash != 0x0 */\n      dup1\n      shl\n        /* \"@aave/aave-stake/contracts/lib/Address.sol\":1308:1316  codehash */\n      dup3\n        /* \"@aave/aave-stake/contracts/lib/Address.sol\":1308:1323  codehash != 0x0 */\n      eq\n      iszero\n        /* \"@aave/aave-stake/contracts/lib/Address.sol\":1281:1323  codehash != accountHash && codehash != 0x0 */\n    tag_363:\n        /* \"@aave/aave-stake/contracts/lib/Address.sol\":1273:1324  return (codehash != accountHash && codehash != 0x0) */\n      swap3\n      pop\n      pop\n      pop\n        /* \"@aave/aave-stake/contracts/lib/Address.sol\":743:1329  function isContract(address account) internal view returns (bool) {... */\n      swap2\n      swap1\n      pop\n      jump\t// out\n    tag_164:\n      mload(0x40)\n      dup1\n      0x60\n      add\n      0x40\n      mstore\n      dup1\n      and(0xffffffffffffffffffffffffff, 0x00)\n      dup2\n      mstore\n      0x20\n      add\n      0x00\n      dup2\n      mstore\n      0x20\n      add\n      and(0xffffffffffffffffffffffffffffffffffffffff, 0x00)\n      dup2\n      mstore\n      pop\n      swap1\n      jump\t// out\n    tag_193:\n      mload(0x40)\n      dup1\n      0x60\n      add\n      0x40\n      mstore\n      dup1\n      and(0xffffffffffffffffffffffffffffffffffffffff, 0x00)\n      dup2\n      mstore\n      0x20\n      add\n      0x00\n      dup2\n      mstore\n      0x20\n      add\n      0x00\n      dup2\n      mstore\n      pop\n      swap1\n      jump\t// out\n        /* \"#utility.yul\":7:146   */\n    tag_365:\n      0x00\n        /* \"#utility.yul\":91:97   */\n      dup2\n        /* \"#utility.yul\":78:98   */\n      calldataload\n        /* \"#utility.yul\":69:98   */\n      swap1\n      pop\n        /* \"#utility.yul\":107:140   */\n      tag_367\n        /* \"#utility.yul\":134:139   */\n      dup2\n        /* \"#utility.yul\":107:140   */\n      tag_368\n      jump\t// in\n    tag_367:\n        /* \"#utility.yul\":59:146   */\n      swap3\n      swap2\n      pop\n      pop\n      jump\t// out\n        /* \"#utility.yul\":169:536   */\n    tag_369:\n      0x00\n      dup1\n        /* \"#utility.yul\":302:305   */\n      dup4\n        /* \"#utility.yul\":295:299   */\n      0x1f\n        /* \"#utility.yul\":287:293   */\n      dup5\n        /* \"#utility.yul\":283:300   */\n      add\n        /* \"#utility.yul\":279:306   */\n      slt\n        /* \"#utility.yul\":269:271   */\n      tag_371\n      jumpi\n        /* \"#utility.yul\":320:321   */\n      0x00\n        /* \"#utility.yul\":317:318   */\n      dup1\n        /* \"#utility.yul\":310:322   */\n      revert\n        /* \"#utility.yul\":269:271   */\n    tag_371:\n        /* \"#utility.yul\":356:362   */\n      dup3\n        /* \"#utility.yul\":343:363   */\n      calldataload\n        /* \"#utility.yul\":333:363   */\n      swap1\n      pop\n        /* \"#utility.yul\":386:404   */\n      0xffffffffffffffff\n        /* \"#utility.yul\":378:384   */\n      dup2\n        /* \"#utility.yul\":375:405   */\n      gt\n        /* \"#utility.yul\":372:374   */\n      iszero\n      tag_372\n      jumpi\n        /* \"#utility.yul\":418:419   */\n      0x00\n        /* \"#utility.yul\":415:416   */\n      dup1\n        /* \"#utility.yul\":408:420   */\n      revert\n        /* \"#utility.yul\":372:374   */\n    tag_372:\n        /* \"#utility.yul\":455:459   */\n      0x20\n        /* \"#utility.yul\":447:453   */\n      dup4\n        /* \"#utility.yul\":443:460   */\n      add\n        /* \"#utility.yul\":431:460   */\n      swap2\n      pop\n        /* \"#utility.yul\":509:512   */\n      dup4\n        /* \"#utility.yul\":501:505   */\n      0x20\n        /* \"#utility.yul\":493:499   */\n      dup3\n        /* \"#utility.yul\":489:506   */\n      mul\n        /* \"#utility.yul\":479:487   */\n      dup4\n        /* \"#utility.yul\":475:507   */\n      add\n        /* \"#utility.yul\":472:513   */\n      gt\n        /* \"#utility.yul\":469:471   */\n      iszero\n      tag_373\n      jumpi\n        /* \"#utility.yul\":526:527   */\n      0x00\n        /* \"#utility.yul\":523:524   */\n      dup1\n        /* \"#utility.yul\":516:528   */\n      revert\n        /* \"#utility.yul\":469:471   */\n    tag_373:\n        /* \"#utility.yul\":259:536   */\n      swap3\n      pop\n      swap3\n      swap1\n      pop\n      jump\t// out\n        /* \"#utility.yul\":559:926   */\n    tag_374:\n      0x00\n      dup1\n        /* \"#utility.yul\":692:695   */\n      dup4\n        /* \"#utility.yul\":685:689   */\n      0x1f\n        /* \"#utility.yul\":677:683   */\n      dup5\n        /* \"#utility.yul\":673:690   */\n      add\n        /* \"#utility.yul\":669:696   */\n      slt\n        /* \"#utility.yul\":659:661   */\n      tag_376\n      jumpi\n        /* \"#utility.yul\":710:711   */\n      0x00\n        /* \"#utility.yul\":707:708   */\n      dup1\n        /* \"#utility.yul\":700:712   */\n      revert\n        /* \"#utility.yul\":659:661   */\n    tag_376:\n        /* \"#utility.yul\":746:752   */\n      dup3\n        /* \"#utility.yul\":733:753   */\n      calldataload\n        /* \"#utility.yul\":723:753   */\n      swap1\n      pop\n        /* \"#utility.yul\":776:794   */\n      0xffffffffffffffff\n        /* \"#utility.yul\":768:774   */\n      dup2\n        /* \"#utility.yul\":765:795   */\n      gt\n        /* \"#utility.yul\":762:764   */\n      iszero\n      tag_377\n      jumpi\n        /* \"#utility.yul\":808:809   */\n      0x00\n        /* \"#utility.yul\":805:806   */\n      dup1\n        /* \"#utility.yul\":798:810   */\n      revert\n        /* \"#utility.yul\":762:764   */\n    tag_377:\n        /* \"#utility.yul\":845:849   */\n      0x20\n        /* \"#utility.yul\":837:843   */\n      dup4\n        /* \"#utility.yul\":833:850   */\n      add\n        /* \"#utility.yul\":821:850   */\n      swap2\n      pop\n        /* \"#utility.yul\":899:902   */\n      dup4\n        /* \"#utility.yul\":891:895   */\n      0x20\n        /* \"#utility.yul\":883:889   */\n      dup3\n        /* \"#utility.yul\":879:896   */\n      mul\n        /* \"#utility.yul\":869:877   */\n      dup4\n        /* \"#utility.yul\":865:897   */\n      add\n        /* \"#utility.yul\":862:903   */\n      gt\n        /* \"#utility.yul\":859:861   */\n      iszero\n      tag_378\n      jumpi\n        /* \"#utility.yul\":916:917   */\n      0x00\n        /* \"#utility.yul\":913:914   */\n      dup1\n        /* \"#utility.yul\":906:918   */\n      revert\n        /* \"#utility.yul\":859:861   */\n    tag_378:\n        /* \"#utility.yul\":649:926   */\n      swap3\n      pop\n      swap3\n      swap1\n      pop\n      jump\t// out\n        /* \"#utility.yul\":932:1071   */\n    tag_379:\n      0x00\n        /* \"#utility.yul\":1016:1022   */\n      dup2\n        /* \"#utility.yul\":1003:1023   */\n      calldataload\n        /* \"#utility.yul\":994:1023   */\n      swap1\n      pop\n        /* \"#utility.yul\":1032:1065   */\n      tag_381\n        /* \"#utility.yul\":1059:1064   */\n      dup2\n        /* \"#utility.yul\":1032:1065   */\n      tag_382\n      jump\t// in\n    tag_381:\n        /* \"#utility.yul\":984:1071   */\n      swap3\n      swap2\n      pop\n      pop\n      jump\t// out\n        /* \"#utility.yul\":1077:1220   */\n    tag_383:\n      0x00\n        /* \"#utility.yul\":1165:1171   */\n      dup2\n        /* \"#utility.yul\":1159:1172   */\n      mload\n        /* \"#utility.yul\":1150:1172   */\n      swap1\n      pop\n        /* \"#utility.yul\":1181:1214   */\n      tag_385\n        /* \"#utility.yul\":1208:1213   */\n      dup2\n        /* \"#utility.yul\":1181:1214   */\n      tag_382\n      jump\t// in\n    tag_385:\n        /* \"#utility.yul\":1140:1220   */\n      swap3\n      swap2\n      pop\n      pop\n      jump\t// out\n        /* \"#utility.yul\":1226:1486   */\n    tag_30:\n      0x00\n        /* \"#utility.yul\":1334:1336   */\n      0x20\n        /* \"#utility.yul\":1322:1331   */\n      dup3\n        /* \"#utility.yul\":1313:1320   */\n      dup5\n        /* \"#utility.yul\":1309:1332   */\n      sub\n        /* \"#utility.yul\":1305:1337   */\n      slt\n        /* \"#utility.yul\":1302:1304   */\n      iszero\n      tag_387\n      jumpi\n        /* \"#utility.yul\":1350:1351   */\n      0x00\n        /* \"#utility.yul\":1347:1348   */\n      dup1\n        /* \"#utility.yul\":1340:1352   */\n      revert\n        /* \"#utility.yul\":1302:1304   */\n    tag_387:\n        /* \"#utility.yul\":1392:1393   */\n      0x00\n        /* \"#utility.yul\":1416:1469   */\n      tag_388\n        /* \"#utility.yul\":1461:1468   */\n      dup5\n        /* \"#utility.yul\":1452:1458   */\n      dup3\n        /* \"#utility.yul\":1441:1450   */\n      dup6\n        /* \"#utility.yul\":1437:1459   */\n      add\n        /* \"#utility.yul\":1416:1469   */\n      tag_365\n      jump\t// in\n    tag_388:\n        /* \"#utility.yul\":1406:1469   */\n      swap2\n      pop\n        /* \"#utility.yul\":1364:1479   */\n      pop\n        /* \"#utility.yul\":1292:1486   */\n      swap3\n      swap2\n      pop\n      pop\n      jump\t// out\n        /* \"#utility.yul\":1492:1895   */\n    tag_50:\n      0x00\n      dup1\n        /* \"#utility.yul\":1617:1619   */\n      0x40\n        /* \"#utility.yul\":1605:1614   */\n      dup4\n        /* \"#utility.yul\":1596:1603   */\n      dup6\n        /* \"#utility.yul\":1592:1615   */\n      sub\n        /* \"#utility.yul\":1588:1620   */\n      slt\n        /* \"#utility.yul\":1585:1587   */\n      iszero\n      tag_390\n      jumpi\n        /* \"#utility.yul\":1633:1634   */\n      0x00\n        /* \"#utility.yul\":1630:1631   */\n      dup1\n        /* \"#utility.yul\":1623:1635   */\n      revert\n        /* \"#utility.yul\":1585:1587   */\n    tag_390:\n        /* \"#utility.yul\":1675:1676   */\n      0x00\n        /* \"#utility.yul\":1699:1752   */\n      tag_391\n        /* \"#utility.yul\":1744:1751   */\n      dup6\n        /* \"#utility.yul\":1735:1741   */\n      dup3\n        /* \"#utility.yul\":1724:1733   */\n      dup7\n        /* \"#utility.yul\":1720:1742   */\n      add\n        /* \"#utility.yul\":1699:1752   */\n      tag_365\n      jump\t// in\n    tag_391:\n        /* \"#utility.yul\":1689:1752   */\n      swap3\n      pop\n        /* \"#utility.yul\":1647:1762   */\n      pop\n        /* \"#utility.yul\":1800:1802   */\n      0x20\n        /* \"#utility.yul\":1825:1878   */\n      tag_392\n        /* \"#utility.yul\":1870:1877   */\n      dup6\n        /* \"#utility.yul\":1861:1867   */\n      dup3\n        /* \"#utility.yul\":1850:1859   */\n      dup7\n        /* \"#utility.yul\":1846:1868   */\n      add\n        /* \"#utility.yul\":1825:1878   */\n      tag_365\n      jump\t// in\n    tag_392:\n        /* \"#utility.yul\":1815:1878   */\n      swap2\n      pop\n        /* \"#utility.yul\":1772:1888   */\n      pop\n        /* \"#utility.yul\":1575:1895   */\n      swap3\n      pop\n      swap3\n      swap1\n      pop\n      jump\t// out\n        /* \"#utility.yul\":1901:2447   */\n    tag_46:\n      0x00\n      dup1\n      0x00\n        /* \"#utility.yul\":2043:2045   */\n      0x60\n        /* \"#utility.yul\":2031:2040   */\n      dup5\n        /* \"#utility.yul\":2022:2029   */\n      dup7\n        /* \"#utility.yul\":2018:2041   */\n      sub\n        /* \"#utility.yul\":2014:2046   */\n      slt\n        /* \"#utility.yul\":2011:2013   */\n      iszero\n      tag_394\n      jumpi\n        /* \"#utility.yul\":2059:2060   */\n      0x00\n        /* \"#utility.yul\":2056:2057   */\n      dup1\n        /* \"#utility.yul\":2049:2061   */\n      revert\n        /* \"#utility.yul\":2011:2013   */\n    tag_394:\n        /* \"#utility.yul\":2101:2102   */\n      0x00\n        /* \"#utility.yul\":2125:2178   */\n      tag_395\n        /* \"#utility.yul\":2170:2177   */\n      dup7\n        /* \"#utility.yul\":2161:2167   */\n      dup3\n        /* \"#utility.yul\":2150:2159   */\n      dup8\n        /* \"#utility.yul\":2146:2168   */\n      add\n        /* \"#utility.yul\":2125:2178   */\n      tag_365\n      jump\t// in\n    tag_395:\n        /* \"#utility.yul\":2115:2178   */\n      swap4\n      pop\n        /* \"#utility.yul\":2073:2188   */\n      pop\n        /* \"#utility.yul\":2226:2228   */\n      0x20\n        /* \"#utility.yul\":2251:2304   */\n      tag_396\n        /* \"#utility.yul\":2296:2303   */\n      dup7\n        /* \"#utility.yul\":2287:2293   */\n      dup3\n        /* \"#utility.yul\":2276:2285   */\n      dup8\n        /* \"#utility.yul\":2272:2294   */\n      add\n        /* \"#utility.yul\":2251:2304   */\n      tag_379\n      jump\t// in\n    tag_396:\n        /* \"#utility.yul\":2241:2304   */\n      swap3\n      pop\n        /* \"#utility.yul\":2198:2314   */\n      pop\n        /* \"#utility.yul\":2352:2354   */\n      0x40\n        /* \"#utility.yul\":2377:2430   */\n      tag_397\n        /* \"#utility.yul\":2422:2429   */\n      dup7\n        /* \"#utility.yul\":2413:2419   */\n      dup3\n        /* \"#utility.yul\":2402:2411   */\n      dup8\n        /* \"#utility.yul\":2398:2420   */\n      add\n        /* \"#utility.yul\":2377:2430   */\n      tag_379\n      jump\t// in\n    tag_397:\n        /* \"#utility.yul\":2367:2430   */\n      swap2\n      pop\n        /* \"#utility.yul\":2324:2440   */\n      pop\n        /* \"#utility.yul\":2001:2447   */\n      swap3\n      pop\n      swap3\n      pop\n      swap3\n      jump\t// out\n        /* \"#utility.yul\":2453:3019   */\n    tag_78:\n      0x00\n      dup1\n      0x00\n        /* \"#utility.yul\":2613:2615   */\n      0x40\n        /* \"#utility.yul\":2601:2610   */\n      dup5\n        /* \"#utility.yul\":2592:2599   */\n      dup7\n        /* \"#utility.yul\":2588:2611   */\n      sub\n        /* \"#utility.yul\":2584:2616   */\n      slt\n        /* \"#utility.yul\":2581:2583   */\n      iszero\n      tag_399\n      jumpi\n        /* \"#utility.yul\":2629:2630   */\n      0x00\n        /* \"#utility.yul\":2626:2627   */\n      dup1\n        /* \"#utility.yul\":2619:2631   */\n      revert\n        /* \"#utility.yul\":2581:2583   */\n    tag_399:\n        /* \"#utility.yul\":2699:2700   */\n      0x00\n        /* \"#utility.yul\":2688:2697   */\n      dup5\n        /* \"#utility.yul\":2684:2701   */\n      add\n        /* \"#utility.yul\":2671:2702   */\n      calldataload\n        /* \"#utility.yul\":2729:2747   */\n      0xffffffffffffffff\n        /* \"#utility.yul\":2721:2727   */\n      dup2\n        /* \"#utility.yul\":2718:2748   */\n      gt\n        /* \"#utility.yul\":2715:2717   */\n      iszero\n      tag_400\n      jumpi\n        /* \"#utility.yul\":2761:2762   */\n      0x00\n        /* \"#utility.yul\":2758:2759   */\n      dup1\n        /* \"#utility.yul\":2751:2763   */\n      revert\n        /* \"#utility.yul\":2715:2717   */\n    tag_400:\n        /* \"#utility.yul\":2796:2876   */\n      tag_401\n        /* \"#utility.yul\":2868:2875   */\n      dup7\n        /* \"#utility.yul\":2859:2865   */\n      dup3\n        /* \"#utility.yul\":2848:2857   */\n      dup8\n        /* \"#utility.yul\":2844:2866   */\n      add\n        /* \"#utility.yul\":2796:2876   */\n      tag_369\n      jump\t// in\n    tag_401:\n        /* \"#utility.yul\":2778:2876   */\n      swap4\n      pop\n      swap4\n      pop\n        /* \"#utility.yul\":2643:2886   */\n      pop\n        /* \"#utility.yul\":2924:2926   */\n      0x20\n        /* \"#utility.yul\":2949:3002   */\n      tag_402\n        /* \"#utility.yul\":2994:3001   */\n      dup7\n        /* \"#utility.yul\":2985:2991   */\n      dup3\n        /* \"#utility.yul\":2974:2983   */\n      dup8\n        /* \"#utility.yul\":2970:2992   */\n      add\n        /* \"#utility.yul\":2949:3002   */\n      tag_365\n      jump\t// in\n    tag_402:\n        /* \"#utility.yul\":2939:3002   */\n      swap2\n      pop\n        /* \"#utility.yul\":2896:3012   */\n      pop\n        /* \"#utility.yul\":2571:3019   */\n      swap3\n      pop\n      swap3\n      pop\n      swap3\n      jump\t// out\n        /* \"#utility.yul\":3025:3754   */\n    tag_74:\n      0x00\n      dup1\n      0x00\n      dup1\n        /* \"#utility.yul\":3220:3222   */\n      0x40\n        /* \"#utility.yul\":3208:3217   */\n      dup6\n        /* \"#utility.yul\":3199:3206   */\n      dup8\n        /* \"#utility.yul\":3195:3218   */\n      sub\n        /* \"#utility.yul\":3191:3223   */\n      slt\n        /* \"#utility.yul\":3188:3190   */\n      iszero\n      tag_404\n      jumpi\n        /* \"#utility.yul\":3236:3237   */\n      0x00\n        /* \"#utility.yul\":3233:3234   */\n      dup1\n        /* \"#utility.yul\":3226:3238   */\n      revert\n        /* \"#utility.yul\":3188:3190   */\n    tag_404:\n        /* \"#utility.yul\":3306:3307   */\n      0x00\n        /* \"#utility.yul\":3295:3304   */\n      dup6\n        /* \"#utility.yul\":3291:3308   */\n      add\n        /* \"#utility.yul\":3278:3309   */\n      calldataload\n        /* \"#utility.yul\":3336:3354   */\n      0xffffffffffffffff\n        /* \"#utility.yul\":3328:3334   */\n      dup2\n        /* \"#utility.yul\":3325:3355   */\n      gt\n        /* \"#utility.yul\":3322:3324   */\n      iszero\n      tag_405\n      jumpi\n        /* \"#utility.yul\":3368:3369   */\n      0x00\n        /* \"#utility.yul\":3365:3366   */\n      dup1\n        /* \"#utility.yul\":3358:3370   */\n      revert\n        /* \"#utility.yul\":3322:3324   */\n    tag_405:\n        /* \"#utility.yul\":3403:3483   */\n      tag_406\n        /* \"#utility.yul\":3475:3482   */\n      dup8\n        /* \"#utility.yul\":3466:3472   */\n      dup3\n        /* \"#utility.yul\":3455:3464   */\n      dup9\n        /* \"#utility.yul\":3451:3473   */\n      add\n        /* \"#utility.yul\":3403:3483   */\n      tag_369\n      jump\t// in\n    tag_406:\n        /* \"#utility.yul\":3385:3483   */\n      swap5\n      pop\n      swap5\n      pop\n        /* \"#utility.yul\":3250:3493   */\n      pop\n        /* \"#utility.yul\":3559:3561   */\n      0x20\n        /* \"#utility.yul\":3548:3557   */\n      dup6\n        /* \"#utility.yul\":3544:3562   */\n      add\n        /* \"#utility.yul\":3531:3563   */\n      calldataload\n        /* \"#utility.yul\":3590:3608   */\n      0xffffffffffffffff\n        /* \"#utility.yul\":3582:3588   */\n      dup2\n        /* \"#utility.yul\":3579:3609   */\n      gt\n        /* \"#utility.yul\":3576:3578   */\n      iszero\n      tag_407\n      jumpi\n        /* \"#utility.yul\":3622:3623   */\n      0x00\n        /* \"#utility.yul\":3619:3620   */\n      dup1\n        /* \"#utility.yul\":3612:3624   */\n      revert\n        /* \"#utility.yul\":3576:3578   */\n    tag_407:\n        /* \"#utility.yul\":3657:3737   */\n      tag_408\n        /* \"#utility.yul\":3729:3736   */\n      dup8\n        /* \"#utility.yul\":3720:3726   */\n      dup3\n        /* \"#utility.yul\":3709:3718   */\n      dup9\n        /* \"#utility.yul\":3705:3727   */\n      add\n        /* \"#utility.yul\":3657:3737   */\n      tag_374\n      jump\t// in\n    tag_408:\n        /* \"#utility.yul\":3639:3737   */\n      swap3\n      pop\n      swap3\n      pop\n        /* \"#utility.yul\":3503:3747   */\n      pop\n        /* \"#utility.yul\":3178:3754   */\n      swap3\n      swap6\n      swap2\n      swap5\n      pop\n      swap3\n      pop\n      jump\t// out\n        /* \"#utility.yul\":3760:4326   */\n    tag_59:\n      0x00\n      dup1\n      0x00\n        /* \"#utility.yul\":3920:3922   */\n      0x40\n        /* \"#utility.yul\":3908:3917   */\n      dup5\n        /* \"#utility.yul\":3899:3906   */\n      dup7\n        /* \"#utility.yul\":3895:3918   */\n      sub\n        /* \"#utility.yul\":3891:3923   */\n      slt\n        /* \"#utility.yul\":3888:3890   */\n      iszero\n      tag_410\n      jumpi\n        /* \"#utility.yul\":3936:3937   */\n      0x00\n        /* \"#utility.yul\":3933:3934   */\n      dup1\n        /* \"#utility.yul\":3926:3938   */\n      revert\n        /* \"#utility.yul\":3888:3890   */\n    tag_410:\n        /* \"#utility.yul\":4006:4007   */\n      0x00\n        /* \"#utility.yul\":3995:4004   */\n      dup5\n        /* \"#utility.yul\":3991:4008   */\n      add\n        /* \"#utility.yul\":3978:4009   */\n      calldataload\n        /* \"#utility.yul\":4036:4054   */\n      0xffffffffffffffff\n        /* \"#utility.yul\":4028:4034   */\n      dup2\n        /* \"#utility.yul\":4025:4055   */\n      gt\n        /* \"#utility.yul\":4022:4024   */\n      iszero\n      tag_411\n      jumpi\n        /* \"#utility.yul\":4068:4069   */\n      0x00\n        /* \"#utility.yul\":4065:4066   */\n      dup1\n        /* \"#utility.yul\":4058:4070   */\n      revert\n        /* \"#utility.yul\":4022:4024   */\n    tag_411:\n        /* \"#utility.yul\":4103:4183   */\n      tag_412\n        /* \"#utility.yul\":4175:4182   */\n      dup7\n        /* \"#utility.yul\":4166:4172   */\n      dup3\n        /* \"#utility.yul\":4155:4164   */\n      dup8\n        /* \"#utility.yul\":4151:4173   */\n      add\n        /* \"#utility.yul\":4103:4183   */\n      tag_369\n      jump\t// in\n    tag_412:\n        /* \"#utility.yul\":4085:4183   */\n      swap4\n      pop\n      swap4\n      pop\n        /* \"#utility.yul\":3950:4193   */\n      pop\n        /* \"#utility.yul\":4231:4233   */\n      0x20\n        /* \"#utility.yul\":4256:4309   */\n      tag_413\n        /* \"#utility.yul\":4301:4308   */\n      dup7\n        /* \"#utility.yul\":4292:4298   */\n      dup3\n        /* \"#utility.yul\":4281:4290   */\n      dup8\n        /* \"#utility.yul\":4277:4299   */\n      add\n        /* \"#utility.yul\":4256:4309   */\n      tag_379\n      jump\t// in\n    tag_413:\n        /* \"#utility.yul\":4246:4309   */\n      swap2\n      pop\n        /* \"#utility.yul\":4203:4319   */\n      pop\n        /* \"#utility.yul\":3878:4326   */\n      swap3\n      pop\n      swap3\n      pop\n      swap3\n      jump\t// out\n        /* \"#utility.yul\":4332:5041   */\n    tag_41:\n      0x00\n      dup1\n      0x00\n      dup1\n        /* \"#utility.yul\":4509:4511   */\n      0x60\n        /* \"#utility.yul\":4497:4506   */\n      dup6\n        /* \"#utility.yul\":4488:4495   */\n      dup8\n        /* \"#utility.yul\":4484:4507   */\n      sub\n        /* \"#utility.yul\":4480:4512   */\n      slt\n        /* \"#utility.yul\":4477:4479   */\n      iszero\n      tag_415\n      jumpi\n        /* \"#utility.yul\":4525:4526   */\n      0x00\n        /* \"#utility.yul\":4522:4523   */\n      dup1\n        /* \"#utility.yul\":4515:4527   */\n      revert\n        /* \"#utility.yul\":4477:4479   */\n    tag_415:\n        /* \"#utility.yul\":4595:4596   */\n      0x00\n        /* \"#utility.yul\":4584:4593   */\n      dup6\n        /* \"#utility.yul\":4580:4597   */\n      add\n        /* \"#utility.yul\":4567:4598   */\n      calldataload\n        /* \"#utility.yul\":4625:4643   */\n      0xffffffffffffffff\n        /* \"#utility.yul\":4617:4623   */\n      dup2\n        /* \"#utility.yul\":4614:4644   */\n      gt\n        /* \"#utility.yul\":4611:4613   */\n      iszero\n      tag_416\n      jumpi\n        /* \"#utility.yul\":4657:4658   */\n      0x00\n        /* \"#utility.yul\":4654:4655   */\n      dup1\n        /* \"#utility.yul\":4647:4659   */\n      revert\n        /* \"#utility.yul\":4611:4613   */\n    tag_416:\n        /* \"#utility.yul\":4692:4772   */\n      tag_417\n        /* \"#utility.yul\":4764:4771   */\n      dup8\n        /* \"#utility.yul\":4755:4761   */\n      dup3\n        /* \"#utility.yul\":4744:4753   */\n      dup9\n        /* \"#utility.yul\":4740:4762   */\n      add\n        /* \"#utility.yul\":4692:4772   */\n      tag_369\n      jump\t// in\n    tag_417:\n        /* \"#utility.yul\":4674:4772   */\n      swap5\n      pop\n      swap5\n      pop\n        /* \"#utility.yul\":4539:4782   */\n      pop\n        /* \"#utility.yul\":4820:4822   */\n      0x20\n        /* \"#utility.yul\":4845:4898   */\n      tag_418\n        /* \"#utility.yul\":4890:4897   */\n      dup8\n        /* \"#utility.yul\":4881:4887   */\n      dup3\n        /* \"#utility.yul\":4870:4879   */\n      dup9\n        /* \"#utility.yul\":4866:4888   */\n      add\n        /* \"#utility.yul\":4845:4898   */\n      tag_379\n      jump\t// in\n    tag_418:\n        /* \"#utility.yul\":4835:4898   */\n      swap3\n      pop\n        /* \"#utility.yul\":4792:4908   */\n      pop\n        /* \"#utility.yul\":4946:4948   */\n      0x40\n        /* \"#utility.yul\":4971:5024   */\n      tag_419\n        /* \"#utility.yul\":5016:5023   */\n      dup8\n        /* \"#utility.yul\":5007:5013   */\n      dup3\n        /* \"#utility.yul\":4996:5005   */\n      dup9\n        /* \"#utility.yul\":4992:5014   */\n      add\n        /* \"#utility.yul\":4971:5024   */\n      tag_365\n      jump\t// in\n    tag_419:\n        /* \"#utility.yul\":4961:5024   */\n      swap2\n      pop\n        /* \"#utility.yul\":4918:5034   */\n      pop\n        /* \"#utility.yul\":4467:5041   */\n      swap3\n      swap6\n      swap2\n      swap5\n      pop\n      swap3\n      pop\n      jump\t// out\n        /* \"#utility.yul\":5047:5900   */\n    tag_64:\n      0x00\n      dup1\n      0x00\n      dup1\n      0x00\n        /* \"#utility.yul\":5241:5244   */\n      0x80\n        /* \"#utility.yul\":5229:5238   */\n      dup7\n        /* \"#utility.yul\":5220:5227   */\n      dup9\n        /* \"#utility.yul\":5216:5239   */\n      sub\n        /* \"#utility.yul\":5212:5245   */\n      slt\n        /* \"#utility.yul\":5209:5211   */\n      iszero\n      tag_421\n      jumpi\n        /* \"#utility.yul\":5258:5259   */\n      0x00\n        /* \"#utility.yul\":5255:5256   */\n      dup1\n        /* \"#utility.yul\":5248:5260   */\n      revert\n        /* \"#utility.yul\":5209:5211   */\n    tag_421:\n        /* \"#utility.yul\":5328:5329   */\n      0x00\n        /* \"#utility.yul\":5317:5326   */\n      dup7\n        /* \"#utility.yul\":5313:5330   */\n      add\n        /* \"#utility.yul\":5300:5331   */\n      calldataload\n        /* \"#utility.yul\":5358:5376   */\n      0xffffffffffffffff\n        /* \"#utility.yul\":5350:5356   */\n      dup2\n        /* \"#utility.yul\":5347:5377   */\n      gt\n        /* \"#utility.yul\":5344:5346   */\n      iszero\n      tag_422\n      jumpi\n        /* \"#utility.yul\":5390:5391   */\n      0x00\n        /* \"#utility.yul\":5387:5388   */\n      dup1\n        /* \"#utility.yul\":5380:5392   */\n      revert\n        /* \"#utility.yul\":5344:5346   */\n    tag_422:\n        /* \"#utility.yul\":5425:5505   */\n      tag_423\n        /* \"#utility.yul\":5497:5504   */\n      dup9\n        /* \"#utility.yul\":5488:5494   */\n      dup3\n        /* \"#utility.yul\":5477:5486   */\n      dup10\n        /* \"#utility.yul\":5473:5495   */\n      add\n        /* \"#utility.yul\":5425:5505   */\n      tag_369\n      jump\t// in\n    tag_423:\n        /* \"#utility.yul\":5407:5505   */\n      swap6\n      pop\n      swap6\n      pop\n        /* \"#utility.yul\":5272:5515   */\n      pop\n        /* \"#utility.yul\":5553:5555   */\n      0x20\n        /* \"#utility.yul\":5578:5631   */\n      tag_424\n        /* \"#utility.yul\":5623:5630   */\n      dup9\n        /* \"#utility.yul\":5614:5620   */\n      dup3\n        /* \"#utility.yul\":5603:5612   */\n      dup10\n        /* \"#utility.yul\":5599:5621   */\n      add\n        /* \"#utility.yul\":5578:5631   */\n      tag_379\n      jump\t// in\n    tag_424:\n        /* \"#utility.yul\":5568:5631   */\n      swap4\n      pop\n        /* \"#utility.yul\":5525:5641   */\n      pop\n        /* \"#utility.yul\":5679:5681   */\n      0x40\n        /* \"#utility.yul\":5704:5757   */\n      tag_425\n        /* \"#utility.yul\":5749:5756   */\n      dup9\n        /* \"#utility.yul\":5740:5746   */\n      dup3\n        /* \"#utility.yul\":5729:5738   */\n      dup10\n        /* \"#utility.yul\":5725:5747   */\n      add\n        /* \"#utility.yul\":5704:5757   */\n      tag_365\n      jump\t// in\n    tag_425:\n        /* \"#utility.yul\":5694:5757   */\n      swap3\n      pop\n        /* \"#utility.yul\":5651:5767   */\n      pop\n        /* \"#utility.yul\":5805:5807   */\n      0x60\n        /* \"#utility.yul\":5830:5883   */\n      tag_426\n        /* \"#utility.yul\":5875:5882   */\n      dup9\n        /* \"#utility.yul\":5866:5872   */\n      dup3\n        /* \"#utility.yul\":5855:5864   */\n      dup10\n        /* \"#utility.yul\":5851:5873   */\n      add\n        /* \"#utility.yul\":5830:5883   */\n      tag_365\n      jump\t// in\n    tag_426:\n        /* \"#utility.yul\":5820:5883   */\n      swap2\n      pop\n        /* \"#utility.yul\":5777:5893   */\n      pop\n        /* \"#utility.yul\":5199:5900   */\n      swap3\n      swap6\n      pop\n      swap3\n      swap6\n      swap1\n      swap4\n      pop\n      jump\t// out\n        /* \"#utility.yul\":5906:6166   */\n    tag_55:\n      0x00\n        /* \"#utility.yul\":6014:6016   */\n      0x20\n        /* \"#utility.yul\":6002:6011   */\n      dup3\n        /* \"#utility.yul\":5993:6000   */\n      dup5\n        /* \"#utility.yul\":5989:6012   */\n      sub\n        /* \"#utility.yul\":5985:6017   */\n      slt\n        /* \"#utility.yul\":5982:5984   */\n      iszero\n      tag_428\n      jumpi\n        /* \"#utility.yul\":6030:6031   */\n      0x00\n        /* \"#utility.yul\":6027:6028   */\n      dup1\n        /* \"#utility.yul\":6020:6032   */\n      revert\n        /* \"#utility.yul\":5982:5984   */\n    tag_428:\n        /* \"#utility.yul\":6072:6073   */\n      0x00\n        /* \"#utility.yul\":6096:6149   */\n      tag_429\n        /* \"#utility.yul\":6141:6148   */\n      dup5\n        /* \"#utility.yul\":6132:6138   */\n      dup3\n        /* \"#utility.yul\":6121:6130   */\n      dup6\n        /* \"#utility.yul\":6117:6139   */\n      add\n        /* \"#utility.yul\":6096:6149   */\n      tag_379\n      jump\t// in\n    tag_429:\n        /* \"#utility.yul\":6086:6149   */\n      swap2\n      pop\n        /* \"#utility.yul\":6044:6159   */\n      pop\n        /* \"#utility.yul\":5972:6166   */\n      swap3\n      swap2\n      pop\n      pop\n      jump\t// out\n        /* \"#utility.yul\":6172:6454   */\n    tag_184:\n      0x00\n        /* \"#utility.yul\":6291:6293   */\n      0x20\n        /* \"#utility.yul\":6279:6288   */\n      dup3\n        /* \"#utility.yul\":6270:6277   */\n      dup5\n        /* \"#utility.yul\":6266:6289   */\n      sub\n        /* \"#utility.yul\":6262:6294   */\n      slt\n        /* \"#utility.yul\":6259:6261   */\n      iszero\n      tag_431\n      jumpi\n        /* \"#utility.yul\":6307:6308   */\n      0x00\n        /* \"#utility.yul\":6304:6305   */\n      dup1\n        /* \"#utility.yul\":6297:6309   */\n      revert\n        /* \"#utility.yul\":6259:6261   */\n    tag_431:\n        /* \"#utility.yul\":6349:6350   */\n      0x00\n        /* \"#utility.yul\":6373:6437   */\n      tag_432\n        /* \"#utility.yul\":6429:6436   */\n      dup5\n        /* \"#utility.yul\":6420:6426   */\n      dup3\n        /* \"#utility.yul\":6409:6418   */\n      dup6\n        /* \"#utility.yul\":6405:6427   */\n      add\n        /* \"#utility.yul\":6373:6437   */\n      tag_383\n      jump\t// in\n    tag_432:\n        /* \"#utility.yul\":6363:6437   */\n      swap2\n      pop\n        /* \"#utility.yul\":6321:6447   */\n      pop\n        /* \"#utility.yul\":6249:6454   */\n      swap3\n      swap2\n      pop\n      pop\n      jump\t// out\n        /* \"#utility.yul\":6460:6896   */\n    tag_207:\n      0x00\n      dup1\n        /* \"#utility.yul\":6596:6598   */\n      0x40\n        /* \"#utility.yul\":6584:6593   */\n      dup4\n        /* \"#utility.yul\":6575:6582   */\n      dup6\n        /* \"#utility.yul\":6571:6594   */\n      sub\n        /* \"#utility.yul\":6567:6599   */\n      slt\n        /* \"#utility.yul\":6564:6566   */\n      iszero\n      tag_434\n      jumpi\n        /* \"#utility.yul\":6612:6613   */\n      0x00\n        /* \"#utility.yul\":6609:6610   */\n      dup1\n        /* \"#utility.yul\":6602:6614   */\n      revert\n        /* \"#utility.yul\":6564:6566   */\n    tag_434:\n        /* \"#utility.yul\":6654:6655   */\n      0x00\n        /* \"#utility.yul\":6678:6742   */\n      tag_435\n        /* \"#utility.yul\":6734:6741   */\n      dup6\n        /* \"#utility.yul\":6725:6731   */\n      dup3\n        /* \"#utility.yul\":6714:6723   */\n      dup7\n        /* \"#utility.yul\":6710:6732   */\n      add\n        /* \"#utility.yul\":6678:6742   */\n      tag_383\n      jump\t// in\n    tag_435:\n        /* \"#utility.yul\":6668:6742   */\n      swap3\n      pop\n        /* \"#utility.yul\":6626:6752   */\n      pop\n        /* \"#utility.yul\":6790:6792   */\n      0x20\n        /* \"#utility.yul\":6815:6879   */\n      tag_436\n        /* \"#utility.yul\":6871:6878   */\n      dup6\n        /* \"#utility.yul\":6862:6868   */\n      dup3\n        /* \"#utility.yul\":6851:6860   */\n      dup7\n        /* \"#utility.yul\":6847:6869   */\n      add\n        /* \"#utility.yul\":6815:6879   */\n      tag_383\n      jump\t// in\n    tag_436:\n        /* \"#utility.yul\":6805:6879   */\n      swap2\n      pop\n        /* \"#utility.yul\":6762:6889   */\n      pop\n        /* \"#utility.yul\":6554:6896   */\n      swap3\n      pop\n      swap3\n      swap1\n      pop\n      jump\t// out\n        /* \"#utility.yul\":6902:7020   */\n    tag_437:\n        /* \"#utility.yul\":6989:7013   */\n      tag_439\n        /* \"#utility.yul\":7007:7012   */\n      dup2\n        /* \"#utility.yul\":6989:7013   */\n      tag_440\n      jump\t// in\n    tag_439:\n        /* \"#utility.yul\":6984:6987   */\n      dup3\n        /* \"#utility.yul\":6977:7014   */\n      mstore\n        /* \"#utility.yul\":6967:7020   */\n      pop\n      pop\n      jump\t// out\n        /* \"#utility.yul\":7026:7344   */\n    tag_441:\n      0x00\n        /* \"#utility.yul\":7189:7256   */\n      tag_443\n        /* \"#utility.yul\":7253:7255   */\n      0x14\n        /* \"#utility.yul\":7248:7251   */\n      dup4\n        /* \"#utility.yul\":7189:7256   */\n      tag_444\n      jump\t// in\n    tag_443:\n        /* \"#utility.yul\":7182:7256   */\n      swap2\n      pop\n        /* \"#utility.yul\":7286:7308   */\n      0x494e56414c49445f555345525f41444452455353000000000000000000000000\n        /* \"#utility.yul\":7282:7283   */\n      0x00\n        /* \"#utility.yul\":7277:7280   */\n      dup4\n        /* \"#utility.yul\":7273:7284   */\n      add\n        /* \"#utility.yul\":7266:7309   */\n      mstore\n        /* \"#utility.yul\":7335:7337   */\n      0x20\n        /* \"#utility.yul\":7330:7333   */\n      dup3\n        /* \"#utility.yul\":7326:7338   */\n      add\n        /* \"#utility.yul\":7319:7338   */\n      swap1\n      pop\n        /* \"#utility.yul\":7172:7344   */\n      swap2\n      swap1\n      pop\n      jump\t// out\n        /* \"#utility.yul\":7350:7666   */\n    tag_445:\n      0x00\n        /* \"#utility.yul\":7513:7580   */\n      tag_447\n        /* \"#utility.yul\":7577:7579   */\n      0x12\n        /* \"#utility.yul\":7572:7575   */\n      dup4\n        /* \"#utility.yul\":7513:7580   */\n      tag_444\n      jump\t// in\n    tag_447:\n        /* \"#utility.yul\":7506:7580   */\n      swap2\n      pop\n        /* \"#utility.yul\":7610:7630   */\n      0x494e56414c49445f544f5f414444524553530000000000000000000000000000\n        /* \"#utility.yul\":7606:7607   */\n      0x00\n        /* \"#utility.yul\":7601:7604   */\n      dup4\n        /* \"#utility.yul\":7597:7608   */\n      add\n        /* \"#utility.yul\":7590:7631   */\n      mstore\n        /* \"#utility.yul\":7657:7659   */\n      0x20\n        /* \"#utility.yul\":7652:7655   */\n      dup3\n        /* \"#utility.yul\":7648:7660   */\n      add\n        /* \"#utility.yul\":7641:7660   */\n      swap1\n      pop\n        /* \"#utility.yul\":7496:7666   */\n      swap2\n      swap1\n      pop\n      jump\t// out\n        /* \"#utility.yul\":7672:7991   */\n    tag_448:\n      0x00\n        /* \"#utility.yul\":7835:7902   */\n      tag_450\n        /* \"#utility.yul\":7899:7901   */\n      0x15\n        /* \"#utility.yul\":7894:7897   */\n      dup4\n        /* \"#utility.yul\":7835:7902   */\n      tag_444\n      jump\t// in\n    tag_450:\n        /* \"#utility.yul\":7828:7902   */\n      swap2\n      pop\n        /* \"#utility.yul\":7932:7955   */\n      0x494e56414c49445f434f4e46494755524154494f4e0000000000000000000000\n        /* \"#utility.yul\":7928:7929   */\n      0x00\n        /* \"#utility.yul\":7923:7926   */\n      dup4\n        /* \"#utility.yul\":7919:7930   */\n      add\n        /* \"#utility.yul\":7912:7956   */\n      mstore\n        /* \"#utility.yul\":7982:7984   */\n      0x20\n        /* \"#utility.yul\":7977:7980   */\n      dup3\n        /* \"#utility.yul\":7973:7985   */\n      add\n        /* \"#utility.yul\":7966:7985   */\n      swap1\n      pop\n        /* \"#utility.yul\":7818:7991   */\n      swap2\n      swap1\n      pop\n      jump\t// out\n        /* \"#utility.yul\":7997:8365   */\n    tag_451:\n      0x00\n        /* \"#utility.yul\":8160:8227   */\n      tag_453\n        /* \"#utility.yul\":8224:8226   */\n      0x24\n        /* \"#utility.yul\":8219:8222   */\n      dup4\n        /* \"#utility.yul\":8160:8227   */\n      tag_444\n      jump\t// in\n    tag_453:\n        /* \"#utility.yul\":8153:8227   */\n      swap2\n      pop\n        /* \"#utility.yul\":8257:8291   */\n      0x496e646578206f766572666c6f7720617420656d697373696f6e735065725365\n        /* \"#utility.yul\":8253:8254   */\n      0x00\n        /* \"#utility.yul\":8248:8251   */\n      dup4\n        /* \"#utility.yul\":8244:8255   */\n      add\n        /* \"#utility.yul\":8237:8292   */\n      mstore\n        /* \"#utility.yul\":8323:8329   */\n      0x636f6e6400000000000000000000000000000000000000000000000000000000\n        /* \"#utility.yul\":8318:8320   */\n      0x20\n        /* \"#utility.yul\":8313:8316   */\n      dup4\n        /* \"#utility.yul\":8309:8321   */\n      add\n        /* \"#utility.yul\":8302:8330   */\n      mstore\n        /* \"#utility.yul\":8356:8358   */\n      0x40\n        /* \"#utility.yul\":8351:8354   */\n      dup3\n        /* \"#utility.yul\":8347:8359   */\n      add\n        /* \"#utility.yul\":8340:8359   */\n      swap1\n      pop\n        /* \"#utility.yul\":8143:8365   */\n      swap2\n      swap1\n      pop\n      jump\t// out\n        /* \"#utility.yul\":8371:8683   */\n    tag_454:\n      0x00\n        /* \"#utility.yul\":8534:8601   */\n      tag_456\n        /* \"#utility.yul\":8598:8600   */\n      0x0e\n        /* \"#utility.yul\":8593:8596   */\n      dup4\n        /* \"#utility.yul\":8534:8601   */\n      tag_444\n      jump\t// in\n    tag_456:\n        /* \"#utility.yul\":8527:8601   */\n      swap2\n      pop\n        /* \"#utility.yul\":8631:8647   */\n      0x496e646578206f766572666c6f77000000000000000000000000000000000000\n        /* \"#utility.yul\":8627:8628   */\n      0x00\n        /* \"#utility.yul\":8622:8625   */\n      dup4\n        /* \"#utility.yul\":8618:8629   */\n      add\n        /* \"#utility.yul\":8611:8648   */\n      mstore\n        /* \"#utility.yul\":8674:8676   */\n      0x20\n        /* \"#utility.yul\":8669:8672   */\n      dup3\n        /* \"#utility.yul\":8665:8677   */\n      add\n        /* \"#utility.yul\":8658:8677   */\n      swap1\n      pop\n        /* \"#utility.yul\":8517:8683   */\n      swap2\n      swap1\n      pop\n      jump\t// out\n        /* \"#utility.yul\":8689:9008   */\n    tag_457:\n      0x00\n        /* \"#utility.yul\":8852:8919   */\n      tag_459\n        /* \"#utility.yul\":8916:8918   */\n      0x15\n        /* \"#utility.yul\":8911:8914   */\n      dup4\n        /* \"#utility.yul\":8852:8919   */\n      tag_444\n      jump\t// in\n    tag_459:\n        /* \"#utility.yul\":8845:8919   */\n      swap2\n      pop\n        /* \"#utility.yul\":8949:8972   */\n      0x4f4e4c595f454d495353494f4e5f4d414e414745520000000000000000000000\n        /* \"#utility.yul\":8945:8946   */\n      0x00\n        /* \"#utility.yul\":8940:8943   */\n      dup4\n        /* \"#utility.yul\":8936:8947   */\n      add\n        /* \"#utility.yul\":8929:8973   */\n      mstore\n        /* \"#utility.yul\":8999:9001   */\n      0x20\n        /* \"#utility.yul\":8994:8997   */\n      dup3\n        /* \"#utility.yul\":8990:9002   */\n      add\n        /* \"#utility.yul\":8983:9002   */\n      swap1\n      pop\n        /* \"#utility.yul\":8835:9008   */\n      swap2\n      swap1\n      pop\n      jump\t// out\n        /* \"#utility.yul\":9014:9332   */\n    tag_460:\n      0x00\n        /* \"#utility.yul\":9177:9244   */\n      tag_462\n        /* \"#utility.yul\":9241:9243   */\n      0x14\n        /* \"#utility.yul\":9236:9239   */\n      dup4\n        /* \"#utility.yul\":9177:9244   */\n      tag_444\n      jump\t// in\n    tag_462:\n        /* \"#utility.yul\":9170:9244   */\n      swap2\n      pop\n        /* \"#utility.yul\":9274:9296   */\n      0x434c41494d45525f554e415554484f52495a4544000000000000000000000000\n        /* \"#utility.yul\":9270:9271   */\n      0x00\n        /* \"#utility.yul\":9265:9268   */\n      dup4\n        /* \"#utility.yul\":9261:9272   */\n      add\n        /* \"#utility.yul\":9254:9297   */\n      mstore\n        /* \"#utility.yul\":9323:9325   */\n      0x20\n        /* \"#utility.yul\":9318:9321   */\n      dup3\n        /* \"#utility.yul\":9314:9326   */\n      add\n        /* \"#utility.yul\":9307:9326   */\n      swap1\n      pop\n        /* \"#utility.yul\":9160:9332   */\n      swap2\n      swap1\n      pop\n      jump\t// out\n        /* \"#utility.yul\":9338:9456   */\n    tag_463:\n        /* \"#utility.yul\":9425:9449   */\n      tag_465\n        /* \"#utility.yul\":9443:9448   */\n      dup2\n        /* \"#utility.yul\":9425:9449   */\n      tag_466\n      jump\t// in\n    tag_465:\n        /* \"#utility.yul\":9420:9423   */\n      dup3\n        /* \"#utility.yul\":9413:9450   */\n      mstore\n        /* \"#utility.yul\":9403:9456   */\n      pop\n      pop\n      jump\t// out\n        /* \"#utility.yul\":9462:9593   */\n    tag_467:\n        /* \"#utility.yul\":9549:9586   */\n      tag_469\n        /* \"#utility.yul\":9580:9585   */\n      dup2\n        /* \"#utility.yul\":9549:9586   */\n      tag_470\n      jump\t// in\n    tag_469:\n        /* \"#utility.yul\":9544:9547   */\n      dup3\n        /* \"#utility.yul\":9537:9587   */\n      mstore\n        /* \"#utility.yul\":9527:9593   */\n      pop\n      pop\n      jump\t// out\n        /* \"#utility.yul\":9599:9717   */\n    tag_471:\n        /* \"#utility.yul\":9686:9710   */\n      tag_473\n        /* \"#utility.yul\":9704:9709   */\n      dup2\n        /* \"#utility.yul\":9686:9710   */\n      tag_474\n      jump\t// in\n    tag_473:\n        /* \"#utility.yul\":9681:9684   */\n      dup3\n        /* \"#utility.yul\":9674:9711   */\n      mstore\n        /* \"#utility.yul\":9664:9717   */\n      pop\n      pop\n      jump\t// out\n        /* \"#utility.yul\":9723:9838   */\n    tag_475:\n        /* \"#utility.yul\":9808:9831   */\n      tag_477\n        /* \"#utility.yul\":9825:9830   */\n      dup2\n        /* \"#utility.yul\":9808:9831   */\n      tag_478\n      jump\t// in\n    tag_477:\n        /* \"#utility.yul\":9803:9806   */\n      dup3\n        /* \"#utility.yul\":9796:9832   */\n      mstore\n        /* \"#utility.yul\":9786:9838   */\n      pop\n      pop\n      jump\t// out\n        /* \"#utility.yul\":9844:9956   */\n    tag_479:\n        /* \"#utility.yul\":9927:9949   */\n      tag_481\n        /* \"#utility.yul\":9943:9948   */\n      dup2\n        /* \"#utility.yul\":9927:9949   */\n      tag_482\n      jump\t// in\n    tag_481:\n        /* \"#utility.yul\":9922:9925   */\n      dup3\n        /* \"#utility.yul\":9915:9950   */\n      mstore\n        /* \"#utility.yul\":9905:9956   */\n      pop\n      pop\n      jump\t// out\n        /* \"#utility.yul\":9962:10184   */\n    tag_71:\n      0x00\n        /* \"#utility.yul\":10093:10095   */\n      0x20\n        /* \"#utility.yul\":10082:10091   */\n      dup3\n        /* \"#utility.yul\":10078:10096   */\n      add\n        /* \"#utility.yul\":10070:10096   */\n      swap1\n      pop\n        /* \"#utility.yul\":10106:10177   */\n      tag_484\n        /* \"#utility.yul\":10174:10175   */\n      0x00\n        /* \"#utility.yul\":10163:10172   */\n      dup4\n        /* \"#utility.yul\":10159:10176   */\n      add\n        /* \"#utility.yul\":10150:10156   */\n      dup5\n        /* \"#utility.yul\":10106:10177   */\n      tag_437\n      jump\t// in\n    tag_484:\n        /* \"#utility.yul\":10060:10184   */\n      swap3\n      swap2\n      pop\n      pop\n      jump\t// out\n        /* \"#utility.yul\":10190:10609   */\n    tag_148:\n      0x00\n        /* \"#utility.yul\":10394:10396   */\n      0x20\n        /* \"#utility.yul\":10383:10392   */\n      dup3\n        /* \"#utility.yul\":10379:10397   */\n      add\n        /* \"#utility.yul\":10371:10397   */\n      swap1\n      pop\n        /* \"#utility.yul\":10443:10452   */\n      dup2\n        /* \"#utility.yul\":10437:10441   */\n      dup2\n        /* \"#utility.yul\":10433:10453   */\n      sub\n        /* \"#utility.yul\":10429:10430   */\n      0x00\n        /* \"#utility.yul\":10418:10427   */\n      dup4\n        /* \"#utility.yul\":10414:10431   */\n      add\n        /* \"#utility.yul\":10407:10454   */\n      mstore\n        /* \"#utility.yul\":10471:10602   */\n      tag_486\n        /* \"#utility.yul\":10597:10601   */\n      dup2\n        /* \"#utility.yul\":10471:10602   */\n      tag_441\n      jump\t// in\n    tag_486:\n        /* \"#utility.yul\":10463:10602   */\n      swap1\n      pop\n        /* \"#utility.yul\":10361:10609   */\n      swap2\n      swap1\n      pop\n      jump\t// out\n        /* \"#utility.yul\":10615:11034   */\n    tag_122:\n      0x00\n        /* \"#utility.yul\":10819:10821   */\n      0x20\n        /* \"#utility.yul\":10808:10817   */\n      dup3\n        /* \"#utility.yul\":10804:10822   */\n      add\n        /* \"#utility.yul\":10796:10822   */\n      swap1\n      pop\n        /* \"#utility.yul\":10868:10877   */\n      dup2\n        /* \"#utility.yul\":10862:10866   */\n      dup2\n        /* \"#utility.yul\":10858:10878   */\n      sub\n        /* \"#utility.yul\":10854:10855   */\n      0x00\n        /* \"#utility.yul\":10843:10852   */\n      dup4\n        /* \"#utility.yul\":10839:10856   */\n      add\n        /* \"#utility.yul\":10832:10879   */\n      mstore\n        /* \"#utility.yul\":10896:11027   */\n      tag_488\n        /* \"#utility.yul\":11022:11026   */\n      dup2\n        /* \"#utility.yul\":10896:11027   */\n      tag_445\n      jump\t// in\n    tag_488:\n        /* \"#utility.yul\":10888:11027   */\n      swap1\n      pop\n        /* \"#utility.yul\":10786:11034   */\n      swap2\n      swap1\n      pop\n      jump\t// out\n        /* \"#utility.yul\":11040:11459   */\n    tag_159:\n      0x00\n        /* \"#utility.yul\":11244:11246   */\n      0x20\n        /* \"#utility.yul\":11233:11242   */\n      dup3\n        /* \"#utility.yul\":11229:11247   */\n      add\n        /* \"#utility.yul\":11221:11247   */\n      swap1\n      pop\n        /* \"#utility.yul\":11293:11302   */\n      dup2\n        /* \"#utility.yul\":11287:11291   */\n      dup2\n        /* \"#utility.yul\":11283:11303   */\n      sub\n        /* \"#utility.yul\":11279:11280   */\n      0x00\n        /* \"#utility.yul\":11268:11277   */\n      dup4\n        /* \"#utility.yul\":11264:11281   */\n      add\n        /* \"#utility.yul\":11257:11304   */\n      mstore\n        /* \"#utility.yul\":11321:11452   */\n      tag_490\n        /* \"#utility.yul\":11447:11451   */\n      dup2\n        /* \"#utility.yul\":11321:11452   */\n      tag_448\n      jump\t// in\n    tag_490:\n        /* \"#utility.yul\":11313:11452   */\n      swap1\n      pop\n        /* \"#utility.yul\":11211:11459   */\n      swap2\n      swap1\n      pop\n      jump\t// out\n        /* \"#utility.yul\":11465:11884   */\n    tag_172:\n      0x00\n        /* \"#utility.yul\":11669:11671   */\n      0x20\n        /* \"#utility.yul\":11658:11667   */\n      dup3\n        /* \"#utility.yul\":11654:11672   */\n      add\n        /* \"#utility.yul\":11646:11672   */\n      swap1\n      pop\n        /* \"#utility.yul\":11718:11727   */\n      dup2\n        /* \"#utility.yul\":11712:11716   */\n      dup2\n        /* \"#utility.yul\":11708:11728   */\n      sub\n        /* \"#utility.yul\":11704:11705   */\n      0x00\n        /* \"#utility.yul\":11693:11702   */\n      dup4\n        /* \"#utility.yul\":11689:11706   */\n      add\n        /* \"#utility.yul\":11682:11729   */\n      mstore\n        /* \"#utility.yul\":11746:11877   */\n      tag_492\n        /* \"#utility.yul\":11872:11876   */\n      dup2\n        /* \"#utility.yul\":11746:11877   */\n      tag_451\n      jump\t// in\n    tag_492:\n        /* \"#utility.yul\":11738:11877   */\n      swap1\n      pop\n        /* \"#utility.yul\":11636:11884   */\n      swap2\n      swap1\n      pop\n      jump\t// out\n        /* \"#utility.yul\":11890:12309   */\n    tag_315:\n      0x00\n        /* \"#utility.yul\":12094:12096   */\n      0x20\n        /* \"#utility.yul\":12083:12092   */\n      dup3\n        /* \"#utility.yul\":12079:12097   */\n      add\n        /* \"#utility.yul\":12071:12097   */\n      swap1\n      pop\n        /* \"#utility.yul\":12143:12152   */\n      dup2\n        /* \"#utility.yul\":12137:12141   */\n      dup2\n        /* \"#utility.yul\":12133:12153   */\n      sub\n        /* \"#utility.yul\":12129:12130   */\n      0x00\n        /* \"#utility.yul\":12118:12127   */\n      dup4\n        /* \"#utility.yul\":12114:12131   */\n      add\n        /* \"#utility.yul\":12107:12154   */\n      mstore\n        /* \"#utility.yul\":12171:12302   */\n      tag_494\n        /* \"#utility.yul\":12297:12301   */\n      dup2\n        /* \"#utility.yul\":12171:12302   */\n      tag_454\n      jump\t// in\n    tag_494:\n        /* \"#utility.yul\":12163:12302   */\n      swap1\n      pop\n        /* \"#utility.yul\":12061:12309   */\n      swap2\n      swap1\n      pop\n      jump\t// out\n        /* \"#utility.yul\":12315:12734   */\n    tag_136:\n      0x00\n        /* \"#utility.yul\":12519:12521   */\n      0x20\n        /* \"#utility.yul\":12508:12517   */\n      dup3\n        /* \"#utility.yul\":12504:12522   */\n      add\n        /* \"#utility.yul\":12496:12522   */\n      swap1\n      pop\n        /* \"#utility.yul\":12568:12577   */\n      dup2\n        /* \"#utility.yul\":12562:12566   */\n      dup2\n        /* \"#utility.yul\":12558:12578   */\n      sub\n        /* \"#utility.yul\":12554:12555   */\n      0x00\n        /* \"#utility.yul\":12543:12552   */\n      dup4\n        /* \"#utility.yul\":12539:12556   */\n      add\n        /* \"#utility.yul\":12532:12579   */\n      mstore\n        /* \"#utility.yul\":12596:12727   */\n      tag_496\n        /* \"#utility.yul\":12722:12726   */\n      dup2\n        /* \"#utility.yul\":12596:12727   */\n      tag_457\n      jump\t// in\n    tag_496:\n        /* \"#utility.yul\":12588:12727   */\n      swap1\n      pop\n        /* \"#utility.yul\":12486:12734   */\n      swap2\n      swap1\n      pop\n      jump\t// out\n        /* \"#utility.yul\":12740:13159   */\n    tag_144:\n      0x00\n        /* \"#utility.yul\":12944:12946   */\n      0x20\n        /* \"#utility.yul\":12933:12942   */\n      dup3\n        /* \"#utility.yul\":12929:12947   */\n      add\n        /* \"#utility.yul\":12921:12947   */\n      swap1\n      pop\n        /* \"#utility.yul\":12993:13002   */\n      dup2\n        /* \"#utility.yul\":12987:12991   */\n      dup2\n        /* \"#utility.yul\":12983:13003   */\n      sub\n        /* \"#utility.yul\":12979:12980   */\n      0x00\n        /* \"#utility.yul\":12968:12977   */\n      dup4\n        /* \"#utility.yul\":12964:12981   */\n      add\n        /* \"#utility.yul\":12957:13004   */\n      mstore\n        /* \"#utility.yul\":13021:13152   */\n      tag_498\n        /* \"#utility.yul\":13147:13151   */\n      dup2\n        /* \"#utility.yul\":13021:13152   */\n      tag_460\n      jump\t// in\n    tag_498:\n        /* \"#utility.yul\":13013:13152   */\n      swap1\n      pop\n        /* \"#utility.yul\":12911:13159   */\n      swap2\n      swap1\n      pop\n      jump\t// out\n        /* \"#utility.yul\":13165:13387   */\n    tag_284:\n      0x00\n        /* \"#utility.yul\":13296:13298   */\n      0x20\n        /* \"#utility.yul\":13285:13294   */\n      dup3\n        /* \"#utility.yul\":13281:13299   */\n      add\n        /* \"#utility.yul\":13273:13299   */\n      swap1\n      pop\n        /* \"#utility.yul\":13309:13380   */\n      tag_500\n        /* \"#utility.yul\":13377:13378   */\n      0x00\n        /* \"#utility.yul\":13366:13375   */\n      dup4\n        /* \"#utility.yul\":13362:13379   */\n      add\n        /* \"#utility.yul\":13353:13359   */\n      dup5\n        /* \"#utility.yul\":13309:13380   */\n      tag_467\n      jump\t// in\n    tag_500:\n        /* \"#utility.yul\":13263:13387   */\n      swap3\n      swap2\n      pop\n      pop\n      jump\t// out\n        /* \"#utility.yul\":13393:13831   */\n    tag_110:\n      0x00\n        /* \"#utility.yul\":13578:13580   */\n      0x60\n        /* \"#utility.yul\":13567:13576   */\n      dup3\n        /* \"#utility.yul\":13563:13581   */\n      add\n        /* \"#utility.yul\":13555:13581   */\n      swap1\n      pop\n        /* \"#utility.yul\":13591:13662   */\n      tag_502\n        /* \"#utility.yul\":13659:13660   */\n      0x00\n        /* \"#utility.yul\":13648:13657   */\n      dup4\n        /* \"#utility.yul\":13644:13661   */\n      add\n        /* \"#utility.yul\":13635:13641   */\n      dup7\n        /* \"#utility.yul\":13591:13662   */\n      tag_463\n      jump\t// in\n    tag_502:\n        /* \"#utility.yul\":13672:13744   */\n      tag_503\n        /* \"#utility.yul\":13740:13742   */\n      0x20\n        /* \"#utility.yul\":13729:13738   */\n      dup4\n        /* \"#utility.yul\":13725:13743   */\n      add\n        /* \"#utility.yul\":13716:13722   */\n      dup6\n        /* \"#utility.yul\":13672:13744   */\n      tag_463\n      jump\t// in\n    tag_503:\n        /* \"#utility.yul\":13754:13824   */\n      tag_504\n        /* \"#utility.yul\":13820:13822   */\n      0x40\n        /* \"#utility.yul\":13809:13818   */\n      dup4\n        /* \"#utility.yul\":13805:13823   */\n      add\n        /* \"#utility.yul\":13796:13802   */\n      dup5\n        /* \"#utility.yul\":13754:13824   */\n      tag_475\n      jump\t// in\n    tag_504:\n        /* \"#utility.yul\":13545:13831   */\n      swap5\n      swap4\n      pop\n      pop\n      pop\n      pop\n      jump\t// out\n        /* \"#utility.yul\":13837:14059   */\n    tag_38:\n      0x00\n        /* \"#utility.yul\":13968:13970   */\n      0x20\n        /* \"#utility.yul\":13957:13966   */\n      dup3\n        /* \"#utility.yul\":13953:13971   */\n      add\n        /* \"#utility.yul\":13945:13971   */\n      swap1\n      pop\n        /* \"#utility.yul\":13981:14052   */\n      tag_506\n        /* \"#utility.yul\":14049:14050   */\n      0x00\n        /* \"#utility.yul\":14038:14047   */\n      dup4\n        /* \"#utility.yul\":14034:14051   */\n      add\n        /* \"#utility.yul\":14025:14031   */\n      dup5\n        /* \"#utility.yul\":13981:14052   */\n      tag_471\n      jump\t// in\n    tag_506:\n        /* \"#utility.yul\":13935:14059   */\n      swap3\n      swap2\n      pop\n      pop\n      jump\t// out\n        /* \"#utility.yul\":14065:14507   */\n    tag_33:\n      0x00\n        /* \"#utility.yul\":14252:14254   */\n      0x60\n        /* \"#utility.yul\":14241:14250   */\n      dup3\n        /* \"#utility.yul\":14237:14255   */\n      add\n        /* \"#utility.yul\":14229:14255   */\n      swap1\n      pop\n        /* \"#utility.yul\":14265:14336   */\n      tag_508\n        /* \"#utility.yul\":14333:14334   */\n      0x00\n        /* \"#utility.yul\":14322:14331   */\n      dup4\n        /* \"#utility.yul\":14318:14335   */\n      add\n        /* \"#utility.yul\":14309:14315   */\n      dup7\n        /* \"#utility.yul\":14265:14336   */\n      tag_471\n      jump\t// in\n    tag_508:\n        /* \"#utility.yul\":14346:14418   */\n      tag_509\n        /* \"#utility.yul\":14414:14416   */\n      0x20\n        /* \"#utility.yul\":14403:14412   */\n      dup4\n        /* \"#utility.yul\":14399:14417   */\n      add\n        /* \"#utility.yul\":14390:14396   */\n      dup6\n        /* \"#utility.yul\":14346:14418   */\n      tag_471\n      jump\t// in\n    tag_509:\n        /* \"#utility.yul\":14428:14500   */\n      tag_510\n        /* \"#utility.yul\":14496:14498   */\n      0x40\n        /* \"#utility.yul\":14485:14494   */\n      dup4\n        /* \"#utility.yul\":14481:14499   */\n      add\n        /* \"#utility.yul\":14472:14478   */\n      dup5\n        /* \"#utility.yul\":14428:14500   */\n      tag_471\n      jump\t// in\n    tag_510:\n        /* \"#utility.yul\":14219:14507   */\n      swap5\n      swap4\n      pop\n      pop\n      pop\n      pop\n      jump\t// out\n        /* \"#utility.yul\":14513:14727   */\n    tag_90:\n      0x00\n        /* \"#utility.yul\":14640:14642   */\n      0x20\n        /* \"#utility.yul\":14629:14638   */\n      dup3\n        /* \"#utility.yul\":14625:14643   */\n      add\n        /* \"#utility.yul\":14617:14643   */\n      swap1\n      pop\n        /* \"#utility.yul\":14653:14720   */\n      tag_512\n        /* \"#utility.yul\":14717:14718   */\n      0x00\n        /* \"#utility.yul\":14706:14715   */\n      dup4\n        /* \"#utility.yul\":14702:14719   */\n      add\n        /* \"#utility.yul\":14693:14699   */\n      dup5\n        /* \"#utility.yul\":14653:14720   */\n      tag_479\n      jump\t// in\n    tag_512:\n        /* \"#utility.yul\":14607:14727   */\n      swap3\n      swap2\n      pop\n      pop\n      jump\t// out\n        /* \"#utility.yul\":14733:14902   */\n    tag_444:\n      0x00\n        /* \"#utility.yul\":14851:14857   */\n      dup3\n        /* \"#utility.yul\":14846:14849   */\n      dup3\n        /* \"#utility.yul\":14839:14858   */\n      mstore\n        /* \"#utility.yul\":14891:14895   */\n      0x20\n        /* \"#utility.yul\":14886:14889   */\n      dup3\n        /* \"#utility.yul\":14882:14896   */\n      add\n        /* \"#utility.yul\":14867:14896   */\n      swap1\n      pop\n        /* \"#utility.yul\":14829:14902   */\n      swap3\n      swap2\n      pop\n      pop\n      jump\t// out\n        /* \"#utility.yul\":14908:15004   */\n    tag_440:\n      0x00\n        /* \"#utility.yul\":14974:14998   */\n      tag_515\n        /* \"#utility.yul\":14992:14997   */\n      dup3\n        /* \"#utility.yul\":14974:14998   */\n      tag_516\n      jump\t// in\n    tag_515:\n        /* \"#utility.yul\":14963:14998   */\n      swap1\n      pop\n        /* \"#utility.yul\":14953:15004   */\n      swap2\n      swap1\n      pop\n      jump\t// out\n        /* \"#utility.yul\":15010:15122   */\n    tag_466:\n      0x00\n        /* \"#utility.yul\":15087:15115   */\n      0xffffffffffffffffffffffffff\n        /* \"#utility.yul\":15080:15085   */\n      dup3\n        /* \"#utility.yul\":15076:15116   */\n      and\n        /* \"#utility.yul\":15065:15116   */\n      swap1\n      pop\n        /* \"#utility.yul\":15055:15122   */\n      swap2\n      swap1\n      pop\n      jump\t// out\n        /* \"#utility.yul\":15128:15254   */\n    tag_516:\n      0x00\n        /* \"#utility.yul\":15205:15247   */\n      0xffffffffffffffffffffffffffffffffffffffff\n        /* \"#utility.yul\":15198:15203   */\n      dup3\n        /* \"#utility.yul\":15194:15248   */\n      and\n        /* \"#utility.yul\":15183:15248   */\n      swap1\n      pop\n        /* \"#utility.yul\":15173:15254   */\n      swap2\n      swap1\n      pop\n      jump\t// out\n        /* \"#utility.yul\":15260:15337   */\n    tag_474:\n      0x00\n        /* \"#utility.yul\":15326:15331   */\n      dup2\n        /* \"#utility.yul\":15315:15331   */\n      swap1\n      pop\n        /* \"#utility.yul\":15305:15337   */\n      swap2\n      swap1\n      pop\n      jump\t// out\n        /* \"#utility.yul\":15343:15438   */\n    tag_478:\n      0x00\n        /* \"#utility.yul\":15419:15431   */\n      0xffffffffff\n        /* \"#utility.yul\":15412:15417   */\n      dup3\n        /* \"#utility.yul\":15408:15432   */\n      and\n        /* \"#utility.yul\":15397:15432   */\n      swap1\n      pop\n        /* \"#utility.yul\":15387:15438   */\n      swap2\n      swap1\n      pop\n      jump\t// out\n        /* \"#utility.yul\":15444:15530   */\n    tag_482:\n      0x00\n        /* \"#utility.yul\":15519:15523   */\n      0xff\n        /* \"#utility.yul\":15512:15517   */\n      dup3\n        /* \"#utility.yul\":15508:15524   */\n      and\n        /* \"#utility.yul\":15497:15524   */\n      swap1\n      pop\n        /* \"#utility.yul\":15487:15530   */\n      swap2\n      swap1\n      pop\n      jump\t// out\n        /* \"#utility.yul\":15536:15649   */\n    tag_470:\n      0x00\n        /* \"#utility.yul\":15619:15643   */\n      tag_523\n        /* \"#utility.yul\":15637:15642   */\n      dup3\n        /* \"#utility.yul\":15619:15643   */\n      tag_466\n      jump\t// in\n    tag_523:\n        /* \"#utility.yul\":15606:15643   */\n      swap1\n      pop\n        /* \"#utility.yul\":15596:15649   */\n      swap2\n      swap1\n      pop\n      jump\t// out\n        /* \"#utility.yul\":15655:15777   */\n    tag_368:\n        /* \"#utility.yul\":15728:15752   */\n      tag_525\n        /* \"#utility.yul\":15746:15751   */\n      dup2\n        /* \"#utility.yul\":15728:15752   */\n      tag_440\n      jump\t// in\n    tag_525:\n        /* \"#utility.yul\":15721:15726   */\n      dup2\n        /* \"#utility.yul\":15718:15753   */\n      eq\n        /* \"#utility.yul\":15708:15710   */\n      tag_526\n      jumpi\n        /* \"#utility.yul\":15767:15768   */\n      0x00\n        /* \"#utility.yul\":15764:15765   */\n      dup1\n        /* \"#utility.yul\":15757:15769   */\n      revert\n        /* \"#utility.yul\":15708:15710   */\n    tag_526:\n        /* \"#utility.yul\":15698:15777   */\n      pop\n      jump\t// out\n        /* \"#utility.yul\":15783:15905   */\n    tag_382:\n        /* \"#utility.yul\":15856:15880   */\n      tag_528\n        /* \"#utility.yul\":15874:15879   */\n      dup2\n        /* \"#utility.yul\":15856:15880   */\n      tag_474\n      jump\t// in\n    tag_528:\n        /* \"#utility.yul\":15849:15854   */\n      dup2\n        /* \"#utility.yul\":15846:15881   */\n      eq\n        /* \"#utility.yul\":15836:15838   */\n      tag_529\n      jumpi\n        /* \"#utility.yul\":15895:15896   */\n      0x00\n        /* \"#utility.yul\":15892:15893   */\n      dup1\n        /* \"#utility.yul\":15885:15897   */\n      revert\n        /* \"#utility.yul\":15836:15838   */\n    tag_529:\n        /* \"#utility.yul\":15826:15905   */\n      pop\n      jump\t// out\n    stop\n    data_9fbba6c4dcac9134893b633b9564f36435b3f927c1d5fa152c5c14b20cecb1a4 436f6e747261637420696e7374616e63652068617320616c7265616479206265656e20696e697469616c697a6564\n    data_e11ad79d1e4a7f2e5f376964cb99e8e8f7904e3fc16a109f7a7ecb9aa7956dcd 5361666545524332303a204552433230206f7065726174696f6e20646964206e6f742073756363656564\n\n    auxdata: 0xa26469706673582212208ddb6503f8a391f3aa4620a5fb5787cd6782c4c0ca8381ffa562d248171ad38e64736f6c63430007050033\n}\n",
				"bytecode": {
					"linkReferences": {},
					"object": "60c0604052600080553480156200001557600080fd5b506040516200313b3803806200313b83398181016040528101906200003b9190620000e5565b8181808073ffffffffffffffffffffffffffffffffffffffff1660808173ffffffffffffffffffffffffffffffffffffffff1660601b81525050508173ffffffffffffffffffffffffffffffffffffffff1660a08173ffffffffffffffffffffffffffffffffffffffff1660601b8152505050505050620001a2565b600081519050620000c8816200016e565b92915050565b600081519050620000df8162000188565b92915050565b60008060408385031215620000f957600080fd5b60006200010985828601620000ce565b92505060206200011c85828601620000b7565b9150509250929050565b600062000133826200014e565b9050919050565b6000620001478262000126565b9050919050565b600073ffffffffffffffffffffffffffffffffffffffff82169050919050565b620001798162000126565b81146200018557600080fd5b50565b62000193816200013a565b81146200019f57600080fd5b50565b60805160601c60a05160601c612f56620001e5600039806110bb5280611e425250806108215280610b3e52806111fb52806112c552806113da5250612f566000f3fe608060405234801561001057600080fd5b50600436106101425760003560e01c8063919cd40f116100b8578063cc69afec1161007c578063cc69afec146103b1578063dde43cba146103cf578063e23ddec5146103ed578063f11b81881461040b578063f5bb3e021461043d578063f5cf673b1461045957610142565b8063919cd40f1461031d57806399248ea71461033b578063aaf5eb6814610359578063c4d66de814610377578063cbcbb5071461039357610142565b806339ccbdd31161010a57806339ccbdd31461022557806341485304146102415780636d34b96e1461027157806374d945ec146102a157806379f171b2146102d15780638b599f26146102ed57610142565b80631652e7b714610147578063198fa81e146101795780633111e7b3146101a957806331873e2e146101d95780633373ee4c146101f5575b600080fd5b610161600480360381019061015c91906126b7565b610475565b60405161017093929190612db2565b60405180910390f35b610193600480360381019061018e91906126b7565b6105c1565b6040516101a09190612d97565b60405180910390f35b6101c360048036038101906101be9190612890565b61060a565b6040516101d09190612d97565b60405180910390f35b6101f360048036038101906101ee919061271c565b610693565b005b61020f600480360381019061020a91906126e0565b610795565b60405161021c9190612d97565b60405180910390f35b61023f600480360381019061023a919061297c565b61081f565b005b61025b60048036038101906102569190612838565b6108ee565b6040516102689190612d97565b60405180910390f35b61028b600480360381019061028691906128fc565b610907565b6040516102989190612d97565b60405180910390f35b6102bb60048036038101906102b691906126b7565b610ad3565b6040516102c89190612c4a565b60405180910390f35b6102eb60048036038101906102e691906127c3565b610b3c565b005b6103076004803603810190610302919061276b565b610e80565b6040516103149190612d97565b60405180910390f35b6103256110af565b6040516103329190612d97565b60405180910390f35b6103436110b9565b6040516103509190612c4a565b60405180910390f35b6103616110dd565b60405161036e9190612de9565b60405180910390f35b610391600480360381019061038c91906126b7565b6110e2565b005b61039b6111f9565b6040516103a89190612c4a565b60405180910390f35b6103b961121d565b6040516103c69190612d97565b60405180910390f35b6103d7611227565b6040516103e49190612d97565b60405180910390f35b6103f561122c565b6040516104029190612c4a565b60405180910390f35b610425600480360381019061042091906126b7565b611256565b60405161043493929190612d60565b60405180910390f35b610457600480360381019061045291906126b7565b6112c3565b005b610473600480360381019061046e91906126e0565b6113d8565b005b6000806000603360008573ffffffffffffffffffffffffffffffffffffffff1673ffffffffffffffffffffffffffffffffffffffff168152602001908152602001600020600001600d9054906101000a90046cffffffffffffffffffffffffff16603360008673ffffffffffffffffffffffffffffffffffffffff1673ffffffffffffffffffffffffffffffffffffffff16815260200190815260200160002060000160009054906101000a90046cffffffffffffffffffffffffff16603360008773ffffffffffffffffffffffffffffffffffffffff1673ffffffffffffffffffffffffffffffffffffffff168152602001908152602001600020600001601a9054906101000a900464ffffffffff16826cffffffffffffffffffffffffff169250816cffffffffffffffffffffffffff1691508064ffffffffff1690509250925092509193909250565b6000603560008373ffffffffffffffffffffffffffffffffffffffff1673ffffffffffffffffffffffffffffffffffffffff168152602001908152602001600020549050919050565b60008073ffffffffffffffffffffffffffffffffffffffff168273ffffffffffffffffffffffffffffffffffffffff16141561067b576040517f08c379a000000000000000000000000000000000000000000000000000000000815260040161067290612c85565b60405180910390fd5b610689858585333387611542565b9050949350505050565b60006106a1843384866118e0565b90506000811461078f576106fd81603560008773ffffffffffffffffffffffffffffffffffffffff1673ffffffffffffffffffffffffffffffffffffffff16815260200190815260200160002054611a5290919063ffffffff16565b603560008673ffffffffffffffffffffffffffffffffffffffff1673ffffffffffffffffffffffffffffffffffffffff168152602001908152602001600020819055508373ffffffffffffffffffffffffffffffffffffffff167f2468f9268c60ad90e2d49edb0032c8a001e733ae888b3ab8e982edf535be1a76826040516107869190612d97565b60405180910390a25b50505050565b6000603360008373ffffffffffffffffffffffffffffffffffffffff1673ffffffffffffffffffffffffffffffffffffffff16815260200190815260200160002060010160008473ffffffffffffffffffffffffffffffffffffffff1673ffffffffffffffffffffffffffffffffffffffff16815260200190815260200160002054905092915050565b7f000000000000000000000000000000000000000000000000000000000000000073ffffffffffffffffffffffffffffffffffffffff163373ffffffffffffffffffffffffffffffffffffffff16146108ad576040517f08c379a00000000000000000000000000000000000000000000000000000000081526004016108a490612d05565b60405180910390fd5b806034819055507f1cc1849a6602c3e91f2088cadea4381cc5717f2f28584197060ed2ebb434c16f816040516108e39190612d97565b60405180910390a150565b60006108fe848484333333611542565b90509392505050565b600033838173ffffffffffffffffffffffffffffffffffffffff16603660008373ffffffffffffffffffffffffffffffffffffffff1673ffffffffffffffffffffffffffffffffffffffff16815260200190815260200160002060009054906101000a900473ffffffffffffffffffffffffffffffffffffffff1673ffffffffffffffffffffffffffffffffffffffff16146109d8576040517f08c379a00000000000000000000000000000000000000000000000000000000081526004016109cf90612d25565b60405180910390fd5b600073ffffffffffffffffffffffffffffffffffffffff168573ffffffffffffffffffffffffffffffffffffffff161415610a48576040517f08c379a0000000000000000000000000000000000000000000000000000000008152600401610a3f90612c65565b60405180910390fd5b600073ffffffffffffffffffffffffffffffffffffffff168473ffffffffffffffffffffffffffffffffffffffff161415610ab8576040517f08c379a0000000000000000000000000000000000000000000000000000000008152600401610aaf90612c85565b60405180910390fd5b610ac6888888338989611542565b9250505095945050505050565b6000603660008373ffffffffffffffffffffffffffffffffffffffff1673ffffffffffffffffffffffffffffffffffffffff16815260200190815260200160002060009054906101000a900473ffffffffffffffffffffffffffffffffffffffff169050919050565b7f000000000000000000000000000000000000000000000000000000000000000073ffffffffffffffffffffffffffffffffffffffff163373ffffffffffffffffffffffffffffffffffffffff1614610bca576040517f08c379a0000000000000000000000000000000000000000000000000000000008152600401610bc190612d05565b60405180910390fd5b818190508484905014610c12576040517f08c379a0000000000000000000000000000000000000000000000000000000008152600401610c0990612ca5565b60405180910390fd5b60608484905067ffffffffffffffff81118015610c2e57600080fd5b50604051908082528060200260200182016040528015610c6857816020015b610c55612567565b815260200190600190039081610c4d5790505b50905060005b85859050811015610e6f57838382818110610c8557fe5b90506020020135848483818110610c9857fe5b905060200201356cffffffffffffffffffffffffff1614610cee576040517f08c379a0000000000000000000000000000000000000000000000000000000008152600401610ce590612cc5565b60405180910390fd5b858582818110610cfa57fe5b9050602002016020810190610d0f91906126b7565b828281518110610d1b57fe5b60200260200101516040019073ffffffffffffffffffffffffffffffffffffffff16908173ffffffffffffffffffffffffffffffffffffffff1681525050838382818110610d6557fe5b90506020020135828281518110610d7857fe5b6020026020010151600001906cffffffffffffffffffffffffff1690816cffffffffffffffffffffffffff1681525050858582818110610db457fe5b9050602002016020810190610dc991906126b7565b73ffffffffffffffffffffffffffffffffffffffff1663b1bf962d6040518163ffffffff1660e01b815260040160206040518083038186803b158015610e0e57600080fd5b505afa158015610e22573d6000803e3d6000fd5b505050506040513d601f19601f82011682018060405250810190610e4691906129a5565b828281518110610e5257fe5b602002602001015160200181815250508080600101915050610c6e565b50610e7981611a6c565b5050505050565b600080603560008473ffffffffffffffffffffffffffffffffffffffff1673ffffffffffffffffffffffffffffffffffffffff16815260200190815260200160002054905060608585905067ffffffffffffffff81118015610ee157600080fd5b50604051908082528060200260200182016040528015610f1b57816020015b610f086125ad565b815260200190600190039081610f005790505b50905060005b8686905081101561108457868682818110610f3857fe5b9050602002016020810190610f4d91906126b7565b828281518110610f5957fe5b60200260200101516000019073ffffffffffffffffffffffffffffffffffffffff16908173ffffffffffffffffffffffffffffffffffffffff1681525050868682818110610fa357fe5b9050602002016020810190610fb891906126b7565b73ffffffffffffffffffffffffffffffffffffffff16630afbcdc9866040518263ffffffff1660e01b8152600401610ff09190612c4a565b604080518083038186803b15801561100757600080fd5b505afa15801561101b573d6000803e3d6000fd5b505050506040513d601f19601f8201168201806040525081019061103f91906129ce565b83838151811061104b57fe5b602002602001015160200184848151811061106257fe5b6020026020010151604001828152508281525050508080600101915050610f21565b506110a16110928583611be6565b83611a5290919063ffffffff16565b915081925050509392505050565b6000603454905090565b7f000000000000000000000000000000000000000000000000000000000000000081565b601281565b60006110ec611d7f565b90506000548111611148576040517f08c379a000000000000000000000000000000000000000000000000000000000815260040180806020018281038252602e815260200180612ec9602e913960400191505060405180910390fd5b8060008190555081603760006101000a81548173ffffffffffffffffffffffffffffffffffffffff021916908373ffffffffffffffffffffffffffffffffffffffff160217905550603760009054906101000a900473ffffffffffffffffffffffffffffffffffffffff1673ffffffffffffffffffffffffffffffffffffffff167f28a48cbce43190d77247f342cf319b1607bff4ef716cf26b76cf7bb71baebaa560405160405180910390a25050565b7f000000000000000000000000000000000000000000000000000000000000000081565b6000603454905090565b600181565b6000603760009054906101000a900473ffffffffffffffffffffffffffffffffffffffff16905090565b60336020528060005260406000206000915090508060000160009054906101000a90046cffffffffffffffffffffffffff169080600001600d9054906101000a90046cffffffffffffffffffffffffff169080600001601a9054906101000a900464ffffffffff16905083565b7f000000000000000000000000000000000000000000000000000000000000000073ffffffffffffffffffffffffffffffffffffffff163373ffffffffffffffffffffffffffffffffffffffff1614611351576040517f08c379a000000000000000000000000000000000000000000000000000000000815260040161134890612d05565b60405180910390fd5b80603760006101000a81548173ffffffffffffffffffffffffffffffffffffffff021916908373ffffffffffffffffffffffffffffffffffffffff1602179055508073ffffffffffffffffffffffffffffffffffffffff167f28a48cbce43190d77247f342cf319b1607bff4ef716cf26b76cf7bb71baebaa560405160405180910390a250565b7f000000000000000000000000000000000000000000000000000000000000000073ffffffffffffffffffffffffffffffffffffffff163373ffffffffffffffffffffffffffffffffffffffff1614611466576040517f08c379a000000000000000000000000000000000000000000000000000000000815260040161145d90612d05565b60405180910390fd5b80603660008473ffffffffffffffffffffffffffffffffffffffff1673ffffffffffffffffffffffffffffffffffffffff16815260200190815260200160002060006101000a81548173ffffffffffffffffffffffffffffffffffffffff021916908373ffffffffffffffffffffffffffffffffffffffff1602179055508073ffffffffffffffffffffffffffffffffffffffff168273ffffffffffffffffffffffffffffffffffffffff167f4925eafc82d0c4d67889898eeed64b18488ab19811e61620f387026dec126a2860405160405180910390a35050565b60008085141561155557600090506118d6565b6000603560008573ffffffffffffffffffffffffffffffffffffffff1673ffffffffffffffffffffffffffffffffffffffff168152602001908152602001600020549050808611156117de5760608888905067ffffffffffffffff811180156115bd57600080fd5b506040519080825280602002602001820160405280156115f757816020015b6115e46125ad565b8152602001906001900390816115dc5790505b50905060005b898990508110156117605789898281811061161457fe5b905060200201602081019061162991906126b7565b82828151811061163557fe5b60200260200101516000019073ffffffffffffffffffffffffffffffffffffffff16908173ffffffffffffffffffffffffffffffffffffffff168152505089898281811061167f57fe5b905060200201602081019061169491906126b7565b73ffffffffffffffffffffffffffffffffffffffff16630afbcdc9876040518263ffffffff1660e01b81526004016116cc9190612c4a565b604080518083038186803b1580156116e357600080fd5b505afa1580156116f7573d6000803e3d6000fd5b505050506040513d601f19601f8201168201806040525081019061171b91906129ce565b83838151811061172757fe5b602002602001015160200184848151811061173e57fe5b60200260200101516040018281525082815250505080806001019150506115fd565b50600061176d8683611d88565b9050600081146117db5761178a8184611a5290919063ffffffff16565b92508573ffffffffffffffffffffffffffffffffffffffff167f2468f9268c60ad90e2d49edb0032c8a001e733ae888b3ab8e982edf535be1a76826040516117d29190612d97565b60405180910390a25b50505b60008114156117f15760009150506118d6565b60008187116118005786611802565b815b9050808203603560008773ffffffffffffffffffffffffffffffffffffffff1673ffffffffffffffffffffffffffffffffffffffff168152602001908152602001600020819055506118548482611e18565b8573ffffffffffffffffffffffffffffffffffffffff168473ffffffffffffffffffffffffffffffffffffffff168673ffffffffffffffffffffffffffffffffffffffff167f5637d7f962248a7f05a7ab69eec6446e31f3d0a299d997f135a65c62806e7891846040516118c89190612d97565b60405180910390a480925050505b9695505050505050565b600080603360008673ffffffffffffffffffffffffffffffffffffffff1673ffffffffffffffffffffffffffffffffffffffff168152602001908152602001600020905060008160010160008873ffffffffffffffffffffffffffffffffffffffff1673ffffffffffffffffffffffffffffffffffffffff168152602001908152602001600020549050600080611978888588611e8b565b9050808314611a4357600087146119975761199487828561207e565b91505b808460010160008b73ffffffffffffffffffffffffffffffffffffffff1673ffffffffffffffffffffffffffffffffffffffff168152602001908152602001600020819055508773ffffffffffffffffffffffffffffffffffffffff168973ffffffffffffffffffffffffffffffffffffffff167fbb123b5c06d5408bbea3c4fef481578175cfb432e3b482c6186f02ed9086585b83604051611a3a9190612d97565b60405180910390a35b81945050505050949350505050565b6000828284019150811015611a6657600080fd5b92915050565b60005b8151811015611be257600060336000848481518110611a8a57fe5b60200260200101516040015173ffffffffffffffffffffffffffffffffffffffff1673ffffffffffffffffffffffffffffffffffffffff1681526020019081526020016000209050611b0b838381518110611ae157fe5b60200260200101516040015182858581518110611afa57fe5b602002602001015160200151611e8b565b50828281518110611b1857fe5b6020026020010151600001518160000160006101000a8154816cffffffffffffffffffffffffff02191690836cffffffffffffffffffffffffff160217905550828281518110611b6457fe5b60200260200101516040015173ffffffffffffffffffffffffffffffffffffffff167f87fa03892a0556cb6b8f97e6d533a150d4d55fcbf275fff5fa003fa636bcc7fa848481518110611bb357fe5b602002602001015160000151604051611bcc9190612d45565b60405180910390a2508080600101915050611a6f565b5050565b6000806000905060005b8351811015611d7457600060336000868481518110611c0b57fe5b60200260200101516000015173ffffffffffffffffffffffffffffffffffffffff1673ffffffffffffffffffffffffffffffffffffffff16815260200190815260200160002090506000611cec82600001600d9054906101000a90046cffffffffffffffffffffffffff166cffffffffffffffffffffffffff168360000160009054906101000a90046cffffffffffffffffffffffffff166cffffffffffffffffffffffffff1684600001601a9054906101000a900464ffffffffff1664ffffffffff16898781518110611cdb57fe5b6020026020010151604001516120be565b9050611d63611d54878581518110611d0057fe5b602002602001015160200151838560010160008c73ffffffffffffffffffffffffffffffffffffffff1673ffffffffffffffffffffffffffffffffffffffff1681526020019081526020016000205461207e565b85611a5290919063ffffffff16565b935050508080600101915050611bf0565b508091505092915050565b60006001905090565b6000806000905060005b8351811015611e0d57611dfe611def86868481518110611dae57fe5b602002602001015160000151878581518110611dc657fe5b602002602001015160200151888681518110611dde57fe5b6020026020010151604001516118e0565b83611a5290919063ffffffff16565b91508080600101915050611d92565b508091505092915050565b611e87603760009054906101000a900473ffffffffffffffffffffffffffffffffffffffff1683837f000000000000000000000000000000000000000000000000000000000000000073ffffffffffffffffffffffffffffffffffffffff166121b6909392919063ffffffff16565b5050565b60008083600001600d9054906101000a90046cffffffffffffffffffffffffff166cffffffffffffffffffffffffff16905060008460000160009054906101000a90046cffffffffffffffffffffffffff166cffffffffffffffffffffffffff169050600085600001601a9054906101000a900464ffffffffff1664ffffffffff169050806fffffffffffffffffffffffffffffffff16421415611f3457829350505050612077565b6000611f42848484896120be565b90508381146120495780816cffffffffffffffffffffffffff1614611f9c576040517f08c379a0000000000000000000000000000000000000000000000000000000008152600401611f9390612ce5565b60405180910390fd5b8087600001600d6101000a8154816cffffffffffffffffffffffffff02191690836cffffffffffffffffffffffffff1602179055504287600001601a6101000a81548164ffffffffff021916908364ffffffffff1602179055508773ffffffffffffffffffffffffffffffffffffffff167f5777ca300dfe5bead41006fbce4389794dbc0ed8d6cccebfaf94630aa04184bc8260405161203c9190612d97565b60405180910390a261206f565b4287600001601a6101000a81548164ffffffffff021916908364ffffffffff1602179055505b809450505050505b9392505050565b6000601260ff16600a0a6120ad61209e848661227790919063ffffffff16565b8661229190919063ffffffff16565b816120b457fe5b0490509392505050565b600080603454905060008514806120d55750600083145b806120f1575042846fffffffffffffffffffffffffffffffff16145b8061210e575080846fffffffffffffffffffffffffffffffff1610155b1561211c57859150506121ae565b600081421161212b574261212d565b815b90506000612156866fffffffffffffffffffffffffffffffff168361227790919063ffffffff16565b90506121a88861219a8761218c601260ff16600a0a61217e878e61229190919063ffffffff16565b61229190919063ffffffff16565b6122bd90919063ffffffff16565b611a5290919063ffffffff16565b93505050505b949350505050565b612271846323b872dd60e01b858585604051602401808473ffffffffffffffffffffffffffffffffffffffff1681526020018373ffffffffffffffffffffffffffffffffffffffff1681526020018281526020019350505050604051602081830303815290604052907bffffffffffffffffffffffffffffffffffffffffffffffffffffffff19166020820180517bffffffffffffffffffffffffffffffffffffffffffffffffffffffff83818316178352505050506122d1565b50505050565b600082828403915081111561228b57600080fd5b92915050565b6000808314806122ae57508183838502925082816122ab57fe5b04145b6122b757600080fd5b92915050565b60008183816122c857fe5b04905092915050565b6122f08273ffffffffffffffffffffffffffffffffffffffff1661251c565b612362576040517f08c379a000000000000000000000000000000000000000000000000000000000815260040180806020018281038252601f8152602001807f5361666545524332303a2063616c6c20746f206e6f6e2d636f6e74726163740081525060200191505060405180910390fd5b600060608373ffffffffffffffffffffffffffffffffffffffff16836040518082805190602001908083835b602083106123b1578051825260208201915060208101905060208303925061238e565b6001836020036101000a0380198251168184511680821785525050505050509050019150506000604051808303816000865af19150503d8060008114612413576040519150601f19603f3d011682016040523d82523d6000602084013e612418565b606091505b509150915081612490576040517f08c379a00000000000000000000000000000000000000000000000000000000081526004018080602001828103825260208152602001807f5361666545524332303a206c6f772d6c6576656c2063616c6c206661696c656481525060200191505060405180910390fd5b600081511115612516578080602001905160208110156124af57600080fd5b8101908080519060200190929190505050612515576040517f08c379a000000000000000000000000000000000000000000000000000000000815260040180806020018281038252602a815260200180612ef7602a913960400191505060405180910390fd5b5b50505050565b60008060007fc5d2460186f7233c927e7db2dcc703c0e500b653ca82273b7bfad8045d85a47060001b9050833f915080821415801561255e57506000801b8214155b92505050919050565b604051806060016040528060006cffffffffffffffffffffffffff16815260200160008152602001600073ffffffffffffffffffffffffffffffffffffffff1681525090565b6040518060600160405280600073ffffffffffffffffffffffffffffffffffffffff16815260200160008152602001600081525090565b6000813590506125f381612e9a565b92915050565b60008083601f84011261260b57600080fd5b8235905067ffffffffffffffff81111561262457600080fd5b60208301915083602082028301111561263c57600080fd5b9250929050565b60008083601f84011261265557600080fd5b8235905067ffffffffffffffff81111561266e57600080fd5b60208301915083602082028301111561268657600080fd5b9250929050565b60008135905061269c81612eb1565b92915050565b6000815190506126b181612eb1565b92915050565b6000602082840312156126c957600080fd5b60006126d7848285016125e4565b91505092915050565b600080604083850312156126f357600080fd5b6000612701858286016125e4565b9250506020612712858286016125e4565b9150509250929050565b60008060006060848603121561273157600080fd5b600061273f868287016125e4565b93505060206127508682870161268d565b92505060406127618682870161268d565b9150509250925092565b60008060006040848603121561278057600080fd5b600084013567ffffffffffffffff81111561279a57600080fd5b6127a6868287016125f9565b935093505060206127b9868287016125e4565b9150509250925092565b600080600080604085870312156127d957600080fd5b600085013567ffffffffffffffff8111156127f357600080fd5b6127ff878288016125f9565b9450945050602085013567ffffffffffffffff81111561281e57600080fd5b61282a87828801612643565b925092505092959194509250565b60008060006040848603121561284d57600080fd5b600084013567ffffffffffffffff81111561286757600080fd5b612873868287016125f9565b935093505060206128868682870161268d565b9150509250925092565b600080600080606085870312156128a657600080fd5b600085013567ffffffffffffffff8111156128c057600080fd5b6128cc878288016125f9565b945094505060206128df8782880161268d565b92505060406128f0878288016125e4565b91505092959194509250565b60008060008060006080868803121561291457600080fd5b600086013567ffffffffffffffff81111561292e57600080fd5b61293a888289016125f9565b9550955050602061294d8882890161268d565b935050604061295e888289016125e4565b925050606061296f888289016125e4565b9150509295509295909350565b60006020828403121561298e57600080fd5b600061299c8482850161268d565b91505092915050565b6000602082840312156129b757600080fd5b60006129c5848285016126a2565b91505092915050565b600080604083850312156129e157600080fd5b60006129ef858286016126a2565b9250506020612a00858286016126a2565b9150509250929050565b612a1381612e15565b82525050565b6000612a26601483612e04565b91507f494e56414c49445f555345525f414444524553530000000000000000000000006000830152602082019050919050565b6000612a66601283612e04565b91507f494e56414c49445f544f5f4144445245535300000000000000000000000000006000830152602082019050919050565b6000612aa6601583612e04565b91507f494e56414c49445f434f4e46494755524154494f4e00000000000000000000006000830152602082019050919050565b6000612ae6602483612e04565b91507f496e646578206f766572666c6f7720617420656d697373696f6e73506572536560008301527f636f6e64000000000000000000000000000000000000000000000000000000006020830152604082019050919050565b6000612b4c600e83612e04565b91507f496e646578206f766572666c6f770000000000000000000000000000000000006000830152602082019050919050565b6000612b8c601583612e04565b91507f4f4e4c595f454d495353494f4e5f4d414e4147455200000000000000000000006000830152602082019050919050565b6000612bcc601483612e04565b91507f434c41494d45525f554e415554484f52495a45440000000000000000000000006000830152602082019050919050565b612c0881612e27565b82525050565b612c1781612e88565b82525050565b612c2681612e60565b82525050565b612c3581612e6a565b82525050565b612c4481612e7b565b82525050565b6000602082019050612c5f6000830184612a0a565b92915050565b60006020820190508181036000830152612c7e81612a19565b9050919050565b60006020820190508181036000830152612c9e81612a59565b9050919050565b60006020820190508181036000830152612cbe81612a99565b9050919050565b60006020820190508181036000830152612cde81612ad9565b9050919050565b60006020820190508181036000830152612cfe81612b3f565b9050919050565b60006020820190508181036000830152612d1e81612b7f565b9050919050565b60006020820190508181036000830152612d3e81612bbf565b9050919050565b6000602082019050612d5a6000830184612c0e565b92915050565b6000606082019050612d756000830186612bff565b612d826020830185612bff565b612d8f6040830184612c2c565b949350505050565b6000602082019050612dac6000830184612c1d565b92915050565b6000606082019050612dc76000830186612c1d565b612dd46020830185612c1d565b612de16040830184612c1d565b949350505050565b6000602082019050612dfe6000830184612c3b565b92915050565b600082825260208201905092915050565b6000612e2082612e40565b9050919050565b60006cffffffffffffffffffffffffff82169050919050565b600073ffffffffffffffffffffffffffffffffffffffff82169050919050565b6000819050919050565b600064ffffffffff82169050919050565b600060ff82169050919050565b6000612e9382612e27565b9050919050565b612ea381612e15565b8114612eae57600080fd5b50565b612eba81612e60565b8114612ec557600080fd5b5056fe436f6e747261637420696e7374616e63652068617320616c7265616479206265656e20696e697469616c697a65645361666545524332303a204552433230206f7065726174696f6e20646964206e6f742073756363656564a26469706673582212208ddb6503f8a391f3aa4620a5fb5787cd6782c4c0ca8381ffa562d248171ad38e64736f6c63430007050033",
					"opcodes": "PUSH1 0xC0 PUSH1 0x40 MSTORE PUSH1 0x0 DUP1 SSTORE CALLVALUE DUP1 ISZERO PUSH3 0x15 JUMPI PUSH1 0x0 DUP1 REVERT JUMPDEST POP PUSH1 0x40 MLOAD PUSH3 0x313B CODESIZE SUB DUP1 PUSH3 0x313B DUP4 CODECOPY DUP2 DUP2 ADD PUSH1 0x40 MSTORE DUP2 ADD SWAP1 PUSH3 0x3B SWAP2 SWAP1 PUSH3 0xE5 JUMP JUMPDEST DUP2 DUP2 DUP1 DUP1 PUSH20 0xFFFFFFFFFFFFFFFFFFFFFFFFFFFFFFFFFFFFFFFF AND PUSH1 0x80 DUP2 PUSH20 0xFFFFFFFFFFFFFFFFFFFFFFFFFFFFFFFFFFFFFFFF AND PUSH1 0x60 SHL DUP2 MSTORE POP POP POP DUP2 PUSH20 0xFFFFFFFFFFFFFFFFFFFFFFFFFFFFFFFFFFFFFFFF AND PUSH1 0xA0 DUP2 PUSH20 0xFFFFFFFFFFFFFFFFFFFFFFFFFFFFFFFFFFFFFFFF AND PUSH1 0x60 SHL DUP2 MSTORE POP POP POP POP POP POP PUSH3 0x1A2 JUMP JUMPDEST PUSH1 0x0 DUP2 MLOAD SWAP1 POP PUSH3 0xC8 DUP2 PUSH3 0x16E JUMP JUMPDEST SWAP3 SWAP2 POP POP JUMP JUMPDEST PUSH1 0x0 DUP2 MLOAD SWAP1 POP PUSH3 0xDF DUP2 PUSH3 0x188 JUMP JUMPDEST SWAP3 SWAP2 POP POP JUMP JUMPDEST PUSH1 0x0 DUP1 PUSH1 0x40 DUP4 DUP6 SUB SLT ISZERO PUSH3 0xF9 JUMPI PUSH1 0x0 DUP1 REVERT JUMPDEST PUSH1 0x0 PUSH3 0x109 DUP6 DUP3 DUP7 ADD PUSH3 0xCE JUMP JUMPDEST SWAP3 POP POP PUSH1 0x20 PUSH3 0x11C DUP6 DUP3 DUP7 ADD PUSH3 0xB7 JUMP JUMPDEST SWAP2 POP POP SWAP3 POP SWAP3 SWAP1 POP JUMP JUMPDEST PUSH1 0x0 PUSH3 0x133 DUP3 PUSH3 0x14E JUMP JUMPDEST SWAP1 POP SWAP2 SWAP1 POP JUMP JUMPDEST PUSH1 0x0 PUSH3 0x147 DUP3 PUSH3 0x126 JUMP JUMPDEST SWAP1 POP SWAP2 SWAP1 POP JUMP JUMPDEST PUSH1 0x0 PUSH20 0xFFFFFFFFFFFFFFFFFFFFFFFFFFFFFFFFFFFFFFFF DUP3 AND SWAP1 POP SWAP2 SWAP1 POP JUMP JUMPDEST PUSH3 0x179 DUP2 PUSH3 0x126 JUMP JUMPDEST DUP2 EQ PUSH3 0x185 JUMPI PUSH1 0x0 DUP1 REVERT JUMPDEST POP JUMP JUMPDEST PUSH3 0x193 DUP2 PUSH3 0x13A JUMP JUMPDEST DUP2 EQ PUSH3 0x19F JUMPI PUSH1 0x0 DUP1 REVERT JUMPDEST POP JUMP JUMPDEST PUSH1 0x80 MLOAD PUSH1 0x60 SHR PUSH1 0xA0 MLOAD PUSH1 0x60 SHR PUSH2 0x2F56 PUSH3 0x1E5 PUSH1 0x0 CODECOPY DUP1 PUSH2 0x10BB MSTORE DUP1 PUSH2 0x1E42 MSTORE POP DUP1 PUSH2 0x821 MSTORE DUP1 PUSH2 0xB3E MSTORE DUP1 PUSH2 0x11FB MSTORE DUP1 PUSH2 0x12C5 MSTORE DUP1 PUSH2 0x13DA MSTORE POP PUSH2 0x2F56 PUSH1 0x0 RETURN INVALID PUSH1 0x80 PUSH1 0x40 MSTORE CALLVALUE DUP1 ISZERO PUSH2 0x10 JUMPI PUSH1 0x0 DUP1 REVERT JUMPDEST POP PUSH1 0x4 CALLDATASIZE LT PUSH2 0x142 JUMPI PUSH1 0x0 CALLDATALOAD PUSH1 0xE0 SHR DUP1 PUSH4 0x919CD40F GT PUSH2 0xB8 JUMPI DUP1 PUSH4 0xCC69AFEC GT PUSH2 0x7C JUMPI DUP1 PUSH4 0xCC69AFEC EQ PUSH2 0x3B1 JUMPI DUP1 PUSH4 0xDDE43CBA EQ PUSH2 0x3CF JUMPI DUP1 PUSH4 0xE23DDEC5 EQ PUSH2 0x3ED JUMPI DUP1 PUSH4 0xF11B8188 EQ PUSH2 0x40B JUMPI DUP1 PUSH4 0xF5BB3E02 EQ PUSH2 0x43D JUMPI DUP1 PUSH4 0xF5CF673B EQ PUSH2 0x459 JUMPI PUSH2 0x142 JUMP JUMPDEST DUP1 PUSH4 0x919CD40F EQ PUSH2 0x31D JUMPI DUP1 PUSH4 0x99248EA7 EQ PUSH2 0x33B JUMPI DUP1 PUSH4 0xAAF5EB68 EQ PUSH2 0x359 JUMPI DUP1 PUSH4 0xC4D66DE8 EQ PUSH2 0x377 JUMPI DUP1 PUSH4 0xCBCBB507 EQ PUSH2 0x393 JUMPI PUSH2 0x142 JUMP JUMPDEST DUP1 PUSH4 0x39CCBDD3 GT PUSH2 0x10A JUMPI DUP1 PUSH4 0x39CCBDD3 EQ PUSH2 0x225 JUMPI DUP1 PUSH4 0x41485304 EQ PUSH2 0x241 JUMPI DUP1 PUSH4 0x6D34B96E EQ PUSH2 0x271 JUMPI DUP1 PUSH4 0x74D945EC EQ PUSH2 0x2A1 JUMPI DUP1 PUSH4 0x79F171B2 EQ PUSH2 0x2D1 JUMPI DUP1 PUSH4 0x8B599F26 EQ PUSH2 0x2ED JUMPI PUSH2 0x142 JUMP JUMPDEST DUP1 PUSH4 0x1652E7B7 EQ PUSH2 0x147 JUMPI DUP1 PUSH4 0x198FA81E EQ PUSH2 0x179 JUMPI DUP1 PUSH4 0x3111E7B3 EQ PUSH2 0x1A9 JUMPI DUP1 PUSH4 0x31873E2E EQ PUSH2 0x1D9 JUMPI DUP1 PUSH4 0x3373EE4C EQ PUSH2 0x1F5 JUMPI JUMPDEST PUSH1 0x0 DUP1 REVERT JUMPDEST PUSH2 0x161 PUSH1 0x4 DUP1 CALLDATASIZE SUB DUP2 ADD SWAP1 PUSH2 0x15C SWAP2 SWAP1 PUSH2 0x26B7 JUMP JUMPDEST PUSH2 0x475 JUMP JUMPDEST PUSH1 0x40 MLOAD PUSH2 0x170 SWAP4 SWAP3 SWAP2 SWAP1 PUSH2 0x2DB2 JUMP JUMPDEST PUSH1 0x40 MLOAD DUP1 SWAP2 SUB SWAP1 RETURN JUMPDEST PUSH2 0x193 PUSH1 0x4 DUP1 CALLDATASIZE SUB DUP2 ADD SWAP1 PUSH2 0x18E SWAP2 SWAP1 PUSH2 0x26B7 JUMP JUMPDEST PUSH2 0x5C1 JUMP JUMPDEST PUSH1 0x40 MLOAD PUSH2 0x1A0 SWAP2 SWAP1 PUSH2 0x2D97 JUMP JUMPDEST PUSH1 0x40 MLOAD DUP1 SWAP2 SUB SWAP1 RETURN JUMPDEST PUSH2 0x1C3 PUSH1 0x4 DUP1 CALLDATASIZE SUB DUP2 ADD SWAP1 PUSH2 0x1BE SWAP2 SWAP1 PUSH2 0x2890 JUMP JUMPDEST PUSH2 0x60A JUMP JUMPDEST PUSH1 0x40 MLOAD PUSH2 0x1D0 SWAP2 SWAP1 PUSH2 0x2D97 JUMP JUMPDEST PUSH1 0x40 MLOAD DUP1 SWAP2 SUB SWAP1 RETURN JUMPDEST PUSH2 0x1F3 PUSH1 0x4 DUP1 CALLDATASIZE SUB DUP2 ADD SWAP1 PUSH2 0x1EE SWAP2 SWAP1 PUSH2 0x271C JUMP JUMPDEST PUSH2 0x693 JUMP JUMPDEST STOP JUMPDEST PUSH2 0x20F PUSH1 0x4 DUP1 CALLDATASIZE SUB DUP2 ADD SWAP1 PUSH2 0x20A SWAP2 SWAP1 PUSH2 0x26E0 JUMP JUMPDEST PUSH2 0x795 JUMP JUMPDEST PUSH1 0x40 MLOAD PUSH2 0x21C SWAP2 SWAP1 PUSH2 0x2D97 JUMP JUMPDEST PUSH1 0x40 MLOAD DUP1 SWAP2 SUB SWAP1 RETURN JUMPDEST PUSH2 0x23F PUSH1 0x4 DUP1 CALLDATASIZE SUB DUP2 ADD SWAP1 PUSH2 0x23A SWAP2 SWAP1 PUSH2 0x297C JUMP JUMPDEST PUSH2 0x81F JUMP JUMPDEST STOP JUMPDEST PUSH2 0x25B PUSH1 0x4 DUP1 CALLDATASIZE SUB DUP2 ADD SWAP1 PUSH2 0x256 SWAP2 SWAP1 PUSH2 0x2838 JUMP JUMPDEST PUSH2 0x8EE JUMP JUMPDEST PUSH1 0x40 MLOAD PUSH2 0x268 SWAP2 SWAP1 PUSH2 0x2D97 JUMP JUMPDEST PUSH1 0x40 MLOAD DUP1 SWAP2 SUB SWAP1 RETURN JUMPDEST PUSH2 0x28B PUSH1 0x4 DUP1 CALLDATASIZE SUB DUP2 ADD SWAP1 PUSH2 0x286 SWAP2 SWAP1 PUSH2 0x28FC JUMP JUMPDEST PUSH2 0x907 JUMP JUMPDEST PUSH1 0x40 MLOAD PUSH2 0x298 SWAP2 SWAP1 PUSH2 0x2D97 JUMP JUMPDEST PUSH1 0x40 MLOAD DUP1 SWAP2 SUB SWAP1 RETURN JUMPDEST PUSH2 0x2BB PUSH1 0x4 DUP1 CALLDATASIZE SUB DUP2 ADD SWAP1 PUSH2 0x2B6 SWAP2 SWAP1 PUSH2 0x26B7 JUMP JUMPDEST PUSH2 0xAD3 JUMP JUMPDEST PUSH1 0x40 MLOAD PUSH2 0x2C8 SWAP2 SWAP1 PUSH2 0x2C4A JUMP JUMPDEST PUSH1 0x40 MLOAD DUP1 SWAP2 SUB SWAP1 RETURN JUMPDEST PUSH2 0x2EB PUSH1 0x4 DUP1 CALLDATASIZE SUB DUP2 ADD SWAP1 PUSH2 0x2E6 SWAP2 SWAP1 PUSH2 0x27C3 JUMP JUMPDEST PUSH2 0xB3C JUMP JUMPDEST STOP JUMPDEST PUSH2 0x307 PUSH1 0x4 DUP1 CALLDATASIZE SUB DUP2 ADD SWAP1 PUSH2 0x302 SWAP2 SWAP1 PUSH2 0x276B JUMP JUMPDEST PUSH2 0xE80 JUMP JUMPDEST PUSH1 0x40 MLOAD PUSH2 0x314 SWAP2 SWAP1 PUSH2 0x2D97 JUMP JUMPDEST PUSH1 0x40 MLOAD DUP1 SWAP2 SUB SWAP1 RETURN JUMPDEST PUSH2 0x325 PUSH2 0x10AF JUMP JUMPDEST PUSH1 0x40 MLOAD PUSH2 0x332 SWAP2 SWAP1 PUSH2 0x2D97 JUMP JUMPDEST PUSH1 0x40 MLOAD DUP1 SWAP2 SUB SWAP1 RETURN JUMPDEST PUSH2 0x343 PUSH2 0x10B9 JUMP JUMPDEST PUSH1 0x40 MLOAD PUSH2 0x350 SWAP2 SWAP1 PUSH2 0x2C4A JUMP JUMPDEST PUSH1 0x40 MLOAD DUP1 SWAP2 SUB SWAP1 RETURN JUMPDEST PUSH2 0x361 PUSH2 0x10DD JUMP JUMPDEST PUSH1 0x40 MLOAD PUSH2 0x36E SWAP2 SWAP1 PUSH2 0x2DE9 JUMP JUMPDEST PUSH1 0x40 MLOAD DUP1 SWAP2 SUB SWAP1 RETURN JUMPDEST PUSH2 0x391 PUSH1 0x4 DUP1 CALLDATASIZE SUB DUP2 ADD SWAP1 PUSH2 0x38C SWAP2 SWAP1 PUSH2 0x26B7 JUMP JUMPDEST PUSH2 0x10E2 JUMP JUMPDEST STOP JUMPDEST PUSH2 0x39B PUSH2 0x11F9 JUMP JUMPDEST PUSH1 0x40 MLOAD PUSH2 0x3A8 SWAP2 SWAP1 PUSH2 0x2C4A JUMP JUMPDEST PUSH1 0x40 MLOAD DUP1 SWAP2 SUB SWAP1 RETURN JUMPDEST PUSH2 0x3B9 PUSH2 0x121D JUMP JUMPDEST PUSH1 0x40 MLOAD PUSH2 0x3C6 SWAP2 SWAP1 PUSH2 0x2D97 JUMP JUMPDEST PUSH1 0x40 MLOAD DUP1 SWAP2 SUB SWAP1 RETURN JUMPDEST PUSH2 0x3D7 PUSH2 0x1227 JUMP JUMPDEST PUSH1 0x40 MLOAD PUSH2 0x3E4 SWAP2 SWAP1 PUSH2 0x2D97 JUMP JUMPDEST PUSH1 0x40 MLOAD DUP1 SWAP2 SUB SWAP1 RETURN JUMPDEST PUSH2 0x3F5 PUSH2 0x122C JUMP JUMPDEST PUSH1 0x40 MLOAD PUSH2 0x402 SWAP2 SWAP1 PUSH2 0x2C4A JUMP JUMPDEST PUSH1 0x40 MLOAD DUP1 SWAP2 SUB SWAP1 RETURN JUMPDEST PUSH2 0x425 PUSH1 0x4 DUP1 CALLDATASIZE SUB DUP2 ADD SWAP1 PUSH2 0x420 SWAP2 SWAP1 PUSH2 0x26B7 JUMP JUMPDEST PUSH2 0x1256 JUMP JUMPDEST PUSH1 0x40 MLOAD PUSH2 0x434 SWAP4 SWAP3 SWAP2 SWAP1 PUSH2 0x2D60 JUMP JUMPDEST PUSH1 0x40 MLOAD DUP1 SWAP2 SUB SWAP1 RETURN JUMPDEST PUSH2 0x457 PUSH1 0x4 DUP1 CALLDATASIZE SUB DUP2 ADD SWAP1 PUSH2 0x452 SWAP2 SWAP1 PUSH2 0x26B7 JUMP JUMPDEST PUSH2 0x12C3 JUMP JUMPDEST STOP JUMPDEST PUSH2 0x473 PUSH1 0x4 DUP1 CALLDATASIZE SUB DUP2 ADD SWAP1 PUSH2 0x46E SWAP2 SWAP1 PUSH2 0x26E0 JUMP JUMPDEST PUSH2 0x13D8 JUMP JUMPDEST STOP JUMPDEST PUSH1 0x0 DUP1 PUSH1 0x0 PUSH1 0x33 PUSH1 0x0 DUP6 PUSH20 0xFFFFFFFFFFFFFFFFFFFFFFFFFFFFFFFFFFFFFFFF AND PUSH20 0xFFFFFFFFFFFFFFFFFFFFFFFFFFFFFFFFFFFFFFFF AND DUP2 MSTORE PUSH1 0x20 ADD SWAP1 DUP2 MSTORE PUSH1 0x20 ADD PUSH1 0x0 KECCAK256 PUSH1 0x0 ADD PUSH1 0xD SWAP1 SLOAD SWAP1 PUSH2 0x100 EXP SWAP1 DIV PUSH13 0xFFFFFFFFFFFFFFFFFFFFFFFFFF AND PUSH1 0x33 PUSH1 0x0 DUP7 PUSH20 0xFFFFFFFFFFFFFFFFFFFFFFFFFFFFFFFFFFFFFFFF AND PUSH20 0xFFFFFFFFFFFFFFFFFFFFFFFFFFFFFFFFFFFFFFFF AND DUP2 MSTORE PUSH1 0x20 ADD SWAP1 DUP2 MSTORE PUSH1 0x20 ADD PUSH1 0x0 KECCAK256 PUSH1 0x0 ADD PUSH1 0x0 SWAP1 SLOAD SWAP1 PUSH2 0x100 EXP SWAP1 DIV PUSH13 0xFFFFFFFFFFFFFFFFFFFFFFFFFF AND PUSH1 0x33 PUSH1 0x0 DUP8 PUSH20 0xFFFFFFFFFFFFFFFFFFFFFFFFFFFFFFFFFFFFFFFF AND PUSH20 0xFFFFFFFFFFFFFFFFFFFFFFFFFFFFFFFFFFFFFFFF AND DUP2 MSTORE PUSH1 0x20 ADD SWAP1 DUP2 MSTORE PUSH1 0x20 ADD PUSH1 0x0 KECCAK256 PUSH1 0x0 ADD PUSH1 0x1A SWAP1 SLOAD SWAP1 PUSH2 0x100 EXP SWAP1 DIV PUSH5 0xFFFFFFFFFF AND DUP3 PUSH13 0xFFFFFFFFFFFFFFFFFFFFFFFFFF AND SWAP3 POP DUP2 PUSH13 0xFFFFFFFFFFFFFFFFFFFFFFFFFF AND SWAP2 POP DUP1 PUSH5 0xFFFFFFFFFF AND SWAP1 POP SWAP3 POP SWAP3 POP SWAP3 POP SWAP2 SWAP4 SWAP1 SWAP3 POP JUMP JUMPDEST PUSH1 0x0 PUSH1 0x35 PUSH1 0x0 DUP4 PUSH20 0xFFFFFFFFFFFFFFFFFFFFFFFFFFFFFFFFFFFFFFFF AND PUSH20 0xFFFFFFFFFFFFFFFFFFFFFFFFFFFFFFFFFFFFFFFF AND DUP2 MSTORE PUSH1 0x20 ADD SWAP1 DUP2 MSTORE PUSH1 0x20 ADD PUSH1 0x0 KECCAK256 SLOAD SWAP1 POP SWAP2 SWAP1 POP JUMP JUMPDEST PUSH1 0x0 DUP1 PUSH20 0xFFFFFFFFFFFFFFFFFFFFFFFFFFFFFFFFFFFFFFFF AND DUP3 PUSH20 0xFFFFFFFFFFFFFFFFFFFFFFFFFFFFFFFFFFFFFFFF AND EQ ISZERO PUSH2 0x67B JUMPI PUSH1 0x40 MLOAD PUSH32 0x8C379A000000000000000000000000000000000000000000000000000000000 DUP2 MSTORE PUSH1 0x4 ADD PUSH2 0x672 SWAP1 PUSH2 0x2C85 JUMP JUMPDEST PUSH1 0x40 MLOAD DUP1 SWAP2 SUB SWAP1 REVERT JUMPDEST PUSH2 0x689 DUP6 DUP6 DUP6 CALLER CALLER DUP8 PUSH2 0x1542 JUMP JUMPDEST SWAP1 POP SWAP5 SWAP4 POP POP POP POP JUMP JUMPDEST PUSH1 0x0 PUSH2 0x6A1 DUP5 CALLER DUP5 DUP7 PUSH2 0x18E0 JUMP JUMPDEST SWAP1 POP PUSH1 0x0 DUP2 EQ PUSH2 0x78F JUMPI PUSH2 0x6FD DUP2 PUSH1 0x35 PUSH1 0x0 DUP8 PUSH20 0xFFFFFFFFFFFFFFFFFFFFFFFFFFFFFFFFFFFFFFFF AND PUSH20 0xFFFFFFFFFFFFFFFFFFFFFFFFFFFFFFFFFFFFFFFF AND DUP2 MSTORE PUSH1 0x20 ADD SWAP1 DUP2 MSTORE PUSH1 0x20 ADD PUSH1 0x0 KECCAK256 SLOAD PUSH2 0x1A52 SWAP1 SWAP2 SWAP1 PUSH4 0xFFFFFFFF AND JUMP JUMPDEST PUSH1 0x35 PUSH1 0x0 DUP7 PUSH20 0xFFFFFFFFFFFFFFFFFFFFFFFFFFFFFFFFFFFFFFFF AND PUSH20 0xFFFFFFFFFFFFFFFFFFFFFFFFFFFFFFFFFFFFFFFF AND DUP2 MSTORE PUSH1 0x20 ADD SWAP1 DUP2 MSTORE PUSH1 0x20 ADD PUSH1 0x0 KECCAK256 DUP2 SWAP1 SSTORE POP DUP4 PUSH20 0xFFFFFFFFFFFFFFFFFFFFFFFFFFFFFFFFFFFFFFFF AND PUSH32 0x2468F9268C60AD90E2D49EDB0032C8A001E733AE888B3AB8E982EDF535BE1A76 DUP3 PUSH1 0x40 MLOAD PUSH2 0x786 SWAP2 SWAP1 PUSH2 0x2D97 JUMP JUMPDEST PUSH1 0x40 MLOAD DUP1 SWAP2 SUB SWAP1 LOG2 JUMPDEST POP POP POP POP JUMP JUMPDEST PUSH1 0x0 PUSH1 0x33 PUSH1 0x0 DUP4 PUSH20 0xFFFFFFFFFFFFFFFFFFFFFFFFFFFFFFFFFFFFFFFF AND PUSH20 0xFFFFFFFFFFFFFFFFFFFFFFFFFFFFFFFFFFFFFFFF AND DUP2 MSTORE PUSH1 0x20 ADD SWAP1 DUP2 MSTORE PUSH1 0x20 ADD PUSH1 0x0 KECCAK256 PUSH1 0x1 ADD PUSH1 0x0 DUP5 PUSH20 0xFFFFFFFFFFFFFFFFFFFFFFFFFFFFFFFFFFFFFFFF AND PUSH20 0xFFFFFFFFFFFFFFFFFFFFFFFFFFFFFFFFFFFFFFFF AND DUP2 MSTORE PUSH1 0x20 ADD SWAP1 DUP2 MSTORE PUSH1 0x20 ADD PUSH1 0x0 KECCAK256 SLOAD SWAP1 POP SWAP3 SWAP2 POP POP JUMP JUMPDEST PUSH32 0x0 PUSH20 0xFFFFFFFFFFFFFFFFFFFFFFFFFFFFFFFFFFFFFFFF AND CALLER PUSH20 0xFFFFFFFFFFFFFFFFFFFFFFFFFFFFFFFFFFFFFFFF AND EQ PUSH2 0x8AD JUMPI PUSH1 0x40 MLOAD PUSH32 0x8C379A000000000000000000000000000000000000000000000000000000000 DUP2 MSTORE PUSH1 0x4 ADD PUSH2 0x8A4 SWAP1 PUSH2 0x2D05 JUMP JUMPDEST PUSH1 0x40 MLOAD DUP1 SWAP2 SUB SWAP1 REVERT JUMPDEST DUP1 PUSH1 0x34 DUP2 SWAP1 SSTORE POP PUSH32 0x1CC1849A6602C3E91F2088CADEA4381CC5717F2F28584197060ED2EBB434C16F DUP2 PUSH1 0x40 MLOAD PUSH2 0x8E3 SWAP2 SWAP1 PUSH2 0x2D97 JUMP JUMPDEST PUSH1 0x40 MLOAD DUP1 SWAP2 SUB SWAP1 LOG1 POP JUMP JUMPDEST PUSH1 0x0 PUSH2 0x8FE DUP5 DUP5 DUP5 CALLER CALLER CALLER PUSH2 0x1542 JUMP JUMPDEST SWAP1 POP SWAP4 SWAP3 POP POP POP JUMP JUMPDEST PUSH1 0x0 CALLER DUP4 DUP2 PUSH20 0xFFFFFFFFFFFFFFFFFFFFFFFFFFFFFFFFFFFFFFFF AND PUSH1 0x36 PUSH1 0x0 DUP4 PUSH20 0xFFFFFFFFFFFFFFFFFFFFFFFFFFFFFFFFFFFFFFFF AND PUSH20 0xFFFFFFFFFFFFFFFFFFFFFFFFFFFFFFFFFFFFFFFF AND DUP2 MSTORE PUSH1 0x20 ADD SWAP1 DUP2 MSTORE PUSH1 0x20 ADD PUSH1 0x0 KECCAK256 PUSH1 0x0 SWAP1 SLOAD SWAP1 PUSH2 0x100 EXP SWAP1 DIV PUSH20 0xFFFFFFFFFFFFFFFFFFFFFFFFFFFFFFFFFFFFFFFF AND PUSH20 0xFFFFFFFFFFFFFFFFFFFFFFFFFFFFFFFFFFFFFFFF AND EQ PUSH2 0x9D8 JUMPI PUSH1 0x40 MLOAD PUSH32 0x8C379A000000000000000000000000000000000000000000000000000000000 DUP2 MSTORE PUSH1 0x4 ADD PUSH2 0x9CF SWAP1 PUSH2 0x2D25 JUMP JUMPDEST PUSH1 0x40 MLOAD DUP1 SWAP2 SUB SWAP1 REVERT JUMPDEST PUSH1 0x0 PUSH20 0xFFFFFFFFFFFFFFFFFFFFFFFFFFFFFFFFFFFFFFFF AND DUP6 PUSH20 0xFFFFFFFFFFFFFFFFFFFFFFFFFFFFFFFFFFFFFFFF AND EQ ISZERO PUSH2 0xA48 JUMPI PUSH1 0x40 MLOAD PUSH32 0x8C379A000000000000000000000000000000000000000000000000000000000 DUP2 MSTORE PUSH1 0x4 ADD PUSH2 0xA3F SWAP1 PUSH2 0x2C65 JUMP JUMPDEST PUSH1 0x40 MLOAD DUP1 SWAP2 SUB SWAP1 REVERT JUMPDEST PUSH1 0x0 PUSH20 0xFFFFFFFFFFFFFFFFFFFFFFFFFFFFFFFFFFFFFFFF AND DUP5 PUSH20 0xFFFFFFFFFFFFFFFFFFFFFFFFFFFFFFFFFFFFFFFF AND EQ ISZERO PUSH2 0xAB8 JUMPI PUSH1 0x40 MLOAD PUSH32 0x8C379A000000000000000000000000000000000000000000000000000000000 DUP2 MSTORE PUSH1 0x4 ADD PUSH2 0xAAF SWAP1 PUSH2 0x2C85 JUMP JUMPDEST PUSH1 0x40 MLOAD DUP1 SWAP2 SUB SWAP1 REVERT JUMPDEST PUSH2 0xAC6 DUP9 DUP9 DUP9 CALLER DUP10 DUP10 PUSH2 0x1542 JUMP JUMPDEST SWAP3 POP POP POP SWAP6 SWAP5 POP POP POP POP POP JUMP JUMPDEST PUSH1 0x0 PUSH1 0x36 PUSH1 0x0 DUP4 PUSH20 0xFFFFFFFFFFFFFFFFFFFFFFFFFFFFFFFFFFFFFFFF AND PUSH20 0xFFFFFFFFFFFFFFFFFFFFFFFFFFFFFFFFFFFFFFFF AND DUP2 MSTORE PUSH1 0x20 ADD SWAP1 DUP2 MSTORE PUSH1 0x20 ADD PUSH1 0x0 KECCAK256 PUSH1 0x0 SWAP1 SLOAD SWAP1 PUSH2 0x100 EXP SWAP1 DIV PUSH20 0xFFFFFFFFFFFFFFFFFFFFFFFFFFFFFFFFFFFFFFFF AND SWAP1 POP SWAP2 SWAP1 POP JUMP JUMPDEST PUSH32 0x0 PUSH20 0xFFFFFFFFFFFFFFFFFFFFFFFFFFFFFFFFFFFFFFFF AND CALLER PUSH20 0xFFFFFFFFFFFFFFFFFFFFFFFFFFFFFFFFFFFFFFFF AND EQ PUSH2 0xBCA JUMPI PUSH1 0x40 MLOAD PUSH32 0x8C379A000000000000000000000000000000000000000000000000000000000 DUP2 MSTORE PUSH1 0x4 ADD PUSH2 0xBC1 SWAP1 PUSH2 0x2D05 JUMP JUMPDEST PUSH1 0x40 MLOAD DUP1 SWAP2 SUB SWAP1 REVERT JUMPDEST DUP2 DUP2 SWAP1 POP DUP5 DUP5 SWAP1 POP EQ PUSH2 0xC12 JUMPI PUSH1 0x40 MLOAD PUSH32 0x8C379A000000000000000000000000000000000000000000000000000000000 DUP2 MSTORE PUSH1 0x4 ADD PUSH2 0xC09 SWAP1 PUSH2 0x2CA5 JUMP JUMPDEST PUSH1 0x40 MLOAD DUP1 SWAP2 SUB SWAP1 REVERT JUMPDEST PUSH1 0x60 DUP5 DUP5 SWAP1 POP PUSH8 0xFFFFFFFFFFFFFFFF DUP2 GT DUP1 ISZERO PUSH2 0xC2E JUMPI PUSH1 0x0 DUP1 REVERT JUMPDEST POP PUSH1 0x40 MLOAD SWAP1 DUP1 DUP3 MSTORE DUP1 PUSH1 0x20 MUL PUSH1 0x20 ADD DUP3 ADD PUSH1 0x40 MSTORE DUP1 ISZERO PUSH2 0xC68 JUMPI DUP2 PUSH1 0x20 ADD JUMPDEST PUSH2 0xC55 PUSH2 0x2567 JUMP JUMPDEST DUP2 MSTORE PUSH1 0x20 ADD SWAP1 PUSH1 0x1 SWAP1 SUB SWAP1 DUP2 PUSH2 0xC4D JUMPI SWAP1 POP JUMPDEST POP SWAP1 POP PUSH1 0x0 JUMPDEST DUP6 DUP6 SWAP1 POP DUP2 LT ISZERO PUSH2 0xE6F JUMPI DUP4 DUP4 DUP3 DUP2 DUP2 LT PUSH2 0xC85 JUMPI INVALID JUMPDEST SWAP1 POP PUSH1 0x20 MUL ADD CALLDATALOAD DUP5 DUP5 DUP4 DUP2 DUP2 LT PUSH2 0xC98 JUMPI INVALID JUMPDEST SWAP1 POP PUSH1 0x20 MUL ADD CALLDATALOAD PUSH13 0xFFFFFFFFFFFFFFFFFFFFFFFFFF AND EQ PUSH2 0xCEE JUMPI PUSH1 0x40 MLOAD PUSH32 0x8C379A000000000000000000000000000000000000000000000000000000000 DUP2 MSTORE PUSH1 0x4 ADD PUSH2 0xCE5 SWAP1 PUSH2 0x2CC5 JUMP JUMPDEST PUSH1 0x40 MLOAD DUP1 SWAP2 SUB SWAP1 REVERT JUMPDEST DUP6 DUP6 DUP3 DUP2 DUP2 LT PUSH2 0xCFA JUMPI INVALID JUMPDEST SWAP1 POP PUSH1 0x20 MUL ADD PUSH1 0x20 DUP2 ADD SWAP1 PUSH2 0xD0F SWAP2 SWAP1 PUSH2 0x26B7 JUMP JUMPDEST DUP3 DUP3 DUP2 MLOAD DUP2 LT PUSH2 0xD1B JUMPI INVALID JUMPDEST PUSH1 0x20 MUL PUSH1 0x20 ADD ADD MLOAD PUSH1 0x40 ADD SWAP1 PUSH20 0xFFFFFFFFFFFFFFFFFFFFFFFFFFFFFFFFFFFFFFFF AND SWAP1 DUP2 PUSH20 0xFFFFFFFFFFFFFFFFFFFFFFFFFFFFFFFFFFFFFFFF AND DUP2 MSTORE POP POP DUP4 DUP4 DUP3 DUP2 DUP2 LT PUSH2 0xD65 JUMPI INVALID JUMPDEST SWAP1 POP PUSH1 0x20 MUL ADD CALLDATALOAD DUP3 DUP3 DUP2 MLOAD DUP2 LT PUSH2 0xD78 JUMPI INVALID JUMPDEST PUSH1 0x20 MUL PUSH1 0x20 ADD ADD MLOAD PUSH1 0x0 ADD SWAP1 PUSH13 0xFFFFFFFFFFFFFFFFFFFFFFFFFF AND SWAP1 DUP2 PUSH13 0xFFFFFFFFFFFFFFFFFFFFFFFFFF AND DUP2 MSTORE POP POP DUP6 DUP6 DUP3 DUP2 DUP2 LT PUSH2 0xDB4 JUMPI INVALID JUMPDEST SWAP1 POP PUSH1 0x20 MUL ADD PUSH1 0x20 DUP2 ADD SWAP1 PUSH2 0xDC9 SWAP2 SWAP1 PUSH2 0x26B7 JUMP JUMPDEST PUSH20 0xFFFFFFFFFFFFFFFFFFFFFFFFFFFFFFFFFFFFFFFF AND PUSH4 0xB1BF962D PUSH1 0x40 MLOAD DUP2 PUSH4 0xFFFFFFFF AND PUSH1 0xE0 SHL DUP2 MSTORE PUSH1 0x4 ADD PUSH1 0x20 PUSH1 0x40 MLOAD DUP1 DUP4 SUB DUP2 DUP7 DUP1 EXTCODESIZE ISZERO DUP1 ISZERO PUSH2 0xE0E JUMPI PUSH1 0x0 DUP1 REVERT JUMPDEST POP GAS STATICCALL ISZERO DUP1 ISZERO PUSH2 0xE22 JUMPI RETURNDATASIZE PUSH1 0x0 DUP1 RETURNDATACOPY RETURNDATASIZE PUSH1 0x0 REVERT JUMPDEST POP POP POP POP PUSH1 0x40 MLOAD RETURNDATASIZE PUSH1 0x1F NOT PUSH1 0x1F DUP3 ADD AND DUP3 ADD DUP1 PUSH1 0x40 MSTORE POP DUP2 ADD SWAP1 PUSH2 0xE46 SWAP2 SWAP1 PUSH2 0x29A5 JUMP JUMPDEST DUP3 DUP3 DUP2 MLOAD DUP2 LT PUSH2 0xE52 JUMPI INVALID JUMPDEST PUSH1 0x20 MUL PUSH1 0x20 ADD ADD MLOAD PUSH1 0x20 ADD DUP2 DUP2 MSTORE POP POP DUP1 DUP1 PUSH1 0x1 ADD SWAP2 POP POP PUSH2 0xC6E JUMP JUMPDEST POP PUSH2 0xE79 DUP2 PUSH2 0x1A6C JUMP JUMPDEST POP POP POP POP POP JUMP JUMPDEST PUSH1 0x0 DUP1 PUSH1 0x35 PUSH1 0x0 DUP5 PUSH20 0xFFFFFFFFFFFFFFFFFFFFFFFFFFFFFFFFFFFFFFFF AND PUSH20 0xFFFFFFFFFFFFFFFFFFFFFFFFFFFFFFFFFFFFFFFF AND DUP2 MSTORE PUSH1 0x20 ADD SWAP1 DUP2 MSTORE PUSH1 0x20 ADD PUSH1 0x0 KECCAK256 SLOAD SWAP1 POP PUSH1 0x60 DUP6 DUP6 SWAP1 POP PUSH8 0xFFFFFFFFFFFFFFFF DUP2 GT DUP1 ISZERO PUSH2 0xEE1 JUMPI PUSH1 0x0 DUP1 REVERT JUMPDEST POP PUSH1 0x40 MLOAD SWAP1 DUP1 DUP3 MSTORE DUP1 PUSH1 0x20 MUL PUSH1 0x20 ADD DUP3 ADD PUSH1 0x40 MSTORE DUP1 ISZERO PUSH2 0xF1B JUMPI DUP2 PUSH1 0x20 ADD JUMPDEST PUSH2 0xF08 PUSH2 0x25AD JUMP JUMPDEST DUP2 MSTORE PUSH1 0x20 ADD SWAP1 PUSH1 0x1 SWAP1 SUB SWAP1 DUP2 PUSH2 0xF00 JUMPI SWAP1 POP JUMPDEST POP SWAP1 POP PUSH1 0x0 JUMPDEST DUP7 DUP7 SWAP1 POP DUP2 LT ISZERO PUSH2 0x1084 JUMPI DUP7 DUP7 DUP3 DUP2 DUP2 LT PUSH2 0xF38 JUMPI INVALID JUMPDEST SWAP1 POP PUSH1 0x20 MUL ADD PUSH1 0x20 DUP2 ADD SWAP1 PUSH2 0xF4D SWAP2 SWAP1 PUSH2 0x26B7 JUMP JUMPDEST DUP3 DUP3 DUP2 MLOAD DUP2 LT PUSH2 0xF59 JUMPI INVALID JUMPDEST PUSH1 0x20 MUL PUSH1 0x20 ADD ADD MLOAD PUSH1 0x0 ADD SWAP1 PUSH20 0xFFFFFFFFFFFFFFFFFFFFFFFFFFFFFFFFFFFFFFFF AND SWAP1 DUP2 PUSH20 0xFFFFFFFFFFFFFFFFFFFFFFFFFFFFFFFFFFFFFFFF AND DUP2 MSTORE POP POP DUP7 DUP7 DUP3 DUP2 DUP2 LT PUSH2 0xFA3 JUMPI INVALID JUMPDEST SWAP1 POP PUSH1 0x20 MUL ADD PUSH1 0x20 DUP2 ADD SWAP1 PUSH2 0xFB8 SWAP2 SWAP1 PUSH2 0x26B7 JUMP JUMPDEST PUSH20 0xFFFFFFFFFFFFFFFFFFFFFFFFFFFFFFFFFFFFFFFF AND PUSH4 0xAFBCDC9 DUP7 PUSH1 0x40 MLOAD DUP3 PUSH4 0xFFFFFFFF AND PUSH1 0xE0 SHL DUP2 MSTORE PUSH1 0x4 ADD PUSH2 0xFF0 SWAP2 SWAP1 PUSH2 0x2C4A JUMP JUMPDEST PUSH1 0x40 DUP1 MLOAD DUP1 DUP4 SUB DUP2 DUP7 DUP1 EXTCODESIZE ISZERO DUP1 ISZERO PUSH2 0x1007 JUMPI PUSH1 0x0 DUP1 REVERT JUMPDEST POP GAS STATICCALL ISZERO DUP1 ISZERO PUSH2 0x101B JUMPI RETURNDATASIZE PUSH1 0x0 DUP1 RETURNDATACOPY RETURNDATASIZE PUSH1 0x0 REVERT JUMPDEST POP POP POP POP PUSH1 0x40 MLOAD RETURNDATASIZE PUSH1 0x1F NOT PUSH1 0x1F DUP3 ADD AND DUP3 ADD DUP1 PUSH1 0x40 MSTORE POP DUP2 ADD SWAP1 PUSH2 0x103F SWAP2 SWAP1 PUSH2 0x29CE JUMP JUMPDEST DUP4 DUP4 DUP2 MLOAD DUP2 LT PUSH2 0x104B JUMPI INVALID JUMPDEST PUSH1 0x20 MUL PUSH1 0x20 ADD ADD MLOAD PUSH1 0x20 ADD DUP5 DUP5 DUP2 MLOAD DUP2 LT PUSH2 0x1062 JUMPI INVALID JUMPDEST PUSH1 0x20 MUL PUSH1 0x20 ADD ADD MLOAD PUSH1 0x40 ADD DUP3 DUP2 MSTORE POP DUP3 DUP2 MSTORE POP POP POP DUP1 DUP1 PUSH1 0x1 ADD SWAP2 POP POP PUSH2 0xF21 JUMP JUMPDEST POP PUSH2 0x10A1 PUSH2 0x1092 DUP6 DUP4 PUSH2 0x1BE6 JUMP JUMPDEST DUP4 PUSH2 0x1A52 SWAP1 SWAP2 SWAP1 PUSH4 0xFFFFFFFF AND JUMP JUMPDEST SWAP2 POP DUP2 SWAP3 POP POP POP SWAP4 SWAP3 POP POP POP JUMP JUMPDEST PUSH1 0x0 PUSH1 0x34 SLOAD SWAP1 POP SWAP1 JUMP JUMPDEST PUSH32 0x0 DUP2 JUMP JUMPDEST PUSH1 0x12 DUP2 JUMP JUMPDEST PUSH1 0x0 PUSH2 0x10EC PUSH2 0x1D7F JUMP JUMPDEST SWAP1 POP PUSH1 0x0 SLOAD DUP2 GT PUSH2 0x1148 JUMPI PUSH1 0x40 MLOAD PUSH32 0x8C379A000000000000000000000000000000000000000000000000000000000 DUP2 MSTORE PUSH1 0x4 ADD DUP1 DUP1 PUSH1 0x20 ADD DUP3 DUP2 SUB DUP3 MSTORE PUSH1 0x2E DUP2 MSTORE PUSH1 0x20 ADD DUP1 PUSH2 0x2EC9 PUSH1 0x2E SWAP2 CODECOPY PUSH1 0x40 ADD SWAP2 POP POP PUSH1 0x40 MLOAD DUP1 SWAP2 SUB SWAP1 REVERT JUMPDEST DUP1 PUSH1 0x0 DUP2 SWAP1 SSTORE POP DUP2 PUSH1 0x37 PUSH1 0x0 PUSH2 0x100 EXP DUP2 SLOAD DUP2 PUSH20 0xFFFFFFFFFFFFFFFFFFFFFFFFFFFFFFFFFFFFFFFF MUL NOT AND SWAP1 DUP4 PUSH20 0xFFFFFFFFFFFFFFFFFFFFFFFFFFFFFFFFFFFFFFFF AND MUL OR SWAP1 SSTORE POP PUSH1 0x37 PUSH1 0x0 SWAP1 SLOAD SWAP1 PUSH2 0x100 EXP SWAP1 DIV PUSH20 0xFFFFFFFFFFFFFFFFFFFFFFFFFFFFFFFFFFFFFFFF AND PUSH20 0xFFFFFFFFFFFFFFFFFFFFFFFFFFFFFFFFFFFFFFFF AND PUSH32 0x28A48CBCE43190D77247F342CF319B1607BFF4EF716CF26B76CF7BB71BAEBAA5 PUSH1 0x40 MLOAD PUSH1 0x40 MLOAD DUP1 SWAP2 SUB SWAP1 LOG2 POP POP JUMP JUMPDEST PUSH32 0x0 DUP2 JUMP JUMPDEST PUSH1 0x0 PUSH1 0x34 SLOAD SWAP1 POP SWAP1 JUMP JUMPDEST PUSH1 0x1 DUP2 JUMP JUMPDEST PUSH1 0x0 PUSH1 0x37 PUSH1 0x0 SWAP1 SLOAD SWAP1 PUSH2 0x100 EXP SWAP1 DIV PUSH20 0xFFFFFFFFFFFFFFFFFFFFFFFFFFFFFFFFFFFFFFFF AND SWAP1 POP SWAP1 JUMP JUMPDEST PUSH1 0x33 PUSH1 0x20 MSTORE DUP1 PUSH1 0x0 MSTORE PUSH1 0x40 PUSH1 0x0 KECCAK256 PUSH1 0x0 SWAP2 POP SWAP1 POP DUP1 PUSH1 0x0 ADD PUSH1 0x0 SWAP1 SLOAD SWAP1 PUSH2 0x100 EXP SWAP1 DIV PUSH13 0xFFFFFFFFFFFFFFFFFFFFFFFFFF AND SWAP1 DUP1 PUSH1 0x0 ADD PUSH1 0xD SWAP1 SLOAD SWAP1 PUSH2 0x100 EXP SWAP1 DIV PUSH13 0xFFFFFFFFFFFFFFFFFFFFFFFFFF AND SWAP1 DUP1 PUSH1 0x0 ADD PUSH1 0x1A SWAP1 SLOAD SWAP1 PUSH2 0x100 EXP SWAP1 DIV PUSH5 0xFFFFFFFFFF AND SWAP1 POP DUP4 JUMP JUMPDEST PUSH32 0x0 PUSH20 0xFFFFFFFFFFFFFFFFFFFFFFFFFFFFFFFFFFFFFFFF AND CALLER PUSH20 0xFFFFFFFFFFFFFFFFFFFFFFFFFFFFFFFFFFFFFFFF AND EQ PUSH2 0x1351 JUMPI PUSH1 0x40 MLOAD PUSH32 0x8C379A000000000000000000000000000000000000000000000000000000000 DUP2 MSTORE PUSH1 0x4 ADD PUSH2 0x1348 SWAP1 PUSH2 0x2D05 JUMP JUMPDEST PUSH1 0x40 MLOAD DUP1 SWAP2 SUB SWAP1 REVERT JUMPDEST DUP1 PUSH1 0x37 PUSH1 0x0 PUSH2 0x100 EXP DUP2 SLOAD DUP2 PUSH20 0xFFFFFFFFFFFFFFFFFFFFFFFFFFFFFFFFFFFFFFFF MUL NOT AND SWAP1 DUP4 PUSH20 0xFFFFFFFFFFFFFFFFFFFFFFFFFFFFFFFFFFFFFFFF AND MUL OR SWAP1 SSTORE POP DUP1 PUSH20 0xFFFFFFFFFFFFFFFFFFFFFFFFFFFFFFFFFFFFFFFF AND PUSH32 0x28A48CBCE43190D77247F342CF319B1607BFF4EF716CF26B76CF7BB71BAEBAA5 PUSH1 0x40 MLOAD PUSH1 0x40 MLOAD DUP1 SWAP2 SUB SWAP1 LOG2 POP JUMP JUMPDEST PUSH32 0x0 PUSH20 0xFFFFFFFFFFFFFFFFFFFFFFFFFFFFFFFFFFFFFFFF AND CALLER PUSH20 0xFFFFFFFFFFFFFFFFFFFFFFFFFFFFFFFFFFFFFFFF AND EQ PUSH2 0x1466 JUMPI PUSH1 0x40 MLOAD PUSH32 0x8C379A000000000000000000000000000000000000000000000000000000000 DUP2 MSTORE PUSH1 0x4 ADD PUSH2 0x145D SWAP1 PUSH2 0x2D05 JUMP JUMPDEST PUSH1 0x40 MLOAD DUP1 SWAP2 SUB SWAP1 REVERT JUMPDEST DUP1 PUSH1 0x36 PUSH1 0x0 DUP5 PUSH20 0xFFFFFFFFFFFFFFFFFFFFFFFFFFFFFFFFFFFFFFFF AND PUSH20 0xFFFFFFFFFFFFFFFFFFFFFFFFFFFFFFFFFFFFFFFF AND DUP2 MSTORE PUSH1 0x20 ADD SWAP1 DUP2 MSTORE PUSH1 0x20 ADD PUSH1 0x0 KECCAK256 PUSH1 0x0 PUSH2 0x100 EXP DUP2 SLOAD DUP2 PUSH20 0xFFFFFFFFFFFFFFFFFFFFFFFFFFFFFFFFFFFFFFFF MUL NOT AND SWAP1 DUP4 PUSH20 0xFFFFFFFFFFFFFFFFFFFFFFFFFFFFFFFFFFFFFFFF AND MUL OR SWAP1 SSTORE POP DUP1 PUSH20 0xFFFFFFFFFFFFFFFFFFFFFFFFFFFFFFFFFFFFFFFF AND DUP3 PUSH20 0xFFFFFFFFFFFFFFFFFFFFFFFFFFFFFFFFFFFFFFFF AND PUSH32 0x4925EAFC82D0C4D67889898EEED64B18488AB19811E61620F387026DEC126A28 PUSH1 0x40 MLOAD PUSH1 0x40 MLOAD DUP1 SWAP2 SUB SWAP1 LOG3 POP POP JUMP JUMPDEST PUSH1 0x0 DUP1 DUP6 EQ ISZERO PUSH2 0x1555 JUMPI PUSH1 0x0 SWAP1 POP PUSH2 0x18D6 JUMP JUMPDEST PUSH1 0x0 PUSH1 0x35 PUSH1 0x0 DUP6 PUSH20 0xFFFFFFFFFFFFFFFFFFFFFFFFFFFFFFFFFFFFFFFF AND PUSH20 0xFFFFFFFFFFFFFFFFFFFFFFFFFFFFFFFFFFFFFFFF AND DUP2 MSTORE PUSH1 0x20 ADD SWAP1 DUP2 MSTORE PUSH1 0x20 ADD PUSH1 0x0 KECCAK256 SLOAD SWAP1 POP DUP1 DUP7 GT ISZERO PUSH2 0x17DE JUMPI PUSH1 0x60 DUP9 DUP9 SWAP1 POP PUSH8 0xFFFFFFFFFFFFFFFF DUP2 GT DUP1 ISZERO PUSH2 0x15BD JUMPI PUSH1 0x0 DUP1 REVERT JUMPDEST POP PUSH1 0x40 MLOAD SWAP1 DUP1 DUP3 MSTORE DUP1 PUSH1 0x20 MUL PUSH1 0x20 ADD DUP3 ADD PUSH1 0x40 MSTORE DUP1 ISZERO PUSH2 0x15F7 JUMPI DUP2 PUSH1 0x20 ADD JUMPDEST PUSH2 0x15E4 PUSH2 0x25AD JUMP JUMPDEST DUP2 MSTORE PUSH1 0x20 ADD SWAP1 PUSH1 0x1 SWAP1 SUB SWAP1 DUP2 PUSH2 0x15DC JUMPI SWAP1 POP JUMPDEST POP SWAP1 POP PUSH1 0x0 JUMPDEST DUP10 DUP10 SWAP1 POP DUP2 LT ISZERO PUSH2 0x1760 JUMPI DUP10 DUP10 DUP3 DUP2 DUP2 LT PUSH2 0x1614 JUMPI INVALID JUMPDEST SWAP1 POP PUSH1 0x20 MUL ADD PUSH1 0x20 DUP2 ADD SWAP1 PUSH2 0x1629 SWAP2 SWAP1 PUSH2 0x26B7 JUMP JUMPDEST DUP3 DUP3 DUP2 MLOAD DUP2 LT PUSH2 0x1635 JUMPI INVALID JUMPDEST PUSH1 0x20 MUL PUSH1 0x20 ADD ADD MLOAD PUSH1 0x0 ADD SWAP1 PUSH20 0xFFFFFFFFFFFFFFFFFFFFFFFFFFFFFFFFFFFFFFFF AND SWAP1 DUP2 PUSH20 0xFFFFFFFFFFFFFFFFFFFFFFFFFFFFFFFFFFFFFFFF AND DUP2 MSTORE POP POP DUP10 DUP10 DUP3 DUP2 DUP2 LT PUSH2 0x167F JUMPI INVALID JUMPDEST SWAP1 POP PUSH1 0x20 MUL ADD PUSH1 0x20 DUP2 ADD SWAP1 PUSH2 0x1694 SWAP2 SWAP1 PUSH2 0x26B7 JUMP JUMPDEST PUSH20 0xFFFFFFFFFFFFFFFFFFFFFFFFFFFFFFFFFFFFFFFF AND PUSH4 0xAFBCDC9 DUP8 PUSH1 0x40 MLOAD DUP3 PUSH4 0xFFFFFFFF AND PUSH1 0xE0 SHL DUP2 MSTORE PUSH1 0x4 ADD PUSH2 0x16CC SWAP2 SWAP1 PUSH2 0x2C4A JUMP JUMPDEST PUSH1 0x40 DUP1 MLOAD DUP1 DUP4 SUB DUP2 DUP7 DUP1 EXTCODESIZE ISZERO DUP1 ISZERO PUSH2 0x16E3 JUMPI PUSH1 0x0 DUP1 REVERT JUMPDEST POP GAS STATICCALL ISZERO DUP1 ISZERO PUSH2 0x16F7 JUMPI RETURNDATASIZE PUSH1 0x0 DUP1 RETURNDATACOPY RETURNDATASIZE PUSH1 0x0 REVERT JUMPDEST POP POP POP POP PUSH1 0x40 MLOAD RETURNDATASIZE PUSH1 0x1F NOT PUSH1 0x1F DUP3 ADD AND DUP3 ADD DUP1 PUSH1 0x40 MSTORE POP DUP2 ADD SWAP1 PUSH2 0x171B SWAP2 SWAP1 PUSH2 0x29CE JUMP JUMPDEST DUP4 DUP4 DUP2 MLOAD DUP2 LT PUSH2 0x1727 JUMPI INVALID JUMPDEST PUSH1 0x20 MUL PUSH1 0x20 ADD ADD MLOAD PUSH1 0x20 ADD DUP5 DUP5 DUP2 MLOAD DUP2 LT PUSH2 0x173E JUMPI INVALID JUMPDEST PUSH1 0x20 MUL PUSH1 0x20 ADD ADD MLOAD PUSH1 0x40 ADD DUP3 DUP2 MSTORE POP DUP3 DUP2 MSTORE POP POP POP DUP1 DUP1 PUSH1 0x1 ADD SWAP2 POP POP PUSH2 0x15FD JUMP JUMPDEST POP PUSH1 0x0 PUSH2 0x176D DUP7 DUP4 PUSH2 0x1D88 JUMP JUMPDEST SWAP1 POP PUSH1 0x0 DUP2 EQ PUSH2 0x17DB JUMPI PUSH2 0x178A DUP2 DUP5 PUSH2 0x1A52 SWAP1 SWAP2 SWAP1 PUSH4 0xFFFFFFFF AND JUMP JUMPDEST SWAP3 POP DUP6 PUSH20 0xFFFFFFFFFFFFFFFFFFFFFFFFFFFFFFFFFFFFFFFF AND PUSH32 0x2468F9268C60AD90E2D49EDB0032C8A001E733AE888B3AB8E982EDF535BE1A76 DUP3 PUSH1 0x40 MLOAD PUSH2 0x17D2 SWAP2 SWAP1 PUSH2 0x2D97 JUMP JUMPDEST PUSH1 0x40 MLOAD DUP1 SWAP2 SUB SWAP1 LOG2 JUMPDEST POP POP JUMPDEST PUSH1 0x0 DUP2 EQ ISZERO PUSH2 0x17F1 JUMPI PUSH1 0x0 SWAP2 POP POP PUSH2 0x18D6 JUMP JUMPDEST PUSH1 0x0 DUP2 DUP8 GT PUSH2 0x1800 JUMPI DUP7 PUSH2 0x1802 JUMP JUMPDEST DUP2 JUMPDEST SWAP1 POP DUP1 DUP3 SUB PUSH1 0x35 PUSH1 0x0 DUP8 PUSH20 0xFFFFFFFFFFFFFFFFFFFFFFFFFFFFFFFFFFFFFFFF AND PUSH20 0xFFFFFFFFFFFFFFFFFFFFFFFFFFFFFFFFFFFFFFFF AND DUP2 MSTORE PUSH1 0x20 ADD SWAP1 DUP2 MSTORE PUSH1 0x20 ADD PUSH1 0x0 KECCAK256 DUP2 SWAP1 SSTORE POP PUSH2 0x1854 DUP5 DUP3 PUSH2 0x1E18 JUMP JUMPDEST DUP6 PUSH20 0xFFFFFFFFFFFFFFFFFFFFFFFFFFFFFFFFFFFFFFFF AND DUP5 PUSH20 0xFFFFFFFFFFFFFFFFFFFFFFFFFFFFFFFFFFFFFFFF AND DUP7 PUSH20 0xFFFFFFFFFFFFFFFFFFFFFFFFFFFFFFFFFFFFFFFF AND PUSH32 0x5637D7F962248A7F05A7AB69EEC6446E31F3D0A299D997F135A65C62806E7891 DUP5 PUSH1 0x40 MLOAD PUSH2 0x18C8 SWAP2 SWAP1 PUSH2 0x2D97 JUMP JUMPDEST PUSH1 0x40 MLOAD DUP1 SWAP2 SUB SWAP1 LOG4 DUP1 SWAP3 POP POP POP JUMPDEST SWAP7 SWAP6 POP POP POP POP POP POP JUMP JUMPDEST PUSH1 0x0 DUP1 PUSH1 0x33 PUSH1 0x0 DUP7 PUSH20 0xFFFFFFFFFFFFFFFFFFFFFFFFFFFFFFFFFFFFFFFF AND PUSH20 0xFFFFFFFFFFFFFFFFFFFFFFFFFFFFFFFFFFFFFFFF AND DUP2 MSTORE PUSH1 0x20 ADD SWAP1 DUP2 MSTORE PUSH1 0x20 ADD PUSH1 0x0 KECCAK256 SWAP1 POP PUSH1 0x0 DUP2 PUSH1 0x1 ADD PUSH1 0x0 DUP9 PUSH20 0xFFFFFFFFFFFFFFFFFFFFFFFFFFFFFFFFFFFFFFFF AND PUSH20 0xFFFFFFFFFFFFFFFFFFFFFFFFFFFFFFFFFFFFFFFF AND DUP2 MSTORE PUSH1 0x20 ADD SWAP1 DUP2 MSTORE PUSH1 0x20 ADD PUSH1 0x0 KECCAK256 SLOAD SWAP1 POP PUSH1 0x0 DUP1 PUSH2 0x1978 DUP9 DUP6 DUP9 PUSH2 0x1E8B JUMP JUMPDEST SWAP1 POP DUP1 DUP4 EQ PUSH2 0x1A43 JUMPI PUSH1 0x0 DUP8 EQ PUSH2 0x1997 JUMPI PUSH2 0x1994 DUP8 DUP3 DUP6 PUSH2 0x207E JUMP JUMPDEST SWAP2 POP JUMPDEST DUP1 DUP5 PUSH1 0x1 ADD PUSH1 0x0 DUP12 PUSH20 0xFFFFFFFFFFFFFFFFFFFFFFFFFFFFFFFFFFFFFFFF AND PUSH20 0xFFFFFFFFFFFFFFFFFFFFFFFFFFFFFFFFFFFFFFFF AND DUP2 MSTORE PUSH1 0x20 ADD SWAP1 DUP2 MSTORE PUSH1 0x20 ADD PUSH1 0x0 KECCAK256 DUP2 SWAP1 SSTORE POP DUP8 PUSH20 0xFFFFFFFFFFFFFFFFFFFFFFFFFFFFFFFFFFFFFFFF AND DUP10 PUSH20 0xFFFFFFFFFFFFFFFFFFFFFFFFFFFFFFFFFFFFFFFF AND PUSH32 0xBB123B5C06D5408BBEA3C4FEF481578175CFB432E3B482C6186F02ED9086585B DUP4 PUSH1 0x40 MLOAD PUSH2 0x1A3A SWAP2 SWAP1 PUSH2 0x2D97 JUMP JUMPDEST PUSH1 0x40 MLOAD DUP1 SWAP2 SUB SWAP1 LOG3 JUMPDEST DUP2 SWAP5 POP POP POP POP POP SWAP5 SWAP4 POP POP POP POP JUMP JUMPDEST PUSH1 0x0 DUP3 DUP3 DUP5 ADD SWAP2 POP DUP2 LT ISZERO PUSH2 0x1A66 JUMPI PUSH1 0x0 DUP1 REVERT JUMPDEST SWAP3 SWAP2 POP POP JUMP JUMPDEST PUSH1 0x0 JUMPDEST DUP2 MLOAD DUP2 LT ISZERO PUSH2 0x1BE2 JUMPI PUSH1 0x0 PUSH1 0x33 PUSH1 0x0 DUP5 DUP5 DUP2 MLOAD DUP2 LT PUSH2 0x1A8A JUMPI INVALID JUMPDEST PUSH1 0x20 MUL PUSH1 0x20 ADD ADD MLOAD PUSH1 0x40 ADD MLOAD PUSH20 0xFFFFFFFFFFFFFFFFFFFFFFFFFFFFFFFFFFFFFFFF AND PUSH20 0xFFFFFFFFFFFFFFFFFFFFFFFFFFFFFFFFFFFFFFFF AND DUP2 MSTORE PUSH1 0x20 ADD SWAP1 DUP2 MSTORE PUSH1 0x20 ADD PUSH1 0x0 KECCAK256 SWAP1 POP PUSH2 0x1B0B DUP4 DUP4 DUP2 MLOAD DUP2 LT PUSH2 0x1AE1 JUMPI INVALID JUMPDEST PUSH1 0x20 MUL PUSH1 0x20 ADD ADD MLOAD PUSH1 0x40 ADD MLOAD DUP3 DUP6 DUP6 DUP2 MLOAD DUP2 LT PUSH2 0x1AFA JUMPI INVALID JUMPDEST PUSH1 0x20 MUL PUSH1 0x20 ADD ADD MLOAD PUSH1 0x20 ADD MLOAD PUSH2 0x1E8B JUMP JUMPDEST POP DUP3 DUP3 DUP2 MLOAD DUP2 LT PUSH2 0x1B18 JUMPI INVALID JUMPDEST PUSH1 0x20 MUL PUSH1 0x20 ADD ADD MLOAD PUSH1 0x0 ADD MLOAD DUP2 PUSH1 0x0 ADD PUSH1 0x0 PUSH2 0x100 EXP DUP2 SLOAD DUP2 PUSH13 0xFFFFFFFFFFFFFFFFFFFFFFFFFF MUL NOT AND SWAP1 DUP4 PUSH13 0xFFFFFFFFFFFFFFFFFFFFFFFFFF AND MUL OR SWAP1 SSTORE POP DUP3 DUP3 DUP2 MLOAD DUP2 LT PUSH2 0x1B64 JUMPI INVALID JUMPDEST PUSH1 0x20 MUL PUSH1 0x20 ADD ADD MLOAD PUSH1 0x40 ADD MLOAD PUSH20 0xFFFFFFFFFFFFFFFFFFFFFFFFFFFFFFFFFFFFFFFF AND PUSH32 0x87FA03892A0556CB6B8F97E6D533A150D4D55FCBF275FFF5FA003FA636BCC7FA DUP5 DUP5 DUP2 MLOAD DUP2 LT PUSH2 0x1BB3 JUMPI INVALID JUMPDEST PUSH1 0x20 MUL PUSH1 0x20 ADD ADD MLOAD PUSH1 0x0 ADD MLOAD PUSH1 0x40 MLOAD PUSH2 0x1BCC SWAP2 SWAP1 PUSH2 0x2D45 JUMP JUMPDEST PUSH1 0x40 MLOAD DUP1 SWAP2 SUB SWAP1 LOG2 POP DUP1 DUP1 PUSH1 0x1 ADD SWAP2 POP POP PUSH2 0x1A6F JUMP JUMPDEST POP POP JUMP JUMPDEST PUSH1 0x0 DUP1 PUSH1 0x0 SWAP1 POP PUSH1 0x0 JUMPDEST DUP4 MLOAD DUP2 LT ISZERO PUSH2 0x1D74 JUMPI PUSH1 0x0 PUSH1 0x33 PUSH1 0x0 DUP7 DUP5 DUP2 MLOAD DUP2 LT PUSH2 0x1C0B JUMPI INVALID JUMPDEST PUSH1 0x20 MUL PUSH1 0x20 ADD ADD MLOAD PUSH1 0x0 ADD MLOAD PUSH20 0xFFFFFFFFFFFFFFFFFFFFFFFFFFFFFFFFFFFFFFFF AND PUSH20 0xFFFFFFFFFFFFFFFFFFFFFFFFFFFFFFFFFFFFFFFF AND DUP2 MSTORE PUSH1 0x20 ADD SWAP1 DUP2 MSTORE PUSH1 0x20 ADD PUSH1 0x0 KECCAK256 SWAP1 POP PUSH1 0x0 PUSH2 0x1CEC DUP3 PUSH1 0x0 ADD PUSH1 0xD SWAP1 SLOAD SWAP1 PUSH2 0x100 EXP SWAP1 DIV PUSH13 0xFFFFFFFFFFFFFFFFFFFFFFFFFF AND PUSH13 0xFFFFFFFFFFFFFFFFFFFFFFFFFF AND DUP4 PUSH1 0x0 ADD PUSH1 0x0 SWAP1 SLOAD SWAP1 PUSH2 0x100 EXP SWAP1 DIV PUSH13 0xFFFFFFFFFFFFFFFFFFFFFFFFFF AND PUSH13 0xFFFFFFFFFFFFFFFFFFFFFFFFFF AND DUP5 PUSH1 0x0 ADD PUSH1 0x1A SWAP1 SLOAD SWAP1 PUSH2 0x100 EXP SWAP1 DIV PUSH5 0xFFFFFFFFFF AND PUSH5 0xFFFFFFFFFF AND DUP10 DUP8 DUP2 MLOAD DUP2 LT PUSH2 0x1CDB JUMPI INVALID JUMPDEST PUSH1 0x20 MUL PUSH1 0x20 ADD ADD MLOAD PUSH1 0x40 ADD MLOAD PUSH2 0x20BE JUMP JUMPDEST SWAP1 POP PUSH2 0x1D63 PUSH2 0x1D54 DUP8 DUP6 DUP2 MLOAD DUP2 LT PUSH2 0x1D00 JUMPI INVALID JUMPDEST PUSH1 0x20 MUL PUSH1 0x20 ADD ADD MLOAD PUSH1 0x20 ADD MLOAD DUP4 DUP6 PUSH1 0x1 ADD PUSH1 0x0 DUP13 PUSH20 0xFFFFFFFFFFFFFFFFFFFFFFFFFFFFFFFFFFFFFFFF AND PUSH20 0xFFFFFFFFFFFFFFFFFFFFFFFFFFFFFFFFFFFFFFFF AND DUP2 MSTORE PUSH1 0x20 ADD SWAP1 DUP2 MSTORE PUSH1 0x20 ADD PUSH1 0x0 KECCAK256 SLOAD PUSH2 0x207E JUMP JUMPDEST DUP6 PUSH2 0x1A52 SWAP1 SWAP2 SWAP1 PUSH4 0xFFFFFFFF AND JUMP JUMPDEST SWAP4 POP POP POP DUP1 DUP1 PUSH1 0x1 ADD SWAP2 POP POP PUSH2 0x1BF0 JUMP JUMPDEST POP DUP1 SWAP2 POP POP SWAP3 SWAP2 POP POP JUMP JUMPDEST PUSH1 0x0 PUSH1 0x1 SWAP1 POP SWAP1 JUMP JUMPDEST PUSH1 0x0 DUP1 PUSH1 0x0 SWAP1 POP PUSH1 0x0 JUMPDEST DUP4 MLOAD DUP2 LT ISZERO PUSH2 0x1E0D JUMPI PUSH2 0x1DFE PUSH2 0x1DEF DUP7 DUP7 DUP5 DUP2 MLOAD DUP2 LT PUSH2 0x1DAE JUMPI INVALID JUMPDEST PUSH1 0x20 MUL PUSH1 0x20 ADD ADD MLOAD PUSH1 0x0 ADD MLOAD DUP8 DUP6 DUP2 MLOAD DUP2 LT PUSH2 0x1DC6 JUMPI INVALID JUMPDEST PUSH1 0x20 MUL PUSH1 0x20 ADD ADD MLOAD PUSH1 0x20 ADD MLOAD DUP9 DUP7 DUP2 MLOAD DUP2 LT PUSH2 0x1DDE JUMPI INVALID JUMPDEST PUSH1 0x20 MUL PUSH1 0x20 ADD ADD MLOAD PUSH1 0x40 ADD MLOAD PUSH2 0x18E0 JUMP JUMPDEST DUP4 PUSH2 0x1A52 SWAP1 SWAP2 SWAP1 PUSH4 0xFFFFFFFF AND JUMP JUMPDEST SWAP2 POP DUP1 DUP1 PUSH1 0x1 ADD SWAP2 POP POP PUSH2 0x1D92 JUMP JUMPDEST POP DUP1 SWAP2 POP POP SWAP3 SWAP2 POP POP JUMP JUMPDEST PUSH2 0x1E87 PUSH1 0x37 PUSH1 0x0 SWAP1 SLOAD SWAP1 PUSH2 0x100 EXP SWAP1 DIV PUSH20 0xFFFFFFFFFFFFFFFFFFFFFFFFFFFFFFFFFFFFFFFF AND DUP4 DUP4 PUSH32 0x0 PUSH20 0xFFFFFFFFFFFFFFFFFFFFFFFFFFFFFFFFFFFFFFFF AND PUSH2 0x21B6 SWAP1 SWAP4 SWAP3 SWAP2 SWAP1 PUSH4 0xFFFFFFFF AND JUMP JUMPDEST POP POP JUMP JUMPDEST PUSH1 0x0 DUP1 DUP4 PUSH1 0x0 ADD PUSH1 0xD SWAP1 SLOAD SWAP1 PUSH2 0x100 EXP SWAP1 DIV PUSH13 0xFFFFFFFFFFFFFFFFFFFFFFFFFF AND PUSH13 0xFFFFFFFFFFFFFFFFFFFFFFFFFF AND SWAP1 POP PUSH1 0x0 DUP5 PUSH1 0x0 ADD PUSH1 0x0 SWAP1 SLOAD SWAP1 PUSH2 0x100 EXP SWAP1 DIV PUSH13 0xFFFFFFFFFFFFFFFFFFFFFFFFFF AND PUSH13 0xFFFFFFFFFFFFFFFFFFFFFFFFFF AND SWAP1 POP PUSH1 0x0 DUP6 PUSH1 0x0 ADD PUSH1 0x1A SWAP1 SLOAD SWAP1 PUSH2 0x100 EXP SWAP1 DIV PUSH5 0xFFFFFFFFFF AND PUSH5 0xFFFFFFFFFF AND SWAP1 POP DUP1 PUSH16 0xFFFFFFFFFFFFFFFFFFFFFFFFFFFFFFFF AND TIMESTAMP EQ ISZERO PUSH2 0x1F34 JUMPI DUP3 SWAP4 POP POP POP POP PUSH2 0x2077 JUMP JUMPDEST PUSH1 0x0 PUSH2 0x1F42 DUP5 DUP5 DUP5 DUP10 PUSH2 0x20BE JUMP JUMPDEST SWAP1 POP DUP4 DUP2 EQ PUSH2 0x2049 JUMPI DUP1 DUP2 PUSH13 0xFFFFFFFFFFFFFFFFFFFFFFFFFF AND EQ PUSH2 0x1F9C JUMPI PUSH1 0x40 MLOAD PUSH32 0x8C379A000000000000000000000000000000000000000000000000000000000 DUP2 MSTORE PUSH1 0x4 ADD PUSH2 0x1F93 SWAP1 PUSH2 0x2CE5 JUMP JUMPDEST PUSH1 0x40 MLOAD DUP1 SWAP2 SUB SWAP1 REVERT JUMPDEST DUP1 DUP8 PUSH1 0x0 ADD PUSH1 0xD PUSH2 0x100 EXP DUP2 SLOAD DUP2 PUSH13 0xFFFFFFFFFFFFFFFFFFFFFFFFFF MUL NOT AND SWAP1 DUP4 PUSH13 0xFFFFFFFFFFFFFFFFFFFFFFFFFF AND MUL OR SWAP1 SSTORE POP TIMESTAMP DUP8 PUSH1 0x0 ADD PUSH1 0x1A PUSH2 0x100 EXP DUP2 SLOAD DUP2 PUSH5 0xFFFFFFFFFF MUL NOT AND SWAP1 DUP4 PUSH5 0xFFFFFFFFFF AND MUL OR SWAP1 SSTORE POP DUP8 PUSH20 0xFFFFFFFFFFFFFFFFFFFFFFFFFFFFFFFFFFFFFFFF AND PUSH32 0x5777CA300DFE5BEAD41006FBCE4389794DBC0ED8D6CCCEBFAF94630AA04184BC DUP3 PUSH1 0x40 MLOAD PUSH2 0x203C SWAP2 SWAP1 PUSH2 0x2D97 JUMP JUMPDEST PUSH1 0x40 MLOAD DUP1 SWAP2 SUB SWAP1 LOG2 PUSH2 0x206F JUMP JUMPDEST TIMESTAMP DUP8 PUSH1 0x0 ADD PUSH1 0x1A PUSH2 0x100 EXP DUP2 SLOAD DUP2 PUSH5 0xFFFFFFFFFF MUL NOT AND SWAP1 DUP4 PUSH5 0xFFFFFFFFFF AND MUL OR SWAP1 SSTORE POP JUMPDEST DUP1 SWAP5 POP POP POP POP POP JUMPDEST SWAP4 SWAP3 POP POP POP JUMP JUMPDEST PUSH1 0x0 PUSH1 0x12 PUSH1 0xFF AND PUSH1 0xA EXP PUSH2 0x20AD PUSH2 0x209E DUP5 DUP7 PUSH2 0x2277 SWAP1 SWAP2 SWAP1 PUSH4 0xFFFFFFFF AND JUMP JUMPDEST DUP7 PUSH2 0x2291 SWAP1 SWAP2 SWAP1 PUSH4 0xFFFFFFFF AND JUMP JUMPDEST DUP2 PUSH2 0x20B4 JUMPI INVALID JUMPDEST DIV SWAP1 POP SWAP4 SWAP3 POP POP POP JUMP JUMPDEST PUSH1 0x0 DUP1 PUSH1 0x34 SLOAD SWAP1 POP PUSH1 0x0 DUP6 EQ DUP1 PUSH2 0x20D5 JUMPI POP PUSH1 0x0 DUP4 EQ JUMPDEST DUP1 PUSH2 0x20F1 JUMPI POP TIMESTAMP DUP5 PUSH16 0xFFFFFFFFFFFFFFFFFFFFFFFFFFFFFFFF AND EQ JUMPDEST DUP1 PUSH2 0x210E JUMPI POP DUP1 DUP5 PUSH16 0xFFFFFFFFFFFFFFFFFFFFFFFFFFFFFFFF AND LT ISZERO JUMPDEST ISZERO PUSH2 0x211C JUMPI DUP6 SWAP2 POP POP PUSH2 0x21AE JUMP JUMPDEST PUSH1 0x0 DUP2 TIMESTAMP GT PUSH2 0x212B JUMPI TIMESTAMP PUSH2 0x212D JUMP JUMPDEST DUP2 JUMPDEST SWAP1 POP PUSH1 0x0 PUSH2 0x2156 DUP7 PUSH16 0xFFFFFFFFFFFFFFFFFFFFFFFFFFFFFFFF AND DUP4 PUSH2 0x2277 SWAP1 SWAP2 SWAP1 PUSH4 0xFFFFFFFF AND JUMP JUMPDEST SWAP1 POP PUSH2 0x21A8 DUP9 PUSH2 0x219A DUP8 PUSH2 0x218C PUSH1 0x12 PUSH1 0xFF AND PUSH1 0xA EXP PUSH2 0x217E DUP8 DUP15 PUSH2 0x2291 SWAP1 SWAP2 SWAP1 PUSH4 0xFFFFFFFF AND JUMP JUMPDEST PUSH2 0x2291 SWAP1 SWAP2 SWAP1 PUSH4 0xFFFFFFFF AND JUMP JUMPDEST PUSH2 0x22BD SWAP1 SWAP2 SWAP1 PUSH4 0xFFFFFFFF AND JUMP JUMPDEST PUSH2 0x1A52 SWAP1 SWAP2 SWAP1 PUSH4 0xFFFFFFFF AND JUMP JUMPDEST SWAP4 POP POP POP POP JUMPDEST SWAP5 SWAP4 POP POP POP POP JUMP JUMPDEST PUSH2 0x2271 DUP5 PUSH4 0x23B872DD PUSH1 0xE0 SHL DUP6 DUP6 DUP6 PUSH1 0x40 MLOAD PUSH1 0x24 ADD DUP1 DUP5 PUSH20 0xFFFFFFFFFFFFFFFFFFFFFFFFFFFFFFFFFFFFFFFF AND DUP2 MSTORE PUSH1 0x20 ADD DUP4 PUSH20 0xFFFFFFFFFFFFFFFFFFFFFFFFFFFFFFFFFFFFFFFF AND DUP2 MSTORE PUSH1 0x20 ADD DUP3 DUP2 MSTORE PUSH1 0x20 ADD SWAP4 POP POP POP POP PUSH1 0x40 MLOAD PUSH1 0x20 DUP2 DUP4 SUB SUB DUP2 MSTORE SWAP1 PUSH1 0x40 MSTORE SWAP1 PUSH28 0xFFFFFFFFFFFFFFFFFFFFFFFFFFFFFFFFFFFFFFFFFFFFFFFFFFFFFFFF NOT AND PUSH1 0x20 DUP3 ADD DUP1 MLOAD PUSH28 0xFFFFFFFFFFFFFFFFFFFFFFFFFFFFFFFFFFFFFFFFFFFFFFFFFFFFFFFF DUP4 DUP2 DUP4 AND OR DUP4 MSTORE POP POP POP POP PUSH2 0x22D1 JUMP JUMPDEST POP POP POP POP JUMP JUMPDEST PUSH1 0x0 DUP3 DUP3 DUP5 SUB SWAP2 POP DUP2 GT ISZERO PUSH2 0x228B JUMPI PUSH1 0x0 DUP1 REVERT JUMPDEST SWAP3 SWAP2 POP POP JUMP JUMPDEST PUSH1 0x0 DUP1 DUP4 EQ DUP1 PUSH2 0x22AE JUMPI POP DUP2 DUP4 DUP4 DUP6 MUL SWAP3 POP DUP3 DUP2 PUSH2 0x22AB JUMPI INVALID JUMPDEST DIV EQ JUMPDEST PUSH2 0x22B7 JUMPI PUSH1 0x0 DUP1 REVERT JUMPDEST SWAP3 SWAP2 POP POP JUMP JUMPDEST PUSH1 0x0 DUP2 DUP4 DUP2 PUSH2 0x22C8 JUMPI INVALID JUMPDEST DIV SWAP1 POP SWAP3 SWAP2 POP POP JUMP JUMPDEST PUSH2 0x22F0 DUP3 PUSH20 0xFFFFFFFFFFFFFFFFFFFFFFFFFFFFFFFFFFFFFFFF AND PUSH2 0x251C JUMP JUMPDEST PUSH2 0x2362 JUMPI PUSH1 0x40 MLOAD PUSH32 0x8C379A000000000000000000000000000000000000000000000000000000000 DUP2 MSTORE PUSH1 0x4 ADD DUP1 DUP1 PUSH1 0x20 ADD DUP3 DUP2 SUB DUP3 MSTORE PUSH1 0x1F DUP2 MSTORE PUSH1 0x20 ADD DUP1 PUSH32 0x5361666545524332303A2063616C6C20746F206E6F6E2D636F6E747261637400 DUP2 MSTORE POP PUSH1 0x20 ADD SWAP2 POP POP PUSH1 0x40 MLOAD DUP1 SWAP2 SUB SWAP1 REVERT JUMPDEST PUSH1 0x0 PUSH1 0x60 DUP4 PUSH20 0xFFFFFFFFFFFFFFFFFFFFFFFFFFFFFFFFFFFFFFFF AND DUP4 PUSH1 0x40 MLOAD DUP1 DUP3 DUP1 MLOAD SWAP1 PUSH1 0x20 ADD SWAP1 DUP1 DUP4 DUP4 JUMPDEST PUSH1 0x20 DUP4 LT PUSH2 0x23B1 JUMPI DUP1 MLOAD DUP3 MSTORE PUSH1 0x20 DUP3 ADD SWAP2 POP PUSH1 0x20 DUP2 ADD SWAP1 POP PUSH1 0x20 DUP4 SUB SWAP3 POP PUSH2 0x238E JUMP JUMPDEST PUSH1 0x1 DUP4 PUSH1 0x20 SUB PUSH2 0x100 EXP SUB DUP1 NOT DUP3 MLOAD AND DUP2 DUP5 MLOAD AND DUP1 DUP3 OR DUP6 MSTORE POP POP POP POP POP POP SWAP1 POP ADD SWAP2 POP POP PUSH1 0x0 PUSH1 0x40 MLOAD DUP1 DUP4 SUB DUP2 PUSH1 0x0 DUP7 GAS CALL SWAP2 POP POP RETURNDATASIZE DUP1 PUSH1 0x0 DUP2 EQ PUSH2 0x2413 JUMPI PUSH1 0x40 MLOAD SWAP2 POP PUSH1 0x1F NOT PUSH1 0x3F RETURNDATASIZE ADD AND DUP3 ADD PUSH1 0x40 MSTORE RETURNDATASIZE DUP3 MSTORE RETURNDATASIZE PUSH1 0x0 PUSH1 0x20 DUP5 ADD RETURNDATACOPY PUSH2 0x2418 JUMP JUMPDEST PUSH1 0x60 SWAP2 POP JUMPDEST POP SWAP2 POP SWAP2 POP DUP2 PUSH2 0x2490 JUMPI PUSH1 0x40 MLOAD PUSH32 0x8C379A000000000000000000000000000000000000000000000000000000000 DUP2 MSTORE PUSH1 0x4 ADD DUP1 DUP1 PUSH1 0x20 ADD DUP3 DUP2 SUB DUP3 MSTORE PUSH1 0x20 DUP2 MSTORE PUSH1 0x20 ADD DUP1 PUSH32 0x5361666545524332303A206C6F772D6C6576656C2063616C6C206661696C6564 DUP2 MSTORE POP PUSH1 0x20 ADD SWAP2 POP POP PUSH1 0x40 MLOAD DUP1 SWAP2 SUB SWAP1 REVERT JUMPDEST PUSH1 0x0 DUP2 MLOAD GT ISZERO PUSH2 0x2516 JUMPI DUP1 DUP1 PUSH1 0x20 ADD SWAP1 MLOAD PUSH1 0x20 DUP2 LT ISZERO PUSH2 0x24AF JUMPI PUSH1 0x0 DUP1 REVERT JUMPDEST DUP2 ADD SWAP1 DUP1 DUP1 MLOAD SWAP1 PUSH1 0x20 ADD SWAP1 SWAP3 SWAP2 SWAP1 POP POP POP PUSH2 0x2515 JUMPI PUSH1 0x40 MLOAD PUSH32 0x8C379A000000000000000000000000000000000000000000000000000000000 DUP2 MSTORE PUSH1 0x4 ADD DUP1 DUP1 PUSH1 0x20 ADD DUP3 DUP2 SUB DUP3 MSTORE PUSH1 0x2A DUP2 MSTORE PUSH1 0x20 ADD DUP1 PUSH2 0x2EF7 PUSH1 0x2A SWAP2 CODECOPY PUSH1 0x40 ADD SWAP2 POP POP PUSH1 0x40 MLOAD DUP1 SWAP2 SUB SWAP1 REVERT JUMPDEST JUMPDEST POP POP POP POP JUMP JUMPDEST PUSH1 0x0 DUP1 PUSH1 0x0 PUSH32 0xC5D2460186F7233C927E7DB2DCC703C0E500B653CA82273B7BFAD8045D85A470 PUSH1 0x0 SHL SWAP1 POP DUP4 EXTCODEHASH SWAP2 POP DUP1 DUP3 EQ ISZERO DUP1 ISZERO PUSH2 0x255E JUMPI POP PUSH1 0x0 DUP1 SHL DUP3 EQ ISZERO JUMPDEST SWAP3 POP POP POP SWAP2 SWAP1 POP JUMP JUMPDEST PUSH1 0x40 MLOAD DUP1 PUSH1 0x60 ADD PUSH1 0x40 MSTORE DUP1 PUSH1 0x0 PUSH13 0xFFFFFFFFFFFFFFFFFFFFFFFFFF AND DUP2 MSTORE PUSH1 0x20 ADD PUSH1 0x0 DUP2 MSTORE PUSH1 0x20 ADD PUSH1 0x0 PUSH20 0xFFFFFFFFFFFFFFFFFFFFFFFFFFFFFFFFFFFFFFFF AND DUP2 MSTORE POP SWAP1 JUMP JUMPDEST PUSH1 0x40 MLOAD DUP1 PUSH1 0x60 ADD PUSH1 0x40 MSTORE DUP1 PUSH1 0x0 PUSH20 0xFFFFFFFFFFFFFFFFFFFFFFFFFFFFFFFFFFFFFFFF AND DUP2 MSTORE PUSH1 0x20 ADD PUSH1 0x0 DUP2 MSTORE PUSH1 0x20 ADD PUSH1 0x0 DUP2 MSTORE POP SWAP1 JUMP JUMPDEST PUSH1 0x0 DUP2 CALLDATALOAD SWAP1 POP PUSH2 0x25F3 DUP2 PUSH2 0x2E9A JUMP JUMPDEST SWAP3 SWAP2 POP POP JUMP JUMPDEST PUSH1 0x0 DUP1 DUP4 PUSH1 0x1F DUP5 ADD SLT PUSH2 0x260B JUMPI PUSH1 0x0 DUP1 REVERT JUMPDEST DUP3 CALLDATALOAD SWAP1 POP PUSH8 0xFFFFFFFFFFFFFFFF DUP2 GT ISZERO PUSH2 0x2624 JUMPI PUSH1 0x0 DUP1 REVERT JUMPDEST PUSH1 0x20 DUP4 ADD SWAP2 POP DUP4 PUSH1 0x20 DUP3 MUL DUP4 ADD GT ISZERO PUSH2 0x263C JUMPI PUSH1 0x0 DUP1 REVERT JUMPDEST SWAP3 POP SWAP3 SWAP1 POP JUMP JUMPDEST PUSH1 0x0 DUP1 DUP4 PUSH1 0x1F DUP5 ADD SLT PUSH2 0x2655 JUMPI PUSH1 0x0 DUP1 REVERT JUMPDEST DUP3 CALLDATALOAD SWAP1 POP PUSH8 0xFFFFFFFFFFFFFFFF DUP2 GT ISZERO PUSH2 0x266E JUMPI PUSH1 0x0 DUP1 REVERT JUMPDEST PUSH1 0x20 DUP4 ADD SWAP2 POP DUP4 PUSH1 0x20 DUP3 MUL DUP4 ADD GT ISZERO PUSH2 0x2686 JUMPI PUSH1 0x0 DUP1 REVERT JUMPDEST SWAP3 POP SWAP3 SWAP1 POP JUMP JUMPDEST PUSH1 0x0 DUP2 CALLDATALOAD SWAP1 POP PUSH2 0x269C DUP2 PUSH2 0x2EB1 JUMP JUMPDEST SWAP3 SWAP2 POP POP JUMP JUMPDEST PUSH1 0x0 DUP2 MLOAD SWAP1 POP PUSH2 0x26B1 DUP2 PUSH2 0x2EB1 JUMP JUMPDEST SWAP3 SWAP2 POP POP JUMP JUMPDEST PUSH1 0x0 PUSH1 0x20 DUP3 DUP5 SUB SLT ISZERO PUSH2 0x26C9 JUMPI PUSH1 0x0 DUP1 REVERT JUMPDEST PUSH1 0x0 PUSH2 0x26D7 DUP5 DUP3 DUP6 ADD PUSH2 0x25E4 JUMP JUMPDEST SWAP2 POP POP SWAP3 SWAP2 POP POP JUMP JUMPDEST PUSH1 0x0 DUP1 PUSH1 0x40 DUP4 DUP6 SUB SLT ISZERO PUSH2 0x26F3 JUMPI PUSH1 0x0 DUP1 REVERT JUMPDEST PUSH1 0x0 PUSH2 0x2701 DUP6 DUP3 DUP7 ADD PUSH2 0x25E4 JUMP JUMPDEST SWAP3 POP POP PUSH1 0x20 PUSH2 0x2712 DUP6 DUP3 DUP7 ADD PUSH2 0x25E4 JUMP JUMPDEST SWAP2 POP POP SWAP3 POP SWAP3 SWAP1 POP JUMP JUMPDEST PUSH1 0x0 DUP1 PUSH1 0x0 PUSH1 0x60 DUP5 DUP7 SUB SLT ISZERO PUSH2 0x2731 JUMPI PUSH1 0x0 DUP1 REVERT JUMPDEST PUSH1 0x0 PUSH2 0x273F DUP7 DUP3 DUP8 ADD PUSH2 0x25E4 JUMP JUMPDEST SWAP4 POP POP PUSH1 0x20 PUSH2 0x2750 DUP7 DUP3 DUP8 ADD PUSH2 0x268D JUMP JUMPDEST SWAP3 POP POP PUSH1 0x40 PUSH2 0x2761 DUP7 DUP3 DUP8 ADD PUSH2 0x268D JUMP JUMPDEST SWAP2 POP POP SWAP3 POP SWAP3 POP SWAP3 JUMP JUMPDEST PUSH1 0x0 DUP1 PUSH1 0x0 PUSH1 0x40 DUP5 DUP7 SUB SLT ISZERO PUSH2 0x2780 JUMPI PUSH1 0x0 DUP1 REVERT JUMPDEST PUSH1 0x0 DUP5 ADD CALLDATALOAD PUSH8 0xFFFFFFFFFFFFFFFF DUP2 GT ISZERO PUSH2 0x279A JUMPI PUSH1 0x0 DUP1 REVERT JUMPDEST PUSH2 0x27A6 DUP7 DUP3 DUP8 ADD PUSH2 0x25F9 JUMP JUMPDEST SWAP4 POP SWAP4 POP POP PUSH1 0x20 PUSH2 0x27B9 DUP7 DUP3 DUP8 ADD PUSH2 0x25E4 JUMP JUMPDEST SWAP2 POP POP SWAP3 POP SWAP3 POP SWAP3 JUMP JUMPDEST PUSH1 0x0 DUP1 PUSH1 0x0 DUP1 PUSH1 0x40 DUP6 DUP8 SUB SLT ISZERO PUSH2 0x27D9 JUMPI PUSH1 0x0 DUP1 REVERT JUMPDEST PUSH1 0x0 DUP6 ADD CALLDATALOAD PUSH8 0xFFFFFFFFFFFFFFFF DUP2 GT ISZERO PUSH2 0x27F3 JUMPI PUSH1 0x0 DUP1 REVERT JUMPDEST PUSH2 0x27FF DUP8 DUP3 DUP9 ADD PUSH2 0x25F9 JUMP JUMPDEST SWAP5 POP SWAP5 POP POP PUSH1 0x20 DUP6 ADD CALLDATALOAD PUSH8 0xFFFFFFFFFFFFFFFF DUP2 GT ISZERO PUSH2 0x281E JUMPI PUSH1 0x0 DUP1 REVERT JUMPDEST PUSH2 0x282A DUP8 DUP3 DUP9 ADD PUSH2 0x2643 JUMP JUMPDEST SWAP3 POP SWAP3 POP POP SWAP3 SWAP6 SWAP2 SWAP5 POP SWAP3 POP JUMP JUMPDEST PUSH1 0x0 DUP1 PUSH1 0x0 PUSH1 0x40 DUP5 DUP7 SUB SLT ISZERO PUSH2 0x284D JUMPI PUSH1 0x0 DUP1 REVERT JUMPDEST PUSH1 0x0 DUP5 ADD CALLDATALOAD PUSH8 0xFFFFFFFFFFFFFFFF DUP2 GT ISZERO PUSH2 0x2867 JUMPI PUSH1 0x0 DUP1 REVERT JUMPDEST PUSH2 0x2873 DUP7 DUP3 DUP8 ADD PUSH2 0x25F9 JUMP JUMPDEST SWAP4 POP SWAP4 POP POP PUSH1 0x20 PUSH2 0x2886 DUP7 DUP3 DUP8 ADD PUSH2 0x268D JUMP JUMPDEST SWAP2 POP POP SWAP3 POP SWAP3 POP SWAP3 JUMP JUMPDEST PUSH1 0x0 DUP1 PUSH1 0x0 DUP1 PUSH1 0x60 DUP6 DUP8 SUB SLT ISZERO PUSH2 0x28A6 JUMPI PUSH1 0x0 DUP1 REVERT JUMPDEST PUSH1 0x0 DUP6 ADD CALLDATALOAD PUSH8 0xFFFFFFFFFFFFFFFF DUP2 GT ISZERO PUSH2 0x28C0 JUMPI PUSH1 0x0 DUP1 REVERT JUMPDEST PUSH2 0x28CC DUP8 DUP3 DUP9 ADD PUSH2 0x25F9 JUMP JUMPDEST SWAP5 POP SWAP5 POP POP PUSH1 0x20 PUSH2 0x28DF DUP8 DUP3 DUP9 ADD PUSH2 0x268D JUMP JUMPDEST SWAP3 POP POP PUSH1 0x40 PUSH2 0x28F0 DUP8 DUP3 DUP9 ADD PUSH2 0x25E4 JUMP JUMPDEST SWAP2 POP POP SWAP3 SWAP6 SWAP2 SWAP5 POP SWAP3 POP JUMP JUMPDEST PUSH1 0x0 DUP1 PUSH1 0x0 DUP1 PUSH1 0x0 PUSH1 0x80 DUP7 DUP9 SUB SLT ISZERO PUSH2 0x2914 JUMPI PUSH1 0x0 DUP1 REVERT JUMPDEST PUSH1 0x0 DUP7 ADD CALLDATALOAD PUSH8 0xFFFFFFFFFFFFFFFF DUP2 GT ISZERO PUSH2 0x292E JUMPI PUSH1 0x0 DUP1 REVERT JUMPDEST PUSH2 0x293A DUP9 DUP3 DUP10 ADD PUSH2 0x25F9 JUMP JUMPDEST SWAP6 POP SWAP6 POP POP PUSH1 0x20 PUSH2 0x294D DUP9 DUP3 DUP10 ADD PUSH2 0x268D JUMP JUMPDEST SWAP4 POP POP PUSH1 0x40 PUSH2 0x295E DUP9 DUP3 DUP10 ADD PUSH2 0x25E4 JUMP JUMPDEST SWAP3 POP POP PUSH1 0x60 PUSH2 0x296F DUP9 DUP3 DUP10 ADD PUSH2 0x25E4 JUMP JUMPDEST SWAP2 POP POP SWAP3 SWAP6 POP SWAP3 SWAP6 SWAP1 SWAP4 POP JUMP JUMPDEST PUSH1 0x0 PUSH1 0x20 DUP3 DUP5 SUB SLT ISZERO PUSH2 0x298E JUMPI PUSH1 0x0 DUP1 REVERT JUMPDEST PUSH1 0x0 PUSH2 0x299C DUP5 DUP3 DUP6 ADD PUSH2 0x268D JUMP JUMPDEST SWAP2 POP POP SWAP3 SWAP2 POP POP JUMP JUMPDEST PUSH1 0x0 PUSH1 0x20 DUP3 DUP5 SUB SLT ISZERO PUSH2 0x29B7 JUMPI PUSH1 0x0 DUP1 REVERT JUMPDEST PUSH1 0x0 PUSH2 0x29C5 DUP5 DUP3 DUP6 ADD PUSH2 0x26A2 JUMP JUMPDEST SWAP2 POP POP SWAP3 SWAP2 POP POP JUMP JUMPDEST PUSH1 0x0 DUP1 PUSH1 0x40 DUP4 DUP6 SUB SLT ISZERO PUSH2 0x29E1 JUMPI PUSH1 0x0 DUP1 REVERT JUMPDEST PUSH1 0x0 PUSH2 0x29EF DUP6 DUP3 DUP7 ADD PUSH2 0x26A2 JUMP JUMPDEST SWAP3 POP POP PUSH1 0x20 PUSH2 0x2A00 DUP6 DUP3 DUP7 ADD PUSH2 0x26A2 JUMP JUMPDEST SWAP2 POP POP SWAP3 POP SWAP3 SWAP1 POP JUMP JUMPDEST PUSH2 0x2A13 DUP2 PUSH2 0x2E15 JUMP JUMPDEST DUP3 MSTORE POP POP JUMP JUMPDEST PUSH1 0x0 PUSH2 0x2A26 PUSH1 0x14 DUP4 PUSH2 0x2E04 JUMP JUMPDEST SWAP2 POP PUSH32 0x494E56414C49445F555345525F41444452455353000000000000000000000000 PUSH1 0x0 DUP4 ADD MSTORE PUSH1 0x20 DUP3 ADD SWAP1 POP SWAP2 SWAP1 POP JUMP JUMPDEST PUSH1 0x0 PUSH2 0x2A66 PUSH1 0x12 DUP4 PUSH2 0x2E04 JUMP JUMPDEST SWAP2 POP PUSH32 0x494E56414C49445F544F5F414444524553530000000000000000000000000000 PUSH1 0x0 DUP4 ADD MSTORE PUSH1 0x20 DUP3 ADD SWAP1 POP SWAP2 SWAP1 POP JUMP JUMPDEST PUSH1 0x0 PUSH2 0x2AA6 PUSH1 0x15 DUP4 PUSH2 0x2E04 JUMP JUMPDEST SWAP2 POP PUSH32 0x494E56414C49445F434F4E46494755524154494F4E0000000000000000000000 PUSH1 0x0 DUP4 ADD MSTORE PUSH1 0x20 DUP3 ADD SWAP1 POP SWAP2 SWAP1 POP JUMP JUMPDEST PUSH1 0x0 PUSH2 0x2AE6 PUSH1 0x24 DUP4 PUSH2 0x2E04 JUMP JUMPDEST SWAP2 POP PUSH32 0x496E646578206F766572666C6F7720617420656D697373696F6E735065725365 PUSH1 0x0 DUP4 ADD MSTORE PUSH32 0x636F6E6400000000000000000000000000000000000000000000000000000000 PUSH1 0x20 DUP4 ADD MSTORE PUSH1 0x40 DUP3 ADD SWAP1 POP SWAP2 SWAP1 POP JUMP JUMPDEST PUSH1 0x0 PUSH2 0x2B4C PUSH1 0xE DUP4 PUSH2 0x2E04 JUMP JUMPDEST SWAP2 POP PUSH32 0x496E646578206F766572666C6F77000000000000000000000000000000000000 PUSH1 0x0 DUP4 ADD MSTORE PUSH1 0x20 DUP3 ADD SWAP1 POP SWAP2 SWAP1 POP JUMP JUMPDEST PUSH1 0x0 PUSH2 0x2B8C PUSH1 0x15 DUP4 PUSH2 0x2E04 JUMP JUMPDEST SWAP2 POP PUSH32 0x4F4E4C595F454D495353494F4E5F4D414E414745520000000000000000000000 PUSH1 0x0 DUP4 ADD MSTORE PUSH1 0x20 DUP3 ADD SWAP1 POP SWAP2 SWAP1 POP JUMP JUMPDEST PUSH1 0x0 PUSH2 0x2BCC PUSH1 0x14 DUP4 PUSH2 0x2E04 JUMP JUMPDEST SWAP2 POP PUSH32 0x434C41494D45525F554E415554484F52495A4544000000000000000000000000 PUSH1 0x0 DUP4 ADD MSTORE PUSH1 0x20 DUP3 ADD SWAP1 POP SWAP2 SWAP1 POP JUMP JUMPDEST PUSH2 0x2C08 DUP2 PUSH2 0x2E27 JUMP JUMPDEST DUP3 MSTORE POP POP JUMP JUMPDEST PUSH2 0x2C17 DUP2 PUSH2 0x2E88 JUMP JUMPDEST DUP3 MSTORE POP POP JUMP JUMPDEST PUSH2 0x2C26 DUP2 PUSH2 0x2E60 JUMP JUMPDEST DUP3 MSTORE POP POP JUMP JUMPDEST PUSH2 0x2C35 DUP2 PUSH2 0x2E6A JUMP JUMPDEST DUP3 MSTORE POP POP JUMP JUMPDEST PUSH2 0x2C44 DUP2 PUSH2 0x2E7B JUMP JUMPDEST DUP3 MSTORE POP POP JUMP JUMPDEST PUSH1 0x0 PUSH1 0x20 DUP3 ADD SWAP1 POP PUSH2 0x2C5F PUSH1 0x0 DUP4 ADD DUP5 PUSH2 0x2A0A JUMP JUMPDEST SWAP3 SWAP2 POP POP JUMP JUMPDEST PUSH1 0x0 PUSH1 0x20 DUP3 ADD SWAP1 POP DUP2 DUP2 SUB PUSH1 0x0 DUP4 ADD MSTORE PUSH2 0x2C7E DUP2 PUSH2 0x2A19 JUMP JUMPDEST SWAP1 POP SWAP2 SWAP1 POP JUMP JUMPDEST PUSH1 0x0 PUSH1 0x20 DUP3 ADD SWAP1 POP DUP2 DUP2 SUB PUSH1 0x0 DUP4 ADD MSTORE PUSH2 0x2C9E DUP2 PUSH2 0x2A59 JUMP JUMPDEST SWAP1 POP SWAP2 SWAP1 POP JUMP JUMPDEST PUSH1 0x0 PUSH1 0x20 DUP3 ADD SWAP1 POP DUP2 DUP2 SUB PUSH1 0x0 DUP4 ADD MSTORE PUSH2 0x2CBE DUP2 PUSH2 0x2A99 JUMP JUMPDEST SWAP1 POP SWAP2 SWAP1 POP JUMP JUMPDEST PUSH1 0x0 PUSH1 0x20 DUP3 ADD SWAP1 POP DUP2 DUP2 SUB PUSH1 0x0 DUP4 ADD MSTORE PUSH2 0x2CDE DUP2 PUSH2 0x2AD9 JUMP JUMPDEST SWAP1 POP SWAP2 SWAP1 POP JUMP JUMPDEST PUSH1 0x0 PUSH1 0x20 DUP3 ADD SWAP1 POP DUP2 DUP2 SUB PUSH1 0x0 DUP4 ADD MSTORE PUSH2 0x2CFE DUP2 PUSH2 0x2B3F JUMP JUMPDEST SWAP1 POP SWAP2 SWAP1 POP JUMP JUMPDEST PUSH1 0x0 PUSH1 0x20 DUP3 ADD SWAP1 POP DUP2 DUP2 SUB PUSH1 0x0 DUP4 ADD MSTORE PUSH2 0x2D1E DUP2 PUSH2 0x2B7F JUMP JUMPDEST SWAP1 POP SWAP2 SWAP1 POP JUMP JUMPDEST PUSH1 0x0 PUSH1 0x20 DUP3 ADD SWAP1 POP DUP2 DUP2 SUB PUSH1 0x0 DUP4 ADD MSTORE PUSH2 0x2D3E DUP2 PUSH2 0x2BBF JUMP JUMPDEST SWAP1 POP SWAP2 SWAP1 POP JUMP JUMPDEST PUSH1 0x0 PUSH1 0x20 DUP3 ADD SWAP1 POP PUSH2 0x2D5A PUSH1 0x0 DUP4 ADD DUP5 PUSH2 0x2C0E JUMP JUMPDEST SWAP3 SWAP2 POP POP JUMP JUMPDEST PUSH1 0x0 PUSH1 0x60 DUP3 ADD SWAP1 POP PUSH2 0x2D75 PUSH1 0x0 DUP4 ADD DUP7 PUSH2 0x2BFF JUMP JUMPDEST PUSH2 0x2D82 PUSH1 0x20 DUP4 ADD DUP6 PUSH2 0x2BFF JUMP JUMPDEST PUSH2 0x2D8F PUSH1 0x40 DUP4 ADD DUP5 PUSH2 0x2C2C JUMP JUMPDEST SWAP5 SWAP4 POP POP POP POP JUMP JUMPDEST PUSH1 0x0 PUSH1 0x20 DUP3 ADD SWAP1 POP PUSH2 0x2DAC PUSH1 0x0 DUP4 ADD DUP5 PUSH2 0x2C1D JUMP JUMPDEST SWAP3 SWAP2 POP POP JUMP JUMPDEST PUSH1 0x0 PUSH1 0x60 DUP3 ADD SWAP1 POP PUSH2 0x2DC7 PUSH1 0x0 DUP4 ADD DUP7 PUSH2 0x2C1D JUMP JUMPDEST PUSH2 0x2DD4 PUSH1 0x20 DUP4 ADD DUP6 PUSH2 0x2C1D JUMP JUMPDEST PUSH2 0x2DE1 PUSH1 0x40 DUP4 ADD DUP5 PUSH2 0x2C1D JUMP JUMPDEST SWAP5 SWAP4 POP POP POP POP JUMP JUMPDEST PUSH1 0x0 PUSH1 0x20 DUP3 ADD SWAP1 POP PUSH2 0x2DFE PUSH1 0x0 DUP4 ADD DUP5 PUSH2 0x2C3B JUMP JUMPDEST SWAP3 SWAP2 POP POP JUMP JUMPDEST PUSH1 0x0 DUP3 DUP3 MSTORE PUSH1 0x20 DUP3 ADD SWAP1 POP SWAP3 SWAP2 POP POP JUMP JUMPDEST PUSH1 0x0 PUSH2 0x2E20 DUP3 PUSH2 0x2E40 JUMP JUMPDEST SWAP1 POP SWAP2 SWAP1 POP JUMP JUMPDEST PUSH1 0x0 PUSH13 0xFFFFFFFFFFFFFFFFFFFFFFFFFF DUP3 AND SWAP1 POP SWAP2 SWAP1 POP JUMP JUMPDEST PUSH1 0x0 PUSH20 0xFFFFFFFFFFFFFFFFFFFFFFFFFFFFFFFFFFFFFFFF DUP3 AND SWAP1 POP SWAP2 SWAP1 POP JUMP JUMPDEST PUSH1 0x0 DUP2 SWAP1 POP SWAP2 SWAP1 POP JUMP JUMPDEST PUSH1 0x0 PUSH5 0xFFFFFFFFFF DUP3 AND SWAP1 POP SWAP2 SWAP1 POP JUMP JUMPDEST PUSH1 0x0 PUSH1 0xFF DUP3 AND SWAP1 POP SWAP2 SWAP1 POP JUMP JUMPDEST PUSH1 0x0 PUSH2 0x2E93 DUP3 PUSH2 0x2E27 JUMP JUMPDEST SWAP1 POP SWAP2 SWAP1 POP JUMP JUMPDEST PUSH2 0x2EA3 DUP2 PUSH2 0x2E15 JUMP JUMPDEST DUP2 EQ PUSH2 0x2EAE JUMPI PUSH1 0x0 DUP1 REVERT JUMPDEST POP JUMP JUMPDEST PUSH2 0x2EBA DUP2 PUSH2 0x2E60 JUMP JUMPDEST DUP2 EQ PUSH2 0x2EC5 JUMPI PUSH1 0x0 DUP1 REVERT JUMPDEST POP JUMP INVALID NUMBER PUSH16 0x6E747261637420696E7374616E636520 PUSH9 0x617320616C72656164 PUSH26 0x206265656E20696E697469616C697A6564536166654552433230 GASPRICE KECCAK256 GASLIMIT MSTORE NUMBER ORIGIN ADDRESS KECCAK256 PUSH16 0x7065726174696F6E20646964206E6F74 KECCAK256 PUSH20 0x756363656564A26469706673582212208DDB6503 0xF8 LOG3 SWAP2 RETURN 0xAA CHAINID KECCAK256 0xA5 0xFB JUMPI DUP8 0xCD PUSH8 0x82C4C0CA8381FFA5 PUSH3 0xD24817 BYTE 0xD3 DUP15 PUSH5 0x736F6C6343 STOP SMOD SDIV STOP CALLER "
				},
				"gasEstimates": {
					"creation": {
						"codeDepositCost": "2423600",
						"executionCost": "infinite",
						"totalCost": "infinite"
					},
					"external": {
						"DISTRIBUTION_END()": "1160",
						"EMISSION_MANAGER()": "infinite",
						"PRECISION()": "402",
						"REVISION()": "373",
						"REWARD_TOKEN()": "infinite",
						"assets(address)": "infinite",
						"claimRewards(address[],uint256,address)": "infinite",
						"claimRewardsOnBehalf(address[],uint256,address,address)": "infinite",
						"claimRewardsToSelf(address[],uint256)": "infinite",
						"configureAssets(address[],uint256[])": "infinite",
						"getAssetData(address)": "infinite",
						"getClaimer(address)": "infinite",
						"getDistributionEnd()": "1159",
						"getRewardsBalance(address[],address)": "infinite",
						"getRewardsVault()": "1288",
						"getUserAssetData(address,address)": "infinite",
						"getUserUnclaimedRewards(address)": "1587",
						"handleAction(address,uint256,uint256)": "infinite",
						"initialize(address)": "infinite",
						"setClaimer(address,address)": "infinite",
						"setDistributionEnd(uint256)": "infinite",
						"setRewardsVault(address)": "infinite"
					},
					"internal": {
						"_transferRewards(address,uint256)": "infinite"
					}
				},
				"methodIdentifiers": {
					"DISTRIBUTION_END()": "919cd40f",
					"EMISSION_MANAGER()": "cbcbb507",
					"PRECISION()": "aaf5eb68",
					"REVISION()": "dde43cba",
					"REWARD_TOKEN()": "99248ea7",
					"assets(address)": "f11b8188",
					"claimRewards(address[],uint256,address)": "3111e7b3",
					"claimRewardsOnBehalf(address[],uint256,address,address)": "6d34b96e",
					"claimRewardsToSelf(address[],uint256)": "41485304",
					"configureAssets(address[],uint256[])": "79f171b2",
					"getAssetData(address)": "1652e7b7",
					"getClaimer(address)": "74d945ec",
					"getDistributionEnd()": "cc69afec",
					"getRewardsBalance(address[],address)": "8b599f26",
					"getRewardsVault()": "e23ddec5",
					"getUserAssetData(address,address)": "3373ee4c",
					"getUserUnclaimedRewards(address)": "198fa81e",
					"handleAction(address,uint256,uint256)": "31873e2e",
					"initialize(address)": "c4d66de8",
					"setClaimer(address,address)": "f5cf673b",
					"setDistributionEnd(uint256)": "39ccbdd3",
					"setRewardsVault(address)": "f5bb3e02"
				}
			},
			"storageLayout": {
				"storage": [
					{
						"astId": 501,
						"contract": "contracts/Omnidex-incentives/incentives/PullRewardsIncentivesController.sol:PullRewardsIncentivesController",
						"label": "lastInitializedRevision",
						"offset": 0,
						"slot": "0",
						"type": "t_uint256"
					},
					{
						"astId": 532,
						"contract": "contracts/Omnidex-incentives/incentives/PullRewardsIncentivesController.sol:PullRewardsIncentivesController",
						"label": "______gap",
						"offset": 0,
						"slot": "1",
						"type": "t_array(t_uint256)50_storage"
					},
					{
						"astId": 1298,
						"contract": "contracts/Omnidex-incentives/incentives/PullRewardsIncentivesController.sol:PullRewardsIncentivesController",
						"label": "assets",
						"offset": 0,
						"slot": "51",
						"type": "t_mapping(t_address,t_struct(AssetData)1289_storage)"
					},
					{
						"astId": 1300,
						"contract": "contracts/Omnidex-incentives/incentives/PullRewardsIncentivesController.sol:PullRewardsIncentivesController",
						"label": "_distributionEnd",
						"offset": 0,
						"slot": "52",
						"type": "t_uint256"
					},
					{
						"astId": 666,
						"contract": "contracts/Omnidex-incentives/incentives/PullRewardsIncentivesController.sol:PullRewardsIncentivesController",
						"label": "_usersUnclaimedRewards",
						"offset": 0,
						"slot": "53",
						"type": "t_mapping(t_address,t_uint256)"
					},
					{
						"astId": 670,
						"contract": "contracts/Omnidex-incentives/incentives/PullRewardsIncentivesController.sol:PullRewardsIncentivesController",
						"label": "_authorizedClaimers",
						"offset": 0,
						"slot": "54",
						"type": "t_mapping(t_address,t_address)"
					},
					{
						"astId": 550,
						"contract": "contracts/Omnidex-incentives/incentives/PullRewardsIncentivesController.sol:PullRewardsIncentivesController",
						"label": "_rewardsVault",
						"offset": 0,
						"slot": "55",
						"type": "t_address"
					}
				],
				"types": {
					"t_address": {
						"encoding": "inplace",
						"label": "address",
						"numberOfBytes": "20"
					},
					"t_array(t_uint256)50_storage": {
						"base": "t_uint256",
						"encoding": "inplace",
						"label": "uint256[50]",
						"numberOfBytes": "1600"
					},
					"t_mapping(t_address,t_address)": {
						"encoding": "mapping",
						"key": "t_address",
						"label": "mapping(address => address)",
						"numberOfBytes": "32",
						"value": "t_address"
					},
					"t_mapping(t_address,t_struct(AssetData)1289_storage)": {
						"encoding": "mapping",
						"key": "t_address",
						"label": "mapping(address => struct DistributionManager.AssetData)",
						"numberOfBytes": "32",
						"value": "t_struct(AssetData)1289_storage"
					},
					"t_mapping(t_address,t_uint256)": {
						"encoding": "mapping",
						"key": "t_address",
						"label": "mapping(address => uint256)",
						"numberOfBytes": "32",
						"value": "t_uint256"
					},
					"t_struct(AssetData)1289_storage": {
						"encoding": "inplace",
						"label": "struct DistributionManager.AssetData",
						"members": [
							{
								"astId": 1280,
								"contract": "contracts/Omnidex-incentives/incentives/PullRewardsIncentivesController.sol:PullRewardsIncentivesController",
								"label": "emissionPerSecond",
								"offset": 0,
								"slot": "0",
								"type": "t_uint104"
							},
							{
								"astId": 1282,
								"contract": "contracts/Omnidex-incentives/incentives/PullRewardsIncentivesController.sol:PullRewardsIncentivesController",
								"label": "index",
								"offset": 13,
								"slot": "0",
								"type": "t_uint104"
							},
							{
								"astId": 1284,
								"contract": "contracts/Omnidex-incentives/incentives/PullRewardsIncentivesController.sol:PullRewardsIncentivesController",
								"label": "lastUpdateTimestamp",
								"offset": 26,
								"slot": "0",
								"type": "t_uint40"
							},
							{
								"astId": 1288,
								"contract": "contracts/Omnidex-incentives/incentives/PullRewardsIncentivesController.sol:PullRewardsIncentivesController",
								"label": "users",
								"offset": 0,
								"slot": "1",
								"type": "t_mapping(t_address,t_uint256)"
							}
						],
						"numberOfBytes": "64"
					},
					"t_uint104": {
						"encoding": "inplace",
						"label": "uint104",
						"numberOfBytes": "13"
					},
					"t_uint256": {
						"encoding": "inplace",
						"label": "uint256",
						"numberOfBytes": "32"
					},
					"t_uint40": {
						"encoding": "inplace",
						"label": "uint40",
						"numberOfBytes": "5"
					}
				}
			},
			"userdoc": {
				"kind": "user",
				"methods": {},
				"notice": "Distributor contract for ERC20 rewards to the Omnidex protocol participants that pulls ERC20 from external account",
				"version": 1
			}
		}
	}
}