{
	"contracts/Omnidex-incentives/incentives/MultiSigWalletWithDailyLimit.sol": {
		"MultiSigWallet": {
			"abi": [
				{
					"constant": true,
					"inputs": [
						{
							"name": "",
							"type": "uint256"
						}
					],
					"name": "owners",
					"outputs": [
						{
							"name": "",
							"type": "address"
						}
					],
					"payable": false,
					"stateMutability": "view",
					"type": "function"
				},
				{
					"constant": false,
					"inputs": [
						{
							"name": "owner",
							"type": "address"
						}
					],
					"name": "removeOwner",
					"outputs": [],
					"payable": false,
					"stateMutability": "nonpayable",
					"type": "function"
				},
				{
					"constant": false,
					"inputs": [
						{
							"name": "transactionId",
							"type": "uint256"
						}
					],
					"name": "revokeConfirmation",
					"outputs": [],
					"payable": false,
					"stateMutability": "nonpayable",
					"type": "function"
				},
				{
					"constant": true,
					"inputs": [
						{
							"name": "",
							"type": "address"
						}
					],
					"name": "isOwner",
					"outputs": [
						{
							"name": "",
							"type": "bool"
						}
					],
					"payable": false,
					"stateMutability": "view",
					"type": "function"
				},
				{
					"constant": true,
					"inputs": [
						{
							"name": "",
							"type": "uint256"
						},
						{
							"name": "",
							"type": "address"
						}
					],
					"name": "confirmations",
					"outputs": [
						{
							"name": "",
							"type": "bool"
						}
					],
					"payable": false,
					"stateMutability": "view",
					"type": "function"
				},
				{
					"constant": true,
					"inputs": [
						{
							"name": "pending",
							"type": "bool"
						},
						{
							"name": "executed",
							"type": "bool"
						}
					],
					"name": "getTransactionCount",
					"outputs": [
						{
							"name": "count",
							"type": "uint256"
						}
					],
					"payable": false,
					"stateMutability": "view",
					"type": "function"
				},
				{
					"constant": false,
					"inputs": [
						{
							"name": "owner",
							"type": "address"
						}
					],
					"name": "addOwner",
					"outputs": [],
					"payable": false,
					"stateMutability": "nonpayable",
					"type": "function"
				},
				{
					"constant": true,
					"inputs": [
						{
							"name": "transactionId",
							"type": "uint256"
						}
					],
					"name": "isConfirmed",
					"outputs": [
						{
							"name": "",
							"type": "bool"
						}
					],
					"payable": false,
					"stateMutability": "view",
					"type": "function"
				},
				{
					"constant": true,
					"inputs": [
						{
							"name": "transactionId",
							"type": "uint256"
						}
					],
					"name": "getConfirmationCount",
					"outputs": [
						{
							"name": "count",
							"type": "uint256"
						}
					],
					"payable": false,
					"stateMutability": "view",
					"type": "function"
				},
				{
					"constant": true,
					"inputs": [
						{
							"name": "",
							"type": "uint256"
						}
					],
					"name": "transactions",
					"outputs": [
						{
							"name": "destination",
							"type": "address"
						},
						{
							"name": "value",
							"type": "uint256"
						},
						{
							"name": "data",
							"type": "bytes"
						},
						{
							"name": "executed",
							"type": "bool"
						}
					],
					"payable": false,
					"stateMutability": "view",
					"type": "function"
				},
				{
					"constant": true,
					"inputs": [],
					"name": "getOwners",
					"outputs": [
						{
							"name": "",
							"type": "address[]"
						}
					],
					"payable": false,
					"stateMutability": "view",
					"type": "function"
				},
				{
					"constant": true,
					"inputs": [
						{
							"name": "from",
							"type": "uint256"
						},
						{
							"name": "to",
							"type": "uint256"
						},
						{
							"name": "pending",
							"type": "bool"
						},
						{
							"name": "executed",
							"type": "bool"
						}
					],
					"name": "getTransactionIds",
					"outputs": [
						{
							"name": "_transactionIds",
							"type": "uint256[]"
						}
					],
					"payable": false,
					"stateMutability": "view",
					"type": "function"
				},
				{
					"constant": true,
					"inputs": [
						{
							"name": "transactionId",
							"type": "uint256"
						}
					],
					"name": "getConfirmations",
					"outputs": [
						{
							"name": "_confirmations",
							"type": "address[]"
						}
					],
					"payable": false,
					"stateMutability": "view",
					"type": "function"
				},
				{
					"constant": true,
					"inputs": [],
					"name": "transactionCount",
					"outputs": [
						{
							"name": "",
							"type": "uint256"
						}
					],
					"payable": false,
					"stateMutability": "view",
					"type": "function"
				},
				{
					"constant": false,
					"inputs": [
						{
							"name": "_required",
							"type": "uint256"
						}
					],
					"name": "changeRequirement",
					"outputs": [],
					"payable": false,
					"stateMutability": "nonpayable",
					"type": "function"
				},
				{
					"constant": false,
					"inputs": [
						{
							"name": "transactionId",
							"type": "uint256"
						}
					],
					"name": "confirmTransaction",
					"outputs": [],
					"payable": false,
					"stateMutability": "nonpayable",
					"type": "function"
				},
				{
					"constant": false,
					"inputs": [
						{
							"name": "destination",
							"type": "address"
						},
						{
							"name": "value",
							"type": "uint256"
						},
						{
							"name": "data",
							"type": "bytes"
						}
					],
					"name": "submitTransaction",
					"outputs": [
						{
							"name": "transactionId",
							"type": "uint256"
						}
					],
					"payable": false,
					"stateMutability": "nonpayable",
					"type": "function"
				},
				{
					"constant": true,
					"inputs": [],
					"name": "MAX_OWNER_COUNT",
					"outputs": [
						{
							"name": "",
							"type": "uint256"
						}
					],
					"payable": false,
					"stateMutability": "view",
					"type": "function"
				},
				{
					"constant": true,
					"inputs": [],
					"name": "required",
					"outputs": [
						{
							"name": "",
							"type": "uint256"
						}
					],
					"payable": false,
					"stateMutability": "view",
					"type": "function"
				},
				{
					"constant": false,
					"inputs": [
						{
							"name": "owner",
							"type": "address"
						},
						{
							"name": "newOwner",
							"type": "address"
						}
					],
					"name": "replaceOwner",
					"outputs": [],
					"payable": false,
					"stateMutability": "nonpayable",
					"type": "function"
				},
				{
					"constant": false,
					"inputs": [
						{
							"name": "transactionId",
							"type": "uint256"
						}
					],
					"name": "executeTransaction",
					"outputs": [],
					"payable": false,
					"stateMutability": "nonpayable",
					"type": "function"
				},
				{
					"inputs": [
						{
							"name": "_owners",
							"type": "address[]"
						},
						{
							"name": "_required",
							"type": "uint256"
						}
					],
					"payable": false,
					"stateMutability": "nonpayable",
					"type": "constructor"
				},
				{
					"payable": true,
					"stateMutability": "payable",
					"type": "fallback"
				},
				{
					"anonymous": false,
					"inputs": [
						{
							"indexed": true,
							"name": "sender",
							"type": "address"
						},
						{
							"indexed": true,
							"name": "transactionId",
							"type": "uint256"
						}
					],
					"name": "Confirmation",
					"type": "event"
				},
				{
					"anonymous": false,
					"inputs": [
						{
							"indexed": true,
							"name": "sender",
							"type": "address"
						},
						{
							"indexed": true,
							"name": "transactionId",
							"type": "uint256"
						}
					],
					"name": "Revocation",
					"type": "event"
				},
				{
					"anonymous": false,
					"inputs": [
						{
							"indexed": true,
							"name": "transactionId",
							"type": "uint256"
						}
					],
					"name": "Submission",
					"type": "event"
				},
				{
					"anonymous": false,
					"inputs": [
						{
							"indexed": true,
							"name": "transactionId",
							"type": "uint256"
						}
					],
					"name": "Execution",
					"type": "event"
				},
				{
					"anonymous": false,
					"inputs": [
						{
							"indexed": true,
							"name": "transactionId",
							"type": "uint256"
						}
					],
					"name": "ExecutionFailure",
					"type": "event"
				},
				{
					"anonymous": false,
					"inputs": [
						{
							"indexed": true,
							"name": "sender",
							"type": "address"
						},
						{
							"indexed": false,
							"name": "value",
							"type": "uint256"
						}
					],
					"name": "Deposit",
					"type": "event"
				},
				{
					"anonymous": false,
					"inputs": [
						{
							"indexed": true,
							"name": "owner",
							"type": "address"
						}
					],
					"name": "OwnerAddition",
					"type": "event"
				},
				{
					"anonymous": false,
					"inputs": [
						{
							"indexed": true,
							"name": "owner",
							"type": "address"
						}
					],
					"name": "OwnerRemoval",
					"type": "event"
				},
				{
					"anonymous": false,
					"inputs": [
						{
							"indexed": false,
							"name": "required",
							"type": "uint256"
						}
					],
					"name": "RequirementChange",
					"type": "event"
				}
			],
			"devdoc": {
				"author": "Stefan George - <stefan.george@consensys.net>",
				"methods": {
					"addOwner(address)": {
						"params": {
							"owner": "Address of new owner."
						}
					},
					"changeRequirement(uint256)": {
						"params": {
							"_required": "Number of required confirmations."
						}
					},
					"confirmTransaction(uint256)": {
						"params": {
							"transactionId": "Transaction ID."
						}
					},
					"executeTransaction(uint256)": {
						"params": {
							"transactionId": "Transaction ID."
						}
					},
					"getConfirmationCount(uint256)": {
						"return": "Number of confirmations."
					},
					"getConfirmations(uint256)": {
						"return": "Returns array of owner addresses."
					},
					"getOwners()": {
						"return": "List of owner addresses."
					},
					"getTransactionCount(bool,bool)": {
						"return": "Total number of transactions after filters are applied."
					},
					"getTransactionIds(uint256,uint256,bool,bool)": {
						"return": "Returns array of transaction IDs."
					},
					"isConfirmed(uint256)": {
						"return": "Confirmation status."
					},
					"removeOwner(address)": {
						"params": {
							"owner": "Address of owner."
						}
					},
					"replaceOwner(address,address)": {
						"params": {
							"newOwner": "Address of new owner."
						}
					},
					"revokeConfirmation(uint256)": {
						"params": {
							"transactionId": "Transaction ID."
						}
					},
					"submitTransaction(address,uint256,bytes)": {
						"return": "Returns transaction ID."
					}
				}
			},
			"evm": {
				"assembly": "    /* \"contracts/Omnidex-incentives/incentives/MultiSigWalletWithDailyLimit.sol\":1401:13092  contract MultiSigWallet {\r... */\n  mstore(0x40, 0x80)\n    /* \"contracts/Omnidex-incentives/incentives/MultiSigWalletWithDailyLimit.sol\":4132:4495  function MultiSigWallet(address[] _owners, uint _required)\r... */\n  callvalue\n    /* \"--CODEGEN--\":8:17   */\n  dup1\n    /* \"--CODEGEN--\":5:7   */\n  iszero\n  tag_1\n  jumpi\n    /* \"--CODEGEN--\":30:31   */\n  0x0\n    /* \"--CODEGEN--\":27:28   */\n  dup1\n    /* \"--CODEGEN--\":20:32   */\n  revert\n    /* \"--CODEGEN--\":5:7   */\ntag_1:\n    /* \"contracts/Omnidex-incentives/incentives/MultiSigWalletWithDailyLimit.sol\":4132:4495  function MultiSigWallet(address[] _owners, uint _required)\r... */\n  pop\n  mload(0x40)\n  sub(codesize, bytecodeSize)\n  dup1\n  bytecodeSize\n  dup4\n  codecopy\n  dup2\n  add\n  dup1\n  0x40\n  mstore\n  dup2\n  add\n  swap1\n  dup1\n  dup1\n  mload\n  dup3\n  add\n  swap3\n  swap2\n  swap1\n  0x20\n  add\n  dup1\n  mload\n  swap1\n  0x20\n  add\n  swap1\n  swap3\n  swap2\n  swap1\n  pop\n  pop\n  pop\n    /* \"contracts/Omnidex-incentives/incentives/MultiSigWalletWithDailyLimit.sol\":4281:4287  uint i */\n  0x0\n    /* \"contracts/Omnidex-incentives/incentives/MultiSigWalletWithDailyLimit.sol\":4233:4240  _owners */\n  dup3\n    /* \"contracts/Omnidex-incentives/incentives/MultiSigWalletWithDailyLimit.sol\":4233:4247  _owners.length */\n  mload\n    /* \"contracts/Omnidex-incentives/incentives/MultiSigWalletWithDailyLimit.sol\":4249:4258  _required */\n  dup3\n    /* \"contracts/Omnidex-incentives/incentives/MultiSigWalletWithDailyLimit.sol\":2052:2054  50 */\n  0x32\n    /* \"contracts/Omnidex-incentives/incentives/MultiSigWalletWithDailyLimit.sol\":3549:3559  ownerCount */\n  dup3\n    /* \"contracts/Omnidex-incentives/incentives/MultiSigWalletWithDailyLimit.sol\":3549:3578  ownerCount <= MAX_OWNER_COUNT */\n  gt\n  iszero\n    /* \"contracts/Omnidex-incentives/incentives/MultiSigWalletWithDailyLimit.sol\":3549:3618  ownerCount <= MAX_OWNER_COUNT\r... */\n  dup1\n  iszero\n  tag_4\n  jumpi\n  pop\n    /* \"contracts/Omnidex-incentives/incentives/MultiSigWalletWithDailyLimit.sol\":3608:3618  ownerCount */\n  dup2\n    /* \"contracts/Omnidex-incentives/incentives/MultiSigWalletWithDailyLimit.sol\":3595:3604  _required */\n  dup2\n    /* \"contracts/Omnidex-incentives/incentives/MultiSigWalletWithDailyLimit.sol\":3595:3618  _required <= ownerCount */\n  gt\n  iszero\n    /* \"contracts/Omnidex-incentives/incentives/MultiSigWalletWithDailyLimit.sol\":3549:3618  ownerCount <= MAX_OWNER_COUNT\r... */\ntag_4:\n    /* \"contracts/Omnidex-incentives/incentives/MultiSigWalletWithDailyLimit.sol\":3549:3649  ownerCount <= MAX_OWNER_COUNT\r... */\n  dup1\n  iszero\n  tag_5\n  jumpi\n  pop\n    /* \"contracts/Omnidex-incentives/incentives/MultiSigWalletWithDailyLimit.sol\":3648:3649  0 */\n  0x0\n    /* \"contracts/Omnidex-incentives/incentives/MultiSigWalletWithDailyLimit.sol\":3635:3644  _required */\n  dup2\n    /* \"contracts/Omnidex-incentives/incentives/MultiSigWalletWithDailyLimit.sol\":3635:3649  _required != 0 */\n  eq\n  iszero\n    /* \"contracts/Omnidex-incentives/incentives/MultiSigWalletWithDailyLimit.sol\":3549:3649  ownerCount <= MAX_OWNER_COUNT\r... */\ntag_5:\n    /* \"contracts/Omnidex-incentives/incentives/MultiSigWalletWithDailyLimit.sol\":3549:3681  ownerCount <= MAX_OWNER_COUNT\r... */\n  dup1\n  iszero\n  tag_6\n  jumpi\n  pop\n    /* \"contracts/Omnidex-incentives/incentives/MultiSigWalletWithDailyLimit.sol\":3680:3681  0 */\n  0x0\n    /* \"contracts/Omnidex-incentives/incentives/MultiSigWalletWithDailyLimit.sol\":3666:3676  ownerCount */\n  dup3\n    /* \"contracts/Omnidex-incentives/incentives/MultiSigWalletWithDailyLimit.sol\":3666:3681  ownerCount != 0 */\n  eq\n  iszero\n    /* \"contracts/Omnidex-incentives/incentives/MultiSigWalletWithDailyLimit.sol\":3549:3681  ownerCount <= MAX_OWNER_COUNT\r... */\ntag_6:\n    /* \"contracts/Omnidex-incentives/incentives/MultiSigWalletWithDailyLimit.sol\":3541:3682  require(ownerCount <= MAX_OWNER_COUNT\r... */\n  iszero\n  iszero\n  tag_7\n  jumpi\n  0x0\n  dup1\n  revert\ntag_7:\n    /* \"contracts/Omnidex-incentives/incentives/MultiSigWalletWithDailyLimit.sol\":4288:4289  0 */\n  0x0\n    /* \"contracts/Omnidex-incentives/incentives/MultiSigWalletWithDailyLimit.sol\":4281:4289  uint i=0 */\n  swap3\n  pop\n    /* \"contracts/Omnidex-incentives/incentives/MultiSigWalletWithDailyLimit.sol\":4276:4430  for (uint i=0; i<_owners.length; i++) {\r... */\ntag_9:\n    /* \"contracts/Omnidex-incentives/incentives/MultiSigWalletWithDailyLimit.sol\":4293:4300  _owners */\n  dup5\n    /* \"contracts/Omnidex-incentives/incentives/MultiSigWalletWithDailyLimit.sol\":4293:4307  _owners.length */\n  mload\n    /* \"contracts/Omnidex-incentives/incentives/MultiSigWalletWithDailyLimit.sol\":4291:4292  i */\n  dup4\n    /* \"contracts/Omnidex-incentives/incentives/MultiSigWalletWithDailyLimit.sol\":4291:4307  i<_owners.length */\n  lt\n    /* \"contracts/Omnidex-incentives/incentives/MultiSigWalletWithDailyLimit.sol\":4276:4430  for (uint i=0; i<_owners.length; i++) {\r... */\n  iszero\n  tag_10\n  jumpi\n    /* \"contracts/Omnidex-incentives/incentives/MultiSigWalletWithDailyLimit.sol\":4338:4345  isOwner */\n  0x2\n    /* \"contracts/Omnidex-incentives/incentives/MultiSigWalletWithDailyLimit.sol\":4338:4357  isOwner[_owners[i]] */\n  0x0\n    /* \"contracts/Omnidex-incentives/incentives/MultiSigWalletWithDailyLimit.sol\":4346:4353  _owners */\n  dup7\n    /* \"contracts/Omnidex-incentives/incentives/MultiSigWalletWithDailyLimit.sol\":4354:4355  i */\n  dup6\n    /* \"contracts/Omnidex-incentives/incentives/MultiSigWalletWithDailyLimit.sol\":4346:4356  _owners[i] */\n  dup2\n  mload\n  dup2\n  lt\n  iszero\n  iszero\n  tag_12\n  jumpi\n  invalid\ntag_12:\n  swap1\n  0x20\n  add\n  swap1\n  0x20\n  mul\n  add\n  mload\n    /* \"contracts/Omnidex-incentives/incentives/MultiSigWalletWithDailyLimit.sol\":4338:4357  isOwner[_owners[i]] */\n  0xffffffffffffffffffffffffffffffffffffffff\n  and\n  0xffffffffffffffffffffffffffffffffffffffff\n  and\n  dup2\n  mstore\n  0x20\n  add\n  swap1\n  dup2\n  mstore\n  0x20\n  add\n  0x0\n  keccak256\n  0x0\n  swap1\n  sload\n  swap1\n  0x100\n  exp\n  swap1\n  div\n  0xff\n  and\n    /* \"contracts/Omnidex-incentives/incentives/MultiSigWalletWithDailyLimit.sol\":4337:4357  !isOwner[_owners[i]] */\n  iszero\n    /* \"contracts/Omnidex-incentives/incentives/MultiSigWalletWithDailyLimit.sol\":4337:4376  !isOwner[_owners[i]] && _owners[i] != 0 */\n  dup1\n  iszero\n  tag_13\n  jumpi\n  pop\n    /* \"contracts/Omnidex-incentives/incentives/MultiSigWalletWithDailyLimit.sol\":4375:4376  0 */\n  0x0\n    /* \"contracts/Omnidex-incentives/incentives/MultiSigWalletWithDailyLimit.sol\":4361:4368  _owners */\n  dup6\n    /* \"contracts/Omnidex-incentives/incentives/MultiSigWalletWithDailyLimit.sol\":4369:4370  i */\n  dup5\n    /* \"contracts/Omnidex-incentives/incentives/MultiSigWalletWithDailyLimit.sol\":4361:4371  _owners[i] */\n  dup2\n  mload\n  dup2\n  lt\n  iszero\n  iszero\n  tag_14\n  jumpi\n  invalid\ntag_14:\n  swap1\n  0x20\n  add\n  swap1\n  0x20\n  mul\n  add\n  mload\n    /* \"contracts/Omnidex-incentives/incentives/MultiSigWalletWithDailyLimit.sol\":4361:4376  _owners[i] != 0 */\n  0xffffffffffffffffffffffffffffffffffffffff\n  and\n  eq\n  iszero\n    /* \"contracts/Omnidex-incentives/incentives/MultiSigWalletWithDailyLimit.sol\":4337:4376  !isOwner[_owners[i]] && _owners[i] != 0 */\ntag_13:\n    /* \"contracts/Omnidex-incentives/incentives/MultiSigWalletWithDailyLimit.sol\":4329:4377  require(!isOwner[_owners[i]] && _owners[i] != 0) */\n  iszero\n  iszero\n  tag_15\n  jumpi\n  0x0\n  dup1\n  revert\ntag_15:\n    /* \"contracts/Omnidex-incentives/incentives/MultiSigWalletWithDailyLimit.sol\":4414:4418  true */\n  0x1\n    /* \"contracts/Omnidex-incentives/incentives/MultiSigWalletWithDailyLimit.sol\":4392:4399  isOwner */\n  0x2\n    /* \"contracts/Omnidex-incentives/incentives/MultiSigWalletWithDailyLimit.sol\":4392:4411  isOwner[_owners[i]] */\n  0x0\n    /* \"contracts/Omnidex-incentives/incentives/MultiSigWalletWithDailyLimit.sol\":4400:4407  _owners */\n  dup8\n    /* \"contracts/Omnidex-incentives/incentives/MultiSigWalletWithDailyLimit.sol\":4408:4409  i */\n  dup7\n    /* \"contracts/Omnidex-incentives/incentives/MultiSigWalletWithDailyLimit.sol\":4400:4410  _owners[i] */\n  dup2\n  mload\n  dup2\n  lt\n  iszero\n  iszero\n  tag_16\n  jumpi\n  invalid\ntag_16:\n  swap1\n  0x20\n  add\n  swap1\n  0x20\n  mul\n  add\n  mload\n    /* \"contracts/Omnidex-incentives/incentives/MultiSigWalletWithDailyLimit.sol\":4392:4411  isOwner[_owners[i]] */\n  0xffffffffffffffffffffffffffffffffffffffff\n  and\n  0xffffffffffffffffffffffffffffffffffffffff\n  and\n  dup2\n  mstore\n  0x20\n  add\n  swap1\n  dup2\n  mstore\n  0x20\n  add\n  0x0\n  keccak256\n  0x0\n    /* \"contracts/Omnidex-incentives/incentives/MultiSigWalletWithDailyLimit.sol\":4392:4418  isOwner[_owners[i]] = true */\n  0x100\n  exp\n  dup2\n  sload\n  dup2\n  0xff\n  mul\n  not\n  and\n  swap1\n  dup4\n  iszero\n  iszero\n  mul\n  or\n  swap1\n  sstore\n  pop\n    /* \"contracts/Omnidex-incentives/incentives/MultiSigWalletWithDailyLimit.sol\":4309:4312  i++ */\n  dup3\n  dup1\n  0x1\n  add\n  swap4\n  pop\n  pop\n    /* \"contracts/Omnidex-incentives/incentives/MultiSigWalletWithDailyLimit.sol\":4276:4430  for (uint i=0; i<_owners.length; i++) {\r... */\n  jump(tag_9)\ntag_10:\n    /* \"contracts/Omnidex-incentives/incentives/MultiSigWalletWithDailyLimit.sol\":4449:4456  _owners */\n  dup5\n    /* \"contracts/Omnidex-incentives/incentives/MultiSigWalletWithDailyLimit.sol\":4440:4446  owners */\n  0x3\n    /* \"contracts/Omnidex-incentives/incentives/MultiSigWalletWithDailyLimit.sol\":4440:4456  owners = _owners */\n  swap1\n  dup1\n  mload\n  swap1\n  0x20\n  add\n  swap1\n  tag_17\n  swap3\n  swap2\n  swap1\n  jump\t// in(tag_18)\ntag_17:\n  pop\n    /* \"contracts/Omnidex-incentives/incentives/MultiSigWalletWithDailyLimit.sol\":4478:4487  _required */\n  dup4\n    /* \"contracts/Omnidex-incentives/incentives/MultiSigWalletWithDailyLimit.sol\":4467:4475  required */\n  0x4\n    /* \"contracts/Omnidex-incentives/incentives/MultiSigWalletWithDailyLimit.sol\":4467:4487  required = _required */\n  dup2\n  swap1\n  sstore\n  pop\n    /* \"contracts/Omnidex-incentives/incentives/MultiSigWalletWithDailyLimit.sol\":4132:4495  function MultiSigWallet(address[] _owners, uint _required)\r... */\n  pop\n  pop\n  pop\n  pop\n  pop\n    /* \"contracts/Omnidex-incentives/incentives/MultiSigWalletWithDailyLimit.sol\":1401:13092  contract MultiSigWallet {\r... */\n  jump(tag_19)\ntag_18:\n  dup3\n  dup1\n  sload\n  dup3\n  dup3\n  sstore\n  swap1\n  0x0\n  mstore\n  keccak256(0x0, 0x20)\n  swap1\n  dup2\n  add\n  swap3\n  dup3\n  iszero\n  tag_20\n  jumpi\n  swap2\n  0x20\n  mul\n  dup3\n  add\ntag_21:\n  dup3\n  dup2\n  gt\n  iszero\n  tag_22\n  jumpi\n  dup3\n  mload\n  dup3\n  exp(0x100, 0x0)\n  dup2\n  sload\n  dup2\n  0xffffffffffffffffffffffffffffffffffffffff\n  mul\n  not\n  and\n  swap1\n  dup4\n  0xffffffffffffffffffffffffffffffffffffffff\n  and\n  mul\n  or\n  swap1\n  sstore\n  pop\n  swap2\n  0x20\n  add\n  swap2\n  swap1\n  0x1\n  add\n  swap1\n  jump(tag_21)\ntag_22:\ntag_20:\n  pop\n  swap1\n  pop\n  tag_23\n  swap2\n  swap1\n  jump\t// in(tag_24)\ntag_23:\n  pop\n  swap1\n  jump\t// out\ntag_24:\n  tag_25\n  swap2\n  swap1\ntag_26:\n  dup1\n  dup3\n  gt\n  iszero\n  tag_27\n  jumpi\n  0x0\n  dup2\n  dup2\n  0x100\n  exp\n  dup2\n  sload\n  swap1\n  0xffffffffffffffffffffffffffffffffffffffff\n  mul\n  not\n  and\n  swap1\n  sstore\n  pop\n  0x1\n  add\n  jump(tag_26)\ntag_27:\n  pop\n  swap1\n  jump\ntag_25:\n  swap1\n  jump\t// out\ntag_19:\n  dataSize(sub_0)\n  dup1\n  dataOffset(sub_0)\n  0x0\n  codecopy\n  0x0\n  return\nstop\n\nsub_0: assembly {\n        /* \"contracts/Omnidex-incentives/incentives/MultiSigWalletWithDailyLimit.sol\":1401:13092  contract MultiSigWallet {\r... */\n      mstore(0x40, 0x80)\n      jumpi(tag_1, lt(calldatasize, 0x4))\n      calldataload(0x0)\n      0x100000000000000000000000000000000000000000000000000000000\n      swap1\n      div\n      0xffffffff\n      and\n      dup1\n      0x25e7c27\n      eq\n      tag_2\n      jumpi\n      dup1\n      0x173825d9\n      eq\n      tag_3\n      jumpi\n      dup1\n      0x20ea8d86\n      eq\n      tag_4\n      jumpi\n      dup1\n      0x2f54bf6e\n      eq\n      tag_5\n      jumpi\n      dup1\n      0x3411c81c\n      eq\n      tag_6\n      jumpi\n      dup1\n      0x54741525\n      eq\n      tag_7\n      jumpi\n      dup1\n      0x7065cb48\n      eq\n      tag_8\n      jumpi\n      dup1\n      0x784547a7\n      eq\n      tag_9\n      jumpi\n      dup1\n      0x8b51d13f\n      eq\n      tag_10\n      jumpi\n      dup1\n      0x9ace38c2\n      eq\n      tag_11\n      jumpi\n      dup1\n      0xa0e67e2b\n      eq\n      tag_12\n      jumpi\n      dup1\n      0xa8abe69a\n      eq\n      tag_13\n      jumpi\n      dup1\n      0xb5dc40c3\n      eq\n      tag_14\n      jumpi\n      dup1\n      0xb77bf600\n      eq\n      tag_15\n      jumpi\n      dup1\n      0xba51a6df\n      eq\n      tag_16\n      jumpi\n      dup1\n      0xc01a8c84\n      eq\n      tag_17\n      jumpi\n      dup1\n      0xc6427474\n      eq\n      tag_18\n      jumpi\n      dup1\n      0xd74f8edd\n      eq\n      tag_19\n      jumpi\n      dup1\n      0xdc8452cd\n      eq\n      tag_20\n      jumpi\n      dup1\n      0xe20056e6\n      eq\n      tag_21\n      jumpi\n      dup1\n      0xee22610b\n      eq\n      tag_22\n      jumpi\n    tag_1:\n        /* \"contracts/Omnidex-incentives/incentives/MultiSigWalletWithDailyLimit.sol\":3827:3828  0 */\n      0x0\n        /* \"contracts/Omnidex-incentives/incentives/MultiSigWalletWithDailyLimit.sol\":3815:3824  msg.value */\n      callvalue\n        /* \"contracts/Omnidex-incentives/incentives/MultiSigWalletWithDailyLimit.sol\":3815:3828  msg.value > 0 */\n      gt\n        /* \"contracts/Omnidex-incentives/incentives/MultiSigWalletWithDailyLimit.sol\":3811:3873  if (msg.value > 0)\r... */\n      iszero\n      tag_25\n      jumpi\n        /* \"contracts/Omnidex-incentives/incentives/MultiSigWalletWithDailyLimit.sol\":3851:3861  msg.sender */\n      caller\n        /* \"contracts/Omnidex-incentives/incentives/MultiSigWalletWithDailyLimit.sol\":3843:3873  Deposit(msg.sender, msg.value) */\n      0xffffffffffffffffffffffffffffffffffffffff\n      and\n      0xe1fffcc4923d04b559f4d29a8bfc6cda04eb5b0d3c460751c2402c5c5cc9109c\n        /* \"contracts/Omnidex-incentives/incentives/MultiSigWalletWithDailyLimit.sol\":3863:3872  msg.value */\n      callvalue\n        /* \"contracts/Omnidex-incentives/incentives/MultiSigWalletWithDailyLimit.sol\":3843:3873  Deposit(msg.sender, msg.value) */\n      mload(0x40)\n      dup1\n      dup3\n      dup2\n      mstore\n      0x20\n      add\n      swap2\n      pop\n      pop\n      mload(0x40)\n      dup1\n      swap2\n      sub\n      swap1\n      log2\n        /* \"contracts/Omnidex-incentives/incentives/MultiSigWalletWithDailyLimit.sol\":3811:3873  if (msg.value > 0)\r... */\n    tag_25:\n        /* \"contracts/Omnidex-incentives/incentives/MultiSigWalletWithDailyLimit.sol\":1401:13092  contract MultiSigWallet {\r... */\n      stop\n        /* \"contracts/Omnidex-incentives/incentives/MultiSigWalletWithDailyLimit.sol\":2271:2294  address[] public owners */\n    tag_2:\n      callvalue\n        /* \"--CODEGEN--\":8:17   */\n      dup1\n        /* \"--CODEGEN--\":5:7   */\n      iszero\n      tag_26\n      jumpi\n        /* \"--CODEGEN--\":30:31   */\n      0x0\n        /* \"--CODEGEN--\":27:28   */\n      dup1\n        /* \"--CODEGEN--\":20:32   */\n      revert\n        /* \"--CODEGEN--\":5:7   */\n    tag_26:\n        /* \"contracts/Omnidex-incentives/incentives/MultiSigWalletWithDailyLimit.sol\":2271:2294  address[] public owners */\n      pop\n      tag_27\n      0x4\n      dup1\n      calldatasize\n      sub\n      dup2\n      add\n      swap1\n      dup1\n      dup1\n      calldataload\n      swap1\n      0x20\n      add\n      swap1\n      swap3\n      swap2\n      swap1\n      pop\n      pop\n      pop\n      jump(tag_28)\n    tag_27:\n      mload(0x40)\n      dup1\n      dup3\n      0xffffffffffffffffffffffffffffffffffffffff\n      and\n      0xffffffffffffffffffffffffffffffffffffffff\n      and\n      dup2\n      mstore\n      0x20\n      add\n      swap2\n      pop\n      pop\n      mload(0x40)\n      dup1\n      swap2\n      sub\n      swap1\n      return\n        /* \"contracts/Omnidex-incentives/incentives/MultiSigWalletWithDailyLimit.sol\":5040:5515  function removeOwner(address owner)\r... */\n    tag_3:\n      callvalue\n        /* \"--CODEGEN--\":8:17   */\n      dup1\n        /* \"--CODEGEN--\":5:7   */\n      iszero\n      tag_29\n      jumpi\n        /* \"--CODEGEN--\":30:31   */\n      0x0\n        /* \"--CODEGEN--\":27:28   */\n      dup1\n        /* \"--CODEGEN--\":20:32   */\n      revert\n        /* \"--CODEGEN--\":5:7   */\n    tag_29:\n        /* \"contracts/Omnidex-incentives/incentives/MultiSigWalletWithDailyLimit.sol\":5040:5515  function removeOwner(address owner)\r... */\n      pop\n      tag_30\n      0x4\n      dup1\n      calldatasize\n      sub\n      dup2\n      add\n      swap1\n      dup1\n      dup1\n      calldataload\n      0xffffffffffffffffffffffffffffffffffffffff\n      and\n      swap1\n      0x20\n      add\n      swap1\n      swap3\n      swap2\n      swap1\n      pop\n      pop\n      pop\n      jump(tag_31)\n    tag_30:\n      stop\n        /* \"contracts/Omnidex-incentives/incentives/MultiSigWalletWithDailyLimit.sol\":7682:7981  function revokeConfirmation(uint transactionId)\r... */\n    tag_4:\n      callvalue\n        /* \"--CODEGEN--\":8:17   */\n      dup1\n        /* \"--CODEGEN--\":5:7   */\n      iszero\n      tag_32\n      jumpi\n        /* \"--CODEGEN--\":30:31   */\n      0x0\n        /* \"--CODEGEN--\":27:28   */\n      dup1\n        /* \"--CODEGEN--\":20:32   */\n      revert\n        /* \"--CODEGEN--\":5:7   */\n    tag_32:\n        /* \"contracts/Omnidex-incentives/incentives/MultiSigWalletWithDailyLimit.sol\":7682:7981  function revokeConfirmation(uint transactionId)\r... */\n      pop\n      tag_33\n      0x4\n      dup1\n      calldatasize\n      sub\n      dup2\n      add\n      swap1\n      dup1\n      dup1\n      calldataload\n      swap1\n      0x20\n      add\n      swap1\n      swap3\n      swap2\n      swap1\n      pop\n      pop\n      pop\n      jump(tag_34)\n    tag_33:\n      stop\n        /* \"contracts/Omnidex-incentives/incentives/MultiSigWalletWithDailyLimit.sol\":2224:2264  mapping (address => bool) public isOwner */\n    tag_5:\n      callvalue\n        /* \"--CODEGEN--\":8:17   */\n      dup1\n        /* \"--CODEGEN--\":5:7   */\n      iszero\n      tag_35\n      jumpi\n        /* \"--CODEGEN--\":30:31   */\n      0x0\n        /* \"--CODEGEN--\":27:28   */\n      dup1\n        /* \"--CODEGEN--\":20:32   */\n      revert\n        /* \"--CODEGEN--\":5:7   */\n    tag_35:\n        /* \"contracts/Omnidex-incentives/incentives/MultiSigWalletWithDailyLimit.sol\":2224:2264  mapping (address => bool) public isOwner */\n      pop\n      tag_36\n      0x4\n      dup1\n      calldatasize\n      sub\n      dup2\n      add\n      swap1\n      dup1\n      dup1\n      calldataload\n      0xffffffffffffffffffffffffffffffffffffffff\n      and\n      swap1\n      0x20\n      add\n      swap1\n      swap3\n      swap2\n      swap1\n      pop\n      pop\n      pop\n      jump(tag_37)\n    tag_36:\n      mload(0x40)\n      dup1\n      dup3\n      iszero\n      iszero\n      iszero\n      iszero\n      dup2\n      mstore\n      0x20\n      add\n      swap2\n      pop\n      pop\n      mload(0x40)\n      dup1\n      swap2\n      sub\n      swap1\n      return\n        /* \"contracts/Omnidex-incentives/incentives/MultiSigWalletWithDailyLimit.sol\":2153:2217  mapping (uint => mapping (address => bool)) public confirmations */\n    tag_6:\n      callvalue\n        /* \"--CODEGEN--\":8:17   */\n      dup1\n        /* \"--CODEGEN--\":5:7   */\n      iszero\n      tag_38\n      jumpi\n        /* \"--CODEGEN--\":30:31   */\n      0x0\n        /* \"--CODEGEN--\":27:28   */\n      dup1\n        /* \"--CODEGEN--\":20:32   */\n      revert\n        /* \"--CODEGEN--\":5:7   */\n    tag_38:\n        /* \"contracts/Omnidex-incentives/incentives/MultiSigWalletWithDailyLimit.sol\":2153:2217  mapping (uint => mapping (address => bool)) public confirmations */\n      pop\n      tag_39\n      0x4\n      dup1\n      calldatasize\n      sub\n      dup2\n      add\n      swap1\n      dup1\n      dup1\n      calldataload\n      swap1\n      0x20\n      add\n      swap1\n      swap3\n      swap2\n      swap1\n      dup1\n      calldataload\n      0xffffffffffffffffffffffffffffffffffffffff\n      and\n      swap1\n      0x20\n      add\n      swap1\n      swap3\n      swap2\n      swap1\n      pop\n      pop\n      pop\n      jump(tag_40)\n    tag_39:\n      mload(0x40)\n      dup1\n      dup3\n      iszero\n      iszero\n      iszero\n      iszero\n      dup2\n      mstore\n      0x20\n      add\n      swap2\n      pop\n      pop\n      mload(0x40)\n      dup1\n      swap2\n      sub\n      swap1\n      return\n        /* \"contracts/Omnidex-incentives/incentives/MultiSigWalletWithDailyLimit.sol\":10726:11054  function getTransactionCount(bool pending, bool executed)\r... */\n    tag_7:\n      callvalue\n        /* \"--CODEGEN--\":8:17   */\n      dup1\n        /* \"--CODEGEN--\":5:7   */\n      iszero\n      tag_41\n      jumpi\n        /* \"--CODEGEN--\":30:31   */\n      0x0\n        /* \"--CODEGEN--\":27:28   */\n      dup1\n        /* \"--CODEGEN--\":20:32   */\n      revert\n        /* \"--CODEGEN--\":5:7   */\n    tag_41:\n        /* \"contracts/Omnidex-incentives/incentives/MultiSigWalletWithDailyLimit.sol\":10726:11054  function getTransactionCount(bool pending, bool executed)\r... */\n      pop\n      tag_42\n      0x4\n      dup1\n      calldatasize\n      sub\n      dup2\n      add\n      swap1\n      dup1\n      dup1\n      calldataload\n      iszero\n      iszero\n      swap1\n      0x20\n      add\n      swap1\n      swap3\n      swap2\n      swap1\n      dup1\n      calldataload\n      iszero\n      iszero\n      swap1\n      0x20\n      add\n      swap1\n      swap3\n      swap2\n      swap1\n      pop\n      pop\n      pop\n      jump(tag_43)\n    tag_42:\n      mload(0x40)\n      dup1\n      dup3\n      dup2\n      mstore\n      0x20\n      add\n      swap2\n      pop\n      pop\n      mload(0x40)\n      dup1\n      swap2\n      sub\n      swap1\n      return\n        /* \"contracts/Omnidex-incentives/incentives/MultiSigWalletWithDailyLimit.sol\":4626:4913  function addOwner(address owner)\r... */\n    tag_8:\n      callvalue\n        /* \"--CODEGEN--\":8:17   */\n      dup1\n        /* \"--CODEGEN--\":5:7   */\n      iszero\n      tag_44\n      jumpi\n        /* \"--CODEGEN--\":30:31   */\n      0x0\n        /* \"--CODEGEN--\":27:28   */\n      dup1\n        /* \"--CODEGEN--\":20:32   */\n      revert\n        /* \"--CODEGEN--\":5:7   */\n    tag_44:\n        /* \"contracts/Omnidex-incentives/incentives/MultiSigWalletWithDailyLimit.sol\":4626:4913  function addOwner(address owner)\r... */\n      pop\n      tag_45\n      0x4\n      dup1\n      calldatasize\n      sub\n      dup2\n      add\n      swap1\n      dup1\n      dup1\n      calldataload\n      0xffffffffffffffffffffffffffffffffffffffff\n      and\n      swap1\n      0x20\n      add\n      swap1\n      swap3\n      swap2\n      swap1\n      pop\n      pop\n      pop\n      jump(tag_46)\n    tag_45:\n      stop\n        /* \"contracts/Omnidex-incentives/incentives/MultiSigWalletWithDailyLimit.sol\":8836:9185  function isConfirmed(uint transactionId)\r... */\n    tag_9:\n      callvalue\n        /* \"--CODEGEN--\":8:17   */\n      dup1\n        /* \"--CODEGEN--\":5:7   */\n      iszero\n      tag_47\n      jumpi\n        /* \"--CODEGEN--\":30:31   */\n      0x0\n        /* \"--CODEGEN--\":27:28   */\n      dup1\n        /* \"--CODEGEN--\":20:32   */\n      revert\n        /* \"--CODEGEN--\":5:7   */\n    tag_47:\n        /* \"contracts/Omnidex-incentives/incentives/MultiSigWalletWithDailyLimit.sol\":8836:9185  function isConfirmed(uint transactionId)\r... */\n      pop\n      tag_48\n      0x4\n      dup1\n      calldatasize\n      sub\n      dup2\n      add\n      swap1\n      dup1\n      dup1\n      calldataload\n      swap1\n      0x20\n      add\n      swap1\n      swap3\n      swap2\n      swap1\n      pop\n      pop\n      pop\n      jump(tag_49)\n    tag_48:\n      mload(0x40)\n      dup1\n      dup3\n      iszero\n      iszero\n      iszero\n      iszero\n      dup2\n      mstore\n      0x20\n      add\n      swap2\n      pop\n      pop\n      mload(0x40)\n      dup1\n      swap2\n      sub\n      swap1\n      return\n        /* \"contracts/Omnidex-incentives/incentives/MultiSigWalletWithDailyLimit.sol\":10198:10458  function getConfirmationCount(uint transactionId)\r... */\n    tag_10:\n      callvalue\n        /* \"--CODEGEN--\":8:17   */\n      dup1\n        /* \"--CODEGEN--\":5:7   */\n      iszero\n      tag_50\n      jumpi\n        /* \"--CODEGEN--\":30:31   */\n      0x0\n        /* \"--CODEGEN--\":27:28   */\n      dup1\n        /* \"--CODEGEN--\":20:32   */\n      revert\n        /* \"--CODEGEN--\":5:7   */\n    tag_50:\n        /* \"contracts/Omnidex-incentives/incentives/MultiSigWalletWithDailyLimit.sol\":10198:10458  function getConfirmationCount(uint transactionId)\r... */\n      pop\n      tag_51\n      0x4\n      dup1\n      calldatasize\n      sub\n      dup2\n      add\n      swap1\n      dup1\n      dup1\n      calldataload\n      swap1\n      0x20\n      add\n      swap1\n      swap3\n      swap2\n      swap1\n      pop\n      pop\n      pop\n      jump(tag_52)\n    tag_51:\n      mload(0x40)\n      dup1\n      dup3\n      dup2\n      mstore\n      0x20\n      add\n      swap2\n      pop\n      pop\n      mload(0x40)\n      dup1\n      swap2\n      sub\n      swap1\n      return\n        /* \"contracts/Omnidex-incentives/incentives/MultiSigWalletWithDailyLimit.sol\":2097:2146  mapping (uint => Transaction) public transactions */\n    tag_11:\n      callvalue\n        /* \"--CODEGEN--\":8:17   */\n      dup1\n        /* \"--CODEGEN--\":5:7   */\n      iszero\n      tag_53\n      jumpi\n        /* \"--CODEGEN--\":30:31   */\n      0x0\n        /* \"--CODEGEN--\":27:28   */\n      dup1\n        /* \"--CODEGEN--\":20:32   */\n      revert\n        /* \"--CODEGEN--\":5:7   */\n    tag_53:\n        /* \"contracts/Omnidex-incentives/incentives/MultiSigWalletWithDailyLimit.sol\":2097:2146  mapping (uint => Transaction) public transactions */\n      pop\n      tag_54\n      0x4\n      dup1\n      calldatasize\n      sub\n      dup2\n      add\n      swap1\n      dup1\n      dup1\n      calldataload\n      swap1\n      0x20\n      add\n      swap1\n      swap3\n      swap2\n      swap1\n      pop\n      pop\n      pop\n      jump(tag_55)\n    tag_54:\n      mload(0x40)\n      dup1\n      dup6\n      0xffffffffffffffffffffffffffffffffffffffff\n      and\n      0xffffffffffffffffffffffffffffffffffffffff\n      and\n      dup2\n      mstore\n      0x20\n      add\n      dup5\n      dup2\n      mstore\n      0x20\n      add\n      dup1\n      0x20\n      add\n      dup4\n      iszero\n      iszero\n      iszero\n      iszero\n      dup2\n      mstore\n      0x20\n      add\n      dup3\n      dup2\n      sub\n      dup3\n      mstore\n      dup5\n      dup2\n      dup2\n      mload\n      dup2\n      mstore\n      0x20\n      add\n      swap2\n      pop\n      dup1\n      mload\n      swap1\n      0x20\n      add\n      swap1\n      dup1\n      dup4\n      dup4\n        /* \"--CODEGEN--\":23:24   */\n      0x0\n        /* \"--CODEGEN--\":8:108   */\n    tag_56:\n        /* \"--CODEGEN--\":33:36   */\n      dup4\n        /* \"--CODEGEN--\":30:31   */\n      dup2\n        /* \"--CODEGEN--\":27:37   */\n      lt\n        /* \"--CODEGEN--\":8:108   */\n      iszero\n      tag_57\n      jumpi\n        /* \"--CODEGEN--\":99:100   */\n      dup1\n        /* \"--CODEGEN--\":94:97   */\n      dup3\n        /* \"--CODEGEN--\":90:101   */\n      add\n        /* \"--CODEGEN--\":84:102   */\n      mload\n        /* \"--CODEGEN--\":80:81   */\n      dup2\n        /* \"--CODEGEN--\":75:78   */\n      dup5\n        /* \"--CODEGEN--\":71:82   */\n      add\n        /* \"--CODEGEN--\":64:103   */\n      mstore\n        /* \"--CODEGEN--\":52:54   */\n      0x20\n        /* \"--CODEGEN--\":49:50   */\n      dup2\n        /* \"--CODEGEN--\":45:55   */\n      add\n        /* \"--CODEGEN--\":40:55   */\n      swap1\n      pop\n        /* \"--CODEGEN--\":8:108   */\n      jump(tag_56)\n    tag_57:\n        /* \"--CODEGEN--\":12:26   */\n      pop\n        /* \"contracts/Omnidex-incentives/incentives/MultiSigWalletWithDailyLimit.sol\":2097:2146  mapping (uint => Transaction) public transactions */\n      pop\n      pop\n      pop\n      swap1\n      pop\n      swap1\n      dup2\n      add\n      swap1\n      0x1f\n      and\n      dup1\n      iszero\n      tag_59\n      jumpi\n      dup1\n      dup3\n      sub\n      dup1\n      mload\n      0x1\n      dup4\n      0x20\n      sub\n      0x100\n      exp\n      sub\n      not\n      and\n      dup2\n      mstore\n      0x20\n      add\n      swap2\n      pop\n    tag_59:\n      pop\n      swap6\n      pop\n      pop\n      pop\n      pop\n      pop\n      pop\n      mload(0x40)\n      dup1\n      swap2\n      sub\n      swap1\n      return\n        /* \"contracts/Omnidex-incentives/incentives/MultiSigWalletWithDailyLimit.sol\":11142:11263  function getOwners()\r... */\n    tag_12:\n      callvalue\n        /* \"--CODEGEN--\":8:17   */\n      dup1\n        /* \"--CODEGEN--\":5:7   */\n      iszero\n      tag_60\n      jumpi\n        /* \"--CODEGEN--\":30:31   */\n      0x0\n        /* \"--CODEGEN--\":27:28   */\n      dup1\n        /* \"--CODEGEN--\":20:32   */\n      revert\n        /* \"--CODEGEN--\":5:7   */\n    tag_60:\n        /* \"contracts/Omnidex-incentives/incentives/MultiSigWalletWithDailyLimit.sol\":11142:11263  function getOwners()\r... */\n      pop\n      tag_61\n      jump(tag_62)\n    tag_61:\n      mload(0x40)\n      dup1\n      dup1\n      0x20\n      add\n      dup3\n      dup2\n      sub\n      dup3\n      mstore\n      dup4\n      dup2\n      dup2\n      mload\n      dup2\n      mstore\n      0x20\n      add\n      swap2\n      pop\n      dup1\n      mload\n      swap1\n      0x20\n      add\n      swap1\n      0x20\n      mul\n      dup1\n      dup4\n      dup4\n        /* \"--CODEGEN--\":23:24   */\n      0x0\n        /* \"--CODEGEN--\":8:108   */\n    tag_63:\n        /* \"--CODEGEN--\":33:36   */\n      dup4\n        /* \"--CODEGEN--\":30:31   */\n      dup2\n        /* \"--CODEGEN--\":27:37   */\n      lt\n        /* \"--CODEGEN--\":8:108   */\n      iszero\n      tag_64\n      jumpi\n        /* \"--CODEGEN--\":99:100   */\n      dup1\n        /* \"--CODEGEN--\":94:97   */\n      dup3\n        /* \"--CODEGEN--\":90:101   */\n      add\n        /* \"--CODEGEN--\":84:102   */\n      mload\n        /* \"--CODEGEN--\":80:81   */\n      dup2\n        /* \"--CODEGEN--\":75:78   */\n      dup5\n        /* \"--CODEGEN--\":71:82   */\n      add\n        /* \"--CODEGEN--\":64:103   */\n      mstore\n        /* \"--CODEGEN--\":52:54   */\n      0x20\n        /* \"--CODEGEN--\":49:50   */\n      dup2\n        /* \"--CODEGEN--\":45:55   */\n      add\n        /* \"--CODEGEN--\":40:55   */\n      swap1\n      pop\n        /* \"--CODEGEN--\":8:108   */\n      jump(tag_63)\n    tag_64:\n        /* \"--CODEGEN--\":12:26   */\n      pop\n        /* \"contracts/Omnidex-incentives/incentives/MultiSigWalletWithDailyLimit.sol\":11142:11263  function getOwners()\r... */\n      pop\n      pop\n      pop\n      swap1\n      pop\n      add\n      swap3\n      pop\n      pop\n      pop\n      mload(0x40)\n      dup1\n      swap2\n      sub\n      swap1\n      return\n        /* \"contracts/Omnidex-incentives/incentives/MultiSigWalletWithDailyLimit.sol\":12395:13089  function getTransactionIds(uint from, uint to, bool pending, bool executed)\r... */\n    tag_13:\n      callvalue\n        /* \"--CODEGEN--\":8:17   */\n      dup1\n        /* \"--CODEGEN--\":5:7   */\n      iszero\n      tag_66\n      jumpi\n        /* \"--CODEGEN--\":30:31   */\n      0x0\n        /* \"--CODEGEN--\":27:28   */\n      dup1\n        /* \"--CODEGEN--\":20:32   */\n      revert\n        /* \"--CODEGEN--\":5:7   */\n    tag_66:\n        /* \"contracts/Omnidex-incentives/incentives/MultiSigWalletWithDailyLimit.sol\":12395:13089  function getTransactionIds(uint from, uint to, bool pending, bool executed)\r... */\n      pop\n      tag_67\n      0x4\n      dup1\n      calldatasize\n      sub\n      dup2\n      add\n      swap1\n      dup1\n      dup1\n      calldataload\n      swap1\n      0x20\n      add\n      swap1\n      swap3\n      swap2\n      swap1\n      dup1\n      calldataload\n      swap1\n      0x20\n      add\n      swap1\n      swap3\n      swap2\n      swap1\n      dup1\n      calldataload\n      iszero\n      iszero\n      swap1\n      0x20\n      add\n      swap1\n      swap3\n      swap2\n      swap1\n      dup1\n      calldataload\n      iszero\n      iszero\n      swap1\n      0x20\n      add\n      swap1\n      swap3\n      swap2\n      swap1\n      pop\n      pop\n      pop\n      jump(tag_68)\n    tag_67:\n      mload(0x40)\n      dup1\n      dup1\n      0x20\n      add\n      dup3\n      dup2\n      sub\n      dup3\n      mstore\n      dup4\n      dup2\n      dup2\n      mload\n      dup2\n      mstore\n      0x20\n      add\n      swap2\n      pop\n      dup1\n      mload\n      swap1\n      0x20\n      add\n      swap1\n      0x20\n      mul\n      dup1\n      dup4\n      dup4\n        /* \"--CODEGEN--\":23:24   */\n      0x0\n        /* \"--CODEGEN--\":8:108   */\n    tag_69:\n        /* \"--CODEGEN--\":33:36   */\n      dup4\n        /* \"--CODEGEN--\":30:31   */\n      dup2\n        /* \"--CODEGEN--\":27:37   */\n      lt\n        /* \"--CODEGEN--\":8:108   */\n      iszero\n      tag_70\n      jumpi\n        /* \"--CODEGEN--\":99:100   */\n      dup1\n        /* \"--CODEGEN--\":94:97   */\n      dup3\n        /* \"--CODEGEN--\":90:101   */\n      add\n        /* \"--CODEGEN--\":84:102   */\n      mload\n        /* \"--CODEGEN--\":80:81   */\n      dup2\n        /* \"--CODEGEN--\":75:78   */\n      dup5\n        /* \"--CODEGEN--\":71:82   */\n      add\n        /* \"--CODEGEN--\":64:103   */\n      mstore\n        /* \"--CODEGEN--\":52:54   */\n      0x20\n        /* \"--CODEGEN--\":49:50   */\n      dup2\n        /* \"--CODEGEN--\":45:55   */\n      add\n        /* \"--CODEGEN--\":40:55   */\n      swap1\n      pop\n        /* \"--CODEGEN--\":8:108   */\n      jump(tag_69)\n    tag_70:\n        /* \"--CODEGEN--\":12:26   */\n      pop\n        /* \"contracts/Omnidex-incentives/incentives/MultiSigWalletWithDailyLimit.sol\":12395:13089  function getTransactionIds(uint from, uint to, bool pending, bool executed)\r... */\n      pop\n      pop\n      pop\n      swap1\n      pop\n      add\n      swap3\n      pop\n      pop\n      pop\n      mload(0x40)\n      dup1\n      swap2\n      sub\n      swap1\n      return\n        /* \"contracts/Omnidex-incentives/incentives/MultiSigWalletWithDailyLimit.sol\":11447:12038  function getConfirmations(uint transactionId)\r... */\n    tag_14:\n      callvalue\n        /* \"--CODEGEN--\":8:17   */\n      dup1\n        /* \"--CODEGEN--\":5:7   */\n      iszero\n      tag_72\n      jumpi\n        /* \"--CODEGEN--\":30:31   */\n      0x0\n        /* \"--CODEGEN--\":27:28   */\n      dup1\n        /* \"--CODEGEN--\":20:32   */\n      revert\n        /* \"--CODEGEN--\":5:7   */\n    tag_72:\n        /* \"contracts/Omnidex-incentives/incentives/MultiSigWalletWithDailyLimit.sol\":11447:12038  function getConfirmations(uint transactionId)\r... */\n      pop\n      tag_73\n      0x4\n      dup1\n      calldatasize\n      sub\n      dup2\n      add\n      swap1\n      dup1\n      dup1\n      calldataload\n      swap1\n      0x20\n      add\n      swap1\n      swap3\n      swap2\n      swap1\n      pop\n      pop\n      pop\n      jump(tag_74)\n    tag_73:\n      mload(0x40)\n      dup1\n      dup1\n      0x20\n      add\n      dup3\n      dup2\n      sub\n      dup3\n      mstore\n      dup4\n      dup2\n      dup2\n      mload\n      dup2\n      mstore\n      0x20\n      add\n      swap2\n      pop\n      dup1\n      mload\n      swap1\n      0x20\n      add\n      swap1\n      0x20\n      mul\n      dup1\n      dup4\n      dup4\n        /* \"--CODEGEN--\":23:24   */\n      0x0\n        /* \"--CODEGEN--\":8:108   */\n    tag_75:\n        /* \"--CODEGEN--\":33:36   */\n      dup4\n        /* \"--CODEGEN--\":30:31   */\n      dup2\n        /* \"--CODEGEN--\":27:37   */\n      lt\n        /* \"--CODEGEN--\":8:108   */\n      iszero\n      tag_76\n      jumpi\n        /* \"--CODEGEN--\":99:100   */\n      dup1\n        /* \"--CODEGEN--\":94:97   */\n      dup3\n        /* \"--CODEGEN--\":90:101   */\n      add\n        /* \"--CODEGEN--\":84:102   */\n      mload\n        /* \"--CODEGEN--\":80:81   */\n      dup2\n        /* \"--CODEGEN--\":75:78   */\n      dup5\n        /* \"--CODEGEN--\":71:82   */\n      add\n        /* \"--CODEGEN--\":64:103   */\n      mstore\n        /* \"--CODEGEN--\":52:54   */\n      0x20\n        /* \"--CODEGEN--\":49:50   */\n      dup2\n        /* \"--CODEGEN--\":45:55   */\n      add\n        /* \"--CODEGEN--\":40:55   */\n      swap1\n      pop\n        /* \"--CODEGEN--\":8:108   */\n      jump(tag_75)\n    tag_76:\n        /* \"--CODEGEN--\":12:26   */\n      pop\n        /* \"contracts/Omnidex-incentives/incentives/MultiSigWalletWithDailyLimit.sol\":11447:12038  function getConfirmations(uint transactionId)\r... */\n      pop\n      pop\n      pop\n      swap1\n      pop\n      add\n      swap3\n      pop\n      pop\n      pop\n      mload(0x40)\n      dup1\n      swap2\n      sub\n      swap1\n      return\n        /* \"contracts/Omnidex-incentives/incentives/MultiSigWalletWithDailyLimit.sol\":2328:2356  uint public transactionCount */\n    tag_15:\n      callvalue\n        /* \"--CODEGEN--\":8:17   */\n      dup1\n        /* \"--CODEGEN--\":5:7   */\n      iszero\n      tag_78\n      jumpi\n        /* \"--CODEGEN--\":30:31   */\n      0x0\n        /* \"--CODEGEN--\":27:28   */\n      dup1\n        /* \"--CODEGEN--\":20:32   */\n      revert\n        /* \"--CODEGEN--\":5:7   */\n    tag_78:\n        /* \"contracts/Omnidex-incentives/incentives/MultiSigWalletWithDailyLimit.sol\":2328:2356  uint public transactionCount */\n      pop\n      tag_79\n      jump(tag_80)\n    tag_79:\n      mload(0x40)\n      dup1\n      dup3\n      dup2\n      mstore\n      0x20\n      add\n      swap2\n      pop\n      pop\n      mload(0x40)\n      dup1\n      swap2\n      sub\n      swap1\n      return\n        /* \"contracts/Omnidex-incentives/incentives/MultiSigWalletWithDailyLimit.sol\":6361:6575  function changeRequirement(uint _required)\r... */\n    tag_16:\n      callvalue\n        /* \"--CODEGEN--\":8:17   */\n      dup1\n        /* \"--CODEGEN--\":5:7   */\n      iszero\n      tag_81\n      jumpi\n        /* \"--CODEGEN--\":30:31   */\n      0x0\n        /* \"--CODEGEN--\":27:28   */\n      dup1\n        /* \"--CODEGEN--\":20:32   */\n      revert\n        /* \"--CODEGEN--\":5:7   */\n    tag_81:\n        /* \"contracts/Omnidex-incentives/incentives/MultiSigWalletWithDailyLimit.sol\":6361:6575  function changeRequirement(uint _required)\r... */\n      pop\n      tag_82\n      0x4\n      dup1\n      calldatasize\n      sub\n      dup2\n      add\n      swap1\n      dup1\n      dup1\n      calldataload\n      swap1\n      0x20\n      add\n      swap1\n      swap3\n      swap2\n      swap1\n      pop\n      pop\n      pop\n      jump(tag_83)\n    tag_82:\n      stop\n        /* \"contracts/Omnidex-incentives/incentives/MultiSigWalletWithDailyLimit.sol\":7201:7554  function confirmTransaction(uint transactionId)\r... */\n    tag_17:\n      callvalue\n        /* \"--CODEGEN--\":8:17   */\n      dup1\n        /* \"--CODEGEN--\":5:7   */\n      iszero\n      tag_84\n      jumpi\n        /* \"--CODEGEN--\":30:31   */\n      0x0\n        /* \"--CODEGEN--\":27:28   */\n      dup1\n        /* \"--CODEGEN--\":20:32   */\n      revert\n        /* \"--CODEGEN--\":5:7   */\n    tag_84:\n        /* \"contracts/Omnidex-incentives/incentives/MultiSigWalletWithDailyLimit.sol\":7201:7554  function confirmTransaction(uint transactionId)\r... */\n      pop\n      tag_85\n      0x4\n      dup1\n      calldatasize\n      sub\n      dup2\n      add\n      swap1\n      dup1\n      dup1\n      calldataload\n      swap1\n      0x20\n      add\n      swap1\n      swap3\n      swap2\n      swap1\n      pop\n      pop\n      pop\n      jump(tag_86)\n    tag_85:\n      stop\n        /* \"contracts/Omnidex-incentives/incentives/MultiSigWalletWithDailyLimit.sol\":6841:7091  function submitTransaction(address destination, uint value, bytes data)\r... */\n    tag_18:\n      callvalue\n        /* \"--CODEGEN--\":8:17   */\n      dup1\n        /* \"--CODEGEN--\":5:7   */\n      iszero\n      tag_87\n      jumpi\n        /* \"--CODEGEN--\":30:31   */\n      0x0\n        /* \"--CODEGEN--\":27:28   */\n      dup1\n        /* \"--CODEGEN--\":20:32   */\n      revert\n        /* \"--CODEGEN--\":5:7   */\n    tag_87:\n        /* \"contracts/Omnidex-incentives/incentives/MultiSigWalletWithDailyLimit.sol\":6841:7091  function submitTransaction(address destination, uint value, bytes data)\r... */\n      pop\n      tag_88\n      0x4\n      dup1\n      calldatasize\n      sub\n      dup2\n      add\n      swap1\n      dup1\n      dup1\n      calldataload\n      0xffffffffffffffffffffffffffffffffffffffff\n      and\n      swap1\n      0x20\n      add\n      swap1\n      swap3\n      swap2\n      swap1\n      dup1\n      calldataload\n      swap1\n      0x20\n      add\n      swap1\n      swap3\n      swap2\n      swap1\n      dup1\n      calldataload\n      swap1\n      0x20\n      add\n      swap1\n      dup3\n      add\n      dup1\n      calldataload\n      swap1\n      0x20\n      add\n      swap1\n      dup1\n      dup1\n      0x1f\n      add\n      0x20\n      dup1\n      swap2\n      div\n      mul\n      0x20\n      add\n      mload(0x40)\n      swap1\n      dup2\n      add\n      0x40\n      mstore\n      dup1\n      swap4\n      swap3\n      swap2\n      swap1\n      dup2\n      dup2\n      mstore\n      0x20\n      add\n      dup4\n      dup4\n      dup1\n      dup3\n      dup5\n      calldatacopy\n      dup3\n      add\n      swap2\n      pop\n      pop\n      pop\n      pop\n      pop\n      pop\n      swap2\n      swap3\n      swap2\n      swap3\n      swap1\n      pop\n      pop\n      pop\n      jump(tag_89)\n    tag_88:\n      mload(0x40)\n      dup1\n      dup3\n      dup2\n      mstore\n      0x20\n      add\n      swap2\n      pop\n      pop\n      mload(0x40)\n      dup1\n      swap2\n      sub\n      swap1\n      return\n        /* \"contracts/Omnidex-incentives/incentives/MultiSigWalletWithDailyLimit.sol\":2013:2054  uint constant public MAX_OWNER_COUNT = 50 */\n    tag_19:\n      callvalue\n        /* \"--CODEGEN--\":8:17   */\n      dup1\n        /* \"--CODEGEN--\":5:7   */\n      iszero\n      tag_90\n      jumpi\n        /* \"--CODEGEN--\":30:31   */\n      0x0\n        /* \"--CODEGEN--\":27:28   */\n      dup1\n        /* \"--CODEGEN--\":20:32   */\n      revert\n        /* \"--CODEGEN--\":5:7   */\n    tag_90:\n        /* \"contracts/Omnidex-incentives/incentives/MultiSigWalletWithDailyLimit.sol\":2013:2054  uint constant public MAX_OWNER_COUNT = 50 */\n      pop\n      tag_91\n      jump(tag_92)\n    tag_91:\n      mload(0x40)\n      dup1\n      dup3\n      dup2\n      mstore\n      0x20\n      add\n      swap2\n      pop\n      pop\n      mload(0x40)\n      dup1\n      swap2\n      sub\n      swap1\n      return\n        /* \"contracts/Omnidex-incentives/incentives/MultiSigWalletWithDailyLimit.sol\":2301:2321  uint public required */\n    tag_20:\n      callvalue\n        /* \"--CODEGEN--\":8:17   */\n      dup1\n        /* \"--CODEGEN--\":5:7   */\n      iszero\n      tag_93\n      jumpi\n        /* \"--CODEGEN--\":30:31   */\n      0x0\n        /* \"--CODEGEN--\":27:28   */\n      dup1\n        /* \"--CODEGEN--\":20:32   */\n      revert\n        /* \"--CODEGEN--\":5:7   */\n    tag_93:\n        /* \"contracts/Omnidex-incentives/incentives/MultiSigWalletWithDailyLimit.sol\":2301:2321  uint public required */\n      pop\n      tag_94\n      jump(tag_95)\n    tag_94:\n      mload(0x40)\n      dup1\n      dup3\n      dup2\n      mstore\n      0x20\n      add\n      swap2\n      pop\n      pop\n      mload(0x40)\n      dup1\n      swap2\n      sub\n      swap1\n      return\n        /* \"contracts/Omnidex-incentives/incentives/MultiSigWalletWithDailyLimit.sol\":5722:6186  function replaceOwner(address owner, address newOwner)\r... */\n    tag_21:\n      callvalue\n        /* \"--CODEGEN--\":8:17   */\n      dup1\n        /* \"--CODEGEN--\":5:7   */\n      iszero\n      tag_96\n      jumpi\n        /* \"--CODEGEN--\":30:31   */\n      0x0\n        /* \"--CODEGEN--\":27:28   */\n      dup1\n        /* \"--CODEGEN--\":20:32   */\n      revert\n        /* \"--CODEGEN--\":5:7   */\n    tag_96:\n        /* \"contracts/Omnidex-incentives/incentives/MultiSigWalletWithDailyLimit.sol\":5722:6186  function replaceOwner(address owner, address newOwner)\r... */\n      pop\n      tag_97\n      0x4\n      dup1\n      calldatasize\n      sub\n      dup2\n      add\n      swap1\n      dup1\n      dup1\n      calldataload\n      0xffffffffffffffffffffffffffffffffffffffff\n      and\n      swap1\n      0x20\n      add\n      swap1\n      swap3\n      swap2\n      swap1\n      dup1\n      calldataload\n      0xffffffffffffffffffffffffffffffffffffffff\n      and\n      swap1\n      0x20\n      add\n      swap1\n      swap3\n      swap2\n      swap1\n      pop\n      pop\n      pop\n      jump(tag_98)\n    tag_97:\n      stop\n        /* \"contracts/Omnidex-incentives/incentives/MultiSigWalletWithDailyLimit.sol\":8099:8680  function executeTransaction(uint transactionId)\r... */\n    tag_22:\n      callvalue\n        /* \"--CODEGEN--\":8:17   */\n      dup1\n        /* \"--CODEGEN--\":5:7   */\n      iszero\n      tag_99\n      jumpi\n        /* \"--CODEGEN--\":30:31   */\n      0x0\n        /* \"--CODEGEN--\":27:28   */\n      dup1\n        /* \"--CODEGEN--\":20:32   */\n      revert\n        /* \"--CODEGEN--\":5:7   */\n    tag_99:\n        /* \"contracts/Omnidex-incentives/incentives/MultiSigWalletWithDailyLimit.sol\":8099:8680  function executeTransaction(uint transactionId)\r... */\n      pop\n      tag_100\n      0x4\n      dup1\n      calldatasize\n      sub\n      dup2\n      add\n      swap1\n      dup1\n      dup1\n      calldataload\n      swap1\n      0x20\n      add\n      swap1\n      swap3\n      swap2\n      swap1\n      pop\n      pop\n      pop\n      jump(tag_101)\n    tag_100:\n      stop\n        /* \"contracts/Omnidex-incentives/incentives/MultiSigWalletWithDailyLimit.sol\":2271:2294  address[] public owners */\n    tag_28:\n      0x3\n      dup2\n      dup2\n      sload\n      dup2\n      lt\n      iszero\n      iszero\n      tag_102\n      jumpi\n      invalid\n    tag_102:\n      swap1\n      0x0\n      mstore\n      keccak256(0x0, 0x20)\n      add\n      0x0\n      swap2\n      pop\n      sload\n      swap1\n      0x100\n      exp\n      swap1\n      div\n      0xffffffffffffffffffffffffffffffffffffffff\n      and\n      dup2\n      jump\t// out\n        /* \"contracts/Omnidex-incentives/incentives/MultiSigWalletWithDailyLimit.sol\":5040:5515  function removeOwner(address owner)\r... */\n    tag_31:\n        /* \"contracts/Omnidex-incentives/incentives/MultiSigWalletWithDailyLimit.sol\":5194:5200  uint i */\n      0x0\n        /* \"contracts/Omnidex-incentives/incentives/MultiSigWalletWithDailyLimit.sol\":2595:2599  this */\n      address\n        /* \"contracts/Omnidex-incentives/incentives/MultiSigWalletWithDailyLimit.sol\":2573:2600  msg.sender == address(this) */\n      0xffffffffffffffffffffffffffffffffffffffff\n      and\n        /* \"contracts/Omnidex-incentives/incentives/MultiSigWalletWithDailyLimit.sol\":2573:2583  msg.sender */\n      caller\n        /* \"contracts/Omnidex-incentives/incentives/MultiSigWalletWithDailyLimit.sol\":2573:2600  msg.sender == address(this) */\n      0xffffffffffffffffffffffffffffffffffffffff\n      and\n      eq\n        /* \"contracts/Omnidex-incentives/incentives/MultiSigWalletWithDailyLimit.sol\":2565:2601  require(msg.sender == address(this)) */\n      iszero\n      iszero\n      tag_105\n      jumpi\n      0x0\n      dup1\n      revert\n    tag_105:\n        /* \"contracts/Omnidex-incentives/incentives/MultiSigWalletWithDailyLimit.sol\":5133:5138  owner */\n      dup2\n        /* \"contracts/Omnidex-incentives/incentives/MultiSigWalletWithDailyLimit.sol\":2789:2796  isOwner */\n      0x2\n        /* \"contracts/Omnidex-incentives/incentives/MultiSigWalletWithDailyLimit.sol\":2789:2803  isOwner[owner] */\n      0x0\n        /* \"contracts/Omnidex-incentives/incentives/MultiSigWalletWithDailyLimit.sol\":2797:2802  owner */\n      dup3\n        /* \"contracts/Omnidex-incentives/incentives/MultiSigWalletWithDailyLimit.sol\":2789:2803  isOwner[owner] */\n      0xffffffffffffffffffffffffffffffffffffffff\n      and\n      0xffffffffffffffffffffffffffffffffffffffff\n      and\n      dup2\n      mstore\n      0x20\n      add\n      swap1\n      dup2\n      mstore\n      0x20\n      add\n      0x0\n      keccak256\n      0x0\n      swap1\n      sload\n      swap1\n      0x100\n      exp\n      swap1\n      div\n      0xff\n      and\n        /* \"contracts/Omnidex-incentives/incentives/MultiSigWalletWithDailyLimit.sol\":2781:2804  require(isOwner[owner]) */\n      iszero\n      iszero\n      tag_107\n      jumpi\n      0x0\n      dup1\n      revert\n    tag_107:\n        /* \"contracts/Omnidex-incentives/incentives/MultiSigWalletWithDailyLimit.sol\":5173:5178  false */\n      0x0\n        /* \"contracts/Omnidex-incentives/incentives/MultiSigWalletWithDailyLimit.sol\":5156:5163  isOwner */\n      0x2\n        /* \"contracts/Omnidex-incentives/incentives/MultiSigWalletWithDailyLimit.sol\":5156:5170  isOwner[owner] */\n      0x0\n        /* \"contracts/Omnidex-incentives/incentives/MultiSigWalletWithDailyLimit.sol\":5164:5169  owner */\n      dup6\n        /* \"contracts/Omnidex-incentives/incentives/MultiSigWalletWithDailyLimit.sol\":5156:5170  isOwner[owner] */\n      0xffffffffffffffffffffffffffffffffffffffff\n      and\n      0xffffffffffffffffffffffffffffffffffffffff\n      and\n      dup2\n      mstore\n      0x20\n      add\n      swap1\n      dup2\n      mstore\n      0x20\n      add\n      0x0\n      keccak256\n      0x0\n        /* \"contracts/Omnidex-incentives/incentives/MultiSigWalletWithDailyLimit.sol\":5156:5178  isOwner[owner] = false */\n      0x100\n      exp\n      dup2\n      sload\n      dup2\n      0xff\n      mul\n      not\n      and\n      swap1\n      dup4\n      iszero\n      iszero\n      mul\n      or\n      swap1\n      sstore\n      pop\n        /* \"contracts/Omnidex-incentives/incentives/MultiSigWalletWithDailyLimit.sol\":5201:5202  0 */\n      0x0\n        /* \"contracts/Omnidex-incentives/incentives/MultiSigWalletWithDailyLimit.sol\":5194:5202  uint i=0 */\n      swap2\n      pop\n        /* \"contracts/Omnidex-incentives/incentives/MultiSigWalletWithDailyLimit.sol\":5189:5363  for (uint i=0; i<owners.length - 1; i++)\r... */\n    tag_109:\n        /* \"contracts/Omnidex-incentives/incentives/MultiSigWalletWithDailyLimit.sol\":5222:5223  1 */\n      0x1\n        /* \"contracts/Omnidex-incentives/incentives/MultiSigWalletWithDailyLimit.sol\":5206:5212  owners */\n      0x3\n        /* \"contracts/Omnidex-incentives/incentives/MultiSigWalletWithDailyLimit.sol\":5206:5219  owners.length */\n      dup1\n      sload\n      swap1\n      pop\n        /* \"contracts/Omnidex-incentives/incentives/MultiSigWalletWithDailyLimit.sol\":5206:5223  owners.length - 1 */\n      sub\n        /* \"contracts/Omnidex-incentives/incentives/MultiSigWalletWithDailyLimit.sol\":5204:5205  i */\n      dup3\n        /* \"contracts/Omnidex-incentives/incentives/MultiSigWalletWithDailyLimit.sol\":5204:5223  i<owners.length - 1 */\n      lt\n        /* \"contracts/Omnidex-incentives/incentives/MultiSigWalletWithDailyLimit.sol\":5189:5363  for (uint i=0; i<owners.length - 1; i++)\r... */\n      iszero\n      tag_110\n      jumpi\n        /* \"contracts/Omnidex-incentives/incentives/MultiSigWalletWithDailyLimit.sol\":5260:5265  owner */\n      dup3\n        /* \"contracts/Omnidex-incentives/incentives/MultiSigWalletWithDailyLimit.sol\":5247:5265  owners[i] == owner */\n      0xffffffffffffffffffffffffffffffffffffffff\n      and\n        /* \"contracts/Omnidex-incentives/incentives/MultiSigWalletWithDailyLimit.sol\":5247:5253  owners */\n      0x3\n        /* \"contracts/Omnidex-incentives/incentives/MultiSigWalletWithDailyLimit.sol\":5254:5255  i */\n      dup4\n        /* \"contracts/Omnidex-incentives/incentives/MultiSigWalletWithDailyLimit.sol\":5247:5256  owners[i] */\n      dup2\n      sload\n      dup2\n      lt\n      iszero\n      iszero\n      tag_112\n      jumpi\n      invalid\n    tag_112:\n      swap1\n      0x0\n      mstore\n      keccak256(0x0, 0x20)\n      add\n      0x0\n      swap1\n      sload\n      swap1\n      0x100\n      exp\n      swap1\n      div\n      0xffffffffffffffffffffffffffffffffffffffff\n      and\n        /* \"contracts/Omnidex-incentives/incentives/MultiSigWalletWithDailyLimit.sol\":5247:5265  owners[i] == owner */\n      0xffffffffffffffffffffffffffffffffffffffff\n      and\n      eq\n        /* \"contracts/Omnidex-incentives/incentives/MultiSigWalletWithDailyLimit.sol\":5243:5363  if (owners[i] == owner) {\r... */\n      iszero\n      tag_114\n      jumpi\n        /* \"contracts/Omnidex-incentives/incentives/MultiSigWalletWithDailyLimit.sol\":5298:5304  owners */\n      0x3\n        /* \"contracts/Omnidex-incentives/incentives/MultiSigWalletWithDailyLimit.sol\":5321:5322  1 */\n      0x1\n        /* \"contracts/Omnidex-incentives/incentives/MultiSigWalletWithDailyLimit.sol\":5305:5311  owners */\n      0x3\n        /* \"contracts/Omnidex-incentives/incentives/MultiSigWalletWithDailyLimit.sol\":5305:5318  owners.length */\n      dup1\n      sload\n      swap1\n      pop\n        /* \"contracts/Omnidex-incentives/incentives/MultiSigWalletWithDailyLimit.sol\":5305:5322  owners.length - 1 */\n      sub\n        /* \"contracts/Omnidex-incentives/incentives/MultiSigWalletWithDailyLimit.sol\":5298:5323  owners[owners.length - 1] */\n      dup2\n      sload\n      dup2\n      lt\n      iszero\n      iszero\n      tag_115\n      jumpi\n      invalid\n    tag_115:\n      swap1\n      0x0\n      mstore\n      keccak256(0x0, 0x20)\n      add\n      0x0\n      swap1\n      sload\n      swap1\n      0x100\n      exp\n      swap1\n      div\n      0xffffffffffffffffffffffffffffffffffffffff\n      and\n        /* \"contracts/Omnidex-incentives/incentives/MultiSigWalletWithDailyLimit.sol\":5286:5292  owners */\n      0x3\n        /* \"contracts/Omnidex-incentives/incentives/MultiSigWalletWithDailyLimit.sol\":5293:5294  i */\n      dup4\n        /* \"contracts/Omnidex-incentives/incentives/MultiSigWalletWithDailyLimit.sol\":5286:5295  owners[i] */\n      dup2\n      sload\n      dup2\n      lt\n      iszero\n      iszero\n      tag_117\n      jumpi\n      invalid\n    tag_117:\n      swap1\n      0x0\n      mstore\n      keccak256(0x0, 0x20)\n      add\n      0x0\n        /* \"contracts/Omnidex-incentives/incentives/MultiSigWalletWithDailyLimit.sol\":5286:5323  owners[i] = owners[owners.length - 1] */\n      0x100\n      exp\n      dup2\n      sload\n      dup2\n      0xffffffffffffffffffffffffffffffffffffffff\n      mul\n      not\n      and\n      swap1\n      dup4\n      0xffffffffffffffffffffffffffffffffffffffff\n      and\n      mul\n      or\n      swap1\n      sstore\n      pop\n        /* \"contracts/Omnidex-incentives/incentives/MultiSigWalletWithDailyLimit.sol\":5342:5347  break */\n      jump(tag_110)\n        /* \"contracts/Omnidex-incentives/incentives/MultiSigWalletWithDailyLimit.sol\":5243:5363  if (owners[i] == owner) {\r... */\n    tag_114:\n        /* \"contracts/Omnidex-incentives/incentives/MultiSigWalletWithDailyLimit.sol\":5225:5228  i++ */\n      dup2\n      dup1\n      0x1\n      add\n      swap3\n      pop\n      pop\n        /* \"contracts/Omnidex-incentives/incentives/MultiSigWalletWithDailyLimit.sol\":5189:5363  for (uint i=0; i<owners.length - 1; i++)\r... */\n      jump(tag_109)\n    tag_110:\n        /* \"contracts/Omnidex-incentives/incentives/MultiSigWalletWithDailyLimit.sol\":5390:5391  1 */\n      0x1\n        /* \"contracts/Omnidex-incentives/incentives/MultiSigWalletWithDailyLimit.sol\":5373:5379  owners */\n      0x3\n        /* \"contracts/Omnidex-incentives/incentives/MultiSigWalletWithDailyLimit.sol\":5373:5391  owners.length -= 1 */\n      dup2\n      dup2\n      dup1\n      sload\n      swap1\n      pop\n      sub\n      swap2\n      pop\n      dup2\n      tag_119\n      swap2\n      swap1\n      jump\t// in(tag_120)\n    tag_119:\n      pop\n        /* \"contracts/Omnidex-incentives/incentives/MultiSigWalletWithDailyLimit.sol\":5417:5423  owners */\n      0x3\n        /* \"contracts/Omnidex-incentives/incentives/MultiSigWalletWithDailyLimit.sol\":5417:5430  owners.length */\n      dup1\n      sload\n      swap1\n      pop\n        /* \"contracts/Omnidex-incentives/incentives/MultiSigWalletWithDailyLimit.sol\":5406:5414  required */\n      sload(0x4)\n        /* \"contracts/Omnidex-incentives/incentives/MultiSigWalletWithDailyLimit.sol\":5406:5430  required > owners.length */\n      gt\n        /* \"contracts/Omnidex-incentives/incentives/MultiSigWalletWithDailyLimit.sol\":5402:5477  if (required > owners.length)\r... */\n      iszero\n      tag_121\n      jumpi\n        /* \"contracts/Omnidex-incentives/incentives/MultiSigWalletWithDailyLimit.sol\":5445:5477  changeRequirement(owners.length) */\n      tag_122\n        /* \"contracts/Omnidex-incentives/incentives/MultiSigWalletWithDailyLimit.sol\":5463:5469  owners */\n      0x3\n        /* \"contracts/Omnidex-incentives/incentives/MultiSigWalletWithDailyLimit.sol\":5463:5476  owners.length */\n      dup1\n      sload\n      swap1\n      pop\n        /* \"contracts/Omnidex-incentives/incentives/MultiSigWalletWithDailyLimit.sol\":5445:5462  changeRequirement */\n      tag_83\n        /* \"contracts/Omnidex-incentives/incentives/MultiSigWalletWithDailyLimit.sol\":5445:5477  changeRequirement(owners.length) */\n      jump\t// in\n    tag_122:\n        /* \"contracts/Omnidex-incentives/incentives/MultiSigWalletWithDailyLimit.sol\":5402:5477  if (required > owners.length)\r... */\n    tag_121:\n        /* \"contracts/Omnidex-incentives/incentives/MultiSigWalletWithDailyLimit.sol\":5501:5506  owner */\n      dup3\n        /* \"contracts/Omnidex-incentives/incentives/MultiSigWalletWithDailyLimit.sol\":5488:5507  OwnerRemoval(owner) */\n      0xffffffffffffffffffffffffffffffffffffffff\n      and\n      0x8001553a916ef2f495d26a907cc54d96ed840d7bda71e73194bf5a9df7a76b90\n      mload(0x40)\n      mload(0x40)\n      dup1\n      swap2\n      sub\n      swap1\n      log2\n        /* \"contracts/Omnidex-incentives/incentives/MultiSigWalletWithDailyLimit.sol\":2612:2613  _ */\n      pop\n        /* \"contracts/Omnidex-incentives/incentives/MultiSigWalletWithDailyLimit.sol\":5040:5515  function removeOwner(address owner)\r... */\n      pop\n      pop\n      jump\t// out\n        /* \"contracts/Omnidex-incentives/incentives/MultiSigWalletWithDailyLimit.sol\":7682:7981  function revokeConfirmation(uint transactionId)\r... */\n    tag_34:\n        /* \"contracts/Omnidex-incentives/incentives/MultiSigWalletWithDailyLimit.sol\":7767:7777  msg.sender */\n      caller\n        /* \"contracts/Omnidex-incentives/incentives/MultiSigWalletWithDailyLimit.sol\":2789:2796  isOwner */\n      0x2\n        /* \"contracts/Omnidex-incentives/incentives/MultiSigWalletWithDailyLimit.sol\":2789:2803  isOwner[owner] */\n      0x0\n        /* \"contracts/Omnidex-incentives/incentives/MultiSigWalletWithDailyLimit.sol\":2797:2802  owner */\n      dup3\n        /* \"contracts/Omnidex-incentives/incentives/MultiSigWalletWithDailyLimit.sol\":2789:2803  isOwner[owner] */\n      0xffffffffffffffffffffffffffffffffffffffff\n      and\n      0xffffffffffffffffffffffffffffffffffffffff\n      and\n      dup2\n      mstore\n      0x20\n      add\n      swap1\n      dup2\n      mstore\n      0x20\n      add\n      0x0\n      keccak256\n      0x0\n      swap1\n      sload\n      swap1\n      0x100\n      exp\n      swap1\n      div\n      0xff\n      and\n        /* \"contracts/Omnidex-incentives/incentives/MultiSigWalletWithDailyLimit.sol\":2781:2804  require(isOwner[owner]) */\n      iszero\n      iszero\n      tag_124\n      jumpi\n      0x0\n      dup1\n      revert\n    tag_124:\n        /* \"contracts/Omnidex-incentives/incentives/MultiSigWalletWithDailyLimit.sol\":7798:7811  transactionId */\n      dup2\n        /* \"contracts/Omnidex-incentives/incentives/MultiSigWalletWithDailyLimit.sol\":7813:7823  msg.sender */\n      caller\n        /* \"contracts/Omnidex-incentives/incentives/MultiSigWalletWithDailyLimit.sol\":3044:3057  confirmations */\n      0x1\n        /* \"contracts/Omnidex-incentives/incentives/MultiSigWalletWithDailyLimit.sol\":3044:3072  confirmations[transactionId] */\n      0x0\n        /* \"contracts/Omnidex-incentives/incentives/MultiSigWalletWithDailyLimit.sol\":3058:3071  transactionId */\n      dup4\n        /* \"contracts/Omnidex-incentives/incentives/MultiSigWalletWithDailyLimit.sol\":3044:3072  confirmations[transactionId] */\n      dup2\n      mstore\n      0x20\n      add\n      swap1\n      dup2\n      mstore\n      0x20\n      add\n      0x0\n      keccak256\n        /* \"contracts/Omnidex-incentives/incentives/MultiSigWalletWithDailyLimit.sol\":3044:3079  confirmations[transactionId][owner] */\n      0x0\n        /* \"contracts/Omnidex-incentives/incentives/MultiSigWalletWithDailyLimit.sol\":3073:3078  owner */\n      dup3\n        /* \"contracts/Omnidex-incentives/incentives/MultiSigWalletWithDailyLimit.sol\":3044:3079  confirmations[transactionId][owner] */\n      0xffffffffffffffffffffffffffffffffffffffff\n      and\n      0xffffffffffffffffffffffffffffffffffffffff\n      and\n      dup2\n      mstore\n      0x20\n      add\n      swap1\n      dup2\n      mstore\n      0x20\n      add\n      0x0\n      keccak256\n      0x0\n      swap1\n      sload\n      swap1\n      0x100\n      exp\n      swap1\n      div\n      0xff\n      and\n        /* \"contracts/Omnidex-incentives/incentives/MultiSigWalletWithDailyLimit.sol\":3036:3080  require(confirmations[transactionId][owner]) */\n      iszero\n      iszero\n      tag_126\n      jumpi\n      0x0\n      dup1\n      revert\n    tag_126:\n        /* \"contracts/Omnidex-incentives/incentives/MultiSigWalletWithDailyLimit.sol\":7846:7859  transactionId */\n      dup4\n        /* \"contracts/Omnidex-incentives/incentives/MultiSigWalletWithDailyLimit.sol\":3310:3322  transactions */\n      0x0\n        /* \"contracts/Omnidex-incentives/incentives/MultiSigWalletWithDailyLimit.sol\":3310:3337  transactions[transactionId] */\n      dup1\n        /* \"contracts/Omnidex-incentives/incentives/MultiSigWalletWithDailyLimit.sol\":3323:3336  transactionId */\n      dup3\n        /* \"contracts/Omnidex-incentives/incentives/MultiSigWalletWithDailyLimit.sol\":3310:3337  transactions[transactionId] */\n      dup2\n      mstore\n      0x20\n      add\n      swap1\n      dup2\n      mstore\n      0x20\n      add\n      0x0\n      keccak256\n        /* \"contracts/Omnidex-incentives/incentives/MultiSigWalletWithDailyLimit.sol\":3310:3346  transactions[transactionId].executed */\n      0x3\n      add\n      0x0\n      swap1\n      sload\n      swap1\n      0x100\n      exp\n      swap1\n      div\n      0xff\n      and\n        /* \"contracts/Omnidex-incentives/incentives/MultiSigWalletWithDailyLimit.sol\":3309:3346  !transactions[transactionId].executed */\n      iszero\n        /* \"contracts/Omnidex-incentives/incentives/MultiSigWalletWithDailyLimit.sol\":3301:3347  require(!transactions[transactionId].executed) */\n      iszero\n      iszero\n      tag_128\n      jumpi\n      0x0\n      dup1\n      revert\n    tag_128:\n        /* \"contracts/Omnidex-incentives/incentives/MultiSigWalletWithDailyLimit.sol\":7920:7925  false */\n      0x0\n        /* \"contracts/Omnidex-incentives/incentives/MultiSigWalletWithDailyLimit.sol\":7877:7890  confirmations */\n      0x1\n        /* \"contracts/Omnidex-incentives/incentives/MultiSigWalletWithDailyLimit.sol\":7877:7905  confirmations[transactionId] */\n      0x0\n        /* \"contracts/Omnidex-incentives/incentives/MultiSigWalletWithDailyLimit.sol\":7891:7904  transactionId */\n      dup8\n        /* \"contracts/Omnidex-incentives/incentives/MultiSigWalletWithDailyLimit.sol\":7877:7905  confirmations[transactionId] */\n      dup2\n      mstore\n      0x20\n      add\n      swap1\n      dup2\n      mstore\n      0x20\n      add\n      0x0\n      keccak256\n        /* \"contracts/Omnidex-incentives/incentives/MultiSigWalletWithDailyLimit.sol\":7877:7917  confirmations[transactionId][msg.sender] */\n      0x0\n        /* \"contracts/Omnidex-incentives/incentives/MultiSigWalletWithDailyLimit.sol\":7906:7916  msg.sender */\n      caller\n        /* \"contracts/Omnidex-incentives/incentives/MultiSigWalletWithDailyLimit.sol\":7877:7917  confirmations[transactionId][msg.sender] */\n      0xffffffffffffffffffffffffffffffffffffffff\n      and\n      0xffffffffffffffffffffffffffffffffffffffff\n      and\n      dup2\n      mstore\n      0x20\n      add\n      swap1\n      dup2\n      mstore\n      0x20\n      add\n      0x0\n      keccak256\n      0x0\n        /* \"contracts/Omnidex-incentives/incentives/MultiSigWalletWithDailyLimit.sol\":7877:7925  confirmations[transactionId][msg.sender] = false */\n      0x100\n      exp\n      dup2\n      sload\n      dup2\n      0xff\n      mul\n      not\n      and\n      swap1\n      dup4\n      iszero\n      iszero\n      mul\n      or\n      swap1\n      sstore\n      pop\n        /* \"contracts/Omnidex-incentives/incentives/MultiSigWalletWithDailyLimit.sol\":7959:7972  transactionId */\n      dup5\n        /* \"contracts/Omnidex-incentives/incentives/MultiSigWalletWithDailyLimit.sol\":7947:7957  msg.sender */\n      caller\n        /* \"contracts/Omnidex-incentives/incentives/MultiSigWalletWithDailyLimit.sol\":7936:7973  Revocation(msg.sender, transactionId) */\n      0xffffffffffffffffffffffffffffffffffffffff\n      and\n      0xf6a317157440607f36269043eb55f1287a5a19ba2216afeab88cd46cbcfb88e9\n      mload(0x40)\n      mload(0x40)\n      dup1\n      swap2\n      sub\n      swap1\n      log3\n        /* \"contracts/Omnidex-incentives/incentives/MultiSigWalletWithDailyLimit.sol\":3091:3092  _ */\n      pop\n        /* \"contracts/Omnidex-incentives/incentives/MultiSigWalletWithDailyLimit.sol\":2815:2816  _ */\n      pop\n      pop\n        /* \"contracts/Omnidex-incentives/incentives/MultiSigWalletWithDailyLimit.sol\":7682:7981  function revokeConfirmation(uint transactionId)\r... */\n      pop\n      pop\n      jump\t// out\n        /* \"contracts/Omnidex-incentives/incentives/MultiSigWalletWithDailyLimit.sol\":2224:2264  mapping (address => bool) public isOwner */\n    tag_37:\n      mstore(0x20, 0x2)\n      dup1\n      0x0\n      mstore\n      keccak256(0x0, 0x40)\n      0x0\n      swap2\n      pop\n      sload\n      swap1\n      0x100\n      exp\n      swap1\n      div\n      0xff\n      and\n      dup2\n      jump\t// out\n        /* \"contracts/Omnidex-incentives/incentives/MultiSigWalletWithDailyLimit.sol\":2153:2217  mapping (uint => mapping (address => bool)) public confirmations */\n    tag_40:\n      mstore(0x20, 0x1)\n      dup2\n      0x0\n      mstore\n      mstore(0x20, keccak256(0x0, 0x40))\n      dup1\n      0x0\n      mstore\n      keccak256(0x0, 0x40)\n      0x0\n      swap2\n      pop\n      swap2\n      pop\n      swap1\n      sload\n      swap1\n      0x100\n      exp\n      swap1\n      div\n      0xff\n      and\n      dup2\n      jump\t// out\n        /* \"contracts/Omnidex-incentives/incentives/MultiSigWalletWithDailyLimit.sol\":10726:11054  function getTransactionCount(bool pending, bool executed)\r... */\n    tag_43:\n        /* \"contracts/Omnidex-incentives/incentives/MultiSigWalletWithDailyLimit.sol\":10836:10846  uint count */\n      0x0\n        /* \"contracts/Omnidex-incentives/incentives/MultiSigWalletWithDailyLimit.sol\":10869:10875  uint i */\n      dup1\n        /* \"contracts/Omnidex-incentives/incentives/MultiSigWalletWithDailyLimit.sol\":10876:10877  0 */\n      0x0\n        /* \"contracts/Omnidex-incentives/incentives/MultiSigWalletWithDailyLimit.sol\":10869:10877  uint i=0 */\n      swap1\n      pop\n        /* \"contracts/Omnidex-incentives/incentives/MultiSigWalletWithDailyLimit.sol\":10864:11046  for (uint i=0; i<transactionCount; i++)\r... */\n    tag_131:\n        /* \"contracts/Omnidex-incentives/incentives/MultiSigWalletWithDailyLimit.sol\":10881:10897  transactionCount */\n      sload(0x5)\n        /* \"contracts/Omnidex-incentives/incentives/MultiSigWalletWithDailyLimit.sol\":10879:10880  i */\n      dup2\n        /* \"contracts/Omnidex-incentives/incentives/MultiSigWalletWithDailyLimit.sol\":10879:10897  i<transactionCount */\n      lt\n        /* \"contracts/Omnidex-incentives/incentives/MultiSigWalletWithDailyLimit.sol\":10864:11046  for (uint i=0; i<transactionCount; i++)\r... */\n      iszero\n      tag_132\n      jumpi\n        /* \"contracts/Omnidex-incentives/incentives/MultiSigWalletWithDailyLimit.sol\":10924:10931  pending */\n      dup4\n        /* \"contracts/Omnidex-incentives/incentives/MultiSigWalletWithDailyLimit.sol\":10924:10960  pending && !transactions[i].executed */\n      dup1\n      iszero\n      tag_134\n      jumpi\n      pop\n        /* \"contracts/Omnidex-incentives/incentives/MultiSigWalletWithDailyLimit.sol\":10936:10948  transactions */\n      0x0\n        /* \"contracts/Omnidex-incentives/incentives/MultiSigWalletWithDailyLimit.sol\":10936:10951  transactions[i] */\n      dup1\n        /* \"contracts/Omnidex-incentives/incentives/MultiSigWalletWithDailyLimit.sol\":10949:10950  i */\n      dup3\n        /* \"contracts/Omnidex-incentives/incentives/MultiSigWalletWithDailyLimit.sol\":10936:10951  transactions[i] */\n      dup2\n      mstore\n      0x20\n      add\n      swap1\n      dup2\n      mstore\n      0x20\n      add\n      0x0\n      keccak256\n        /* \"contracts/Omnidex-incentives/incentives/MultiSigWalletWithDailyLimit.sol\":10936:10960  transactions[i].executed */\n      0x3\n      add\n      0x0\n      swap1\n      sload\n      swap1\n      0x100\n      exp\n      swap1\n      div\n      0xff\n      and\n        /* \"contracts/Omnidex-incentives/incentives/MultiSigWalletWithDailyLimit.sol\":10935:10960  !transactions[i].executed */\n      iszero\n        /* \"contracts/Omnidex-incentives/incentives/MultiSigWalletWithDailyLimit.sol\":10924:10960  pending && !transactions[i].executed */\n    tag_134:\n        /* \"contracts/Omnidex-incentives/incentives/MultiSigWalletWithDailyLimit.sol\":10924:11017  pending && !transactions[i].executed\r... */\n      dup1\n      tag_135\n      jumpi\n      pop\n        /* \"contracts/Omnidex-incentives/incentives/MultiSigWalletWithDailyLimit.sol\":10981:10989  executed */\n      dup3\n        /* \"contracts/Omnidex-incentives/incentives/MultiSigWalletWithDailyLimit.sol\":10981:11017  executed && transactions[i].executed */\n      dup1\n      iszero\n      tag_136\n      jumpi\n      pop\n        /* \"contracts/Omnidex-incentives/incentives/MultiSigWalletWithDailyLimit.sol\":10993:11005  transactions */\n      0x0\n        /* \"contracts/Omnidex-incentives/incentives/MultiSigWalletWithDailyLimit.sol\":10993:11008  transactions[i] */\n      dup1\n        /* \"contracts/Omnidex-incentives/incentives/MultiSigWalletWithDailyLimit.sol\":11006:11007  i */\n      dup3\n        /* \"contracts/Omnidex-incentives/incentives/MultiSigWalletWithDailyLimit.sol\":10993:11008  transactions[i] */\n      dup2\n      mstore\n      0x20\n      add\n      swap1\n      dup2\n      mstore\n      0x20\n      add\n      0x0\n      keccak256\n        /* \"contracts/Omnidex-incentives/incentives/MultiSigWalletWithDailyLimit.sol\":10993:11017  transactions[i].executed */\n      0x3\n      add\n      0x0\n      swap1\n      sload\n      swap1\n      0x100\n      exp\n      swap1\n      div\n      0xff\n      and\n        /* \"contracts/Omnidex-incentives/incentives/MultiSigWalletWithDailyLimit.sol\":10981:11017  executed && transactions[i].executed */\n    tag_136:\n        /* \"contracts/Omnidex-incentives/incentives/MultiSigWalletWithDailyLimit.sol\":10924:11017  pending && !transactions[i].executed\r... */\n    tag_135:\n        /* \"contracts/Omnidex-incentives/incentives/MultiSigWalletWithDailyLimit.sol\":10917:11046  if (   pending && !transactions[i].executed\r... */\n      iszero\n      tag_137\n      jumpi\n        /* \"contracts/Omnidex-incentives/incentives/MultiSigWalletWithDailyLimit.sol\":11045:11046  1 */\n      0x1\n        /* \"contracts/Omnidex-incentives/incentives/MultiSigWalletWithDailyLimit.sol\":11036:11046  count += 1 */\n      dup3\n      add\n      swap2\n      pop\n        /* \"contracts/Omnidex-incentives/incentives/MultiSigWalletWithDailyLimit.sol\":10917:11046  if (   pending && !transactions[i].executed\r... */\n    tag_137:\n        /* \"contracts/Omnidex-incentives/incentives/MultiSigWalletWithDailyLimit.sol\":10899:10902  i++ */\n      dup1\n      dup1\n      0x1\n      add\n      swap2\n      pop\n      pop\n        /* \"contracts/Omnidex-incentives/incentives/MultiSigWalletWithDailyLimit.sol\":10864:11046  for (uint i=0; i<transactionCount; i++)\r... */\n      jump(tag_131)\n    tag_132:\n        /* \"contracts/Omnidex-incentives/incentives/MultiSigWalletWithDailyLimit.sol\":10726:11054  function getTransactionCount(bool pending, bool executed)\r... */\n      pop\n      swap3\n      swap2\n      pop\n      pop\n      jump\t// out\n        /* \"contracts/Omnidex-incentives/incentives/MultiSigWalletWithDailyLimit.sol\":4626:4913  function addOwner(address owner)\r... */\n    tag_46:\n        /* \"contracts/Omnidex-incentives/incentives/MultiSigWalletWithDailyLimit.sol\":2595:2599  this */\n      address\n        /* \"contracts/Omnidex-incentives/incentives/MultiSigWalletWithDailyLimit.sol\":2573:2600  msg.sender == address(this) */\n      0xffffffffffffffffffffffffffffffffffffffff\n      and\n        /* \"contracts/Omnidex-incentives/incentives/MultiSigWalletWithDailyLimit.sol\":2573:2583  msg.sender */\n      caller\n        /* \"contracts/Omnidex-incentives/incentives/MultiSigWalletWithDailyLimit.sol\":2573:2600  msg.sender == address(this) */\n      0xffffffffffffffffffffffffffffffffffffffff\n      and\n      eq\n        /* \"contracts/Omnidex-incentives/incentives/MultiSigWalletWithDailyLimit.sol\":2565:2601  require(msg.sender == address(this)) */\n      iszero\n      iszero\n      tag_139\n      jumpi\n      0x0\n      dup1\n      revert\n    tag_139:\n        /* \"contracts/Omnidex-incentives/incentives/MultiSigWalletWithDailyLimit.sol\":4722:4727  owner */\n      dup1\n        /* \"contracts/Omnidex-incentives/incentives/MultiSigWalletWithDailyLimit.sol\":2691:2698  isOwner */\n      0x2\n        /* \"contracts/Omnidex-incentives/incentives/MultiSigWalletWithDailyLimit.sol\":2691:2705  isOwner[owner] */\n      0x0\n        /* \"contracts/Omnidex-incentives/incentives/MultiSigWalletWithDailyLimit.sol\":2699:2704  owner */\n      dup3\n        /* \"contracts/Omnidex-incentives/incentives/MultiSigWalletWithDailyLimit.sol\":2691:2705  isOwner[owner] */\n      0xffffffffffffffffffffffffffffffffffffffff\n      and\n      0xffffffffffffffffffffffffffffffffffffffff\n      and\n      dup2\n      mstore\n      0x20\n      add\n      swap1\n      dup2\n      mstore\n      0x20\n      add\n      0x0\n      keccak256\n      0x0\n      swap1\n      sload\n      swap1\n      0x100\n      exp\n      swap1\n      div\n      0xff\n      and\n        /* \"contracts/Omnidex-incentives/incentives/MultiSigWalletWithDailyLimit.sol\":2690:2705  !isOwner[owner] */\n      iszero\n        /* \"contracts/Omnidex-incentives/incentives/MultiSigWalletWithDailyLimit.sol\":2682:2706  require(!isOwner[owner]) */\n      iszero\n      iszero\n      tag_141\n      jumpi\n      0x0\n      dup1\n      revert\n    tag_141:\n        /* \"contracts/Omnidex-incentives/incentives/MultiSigWalletWithDailyLimit.sol\":4746:4751  owner */\n      dup2\n        /* \"contracts/Omnidex-incentives/incentives/MultiSigWalletWithDailyLimit.sol\":3441:3442  0 */\n      0x0\n        /* \"contracts/Omnidex-incentives/incentives/MultiSigWalletWithDailyLimit.sol\":3429:3437  _address */\n      dup2\n        /* \"contracts/Omnidex-incentives/incentives/MultiSigWalletWithDailyLimit.sol\":3429:3442  _address != 0 */\n      0xffffffffffffffffffffffffffffffffffffffff\n      and\n      eq\n      iszero\n        /* \"contracts/Omnidex-incentives/incentives/MultiSigWalletWithDailyLimit.sol\":3421:3443  require(_address != 0) */\n      iszero\n      iszero\n      tag_143\n      jumpi\n      0x0\n      dup1\n      revert\n    tag_143:\n        /* \"contracts/Omnidex-incentives/incentives/MultiSigWalletWithDailyLimit.sol\":4795:4796  1 */\n      0x1\n        /* \"contracts/Omnidex-incentives/incentives/MultiSigWalletWithDailyLimit.sol\":4779:4785  owners */\n      0x3\n        /* \"contracts/Omnidex-incentives/incentives/MultiSigWalletWithDailyLimit.sol\":4779:4792  owners.length */\n      dup1\n      sload\n      swap1\n      pop\n        /* \"contracts/Omnidex-incentives/incentives/MultiSigWalletWithDailyLimit.sol\":4779:4796  owners.length + 1 */\n      add\n        /* \"contracts/Omnidex-incentives/incentives/MultiSigWalletWithDailyLimit.sol\":4798:4806  required */\n      sload(0x4)\n        /* \"contracts/Omnidex-incentives/incentives/MultiSigWalletWithDailyLimit.sol\":2052:2054  50 */\n      0x32\n        /* \"contracts/Omnidex-incentives/incentives/MultiSigWalletWithDailyLimit.sol\":3549:3559  ownerCount */\n      dup3\n        /* \"contracts/Omnidex-incentives/incentives/MultiSigWalletWithDailyLimit.sol\":3549:3578  ownerCount <= MAX_OWNER_COUNT */\n      gt\n      iszero\n        /* \"contracts/Omnidex-incentives/incentives/MultiSigWalletWithDailyLimit.sol\":3549:3618  ownerCount <= MAX_OWNER_COUNT\r... */\n      dup1\n      iszero\n      tag_145\n      jumpi\n      pop\n        /* \"contracts/Omnidex-incentives/incentives/MultiSigWalletWithDailyLimit.sol\":3608:3618  ownerCount */\n      dup2\n        /* \"contracts/Omnidex-incentives/incentives/MultiSigWalletWithDailyLimit.sol\":3595:3604  _required */\n      dup2\n        /* \"contracts/Omnidex-incentives/incentives/MultiSigWalletWithDailyLimit.sol\":3595:3618  _required <= ownerCount */\n      gt\n      iszero\n        /* \"contracts/Omnidex-incentives/incentives/MultiSigWalletWithDailyLimit.sol\":3549:3618  ownerCount <= MAX_OWNER_COUNT\r... */\n    tag_145:\n        /* \"contracts/Omnidex-incentives/incentives/MultiSigWalletWithDailyLimit.sol\":3549:3649  ownerCount <= MAX_OWNER_COUNT\r... */\n      dup1\n      iszero\n      tag_146\n      jumpi\n      pop\n        /* \"contracts/Omnidex-incentives/incentives/MultiSigWalletWithDailyLimit.sol\":3648:3649  0 */\n      0x0\n        /* \"contracts/Omnidex-incentives/incentives/MultiSigWalletWithDailyLimit.sol\":3635:3644  _required */\n      dup2\n        /* \"contracts/Omnidex-incentives/incentives/MultiSigWalletWithDailyLimit.sol\":3635:3649  _required != 0 */\n      eq\n      iszero\n        /* \"contracts/Omnidex-incentives/incentives/MultiSigWalletWithDailyLimit.sol\":3549:3649  ownerCount <= MAX_OWNER_COUNT\r... */\n    tag_146:\n        /* \"contracts/Omnidex-incentives/incentives/MultiSigWalletWithDailyLimit.sol\":3549:3681  ownerCount <= MAX_OWNER_COUNT\r... */\n      dup1\n      iszero\n      tag_147\n      jumpi\n      pop\n        /* \"contracts/Omnidex-incentives/incentives/MultiSigWalletWithDailyLimit.sol\":3680:3681  0 */\n      0x0\n        /* \"contracts/Omnidex-incentives/incentives/MultiSigWalletWithDailyLimit.sol\":3666:3676  ownerCount */\n      dup3\n        /* \"contracts/Omnidex-incentives/incentives/MultiSigWalletWithDailyLimit.sol\":3666:3681  ownerCount != 0 */\n      eq\n      iszero\n        /* \"contracts/Omnidex-incentives/incentives/MultiSigWalletWithDailyLimit.sol\":3549:3681  ownerCount <= MAX_OWNER_COUNT\r... */\n    tag_147:\n        /* \"contracts/Omnidex-incentives/incentives/MultiSigWalletWithDailyLimit.sol\":3541:3682  require(ownerCount <= MAX_OWNER_COUNT\r... */\n      iszero\n      iszero\n      tag_148\n      jumpi\n      0x0\n      dup1\n      revert\n    tag_148:\n        /* \"contracts/Omnidex-incentives/incentives/MultiSigWalletWithDailyLimit.sol\":4841:4845  true */\n      0x1\n        /* \"contracts/Omnidex-incentives/incentives/MultiSigWalletWithDailyLimit.sol\":4824:4831  isOwner */\n      0x2\n        /* \"contracts/Omnidex-incentives/incentives/MultiSigWalletWithDailyLimit.sol\":4824:4838  isOwner[owner] */\n      0x0\n        /* \"contracts/Omnidex-incentives/incentives/MultiSigWalletWithDailyLimit.sol\":4832:4837  owner */\n      dup8\n        /* \"contracts/Omnidex-incentives/incentives/MultiSigWalletWithDailyLimit.sol\":4824:4838  isOwner[owner] */\n      0xffffffffffffffffffffffffffffffffffffffff\n      and\n      0xffffffffffffffffffffffffffffffffffffffff\n      and\n      dup2\n      mstore\n      0x20\n      add\n      swap1\n      dup2\n      mstore\n      0x20\n      add\n      0x0\n      keccak256\n      0x0\n        /* \"contracts/Omnidex-incentives/incentives/MultiSigWalletWithDailyLimit.sol\":4824:4845  isOwner[owner] = true */\n      0x100\n      exp\n      dup2\n      sload\n      dup2\n      0xff\n      mul\n      not\n      and\n      swap1\n      dup4\n      iszero\n      iszero\n      mul\n      or\n      swap1\n      sstore\n      pop\n        /* \"contracts/Omnidex-incentives/incentives/MultiSigWalletWithDailyLimit.sol\":4856:4862  owners */\n      0x3\n        /* \"contracts/Omnidex-incentives/incentives/MultiSigWalletWithDailyLimit.sol\":4868:4873  owner */\n      dup6\n        /* \"contracts/Omnidex-incentives/incentives/MultiSigWalletWithDailyLimit.sol\":4856:4874  owners.push(owner) */\n      swap1\n      dup1\n        /* \"--CODEGEN--\":39:40   */\n      0x1\n        /* \"--CODEGEN--\":33:36   */\n      dup2\n        /* \"--CODEGEN--\":27:37   */\n      sload\n        /* \"--CODEGEN--\":23:41   */\n      add\n        /* \"--CODEGEN--\":57:67   */\n      dup1\n        /* \"--CODEGEN--\":52:55   */\n      dup3\n        /* \"--CODEGEN--\":45:68   */\n      sstore\n        /* \"--CODEGEN--\":79:89   */\n      dup1\n        /* \"--CODEGEN--\":72:89   */\n      swap2\n      pop\n        /* \"--CODEGEN--\":0:93   */\n      pop\n        /* \"contracts/Omnidex-incentives/incentives/MultiSigWalletWithDailyLimit.sol\":4856:4874  owners.push(owner) */\n      swap1\n      0x1\n      dup3\n      sub\n      swap1\n      0x0\n      mstore\n      keccak256(0x0, 0x20)\n      add\n      0x0\n      swap1\n      swap2\n      swap3\n      swap1\n      swap2\n      swap1\n      swap2\n      0x100\n      exp\n      dup2\n      sload\n      dup2\n      0xffffffffffffffffffffffffffffffffffffffff\n      mul\n      not\n      and\n      swap1\n      dup4\n      0xffffffffffffffffffffffffffffffffffffffff\n      and\n      mul\n      or\n      swap1\n      sstore\n      pop\n      pop\n        /* \"contracts/Omnidex-incentives/incentives/MultiSigWalletWithDailyLimit.sol\":4899:4904  owner */\n      dup5\n        /* \"contracts/Omnidex-incentives/incentives/MultiSigWalletWithDailyLimit.sol\":4885:4905  OwnerAddition(owner) */\n      0xffffffffffffffffffffffffffffffffffffffff\n      and\n      0xf39e6e1eb0edcf53c221607b54b00cd28f3196fed0a24994dc308b8f611b682d\n      mload(0x40)\n      mload(0x40)\n      dup1\n      swap2\n      sub\n      swap1\n      log2\n        /* \"contracts/Omnidex-incentives/incentives/MultiSigWalletWithDailyLimit.sol\":3454:3455  _ */\n      pop\n      pop\n        /* \"contracts/Omnidex-incentives/incentives/MultiSigWalletWithDailyLimit.sol\":2717:2718  _ */\n      pop\n        /* \"contracts/Omnidex-incentives/incentives/MultiSigWalletWithDailyLimit.sol\":2612:2613  _ */\n      pop\n        /* \"contracts/Omnidex-incentives/incentives/MultiSigWalletWithDailyLimit.sol\":4626:4913  function addOwner(address owner)\r... */\n      pop\n      jump\t// out\n        /* \"contracts/Omnidex-incentives/incentives/MultiSigWalletWithDailyLimit.sol\":8836:9185  function isConfirmed(uint transactionId)\r... */\n    tag_49:\n        /* \"contracts/Omnidex-incentives/incentives/MultiSigWalletWithDailyLimit.sol\":8929:8933  bool */\n      0x0\n        /* \"contracts/Omnidex-incentives/incentives/MultiSigWalletWithDailyLimit.sol\":8951:8961  uint count */\n      dup1\n        /* \"contracts/Omnidex-incentives/incentives/MultiSigWalletWithDailyLimit.sol\":8981:8987  uint i */\n      0x0\n        /* \"contracts/Omnidex-incentives/incentives/MultiSigWalletWithDailyLimit.sol\":8964:8965  0 */\n      dup1\n        /* \"contracts/Omnidex-incentives/incentives/MultiSigWalletWithDailyLimit.sol\":8951:8965  uint count = 0 */\n      swap2\n      pop\n        /* \"contracts/Omnidex-incentives/incentives/MultiSigWalletWithDailyLimit.sol\":8988:8989  0 */\n      0x0\n        /* \"contracts/Omnidex-incentives/incentives/MultiSigWalletWithDailyLimit.sol\":8981:8989  uint i=0 */\n      swap1\n      pop\n        /* \"contracts/Omnidex-incentives/incentives/MultiSigWalletWithDailyLimit.sol\":8976:9178  for (uint i=0; i<owners.length; i++) {\r... */\n    tag_152:\n        /* \"contracts/Omnidex-incentives/incentives/MultiSigWalletWithDailyLimit.sol\":8993:8999  owners */\n      0x3\n        /* \"contracts/Omnidex-incentives/incentives/MultiSigWalletWithDailyLimit.sol\":8993:9006  owners.length */\n      dup1\n      sload\n      swap1\n      pop\n        /* \"contracts/Omnidex-incentives/incentives/MultiSigWalletWithDailyLimit.sol\":8991:8992  i */\n      dup2\n        /* \"contracts/Omnidex-incentives/incentives/MultiSigWalletWithDailyLimit.sol\":8991:9006  i<owners.length */\n      lt\n        /* \"contracts/Omnidex-incentives/incentives/MultiSigWalletWithDailyLimit.sol\":8976:9178  for (uint i=0; i<owners.length; i++) {\r... */\n      iszero\n      tag_153\n      jumpi\n        /* \"contracts/Omnidex-incentives/incentives/MultiSigWalletWithDailyLimit.sol\":9032:9045  confirmations */\n      0x1\n        /* \"contracts/Omnidex-incentives/incentives/MultiSigWalletWithDailyLimit.sol\":9032:9060  confirmations[transactionId] */\n      0x0\n        /* \"contracts/Omnidex-incentives/incentives/MultiSigWalletWithDailyLimit.sol\":9046:9059  transactionId */\n      dup6\n        /* \"contracts/Omnidex-incentives/incentives/MultiSigWalletWithDailyLimit.sol\":9032:9060  confirmations[transactionId] */\n      dup2\n      mstore\n      0x20\n      add\n      swap1\n      dup2\n      mstore\n      0x20\n      add\n      0x0\n      keccak256\n        /* \"contracts/Omnidex-incentives/incentives/MultiSigWalletWithDailyLimit.sol\":9032:9071  confirmations[transactionId][owners[i]] */\n      0x0\n        /* \"contracts/Omnidex-incentives/incentives/MultiSigWalletWithDailyLimit.sol\":9061:9067  owners */\n      0x3\n        /* \"contracts/Omnidex-incentives/incentives/MultiSigWalletWithDailyLimit.sol\":9068:9069  i */\n      dup4\n        /* \"contracts/Omnidex-incentives/incentives/MultiSigWalletWithDailyLimit.sol\":9061:9070  owners[i] */\n      dup2\n      sload\n      dup2\n      lt\n      iszero\n      iszero\n      tag_155\n      jumpi\n      invalid\n    tag_155:\n      swap1\n      0x0\n      mstore\n      keccak256(0x0, 0x20)\n      add\n      0x0\n      swap1\n      sload\n      swap1\n      0x100\n      exp\n      swap1\n      div\n      0xffffffffffffffffffffffffffffffffffffffff\n      and\n        /* \"contracts/Omnidex-incentives/incentives/MultiSigWalletWithDailyLimit.sol\":9032:9071  confirmations[transactionId][owners[i]] */\n      0xffffffffffffffffffffffffffffffffffffffff\n      and\n      0xffffffffffffffffffffffffffffffffffffffff\n      and\n      dup2\n      mstore\n      0x20\n      add\n      swap1\n      dup2\n      mstore\n      0x20\n      add\n      0x0\n      keccak256\n      0x0\n      swap1\n      sload\n      swap1\n      0x100\n      exp\n      swap1\n      div\n      0xff\n      and\n        /* \"contracts/Omnidex-incentives/incentives/MultiSigWalletWithDailyLimit.sol\":9028:9100  if (confirmations[transactionId][owners[i]])\r... */\n      iszero\n      tag_157\n      jumpi\n        /* \"contracts/Omnidex-incentives/incentives/MultiSigWalletWithDailyLimit.sol\":9099:9100  1 */\n      0x1\n        /* \"contracts/Omnidex-incentives/incentives/MultiSigWalletWithDailyLimit.sol\":9090:9100  count += 1 */\n      dup3\n      add\n      swap2\n      pop\n        /* \"contracts/Omnidex-incentives/incentives/MultiSigWalletWithDailyLimit.sol\":9028:9100  if (confirmations[transactionId][owners[i]])\r... */\n    tag_157:\n        /* \"contracts/Omnidex-incentives/incentives/MultiSigWalletWithDailyLimit.sol\":9128:9136  required */\n      sload(0x4)\n        /* \"contracts/Omnidex-incentives/incentives/MultiSigWalletWithDailyLimit.sol\":9119:9124  count */\n      dup3\n        /* \"contracts/Omnidex-incentives/incentives/MultiSigWalletWithDailyLimit.sol\":9119:9136  count == required */\n      eq\n        /* \"contracts/Omnidex-incentives/incentives/MultiSigWalletWithDailyLimit.sol\":9115:9166  if (count == required)\r... */\n      iszero\n      tag_158\n      jumpi\n        /* \"contracts/Omnidex-incentives/incentives/MultiSigWalletWithDailyLimit.sol\":9162:9166  true */\n      0x1\n        /* \"contracts/Omnidex-incentives/incentives/MultiSigWalletWithDailyLimit.sol\":9155:9166  return true */\n      swap3\n      pop\n      jump(tag_151)\n        /* \"contracts/Omnidex-incentives/incentives/MultiSigWalletWithDailyLimit.sol\":9115:9166  if (count == required)\r... */\n    tag_158:\n        /* \"contracts/Omnidex-incentives/incentives/MultiSigWalletWithDailyLimit.sol\":9008:9011  i++ */\n      dup1\n      dup1\n      0x1\n      add\n      swap2\n      pop\n      pop\n        /* \"contracts/Omnidex-incentives/incentives/MultiSigWalletWithDailyLimit.sol\":8976:9178  for (uint i=0; i<owners.length; i++) {\r... */\n      jump(tag_152)\n    tag_153:\n        /* \"contracts/Omnidex-incentives/incentives/MultiSigWalletWithDailyLimit.sol\":8836:9185  function isConfirmed(uint transactionId)\r... */\n    tag_151:\n      pop\n      pop\n      swap2\n      swap1\n      pop\n      jump\t// out\n        /* \"contracts/Omnidex-incentives/incentives/MultiSigWalletWithDailyLimit.sol\":10198:10458  function getConfirmationCount(uint transactionId)\r... */\n    tag_52:\n        /* \"contracts/Omnidex-incentives/incentives/MultiSigWalletWithDailyLimit.sol\":10300:10310  uint count */\n      0x0\n        /* \"contracts/Omnidex-incentives/incentives/MultiSigWalletWithDailyLimit.sol\":10333:10339  uint i */\n      dup1\n        /* \"contracts/Omnidex-incentives/incentives/MultiSigWalletWithDailyLimit.sol\":10340:10341  0 */\n      0x0\n        /* \"contracts/Omnidex-incentives/incentives/MultiSigWalletWithDailyLimit.sol\":10333:10341  uint i=0 */\n      swap1\n      pop\n        /* \"contracts/Omnidex-incentives/incentives/MultiSigWalletWithDailyLimit.sol\":10328:10450  for (uint i=0; i<owners.length; i++)\r... */\n    tag_160:\n        /* \"contracts/Omnidex-incentives/incentives/MultiSigWalletWithDailyLimit.sol\":10345:10351  owners */\n      0x3\n        /* \"contracts/Omnidex-incentives/incentives/MultiSigWalletWithDailyLimit.sol\":10345:10358  owners.length */\n      dup1\n      sload\n      swap1\n      pop\n        /* \"contracts/Omnidex-incentives/incentives/MultiSigWalletWithDailyLimit.sol\":10343:10344  i */\n      dup2\n        /* \"contracts/Omnidex-incentives/incentives/MultiSigWalletWithDailyLimit.sol\":10343:10358  i<owners.length */\n      lt\n        /* \"contracts/Omnidex-incentives/incentives/MultiSigWalletWithDailyLimit.sol\":10328:10450  for (uint i=0; i<owners.length; i++)\r... */\n      iszero\n      tag_161\n      jumpi\n        /* \"contracts/Omnidex-incentives/incentives/MultiSigWalletWithDailyLimit.sol\":10382:10395  confirmations */\n      0x1\n        /* \"contracts/Omnidex-incentives/incentives/MultiSigWalletWithDailyLimit.sol\":10382:10410  confirmations[transactionId] */\n      0x0\n        /* \"contracts/Omnidex-incentives/incentives/MultiSigWalletWithDailyLimit.sol\":10396:10409  transactionId */\n      dup5\n        /* \"contracts/Omnidex-incentives/incentives/MultiSigWalletWithDailyLimit.sol\":10382:10410  confirmations[transactionId] */\n      dup2\n      mstore\n      0x20\n      add\n      swap1\n      dup2\n      mstore\n      0x20\n      add\n      0x0\n      keccak256\n        /* \"contracts/Omnidex-incentives/incentives/MultiSigWalletWithDailyLimit.sol\":10382:10421  confirmations[transactionId][owners[i]] */\n      0x0\n        /* \"contracts/Omnidex-incentives/incentives/MultiSigWalletWithDailyLimit.sol\":10411:10417  owners */\n      0x3\n        /* \"contracts/Omnidex-incentives/incentives/MultiSigWalletWithDailyLimit.sol\":10418:10419  i */\n      dup4\n        /* \"contracts/Omnidex-incentives/incentives/MultiSigWalletWithDailyLimit.sol\":10411:10420  owners[i] */\n      dup2\n      sload\n      dup2\n      lt\n      iszero\n      iszero\n      tag_163\n      jumpi\n      invalid\n    tag_163:\n      swap1\n      0x0\n      mstore\n      keccak256(0x0, 0x20)\n      add\n      0x0\n      swap1\n      sload\n      swap1\n      0x100\n      exp\n      swap1\n      div\n      0xffffffffffffffffffffffffffffffffffffffff\n      and\n        /* \"contracts/Omnidex-incentives/incentives/MultiSigWalletWithDailyLimit.sol\":10382:10421  confirmations[transactionId][owners[i]] */\n      0xffffffffffffffffffffffffffffffffffffffff\n      and\n      0xffffffffffffffffffffffffffffffffffffffff\n      and\n      dup2\n      mstore\n      0x20\n      add\n      swap1\n      dup2\n      mstore\n      0x20\n      add\n      0x0\n      keccak256\n      0x0\n      swap1\n      sload\n      swap1\n      0x100\n      exp\n      swap1\n      div\n      0xff\n      and\n        /* \"contracts/Omnidex-incentives/incentives/MultiSigWalletWithDailyLimit.sol\":10378:10450  if (confirmations[transactionId][owners[i]])\r... */\n      iszero\n      tag_165\n      jumpi\n        /* \"contracts/Omnidex-incentives/incentives/MultiSigWalletWithDailyLimit.sol\":10449:10450  1 */\n      0x1\n        /* \"contracts/Omnidex-incentives/incentives/MultiSigWalletWithDailyLimit.sol\":10440:10450  count += 1 */\n      dup3\n      add\n      swap2\n      pop\n        /* \"contracts/Omnidex-incentives/incentives/MultiSigWalletWithDailyLimit.sol\":10378:10450  if (confirmations[transactionId][owners[i]])\r... */\n    tag_165:\n        /* \"contracts/Omnidex-incentives/incentives/MultiSigWalletWithDailyLimit.sol\":10360:10363  i++ */\n      dup1\n      dup1\n      0x1\n      add\n      swap2\n      pop\n      pop\n        /* \"contracts/Omnidex-incentives/incentives/MultiSigWalletWithDailyLimit.sol\":10328:10450  for (uint i=0; i<owners.length; i++)\r... */\n      jump(tag_160)\n    tag_161:\n        /* \"contracts/Omnidex-incentives/incentives/MultiSigWalletWithDailyLimit.sol\":10198:10458  function getConfirmationCount(uint transactionId)\r... */\n      pop\n      swap2\n      swap1\n      pop\n      jump\t// out\n        /* \"contracts/Omnidex-incentives/incentives/MultiSigWalletWithDailyLimit.sol\":2097:2146  mapping (uint => Transaction) public transactions */\n    tag_55:\n      mstore(0x20, 0x0)\n      dup1\n      0x0\n      mstore\n      keccak256(0x0, 0x40)\n      0x0\n      swap2\n      pop\n      swap1\n      pop\n      dup1\n      0x0\n      add\n      0x0\n      swap1\n      sload\n      swap1\n      0x100\n      exp\n      swap1\n      div\n      0xffffffffffffffffffffffffffffffffffffffff\n      and\n      swap1\n      dup1\n      0x1\n      add\n      sload\n      swap1\n      dup1\n      0x2\n      add\n      dup1\n      sload\n      0x1\n      dup2\n      0x1\n      and\n      iszero\n      0x100\n      mul\n      sub\n      and\n      0x2\n      swap1\n      div\n      dup1\n      0x1f\n      add\n      0x20\n      dup1\n      swap2\n      div\n      mul\n      0x20\n      add\n      mload(0x40)\n      swap1\n      dup2\n      add\n      0x40\n      mstore\n      dup1\n      swap3\n      swap2\n      swap1\n      dup2\n      dup2\n      mstore\n      0x20\n      add\n      dup3\n      dup1\n      sload\n      0x1\n      dup2\n      0x1\n      and\n      iszero\n      0x100\n      mul\n      sub\n      and\n      0x2\n      swap1\n      div\n      dup1\n      iszero\n      tag_166\n      jumpi\n      dup1\n      0x1f\n      lt\n      tag_167\n      jumpi\n      0x100\n      dup1\n      dup4\n      sload\n      div\n      mul\n      dup4\n      mstore\n      swap2\n      0x20\n      add\n      swap2\n      jump(tag_166)\n    tag_167:\n      dup3\n      add\n      swap2\n      swap1\n      0x0\n      mstore\n      keccak256(0x0, 0x20)\n      swap1\n    tag_168:\n      dup2\n      sload\n      dup2\n      mstore\n      swap1\n      0x1\n      add\n      swap1\n      0x20\n      add\n      dup1\n      dup4\n      gt\n      tag_168\n      jumpi\n      dup3\n      swap1\n      sub\n      0x1f\n      and\n      dup3\n      add\n      swap2\n    tag_166:\n      pop\n      pop\n      pop\n      pop\n      pop\n      swap1\n      dup1\n      0x3\n      add\n      0x0\n      swap1\n      sload\n      swap1\n      0x100\n      exp\n      swap1\n      div\n      0xff\n      and\n      swap1\n      pop\n      dup5\n      jump\t// out\n        /* \"contracts/Omnidex-incentives/incentives/MultiSigWalletWithDailyLimit.sol\":11142:11263  function getOwners()\r... */\n    tag_62:\n        /* \"contracts/Omnidex-incentives/incentives/MultiSigWalletWithDailyLimit.sol\":11215:11224  address[] */\n      0x60\n        /* \"contracts/Omnidex-incentives/incentives/MultiSigWalletWithDailyLimit.sol\":11249:11255  owners */\n      0x3\n        /* \"contracts/Omnidex-incentives/incentives/MultiSigWalletWithDailyLimit.sol\":11242:11255  return owners */\n      dup1\n      sload\n      dup1\n      0x20\n      mul\n      0x20\n      add\n      mload(0x40)\n      swap1\n      dup2\n      add\n      0x40\n      mstore\n      dup1\n      swap3\n      swap2\n      swap1\n      dup2\n      dup2\n      mstore\n      0x20\n      add\n      dup3\n      dup1\n      sload\n      dup1\n      iszero\n      tag_170\n      jumpi\n      0x20\n      mul\n      dup3\n      add\n      swap2\n      swap1\n      0x0\n      mstore\n      keccak256(0x0, 0x20)\n      swap1\n    tag_171:\n      dup2\n      0x0\n      swap1\n      sload\n      swap1\n      0x100\n      exp\n      swap1\n      div\n      0xffffffffffffffffffffffffffffffffffffffff\n      and\n      0xffffffffffffffffffffffffffffffffffffffff\n      and\n      dup2\n      mstore\n      0x20\n      add\n      swap1\n      0x1\n      add\n      swap1\n      dup1\n      dup4\n      gt\n      tag_171\n      jumpi\n    tag_170:\n      pop\n      pop\n      pop\n      pop\n      pop\n      swap1\n      pop\n        /* \"contracts/Omnidex-incentives/incentives/MultiSigWalletWithDailyLimit.sol\":11142:11263  function getOwners()\r... */\n      swap1\n      jump\t// out\n        /* \"contracts/Omnidex-incentives/incentives/MultiSigWalletWithDailyLimit.sol\":12395:13089  function getTransactionIds(uint from, uint to, bool pending, bool executed)\r... */\n    tag_68:\n        /* \"contracts/Omnidex-incentives/incentives/MultiSigWalletWithDailyLimit.sol\":12523:12545  uint[] _transactionIds */\n      0x60\n        /* \"contracts/Omnidex-incentives/incentives/MultiSigWalletWithDailyLimit.sol\":12563:12595  uint[] memory transactionIdsTemp */\n      dup1\n        /* \"contracts/Omnidex-incentives/incentives/MultiSigWalletWithDailyLimit.sol\":12637:12647  uint count */\n      0x0\n        /* \"contracts/Omnidex-incentives/incentives/MultiSigWalletWithDailyLimit.sol\":12662:12668  uint i */\n      dup1\n        /* \"contracts/Omnidex-incentives/incentives/MultiSigWalletWithDailyLimit.sol\":12609:12625  transactionCount */\n      sload(0x5)\n        /* \"contracts/Omnidex-incentives/incentives/MultiSigWalletWithDailyLimit.sol\":12598:12626  new uint[](transactionCount) */\n      mload(0x40)\n      swap1\n      dup1\n      dup3\n      mstore\n      dup1\n      0x20\n      mul\n      0x20\n      add\n      dup3\n      add\n      0x40\n      mstore\n      dup1\n      iszero\n      tag_173\n      jumpi\n      dup2\n      0x20\n      add\n        /* \"--CODEGEN--\":29:31   */\n      0x20\n        /* \"--CODEGEN--\":21:27   */\n      dup3\n        /* \"--CODEGEN--\":17:32   */\n      mul\n        /* \"--CODEGEN--\":117:121   */\n      dup1\n        /* \"--CODEGEN--\":105:115   */\n      codesize\n        /* \"--CODEGEN--\":97:103   */\n      dup4\n        /* \"--CODEGEN--\":88:122   */\n      codecopy\n        /* \"--CODEGEN--\":148:152   */\n      dup1\n        /* \"--CODEGEN--\":140:146   */\n      dup3\n        /* \"--CODEGEN--\":136:153   */\n      add\n        /* \"--CODEGEN--\":126:153   */\n      swap2\n      pop\n        /* \"--CODEGEN--\":0:157   */\n      pop\n        /* \"contracts/Omnidex-incentives/incentives/MultiSigWalletWithDailyLimit.sol\":12598:12626  new uint[](transactionCount) */\n      swap1\n      pop\n    tag_173:\n      pop\n        /* \"contracts/Omnidex-incentives/incentives/MultiSigWalletWithDailyLimit.sol\":12563:12626  uint[] memory transactionIdsTemp = new uint[](transactionCount) */\n      swap3\n      pop\n        /* \"contracts/Omnidex-incentives/incentives/MultiSigWalletWithDailyLimit.sol\":12650:12651  0 */\n      0x0\n        /* \"contracts/Omnidex-incentives/incentives/MultiSigWalletWithDailyLimit.sol\":12637:12651  uint count = 0 */\n      swap2\n      pop\n        /* \"contracts/Omnidex-incentives/incentives/MultiSigWalletWithDailyLimit.sol\":12686:12687  0 */\n      0x0\n        /* \"contracts/Omnidex-incentives/incentives/MultiSigWalletWithDailyLimit.sol\":12684:12687  i=0 */\n      swap1\n      pop\n        /* \"contracts/Omnidex-incentives/incentives/MultiSigWalletWithDailyLimit.sol\":12679:12935  for (i=0; i<transactionCount; i++)\r... */\n    tag_174:\n        /* \"contracts/Omnidex-incentives/incentives/MultiSigWalletWithDailyLimit.sol\":12691:12707  transactionCount */\n      sload(0x5)\n        /* \"contracts/Omnidex-incentives/incentives/MultiSigWalletWithDailyLimit.sol\":12689:12690  i */\n      dup2\n        /* \"contracts/Omnidex-incentives/incentives/MultiSigWalletWithDailyLimit.sol\":12689:12707  i<transactionCount */\n      lt\n        /* \"contracts/Omnidex-incentives/incentives/MultiSigWalletWithDailyLimit.sol\":12679:12935  for (i=0; i<transactionCount; i++)\r... */\n      iszero\n      tag_175\n      jumpi\n        /* \"contracts/Omnidex-incentives/incentives/MultiSigWalletWithDailyLimit.sol\":12734:12741  pending */\n      dup6\n        /* \"contracts/Omnidex-incentives/incentives/MultiSigWalletWithDailyLimit.sol\":12734:12770  pending && !transactions[i].executed */\n      dup1\n      iszero\n      tag_177\n      jumpi\n      pop\n        /* \"contracts/Omnidex-incentives/incentives/MultiSigWalletWithDailyLimit.sol\":12746:12758  transactions */\n      0x0\n        /* \"contracts/Omnidex-incentives/incentives/MultiSigWalletWithDailyLimit.sol\":12746:12761  transactions[i] */\n      dup1\n        /* \"contracts/Omnidex-incentives/incentives/MultiSigWalletWithDailyLimit.sol\":12759:12760  i */\n      dup3\n        /* \"contracts/Omnidex-incentives/incentives/MultiSigWalletWithDailyLimit.sol\":12746:12761  transactions[i] */\n      dup2\n      mstore\n      0x20\n      add\n      swap1\n      dup2\n      mstore\n      0x20\n      add\n      0x0\n      keccak256\n        /* \"contracts/Omnidex-incentives/incentives/MultiSigWalletWithDailyLimit.sol\":12746:12770  transactions[i].executed */\n      0x3\n      add\n      0x0\n      swap1\n      sload\n      swap1\n      0x100\n      exp\n      swap1\n      div\n      0xff\n      and\n        /* \"contracts/Omnidex-incentives/incentives/MultiSigWalletWithDailyLimit.sol\":12745:12770  !transactions[i].executed */\n      iszero\n        /* \"contracts/Omnidex-incentives/incentives/MultiSigWalletWithDailyLimit.sol\":12734:12770  pending && !transactions[i].executed */\n    tag_177:\n        /* \"contracts/Omnidex-incentives/incentives/MultiSigWalletWithDailyLimit.sol\":12734:12827  pending && !transactions[i].executed\r... */\n      dup1\n      tag_178\n      jumpi\n      pop\n        /* \"contracts/Omnidex-incentives/incentives/MultiSigWalletWithDailyLimit.sol\":12791:12799  executed */\n      dup5\n        /* \"contracts/Omnidex-incentives/incentives/MultiSigWalletWithDailyLimit.sol\":12791:12827  executed && transactions[i].executed */\n      dup1\n      iszero\n      tag_179\n      jumpi\n      pop\n        /* \"contracts/Omnidex-incentives/incentives/MultiSigWalletWithDailyLimit.sol\":12803:12815  transactions */\n      0x0\n        /* \"contracts/Omnidex-incentives/incentives/MultiSigWalletWithDailyLimit.sol\":12803:12818  transactions[i] */\n      dup1\n        /* \"contracts/Omnidex-incentives/incentives/MultiSigWalletWithDailyLimit.sol\":12816:12817  i */\n      dup3\n        /* \"contracts/Omnidex-incentives/incentives/MultiSigWalletWithDailyLimit.sol\":12803:12818  transactions[i] */\n      dup2\n      mstore\n      0x20\n      add\n      swap1\n      dup2\n      mstore\n      0x20\n      add\n      0x0\n      keccak256\n        /* \"contracts/Omnidex-incentives/incentives/MultiSigWalletWithDailyLimit.sol\":12803:12827  transactions[i].executed */\n      0x3\n      add\n      0x0\n      swap1\n      sload\n      swap1\n      0x100\n      exp\n      swap1\n      div\n      0xff\n      and\n        /* \"contracts/Omnidex-incentives/incentives/MultiSigWalletWithDailyLimit.sol\":12791:12827  executed && transactions[i].executed */\n    tag_179:\n        /* \"contracts/Omnidex-incentives/incentives/MultiSigWalletWithDailyLimit.sol\":12734:12827  pending && !transactions[i].executed\r... */\n    tag_178:\n        /* \"contracts/Omnidex-incentives/incentives/MultiSigWalletWithDailyLimit.sol\":12727:12935  if (   pending && !transactions[i].executed\r... */\n      iszero\n      tag_180\n      jumpi\n        /* \"contracts/Omnidex-incentives/incentives/MultiSigWalletWithDailyLimit.sol\":12889:12890  i */\n      dup1\n        /* \"contracts/Omnidex-incentives/incentives/MultiSigWalletWithDailyLimit.sol\":12861:12879  transactionIdsTemp */\n      dup4\n        /* \"contracts/Omnidex-incentives/incentives/MultiSigWalletWithDailyLimit.sol\":12880:12885  count */\n      dup4\n        /* \"contracts/Omnidex-incentives/incentives/MultiSigWalletWithDailyLimit.sol\":12861:12886  transactionIdsTemp[count] */\n      dup2\n      mload\n      dup2\n      lt\n      iszero\n      iszero\n      tag_181\n      jumpi\n      invalid\n    tag_181:\n      swap1\n      0x20\n      add\n      swap1\n      0x20\n      mul\n      add\n        /* \"contracts/Omnidex-incentives/incentives/MultiSigWalletWithDailyLimit.sol\":12861:12890  transactionIdsTemp[count] = i */\n      dup2\n      dup2\n      mstore\n      pop\n      pop\n        /* \"contracts/Omnidex-incentives/incentives/MultiSigWalletWithDailyLimit.sol\":12918:12919  1 */\n      0x1\n        /* \"contracts/Omnidex-incentives/incentives/MultiSigWalletWithDailyLimit.sol\":12909:12919  count += 1 */\n      dup3\n      add\n      swap2\n      pop\n        /* \"contracts/Omnidex-incentives/incentives/MultiSigWalletWithDailyLimit.sol\":12727:12935  if (   pending && !transactions[i].executed\r... */\n    tag_180:\n        /* \"contracts/Omnidex-incentives/incentives/MultiSigWalletWithDailyLimit.sol\":12709:12712  i++ */\n      dup1\n      dup1\n      0x1\n      add\n      swap2\n      pop\n      pop\n        /* \"contracts/Omnidex-incentives/incentives/MultiSigWalletWithDailyLimit.sol\":12679:12935  for (i=0; i<transactionCount; i++)\r... */\n      jump(tag_174)\n    tag_175:\n        /* \"contracts/Omnidex-incentives/incentives/MultiSigWalletWithDailyLimit.sol\":12979:12983  from */\n      dup8\n        /* \"contracts/Omnidex-incentives/incentives/MultiSigWalletWithDailyLimit.sol\":12974:12976  to */\n      dup8\n        /* \"contracts/Omnidex-incentives/incentives/MultiSigWalletWithDailyLimit.sol\":12974:12983  to - from */\n      sub\n        /* \"contracts/Omnidex-incentives/incentives/MultiSigWalletWithDailyLimit.sol\":12963:12984  new uint[](to - from) */\n      mload(0x40)\n      swap1\n      dup1\n      dup3\n      mstore\n      dup1\n      0x20\n      mul\n      0x20\n      add\n      dup3\n      add\n      0x40\n      mstore\n      dup1\n      iszero\n      tag_182\n      jumpi\n      dup2\n      0x20\n      add\n        /* \"--CODEGEN--\":29:31   */\n      0x20\n        /* \"--CODEGEN--\":21:27   */\n      dup3\n        /* \"--CODEGEN--\":17:32   */\n      mul\n        /* \"--CODEGEN--\":117:121   */\n      dup1\n        /* \"--CODEGEN--\":105:115   */\n      codesize\n        /* \"--CODEGEN--\":97:103   */\n      dup4\n        /* \"--CODEGEN--\":88:122   */\n      codecopy\n        /* \"--CODEGEN--\":148:152   */\n      dup1\n        /* \"--CODEGEN--\":140:146   */\n      dup3\n        /* \"--CODEGEN--\":136:153   */\n      add\n        /* \"--CODEGEN--\":126:153   */\n      swap2\n      pop\n        /* \"--CODEGEN--\":0:157   */\n      pop\n        /* \"contracts/Omnidex-incentives/incentives/MultiSigWalletWithDailyLimit.sol\":12963:12984  new uint[](to - from) */\n      swap1\n      pop\n    tag_182:\n      pop\n        /* \"contracts/Omnidex-incentives/incentives/MultiSigWalletWithDailyLimit.sol\":12945:12984  _transactionIds = new uint[](to - from) */\n      swap4\n      pop\n        /* \"contracts/Omnidex-incentives/incentives/MultiSigWalletWithDailyLimit.sol\":13002:13006  from */\n      dup8\n        /* \"contracts/Omnidex-incentives/incentives/MultiSigWalletWithDailyLimit.sol\":13000:13006  i=from */\n      swap1\n      pop\n        /* \"contracts/Omnidex-incentives/incentives/MultiSigWalletWithDailyLimit.sol\":12995:13081  for (i=from; i<to; i++)\r... */\n    tag_183:\n        /* \"contracts/Omnidex-incentives/incentives/MultiSigWalletWithDailyLimit.sol\":13010:13012  to */\n      dup7\n        /* \"contracts/Omnidex-incentives/incentives/MultiSigWalletWithDailyLimit.sol\":13008:13009  i */\n      dup2\n        /* \"contracts/Omnidex-incentives/incentives/MultiSigWalletWithDailyLimit.sol\":13008:13012  i<to */\n      lt\n        /* \"contracts/Omnidex-incentives/incentives/MultiSigWalletWithDailyLimit.sol\":12995:13081  for (i=from; i<to; i++)\r... */\n      iszero\n      tag_184\n      jumpi\n        /* \"contracts/Omnidex-incentives/incentives/MultiSigWalletWithDailyLimit.sol\":13060:13078  transactionIdsTemp */\n      dup3\n        /* \"contracts/Omnidex-incentives/incentives/MultiSigWalletWithDailyLimit.sol\":13079:13080  i */\n      dup2\n        /* \"contracts/Omnidex-incentives/incentives/MultiSigWalletWithDailyLimit.sol\":13060:13081  transactionIdsTemp[i] */\n      dup2\n      mload\n      dup2\n      lt\n      iszero\n      iszero\n      tag_186\n      jumpi\n      invalid\n    tag_186:\n      swap1\n      0x20\n      add\n      swap1\n      0x20\n      mul\n      add\n      mload\n        /* \"contracts/Omnidex-incentives/incentives/MultiSigWalletWithDailyLimit.sol\":13032:13047  _transactionIds */\n      dup5\n        /* \"contracts/Omnidex-incentives/incentives/MultiSigWalletWithDailyLimit.sol\":13052:13056  from */\n      dup10\n        /* \"contracts/Omnidex-incentives/incentives/MultiSigWalletWithDailyLimit.sol\":13048:13049  i */\n      dup4\n        /* \"contracts/Omnidex-incentives/incentives/MultiSigWalletWithDailyLimit.sol\":13048:13056  i - from */\n      sub\n        /* \"contracts/Omnidex-incentives/incentives/MultiSigWalletWithDailyLimit.sol\":13032:13057  _transactionIds[i - from] */\n      dup2\n      mload\n      dup2\n      lt\n      iszero\n      iszero\n      tag_187\n      jumpi\n      invalid\n    tag_187:\n      swap1\n      0x20\n      add\n      swap1\n      0x20\n      mul\n      add\n        /* \"contracts/Omnidex-incentives/incentives/MultiSigWalletWithDailyLimit.sol\":13032:13081  _transactionIds[i - from] = transactionIdsTemp[i] */\n      dup2\n      dup2\n      mstore\n      pop\n      pop\n        /* \"contracts/Omnidex-incentives/incentives/MultiSigWalletWithDailyLimit.sol\":13014:13017  i++ */\n      dup1\n      dup1\n      0x1\n      add\n      swap2\n      pop\n      pop\n        /* \"contracts/Omnidex-incentives/incentives/MultiSigWalletWithDailyLimit.sol\":12995:13081  for (i=from; i<to; i++)\r... */\n      jump(tag_183)\n    tag_184:\n        /* \"contracts/Omnidex-incentives/incentives/MultiSigWalletWithDailyLimit.sol\":12395:13089  function getTransactionIds(uint from, uint to, bool pending, bool executed)\r... */\n      pop\n      pop\n      pop\n      swap5\n      swap4\n      pop\n      pop\n      pop\n      pop\n      jump\t// out\n        /* \"contracts/Omnidex-incentives/incentives/MultiSigWalletWithDailyLimit.sol\":11447:12038  function getConfirmations(uint transactionId)\r... */\n    tag_74:\n        /* \"contracts/Omnidex-incentives/incentives/MultiSigWalletWithDailyLimit.sol\":11545:11569  address[] _confirmations */\n      0x60\n        /* \"contracts/Omnidex-incentives/incentives/MultiSigWalletWithDailyLimit.sol\":11587:11621  address[] memory confirmationsTemp */\n      dup1\n        /* \"contracts/Omnidex-incentives/incentives/MultiSigWalletWithDailyLimit.sol\":11663:11673  uint count */\n      0x0\n        /* \"contracts/Omnidex-incentives/incentives/MultiSigWalletWithDailyLimit.sol\":11688:11694  uint i */\n      dup1\n        /* \"contracts/Omnidex-incentives/incentives/MultiSigWalletWithDailyLimit.sol\":11638:11644  owners */\n      0x3\n        /* \"contracts/Omnidex-incentives/incentives/MultiSigWalletWithDailyLimit.sol\":11638:11651  owners.length */\n      dup1\n      sload\n      swap1\n      pop\n        /* \"contracts/Omnidex-incentives/incentives/MultiSigWalletWithDailyLimit.sol\":11624:11652  new address[](owners.length) */\n      mload(0x40)\n      swap1\n      dup1\n      dup3\n      mstore\n      dup1\n      0x20\n      mul\n      0x20\n      add\n      dup3\n      add\n      0x40\n      mstore\n      dup1\n      iszero\n      tag_189\n      jumpi\n      dup2\n      0x20\n      add\n        /* \"--CODEGEN--\":29:31   */\n      0x20\n        /* \"--CODEGEN--\":21:27   */\n      dup3\n        /* \"--CODEGEN--\":17:32   */\n      mul\n        /* \"--CODEGEN--\":117:121   */\n      dup1\n        /* \"--CODEGEN--\":105:115   */\n      codesize\n        /* \"--CODEGEN--\":97:103   */\n      dup4\n        /* \"--CODEGEN--\":88:122   */\n      codecopy\n        /* \"--CODEGEN--\":148:152   */\n      dup1\n        /* \"--CODEGEN--\":140:146   */\n      dup3\n        /* \"--CODEGEN--\":136:153   */\n      add\n        /* \"--CODEGEN--\":126:153   */\n      swap2\n      pop\n        /* \"--CODEGEN--\":0:157   */\n      pop\n        /* \"contracts/Omnidex-incentives/incentives/MultiSigWalletWithDailyLimit.sol\":11624:11652  new address[](owners.length) */\n      swap1\n      pop\n    tag_189:\n      pop\n        /* \"contracts/Omnidex-incentives/incentives/MultiSigWalletWithDailyLimit.sol\":11587:11652  address[] memory confirmationsTemp = new address[](owners.length) */\n      swap3\n      pop\n        /* \"contracts/Omnidex-incentives/incentives/MultiSigWalletWithDailyLimit.sol\":11676:11677  0 */\n      0x0\n        /* \"contracts/Omnidex-incentives/incentives/MultiSigWalletWithDailyLimit.sol\":11663:11677  uint count = 0 */\n      swap2\n      pop\n        /* \"contracts/Omnidex-incentives/incentives/MultiSigWalletWithDailyLimit.sol\":11712:11713  0 */\n      0x0\n        /* \"contracts/Omnidex-incentives/incentives/MultiSigWalletWithDailyLimit.sol\":11710:11713  i=0 */\n      swap1\n      pop\n        /* \"contracts/Omnidex-incentives/incentives/MultiSigWalletWithDailyLimit.sol\":11705:11895  for (i=0; i<owners.length; i++)\r... */\n    tag_190:\n        /* \"contracts/Omnidex-incentives/incentives/MultiSigWalletWithDailyLimit.sol\":11717:11723  owners */\n      0x3\n        /* \"contracts/Omnidex-incentives/incentives/MultiSigWalletWithDailyLimit.sol\":11717:11730  owners.length */\n      dup1\n      sload\n      swap1\n      pop\n        /* \"contracts/Omnidex-incentives/incentives/MultiSigWalletWithDailyLimit.sol\":11715:11716  i */\n      dup2\n        /* \"contracts/Omnidex-incentives/incentives/MultiSigWalletWithDailyLimit.sol\":11715:11730  i<owners.length */\n      lt\n        /* \"contracts/Omnidex-incentives/incentives/MultiSigWalletWithDailyLimit.sol\":11705:11895  for (i=0; i<owners.length; i++)\r... */\n      iszero\n      tag_191\n      jumpi\n        /* \"contracts/Omnidex-incentives/incentives/MultiSigWalletWithDailyLimit.sol\":11754:11767  confirmations */\n      0x1\n        /* \"contracts/Omnidex-incentives/incentives/MultiSigWalletWithDailyLimit.sol\":11754:11782  confirmations[transactionId] */\n      0x0\n        /* \"contracts/Omnidex-incentives/incentives/MultiSigWalletWithDailyLimit.sol\":11768:11781  transactionId */\n      dup7\n        /* \"contracts/Omnidex-incentives/incentives/MultiSigWalletWithDailyLimit.sol\":11754:11782  confirmations[transactionId] */\n      dup2\n      mstore\n      0x20\n      add\n      swap1\n      dup2\n      mstore\n      0x20\n      add\n      0x0\n      keccak256\n        /* \"contracts/Omnidex-incentives/incentives/MultiSigWalletWithDailyLimit.sol\":11754:11793  confirmations[transactionId][owners[i]] */\n      0x0\n        /* \"contracts/Omnidex-incentives/incentives/MultiSigWalletWithDailyLimit.sol\":11783:11789  owners */\n      0x3\n        /* \"contracts/Omnidex-incentives/incentives/MultiSigWalletWithDailyLimit.sol\":11790:11791  i */\n      dup4\n        /* \"contracts/Omnidex-incentives/incentives/MultiSigWalletWithDailyLimit.sol\":11783:11792  owners[i] */\n      dup2\n      sload\n      dup2\n      lt\n      iszero\n      iszero\n      tag_193\n      jumpi\n      invalid\n    tag_193:\n      swap1\n      0x0\n      mstore\n      keccak256(0x0, 0x20)\n      add\n      0x0\n      swap1\n      sload\n      swap1\n      0x100\n      exp\n      swap1\n      div\n      0xffffffffffffffffffffffffffffffffffffffff\n      and\n        /* \"contracts/Omnidex-incentives/incentives/MultiSigWalletWithDailyLimit.sol\":11754:11793  confirmations[transactionId][owners[i]] */\n      0xffffffffffffffffffffffffffffffffffffffff\n      and\n      0xffffffffffffffffffffffffffffffffffffffff\n      and\n      dup2\n      mstore\n      0x20\n      add\n      swap1\n      dup2\n      mstore\n      0x20\n      add\n      0x0\n      keccak256\n      0x0\n      swap1\n      sload\n      swap1\n      0x100\n      exp\n      swap1\n      div\n      0xff\n      and\n        /* \"contracts/Omnidex-incentives/incentives/MultiSigWalletWithDailyLimit.sol\":11750:11895  if (confirmations[transactionId][owners[i]]) {\r... */\n      iszero\n      tag_195\n      jumpi\n        /* \"contracts/Omnidex-incentives/incentives/MultiSigWalletWithDailyLimit.sol\":11841:11847  owners */\n      0x3\n        /* \"contracts/Omnidex-incentives/incentives/MultiSigWalletWithDailyLimit.sol\":11848:11849  i */\n      dup2\n        /* \"contracts/Omnidex-incentives/incentives/MultiSigWalletWithDailyLimit.sol\":11841:11850  owners[i] */\n      dup2\n      sload\n      dup2\n      lt\n      iszero\n      iszero\n      tag_196\n      jumpi\n      invalid\n    tag_196:\n      swap1\n      0x0\n      mstore\n      keccak256(0x0, 0x20)\n      add\n      0x0\n      swap1\n      sload\n      swap1\n      0x100\n      exp\n      swap1\n      div\n      0xffffffffffffffffffffffffffffffffffffffff\n      and\n        /* \"contracts/Omnidex-incentives/incentives/MultiSigWalletWithDailyLimit.sol\":11814:11831  confirmationsTemp */\n      dup4\n        /* \"contracts/Omnidex-incentives/incentives/MultiSigWalletWithDailyLimit.sol\":11832:11837  count */\n      dup4\n        /* \"contracts/Omnidex-incentives/incentives/MultiSigWalletWithDailyLimit.sol\":11814:11838  confirmationsTemp[count] */\n      dup2\n      mload\n      dup2\n      lt\n      iszero\n      iszero\n      tag_198\n      jumpi\n      invalid\n    tag_198:\n      swap1\n      0x20\n      add\n      swap1\n      0x20\n      mul\n      add\n        /* \"contracts/Omnidex-incentives/incentives/MultiSigWalletWithDailyLimit.sol\":11814:11850  confirmationsTemp[count] = owners[i] */\n      swap1\n      0xffffffffffffffffffffffffffffffffffffffff\n      and\n      swap1\n      dup2\n      0xffffffffffffffffffffffffffffffffffffffff\n      and\n      dup2\n      mstore\n      pop\n      pop\n        /* \"contracts/Omnidex-incentives/incentives/MultiSigWalletWithDailyLimit.sol\":11878:11879  1 */\n      0x1\n        /* \"contracts/Omnidex-incentives/incentives/MultiSigWalletWithDailyLimit.sol\":11869:11879  count += 1 */\n      dup3\n      add\n      swap2\n      pop\n        /* \"contracts/Omnidex-incentives/incentives/MultiSigWalletWithDailyLimit.sol\":11750:11895  if (confirmations[transactionId][owners[i]]) {\r... */\n    tag_195:\n        /* \"contracts/Omnidex-incentives/incentives/MultiSigWalletWithDailyLimit.sol\":11732:11735  i++ */\n      dup1\n      dup1\n      0x1\n      add\n      swap2\n      pop\n      pop\n        /* \"contracts/Omnidex-incentives/incentives/MultiSigWalletWithDailyLimit.sol\":11705:11895  for (i=0; i<owners.length; i++)\r... */\n      jump(tag_190)\n    tag_191:\n        /* \"contracts/Omnidex-incentives/incentives/MultiSigWalletWithDailyLimit.sol\":11936:11941  count */\n      dup2\n        /* \"contracts/Omnidex-incentives/incentives/MultiSigWalletWithDailyLimit.sol\":11922:11942  new address[](count) */\n      mload(0x40)\n      swap1\n      dup1\n      dup3\n      mstore\n      dup1\n      0x20\n      mul\n      0x20\n      add\n      dup3\n      add\n      0x40\n      mstore\n      dup1\n      iszero\n      tag_199\n      jumpi\n      dup2\n      0x20\n      add\n        /* \"--CODEGEN--\":29:31   */\n      0x20\n        /* \"--CODEGEN--\":21:27   */\n      dup3\n        /* \"--CODEGEN--\":17:32   */\n      mul\n        /* \"--CODEGEN--\":117:121   */\n      dup1\n        /* \"--CODEGEN--\":105:115   */\n      codesize\n        /* \"--CODEGEN--\":97:103   */\n      dup4\n        /* \"--CODEGEN--\":88:122   */\n      codecopy\n        /* \"--CODEGEN--\":148:152   */\n      dup1\n        /* \"--CODEGEN--\":140:146   */\n      dup3\n        /* \"--CODEGEN--\":136:153   */\n      add\n        /* \"--CODEGEN--\":126:153   */\n      swap2\n      pop\n        /* \"--CODEGEN--\":0:157   */\n      pop\n        /* \"contracts/Omnidex-incentives/incentives/MultiSigWalletWithDailyLimit.sol\":11922:11942  new address[](count) */\n      swap1\n      pop\n    tag_199:\n      pop\n        /* \"contracts/Omnidex-incentives/incentives/MultiSigWalletWithDailyLimit.sol\":11905:11942  _confirmations = new address[](count) */\n      swap4\n      pop\n        /* \"contracts/Omnidex-incentives/incentives/MultiSigWalletWithDailyLimit.sol\":11960:11961  0 */\n      0x0\n        /* \"contracts/Omnidex-incentives/incentives/MultiSigWalletWithDailyLimit.sol\":11958:11961  i=0 */\n      swap1\n      pop\n        /* \"contracts/Omnidex-incentives/incentives/MultiSigWalletWithDailyLimit.sol\":11953:12030  for (i=0; i<count; i++)\r... */\n    tag_200:\n        /* \"contracts/Omnidex-incentives/incentives/MultiSigWalletWithDailyLimit.sol\":11965:11970  count */\n      dup2\n        /* \"contracts/Omnidex-incentives/incentives/MultiSigWalletWithDailyLimit.sol\":11963:11964  i */\n      dup2\n        /* \"contracts/Omnidex-incentives/incentives/MultiSigWalletWithDailyLimit.sol\":11963:11970  i<count */\n      lt\n        /* \"contracts/Omnidex-incentives/incentives/MultiSigWalletWithDailyLimit.sol\":11953:12030  for (i=0; i<count; i++)\r... */\n      iszero\n      tag_201\n      jumpi\n        /* \"contracts/Omnidex-incentives/incentives/MultiSigWalletWithDailyLimit.sol\":12010:12027  confirmationsTemp */\n      dup3\n        /* \"contracts/Omnidex-incentives/incentives/MultiSigWalletWithDailyLimit.sol\":12028:12029  i */\n      dup2\n        /* \"contracts/Omnidex-incentives/incentives/MultiSigWalletWithDailyLimit.sol\":12010:12030  confirmationsTemp[i] */\n      dup2\n      mload\n      dup2\n      lt\n      iszero\n      iszero\n      tag_203\n      jumpi\n      invalid\n    tag_203:\n      swap1\n      0x20\n      add\n      swap1\n      0x20\n      mul\n      add\n      mload\n        /* \"contracts/Omnidex-incentives/incentives/MultiSigWalletWithDailyLimit.sol\":11990:12004  _confirmations */\n      dup5\n        /* \"contracts/Omnidex-incentives/incentives/MultiSigWalletWithDailyLimit.sol\":12005:12006  i */\n      dup3\n        /* \"contracts/Omnidex-incentives/incentives/MultiSigWalletWithDailyLimit.sol\":11990:12007  _confirmations[i] */\n      dup2\n      mload\n      dup2\n      lt\n      iszero\n      iszero\n      tag_204\n      jumpi\n      invalid\n    tag_204:\n      swap1\n      0x20\n      add\n      swap1\n      0x20\n      mul\n      add\n        /* \"contracts/Omnidex-incentives/incentives/MultiSigWalletWithDailyLimit.sol\":11990:12030  _confirmations[i] = confirmationsTemp[i] */\n      swap1\n      0xffffffffffffffffffffffffffffffffffffffff\n      and\n      swap1\n      dup2\n      0xffffffffffffffffffffffffffffffffffffffff\n      and\n      dup2\n      mstore\n      pop\n      pop\n        /* \"contracts/Omnidex-incentives/incentives/MultiSigWalletWithDailyLimit.sol\":11972:11975  i++ */\n      dup1\n      dup1\n      0x1\n      add\n      swap2\n      pop\n      pop\n        /* \"contracts/Omnidex-incentives/incentives/MultiSigWalletWithDailyLimit.sol\":11953:12030  for (i=0; i<count; i++)\r... */\n      jump(tag_200)\n    tag_201:\n        /* \"contracts/Omnidex-incentives/incentives/MultiSigWalletWithDailyLimit.sol\":11447:12038  function getConfirmations(uint transactionId)\r... */\n      pop\n      pop\n      pop\n      swap2\n      swap1\n      pop\n      jump\t// out\n        /* \"contracts/Omnidex-incentives/incentives/MultiSigWalletWithDailyLimit.sol\":2328:2356  uint public transactionCount */\n    tag_80:\n      sload(0x5)\n      dup2\n      jump\t// out\n        /* \"contracts/Omnidex-incentives/incentives/MultiSigWalletWithDailyLimit.sol\":6361:6575  function changeRequirement(uint _required)\r... */\n    tag_83:\n        /* \"contracts/Omnidex-incentives/incentives/MultiSigWalletWithDailyLimit.sol\":2595:2599  this */\n      address\n        /* \"contracts/Omnidex-incentives/incentives/MultiSigWalletWithDailyLimit.sol\":2573:2600  msg.sender == address(this) */\n      0xffffffffffffffffffffffffffffffffffffffff\n      and\n        /* \"contracts/Omnidex-incentives/incentives/MultiSigWalletWithDailyLimit.sol\":2573:2583  msg.sender */\n      caller\n        /* \"contracts/Omnidex-incentives/incentives/MultiSigWalletWithDailyLimit.sol\":2573:2600  msg.sender == address(this) */\n      0xffffffffffffffffffffffffffffffffffffffff\n      and\n      eq\n        /* \"contracts/Omnidex-incentives/incentives/MultiSigWalletWithDailyLimit.sol\":2565:2601  require(msg.sender == address(this)) */\n      iszero\n      iszero\n      tag_206\n      jumpi\n      0x0\n      dup1\n      revert\n    tag_206:\n        /* \"contracts/Omnidex-incentives/incentives/MultiSigWalletWithDailyLimit.sol\":6466:6472  owners */\n      0x3\n        /* \"contracts/Omnidex-incentives/incentives/MultiSigWalletWithDailyLimit.sol\":6466:6479  owners.length */\n      dup1\n      sload\n      swap1\n      pop\n        /* \"contracts/Omnidex-incentives/incentives/MultiSigWalletWithDailyLimit.sol\":6481:6490  _required */\n      dup2\n        /* \"contracts/Omnidex-incentives/incentives/MultiSigWalletWithDailyLimit.sol\":2052:2054  50 */\n      0x32\n        /* \"contracts/Omnidex-incentives/incentives/MultiSigWalletWithDailyLimit.sol\":3549:3559  ownerCount */\n      dup3\n        /* \"contracts/Omnidex-incentives/incentives/MultiSigWalletWithDailyLimit.sol\":3549:3578  ownerCount <= MAX_OWNER_COUNT */\n      gt\n      iszero\n        /* \"contracts/Omnidex-incentives/incentives/MultiSigWalletWithDailyLimit.sol\":3549:3618  ownerCount <= MAX_OWNER_COUNT\r... */\n      dup1\n      iszero\n      tag_208\n      jumpi\n      pop\n        /* \"contracts/Omnidex-incentives/incentives/MultiSigWalletWithDailyLimit.sol\":3608:3618  ownerCount */\n      dup2\n        /* \"contracts/Omnidex-incentives/incentives/MultiSigWalletWithDailyLimit.sol\":3595:3604  _required */\n      dup2\n        /* \"contracts/Omnidex-incentives/incentives/MultiSigWalletWithDailyLimit.sol\":3595:3618  _required <= ownerCount */\n      gt\n      iszero\n        /* \"contracts/Omnidex-incentives/incentives/MultiSigWalletWithDailyLimit.sol\":3549:3618  ownerCount <= MAX_OWNER_COUNT\r... */\n    tag_208:\n        /* \"contracts/Omnidex-incentives/incentives/MultiSigWalletWithDailyLimit.sol\":3549:3649  ownerCount <= MAX_OWNER_COUNT\r... */\n      dup1\n      iszero\n      tag_209\n      jumpi\n      pop\n        /* \"contracts/Omnidex-incentives/incentives/MultiSigWalletWithDailyLimit.sol\":3648:3649  0 */\n      0x0\n        /* \"contracts/Omnidex-incentives/incentives/MultiSigWalletWithDailyLimit.sol\":3635:3644  _required */\n      dup2\n        /* \"contracts/Omnidex-incentives/incentives/MultiSigWalletWithDailyLimit.sol\":3635:3649  _required != 0 */\n      eq\n      iszero\n        /* \"contracts/Omnidex-incentives/incentives/MultiSigWalletWithDailyLimit.sol\":3549:3649  ownerCount <= MAX_OWNER_COUNT\r... */\n    tag_209:\n        /* \"contracts/Omnidex-incentives/incentives/MultiSigWalletWithDailyLimit.sol\":3549:3681  ownerCount <= MAX_OWNER_COUNT\r... */\n      dup1\n      iszero\n      tag_210\n      jumpi\n      pop\n        /* \"contracts/Omnidex-incentives/incentives/MultiSigWalletWithDailyLimit.sol\":3680:3681  0 */\n      0x0\n        /* \"contracts/Omnidex-incentives/incentives/MultiSigWalletWithDailyLimit.sol\":3666:3676  ownerCount */\n      dup3\n        /* \"contracts/Omnidex-incentives/incentives/MultiSigWalletWithDailyLimit.sol\":3666:3681  ownerCount != 0 */\n      eq\n      iszero\n        /* \"contracts/Omnidex-incentives/incentives/MultiSigWalletWithDailyLimit.sol\":3549:3681  ownerCount <= MAX_OWNER_COUNT\r... */\n    tag_210:\n        /* \"contracts/Omnidex-incentives/incentives/MultiSigWalletWithDailyLimit.sol\":3541:3682  require(ownerCount <= MAX_OWNER_COUNT\r... */\n      iszero\n      iszero\n      tag_211\n      jumpi\n      0x0\n      dup1\n      revert\n    tag_211:\n        /* \"contracts/Omnidex-incentives/incentives/MultiSigWalletWithDailyLimit.sol\":6519:6528  _required */\n      dup3\n        /* \"contracts/Omnidex-incentives/incentives/MultiSigWalletWithDailyLimit.sol\":6508:6516  required */\n      0x4\n        /* \"contracts/Omnidex-incentives/incentives/MultiSigWalletWithDailyLimit.sol\":6508:6528  required = _required */\n      dup2\n      swap1\n      sstore\n      pop\n        /* \"contracts/Omnidex-incentives/incentives/MultiSigWalletWithDailyLimit.sol\":6539:6567  RequirementChange(_required) */\n      0xa3f1ee9126a074d9326c682f561767f710e927faa811f7a99829d49dc421797a\n        /* \"contracts/Omnidex-incentives/incentives/MultiSigWalletWithDailyLimit.sol\":6557:6566  _required */\n      dup4\n        /* \"contracts/Omnidex-incentives/incentives/MultiSigWalletWithDailyLimit.sol\":6539:6567  RequirementChange(_required) */\n      mload(0x40)\n      dup1\n      dup3\n      dup2\n      mstore\n      0x20\n      add\n      swap2\n      pop\n      pop\n      mload(0x40)\n      dup1\n      swap2\n      sub\n      swap1\n      log1\n        /* \"contracts/Omnidex-incentives/incentives/MultiSigWalletWithDailyLimit.sol\":2612:2613  _ */\n      pop\n      pop\n        /* \"contracts/Omnidex-incentives/incentives/MultiSigWalletWithDailyLimit.sol\":6361:6575  function changeRequirement(uint _required)\r... */\n      pop\n      jump\t// out\n        /* \"contracts/Omnidex-incentives/incentives/MultiSigWalletWithDailyLimit.sol\":7201:7554  function confirmTransaction(uint transactionId)\r... */\n    tag_86:\n        /* \"contracts/Omnidex-incentives/incentives/MultiSigWalletWithDailyLimit.sol\":7286:7296  msg.sender */\n      caller\n        /* \"contracts/Omnidex-incentives/incentives/MultiSigWalletWithDailyLimit.sol\":2789:2796  isOwner */\n      0x2\n        /* \"contracts/Omnidex-incentives/incentives/MultiSigWalletWithDailyLimit.sol\":2789:2803  isOwner[owner] */\n      0x0\n        /* \"contracts/Omnidex-incentives/incentives/MultiSigWalletWithDailyLimit.sol\":2797:2802  owner */\n      dup3\n        /* \"contracts/Omnidex-incentives/incentives/MultiSigWalletWithDailyLimit.sol\":2789:2803  isOwner[owner] */\n      0xffffffffffffffffffffffffffffffffffffffff\n      and\n      0xffffffffffffffffffffffffffffffffffffffff\n      and\n      dup2\n      mstore\n      0x20\n      add\n      swap1\n      dup2\n      mstore\n      0x20\n      add\n      0x0\n      keccak256\n      0x0\n      swap1\n      sload\n      swap1\n      0x100\n      exp\n      swap1\n      div\n      0xff\n      and\n        /* \"contracts/Omnidex-incentives/incentives/MultiSigWalletWithDailyLimit.sol\":2781:2804  require(isOwner[owner]) */\n      iszero\n      iszero\n      tag_214\n      jumpi\n      0x0\n      dup1\n      revert\n    tag_214:\n        /* \"contracts/Omnidex-incentives/incentives/MultiSigWalletWithDailyLimit.sol\":7325:7338  transactionId */\n      dup2\n        /* \"contracts/Omnidex-incentives/incentives/MultiSigWalletWithDailyLimit.sol\":2941:2942  0 */\n      0x0\n        /* \"contracts/Omnidex-incentives/incentives/MultiSigWalletWithDailyLimit.sol\":2898:2910  transactions */\n      dup1\n        /* \"contracts/Omnidex-incentives/incentives/MultiSigWalletWithDailyLimit.sol\":2898:2925  transactions[transactionId] */\n      0x0\n        /* \"contracts/Omnidex-incentives/incentives/MultiSigWalletWithDailyLimit.sol\":2911:2924  transactionId */\n      dup4\n        /* \"contracts/Omnidex-incentives/incentives/MultiSigWalletWithDailyLimit.sol\":2898:2925  transactions[transactionId] */\n      dup2\n      mstore\n      0x20\n      add\n      swap1\n      dup2\n      mstore\n      0x20\n      add\n      0x0\n      keccak256\n        /* \"contracts/Omnidex-incentives/incentives/MultiSigWalletWithDailyLimit.sol\":2898:2937  transactions[transactionId].destination */\n      0x0\n      add\n      0x0\n      swap1\n      sload\n      swap1\n      0x100\n      exp\n      swap1\n      div\n      0xffffffffffffffffffffffffffffffffffffffff\n      and\n        /* \"contracts/Omnidex-incentives/incentives/MultiSigWalletWithDailyLimit.sol\":2898:2942  transactions[transactionId].destination != 0 */\n      0xffffffffffffffffffffffffffffffffffffffff\n      and\n      eq\n      iszero\n        /* \"contracts/Omnidex-incentives/incentives/MultiSigWalletWithDailyLimit.sol\":2890:2943  require(transactions[transactionId].destination != 0) */\n      iszero\n      iszero\n      tag_216\n      jumpi\n      0x0\n      dup1\n      revert\n    tag_216:\n        /* \"contracts/Omnidex-incentives/incentives/MultiSigWalletWithDailyLimit.sol\":7362:7375  transactionId */\n      dup3\n        /* \"contracts/Omnidex-incentives/incentives/MultiSigWalletWithDailyLimit.sol\":7377:7387  msg.sender */\n      caller\n        /* \"contracts/Omnidex-incentives/incentives/MultiSigWalletWithDailyLimit.sol\":3185:3198  confirmations */\n      0x1\n        /* \"contracts/Omnidex-incentives/incentives/MultiSigWalletWithDailyLimit.sol\":3185:3213  confirmations[transactionId] */\n      0x0\n        /* \"contracts/Omnidex-incentives/incentives/MultiSigWalletWithDailyLimit.sol\":3199:3212  transactionId */\n      dup4\n        /* \"contracts/Omnidex-incentives/incentives/MultiSigWalletWithDailyLimit.sol\":3185:3213  confirmations[transactionId] */\n      dup2\n      mstore\n      0x20\n      add\n      swap1\n      dup2\n      mstore\n      0x20\n      add\n      0x0\n      keccak256\n        /* \"contracts/Omnidex-incentives/incentives/MultiSigWalletWithDailyLimit.sol\":3185:3220  confirmations[transactionId][owner] */\n      0x0\n        /* \"contracts/Omnidex-incentives/incentives/MultiSigWalletWithDailyLimit.sol\":3214:3219  owner */\n      dup3\n        /* \"contracts/Omnidex-incentives/incentives/MultiSigWalletWithDailyLimit.sol\":3185:3220  confirmations[transactionId][owner] */\n      0xffffffffffffffffffffffffffffffffffffffff\n      and\n      0xffffffffffffffffffffffffffffffffffffffff\n      and\n      dup2\n      mstore\n      0x20\n      add\n      swap1\n      dup2\n      mstore\n      0x20\n      add\n      0x0\n      keccak256\n      0x0\n      swap1\n      sload\n      swap1\n      0x100\n      exp\n      swap1\n      div\n      0xff\n      and\n        /* \"contracts/Omnidex-incentives/incentives/MultiSigWalletWithDailyLimit.sol\":3184:3220  !confirmations[transactionId][owner] */\n      iszero\n        /* \"contracts/Omnidex-incentives/incentives/MultiSigWalletWithDailyLimit.sol\":3176:3221  require(!confirmations[transactionId][owner]) */\n      iszero\n      iszero\n      tag_218\n      jumpi\n      0x0\n      dup1\n      revert\n    tag_218:\n        /* \"contracts/Omnidex-incentives/incentives/MultiSigWalletWithDailyLimit.sol\":7448:7452  true */\n      0x1\n        /* \"contracts/Omnidex-incentives/incentives/MultiSigWalletWithDailyLimit.sol\":7405:7418  confirmations */\n      dup1\n        /* \"contracts/Omnidex-incentives/incentives/MultiSigWalletWithDailyLimit.sol\":7405:7433  confirmations[transactionId] */\n      0x0\n        /* \"contracts/Omnidex-incentives/incentives/MultiSigWalletWithDailyLimit.sol\":7419:7432  transactionId */\n      dup8\n        /* \"contracts/Omnidex-incentives/incentives/MultiSigWalletWithDailyLimit.sol\":7405:7433  confirmations[transactionId] */\n      dup2\n      mstore\n      0x20\n      add\n      swap1\n      dup2\n      mstore\n      0x20\n      add\n      0x0\n      keccak256\n        /* \"contracts/Omnidex-incentives/incentives/MultiSigWalletWithDailyLimit.sol\":7405:7445  confirmations[transactionId][msg.sender] */\n      0x0\n        /* \"contracts/Omnidex-incentives/incentives/MultiSigWalletWithDailyLimit.sol\":7434:7444  msg.sender */\n      caller\n        /* \"contracts/Omnidex-incentives/incentives/MultiSigWalletWithDailyLimit.sol\":7405:7445  confirmations[transactionId][msg.sender] */\n      0xffffffffffffffffffffffffffffffffffffffff\n      and\n      0xffffffffffffffffffffffffffffffffffffffff\n      and\n      dup2\n      mstore\n      0x20\n      add\n      swap1\n      dup2\n      mstore\n      0x20\n      add\n      0x0\n      keccak256\n      0x0\n        /* \"contracts/Omnidex-incentives/incentives/MultiSigWalletWithDailyLimit.sol\":7405:7452  confirmations[transactionId][msg.sender] = true */\n      0x100\n      exp\n      dup2\n      sload\n      dup2\n      0xff\n      mul\n      not\n      and\n      swap1\n      dup4\n      iszero\n      iszero\n      mul\n      or\n      swap1\n      sstore\n      pop\n        /* \"contracts/Omnidex-incentives/incentives/MultiSigWalletWithDailyLimit.sol\":7488:7501  transactionId */\n      dup5\n        /* \"contracts/Omnidex-incentives/incentives/MultiSigWalletWithDailyLimit.sol\":7476:7486  msg.sender */\n      caller\n        /* \"contracts/Omnidex-incentives/incentives/MultiSigWalletWithDailyLimit.sol\":7463:7502  Confirmation(msg.sender, transactionId) */\n      0xffffffffffffffffffffffffffffffffffffffff\n      and\n      0x4a504a94899432a9846e1aa406dceb1bcfd538bb839071d49d1e5e23f5be30ef\n      mload(0x40)\n      mload(0x40)\n      dup1\n      swap2\n      sub\n      swap1\n      log3\n        /* \"contracts/Omnidex-incentives/incentives/MultiSigWalletWithDailyLimit.sol\":7513:7546  executeTransaction(transactionId) */\n      tag_220\n        /* \"contracts/Omnidex-incentives/incentives/MultiSigWalletWithDailyLimit.sol\":7532:7545  transactionId */\n      dup6\n        /* \"contracts/Omnidex-incentives/incentives/MultiSigWalletWithDailyLimit.sol\":7513:7531  executeTransaction */\n      tag_101\n        /* \"contracts/Omnidex-incentives/incentives/MultiSigWalletWithDailyLimit.sol\":7513:7546  executeTransaction(transactionId) */\n      jump\t// in\n    tag_220:\n        /* \"contracts/Omnidex-incentives/incentives/MultiSigWalletWithDailyLimit.sol\":2954:2955  _ */\n      pop\n      pop\n        /* \"contracts/Omnidex-incentives/incentives/MultiSigWalletWithDailyLimit.sol\":2815:2816  _ */\n      pop\n        /* \"contracts/Omnidex-incentives/incentives/MultiSigWalletWithDailyLimit.sol\":7201:7554  function confirmTransaction(uint transactionId)\r... */\n      pop\n      pop\n      jump\t// out\n        /* \"contracts/Omnidex-incentives/incentives/MultiSigWalletWithDailyLimit.sol\":6841:7091  function submitTransaction(address destination, uint value, bytes data)\r... */\n    tag_89:\n        /* \"contracts/Omnidex-incentives/incentives/MultiSigWalletWithDailyLimit.sol\":6947:6965  uint transactionId */\n      0x0\n        /* \"contracts/Omnidex-incentives/incentives/MultiSigWalletWithDailyLimit.sol\":6999:7039  addTransaction(destination, value, data) */\n      tag_222\n        /* \"contracts/Omnidex-incentives/incentives/MultiSigWalletWithDailyLimit.sol\":7014:7025  destination */\n      dup5\n        /* \"contracts/Omnidex-incentives/incentives/MultiSigWalletWithDailyLimit.sol\":7027:7032  value */\n      dup5\n        /* \"contracts/Omnidex-incentives/incentives/MultiSigWalletWithDailyLimit.sol\":7034:7038  data */\n      dup5\n        /* \"contracts/Omnidex-incentives/incentives/MultiSigWalletWithDailyLimit.sol\":6999:7013  addTransaction */\n      tag_223\n        /* \"contracts/Omnidex-incentives/incentives/MultiSigWalletWithDailyLimit.sol\":6999:7039  addTransaction(destination, value, data) */\n      jump\t// in\n    tag_222:\n        /* \"contracts/Omnidex-incentives/incentives/MultiSigWalletWithDailyLimit.sol\":6983:7039  transactionId = addTransaction(destination, value, data) */\n      swap1\n      pop\n        /* \"contracts/Omnidex-incentives/incentives/MultiSigWalletWithDailyLimit.sol\":7050:7083  confirmTransaction(transactionId) */\n      tag_224\n        /* \"contracts/Omnidex-incentives/incentives/MultiSigWalletWithDailyLimit.sol\":7069:7082  transactionId */\n      dup2\n        /* \"contracts/Omnidex-incentives/incentives/MultiSigWalletWithDailyLimit.sol\":7050:7068  confirmTransaction */\n      tag_86\n        /* \"contracts/Omnidex-incentives/incentives/MultiSigWalletWithDailyLimit.sol\":7050:7083  confirmTransaction(transactionId) */\n      jump\t// in\n    tag_224:\n        /* \"contracts/Omnidex-incentives/incentives/MultiSigWalletWithDailyLimit.sol\":6841:7091  function submitTransaction(address destination, uint value, bytes data)\r... */\n      swap4\n      swap3\n      pop\n      pop\n      pop\n      jump\t// out\n        /* \"contracts/Omnidex-incentives/incentives/MultiSigWalletWithDailyLimit.sol\":2013:2054  uint constant public MAX_OWNER_COUNT = 50 */\n    tag_92:\n        /* \"contracts/Omnidex-incentives/incentives/MultiSigWalletWithDailyLimit.sol\":2052:2054  50 */\n      0x32\n        /* \"contracts/Omnidex-incentives/incentives/MultiSigWalletWithDailyLimit.sol\":2013:2054  uint constant public MAX_OWNER_COUNT = 50 */\n      dup2\n      jump\t// out\n        /* \"contracts/Omnidex-incentives/incentives/MultiSigWalletWithDailyLimit.sol\":2301:2321  uint public required */\n    tag_95:\n      sload(0x4)\n      dup2\n      jump\t// out\n        /* \"contracts/Omnidex-incentives/incentives/MultiSigWalletWithDailyLimit.sol\":5722:6186  function replaceOwner(address owner, address newOwner)\r... */\n    tag_98:\n        /* \"contracts/Omnidex-incentives/incentives/MultiSigWalletWithDailyLimit.sol\":5899:5905  uint i */\n      0x0\n        /* \"contracts/Omnidex-incentives/incentives/MultiSigWalletWithDailyLimit.sol\":2595:2599  this */\n      address\n        /* \"contracts/Omnidex-incentives/incentives/MultiSigWalletWithDailyLimit.sol\":2573:2600  msg.sender == address(this) */\n      0xffffffffffffffffffffffffffffffffffffffff\n      and\n        /* \"contracts/Omnidex-incentives/incentives/MultiSigWalletWithDailyLimit.sol\":2573:2583  msg.sender */\n      caller\n        /* \"contracts/Omnidex-incentives/incentives/MultiSigWalletWithDailyLimit.sol\":2573:2600  msg.sender == address(this) */\n      0xffffffffffffffffffffffffffffffffffffffff\n      and\n      eq\n        /* \"contracts/Omnidex-incentives/incentives/MultiSigWalletWithDailyLimit.sol\":2565:2601  require(msg.sender == address(this)) */\n      iszero\n      iszero\n      tag_226\n      jumpi\n      0x0\n      dup1\n      revert\n    tag_226:\n        /* \"contracts/Omnidex-incentives/incentives/MultiSigWalletWithDailyLimit.sol\":5834:5839  owner */\n      dup3\n        /* \"contracts/Omnidex-incentives/incentives/MultiSigWalletWithDailyLimit.sol\":2789:2796  isOwner */\n      0x2\n        /* \"contracts/Omnidex-incentives/incentives/MultiSigWalletWithDailyLimit.sol\":2789:2803  isOwner[owner] */\n      0x0\n        /* \"contracts/Omnidex-incentives/incentives/MultiSigWalletWithDailyLimit.sol\":2797:2802  owner */\n      dup3\n        /* \"contracts/Omnidex-incentives/incentives/MultiSigWalletWithDailyLimit.sol\":2789:2803  isOwner[owner] */\n      0xffffffffffffffffffffffffffffffffffffffff\n      and\n      0xffffffffffffffffffffffffffffffffffffffff\n      and\n      dup2\n      mstore\n      0x20\n      add\n      swap1\n      dup2\n      mstore\n      0x20\n      add\n      0x0\n      keccak256\n      0x0\n      swap1\n      sload\n      swap1\n      0x100\n      exp\n      swap1\n      div\n      0xff\n      and\n        /* \"contracts/Omnidex-incentives/incentives/MultiSigWalletWithDailyLimit.sol\":2781:2804  require(isOwner[owner]) */\n      iszero\n      iszero\n      tag_228\n      jumpi\n      0x0\n      dup1\n      revert\n    tag_228:\n        /* \"contracts/Omnidex-incentives/incentives/MultiSigWalletWithDailyLimit.sol\":5868:5876  newOwner */\n      dup3\n        /* \"contracts/Omnidex-incentives/incentives/MultiSigWalletWithDailyLimit.sol\":2691:2698  isOwner */\n      0x2\n        /* \"contracts/Omnidex-incentives/incentives/MultiSigWalletWithDailyLimit.sol\":2691:2705  isOwner[owner] */\n      0x0\n        /* \"contracts/Omnidex-incentives/incentives/MultiSigWalletWithDailyLimit.sol\":2699:2704  owner */\n      dup3\n        /* \"contracts/Omnidex-incentives/incentives/MultiSigWalletWithDailyLimit.sol\":2691:2705  isOwner[owner] */\n      0xffffffffffffffffffffffffffffffffffffffff\n      and\n      0xffffffffffffffffffffffffffffffffffffffff\n      and\n      dup2\n      mstore\n      0x20\n      add\n      swap1\n      dup2\n      mstore\n      0x20\n      add\n      0x0\n      keccak256\n      0x0\n      swap1\n      sload\n      swap1\n      0x100\n      exp\n      swap1\n      div\n      0xff\n      and\n        /* \"contracts/Omnidex-incentives/incentives/MultiSigWalletWithDailyLimit.sol\":2690:2705  !isOwner[owner] */\n      iszero\n        /* \"contracts/Omnidex-incentives/incentives/MultiSigWalletWithDailyLimit.sol\":2682:2706  require(!isOwner[owner]) */\n      iszero\n      iszero\n      tag_230\n      jumpi\n      0x0\n      dup1\n      revert\n    tag_230:\n        /* \"contracts/Omnidex-incentives/incentives/MultiSigWalletWithDailyLimit.sol\":5906:5907  0 */\n      0x0\n        /* \"contracts/Omnidex-incentives/incentives/MultiSigWalletWithDailyLimit.sol\":5899:5907  uint i=0 */\n      swap3\n      pop\n        /* \"contracts/Omnidex-incentives/incentives/MultiSigWalletWithDailyLimit.sol\":5894:6047  for (uint i=0; i<owners.length; i++)\r... */\n    tag_232:\n        /* \"contracts/Omnidex-incentives/incentives/MultiSigWalletWithDailyLimit.sol\":5911:5917  owners */\n      0x3\n        /* \"contracts/Omnidex-incentives/incentives/MultiSigWalletWithDailyLimit.sol\":5911:5924  owners.length */\n      dup1\n      sload\n      swap1\n      pop\n        /* \"contracts/Omnidex-incentives/incentives/MultiSigWalletWithDailyLimit.sol\":5909:5910  i */\n      dup4\n        /* \"contracts/Omnidex-incentives/incentives/MultiSigWalletWithDailyLimit.sol\":5909:5924  i<owners.length */\n      lt\n        /* \"contracts/Omnidex-incentives/incentives/MultiSigWalletWithDailyLimit.sol\":5894:6047  for (uint i=0; i<owners.length; i++)\r... */\n      iszero\n      tag_233\n      jumpi\n        /* \"contracts/Omnidex-incentives/incentives/MultiSigWalletWithDailyLimit.sol\":5961:5966  owner */\n      dup5\n        /* \"contracts/Omnidex-incentives/incentives/MultiSigWalletWithDailyLimit.sol\":5948:5966  owners[i] == owner */\n      0xffffffffffffffffffffffffffffffffffffffff\n      and\n        /* \"contracts/Omnidex-incentives/incentives/MultiSigWalletWithDailyLimit.sol\":5948:5954  owners */\n      0x3\n        /* \"contracts/Omnidex-incentives/incentives/MultiSigWalletWithDailyLimit.sol\":5955:5956  i */\n      dup5\n        /* \"contracts/Omnidex-incentives/incentives/MultiSigWalletWithDailyLimit.sol\":5948:5957  owners[i] */\n      dup2\n      sload\n      dup2\n      lt\n      iszero\n      iszero\n      tag_235\n      jumpi\n      invalid\n    tag_235:\n      swap1\n      0x0\n      mstore\n      keccak256(0x0, 0x20)\n      add\n      0x0\n      swap1\n      sload\n      swap1\n      0x100\n      exp\n      swap1\n      div\n      0xffffffffffffffffffffffffffffffffffffffff\n      and\n        /* \"contracts/Omnidex-incentives/incentives/MultiSigWalletWithDailyLimit.sol\":5948:5966  owners[i] == owner */\n      0xffffffffffffffffffffffffffffffffffffffff\n      and\n      eq\n        /* \"contracts/Omnidex-incentives/incentives/MultiSigWalletWithDailyLimit.sol\":5944:6047  if (owners[i] == owner) {\r... */\n      iszero\n      tag_237\n      jumpi\n        /* \"contracts/Omnidex-incentives/incentives/MultiSigWalletWithDailyLimit.sol\":5999:6007  newOwner */\n      dup4\n        /* \"contracts/Omnidex-incentives/incentives/MultiSigWalletWithDailyLimit.sol\":5987:5993  owners */\n      0x3\n        /* \"contracts/Omnidex-incentives/incentives/MultiSigWalletWithDailyLimit.sol\":5994:5995  i */\n      dup5\n        /* \"contracts/Omnidex-incentives/incentives/MultiSigWalletWithDailyLimit.sol\":5987:5996  owners[i] */\n      dup2\n      sload\n      dup2\n      lt\n      iszero\n      iszero\n      tag_238\n      jumpi\n      invalid\n    tag_238:\n      swap1\n      0x0\n      mstore\n      keccak256(0x0, 0x20)\n      add\n      0x0\n        /* \"contracts/Omnidex-incentives/incentives/MultiSigWalletWithDailyLimit.sol\":5987:6007  owners[i] = newOwner */\n      0x100\n      exp\n      dup2\n      sload\n      dup2\n      0xffffffffffffffffffffffffffffffffffffffff\n      mul\n      not\n      and\n      swap1\n      dup4\n      0xffffffffffffffffffffffffffffffffffffffff\n      and\n      mul\n      or\n      swap1\n      sstore\n      pop\n        /* \"contracts/Omnidex-incentives/incentives/MultiSigWalletWithDailyLimit.sol\":6026:6031  break */\n      jump(tag_233)\n        /* \"contracts/Omnidex-incentives/incentives/MultiSigWalletWithDailyLimit.sol\":5944:6047  if (owners[i] == owner) {\r... */\n    tag_237:\n        /* \"contracts/Omnidex-incentives/incentives/MultiSigWalletWithDailyLimit.sol\":5926:5929  i++ */\n      dup3\n      dup1\n      0x1\n      add\n      swap4\n      pop\n      pop\n        /* \"contracts/Omnidex-incentives/incentives/MultiSigWalletWithDailyLimit.sol\":5894:6047  for (uint i=0; i<owners.length; i++)\r... */\n      jump(tag_232)\n    tag_233:\n        /* \"contracts/Omnidex-incentives/incentives/MultiSigWalletWithDailyLimit.sol\":6074:6079  false */\n      0x0\n        /* \"contracts/Omnidex-incentives/incentives/MultiSigWalletWithDailyLimit.sol\":6057:6064  isOwner */\n      0x2\n        /* \"contracts/Omnidex-incentives/incentives/MultiSigWalletWithDailyLimit.sol\":6057:6071  isOwner[owner] */\n      0x0\n        /* \"contracts/Omnidex-incentives/incentives/MultiSigWalletWithDailyLimit.sol\":6065:6070  owner */\n      dup8\n        /* \"contracts/Omnidex-incentives/incentives/MultiSigWalletWithDailyLimit.sol\":6057:6071  isOwner[owner] */\n      0xffffffffffffffffffffffffffffffffffffffff\n      and\n      0xffffffffffffffffffffffffffffffffffffffff\n      and\n      dup2\n      mstore\n      0x20\n      add\n      swap1\n      dup2\n      mstore\n      0x20\n      add\n      0x0\n      keccak256\n      0x0\n        /* \"contracts/Omnidex-incentives/incentives/MultiSigWalletWithDailyLimit.sol\":6057:6079  isOwner[owner] = false */\n      0x100\n      exp\n      dup2\n      sload\n      dup2\n      0xff\n      mul\n      not\n      and\n      swap1\n      dup4\n      iszero\n      iszero\n      mul\n      or\n      swap1\n      sstore\n      pop\n        /* \"contracts/Omnidex-incentives/incentives/MultiSigWalletWithDailyLimit.sol\":6110:6114  true */\n      0x1\n        /* \"contracts/Omnidex-incentives/incentives/MultiSigWalletWithDailyLimit.sol\":6090:6097  isOwner */\n      0x2\n        /* \"contracts/Omnidex-incentives/incentives/MultiSigWalletWithDailyLimit.sol\":6090:6107  isOwner[newOwner] */\n      0x0\n        /* \"contracts/Omnidex-incentives/incentives/MultiSigWalletWithDailyLimit.sol\":6098:6106  newOwner */\n      dup7\n        /* \"contracts/Omnidex-incentives/incentives/MultiSigWalletWithDailyLimit.sol\":6090:6107  isOwner[newOwner] */\n      0xffffffffffffffffffffffffffffffffffffffff\n      and\n      0xffffffffffffffffffffffffffffffffffffffff\n      and\n      dup2\n      mstore\n      0x20\n      add\n      swap1\n      dup2\n      mstore\n      0x20\n      add\n      0x0\n      keccak256\n      0x0\n        /* \"contracts/Omnidex-incentives/incentives/MultiSigWalletWithDailyLimit.sol\":6090:6114  isOwner[newOwner] = true */\n      0x100\n      exp\n      dup2\n      sload\n      dup2\n      0xff\n      mul\n      not\n      and\n      swap1\n      dup4\n      iszero\n      iszero\n      mul\n      or\n      swap1\n      sstore\n      pop\n        /* \"contracts/Omnidex-incentives/incentives/MultiSigWalletWithDailyLimit.sol\":6138:6143  owner */\n      dup5\n        /* \"contracts/Omnidex-incentives/incentives/MultiSigWalletWithDailyLimit.sol\":6125:6144  OwnerRemoval(owner) */\n      0xffffffffffffffffffffffffffffffffffffffff\n      and\n      0x8001553a916ef2f495d26a907cc54d96ed840d7bda71e73194bf5a9df7a76b90\n      mload(0x40)\n      mload(0x40)\n      dup1\n      swap2\n      sub\n      swap1\n      log2\n        /* \"contracts/Omnidex-incentives/incentives/MultiSigWalletWithDailyLimit.sol\":6169:6177  newOwner */\n      dup4\n        /* \"contracts/Omnidex-incentives/incentives/MultiSigWalletWithDailyLimit.sol\":6155:6178  OwnerAddition(newOwner) */\n      0xffffffffffffffffffffffffffffffffffffffff\n      and\n      0xf39e6e1eb0edcf53c221607b54b00cd28f3196fed0a24994dc308b8f611b682d\n      mload(0x40)\n      mload(0x40)\n      dup1\n      swap2\n      sub\n      swap1\n      log2\n        /* \"contracts/Omnidex-incentives/incentives/MultiSigWalletWithDailyLimit.sol\":2815:2816  _ */\n      pop\n        /* \"contracts/Omnidex-incentives/incentives/MultiSigWalletWithDailyLimit.sol\":2612:2613  _ */\n      pop\n        /* \"contracts/Omnidex-incentives/incentives/MultiSigWalletWithDailyLimit.sol\":5722:6186  function replaceOwner(address owner, address newOwner)\r... */\n      pop\n      pop\n      pop\n      jump\t// out\n        /* \"contracts/Omnidex-incentives/incentives/MultiSigWalletWithDailyLimit.sol\":8099:8680  function executeTransaction(uint transactionId)\r... */\n    tag_101:\n        /* \"contracts/Omnidex-incentives/incentives/MultiSigWalletWithDailyLimit.sol\":8341:8364  Transaction storage txn */\n      0x0\n        /* \"contracts/Omnidex-incentives/incentives/MultiSigWalletWithDailyLimit.sol\":8184:8194  msg.sender */\n      caller\n        /* \"contracts/Omnidex-incentives/incentives/MultiSigWalletWithDailyLimit.sol\":2789:2796  isOwner */\n      0x2\n        /* \"contracts/Omnidex-incentives/incentives/MultiSigWalletWithDailyLimit.sol\":2789:2803  isOwner[owner] */\n      0x0\n        /* \"contracts/Omnidex-incentives/incentives/MultiSigWalletWithDailyLimit.sol\":2797:2802  owner */\n      dup3\n        /* \"contracts/Omnidex-incentives/incentives/MultiSigWalletWithDailyLimit.sol\":2789:2803  isOwner[owner] */\n      0xffffffffffffffffffffffffffffffffffffffff\n      and\n      0xffffffffffffffffffffffffffffffffffffffff\n      and\n      dup2\n      mstore\n      0x20\n      add\n      swap1\n      dup2\n      mstore\n      0x20\n      add\n      0x0\n      keccak256\n      0x0\n      swap1\n      sload\n      swap1\n      0x100\n      exp\n      swap1\n      div\n      0xff\n      and\n        /* \"contracts/Omnidex-incentives/incentives/MultiSigWalletWithDailyLimit.sol\":2781:2804  require(isOwner[owner]) */\n      iszero\n      iszero\n      tag_241\n      jumpi\n      0x0\n      dup1\n      revert\n    tag_241:\n        /* \"contracts/Omnidex-incentives/incentives/MultiSigWalletWithDailyLimit.sol\":8215:8228  transactionId */\n      dup3\n        /* \"contracts/Omnidex-incentives/incentives/MultiSigWalletWithDailyLimit.sol\":8230:8240  msg.sender */\n      caller\n        /* \"contracts/Omnidex-incentives/incentives/MultiSigWalletWithDailyLimit.sol\":3044:3057  confirmations */\n      0x1\n        /* \"contracts/Omnidex-incentives/incentives/MultiSigWalletWithDailyLimit.sol\":3044:3072  confirmations[transactionId] */\n      0x0\n        /* \"contracts/Omnidex-incentives/incentives/MultiSigWalletWithDailyLimit.sol\":3058:3071  transactionId */\n      dup4\n        /* \"contracts/Omnidex-incentives/incentives/MultiSigWalletWithDailyLimit.sol\":3044:3072  confirmations[transactionId] */\n      dup2\n      mstore\n      0x20\n      add\n      swap1\n      dup2\n      mstore\n      0x20\n      add\n      0x0\n      keccak256\n        /* \"contracts/Omnidex-incentives/incentives/MultiSigWalletWithDailyLimit.sol\":3044:3079  confirmations[transactionId][owner] */\n      0x0\n        /* \"contracts/Omnidex-incentives/incentives/MultiSigWalletWithDailyLimit.sol\":3073:3078  owner */\n      dup3\n        /* \"contracts/Omnidex-incentives/incentives/MultiSigWalletWithDailyLimit.sol\":3044:3079  confirmations[transactionId][owner] */\n      0xffffffffffffffffffffffffffffffffffffffff\n      and\n      0xffffffffffffffffffffffffffffffffffffffff\n      and\n      dup2\n      mstore\n      0x20\n      add\n      swap1\n      dup2\n      mstore\n      0x20\n      add\n      0x0\n      keccak256\n      0x0\n      swap1\n      sload\n      swap1\n      0x100\n      exp\n      swap1\n      div\n      0xff\n      and\n        /* \"contracts/Omnidex-incentives/incentives/MultiSigWalletWithDailyLimit.sol\":3036:3080  require(confirmations[transactionId][owner]) */\n      iszero\n      iszero\n      tag_243\n      jumpi\n      0x0\n      dup1\n      revert\n    tag_243:\n        /* \"contracts/Omnidex-incentives/incentives/MultiSigWalletWithDailyLimit.sol\":8263:8276  transactionId */\n      dup5\n        /* \"contracts/Omnidex-incentives/incentives/MultiSigWalletWithDailyLimit.sol\":3310:3322  transactions */\n      0x0\n        /* \"contracts/Omnidex-incentives/incentives/MultiSigWalletWithDailyLimit.sol\":3310:3337  transactions[transactionId] */\n      dup1\n        /* \"contracts/Omnidex-incentives/incentives/MultiSigWalletWithDailyLimit.sol\":3323:3336  transactionId */\n      dup3\n        /* \"contracts/Omnidex-incentives/incentives/MultiSigWalletWithDailyLimit.sol\":3310:3337  transactions[transactionId] */\n      dup2\n      mstore\n      0x20\n      add\n      swap1\n      dup2\n      mstore\n      0x20\n      add\n      0x0\n      keccak256\n        /* \"contracts/Omnidex-incentives/incentives/MultiSigWalletWithDailyLimit.sol\":3310:3346  transactions[transactionId].executed */\n      0x3\n      add\n      0x0\n      swap1\n      sload\n      swap1\n      0x100\n      exp\n      swap1\n      div\n      0xff\n      and\n        /* \"contracts/Omnidex-incentives/incentives/MultiSigWalletWithDailyLimit.sol\":3309:3346  !transactions[transactionId].executed */\n      iszero\n        /* \"contracts/Omnidex-incentives/incentives/MultiSigWalletWithDailyLimit.sol\":3301:3347  require(!transactions[transactionId].executed) */\n      iszero\n      iszero\n      tag_245\n      jumpi\n      0x0\n      dup1\n      revert\n    tag_245:\n        /* \"contracts/Omnidex-incentives/incentives/MultiSigWalletWithDailyLimit.sol\":8298:8324  isConfirmed(transactionId) */\n      tag_247\n        /* \"contracts/Omnidex-incentives/incentives/MultiSigWalletWithDailyLimit.sol\":8310:8323  transactionId */\n      dup7\n        /* \"contracts/Omnidex-incentives/incentives/MultiSigWalletWithDailyLimit.sol\":8298:8309  isConfirmed */\n      tag_49\n        /* \"contracts/Omnidex-incentives/incentives/MultiSigWalletWithDailyLimit.sol\":8298:8324  isConfirmed(transactionId) */\n      jump\t// in\n    tag_247:\n        /* \"contracts/Omnidex-incentives/incentives/MultiSigWalletWithDailyLimit.sol\":8294:8673  if (isConfirmed(transactionId)) {\r... */\n      iszero\n      tag_248\n      jumpi\n        /* \"contracts/Omnidex-incentives/incentives/MultiSigWalletWithDailyLimit.sol\":8367:8379  transactions */\n      0x0\n        /* \"contracts/Omnidex-incentives/incentives/MultiSigWalletWithDailyLimit.sol\":8367:8394  transactions[transactionId] */\n      dup1\n        /* \"contracts/Omnidex-incentives/incentives/MultiSigWalletWithDailyLimit.sol\":8380:8393  transactionId */\n      dup8\n        /* \"contracts/Omnidex-incentives/incentives/MultiSigWalletWithDailyLimit.sol\":8367:8394  transactions[transactionId] */\n      dup2\n      mstore\n      0x20\n      add\n      swap1\n      dup2\n      mstore\n      0x20\n      add\n      0x0\n      keccak256\n        /* \"contracts/Omnidex-incentives/incentives/MultiSigWalletWithDailyLimit.sol\":8341:8394  Transaction storage txn = transactions[transactionId] */\n      swap5\n      pop\n        /* \"contracts/Omnidex-incentives/incentives/MultiSigWalletWithDailyLimit.sol\":8424:8428  true */\n      0x1\n        /* \"contracts/Omnidex-incentives/incentives/MultiSigWalletWithDailyLimit.sol\":8409:8412  txn */\n      dup6\n        /* \"contracts/Omnidex-incentives/incentives/MultiSigWalletWithDailyLimit.sol\":8409:8421  txn.executed */\n      0x3\n      add\n      0x0\n        /* \"contracts/Omnidex-incentives/incentives/MultiSigWalletWithDailyLimit.sol\":8409:8428  txn.executed = true */\n      0x100\n      exp\n      dup2\n      sload\n      dup2\n      0xff\n      mul\n      not\n      and\n      swap1\n      dup4\n      iszero\n      iszero\n      mul\n      or\n      swap1\n      sstore\n      pop\n        /* \"contracts/Omnidex-incentives/incentives/MultiSigWalletWithDailyLimit.sol\":8447:8450  txn */\n      dup5\n        /* \"contracts/Omnidex-incentives/incentives/MultiSigWalletWithDailyLimit.sol\":8447:8462  txn.destination */\n      0x0\n      add\n      0x0\n      swap1\n      sload\n      swap1\n      0x100\n      exp\n      swap1\n      div\n      0xffffffffffffffffffffffffffffffffffffffff\n      and\n        /* \"contracts/Omnidex-incentives/incentives/MultiSigWalletWithDailyLimit.sol\":8447:8467  txn.destination.call */\n      0xffffffffffffffffffffffffffffffffffffffff\n      and\n        /* \"contracts/Omnidex-incentives/incentives/MultiSigWalletWithDailyLimit.sol\":8474:8477  txn */\n      dup6\n        /* \"contracts/Omnidex-incentives/incentives/MultiSigWalletWithDailyLimit.sol\":8474:8483  txn.value */\n      0x1\n      add\n      sload\n        /* \"contracts/Omnidex-incentives/incentives/MultiSigWalletWithDailyLimit.sol\":8485:8488  txn */\n      dup7\n        /* \"contracts/Omnidex-incentives/incentives/MultiSigWalletWithDailyLimit.sol\":8485:8493  txn.data */\n      0x2\n      add\n        /* \"contracts/Omnidex-incentives/incentives/MultiSigWalletWithDailyLimit.sol\":8447:8494  txn.destination.call.value(txn.value)(txn.data) */\n      mload(0x40)\n      dup1\n      dup3\n      dup1\n      sload\n      0x1\n      dup2\n      0x1\n      and\n      iszero\n      0x100\n      mul\n      sub\n      and\n      0x2\n      swap1\n      div\n      dup1\n      iszero\n      tag_249\n      jumpi\n      dup1\n      0x1f\n      lt\n      tag_250\n      jumpi\n      0x100\n      dup1\n      dup4\n      sload\n      div\n      mul\n      dup4\n      mstore\n      swap2\n      0x20\n      add\n      swap2\n      jump(tag_249)\n    tag_250:\n      dup3\n      add\n      swap2\n      swap1\n      0x0\n      mstore\n      keccak256(0x0, 0x20)\n      swap1\n    tag_251:\n      dup2\n      sload\n      dup2\n      mstore\n      swap1\n      0x1\n      add\n      swap1\n      0x20\n      add\n      dup1\n      dup4\n      gt\n      tag_251\n      jumpi\n      dup3\n      swap1\n      sub\n      0x1f\n      and\n      dup3\n      add\n      swap2\n    tag_249:\n      pop\n      pop\n      swap2\n      pop\n      pop\n      0x0\n      mload(0x40)\n      dup1\n      dup4\n      sub\n      dup2\n      dup6\n      dup8\n      gas\n      call\n      swap3\n      pop\n      pop\n      pop\n        /* \"contracts/Omnidex-incentives/incentives/MultiSigWalletWithDailyLimit.sol\":8443:8662  if (txn.destination.call.value(txn.value)(txn.data))\r... */\n      iszero\n      tag_252\n      jumpi\n        /* \"contracts/Omnidex-incentives/incentives/MultiSigWalletWithDailyLimit.sol\":8523:8536  transactionId */\n      dup6\n        /* \"contracts/Omnidex-incentives/incentives/MultiSigWalletWithDailyLimit.sol\":8513:8537  Execution(transactionId) */\n      0x33e13ecb54c3076d8e8bb8c2881800a4d972b792045ffae98fdf46df365fed75\n      mload(0x40)\n      mload(0x40)\n      dup1\n      swap2\n      sub\n      swap1\n      log2\n        /* \"contracts/Omnidex-incentives/incentives/MultiSigWalletWithDailyLimit.sol\":8443:8662  if (txn.destination.call.value(txn.value)(txn.data))\r... */\n      jump(tag_253)\n    tag_252:\n        /* \"contracts/Omnidex-incentives/incentives/MultiSigWalletWithDailyLimit.sol\":8593:8606  transactionId */\n      dup6\n        /* \"contracts/Omnidex-incentives/incentives/MultiSigWalletWithDailyLimit.sol\":8576:8607  ExecutionFailure(transactionId) */\n      0x526441bb6c1aba3c9a4a6ca1d6545da9c2333c8c48343ef398eb858d72b79236\n      mload(0x40)\n      mload(0x40)\n      dup1\n      swap2\n      sub\n      swap1\n      log2\n        /* \"contracts/Omnidex-incentives/incentives/MultiSigWalletWithDailyLimit.sol\":8641:8646  false */\n      0x0\n        /* \"contracts/Omnidex-incentives/incentives/MultiSigWalletWithDailyLimit.sol\":8626:8629  txn */\n      dup6\n        /* \"contracts/Omnidex-incentives/incentives/MultiSigWalletWithDailyLimit.sol\":8626:8638  txn.executed */\n      0x3\n      add\n      0x0\n        /* \"contracts/Omnidex-incentives/incentives/MultiSigWalletWithDailyLimit.sol\":8626:8646  txn.executed = false */\n      0x100\n      exp\n      dup2\n      sload\n      dup2\n      0xff\n      mul\n      not\n      and\n      swap1\n      dup4\n      iszero\n      iszero\n      mul\n      or\n      swap1\n      sstore\n      pop\n        /* \"contracts/Omnidex-incentives/incentives/MultiSigWalletWithDailyLimit.sol\":8443:8662  if (txn.destination.call.value(txn.value)(txn.data))\r... */\n    tag_253:\n        /* \"contracts/Omnidex-incentives/incentives/MultiSigWalletWithDailyLimit.sol\":8294:8673  if (isConfirmed(transactionId)) {\r... */\n    tag_248:\n        /* \"contracts/Omnidex-incentives/incentives/MultiSigWalletWithDailyLimit.sol\":3091:3092  _ */\n      pop\n        /* \"contracts/Omnidex-incentives/incentives/MultiSigWalletWithDailyLimit.sol\":2815:2816  _ */\n      pop\n      pop\n        /* \"contracts/Omnidex-incentives/incentives/MultiSigWalletWithDailyLimit.sol\":8099:8680  function executeTransaction(uint transactionId)\r... */\n      pop\n      pop\n      pop\n      jump\t// out\n        /* \"contracts/Omnidex-incentives/incentives/MultiSigWalletWithDailyLimit.sol\":9528:9993  function addTransaction(address destination, uint value, bytes data)\r... */\n    tag_223:\n        /* \"contracts/Omnidex-incentives/incentives/MultiSigWalletWithDailyLimit.sol\":9663:9681  uint transactionId */\n      0x0\n        /* \"contracts/Omnidex-incentives/incentives/MultiSigWalletWithDailyLimit.sol\":9632:9643  destination */\n      dup4\n        /* \"contracts/Omnidex-incentives/incentives/MultiSigWalletWithDailyLimit.sol\":3441:3442  0 */\n      0x0\n        /* \"contracts/Omnidex-incentives/incentives/MultiSigWalletWithDailyLimit.sol\":3429:3437  _address */\n      dup2\n        /* \"contracts/Omnidex-incentives/incentives/MultiSigWalletWithDailyLimit.sol\":3429:3442  _address != 0 */\n      0xffffffffffffffffffffffffffffffffffffffff\n      and\n      eq\n      iszero\n        /* \"contracts/Omnidex-incentives/incentives/MultiSigWalletWithDailyLimit.sol\":3421:3443  require(_address != 0) */\n      iszero\n      iszero\n      tag_255\n      jumpi\n      0x0\n      dup1\n      revert\n    tag_255:\n        /* \"contracts/Omnidex-incentives/incentives/MultiSigWalletWithDailyLimit.sol\":9715:9731  transactionCount */\n      sload(0x5)\n        /* \"contracts/Omnidex-incentives/incentives/MultiSigWalletWithDailyLimit.sol\":9699:9731  transactionId = transactionCount */\n      swap2\n      pop\n        /* \"contracts/Omnidex-incentives/incentives/MultiSigWalletWithDailyLimit.sol\":9772:9917  Transaction({\r... */\n      0x80\n      mload(0x40)\n      swap1\n      dup2\n      add\n      0x40\n      mstore\n      dup1\n        /* \"contracts/Omnidex-incentives/incentives/MultiSigWalletWithDailyLimit.sol\":9812:9823  destination */\n      dup7\n        /* \"contracts/Omnidex-incentives/incentives/MultiSigWalletWithDailyLimit.sol\":9772:9917  Transaction({\r... */\n      0xffffffffffffffffffffffffffffffffffffffff\n      and\n      dup2\n      mstore\n      0x20\n      add\n        /* \"contracts/Omnidex-incentives/incentives/MultiSigWalletWithDailyLimit.sol\":9845:9850  value */\n      dup6\n        /* \"contracts/Omnidex-incentives/incentives/MultiSigWalletWithDailyLimit.sol\":9772:9917  Transaction({\r... */\n      dup2\n      mstore\n      0x20\n      add\n        /* \"contracts/Omnidex-incentives/incentives/MultiSigWalletWithDailyLimit.sol\":9871:9875  data */\n      dup5\n        /* \"contracts/Omnidex-incentives/incentives/MultiSigWalletWithDailyLimit.sol\":9772:9917  Transaction({\r... */\n      dup2\n      mstore\n      0x20\n      add\n        /* \"contracts/Omnidex-incentives/incentives/MultiSigWalletWithDailyLimit.sol\":9900:9905  false */\n      0x0\n        /* \"contracts/Omnidex-incentives/incentives/MultiSigWalletWithDailyLimit.sol\":9772:9917  Transaction({\r... */\n      iszero\n      iszero\n      dup2\n      mstore\n      pop\n        /* \"contracts/Omnidex-incentives/incentives/MultiSigWalletWithDailyLimit.sol\":9742:9754  transactions */\n      0x0\n        /* \"contracts/Omnidex-incentives/incentives/MultiSigWalletWithDailyLimit.sol\":9742:9769  transactions[transactionId] */\n      dup1\n        /* \"contracts/Omnidex-incentives/incentives/MultiSigWalletWithDailyLimit.sol\":9755:9768  transactionId */\n      dup5\n        /* \"contracts/Omnidex-incentives/incentives/MultiSigWalletWithDailyLimit.sol\":9742:9769  transactions[transactionId] */\n      dup2\n      mstore\n      0x20\n      add\n      swap1\n      dup2\n      mstore\n      0x20\n      add\n      0x0\n      keccak256\n        /* \"contracts/Omnidex-incentives/incentives/MultiSigWalletWithDailyLimit.sol\":9742:9917  transactions[transactionId] = Transaction({\r... */\n      0x0\n      dup3\n      add\n      mload\n      dup2\n      0x0\n      add\n      exp(0x100, 0x0)\n      dup2\n      sload\n      dup2\n      0xffffffffffffffffffffffffffffffffffffffff\n      mul\n      not\n      and\n      swap1\n      dup4\n      0xffffffffffffffffffffffffffffffffffffffff\n      and\n      mul\n      or\n      swap1\n      sstore\n      pop\n      0x20\n      dup3\n      add\n      mload\n      dup2\n      0x1\n      add\n      sstore\n      0x40\n      dup3\n      add\n      mload\n      dup2\n      0x2\n      add\n      swap1\n      dup1\n      mload\n      swap1\n      0x20\n      add\n      swap1\n      tag_257\n      swap3\n      swap2\n      swap1\n      jump\t// in(tag_258)\n    tag_257:\n      pop\n      0x60\n      dup3\n      add\n      mload\n      dup2\n      0x3\n      add\n      exp(0x100, 0x0)\n      dup2\n      sload\n      dup2\n      0xff\n      mul\n      not\n      and\n      swap1\n      dup4\n      iszero\n      iszero\n      mul\n      or\n      swap1\n      sstore\n      pop\n      swap1\n      pop\n      pop\n        /* \"contracts/Omnidex-incentives/incentives/MultiSigWalletWithDailyLimit.sol\":9948:9949  1 */\n      0x1\n        /* \"contracts/Omnidex-incentives/incentives/MultiSigWalletWithDailyLimit.sol\":9928:9944  transactionCount */\n      0x5\n      0x0\n        /* \"contracts/Omnidex-incentives/incentives/MultiSigWalletWithDailyLimit.sol\":9928:9949  transactionCount += 1 */\n      dup3\n      dup3\n      sload\n      add\n      swap3\n      pop\n      pop\n      dup2\n      swap1\n      sstore\n      pop\n        /* \"contracts/Omnidex-incentives/incentives/MultiSigWalletWithDailyLimit.sol\":9971:9984  transactionId */\n      dup2\n        /* \"contracts/Omnidex-incentives/incentives/MultiSigWalletWithDailyLimit.sol\":9960:9985  Submission(transactionId) */\n      0xc0ba8fe4b176c1714197d43b9cc6bcf797a4a7461c5fe8d0ef6e184ae7601e51\n      mload(0x40)\n      mload(0x40)\n      dup1\n      swap2\n      sub\n      swap1\n      log2\n        /* \"contracts/Omnidex-incentives/incentives/MultiSigWalletWithDailyLimit.sol\":9528:9993  function addTransaction(address destination, uint value, bytes data)\r... */\n      pop\n      swap4\n      swap3\n      pop\n      pop\n      pop\n      jump\t// out\n        /* \"contracts/Omnidex-incentives/incentives/MultiSigWalletWithDailyLimit.sol\":1401:13092  contract MultiSigWallet {\r... */\n    tag_120:\n      dup2\n      sload\n      dup2\n      dup4\n      sstore\n      dup2\n      dup2\n      gt\n      iszero\n      tag_259\n      jumpi\n      dup2\n      dup4\n      0x0\n      mstore\n      keccak256(0x0, 0x20)\n      swap2\n      dup3\n      add\n      swap2\n      add\n      tag_260\n      swap2\n      swap1\n      jump\t// in(tag_261)\n    tag_260:\n    tag_259:\n      pop\n      pop\n      pop\n      jump\t// out\n    tag_258:\n      dup3\n      dup1\n      sload\n      0x1\n      dup2\n      0x1\n      and\n      iszero\n      0x100\n      mul\n      sub\n      and\n      0x2\n      swap1\n      div\n      swap1\n      0x0\n      mstore\n      keccak256(0x0, 0x20)\n      swap1\n      0x1f\n      add\n      0x20\n      swap1\n      div\n      dup2\n      add\n      swap3\n      dup3\n      0x1f\n      lt\n      tag_263\n      jumpi\n      dup1\n      mload\n      not(0xff)\n      and\n      dup4\n      dup1\n      add\n      or\n      dup6\n      sstore\n      jump(tag_262)\n    tag_263:\n      dup3\n      dup1\n      add\n      0x1\n      add\n      dup6\n      sstore\n      dup3\n      iszero\n      tag_262\n      jumpi\n      swap2\n      dup3\n      add\n    tag_264:\n      dup3\n      dup2\n      gt\n      iszero\n      tag_265\n      jumpi\n      dup3\n      mload\n      dup3\n      sstore\n      swap2\n      0x20\n      add\n      swap2\n      swap1\n      0x1\n      add\n      swap1\n      jump(tag_264)\n    tag_265:\n    tag_262:\n      pop\n      swap1\n      pop\n      tag_266\n      swap2\n      swap1\n      jump\t// in(tag_261)\n    tag_266:\n      pop\n      swap1\n      jump\t// out\n    tag_261:\n      tag_267\n      swap2\n      swap1\n    tag_268:\n      dup1\n      dup3\n      gt\n      iszero\n      tag_269\n      jumpi\n      0x0\n      dup2\n      0x0\n      swap1\n      sstore\n      pop\n      0x1\n      add\n      jump(tag_268)\n    tag_269:\n      pop\n      swap1\n      jump\n    tag_267:\n      swap1\n      jump\t// out\n\n    auxdata: 0xa165627a7a72305820a60aac6e63ec7d2933a8ecfe22d338da2fd0d74a57980216f74acc0f53bbc3250029\n}\n",
				"bytecode": {
					"linkReferences": {},
					"object": "60806040523480156200001157600080fd5b50604051620024783803806200247883398101806040528101908080518201929190602001805190602001909291905050506000825182603282111580156200005a5750818111155b801562000068575060008114155b801562000076575060008214155b15156200008257600080fd5b600092505b8451831015620001bd57600260008685815181101515620000a457fe5b9060200190602002015173ffffffffffffffffffffffffffffffffffffffff1673ffffffffffffffffffffffffffffffffffffffff16815260200190815260200160002060009054906101000a900460ff16158015620001335750600085848151811015156200011057fe5b9060200190602002015173ffffffffffffffffffffffffffffffffffffffff1614155b15156200013f57600080fd5b60016002600087868151811015156200015457fe5b9060200190602002015173ffffffffffffffffffffffffffffffffffffffff1673ffffffffffffffffffffffffffffffffffffffff16815260200190815260200160002060006101000a81548160ff021916908315150217905550828060010193505062000087565b8460039080519060200190620001d5929190620001e8565b50836004819055505050505050620002bd565b82805482825590600052602060002090810192821562000264579160200282015b82811115620002635782518260006101000a81548173ffffffffffffffffffffffffffffffffffffffff021916908373ffffffffffffffffffffffffffffffffffffffff1602179055509160200191906001019062000209565b5b50905062000273919062000277565b5090565b620002ba91905b80821115620002b657600081816101000a81549073ffffffffffffffffffffffffffffffffffffffff0219169055506001016200027e565b5090565b90565b6121ab80620002cd6000396000f30060806040526004361061011d576000357c0100000000000000000000000000000000000000000000000000000000900463ffffffff168063025e7c2714610177578063173825d9146101e457806320ea8d86146102275780632f54bf6e146102545780633411c81c146102af57806354741525146103145780637065cb4814610363578063784547a7146103a65780638b51d13f146103eb5780639ace38c21461042c578063a0e67e2b14610517578063a8abe69a14610583578063b5dc40c314610627578063b77bf600146106a9578063ba51a6df146106d4578063c01a8c8414610701578063c64274741461072e578063d74f8edd146107d5578063dc8452cd14610800578063e20056e61461082b578063ee22610b1461088e575b6000341115610175573373ffffffffffffffffffffffffffffffffffffffff167fe1fffcc4923d04b559f4d29a8bfc6cda04eb5b0d3c460751c2402c5c5cc9109c346040518082815260200191505060405180910390a25b005b34801561018357600080fd5b506101a2600480360381019080803590602001909291905050506108bb565b604051808273ffffffffffffffffffffffffffffffffffffffff1673ffffffffffffffffffffffffffffffffffffffff16815260200191505060405180910390f35b3480156101f057600080fd5b50610225600480360381019080803573ffffffffffffffffffffffffffffffffffffffff1690602001909291905050506108f9565b005b34801561023357600080fd5b5061025260048036038101908080359060200190929190505050610b92565b005b34801561026057600080fd5b50610295600480360381019080803573ffffffffffffffffffffffffffffffffffffffff169060200190929190505050610d3a565b604051808215151515815260200191505060405180910390f35b3480156102bb57600080fd5b506102fa60048036038101908080359060200190929190803573ffffffffffffffffffffffffffffffffffffffff169060200190929190505050610d5a565b604051808215151515815260200191505060405180910390f35b34801561032057600080fd5b5061034d600480360381019080803515159060200190929190803515159060200190929190505050610d89565b6040518082815260200191505060405180910390f35b34801561036f57600080fd5b506103a4600480360381019080803573ffffffffffffffffffffffffffffffffffffffff169060200190929190505050610e1b565b005b3480156103b257600080fd5b506103d160048036038101908080359060200190929190505050611020565b604051808215151515815260200191505060405180910390f35b3480156103f757600080fd5b5061041660048036038101908080359060200190929190505050611105565b6040518082815260200191505060405180910390f35b34801561043857600080fd5b50610457600480360381019080803590602001909291905050506111d0565b604051808573ffffffffffffffffffffffffffffffffffffffff1673ffffffffffffffffffffffffffffffffffffffff1681526020018481526020018060200183151515158152602001828103825284818151815260200191508051906020019080838360005b838110156104d95780820151818401526020810190506104be565b50505050905090810190601f1680156105065780820380516001836020036101000a031916815260200191505b509550505050505060405180910390f35b34801561052357600080fd5b5061052c6112c5565b6040518080602001828103825283818151815260200191508051906020019060200280838360005b8381101561056f578082015181840152602081019050610554565b505050509050019250505060405180910390f35b34801561058f57600080fd5b506105d06004803603810190808035906020019092919080359060200190929190803515159060200190929190803515159060200190929190505050611353565b6040518080602001828103825283818151815260200191508051906020019060200280838360005b838110156106135780820151818401526020810190506105f8565b505050509050019250505060405180910390f35b34801561063357600080fd5b50610652600480360381019080803590602001909291905050506114c4565b6040518080602001828103825283818151815260200191508051906020019060200280838360005b8381101561069557808201518184015260208101905061067a565b505050509050019250505060405180910390f35b3480156106b557600080fd5b506106be611701565b6040518082815260200191505060405180910390f35b3480156106e057600080fd5b506106ff60048036038101908080359060200190929190505050611707565b005b34801561070d57600080fd5b5061072c600480360381019080803590602001909291905050506117c1565b005b34801561073a57600080fd5b506107bf600480360381019080803573ffffffffffffffffffffffffffffffffffffffff16906020019092919080359060200190929190803590602001908201803590602001908080601f016020809104026020016040519081016040528093929190818152602001838380828437820191505050505050919291929050505061199e565b6040518082815260200191505060405180910390f35b3480156107e157600080fd5b506107ea6119bd565b6040518082815260200191505060405180910390f35b34801561080c57600080fd5b506108156119c2565b6040518082815260200191505060405180910390f35b34801561083757600080fd5b5061088c600480360381019080803573ffffffffffffffffffffffffffffffffffffffff169060200190929190803573ffffffffffffffffffffffffffffffffffffffff1690602001909291905050506119c8565b005b34801561089a57600080fd5b506108b960048036038101908080359060200190929190505050611cdd565b005b6003818154811015156108ca57fe5b906000526020600020016000915054906101000a900473ffffffffffffffffffffffffffffffffffffffff1681565b60003073ffffffffffffffffffffffffffffffffffffffff163373ffffffffffffffffffffffffffffffffffffffff1614151561093557600080fd5b81600260008273ffffffffffffffffffffffffffffffffffffffff1673ffffffffffffffffffffffffffffffffffffffff16815260200190815260200160002060009054906101000a900460ff16151561098e57600080fd5b6000600260008573ffffffffffffffffffffffffffffffffffffffff1673ffffffffffffffffffffffffffffffffffffffff16815260200190815260200160002060006101000a81548160ff021916908315150217905550600091505b600160038054905003821015610b13578273ffffffffffffffffffffffffffffffffffffffff16600383815481101515610a2157fe5b9060005260206000200160009054906101000a900473ffffffffffffffffffffffffffffffffffffffff1673ffffffffffffffffffffffffffffffffffffffff161415610b06576003600160038054905003815481101515610a7f57fe5b9060005260206000200160009054906101000a900473ffffffffffffffffffffffffffffffffffffffff16600383815481101515610ab957fe5b9060005260206000200160006101000a81548173ffffffffffffffffffffffffffffffffffffffff021916908373ffffffffffffffffffffffffffffffffffffffff160217905550610b13565b81806001019250506109eb565b6001600381818054905003915081610b2b91906120ae565b506003805490506004541115610b4a57610b49600380549050611707565b5b8273ffffffffffffffffffffffffffffffffffffffff167f8001553a916ef2f495d26a907cc54d96ed840d7bda71e73194bf5a9df7a76b9060405160405180910390a2505050565b33600260008273ffffffffffffffffffffffffffffffffffffffff1673ffffffffffffffffffffffffffffffffffffffff16815260200190815260200160002060009054906101000a900460ff161515610beb57600080fd5b81336001600083815260200190815260200160002060008273ffffffffffffffffffffffffffffffffffffffff1673ffffffffffffffffffffffffffffffffffffffff16815260200190815260200160002060009054906101000a900460ff161515610c5657600080fd5b8360008082815260200190815260200160002060030160009054906101000a900460ff16151515610c8657600080fd5b60006001600087815260200190815260200160002060003373ffffffffffffffffffffffffffffffffffffffff1673ffffffffffffffffffffffffffffffffffffffff16815260200190815260200160002060006101000a81548160ff021916908315150217905550843373ffffffffffffffffffffffffffffffffffffffff167ff6a317157440607f36269043eb55f1287a5a19ba2216afeab88cd46cbcfb88e960405160405180910390a35050505050565b60026020528060005260406000206000915054906101000a900460ff1681565b60016020528160005260406000206020528060005260406000206000915091509054906101000a900460ff1681565b600080600090505b600554811015610e1457838015610dc8575060008082815260200190815260200160002060030160009054906101000a900460ff16155b80610dfb5750828015610dfa575060008082815260200190815260200160002060030160009054906101000a900460ff165b5b15610e07576001820191505b8080600101915050610d91565b5092915050565b3073ffffffffffffffffffffffffffffffffffffffff163373ffffffffffffffffffffffffffffffffffffffff16141515610e5557600080fd5b80600260008273ffffffffffffffffffffffffffffffffffffffff1673ffffffffffffffffffffffffffffffffffffffff16815260200190815260200160002060009054906101000a900460ff16151515610eaf57600080fd5b8160008173ffffffffffffffffffffffffffffffffffffffff1614151515610ed657600080fd5b60016003805490500160045460328211158015610ef35750818111155b8015610f00575060008114155b8015610f0d575060008214155b1515610f1857600080fd5b6001600260008773ffffffffffffffffffffffffffffffffffffffff1673ffffffffffffffffffffffffffffffffffffffff16815260200190815260200160002060006101000a81548160ff02191690831515021790555060038590806001815401808255809150509060018203906000526020600020016000909192909190916101000a81548173ffffffffffffffffffffffffffffffffffffffff021916908373ffffffffffffffffffffffffffffffffffffffff160217905550508473ffffffffffffffffffffffffffffffffffffffff167ff39e6e1eb0edcf53c221607b54b00cd28f3196fed0a24994dc308b8f611b682d60405160405180910390a25050505050565b6000806000809150600090505b6003805490508110156110fd5760016000858152602001908152602001600020600060038381548110151561105e57fe5b9060005260206000200160009054906101000a900473ffffffffffffffffffffffffffffffffffffffff1673ffffffffffffffffffffffffffffffffffffffff1673ffffffffffffffffffffffffffffffffffffffff16815260200190815260200160002060009054906101000a900460ff16156110dd576001820191505b6004548214156110f057600192506110fe565b808060010191505061102d565b5b5050919050565b600080600090505b6003805490508110156111ca5760016000848152602001908152602001600020600060038381548110151561113e57fe5b9060005260206000200160009054906101000a900473ffffffffffffffffffffffffffffffffffffffff1673ffffffffffffffffffffffffffffffffffffffff1673ffffffffffffffffffffffffffffffffffffffff16815260200190815260200160002060009054906101000a900460ff16156111bd576001820191505b808060010191505061110d565b50919050565b60006020528060005260406000206000915090508060000160009054906101000a900473ffffffffffffffffffffffffffffffffffffffff1690806001015490806002018054600181600116156101000203166002900480601f0160208091040260200160405190810160405280929190818152602001828054600181600116156101000203166002900480156112a85780601f1061127d576101008083540402835291602001916112a8565b820191906000526020600020905b81548152906001019060200180831161128b57829003601f168201915b5050505050908060030160009054906101000a900460ff16905084565b6060600380548060200260200160405190810160405280929190818152602001828054801561134957602002820191906000526020600020905b8160009054906101000a900473ffffffffffffffffffffffffffffffffffffffff1673ffffffffffffffffffffffffffffffffffffffff16815260200190600101908083116112ff575b5050505050905090565b60608060008060055460405190808252806020026020018201604052801561138a5781602001602082028038833980820191505090505b50925060009150600090505b600554811015611436578580156113cd575060008082815260200190815260200160002060030160009054906101000a900460ff16155b8061140057508480156113ff575060008082815260200190815260200160002060030160009054906101000a900460ff165b5b156114295780838381518110151561141457fe5b90602001906020020181815250506001820191505b8080600101915050611396565b8787036040519080825280602002602001820160405280156114675781602001602082028038833980820191505090505b5093508790505b868110156114b957828181518110151561148457fe5b906020019060200201518489830381518110151561149e57fe5b9060200190602002018181525050808060010191505061146e565b505050949350505050565b6060806000806003805490506040519080825280602002602001820160405280156114fe5781602001602082028038833980820191505090505b50925060009150600090505b60038054905081101561164b5760016000868152602001908152602001600020600060038381548110151561153b57fe5b9060005260206000200160009054906101000a900473ffffffffffffffffffffffffffffffffffffffff1673ffffffffffffffffffffffffffffffffffffffff1673ffffffffffffffffffffffffffffffffffffffff16815260200190815260200160002060009054906101000a900460ff161561163e576003818154811015156115c257fe5b9060005260206000200160009054906101000a900473ffffffffffffffffffffffffffffffffffffffff1683838151811015156115fb57fe5b9060200190602002019073ffffffffffffffffffffffffffffffffffffffff16908173ffffffffffffffffffffffffffffffffffffffff16815250506001820191505b808060010191505061150a565b8160405190808252806020026020018201604052801561167a5781602001602082028038833980820191505090505b509350600090505b818110156116f957828181518110151561169857fe5b9060200190602002015184828151811015156116b057fe5b9060200190602002019073ffffffffffffffffffffffffffffffffffffffff16908173ffffffffffffffffffffffffffffffffffffffff16815250508080600101915050611682565b505050919050565b60055481565b3073ffffffffffffffffffffffffffffffffffffffff163373ffffffffffffffffffffffffffffffffffffffff1614151561174157600080fd5b60038054905081603282111580156117595750818111155b8015611766575060008114155b8015611773575060008214155b151561177e57600080fd5b826004819055507fa3f1ee9126a074d9326c682f561767f710e927faa811f7a99829d49dc421797a836040518082815260200191505060405180910390a1505050565b33600260008273ffffffffffffffffffffffffffffffffffffffff1673ffffffffffffffffffffffffffffffffffffffff16815260200190815260200160002060009054906101000a900460ff16151561181a57600080fd5b81600080600083815260200190815260200160002060000160009054906101000a900473ffffffffffffffffffffffffffffffffffffffff1673ffffffffffffffffffffffffffffffffffffffff161415151561187657600080fd5b82336001600083815260200190815260200160002060008273ffffffffffffffffffffffffffffffffffffffff1673ffffffffffffffffffffffffffffffffffffffff16815260200190815260200160002060009054906101000a900460ff161515156118e257600080fd5b600180600087815260200190815260200160002060003373ffffffffffffffffffffffffffffffffffffffff1673ffffffffffffffffffffffffffffffffffffffff16815260200190815260200160002060006101000a81548160ff021916908315150217905550843373ffffffffffffffffffffffffffffffffffffffff167f4a504a94899432a9846e1aa406dceb1bcfd538bb839071d49d1e5e23f5be30ef60405160405180910390a361199785611cdd565b5050505050565b60006119ab848484611f5c565b90506119b6816117c1565b9392505050565b603281565b60045481565b60003073ffffffffffffffffffffffffffffffffffffffff163373ffffffffffffffffffffffffffffffffffffffff16141515611a0457600080fd5b82600260008273ffffffffffffffffffffffffffffffffffffffff1673ffffffffffffffffffffffffffffffffffffffff16815260200190815260200160002060009054906101000a900460ff161515611a5d57600080fd5b82600260008273ffffffffffffffffffffffffffffffffffffffff1673ffffffffffffffffffffffffffffffffffffffff16815260200190815260200160002060009054906101000a900460ff16151515611ab757600080fd5b600092505b600380549050831015611ba0578473ffffffffffffffffffffffffffffffffffffffff16600384815481101515611aef57fe5b9060005260206000200160009054906101000a900473ffffffffffffffffffffffffffffffffffffffff1673ffffffffffffffffffffffffffffffffffffffff161415611b935783600384815481101515611b4657fe5b9060005260206000200160006101000a81548173ffffffffffffffffffffffffffffffffffffffff021916908373ffffffffffffffffffffffffffffffffffffffff160217905550611ba0565b8280600101935050611abc565b6000600260008773ffffffffffffffffffffffffffffffffffffffff1673ffffffffffffffffffffffffffffffffffffffff16815260200190815260200160002060006101000a81548160ff0219169083151502179055506001600260008673ffffffffffffffffffffffffffffffffffffffff1673ffffffffffffffffffffffffffffffffffffffff16815260200190815260200160002060006101000a81548160ff0219169083151502179055508473ffffffffffffffffffffffffffffffffffffffff167f8001553a916ef2f495d26a907cc54d96ed840d7bda71e73194bf5a9df7a76b9060405160405180910390a28373ffffffffffffffffffffffffffffffffffffffff167ff39e6e1eb0edcf53c221607b54b00cd28f3196fed0a24994dc308b8f611b682d60405160405180910390a25050505050565b600033600260008273ffffffffffffffffffffffffffffffffffffffff1673ffffffffffffffffffffffffffffffffffffffff16815260200190815260200160002060009054906101000a900460ff161515611d3857600080fd5b82336001600083815260200190815260200160002060008273ffffffffffffffffffffffffffffffffffffffff1673ffffffffffffffffffffffffffffffffffffffff16815260200190815260200160002060009054906101000a900460ff161515611da357600080fd5b8460008082815260200190815260200160002060030160009054906101000a900460ff16151515611dd357600080fd5b611ddc86611020565b15611f5457600080878152602001908152602001600020945060018560030160006101000a81548160ff0219169083151502179055508460000160009054906101000a900473ffffffffffffffffffffffffffffffffffffffff1673ffffffffffffffffffffffffffffffffffffffff168560010154866002016040518082805460018160011615610100020316600290048015611ebb5780601f10611e9057610100808354040283529160200191611ebb565b820191906000526020600020905b815481529060010190602001808311611e9e57829003601f168201915b505091505060006040518083038185875af19250505015611f0857857f33e13ecb54c3076d8e8bb8c2881800a4d972b792045ffae98fdf46df365fed7560405160405180910390a2611f53565b857f526441bb6c1aba3c9a4a6ca1d6545da9c2333c8c48343ef398eb858d72b7923660405160405180910390a260008560030160006101000a81548160ff0219169083151502179055505b5b505050505050565b60008360008173ffffffffffffffffffffffffffffffffffffffff1614151515611f8557600080fd5b60055491506080604051908101604052808673ffffffffffffffffffffffffffffffffffffffff1681526020018581526020018481526020016000151581525060008084815260200190815260200160002060008201518160000160006101000a81548173ffffffffffffffffffffffffffffffffffffffff021916908373ffffffffffffffffffffffffffffffffffffffff1602179055506020820151816001015560408201518160020190805190602001906120449291906120da565b5060608201518160030160006101000a81548160ff0219169083151502179055509050506001600560008282540192505081905550817fc0ba8fe4b176c1714197d43b9cc6bcf797a4a7461c5fe8d0ef6e184ae7601e5160405160405180910390a2509392505050565b8154818355818111156120d5578183600052602060002091820191016120d4919061215a565b5b505050565b828054600181600116156101000203166002900490600052602060002090601f016020900481019282601f1061211b57805160ff1916838001178555612149565b82800160010185558215612149579182015b8281111561214857825182559160200191906001019061212d565b5b509050612156919061215a565b5090565b61217c91905b80821115612178576000816000905550600101612160565b5090565b905600a165627a7a72305820a60aac6e63ec7d2933a8ecfe22d338da2fd0d74a57980216f74acc0f53bbc3250029",
					"opcodes": "PUSH1 0x80 PUSH1 0x40 MSTORE CALLVALUE DUP1 ISZERO PUSH3 0x11 JUMPI PUSH1 0x0 DUP1 REVERT JUMPDEST POP PUSH1 0x40 MLOAD PUSH3 0x2478 CODESIZE SUB DUP1 PUSH3 0x2478 DUP4 CODECOPY DUP2 ADD DUP1 PUSH1 0x40 MSTORE DUP2 ADD SWAP1 DUP1 DUP1 MLOAD DUP3 ADD SWAP3 SWAP2 SWAP1 PUSH1 0x20 ADD DUP1 MLOAD SWAP1 PUSH1 0x20 ADD SWAP1 SWAP3 SWAP2 SWAP1 POP POP POP PUSH1 0x0 DUP3 MLOAD DUP3 PUSH1 0x32 DUP3 GT ISZERO DUP1 ISZERO PUSH3 0x5A JUMPI POP DUP2 DUP2 GT ISZERO JUMPDEST DUP1 ISZERO PUSH3 0x68 JUMPI POP PUSH1 0x0 DUP2 EQ ISZERO JUMPDEST DUP1 ISZERO PUSH3 0x76 JUMPI POP PUSH1 0x0 DUP3 EQ ISZERO JUMPDEST ISZERO ISZERO PUSH3 0x82 JUMPI PUSH1 0x0 DUP1 REVERT JUMPDEST PUSH1 0x0 SWAP3 POP JUMPDEST DUP5 MLOAD DUP4 LT ISZERO PUSH3 0x1BD JUMPI PUSH1 0x2 PUSH1 0x0 DUP7 DUP6 DUP2 MLOAD DUP2 LT ISZERO ISZERO PUSH3 0xA4 JUMPI INVALID JUMPDEST SWAP1 PUSH1 0x20 ADD SWAP1 PUSH1 0x20 MUL ADD MLOAD PUSH20 0xFFFFFFFFFFFFFFFFFFFFFFFFFFFFFFFFFFFFFFFF AND PUSH20 0xFFFFFFFFFFFFFFFFFFFFFFFFFFFFFFFFFFFFFFFF AND DUP2 MSTORE PUSH1 0x20 ADD SWAP1 DUP2 MSTORE PUSH1 0x20 ADD PUSH1 0x0 KECCAK256 PUSH1 0x0 SWAP1 SLOAD SWAP1 PUSH2 0x100 EXP SWAP1 DIV PUSH1 0xFF AND ISZERO DUP1 ISZERO PUSH3 0x133 JUMPI POP PUSH1 0x0 DUP6 DUP5 DUP2 MLOAD DUP2 LT ISZERO ISZERO PUSH3 0x110 JUMPI INVALID JUMPDEST SWAP1 PUSH1 0x20 ADD SWAP1 PUSH1 0x20 MUL ADD MLOAD PUSH20 0xFFFFFFFFFFFFFFFFFFFFFFFFFFFFFFFFFFFFFFFF AND EQ ISZERO JUMPDEST ISZERO ISZERO PUSH3 0x13F JUMPI PUSH1 0x0 DUP1 REVERT JUMPDEST PUSH1 0x1 PUSH1 0x2 PUSH1 0x0 DUP8 DUP7 DUP2 MLOAD DUP2 LT ISZERO ISZERO PUSH3 0x154 JUMPI INVALID JUMPDEST SWAP1 PUSH1 0x20 ADD SWAP1 PUSH1 0x20 MUL ADD MLOAD PUSH20 0xFFFFFFFFFFFFFFFFFFFFFFFFFFFFFFFFFFFFFFFF AND PUSH20 0xFFFFFFFFFFFFFFFFFFFFFFFFFFFFFFFFFFFFFFFF AND DUP2 MSTORE PUSH1 0x20 ADD SWAP1 DUP2 MSTORE PUSH1 0x20 ADD PUSH1 0x0 KECCAK256 PUSH1 0x0 PUSH2 0x100 EXP DUP2 SLOAD DUP2 PUSH1 0xFF MUL NOT AND SWAP1 DUP4 ISZERO ISZERO MUL OR SWAP1 SSTORE POP DUP3 DUP1 PUSH1 0x1 ADD SWAP4 POP POP PUSH3 0x87 JUMP JUMPDEST DUP5 PUSH1 0x3 SWAP1 DUP1 MLOAD SWAP1 PUSH1 0x20 ADD SWAP1 PUSH3 0x1D5 SWAP3 SWAP2 SWAP1 PUSH3 0x1E8 JUMP JUMPDEST POP DUP4 PUSH1 0x4 DUP2 SWAP1 SSTORE POP POP POP POP POP POP PUSH3 0x2BD JUMP JUMPDEST DUP3 DUP1 SLOAD DUP3 DUP3 SSTORE SWAP1 PUSH1 0x0 MSTORE PUSH1 0x20 PUSH1 0x0 KECCAK256 SWAP1 DUP2 ADD SWAP3 DUP3 ISZERO PUSH3 0x264 JUMPI SWAP2 PUSH1 0x20 MUL DUP3 ADD JUMPDEST DUP3 DUP2 GT ISZERO PUSH3 0x263 JUMPI DUP3 MLOAD DUP3 PUSH1 0x0 PUSH2 0x100 EXP DUP2 SLOAD DUP2 PUSH20 0xFFFFFFFFFFFFFFFFFFFFFFFFFFFFFFFFFFFFFFFF MUL NOT AND SWAP1 DUP4 PUSH20 0xFFFFFFFFFFFFFFFFFFFFFFFFFFFFFFFFFFFFFFFF AND MUL OR SWAP1 SSTORE POP SWAP2 PUSH1 0x20 ADD SWAP2 SWAP1 PUSH1 0x1 ADD SWAP1 PUSH3 0x209 JUMP JUMPDEST JUMPDEST POP SWAP1 POP PUSH3 0x273 SWAP2 SWAP1 PUSH3 0x277 JUMP JUMPDEST POP SWAP1 JUMP JUMPDEST PUSH3 0x2BA SWAP2 SWAP1 JUMPDEST DUP1 DUP3 GT ISZERO PUSH3 0x2B6 JUMPI PUSH1 0x0 DUP2 DUP2 PUSH2 0x100 EXP DUP2 SLOAD SWAP1 PUSH20 0xFFFFFFFFFFFFFFFFFFFFFFFFFFFFFFFFFFFFFFFF MUL NOT AND SWAP1 SSTORE POP PUSH1 0x1 ADD PUSH3 0x27E JUMP JUMPDEST POP SWAP1 JUMP JUMPDEST SWAP1 JUMP JUMPDEST PUSH2 0x21AB DUP1 PUSH3 0x2CD PUSH1 0x0 CODECOPY PUSH1 0x0 RETURN STOP PUSH1 0x80 PUSH1 0x40 MSTORE PUSH1 0x4 CALLDATASIZE LT PUSH2 0x11D JUMPI PUSH1 0x0 CALLDATALOAD PUSH29 0x100000000000000000000000000000000000000000000000000000000 SWAP1 DIV PUSH4 0xFFFFFFFF AND DUP1 PUSH4 0x25E7C27 EQ PUSH2 0x177 JUMPI DUP1 PUSH4 0x173825D9 EQ PUSH2 0x1E4 JUMPI DUP1 PUSH4 0x20EA8D86 EQ PUSH2 0x227 JUMPI DUP1 PUSH4 0x2F54BF6E EQ PUSH2 0x254 JUMPI DUP1 PUSH4 0x3411C81C EQ PUSH2 0x2AF JUMPI DUP1 PUSH4 0x54741525 EQ PUSH2 0x314 JUMPI DUP1 PUSH4 0x7065CB48 EQ PUSH2 0x363 JUMPI DUP1 PUSH4 0x784547A7 EQ PUSH2 0x3A6 JUMPI DUP1 PUSH4 0x8B51D13F EQ PUSH2 0x3EB JUMPI DUP1 PUSH4 0x9ACE38C2 EQ PUSH2 0x42C JUMPI DUP1 PUSH4 0xA0E67E2B EQ PUSH2 0x517 JUMPI DUP1 PUSH4 0xA8ABE69A EQ PUSH2 0x583 JUMPI DUP1 PUSH4 0xB5DC40C3 EQ PUSH2 0x627 JUMPI DUP1 PUSH4 0xB77BF600 EQ PUSH2 0x6A9 JUMPI DUP1 PUSH4 0xBA51A6DF EQ PUSH2 0x6D4 JUMPI DUP1 PUSH4 0xC01A8C84 EQ PUSH2 0x701 JUMPI DUP1 PUSH4 0xC6427474 EQ PUSH2 0x72E JUMPI DUP1 PUSH4 0xD74F8EDD EQ PUSH2 0x7D5 JUMPI DUP1 PUSH4 0xDC8452CD EQ PUSH2 0x800 JUMPI DUP1 PUSH4 0xE20056E6 EQ PUSH2 0x82B JUMPI DUP1 PUSH4 0xEE22610B EQ PUSH2 0x88E JUMPI JUMPDEST PUSH1 0x0 CALLVALUE GT ISZERO PUSH2 0x175 JUMPI CALLER PUSH20 0xFFFFFFFFFFFFFFFFFFFFFFFFFFFFFFFFFFFFFFFF AND PUSH32 0xE1FFFCC4923D04B559F4D29A8BFC6CDA04EB5B0D3C460751C2402C5C5CC9109C CALLVALUE PUSH1 0x40 MLOAD DUP1 DUP3 DUP2 MSTORE PUSH1 0x20 ADD SWAP2 POP POP PUSH1 0x40 MLOAD DUP1 SWAP2 SUB SWAP1 LOG2 JUMPDEST STOP JUMPDEST CALLVALUE DUP1 ISZERO PUSH2 0x183 JUMPI PUSH1 0x0 DUP1 REVERT JUMPDEST POP PUSH2 0x1A2 PUSH1 0x4 DUP1 CALLDATASIZE SUB DUP2 ADD SWAP1 DUP1 DUP1 CALLDATALOAD SWAP1 PUSH1 0x20 ADD SWAP1 SWAP3 SWAP2 SWAP1 POP POP POP PUSH2 0x8BB JUMP JUMPDEST PUSH1 0x40 MLOAD DUP1 DUP3 PUSH20 0xFFFFFFFFFFFFFFFFFFFFFFFFFFFFFFFFFFFFFFFF AND PUSH20 0xFFFFFFFFFFFFFFFFFFFFFFFFFFFFFFFFFFFFFFFF AND DUP2 MSTORE PUSH1 0x20 ADD SWAP2 POP POP PUSH1 0x40 MLOAD DUP1 SWAP2 SUB SWAP1 RETURN JUMPDEST CALLVALUE DUP1 ISZERO PUSH2 0x1F0 JUMPI PUSH1 0x0 DUP1 REVERT JUMPDEST POP PUSH2 0x225 PUSH1 0x4 DUP1 CALLDATASIZE SUB DUP2 ADD SWAP1 DUP1 DUP1 CALLDATALOAD PUSH20 0xFFFFFFFFFFFFFFFFFFFFFFFFFFFFFFFFFFFFFFFF AND SWAP1 PUSH1 0x20 ADD SWAP1 SWAP3 SWAP2 SWAP1 POP POP POP PUSH2 0x8F9 JUMP JUMPDEST STOP JUMPDEST CALLVALUE DUP1 ISZERO PUSH2 0x233 JUMPI PUSH1 0x0 DUP1 REVERT JUMPDEST POP PUSH2 0x252 PUSH1 0x4 DUP1 CALLDATASIZE SUB DUP2 ADD SWAP1 DUP1 DUP1 CALLDATALOAD SWAP1 PUSH1 0x20 ADD SWAP1 SWAP3 SWAP2 SWAP1 POP POP POP PUSH2 0xB92 JUMP JUMPDEST STOP JUMPDEST CALLVALUE DUP1 ISZERO PUSH2 0x260 JUMPI PUSH1 0x0 DUP1 REVERT JUMPDEST POP PUSH2 0x295 PUSH1 0x4 DUP1 CALLDATASIZE SUB DUP2 ADD SWAP1 DUP1 DUP1 CALLDATALOAD PUSH20 0xFFFFFFFFFFFFFFFFFFFFFFFFFFFFFFFFFFFFFFFF AND SWAP1 PUSH1 0x20 ADD SWAP1 SWAP3 SWAP2 SWAP1 POP POP POP PUSH2 0xD3A JUMP JUMPDEST PUSH1 0x40 MLOAD DUP1 DUP3 ISZERO ISZERO ISZERO ISZERO DUP2 MSTORE PUSH1 0x20 ADD SWAP2 POP POP PUSH1 0x40 MLOAD DUP1 SWAP2 SUB SWAP1 RETURN JUMPDEST CALLVALUE DUP1 ISZERO PUSH2 0x2BB JUMPI PUSH1 0x0 DUP1 REVERT JUMPDEST POP PUSH2 0x2FA PUSH1 0x4 DUP1 CALLDATASIZE SUB DUP2 ADD SWAP1 DUP1 DUP1 CALLDATALOAD SWAP1 PUSH1 0x20 ADD SWAP1 SWAP3 SWAP2 SWAP1 DUP1 CALLDATALOAD PUSH20 0xFFFFFFFFFFFFFFFFFFFFFFFFFFFFFFFFFFFFFFFF AND SWAP1 PUSH1 0x20 ADD SWAP1 SWAP3 SWAP2 SWAP1 POP POP POP PUSH2 0xD5A JUMP JUMPDEST PUSH1 0x40 MLOAD DUP1 DUP3 ISZERO ISZERO ISZERO ISZERO DUP2 MSTORE PUSH1 0x20 ADD SWAP2 POP POP PUSH1 0x40 MLOAD DUP1 SWAP2 SUB SWAP1 RETURN JUMPDEST CALLVALUE DUP1 ISZERO PUSH2 0x320 JUMPI PUSH1 0x0 DUP1 REVERT JUMPDEST POP PUSH2 0x34D PUSH1 0x4 DUP1 CALLDATASIZE SUB DUP2 ADD SWAP1 DUP1 DUP1 CALLDATALOAD ISZERO ISZERO SWAP1 PUSH1 0x20 ADD SWAP1 SWAP3 SWAP2 SWAP1 DUP1 CALLDATALOAD ISZERO ISZERO SWAP1 PUSH1 0x20 ADD SWAP1 SWAP3 SWAP2 SWAP1 POP POP POP PUSH2 0xD89 JUMP JUMPDEST PUSH1 0x40 MLOAD DUP1 DUP3 DUP2 MSTORE PUSH1 0x20 ADD SWAP2 POP POP PUSH1 0x40 MLOAD DUP1 SWAP2 SUB SWAP1 RETURN JUMPDEST CALLVALUE DUP1 ISZERO PUSH2 0x36F JUMPI PUSH1 0x0 DUP1 REVERT JUMPDEST POP PUSH2 0x3A4 PUSH1 0x4 DUP1 CALLDATASIZE SUB DUP2 ADD SWAP1 DUP1 DUP1 CALLDATALOAD PUSH20 0xFFFFFFFFFFFFFFFFFFFFFFFFFFFFFFFFFFFFFFFF AND SWAP1 PUSH1 0x20 ADD SWAP1 SWAP3 SWAP2 SWAP1 POP POP POP PUSH2 0xE1B JUMP JUMPDEST STOP JUMPDEST CALLVALUE DUP1 ISZERO PUSH2 0x3B2 JUMPI PUSH1 0x0 DUP1 REVERT JUMPDEST POP PUSH2 0x3D1 PUSH1 0x4 DUP1 CALLDATASIZE SUB DUP2 ADD SWAP1 DUP1 DUP1 CALLDATALOAD SWAP1 PUSH1 0x20 ADD SWAP1 SWAP3 SWAP2 SWAP1 POP POP POP PUSH2 0x1020 JUMP JUMPDEST PUSH1 0x40 MLOAD DUP1 DUP3 ISZERO ISZERO ISZERO ISZERO DUP2 MSTORE PUSH1 0x20 ADD SWAP2 POP POP PUSH1 0x40 MLOAD DUP1 SWAP2 SUB SWAP1 RETURN JUMPDEST CALLVALUE DUP1 ISZERO PUSH2 0x3F7 JUMPI PUSH1 0x0 DUP1 REVERT JUMPDEST POP PUSH2 0x416 PUSH1 0x4 DUP1 CALLDATASIZE SUB DUP2 ADD SWAP1 DUP1 DUP1 CALLDATALOAD SWAP1 PUSH1 0x20 ADD SWAP1 SWAP3 SWAP2 SWAP1 POP POP POP PUSH2 0x1105 JUMP JUMPDEST PUSH1 0x40 MLOAD DUP1 DUP3 DUP2 MSTORE PUSH1 0x20 ADD SWAP2 POP POP PUSH1 0x40 MLOAD DUP1 SWAP2 SUB SWAP1 RETURN JUMPDEST CALLVALUE DUP1 ISZERO PUSH2 0x438 JUMPI PUSH1 0x0 DUP1 REVERT JUMPDEST POP PUSH2 0x457 PUSH1 0x4 DUP1 CALLDATASIZE SUB DUP2 ADD SWAP1 DUP1 DUP1 CALLDATALOAD SWAP1 PUSH1 0x20 ADD SWAP1 SWAP3 SWAP2 SWAP1 POP POP POP PUSH2 0x11D0 JUMP JUMPDEST PUSH1 0x40 MLOAD DUP1 DUP6 PUSH20 0xFFFFFFFFFFFFFFFFFFFFFFFFFFFFFFFFFFFFFFFF AND PUSH20 0xFFFFFFFFFFFFFFFFFFFFFFFFFFFFFFFFFFFFFFFF AND DUP2 MSTORE PUSH1 0x20 ADD DUP5 DUP2 MSTORE PUSH1 0x20 ADD DUP1 PUSH1 0x20 ADD DUP4 ISZERO ISZERO ISZERO ISZERO DUP2 MSTORE PUSH1 0x20 ADD DUP3 DUP2 SUB DUP3 MSTORE DUP5 DUP2 DUP2 MLOAD DUP2 MSTORE PUSH1 0x20 ADD SWAP2 POP DUP1 MLOAD SWAP1 PUSH1 0x20 ADD SWAP1 DUP1 DUP4 DUP4 PUSH1 0x0 JUMPDEST DUP4 DUP2 LT ISZERO PUSH2 0x4D9 JUMPI DUP1 DUP3 ADD MLOAD DUP2 DUP5 ADD MSTORE PUSH1 0x20 DUP2 ADD SWAP1 POP PUSH2 0x4BE JUMP JUMPDEST POP POP POP POP SWAP1 POP SWAP1 DUP2 ADD SWAP1 PUSH1 0x1F AND DUP1 ISZERO PUSH2 0x506 JUMPI DUP1 DUP3 SUB DUP1 MLOAD PUSH1 0x1 DUP4 PUSH1 0x20 SUB PUSH2 0x100 EXP SUB NOT AND DUP2 MSTORE PUSH1 0x20 ADD SWAP2 POP JUMPDEST POP SWAP6 POP POP POP POP POP POP PUSH1 0x40 MLOAD DUP1 SWAP2 SUB SWAP1 RETURN JUMPDEST CALLVALUE DUP1 ISZERO PUSH2 0x523 JUMPI PUSH1 0x0 DUP1 REVERT JUMPDEST POP PUSH2 0x52C PUSH2 0x12C5 JUMP JUMPDEST PUSH1 0x40 MLOAD DUP1 DUP1 PUSH1 0x20 ADD DUP3 DUP2 SUB DUP3 MSTORE DUP4 DUP2 DUP2 MLOAD DUP2 MSTORE PUSH1 0x20 ADD SWAP2 POP DUP1 MLOAD SWAP1 PUSH1 0x20 ADD SWAP1 PUSH1 0x20 MUL DUP1 DUP4 DUP4 PUSH1 0x0 JUMPDEST DUP4 DUP2 LT ISZERO PUSH2 0x56F JUMPI DUP1 DUP3 ADD MLOAD DUP2 DUP5 ADD MSTORE PUSH1 0x20 DUP2 ADD SWAP1 POP PUSH2 0x554 JUMP JUMPDEST POP POP POP POP SWAP1 POP ADD SWAP3 POP POP POP PUSH1 0x40 MLOAD DUP1 SWAP2 SUB SWAP1 RETURN JUMPDEST CALLVALUE DUP1 ISZERO PUSH2 0x58F JUMPI PUSH1 0x0 DUP1 REVERT JUMPDEST POP PUSH2 0x5D0 PUSH1 0x4 DUP1 CALLDATASIZE SUB DUP2 ADD SWAP1 DUP1 DUP1 CALLDATALOAD SWAP1 PUSH1 0x20 ADD SWAP1 SWAP3 SWAP2 SWAP1 DUP1 CALLDATALOAD SWAP1 PUSH1 0x20 ADD SWAP1 SWAP3 SWAP2 SWAP1 DUP1 CALLDATALOAD ISZERO ISZERO SWAP1 PUSH1 0x20 ADD SWAP1 SWAP3 SWAP2 SWAP1 DUP1 CALLDATALOAD ISZERO ISZERO SWAP1 PUSH1 0x20 ADD SWAP1 SWAP3 SWAP2 SWAP1 POP POP POP PUSH2 0x1353 JUMP JUMPDEST PUSH1 0x40 MLOAD DUP1 DUP1 PUSH1 0x20 ADD DUP3 DUP2 SUB DUP3 MSTORE DUP4 DUP2 DUP2 MLOAD DUP2 MSTORE PUSH1 0x20 ADD SWAP2 POP DUP1 MLOAD SWAP1 PUSH1 0x20 ADD SWAP1 PUSH1 0x20 MUL DUP1 DUP4 DUP4 PUSH1 0x0 JUMPDEST DUP4 DUP2 LT ISZERO PUSH2 0x613 JUMPI DUP1 DUP3 ADD MLOAD DUP2 DUP5 ADD MSTORE PUSH1 0x20 DUP2 ADD SWAP1 POP PUSH2 0x5F8 JUMP JUMPDEST POP POP POP POP SWAP1 POP ADD SWAP3 POP POP POP PUSH1 0x40 MLOAD DUP1 SWAP2 SUB SWAP1 RETURN JUMPDEST CALLVALUE DUP1 ISZERO PUSH2 0x633 JUMPI PUSH1 0x0 DUP1 REVERT JUMPDEST POP PUSH2 0x652 PUSH1 0x4 DUP1 CALLDATASIZE SUB DUP2 ADD SWAP1 DUP1 DUP1 CALLDATALOAD SWAP1 PUSH1 0x20 ADD SWAP1 SWAP3 SWAP2 SWAP1 POP POP POP PUSH2 0x14C4 JUMP JUMPDEST PUSH1 0x40 MLOAD DUP1 DUP1 PUSH1 0x20 ADD DUP3 DUP2 SUB DUP3 MSTORE DUP4 DUP2 DUP2 MLOAD DUP2 MSTORE PUSH1 0x20 ADD SWAP2 POP DUP1 MLOAD SWAP1 PUSH1 0x20 ADD SWAP1 PUSH1 0x20 MUL DUP1 DUP4 DUP4 PUSH1 0x0 JUMPDEST DUP4 DUP2 LT ISZERO PUSH2 0x695 JUMPI DUP1 DUP3 ADD MLOAD DUP2 DUP5 ADD MSTORE PUSH1 0x20 DUP2 ADD SWAP1 POP PUSH2 0x67A JUMP JUMPDEST POP POP POP POP SWAP1 POP ADD SWAP3 POP POP POP PUSH1 0x40 MLOAD DUP1 SWAP2 SUB SWAP1 RETURN JUMPDEST CALLVALUE DUP1 ISZERO PUSH2 0x6B5 JUMPI PUSH1 0x0 DUP1 REVERT JUMPDEST POP PUSH2 0x6BE PUSH2 0x1701 JUMP JUMPDEST PUSH1 0x40 MLOAD DUP1 DUP3 DUP2 MSTORE PUSH1 0x20 ADD SWAP2 POP POP PUSH1 0x40 MLOAD DUP1 SWAP2 SUB SWAP1 RETURN JUMPDEST CALLVALUE DUP1 ISZERO PUSH2 0x6E0 JUMPI PUSH1 0x0 DUP1 REVERT JUMPDEST POP PUSH2 0x6FF PUSH1 0x4 DUP1 CALLDATASIZE SUB DUP2 ADD SWAP1 DUP1 DUP1 CALLDATALOAD SWAP1 PUSH1 0x20 ADD SWAP1 SWAP3 SWAP2 SWAP1 POP POP POP PUSH2 0x1707 JUMP JUMPDEST STOP JUMPDEST CALLVALUE DUP1 ISZERO PUSH2 0x70D JUMPI PUSH1 0x0 DUP1 REVERT JUMPDEST POP PUSH2 0x72C PUSH1 0x4 DUP1 CALLDATASIZE SUB DUP2 ADD SWAP1 DUP1 DUP1 CALLDATALOAD SWAP1 PUSH1 0x20 ADD SWAP1 SWAP3 SWAP2 SWAP1 POP POP POP PUSH2 0x17C1 JUMP JUMPDEST STOP JUMPDEST CALLVALUE DUP1 ISZERO PUSH2 0x73A JUMPI PUSH1 0x0 DUP1 REVERT JUMPDEST POP PUSH2 0x7BF PUSH1 0x4 DUP1 CALLDATASIZE SUB DUP2 ADD SWAP1 DUP1 DUP1 CALLDATALOAD PUSH20 0xFFFFFFFFFFFFFFFFFFFFFFFFFFFFFFFFFFFFFFFF AND SWAP1 PUSH1 0x20 ADD SWAP1 SWAP3 SWAP2 SWAP1 DUP1 CALLDATALOAD SWAP1 PUSH1 0x20 ADD SWAP1 SWAP3 SWAP2 SWAP1 DUP1 CALLDATALOAD SWAP1 PUSH1 0x20 ADD SWAP1 DUP3 ADD DUP1 CALLDATALOAD SWAP1 PUSH1 0x20 ADD SWAP1 DUP1 DUP1 PUSH1 0x1F ADD PUSH1 0x20 DUP1 SWAP2 DIV MUL PUSH1 0x20 ADD PUSH1 0x40 MLOAD SWAP1 DUP2 ADD PUSH1 0x40 MSTORE DUP1 SWAP4 SWAP3 SWAP2 SWAP1 DUP2 DUP2 MSTORE PUSH1 0x20 ADD DUP4 DUP4 DUP1 DUP3 DUP5 CALLDATACOPY DUP3 ADD SWAP2 POP POP POP POP POP POP SWAP2 SWAP3 SWAP2 SWAP3 SWAP1 POP POP POP PUSH2 0x199E JUMP JUMPDEST PUSH1 0x40 MLOAD DUP1 DUP3 DUP2 MSTORE PUSH1 0x20 ADD SWAP2 POP POP PUSH1 0x40 MLOAD DUP1 SWAP2 SUB SWAP1 RETURN JUMPDEST CALLVALUE DUP1 ISZERO PUSH2 0x7E1 JUMPI PUSH1 0x0 DUP1 REVERT JUMPDEST POP PUSH2 0x7EA PUSH2 0x19BD JUMP JUMPDEST PUSH1 0x40 MLOAD DUP1 DUP3 DUP2 MSTORE PUSH1 0x20 ADD SWAP2 POP POP PUSH1 0x40 MLOAD DUP1 SWAP2 SUB SWAP1 RETURN JUMPDEST CALLVALUE DUP1 ISZERO PUSH2 0x80C JUMPI PUSH1 0x0 DUP1 REVERT JUMPDEST POP PUSH2 0x815 PUSH2 0x19C2 JUMP JUMPDEST PUSH1 0x40 MLOAD DUP1 DUP3 DUP2 MSTORE PUSH1 0x20 ADD SWAP2 POP POP PUSH1 0x40 MLOAD DUP1 SWAP2 SUB SWAP1 RETURN JUMPDEST CALLVALUE DUP1 ISZERO PUSH2 0x837 JUMPI PUSH1 0x0 DUP1 REVERT JUMPDEST POP PUSH2 0x88C PUSH1 0x4 DUP1 CALLDATASIZE SUB DUP2 ADD SWAP1 DUP1 DUP1 CALLDATALOAD PUSH20 0xFFFFFFFFFFFFFFFFFFFFFFFFFFFFFFFFFFFFFFFF AND SWAP1 PUSH1 0x20 ADD SWAP1 SWAP3 SWAP2 SWAP1 DUP1 CALLDATALOAD PUSH20 0xFFFFFFFFFFFFFFFFFFFFFFFFFFFFFFFFFFFFFFFF AND SWAP1 PUSH1 0x20 ADD SWAP1 SWAP3 SWAP2 SWAP1 POP POP POP PUSH2 0x19C8 JUMP JUMPDEST STOP JUMPDEST CALLVALUE DUP1 ISZERO PUSH2 0x89A JUMPI PUSH1 0x0 DUP1 REVERT JUMPDEST POP PUSH2 0x8B9 PUSH1 0x4 DUP1 CALLDATASIZE SUB DUP2 ADD SWAP1 DUP1 DUP1 CALLDATALOAD SWAP1 PUSH1 0x20 ADD SWAP1 SWAP3 SWAP2 SWAP1 POP POP POP PUSH2 0x1CDD JUMP JUMPDEST STOP JUMPDEST PUSH1 0x3 DUP2 DUP2 SLOAD DUP2 LT ISZERO ISZERO PUSH2 0x8CA JUMPI INVALID JUMPDEST SWAP1 PUSH1 0x0 MSTORE PUSH1 0x20 PUSH1 0x0 KECCAK256 ADD PUSH1 0x0 SWAP2 POP SLOAD SWAP1 PUSH2 0x100 EXP SWAP1 DIV PUSH20 0xFFFFFFFFFFFFFFFFFFFFFFFFFFFFFFFFFFFFFFFF AND DUP2 JUMP JUMPDEST PUSH1 0x0 ADDRESS PUSH20 0xFFFFFFFFFFFFFFFFFFFFFFFFFFFFFFFFFFFFFFFF AND CALLER PUSH20 0xFFFFFFFFFFFFFFFFFFFFFFFFFFFFFFFFFFFFFFFF AND EQ ISZERO ISZERO PUSH2 0x935 JUMPI PUSH1 0x0 DUP1 REVERT JUMPDEST DUP2 PUSH1 0x2 PUSH1 0x0 DUP3 PUSH20 0xFFFFFFFFFFFFFFFFFFFFFFFFFFFFFFFFFFFFFFFF AND PUSH20 0xFFFFFFFFFFFFFFFFFFFFFFFFFFFFFFFFFFFFFFFF AND DUP2 MSTORE PUSH1 0x20 ADD SWAP1 DUP2 MSTORE PUSH1 0x20 ADD PUSH1 0x0 KECCAK256 PUSH1 0x0 SWAP1 SLOAD SWAP1 PUSH2 0x100 EXP SWAP1 DIV PUSH1 0xFF AND ISZERO ISZERO PUSH2 0x98E JUMPI PUSH1 0x0 DUP1 REVERT JUMPDEST PUSH1 0x0 PUSH1 0x2 PUSH1 0x0 DUP6 PUSH20 0xFFFFFFFFFFFFFFFFFFFFFFFFFFFFFFFFFFFFFFFF AND PUSH20 0xFFFFFFFFFFFFFFFFFFFFFFFFFFFFFFFFFFFFFFFF AND DUP2 MSTORE PUSH1 0x20 ADD SWAP1 DUP2 MSTORE PUSH1 0x20 ADD PUSH1 0x0 KECCAK256 PUSH1 0x0 PUSH2 0x100 EXP DUP2 SLOAD DUP2 PUSH1 0xFF MUL NOT AND SWAP1 DUP4 ISZERO ISZERO MUL OR SWAP1 SSTORE POP PUSH1 0x0 SWAP2 POP JUMPDEST PUSH1 0x1 PUSH1 0x3 DUP1 SLOAD SWAP1 POP SUB DUP3 LT ISZERO PUSH2 0xB13 JUMPI DUP3 PUSH20 0xFFFFFFFFFFFFFFFFFFFFFFFFFFFFFFFFFFFFFFFF AND PUSH1 0x3 DUP4 DUP2 SLOAD DUP2 LT ISZERO ISZERO PUSH2 0xA21 JUMPI INVALID JUMPDEST SWAP1 PUSH1 0x0 MSTORE PUSH1 0x20 PUSH1 0x0 KECCAK256 ADD PUSH1 0x0 SWAP1 SLOAD SWAP1 PUSH2 0x100 EXP SWAP1 DIV PUSH20 0xFFFFFFFFFFFFFFFFFFFFFFFFFFFFFFFFFFFFFFFF AND PUSH20 0xFFFFFFFFFFFFFFFFFFFFFFFFFFFFFFFFFFFFFFFF AND EQ ISZERO PUSH2 0xB06 JUMPI PUSH1 0x3 PUSH1 0x1 PUSH1 0x3 DUP1 SLOAD SWAP1 POP SUB DUP2 SLOAD DUP2 LT ISZERO ISZERO PUSH2 0xA7F JUMPI INVALID JUMPDEST SWAP1 PUSH1 0x0 MSTORE PUSH1 0x20 PUSH1 0x0 KECCAK256 ADD PUSH1 0x0 SWAP1 SLOAD SWAP1 PUSH2 0x100 EXP SWAP1 DIV PUSH20 0xFFFFFFFFFFFFFFFFFFFFFFFFFFFFFFFFFFFFFFFF AND PUSH1 0x3 DUP4 DUP2 SLOAD DUP2 LT ISZERO ISZERO PUSH2 0xAB9 JUMPI INVALID JUMPDEST SWAP1 PUSH1 0x0 MSTORE PUSH1 0x20 PUSH1 0x0 KECCAK256 ADD PUSH1 0x0 PUSH2 0x100 EXP DUP2 SLOAD DUP2 PUSH20 0xFFFFFFFFFFFFFFFFFFFFFFFFFFFFFFFFFFFFFFFF MUL NOT AND SWAP1 DUP4 PUSH20 0xFFFFFFFFFFFFFFFFFFFFFFFFFFFFFFFFFFFFFFFF AND MUL OR SWAP1 SSTORE POP PUSH2 0xB13 JUMP JUMPDEST DUP2 DUP1 PUSH1 0x1 ADD SWAP3 POP POP PUSH2 0x9EB JUMP JUMPDEST PUSH1 0x1 PUSH1 0x3 DUP2 DUP2 DUP1 SLOAD SWAP1 POP SUB SWAP2 POP DUP2 PUSH2 0xB2B SWAP2 SWAP1 PUSH2 0x20AE JUMP JUMPDEST POP PUSH1 0x3 DUP1 SLOAD SWAP1 POP PUSH1 0x4 SLOAD GT ISZERO PUSH2 0xB4A JUMPI PUSH2 0xB49 PUSH1 0x3 DUP1 SLOAD SWAP1 POP PUSH2 0x1707 JUMP JUMPDEST JUMPDEST DUP3 PUSH20 0xFFFFFFFFFFFFFFFFFFFFFFFFFFFFFFFFFFFFFFFF AND PUSH32 0x8001553A916EF2F495D26A907CC54D96ED840D7BDA71E73194BF5A9DF7A76B90 PUSH1 0x40 MLOAD PUSH1 0x40 MLOAD DUP1 SWAP2 SUB SWAP1 LOG2 POP POP POP JUMP JUMPDEST CALLER PUSH1 0x2 PUSH1 0x0 DUP3 PUSH20 0xFFFFFFFFFFFFFFFFFFFFFFFFFFFFFFFFFFFFFFFF AND PUSH20 0xFFFFFFFFFFFFFFFFFFFFFFFFFFFFFFFFFFFFFFFF AND DUP2 MSTORE PUSH1 0x20 ADD SWAP1 DUP2 MSTORE PUSH1 0x20 ADD PUSH1 0x0 KECCAK256 PUSH1 0x0 SWAP1 SLOAD SWAP1 PUSH2 0x100 EXP SWAP1 DIV PUSH1 0xFF AND ISZERO ISZERO PUSH2 0xBEB JUMPI PUSH1 0x0 DUP1 REVERT JUMPDEST DUP2 CALLER PUSH1 0x1 PUSH1 0x0 DUP4 DUP2 MSTORE PUSH1 0x20 ADD SWAP1 DUP2 MSTORE PUSH1 0x20 ADD PUSH1 0x0 KECCAK256 PUSH1 0x0 DUP3 PUSH20 0xFFFFFFFFFFFFFFFFFFFFFFFFFFFFFFFFFFFFFFFF AND PUSH20 0xFFFFFFFFFFFFFFFFFFFFFFFFFFFFFFFFFFFFFFFF AND DUP2 MSTORE PUSH1 0x20 ADD SWAP1 DUP2 MSTORE PUSH1 0x20 ADD PUSH1 0x0 KECCAK256 PUSH1 0x0 SWAP1 SLOAD SWAP1 PUSH2 0x100 EXP SWAP1 DIV PUSH1 0xFF AND ISZERO ISZERO PUSH2 0xC56 JUMPI PUSH1 0x0 DUP1 REVERT JUMPDEST DUP4 PUSH1 0x0 DUP1 DUP3 DUP2 MSTORE PUSH1 0x20 ADD SWAP1 DUP2 MSTORE PUSH1 0x20 ADD PUSH1 0x0 KECCAK256 PUSH1 0x3 ADD PUSH1 0x0 SWAP1 SLOAD SWAP1 PUSH2 0x100 EXP SWAP1 DIV PUSH1 0xFF AND ISZERO ISZERO ISZERO PUSH2 0xC86 JUMPI PUSH1 0x0 DUP1 REVERT JUMPDEST PUSH1 0x0 PUSH1 0x1 PUSH1 0x0 DUP8 DUP2 MSTORE PUSH1 0x20 ADD SWAP1 DUP2 MSTORE PUSH1 0x20 ADD PUSH1 0x0 KECCAK256 PUSH1 0x0 CALLER PUSH20 0xFFFFFFFFFFFFFFFFFFFFFFFFFFFFFFFFFFFFFFFF AND PUSH20 0xFFFFFFFFFFFFFFFFFFFFFFFFFFFFFFFFFFFFFFFF AND DUP2 MSTORE PUSH1 0x20 ADD SWAP1 DUP2 MSTORE PUSH1 0x20 ADD PUSH1 0x0 KECCAK256 PUSH1 0x0 PUSH2 0x100 EXP DUP2 SLOAD DUP2 PUSH1 0xFF MUL NOT AND SWAP1 DUP4 ISZERO ISZERO MUL OR SWAP1 SSTORE POP DUP5 CALLER PUSH20 0xFFFFFFFFFFFFFFFFFFFFFFFFFFFFFFFFFFFFFFFF AND PUSH32 0xF6A317157440607F36269043EB55F1287A5A19BA2216AFEAB88CD46CBCFB88E9 PUSH1 0x40 MLOAD PUSH1 0x40 MLOAD DUP1 SWAP2 SUB SWAP1 LOG3 POP POP POP POP POP JUMP JUMPDEST PUSH1 0x2 PUSH1 0x20 MSTORE DUP1 PUSH1 0x0 MSTORE PUSH1 0x40 PUSH1 0x0 KECCAK256 PUSH1 0x0 SWAP2 POP SLOAD SWAP1 PUSH2 0x100 EXP SWAP1 DIV PUSH1 0xFF AND DUP2 JUMP JUMPDEST PUSH1 0x1 PUSH1 0x20 MSTORE DUP2 PUSH1 0x0 MSTORE PUSH1 0x40 PUSH1 0x0 KECCAK256 PUSH1 0x20 MSTORE DUP1 PUSH1 0x0 MSTORE PUSH1 0x40 PUSH1 0x0 KECCAK256 PUSH1 0x0 SWAP2 POP SWAP2 POP SWAP1 SLOAD SWAP1 PUSH2 0x100 EXP SWAP1 DIV PUSH1 0xFF AND DUP2 JUMP JUMPDEST PUSH1 0x0 DUP1 PUSH1 0x0 SWAP1 POP JUMPDEST PUSH1 0x5 SLOAD DUP2 LT ISZERO PUSH2 0xE14 JUMPI DUP4 DUP1 ISZERO PUSH2 0xDC8 JUMPI POP PUSH1 0x0 DUP1 DUP3 DUP2 MSTORE PUSH1 0x20 ADD SWAP1 DUP2 MSTORE PUSH1 0x20 ADD PUSH1 0x0 KECCAK256 PUSH1 0x3 ADD PUSH1 0x0 SWAP1 SLOAD SWAP1 PUSH2 0x100 EXP SWAP1 DIV PUSH1 0xFF AND ISZERO JUMPDEST DUP1 PUSH2 0xDFB JUMPI POP DUP3 DUP1 ISZERO PUSH2 0xDFA JUMPI POP PUSH1 0x0 DUP1 DUP3 DUP2 MSTORE PUSH1 0x20 ADD SWAP1 DUP2 MSTORE PUSH1 0x20 ADD PUSH1 0x0 KECCAK256 PUSH1 0x3 ADD PUSH1 0x0 SWAP1 SLOAD SWAP1 PUSH2 0x100 EXP SWAP1 DIV PUSH1 0xFF AND JUMPDEST JUMPDEST ISZERO PUSH2 0xE07 JUMPI PUSH1 0x1 DUP3 ADD SWAP2 POP JUMPDEST DUP1 DUP1 PUSH1 0x1 ADD SWAP2 POP POP PUSH2 0xD91 JUMP JUMPDEST POP SWAP3 SWAP2 POP POP JUMP JUMPDEST ADDRESS PUSH20 0xFFFFFFFFFFFFFFFFFFFFFFFFFFFFFFFFFFFFFFFF AND CALLER PUSH20 0xFFFFFFFFFFFFFFFFFFFFFFFFFFFFFFFFFFFFFFFF AND EQ ISZERO ISZERO PUSH2 0xE55 JUMPI PUSH1 0x0 DUP1 REVERT JUMPDEST DUP1 PUSH1 0x2 PUSH1 0x0 DUP3 PUSH20 0xFFFFFFFFFFFFFFFFFFFFFFFFFFFFFFFFFFFFFFFF AND PUSH20 0xFFFFFFFFFFFFFFFFFFFFFFFFFFFFFFFFFFFFFFFF AND DUP2 MSTORE PUSH1 0x20 ADD SWAP1 DUP2 MSTORE PUSH1 0x20 ADD PUSH1 0x0 KECCAK256 PUSH1 0x0 SWAP1 SLOAD SWAP1 PUSH2 0x100 EXP SWAP1 DIV PUSH1 0xFF AND ISZERO ISZERO ISZERO PUSH2 0xEAF JUMPI PUSH1 0x0 DUP1 REVERT JUMPDEST DUP2 PUSH1 0x0 DUP2 PUSH20 0xFFFFFFFFFFFFFFFFFFFFFFFFFFFFFFFFFFFFFFFF AND EQ ISZERO ISZERO ISZERO PUSH2 0xED6 JUMPI PUSH1 0x0 DUP1 REVERT JUMPDEST PUSH1 0x1 PUSH1 0x3 DUP1 SLOAD SWAP1 POP ADD PUSH1 0x4 SLOAD PUSH1 0x32 DUP3 GT ISZERO DUP1 ISZERO PUSH2 0xEF3 JUMPI POP DUP2 DUP2 GT ISZERO JUMPDEST DUP1 ISZERO PUSH2 0xF00 JUMPI POP PUSH1 0x0 DUP2 EQ ISZERO JUMPDEST DUP1 ISZERO PUSH2 0xF0D JUMPI POP PUSH1 0x0 DUP3 EQ ISZERO JUMPDEST ISZERO ISZERO PUSH2 0xF18 JUMPI PUSH1 0x0 DUP1 REVERT JUMPDEST PUSH1 0x1 PUSH1 0x2 PUSH1 0x0 DUP8 PUSH20 0xFFFFFFFFFFFFFFFFFFFFFFFFFFFFFFFFFFFFFFFF AND PUSH20 0xFFFFFFFFFFFFFFFFFFFFFFFFFFFFFFFFFFFFFFFF AND DUP2 MSTORE PUSH1 0x20 ADD SWAP1 DUP2 MSTORE PUSH1 0x20 ADD PUSH1 0x0 KECCAK256 PUSH1 0x0 PUSH2 0x100 EXP DUP2 SLOAD DUP2 PUSH1 0xFF MUL NOT AND SWAP1 DUP4 ISZERO ISZERO MUL OR SWAP1 SSTORE POP PUSH1 0x3 DUP6 SWAP1 DUP1 PUSH1 0x1 DUP2 SLOAD ADD DUP1 DUP3 SSTORE DUP1 SWAP2 POP POP SWAP1 PUSH1 0x1 DUP3 SUB SWAP1 PUSH1 0x0 MSTORE PUSH1 0x20 PUSH1 0x0 KECCAK256 ADD PUSH1 0x0 SWAP1 SWAP2 SWAP3 SWAP1 SWAP2 SWAP1 SWAP2 PUSH2 0x100 EXP DUP2 SLOAD DUP2 PUSH20 0xFFFFFFFFFFFFFFFFFFFFFFFFFFFFFFFFFFFFFFFF MUL NOT AND SWAP1 DUP4 PUSH20 0xFFFFFFFFFFFFFFFFFFFFFFFFFFFFFFFFFFFFFFFF AND MUL OR SWAP1 SSTORE POP POP DUP5 PUSH20 0xFFFFFFFFFFFFFFFFFFFFFFFFFFFFFFFFFFFFFFFF AND PUSH32 0xF39E6E1EB0EDCF53C221607B54B00CD28F3196FED0A24994DC308B8F611B682D PUSH1 0x40 MLOAD PUSH1 0x40 MLOAD DUP1 SWAP2 SUB SWAP1 LOG2 POP POP POP POP POP JUMP JUMPDEST PUSH1 0x0 DUP1 PUSH1 0x0 DUP1 SWAP2 POP PUSH1 0x0 SWAP1 POP JUMPDEST PUSH1 0x3 DUP1 SLOAD SWAP1 POP DUP2 LT ISZERO PUSH2 0x10FD JUMPI PUSH1 0x1 PUSH1 0x0 DUP6 DUP2 MSTORE PUSH1 0x20 ADD SWAP1 DUP2 MSTORE PUSH1 0x20 ADD PUSH1 0x0 KECCAK256 PUSH1 0x0 PUSH1 0x3 DUP4 DUP2 SLOAD DUP2 LT ISZERO ISZERO PUSH2 0x105E JUMPI INVALID JUMPDEST SWAP1 PUSH1 0x0 MSTORE PUSH1 0x20 PUSH1 0x0 KECCAK256 ADD PUSH1 0x0 SWAP1 SLOAD SWAP1 PUSH2 0x100 EXP SWAP1 DIV PUSH20 0xFFFFFFFFFFFFFFFFFFFFFFFFFFFFFFFFFFFFFFFF AND PUSH20 0xFFFFFFFFFFFFFFFFFFFFFFFFFFFFFFFFFFFFFFFF AND PUSH20 0xFFFFFFFFFFFFFFFFFFFFFFFFFFFFFFFFFFFFFFFF AND DUP2 MSTORE PUSH1 0x20 ADD SWAP1 DUP2 MSTORE PUSH1 0x20 ADD PUSH1 0x0 KECCAK256 PUSH1 0x0 SWAP1 SLOAD SWAP1 PUSH2 0x100 EXP SWAP1 DIV PUSH1 0xFF AND ISZERO PUSH2 0x10DD JUMPI PUSH1 0x1 DUP3 ADD SWAP2 POP JUMPDEST PUSH1 0x4 SLOAD DUP3 EQ ISZERO PUSH2 0x10F0 JUMPI PUSH1 0x1 SWAP3 POP PUSH2 0x10FE JUMP JUMPDEST DUP1 DUP1 PUSH1 0x1 ADD SWAP2 POP POP PUSH2 0x102D JUMP JUMPDEST JUMPDEST POP POP SWAP2 SWAP1 POP JUMP JUMPDEST PUSH1 0x0 DUP1 PUSH1 0x0 SWAP1 POP JUMPDEST PUSH1 0x3 DUP1 SLOAD SWAP1 POP DUP2 LT ISZERO PUSH2 0x11CA JUMPI PUSH1 0x1 PUSH1 0x0 DUP5 DUP2 MSTORE PUSH1 0x20 ADD SWAP1 DUP2 MSTORE PUSH1 0x20 ADD PUSH1 0x0 KECCAK256 PUSH1 0x0 PUSH1 0x3 DUP4 DUP2 SLOAD DUP2 LT ISZERO ISZERO PUSH2 0x113E JUMPI INVALID JUMPDEST SWAP1 PUSH1 0x0 MSTORE PUSH1 0x20 PUSH1 0x0 KECCAK256 ADD PUSH1 0x0 SWAP1 SLOAD SWAP1 PUSH2 0x100 EXP SWAP1 DIV PUSH20 0xFFFFFFFFFFFFFFFFFFFFFFFFFFFFFFFFFFFFFFFF AND PUSH20 0xFFFFFFFFFFFFFFFFFFFFFFFFFFFFFFFFFFFFFFFF AND PUSH20 0xFFFFFFFFFFFFFFFFFFFFFFFFFFFFFFFFFFFFFFFF AND DUP2 MSTORE PUSH1 0x20 ADD SWAP1 DUP2 MSTORE PUSH1 0x20 ADD PUSH1 0x0 KECCAK256 PUSH1 0x0 SWAP1 SLOAD SWAP1 PUSH2 0x100 EXP SWAP1 DIV PUSH1 0xFF AND ISZERO PUSH2 0x11BD JUMPI PUSH1 0x1 DUP3 ADD SWAP2 POP JUMPDEST DUP1 DUP1 PUSH1 0x1 ADD SWAP2 POP POP PUSH2 0x110D JUMP JUMPDEST POP SWAP2 SWAP1 POP JUMP JUMPDEST PUSH1 0x0 PUSH1 0x20 MSTORE DUP1 PUSH1 0x0 MSTORE PUSH1 0x40 PUSH1 0x0 KECCAK256 PUSH1 0x0 SWAP2 POP SWAP1 POP DUP1 PUSH1 0x0 ADD PUSH1 0x0 SWAP1 SLOAD SWAP1 PUSH2 0x100 EXP SWAP1 DIV PUSH20 0xFFFFFFFFFFFFFFFFFFFFFFFFFFFFFFFFFFFFFFFF AND SWAP1 DUP1 PUSH1 0x1 ADD SLOAD SWAP1 DUP1 PUSH1 0x2 ADD DUP1 SLOAD PUSH1 0x1 DUP2 PUSH1 0x1 AND ISZERO PUSH2 0x100 MUL SUB AND PUSH1 0x2 SWAP1 DIV DUP1 PUSH1 0x1F ADD PUSH1 0x20 DUP1 SWAP2 DIV MUL PUSH1 0x20 ADD PUSH1 0x40 MLOAD SWAP1 DUP2 ADD PUSH1 0x40 MSTORE DUP1 SWAP3 SWAP2 SWAP1 DUP2 DUP2 MSTORE PUSH1 0x20 ADD DUP3 DUP1 SLOAD PUSH1 0x1 DUP2 PUSH1 0x1 AND ISZERO PUSH2 0x100 MUL SUB AND PUSH1 0x2 SWAP1 DIV DUP1 ISZERO PUSH2 0x12A8 JUMPI DUP1 PUSH1 0x1F LT PUSH2 0x127D JUMPI PUSH2 0x100 DUP1 DUP4 SLOAD DIV MUL DUP4 MSTORE SWAP2 PUSH1 0x20 ADD SWAP2 PUSH2 0x12A8 JUMP JUMPDEST DUP3 ADD SWAP2 SWAP1 PUSH1 0x0 MSTORE PUSH1 0x20 PUSH1 0x0 KECCAK256 SWAP1 JUMPDEST DUP2 SLOAD DUP2 MSTORE SWAP1 PUSH1 0x1 ADD SWAP1 PUSH1 0x20 ADD DUP1 DUP4 GT PUSH2 0x128B JUMPI DUP3 SWAP1 SUB PUSH1 0x1F AND DUP3 ADD SWAP2 JUMPDEST POP POP POP POP POP SWAP1 DUP1 PUSH1 0x3 ADD PUSH1 0x0 SWAP1 SLOAD SWAP1 PUSH2 0x100 EXP SWAP1 DIV PUSH1 0xFF AND SWAP1 POP DUP5 JUMP JUMPDEST PUSH1 0x60 PUSH1 0x3 DUP1 SLOAD DUP1 PUSH1 0x20 MUL PUSH1 0x20 ADD PUSH1 0x40 MLOAD SWAP1 DUP2 ADD PUSH1 0x40 MSTORE DUP1 SWAP3 SWAP2 SWAP1 DUP2 DUP2 MSTORE PUSH1 0x20 ADD DUP3 DUP1 SLOAD DUP1 ISZERO PUSH2 0x1349 JUMPI PUSH1 0x20 MUL DUP3 ADD SWAP2 SWAP1 PUSH1 0x0 MSTORE PUSH1 0x20 PUSH1 0x0 KECCAK256 SWAP1 JUMPDEST DUP2 PUSH1 0x0 SWAP1 SLOAD SWAP1 PUSH2 0x100 EXP SWAP1 DIV PUSH20 0xFFFFFFFFFFFFFFFFFFFFFFFFFFFFFFFFFFFFFFFF AND PUSH20 0xFFFFFFFFFFFFFFFFFFFFFFFFFFFFFFFFFFFFFFFF AND DUP2 MSTORE PUSH1 0x20 ADD SWAP1 PUSH1 0x1 ADD SWAP1 DUP1 DUP4 GT PUSH2 0x12FF JUMPI JUMPDEST POP POP POP POP POP SWAP1 POP SWAP1 JUMP JUMPDEST PUSH1 0x60 DUP1 PUSH1 0x0 DUP1 PUSH1 0x5 SLOAD PUSH1 0x40 MLOAD SWAP1 DUP1 DUP3 MSTORE DUP1 PUSH1 0x20 MUL PUSH1 0x20 ADD DUP3 ADD PUSH1 0x40 MSTORE DUP1 ISZERO PUSH2 0x138A JUMPI DUP2 PUSH1 0x20 ADD PUSH1 0x20 DUP3 MUL DUP1 CODESIZE DUP4 CODECOPY DUP1 DUP3 ADD SWAP2 POP POP SWAP1 POP JUMPDEST POP SWAP3 POP PUSH1 0x0 SWAP2 POP PUSH1 0x0 SWAP1 POP JUMPDEST PUSH1 0x5 SLOAD DUP2 LT ISZERO PUSH2 0x1436 JUMPI DUP6 DUP1 ISZERO PUSH2 0x13CD JUMPI POP PUSH1 0x0 DUP1 DUP3 DUP2 MSTORE PUSH1 0x20 ADD SWAP1 DUP2 MSTORE PUSH1 0x20 ADD PUSH1 0x0 KECCAK256 PUSH1 0x3 ADD PUSH1 0x0 SWAP1 SLOAD SWAP1 PUSH2 0x100 EXP SWAP1 DIV PUSH1 0xFF AND ISZERO JUMPDEST DUP1 PUSH2 0x1400 JUMPI POP DUP5 DUP1 ISZERO PUSH2 0x13FF JUMPI POP PUSH1 0x0 DUP1 DUP3 DUP2 MSTORE PUSH1 0x20 ADD SWAP1 DUP2 MSTORE PUSH1 0x20 ADD PUSH1 0x0 KECCAK256 PUSH1 0x3 ADD PUSH1 0x0 SWAP1 SLOAD SWAP1 PUSH2 0x100 EXP SWAP1 DIV PUSH1 0xFF AND JUMPDEST JUMPDEST ISZERO PUSH2 0x1429 JUMPI DUP1 DUP4 DUP4 DUP2 MLOAD DUP2 LT ISZERO ISZERO PUSH2 0x1414 JUMPI INVALID JUMPDEST SWAP1 PUSH1 0x20 ADD SWAP1 PUSH1 0x20 MUL ADD DUP2 DUP2 MSTORE POP POP PUSH1 0x1 DUP3 ADD SWAP2 POP JUMPDEST DUP1 DUP1 PUSH1 0x1 ADD SWAP2 POP POP PUSH2 0x1396 JUMP JUMPDEST DUP8 DUP8 SUB PUSH1 0x40 MLOAD SWAP1 DUP1 DUP3 MSTORE DUP1 PUSH1 0x20 MUL PUSH1 0x20 ADD DUP3 ADD PUSH1 0x40 MSTORE DUP1 ISZERO PUSH2 0x1467 JUMPI DUP2 PUSH1 0x20 ADD PUSH1 0x20 DUP3 MUL DUP1 CODESIZE DUP4 CODECOPY DUP1 DUP3 ADD SWAP2 POP POP SWAP1 POP JUMPDEST POP SWAP4 POP DUP8 SWAP1 POP JUMPDEST DUP7 DUP2 LT ISZERO PUSH2 0x14B9 JUMPI DUP3 DUP2 DUP2 MLOAD DUP2 LT ISZERO ISZERO PUSH2 0x1484 JUMPI INVALID JUMPDEST SWAP1 PUSH1 0x20 ADD SWAP1 PUSH1 0x20 MUL ADD MLOAD DUP5 DUP10 DUP4 SUB DUP2 MLOAD DUP2 LT ISZERO ISZERO PUSH2 0x149E JUMPI INVALID JUMPDEST SWAP1 PUSH1 0x20 ADD SWAP1 PUSH1 0x20 MUL ADD DUP2 DUP2 MSTORE POP POP DUP1 DUP1 PUSH1 0x1 ADD SWAP2 POP POP PUSH2 0x146E JUMP JUMPDEST POP POP POP SWAP5 SWAP4 POP POP POP POP JUMP JUMPDEST PUSH1 0x60 DUP1 PUSH1 0x0 DUP1 PUSH1 0x3 DUP1 SLOAD SWAP1 POP PUSH1 0x40 MLOAD SWAP1 DUP1 DUP3 MSTORE DUP1 PUSH1 0x20 MUL PUSH1 0x20 ADD DUP3 ADD PUSH1 0x40 MSTORE DUP1 ISZERO PUSH2 0x14FE JUMPI DUP2 PUSH1 0x20 ADD PUSH1 0x20 DUP3 MUL DUP1 CODESIZE DUP4 CODECOPY DUP1 DUP3 ADD SWAP2 POP POP SWAP1 POP JUMPDEST POP SWAP3 POP PUSH1 0x0 SWAP2 POP PUSH1 0x0 SWAP1 POP JUMPDEST PUSH1 0x3 DUP1 SLOAD SWAP1 POP DUP2 LT ISZERO PUSH2 0x164B JUMPI PUSH1 0x1 PUSH1 0x0 DUP7 DUP2 MSTORE PUSH1 0x20 ADD SWAP1 DUP2 MSTORE PUSH1 0x20 ADD PUSH1 0x0 KECCAK256 PUSH1 0x0 PUSH1 0x3 DUP4 DUP2 SLOAD DUP2 LT ISZERO ISZERO PUSH2 0x153B JUMPI INVALID JUMPDEST SWAP1 PUSH1 0x0 MSTORE PUSH1 0x20 PUSH1 0x0 KECCAK256 ADD PUSH1 0x0 SWAP1 SLOAD SWAP1 PUSH2 0x100 EXP SWAP1 DIV PUSH20 0xFFFFFFFFFFFFFFFFFFFFFFFFFFFFFFFFFFFFFFFF AND PUSH20 0xFFFFFFFFFFFFFFFFFFFFFFFFFFFFFFFFFFFFFFFF AND PUSH20 0xFFFFFFFFFFFFFFFFFFFFFFFFFFFFFFFFFFFFFFFF AND DUP2 MSTORE PUSH1 0x20 ADD SWAP1 DUP2 MSTORE PUSH1 0x20 ADD PUSH1 0x0 KECCAK256 PUSH1 0x0 SWAP1 SLOAD SWAP1 PUSH2 0x100 EXP SWAP1 DIV PUSH1 0xFF AND ISZERO PUSH2 0x163E JUMPI PUSH1 0x3 DUP2 DUP2 SLOAD DUP2 LT ISZERO ISZERO PUSH2 0x15C2 JUMPI INVALID JUMPDEST SWAP1 PUSH1 0x0 MSTORE PUSH1 0x20 PUSH1 0x0 KECCAK256 ADD PUSH1 0x0 SWAP1 SLOAD SWAP1 PUSH2 0x100 EXP SWAP1 DIV PUSH20 0xFFFFFFFFFFFFFFFFFFFFFFFFFFFFFFFFFFFFFFFF AND DUP4 DUP4 DUP2 MLOAD DUP2 LT ISZERO ISZERO PUSH2 0x15FB JUMPI INVALID JUMPDEST SWAP1 PUSH1 0x20 ADD SWAP1 PUSH1 0x20 MUL ADD SWAP1 PUSH20 0xFFFFFFFFFFFFFFFFFFFFFFFFFFFFFFFFFFFFFFFF AND SWAP1 DUP2 PUSH20 0xFFFFFFFFFFFFFFFFFFFFFFFFFFFFFFFFFFFFFFFF AND DUP2 MSTORE POP POP PUSH1 0x1 DUP3 ADD SWAP2 POP JUMPDEST DUP1 DUP1 PUSH1 0x1 ADD SWAP2 POP POP PUSH2 0x150A JUMP JUMPDEST DUP2 PUSH1 0x40 MLOAD SWAP1 DUP1 DUP3 MSTORE DUP1 PUSH1 0x20 MUL PUSH1 0x20 ADD DUP3 ADD PUSH1 0x40 MSTORE DUP1 ISZERO PUSH2 0x167A JUMPI DUP2 PUSH1 0x20 ADD PUSH1 0x20 DUP3 MUL DUP1 CODESIZE DUP4 CODECOPY DUP1 DUP3 ADD SWAP2 POP POP SWAP1 POP JUMPDEST POP SWAP4 POP PUSH1 0x0 SWAP1 POP JUMPDEST DUP2 DUP2 LT ISZERO PUSH2 0x16F9 JUMPI DUP3 DUP2 DUP2 MLOAD DUP2 LT ISZERO ISZERO PUSH2 0x1698 JUMPI INVALID JUMPDEST SWAP1 PUSH1 0x20 ADD SWAP1 PUSH1 0x20 MUL ADD MLOAD DUP5 DUP3 DUP2 MLOAD DUP2 LT ISZERO ISZERO PUSH2 0x16B0 JUMPI INVALID JUMPDEST SWAP1 PUSH1 0x20 ADD SWAP1 PUSH1 0x20 MUL ADD SWAP1 PUSH20 0xFFFFFFFFFFFFFFFFFFFFFFFFFFFFFFFFFFFFFFFF AND SWAP1 DUP2 PUSH20 0xFFFFFFFFFFFFFFFFFFFFFFFFFFFFFFFFFFFFFFFF AND DUP2 MSTORE POP POP DUP1 DUP1 PUSH1 0x1 ADD SWAP2 POP POP PUSH2 0x1682 JUMP JUMPDEST POP POP POP SWAP2 SWAP1 POP JUMP JUMPDEST PUSH1 0x5 SLOAD DUP2 JUMP JUMPDEST ADDRESS PUSH20 0xFFFFFFFFFFFFFFFFFFFFFFFFFFFFFFFFFFFFFFFF AND CALLER PUSH20 0xFFFFFFFFFFFFFFFFFFFFFFFFFFFFFFFFFFFFFFFF AND EQ ISZERO ISZERO PUSH2 0x1741 JUMPI PUSH1 0x0 DUP1 REVERT JUMPDEST PUSH1 0x3 DUP1 SLOAD SWAP1 POP DUP2 PUSH1 0x32 DUP3 GT ISZERO DUP1 ISZERO PUSH2 0x1759 JUMPI POP DUP2 DUP2 GT ISZERO JUMPDEST DUP1 ISZERO PUSH2 0x1766 JUMPI POP PUSH1 0x0 DUP2 EQ ISZERO JUMPDEST DUP1 ISZERO PUSH2 0x1773 JUMPI POP PUSH1 0x0 DUP3 EQ ISZERO JUMPDEST ISZERO ISZERO PUSH2 0x177E JUMPI PUSH1 0x0 DUP1 REVERT JUMPDEST DUP3 PUSH1 0x4 DUP2 SWAP1 SSTORE POP PUSH32 0xA3F1EE9126A074D9326C682F561767F710E927FAA811F7A99829D49DC421797A DUP4 PUSH1 0x40 MLOAD DUP1 DUP3 DUP2 MSTORE PUSH1 0x20 ADD SWAP2 POP POP PUSH1 0x40 MLOAD DUP1 SWAP2 SUB SWAP1 LOG1 POP POP POP JUMP JUMPDEST CALLER PUSH1 0x2 PUSH1 0x0 DUP3 PUSH20 0xFFFFFFFFFFFFFFFFFFFFFFFFFFFFFFFFFFFFFFFF AND PUSH20 0xFFFFFFFFFFFFFFFFFFFFFFFFFFFFFFFFFFFFFFFF AND DUP2 MSTORE PUSH1 0x20 ADD SWAP1 DUP2 MSTORE PUSH1 0x20 ADD PUSH1 0x0 KECCAK256 PUSH1 0x0 SWAP1 SLOAD SWAP1 PUSH2 0x100 EXP SWAP1 DIV PUSH1 0xFF AND ISZERO ISZERO PUSH2 0x181A JUMPI PUSH1 0x0 DUP1 REVERT JUMPDEST DUP2 PUSH1 0x0 DUP1 PUSH1 0x0 DUP4 DUP2 MSTORE PUSH1 0x20 ADD SWAP1 DUP2 MSTORE PUSH1 0x20 ADD PUSH1 0x0 KECCAK256 PUSH1 0x0 ADD PUSH1 0x0 SWAP1 SLOAD SWAP1 PUSH2 0x100 EXP SWAP1 DIV PUSH20 0xFFFFFFFFFFFFFFFFFFFFFFFFFFFFFFFFFFFFFFFF AND PUSH20 0xFFFFFFFFFFFFFFFFFFFFFFFFFFFFFFFFFFFFFFFF AND EQ ISZERO ISZERO ISZERO PUSH2 0x1876 JUMPI PUSH1 0x0 DUP1 REVERT JUMPDEST DUP3 CALLER PUSH1 0x1 PUSH1 0x0 DUP4 DUP2 MSTORE PUSH1 0x20 ADD SWAP1 DUP2 MSTORE PUSH1 0x20 ADD PUSH1 0x0 KECCAK256 PUSH1 0x0 DUP3 PUSH20 0xFFFFFFFFFFFFFFFFFFFFFFFFFFFFFFFFFFFFFFFF AND PUSH20 0xFFFFFFFFFFFFFFFFFFFFFFFFFFFFFFFFFFFFFFFF AND DUP2 MSTORE PUSH1 0x20 ADD SWAP1 DUP2 MSTORE PUSH1 0x20 ADD PUSH1 0x0 KECCAK256 PUSH1 0x0 SWAP1 SLOAD SWAP1 PUSH2 0x100 EXP SWAP1 DIV PUSH1 0xFF AND ISZERO ISZERO ISZERO PUSH2 0x18E2 JUMPI PUSH1 0x0 DUP1 REVERT JUMPDEST PUSH1 0x1 DUP1 PUSH1 0x0 DUP8 DUP2 MSTORE PUSH1 0x20 ADD SWAP1 DUP2 MSTORE PUSH1 0x20 ADD PUSH1 0x0 KECCAK256 PUSH1 0x0 CALLER PUSH20 0xFFFFFFFFFFFFFFFFFFFFFFFFFFFFFFFFFFFFFFFF AND PUSH20 0xFFFFFFFFFFFFFFFFFFFFFFFFFFFFFFFFFFFFFFFF AND DUP2 MSTORE PUSH1 0x20 ADD SWAP1 DUP2 MSTORE PUSH1 0x20 ADD PUSH1 0x0 KECCAK256 PUSH1 0x0 PUSH2 0x100 EXP DUP2 SLOAD DUP2 PUSH1 0xFF MUL NOT AND SWAP1 DUP4 ISZERO ISZERO MUL OR SWAP1 SSTORE POP DUP5 CALLER PUSH20 0xFFFFFFFFFFFFFFFFFFFFFFFFFFFFFFFFFFFFFFFF AND PUSH32 0x4A504A94899432A9846E1AA406DCEB1BCFD538BB839071D49D1E5E23F5BE30EF PUSH1 0x40 MLOAD PUSH1 0x40 MLOAD DUP1 SWAP2 SUB SWAP1 LOG3 PUSH2 0x1997 DUP6 PUSH2 0x1CDD JUMP JUMPDEST POP POP POP POP POP JUMP JUMPDEST PUSH1 0x0 PUSH2 0x19AB DUP5 DUP5 DUP5 PUSH2 0x1F5C JUMP JUMPDEST SWAP1 POP PUSH2 0x19B6 DUP2 PUSH2 0x17C1 JUMP JUMPDEST SWAP4 SWAP3 POP POP POP JUMP JUMPDEST PUSH1 0x32 DUP2 JUMP JUMPDEST PUSH1 0x4 SLOAD DUP2 JUMP JUMPDEST PUSH1 0x0 ADDRESS PUSH20 0xFFFFFFFFFFFFFFFFFFFFFFFFFFFFFFFFFFFFFFFF AND CALLER PUSH20 0xFFFFFFFFFFFFFFFFFFFFFFFFFFFFFFFFFFFFFFFF AND EQ ISZERO ISZERO PUSH2 0x1A04 JUMPI PUSH1 0x0 DUP1 REVERT JUMPDEST DUP3 PUSH1 0x2 PUSH1 0x0 DUP3 PUSH20 0xFFFFFFFFFFFFFFFFFFFFFFFFFFFFFFFFFFFFFFFF AND PUSH20 0xFFFFFFFFFFFFFFFFFFFFFFFFFFFFFFFFFFFFFFFF AND DUP2 MSTORE PUSH1 0x20 ADD SWAP1 DUP2 MSTORE PUSH1 0x20 ADD PUSH1 0x0 KECCAK256 PUSH1 0x0 SWAP1 SLOAD SWAP1 PUSH2 0x100 EXP SWAP1 DIV PUSH1 0xFF AND ISZERO ISZERO PUSH2 0x1A5D JUMPI PUSH1 0x0 DUP1 REVERT JUMPDEST DUP3 PUSH1 0x2 PUSH1 0x0 DUP3 PUSH20 0xFFFFFFFFFFFFFFFFFFFFFFFFFFFFFFFFFFFFFFFF AND PUSH20 0xFFFFFFFFFFFFFFFFFFFFFFFFFFFFFFFFFFFFFFFF AND DUP2 MSTORE PUSH1 0x20 ADD SWAP1 DUP2 MSTORE PUSH1 0x20 ADD PUSH1 0x0 KECCAK256 PUSH1 0x0 SWAP1 SLOAD SWAP1 PUSH2 0x100 EXP SWAP1 DIV PUSH1 0xFF AND ISZERO ISZERO ISZERO PUSH2 0x1AB7 JUMPI PUSH1 0x0 DUP1 REVERT JUMPDEST PUSH1 0x0 SWAP3 POP JUMPDEST PUSH1 0x3 DUP1 SLOAD SWAP1 POP DUP4 LT ISZERO PUSH2 0x1BA0 JUMPI DUP5 PUSH20 0xFFFFFFFFFFFFFFFFFFFFFFFFFFFFFFFFFFFFFFFF AND PUSH1 0x3 DUP5 DUP2 SLOAD DUP2 LT ISZERO ISZERO PUSH2 0x1AEF JUMPI INVALID JUMPDEST SWAP1 PUSH1 0x0 MSTORE PUSH1 0x20 PUSH1 0x0 KECCAK256 ADD PUSH1 0x0 SWAP1 SLOAD SWAP1 PUSH2 0x100 EXP SWAP1 DIV PUSH20 0xFFFFFFFFFFFFFFFFFFFFFFFFFFFFFFFFFFFFFFFF AND PUSH20 0xFFFFFFFFFFFFFFFFFFFFFFFFFFFFFFFFFFFFFFFF AND EQ ISZERO PUSH2 0x1B93 JUMPI DUP4 PUSH1 0x3 DUP5 DUP2 SLOAD DUP2 LT ISZERO ISZERO PUSH2 0x1B46 JUMPI INVALID JUMPDEST SWAP1 PUSH1 0x0 MSTORE PUSH1 0x20 PUSH1 0x0 KECCAK256 ADD PUSH1 0x0 PUSH2 0x100 EXP DUP2 SLOAD DUP2 PUSH20 0xFFFFFFFFFFFFFFFFFFFFFFFFFFFFFFFFFFFFFFFF MUL NOT AND SWAP1 DUP4 PUSH20 0xFFFFFFFFFFFFFFFFFFFFFFFFFFFFFFFFFFFFFFFF AND MUL OR SWAP1 SSTORE POP PUSH2 0x1BA0 JUMP JUMPDEST DUP3 DUP1 PUSH1 0x1 ADD SWAP4 POP POP PUSH2 0x1ABC JUMP JUMPDEST PUSH1 0x0 PUSH1 0x2 PUSH1 0x0 DUP8 PUSH20 0xFFFFFFFFFFFFFFFFFFFFFFFFFFFFFFFFFFFFFFFF AND PUSH20 0xFFFFFFFFFFFFFFFFFFFFFFFFFFFFFFFFFFFFFFFF AND DUP2 MSTORE PUSH1 0x20 ADD SWAP1 DUP2 MSTORE PUSH1 0x20 ADD PUSH1 0x0 KECCAK256 PUSH1 0x0 PUSH2 0x100 EXP DUP2 SLOAD DUP2 PUSH1 0xFF MUL NOT AND SWAP1 DUP4 ISZERO ISZERO MUL OR SWAP1 SSTORE POP PUSH1 0x1 PUSH1 0x2 PUSH1 0x0 DUP7 PUSH20 0xFFFFFFFFFFFFFFFFFFFFFFFFFFFFFFFFFFFFFFFF AND PUSH20 0xFFFFFFFFFFFFFFFFFFFFFFFFFFFFFFFFFFFFFFFF AND DUP2 MSTORE PUSH1 0x20 ADD SWAP1 DUP2 MSTORE PUSH1 0x20 ADD PUSH1 0x0 KECCAK256 PUSH1 0x0 PUSH2 0x100 EXP DUP2 SLOAD DUP2 PUSH1 0xFF MUL NOT AND SWAP1 DUP4 ISZERO ISZERO MUL OR SWAP1 SSTORE POP DUP5 PUSH20 0xFFFFFFFFFFFFFFFFFFFFFFFFFFFFFFFFFFFFFFFF AND PUSH32 0x8001553A916EF2F495D26A907CC54D96ED840D7BDA71E73194BF5A9DF7A76B90 PUSH1 0x40 MLOAD PUSH1 0x40 MLOAD DUP1 SWAP2 SUB SWAP1 LOG2 DUP4 PUSH20 0xFFFFFFFFFFFFFFFFFFFFFFFFFFFFFFFFFFFFFFFF AND PUSH32 0xF39E6E1EB0EDCF53C221607B54B00CD28F3196FED0A24994DC308B8F611B682D PUSH1 0x40 MLOAD PUSH1 0x40 MLOAD DUP1 SWAP2 SUB SWAP1 LOG2 POP POP POP POP POP JUMP JUMPDEST PUSH1 0x0 CALLER PUSH1 0x2 PUSH1 0x0 DUP3 PUSH20 0xFFFFFFFFFFFFFFFFFFFFFFFFFFFFFFFFFFFFFFFF AND PUSH20 0xFFFFFFFFFFFFFFFFFFFFFFFFFFFFFFFFFFFFFFFF AND DUP2 MSTORE PUSH1 0x20 ADD SWAP1 DUP2 MSTORE PUSH1 0x20 ADD PUSH1 0x0 KECCAK256 PUSH1 0x0 SWAP1 SLOAD SWAP1 PUSH2 0x100 EXP SWAP1 DIV PUSH1 0xFF AND ISZERO ISZERO PUSH2 0x1D38 JUMPI PUSH1 0x0 DUP1 REVERT JUMPDEST DUP3 CALLER PUSH1 0x1 PUSH1 0x0 DUP4 DUP2 MSTORE PUSH1 0x20 ADD SWAP1 DUP2 MSTORE PUSH1 0x20 ADD PUSH1 0x0 KECCAK256 PUSH1 0x0 DUP3 PUSH20 0xFFFFFFFFFFFFFFFFFFFFFFFFFFFFFFFFFFFFFFFF AND PUSH20 0xFFFFFFFFFFFFFFFFFFFFFFFFFFFFFFFFFFFFFFFF AND DUP2 MSTORE PUSH1 0x20 ADD SWAP1 DUP2 MSTORE PUSH1 0x20 ADD PUSH1 0x0 KECCAK256 PUSH1 0x0 SWAP1 SLOAD SWAP1 PUSH2 0x100 EXP SWAP1 DIV PUSH1 0xFF AND ISZERO ISZERO PUSH2 0x1DA3 JUMPI PUSH1 0x0 DUP1 REVERT JUMPDEST DUP5 PUSH1 0x0 DUP1 DUP3 DUP2 MSTORE PUSH1 0x20 ADD SWAP1 DUP2 MSTORE PUSH1 0x20 ADD PUSH1 0x0 KECCAK256 PUSH1 0x3 ADD PUSH1 0x0 SWAP1 SLOAD SWAP1 PUSH2 0x100 EXP SWAP1 DIV PUSH1 0xFF AND ISZERO ISZERO ISZERO PUSH2 0x1DD3 JUMPI PUSH1 0x0 DUP1 REVERT JUMPDEST PUSH2 0x1DDC DUP7 PUSH2 0x1020 JUMP JUMPDEST ISZERO PUSH2 0x1F54 JUMPI PUSH1 0x0 DUP1 DUP8 DUP2 MSTORE PUSH1 0x20 ADD SWAP1 DUP2 MSTORE PUSH1 0x20 ADD PUSH1 0x0 KECCAK256 SWAP5 POP PUSH1 0x1 DUP6 PUSH1 0x3 ADD PUSH1 0x0 PUSH2 0x100 EXP DUP2 SLOAD DUP2 PUSH1 0xFF MUL NOT AND SWAP1 DUP4 ISZERO ISZERO MUL OR SWAP1 SSTORE POP DUP5 PUSH1 0x0 ADD PUSH1 0x0 SWAP1 SLOAD SWAP1 PUSH2 0x100 EXP SWAP1 DIV PUSH20 0xFFFFFFFFFFFFFFFFFFFFFFFFFFFFFFFFFFFFFFFF AND PUSH20 0xFFFFFFFFFFFFFFFFFFFFFFFFFFFFFFFFFFFFFFFF AND DUP6 PUSH1 0x1 ADD SLOAD DUP7 PUSH1 0x2 ADD PUSH1 0x40 MLOAD DUP1 DUP3 DUP1 SLOAD PUSH1 0x1 DUP2 PUSH1 0x1 AND ISZERO PUSH2 0x100 MUL SUB AND PUSH1 0x2 SWAP1 DIV DUP1 ISZERO PUSH2 0x1EBB JUMPI DUP1 PUSH1 0x1F LT PUSH2 0x1E90 JUMPI PUSH2 0x100 DUP1 DUP4 SLOAD DIV MUL DUP4 MSTORE SWAP2 PUSH1 0x20 ADD SWAP2 PUSH2 0x1EBB JUMP JUMPDEST DUP3 ADD SWAP2 SWAP1 PUSH1 0x0 MSTORE PUSH1 0x20 PUSH1 0x0 KECCAK256 SWAP1 JUMPDEST DUP2 SLOAD DUP2 MSTORE SWAP1 PUSH1 0x1 ADD SWAP1 PUSH1 0x20 ADD DUP1 DUP4 GT PUSH2 0x1E9E JUMPI DUP3 SWAP1 SUB PUSH1 0x1F AND DUP3 ADD SWAP2 JUMPDEST POP POP SWAP2 POP POP PUSH1 0x0 PUSH1 0x40 MLOAD DUP1 DUP4 SUB DUP2 DUP6 DUP8 GAS CALL SWAP3 POP POP POP ISZERO PUSH2 0x1F08 JUMPI DUP6 PUSH32 0x33E13ECB54C3076D8E8BB8C2881800A4D972B792045FFAE98FDF46DF365FED75 PUSH1 0x40 MLOAD PUSH1 0x40 MLOAD DUP1 SWAP2 SUB SWAP1 LOG2 PUSH2 0x1F53 JUMP JUMPDEST DUP6 PUSH32 0x526441BB6C1ABA3C9A4A6CA1D6545DA9C2333C8C48343EF398EB858D72B79236 PUSH1 0x40 MLOAD PUSH1 0x40 MLOAD DUP1 SWAP2 SUB SWAP1 LOG2 PUSH1 0x0 DUP6 PUSH1 0x3 ADD PUSH1 0x0 PUSH2 0x100 EXP DUP2 SLOAD DUP2 PUSH1 0xFF MUL NOT AND SWAP1 DUP4 ISZERO ISZERO MUL OR SWAP1 SSTORE POP JUMPDEST JUMPDEST POP POP POP POP POP POP JUMP JUMPDEST PUSH1 0x0 DUP4 PUSH1 0x0 DUP2 PUSH20 0xFFFFFFFFFFFFFFFFFFFFFFFFFFFFFFFFFFFFFFFF AND EQ ISZERO ISZERO ISZERO PUSH2 0x1F85 JUMPI PUSH1 0x0 DUP1 REVERT JUMPDEST PUSH1 0x5 SLOAD SWAP2 POP PUSH1 0x80 PUSH1 0x40 MLOAD SWAP1 DUP2 ADD PUSH1 0x40 MSTORE DUP1 DUP7 PUSH20 0xFFFFFFFFFFFFFFFFFFFFFFFFFFFFFFFFFFFFFFFF AND DUP2 MSTORE PUSH1 0x20 ADD DUP6 DUP2 MSTORE PUSH1 0x20 ADD DUP5 DUP2 MSTORE PUSH1 0x20 ADD PUSH1 0x0 ISZERO ISZERO DUP2 MSTORE POP PUSH1 0x0 DUP1 DUP5 DUP2 MSTORE PUSH1 0x20 ADD SWAP1 DUP2 MSTORE PUSH1 0x20 ADD PUSH1 0x0 KECCAK256 PUSH1 0x0 DUP3 ADD MLOAD DUP2 PUSH1 0x0 ADD PUSH1 0x0 PUSH2 0x100 EXP DUP2 SLOAD DUP2 PUSH20 0xFFFFFFFFFFFFFFFFFFFFFFFFFFFFFFFFFFFFFFFF MUL NOT AND SWAP1 DUP4 PUSH20 0xFFFFFFFFFFFFFFFFFFFFFFFFFFFFFFFFFFFFFFFF AND MUL OR SWAP1 SSTORE POP PUSH1 0x20 DUP3 ADD MLOAD DUP2 PUSH1 0x1 ADD SSTORE PUSH1 0x40 DUP3 ADD MLOAD DUP2 PUSH1 0x2 ADD SWAP1 DUP1 MLOAD SWAP1 PUSH1 0x20 ADD SWAP1 PUSH2 0x2044 SWAP3 SWAP2 SWAP1 PUSH2 0x20DA JUMP JUMPDEST POP PUSH1 0x60 DUP3 ADD MLOAD DUP2 PUSH1 0x3 ADD PUSH1 0x0 PUSH2 0x100 EXP DUP2 SLOAD DUP2 PUSH1 0xFF MUL NOT AND SWAP1 DUP4 ISZERO ISZERO MUL OR SWAP1 SSTORE POP SWAP1 POP POP PUSH1 0x1 PUSH1 0x5 PUSH1 0x0 DUP3 DUP3 SLOAD ADD SWAP3 POP POP DUP2 SWAP1 SSTORE POP DUP2 PUSH32 0xC0BA8FE4B176C1714197D43B9CC6BCF797A4A7461C5FE8D0EF6E184AE7601E51 PUSH1 0x40 MLOAD PUSH1 0x40 MLOAD DUP1 SWAP2 SUB SWAP1 LOG2 POP SWAP4 SWAP3 POP POP POP JUMP JUMPDEST DUP2 SLOAD DUP2 DUP4 SSTORE DUP2 DUP2 GT ISZERO PUSH2 0x20D5 JUMPI DUP2 DUP4 PUSH1 0x0 MSTORE PUSH1 0x20 PUSH1 0x0 KECCAK256 SWAP2 DUP3 ADD SWAP2 ADD PUSH2 0x20D4 SWAP2 SWAP1 PUSH2 0x215A JUMP JUMPDEST JUMPDEST POP POP POP JUMP JUMPDEST DUP3 DUP1 SLOAD PUSH1 0x1 DUP2 PUSH1 0x1 AND ISZERO PUSH2 0x100 MUL SUB AND PUSH1 0x2 SWAP1 DIV SWAP1 PUSH1 0x0 MSTORE PUSH1 0x20 PUSH1 0x0 KECCAK256 SWAP1 PUSH1 0x1F ADD PUSH1 0x20 SWAP1 DIV DUP2 ADD SWAP3 DUP3 PUSH1 0x1F LT PUSH2 0x211B JUMPI DUP1 MLOAD PUSH1 0xFF NOT AND DUP4 DUP1 ADD OR DUP6 SSTORE PUSH2 0x2149 JUMP JUMPDEST DUP3 DUP1 ADD PUSH1 0x1 ADD DUP6 SSTORE DUP3 ISZERO PUSH2 0x2149 JUMPI SWAP2 DUP3 ADD JUMPDEST DUP3 DUP2 GT ISZERO PUSH2 0x2148 JUMPI DUP3 MLOAD DUP3 SSTORE SWAP2 PUSH1 0x20 ADD SWAP2 SWAP1 PUSH1 0x1 ADD SWAP1 PUSH2 0x212D JUMP JUMPDEST JUMPDEST POP SWAP1 POP PUSH2 0x2156 SWAP2 SWAP1 PUSH2 0x215A JUMP JUMPDEST POP SWAP1 JUMP JUMPDEST PUSH2 0x217C SWAP2 SWAP1 JUMPDEST DUP1 DUP3 GT ISZERO PUSH2 0x2178 JUMPI PUSH1 0x0 DUP2 PUSH1 0x0 SWAP1 SSTORE POP PUSH1 0x1 ADD PUSH2 0x2160 JUMP JUMPDEST POP SWAP1 JUMP JUMPDEST SWAP1 JUMP STOP LOG1 PUSH6 0x627A7A723058 KECCAK256 0xa6 EXP 0xac PUSH15 0x63EC7D2933A8ECFE22D338DA2FD0D7 0x4a JUMPI SWAP9 MUL AND 0xf7 0x4a 0xcc 0xf MSTORE8 0xbb 0xc3 0x25 STOP 0x29 "
				},
				"gasEstimates": {
					"creation": {
						"codeDepositCost": "1723800",
						"executionCost": "infinite",
						"totalCost": "infinite"
					},
					"external": {
						"": "1999",
						"MAX_OWNER_COUNT()": "568",
						"addOwner(address)": "63431",
						"changeRequirement(uint256)": "21971",
						"confirmTransaction(uint256)": "infinite",
						"confirmations(uint256,address)": "755",
						"executeTransaction(uint256)": "infinite",
						"getConfirmationCount(uint256)": "infinite",
						"getConfirmations(uint256)": "infinite",
						"getOwners()": "infinite",
						"getTransactionCount(bool,bool)": "infinite",
						"getTransactionIds(uint256,uint256,bool,bool)": "infinite",
						"isConfirmed(uint256)": "infinite",
						"isOwner(address)": "635",
						"owners(uint256)": "786",
						"removeOwner(address)": "infinite",
						"replaceOwner(address,address)": "infinite",
						"required()": "790",
						"revokeConfirmation(uint256)": "23347",
						"submitTransaction(address,uint256,bytes)": "infinite",
						"transactionCount()": "680",
						"transactions(uint256)": "infinite"
					},
					"internal": {
						"addTransaction(address,uint256,bytes memory)": "infinite"
					}
				},
				"methodIdentifiers": {
					"MAX_OWNER_COUNT()": "d74f8edd",
					"addOwner(address)": "7065cb48",
					"changeRequirement(uint256)": "ba51a6df",
					"confirmTransaction(uint256)": "c01a8c84",
					"confirmations(uint256,address)": "3411c81c",
					"executeTransaction(uint256)": "ee22610b",
					"getConfirmationCount(uint256)": "8b51d13f",
					"getConfirmations(uint256)": "b5dc40c3",
					"getOwners()": "a0e67e2b",
					"getTransactionCount(bool,bool)": "54741525",
					"getTransactionIds(uint256,uint256,bool,bool)": "a8abe69a",
					"isConfirmed(uint256)": "784547a7",
					"isOwner(address)": "2f54bf6e",
					"owners(uint256)": "025e7c27",
					"removeOwner(address)": "173825d9",
					"replaceOwner(address,address)": "e20056e6",
					"required()": "dc8452cd",
					"revokeConfirmation(uint256)": "20ea8d86",
					"submitTransaction(address,uint256,bytes)": "c6427474",
					"transactionCount()": "b77bf600",
					"transactions(uint256)": "9ace38c2"
				}
			},
			"userdoc": {
				"methods": {}
			}
		}
	}
}