{
	"contracts/Omnidex-incentives/incentives/OmnidexIncentivesVault.sol": {
		"OmnidexIncentivesVault": {
			"abi": [
				{
					"inputs": [
						{
							"internalType": "contract IERC20",
							"name": "_token",
							"type": "address"
						},
						{
							"internalType": "address",
							"name": "_approvedSpender",
							"type": "address"
						},
						{
							"internalType": "address",
							"name": "_admin",
							"type": "address"
						},
						{
							"internalType": "uint256",
							"name": "_dailyLimit",
							"type": "uint256"
						}
					],
					"stateMutability": "nonpayable",
					"type": "constructor"
				},
				{
					"anonymous": false,
					"inputs": [
						{
							"indexed": true,
							"internalType": "address",
							"name": "sender",
							"type": "address"
						},
						{
							"indexed": false,
							"internalType": "uint256",
							"name": "amount",
							"type": "uint256"
						}
					],
					"name": "Deposit",
					"type": "event"
				},
				{
					"anonymous": false,
					"inputs": [
						{
							"indexed": true,
							"internalType": "address",
							"name": "previousOwner",
							"type": "address"
						},
						{
							"indexed": true,
							"internalType": "address",
							"name": "newOwner",
							"type": "address"
						}
					],
					"name": "OwnershipTransferred",
					"type": "event"
				},
				{
					"anonymous": false,
					"inputs": [],
					"name": "Pause",
					"type": "event"
				},
				{
					"anonymous": false,
					"inputs": [
						{
							"indexed": false,
							"internalType": "address",
							"name": "account",
							"type": "address"
						}
					],
					"name": "Paused",
					"type": "event"
				},
				{
					"anonymous": false,
					"inputs": [],
					"name": "Unpause",
					"type": "event"
				},
				{
					"anonymous": false,
					"inputs": [
						{
							"indexed": false,
							"internalType": "address",
							"name": "account",
							"type": "address"
						}
					],
					"name": "Unpaused",
					"type": "event"
				},
				{
					"anonymous": false,
					"inputs": [
						{
							"indexed": true,
							"internalType": "address",
							"name": "sender",
							"type": "address"
						},
						{
							"indexed": false,
							"internalType": "uint256",
							"name": "amount",
							"type": "uint256"
						}
					],
					"name": "Withdraw",
					"type": "event"
				},
				{
					"inputs": [],
					"name": "admin",
					"outputs": [
						{
							"internalType": "address",
							"name": "",
							"type": "address"
						}
					],
					"stateMutability": "view",
					"type": "function"
				},
				{
					"inputs": [],
					"name": "approvedSpender",
					"outputs": [
						{
							"internalType": "address",
							"name": "",
							"type": "address"
						}
					],
					"stateMutability": "view",
					"type": "function"
				},
				{
					"inputs": [],
					"name": "dailyLimit",
					"outputs": [
						{
							"internalType": "uint256",
							"name": "",
							"type": "uint256"
						}
					],
					"stateMutability": "view",
					"type": "function"
				},
				{
					"inputs": [
						{
							"internalType": "uint256",
							"name": "_amount",
							"type": "uint256"
						}
					],
					"name": "deposit",
					"outputs": [],
					"stateMutability": "nonpayable",
					"type": "function"
				},
				{
					"inputs": [],
					"name": "getDailyLimit",
					"outputs": [
						{
							"internalType": "uint256",
							"name": "",
							"type": "uint256"
						}
					],
					"stateMutability": "view",
					"type": "function"
				},
				{
					"inputs": [
						{
							"internalType": "address",
							"name": "_token",
							"type": "address"
						}
					],
					"name": "inCaseTokensGetStuck",
					"outputs": [],
					"stateMutability": "nonpayable",
					"type": "function"
				},
				{
					"inputs": [],
					"name": "lastDay",
					"outputs": [
						{
							"internalType": "uint256",
							"name": "",
							"type": "uint256"
						}
					],
					"stateMutability": "view",
					"type": "function"
				},
				{
					"inputs": [],
					"name": "owner",
					"outputs": [
						{
							"internalType": "address",
							"name": "",
							"type": "address"
						}
					],
					"stateMutability": "view",
					"type": "function"
				},
				{
					"inputs": [],
					"name": "pause",
					"outputs": [],
					"stateMutability": "nonpayable",
					"type": "function"
				},
				{
					"inputs": [],
					"name": "paused",
					"outputs": [
						{
							"internalType": "bool",
							"name": "",
							"type": "bool"
						}
					],
					"stateMutability": "view",
					"type": "function"
				},
				{
					"inputs": [],
					"name": "renounceOwnership",
					"outputs": [],
					"stateMutability": "nonpayable",
					"type": "function"
				},
				{
					"inputs": [
						{
							"internalType": "address",
							"name": "_admin",
							"type": "address"
						}
					],
					"name": "setAdmin",
					"outputs": [],
					"stateMutability": "nonpayable",
					"type": "function"
				},
				{
					"inputs": [
						{
							"internalType": "uint256",
							"name": "_newDailyLimit",
							"type": "uint256"
						}
					],
					"name": "setDailyLimit",
					"outputs": [],
					"stateMutability": "nonpayable",
					"type": "function"
				},
				{
					"inputs": [],
					"name": "spentToday",
					"outputs": [
						{
							"internalType": "uint256",
							"name": "",
							"type": "uint256"
						}
					],
					"stateMutability": "view",
					"type": "function"
				},
				{
					"inputs": [],
					"name": "token",
					"outputs": [
						{
							"internalType": "contract IERC20",
							"name": "",
							"type": "address"
						}
					],
					"stateMutability": "view",
					"type": "function"
				},
				{
					"inputs": [
						{
							"internalType": "address",
							"name": "newOwner",
							"type": "address"
						}
					],
					"name": "transferOwnership",
					"outputs": [],
					"stateMutability": "nonpayable",
					"type": "function"
				},
				{
					"inputs": [],
					"name": "unpause",
					"outputs": [],
					"stateMutability": "nonpayable",
					"type": "function"
				},
				{
					"inputs": [
						{
							"internalType": "address",
							"name": "_to",
							"type": "address"
						},
						{
							"internalType": "uint256",
							"name": "_amount",
							"type": "uint256"
						}
					],
					"name": "withdraw",
					"outputs": [],
					"stateMutability": "nonpayable",
					"type": "function"
				},
				{
					"inputs": [],
					"name": "withdrawAll",
					"outputs": [],
					"stateMutability": "nonpayable",
					"type": "function"
				}
			],
			"devdoc": {
				"kind": "dev",
				"methods": {
					"constructor": {
						"params": {
							"_admin": ": address of the admin",
							"_approvedSpender": ": PullRewardsIncentivesController contract",
							"_dailyLimit": ": max permitted incentives spend each day",
							"_token": ": Incentives token contract"
						}
					},
					"deposit(uint256)": {
						"details": "Only possible when contract not paused.",
						"params": {
							"_amount": ": number of tokens to deposit (in TLOS)"
						}
					},
					"owner()": {
						"details": "Returns the address of the current owner."
					},
					"pause()": {
						"details": "Only possible when contract not paused."
					},
					"paused()": {
						"details": "Returns true if the contract is paused, and false otherwise."
					},
					"renounceOwnership()": {
						"details": "Leaves the contract without owner. It will not be possible to call `onlyOwner` functions anymore. Can only be called by the current owner. NOTE: Renouncing ownership will leave the contract without an owner, thereby removing any functionality that is only available to the owner."
					},
					"setAdmin(address)": {
						"details": "Only callable by the contract owner."
					},
					"setDailyLimit(uint256)": {
						"details": "Only callable by the contract owner."
					},
					"transferOwnership(address)": {
						"details": "Transfers ownership of the contract to a new account (`newOwner`). Can only be called by the current owner."
					},
					"unpause()": {
						"details": "Only possible when contract is paused."
					},
					"withdraw(address,uint256)": {
						"params": {
							"_amount": ": amount to withdraw"
						}
					}
				},
				"version": 1
			},
			"evm": {
				"assembly": "    /* \"contracts/Omnidex-incentives/incentives/OmnidexIncentivesVault.sol\":575:5266  contract OmnidexIncentivesVault is Ownable, Pausable {... */\n  mstore(0x40, 0xa0)\n    /* \"contracts/Omnidex-incentives/incentives/OmnidexIncentivesVault.sol\":1331:1701  constructor(... */\n  callvalue\n  dup1\n  iszero\n  tag_1\n  jumpi\n  0x00\n  dup1\n  revert\ntag_1:\n  pop\n  mload(0x40)\n  sub(codesize, bytecodeSize)\n  dup1\n  bytecodeSize\n  dup4\n  codecopy\n  dup2\n  dup2\n  add\n  0x40\n  mstore\n  0x80\n  dup2\n  lt\n  iszero\n  tag_2\n  jumpi\n  0x00\n  dup1\n  revert\ntag_2:\n  pop\n  dup1\n  mload\n  0x20\n  dup3\n  add\n  mload\n  0x40\n  dup4\n  add\n  mload\n  0x60\n  swap1\n  swap4\n  add\n  mload\n  swap2\n  swap3\n  swap1\n  swap2\n    /* \"https://github.com/OmniDexFinance/helper/blob/master/%40openzeppelin/contracts/access/Ownable.sol\":884:901  address msgSender */\n  0x00\n    /* \"https://github.com/OmniDexFinance/helper/blob/master/%40openzeppelin/contracts/access/Ownable.sol\":904:916  _msgSender() */\n  tag_7\n    /* \"https://github.com/OmniDexFinance/helper/blob/master/%40openzeppelin/contracts/access/Ownable.sol\":904:914  _msgSender */\n  tag_8\n    /* \"https://github.com/OmniDexFinance/helper/blob/master/%40openzeppelin/contracts/access/Ownable.sol\":904:916  _msgSender() */\n  jump\t// in\ntag_7:\n    /* \"https://github.com/OmniDexFinance/helper/blob/master/%40openzeppelin/contracts/access/Ownable.sol\":926:932  _owner */\n  0x00\n    /* \"https://github.com/OmniDexFinance/helper/blob/master/%40openzeppelin/contracts/access/Ownable.sol\":926:944  _owner = msgSender */\n  dup1\n  sload\n  not(sub(shl(0xa0, 0x01), 0x01))\n  and\n  sub(shl(0xa0, 0x01), 0x01)\n  dup4\n  and\n  swap1\n  dup2\n  or\n  dup3\n  sstore\n    /* \"https://github.com/OmniDexFinance/helper/blob/master/%40openzeppelin/contracts/access/Ownable.sol\":959:1002  OwnershipTransferred(address(0), msgSender) */\n  mload(0x40)\n    /* \"https://github.com/OmniDexFinance/helper/blob/master/%40openzeppelin/contracts/access/Ownable.sol\":926:944  _owner = msgSender */\n  swap3\n  swap4\n  pop\n  swap2\n    /* \"https://github.com/OmniDexFinance/helper/blob/master/%40openzeppelin/contracts/access/Ownable.sol\":959:1002  OwnershipTransferred(address(0), msgSender) */\n  0x8be0079c531659141344cd1fd0a4f28419497f9722a3daafe3b4186f6b6457e0\n  swap1\n    /* \"https://github.com/OmniDexFinance/helper/blob/master/%40openzeppelin/contracts/access/Ownable.sol\":926:932  _owner */\n  dup3\n  swap1\n    /* \"https://github.com/OmniDexFinance/helper/blob/master/%40openzeppelin/contracts/access/Ownable.sol\":959:1002  OwnershipTransferred(address(0), msgSender) */\n  log3\n  pop\n    /* \"https://github.com/OmniDexFinance/helper/blob/master/%40openzeppelin/contracts/utils/Pausable.sol\":945:950  false */\n  0x00\n    /* \"https://github.com/OmniDexFinance/helper/blob/master/%40openzeppelin/contracts/utils/Pausable.sol\":935:950  _paused = false */\n  dup1\n  sload\n  not(shl(0xa0, 0xff))\n  and\n  swap1\n  sstore\n    /* \"contracts/Omnidex-incentives/incentives/OmnidexIncentivesVault.sol\":1473:1487  token = _token */\n  0x60\n  dup5\n  swap1\n  shl\n  not(sub(shl(0x60, 0x01), 0x01))\n  and\n  0x80\n  mstore\n    /* \"contracts/Omnidex-incentives/incentives/OmnidexIncentivesVault.sol\":1497:1512  approvedSpender */\n  0x02\n    /* \"contracts/Omnidex-incentives/incentives/OmnidexIncentivesVault.sol\":1497:1531  approvedSpender = _approvedSpender */\n  dup1\n  sload\n  not(sub(shl(0xa0, 0x01), 0x01))\n  swap1\n  dup2\n  and\n  sub(shl(0xa0, 0x01), 0x01)\n  dup7\n  dup2\n  and\n  swap2\n  swap1\n  swap2\n  or\n  swap1\n  swap3\n  sstore\n  0x01\n    /* \"contracts/Omnidex-incentives/incentives/OmnidexIncentivesVault.sol\":1541:1555  admin = _admin */\n  dup1\n  sload\n  swap1\n  swap2\n  and\n  dup5\n  dup4\n  and\n  or\n  swap1\n  sstore\n    /* \"contracts/Omnidex-incentives/incentives/OmnidexIncentivesVault.sol\":1565:1575  dailyLimit */\n  0x03\n    /* \"contracts/Omnidex-incentives/incentives/OmnidexIncentivesVault.sol\":1565:1589  dailyLimit = _dailyLimit */\n  dup3\n  swap1\n  sstore\n    /* \"contracts/Omnidex-incentives/incentives/OmnidexIncentivesVault.sol\":1628:1694  IERC20(_token).safeApprove(address(_approvedSpender), uint256(-1)) */\n  tag_11\n  swap1\n    /* \"contracts/Omnidex-incentives/incentives/OmnidexIncentivesVault.sol\":1473:1487  token = _token */\n  dup6\n  and\n    /* \"contracts/Omnidex-incentives/incentives/OmnidexIncentivesVault.sol\":1497:1531  approvedSpender = _approvedSpender */\n  dup5\n  not(0x00)\n    /* \"contracts/Omnidex-incentives/incentives/OmnidexIncentivesVault.sol\":1628:1654  IERC20(_token).safeApprove */\n  tag_12\n  0x20\n  swap1\n  dup2\n  shl\n  tag_0_69\n  or\n    /* \"contracts/Omnidex-incentives/incentives/OmnidexIncentivesVault.sol\":1628:1694  IERC20(_token).safeApprove(address(_approvedSpender), uint256(-1)) */\n  swap1\n  shr\n  jump\t// in\ntag_11:\n    /* \"contracts/Omnidex-incentives/incentives/OmnidexIncentivesVault.sol\":1331:1701  constructor(... */\n  pop\n  pop\n  pop\n  pop\n    /* \"contracts/Omnidex-incentives/incentives/OmnidexIncentivesVault.sol\":575:5266  contract OmnidexIncentivesVault is Ownable, Pausable {... */\n  jump(tag_13)\n    /* \"https://github.com/OmniDexFinance/helper/blob/master/%40openzeppelin/contracts/utils/Context.sol\":598:702  function _msgSender() internal view virtual returns (address payable) {... */\ntag_8:\n    /* \"https://github.com/OmniDexFinance/helper/blob/master/%40openzeppelin/contracts/utils/Context.sol\":685:695  msg.sender */\n  caller\n    /* \"https://github.com/OmniDexFinance/helper/blob/master/%40openzeppelin/contracts/utils/Context.sol\":598:702  function _msgSender() internal view virtual returns (address payable) {... */\n  swap1\n  jump\t// out\n    /* \"https://github.com/OmniDexFinance/helper/blob/master/%40openzeppelin/contracts/token/ERC20/SafeERC20.sol\":1348:1961  function safeApprove(IERC20 token, address spender, uint256 value) internal {... */\ntag_12:\n    /* \"https://github.com/OmniDexFinance/helper/blob/master/%40openzeppelin/contracts/token/ERC20/SafeERC20.sol\":1713:1723  value == 0 */\n  dup1\n  iszero\n  dup1\n    /* \"https://github.com/OmniDexFinance/helper/blob/master/%40openzeppelin/contracts/token/ERC20/SafeERC20.sol\":1712:1774  (value == 0) || (token.allowance(address(this), spender) == 0) */\n  tag_16\n  jumpi\n  pop\n    /* \"https://github.com/OmniDexFinance/helper/blob/master/%40openzeppelin/contracts/token/ERC20/SafeERC20.sol\":1729:1768  token.allowance(address(this), spender) */\n  0x40\n  dup1\n  mload\n  shl(0xe1, 0x6eb1769f)\n  dup2\n  mstore\n    /* \"https://github.com/OmniDexFinance/helper/blob/master/%40openzeppelin/contracts/token/ERC20/SafeERC20.sol\":1753:1757  this */\n  address\n    /* \"https://github.com/OmniDexFinance/helper/blob/master/%40openzeppelin/contracts/token/ERC20/SafeERC20.sol\":1729:1768  token.allowance(address(this), spender) */\n  0x04\n  dup3\n  add\n  mstore\n  sub(shl(0xa0, 0x01), 0x01)\n  dup5\n  dup2\n  and\n  0x24\n  dup4\n  add\n  mstore\n  swap2\n  mload\n    /* \"https://github.com/OmniDexFinance/helper/blob/master/%40openzeppelin/contracts/token/ERC20/SafeERC20.sol\":1729:1744  token.allowance */\n  swap2\n  dup6\n  and\n  swap2\n  0xdd62ed3e\n  swap2\n    /* \"https://github.com/OmniDexFinance/helper/blob/master/%40openzeppelin/contracts/token/ERC20/SafeERC20.sol\":1729:1768  token.allowance(address(this), spender) */\n  0x44\n  dup1\n  dup3\n  add\n  swap3\n  0x20\n  swap3\n  swap1\n  swap2\n  swap1\n  dup3\n  swap1\n  sub\n  add\n  dup2\n    /* \"https://github.com/OmniDexFinance/helper/blob/master/%40openzeppelin/contracts/token/ERC20/SafeERC20.sol\":1729:1744  token.allowance */\n  dup7\n    /* \"https://github.com/OmniDexFinance/helper/blob/master/%40openzeppelin/contracts/token/ERC20/SafeERC20.sol\":1729:1768  token.allowance(address(this), spender) */\n  dup1\n  extcodesize\n  iszero\n  dup1\n  iszero\n  tag_17\n  jumpi\n  0x00\n  dup1\n  revert\ntag_17:\n  pop\n  gas\n  staticcall\n  iszero\n  dup1\n  iszero\n  tag_19\n  jumpi\n  returndatasize\n  0x00\n  dup1\n  returndatacopy\n  revert(0x00, returndatasize)\ntag_19:\n  pop\n  pop\n  pop\n  pop\n  mload(0x40)\n  returndatasize\n  0x20\n  dup2\n  lt\n  iszero\n  tag_20\n  jumpi\n  0x00\n  dup1\n  revert\ntag_20:\n  pop\n  mload\n    /* \"https://github.com/OmniDexFinance/helper/blob/master/%40openzeppelin/contracts/token/ERC20/SafeERC20.sol\":1729:1773  token.allowance(address(this), spender) == 0 */\n  iszero\n    /* \"https://github.com/OmniDexFinance/helper/blob/master/%40openzeppelin/contracts/token/ERC20/SafeERC20.sol\":1712:1774  (value == 0) || (token.allowance(address(this), spender) == 0) */\ntag_16:\n    /* \"https://github.com/OmniDexFinance/helper/blob/master/%40openzeppelin/contracts/token/ERC20/SafeERC20.sol\":1704:1854  require((value == 0) || (token.allowance(address(this), spender) == 0),... */\n  tag_21\n  jumpi\n  mload(0x40)\n  shl(0xe5, 0x461bcd)\n  dup2\n  mstore\n  0x04\n  add\n  dup1\n  dup1\n  0x20\n  add\n  dup3\n  dup2\n  sub\n  dup3\n  mstore\n  0x36\n  dup2\n  mstore\n  0x20\n  add\n  dup1\n  data_ef945ddb1bfdc0da870feb4560d868b047642b4ac7f2fb7f8b7c51cb4a411e25\n  0x36\n  swap2\n  codecopy\n  0x40\n  add\n  swap2\n  pop\n  pop\n  mload(0x40)\n  dup1\n  swap2\n  sub\n  swap1\n  revert\ntag_21:\n    /* \"https://github.com/OmniDexFinance/helper/blob/master/%40openzeppelin/contracts/token/ERC20/SafeERC20.sol\":1891:1953  abi.encodeWithSelector(token.approve.selector, spender, value) */\n  0x40\n  dup1\n  mload\n  sub(shl(0xa0, 0x01), 0x01)\n  dup5\n  and\n  0x24\n  dup3\n  add\n  mstore\n  0x44\n  dup1\n  dup3\n  add\n  dup5\n  swap1\n  mstore\n  dup3\n  mload\n  dup1\n  dup4\n  sub\n  swap1\n  swap2\n  add\n  dup2\n  mstore\n  0x64\n  swap1\n  swap2\n  add\n  swap1\n  swap2\n  mstore\n  0x20\n  dup2\n  add\n  dup1\n  mload\n  sub(shl(0xe0, 0x01), 0x01)\n  swap1\n  dup2\n  and\n  shl(0xe0, 0x095ea7b3)\n  or\n  swap1\n  swap2\n  mstore\n    /* \"https://github.com/OmniDexFinance/helper/blob/master/%40openzeppelin/contracts/token/ERC20/SafeERC20.sol\":1864:1954  _callOptionalReturn(token, abi.encodeWithSelector(token.approve.selector, spender, value)) */\n  tag_22\n  swap2\n    /* \"https://github.com/OmniDexFinance/helper/blob/master/%40openzeppelin/contracts/token/ERC20/SafeERC20.sol\":1884:1889  token */\n  dup6\n  swap2\n    /* \"https://github.com/OmniDexFinance/helper/blob/master/%40openzeppelin/contracts/token/ERC20/SafeERC20.sol\":1864:1883  _callOptionalReturn */\n  tag_23\n    /* \"https://github.com/OmniDexFinance/helper/blob/master/%40openzeppelin/contracts/token/ERC20/SafeERC20.sol\":1864:1954  _callOptionalReturn(token, abi.encodeWithSelector(token.approve.selector, spender, value)) */\n  and\n  jump\t// in\ntag_22:\n    /* \"https://github.com/OmniDexFinance/helper/blob/master/%40openzeppelin/contracts/token/ERC20/SafeERC20.sol\":1348:1961  function safeApprove(IERC20 token, address spender, uint256 value) internal {... */\n  pop\n  pop\n  pop\n  jump\t// out\n    /* \"https://github.com/OmniDexFinance/helper/blob/master/%40openzeppelin/contracts/token/ERC20/SafeERC20.sol\":2967:3718  function _callOptionalReturn(IERC20 token, bytes memory data) private {... */\ntag_23:\n    /* \"https://github.com/OmniDexFinance/helper/blob/master/%40openzeppelin/contracts/token/ERC20/SafeERC20.sol\":3386:3409  bytes memory returndata */\n  0x60\n    /* \"https://github.com/OmniDexFinance/helper/blob/master/%40openzeppelin/contracts/token/ERC20/SafeERC20.sol\":3412:3481  address(token).functionCall(data, \"SafeERC20: low-level call failed\") */\n  tag_25\n    /* \"https://github.com/OmniDexFinance/helper/blob/master/%40openzeppelin/contracts/token/ERC20/SafeERC20.sol\":3440:3444  data */\n  dup3\n    /* \"https://github.com/OmniDexFinance/helper/blob/master/%40openzeppelin/contracts/token/ERC20/SafeERC20.sol\":3412:3481  address(token).functionCall(data, \"SafeERC20: low-level call failed\") */\n  mload(0x40)\n  dup1\n  0x40\n  add\n  0x40\n  mstore\n  dup1\n  0x20\n  dup2\n  mstore\n  0x20\n  add\n  0x5361666545524332303a206c6f772d6c6576656c2063616c6c206661696c6564\n  dup2\n  mstore\n  pop\n    /* \"https://github.com/OmniDexFinance/helper/blob/master/%40openzeppelin/contracts/token/ERC20/SafeERC20.sol\":3420:3425  token */\n  dup6\n  sub(shl(0xa0, 0x01), 0x01)\n    /* \"https://github.com/OmniDexFinance/helper/blob/master/%40openzeppelin/contracts/token/ERC20/SafeERC20.sol\":3412:3439  address(token).functionCall */\n  and\n  or(tag_0_70, shl(0x20, tag_26))\n  swap1\n    /* \"https://github.com/OmniDexFinance/helper/blob/master/%40openzeppelin/contracts/token/ERC20/SafeERC20.sol\":3412:3481  address(token).functionCall(data, \"SafeERC20: low-level call failed\") */\n  swap3\n  swap2\n  swap1\n  0x20\n  shr\n  jump\t// in\ntag_25:\n    /* \"https://github.com/OmniDexFinance/helper/blob/master/%40openzeppelin/contracts/token/ERC20/SafeERC20.sol\":3495:3512  returndata.length */\n  dup1\n  mload\n    /* \"https://github.com/OmniDexFinance/helper/blob/master/%40openzeppelin/contracts/token/ERC20/SafeERC20.sol\":3386:3481  bytes memory returndata = address(token).functionCall(data, \"SafeERC20: low-level call failed\") */\n  swap1\n  swap2\n  pop\n    /* \"https://github.com/OmniDexFinance/helper/blob/master/%40openzeppelin/contracts/token/ERC20/SafeERC20.sol\":3495:3516  returndata.length > 0 */\n  iszero\n    /* \"https://github.com/OmniDexFinance/helper/blob/master/%40openzeppelin/contracts/token/ERC20/SafeERC20.sol\":3491:3712  if (returndata.length > 0) { // Return data is optional... */\n  tag_22\n  jumpi\n    /* \"https://github.com/OmniDexFinance/helper/blob/master/%40openzeppelin/contracts/token/ERC20/SafeERC20.sol\":3635:3645  returndata */\n  dup1\n    /* \"https://github.com/OmniDexFinance/helper/blob/master/%40openzeppelin/contracts/token/ERC20/SafeERC20.sol\":3624:3654  abi.decode(returndata, (bool)) */\n  dup1\n  0x20\n  add\n  swap1\n  mload\n  0x20\n  dup2\n  lt\n  iszero\n  tag_28\n  jumpi\n  0x00\n  dup1\n  revert\ntag_28:\n  pop\n  mload\n    /* \"https://github.com/OmniDexFinance/helper/blob/master/%40openzeppelin/contracts/token/ERC20/SafeERC20.sol\":3616:3701  require(abi.decode(returndata, (bool)), \"SafeERC20: ERC20 operation did not succeed\") */\n  tag_22\n  jumpi\n  mload(0x40)\n  shl(0xe5, 0x461bcd)\n  dup2\n  mstore\n  0x04\n  add\n  dup1\n  dup1\n  0x20\n  add\n  dup3\n  dup2\n  sub\n  dup3\n  mstore\n  0x2a\n  dup2\n  mstore\n  0x20\n  add\n  dup1\n  data_e11ad79d1e4a7f2e5f376964cb99e8e8f7904e3fc16a109f7a7ecb9aa7956dcd\n  0x2a\n  swap2\n  codecopy\n  0x40\n  add\n  swap2\n  pop\n  pop\n  mload(0x40)\n  dup1\n  swap2\n  sub\n  swap1\n  revert\n    /* \"https://github.com/OmniDexFinance/helper/blob/master/%40openzeppelin/contracts/utils/Address.sol\":3581:3774  function functionCall(address target, bytes memory data, string memory errorMessage) internal returns (bytes memory) {... */\ntag_26:\n    /* \"https://github.com/OmniDexFinance/helper/blob/master/%40openzeppelin/contracts/utils/Address.sol\":3684:3696  bytes memory */\n  0x60\n    /* \"https://github.com/OmniDexFinance/helper/blob/master/%40openzeppelin/contracts/utils/Address.sol\":3715:3767  functionCallWithValue(target, data, 0, errorMessage) */\n  tag_31\n    /* \"https://github.com/OmniDexFinance/helper/blob/master/%40openzeppelin/contracts/utils/Address.sol\":3737:3743  target */\n  dup5\n    /* \"https://github.com/OmniDexFinance/helper/blob/master/%40openzeppelin/contracts/utils/Address.sol\":3745:3749  data */\n  dup5\n    /* \"https://github.com/OmniDexFinance/helper/blob/master/%40openzeppelin/contracts/utils/Address.sol\":3751:3752  0 */\n  0x00\n    /* \"https://github.com/OmniDexFinance/helper/blob/master/%40openzeppelin/contracts/utils/Address.sol\":3754:3766  errorMessage */\n  dup6\n    /* \"https://github.com/OmniDexFinance/helper/blob/master/%40openzeppelin/contracts/utils/Address.sol\":3715:3736  functionCallWithValue */\n  tag_32\n    /* \"https://github.com/OmniDexFinance/helper/blob/master/%40openzeppelin/contracts/utils/Address.sol\":3715:3767  functionCallWithValue(target, data, 0, errorMessage) */\n  jump\t// in\ntag_31:\n    /* \"https://github.com/OmniDexFinance/helper/blob/master/%40openzeppelin/contracts/utils/Address.sol\":3708:3767  return functionCallWithValue(target, data, 0, errorMessage) */\n  swap1\n  pop\n    /* \"https://github.com/OmniDexFinance/helper/blob/master/%40openzeppelin/contracts/utils/Address.sol\":3581:3774  function functionCall(address target, bytes memory data, string memory errorMessage) internal returns (bytes memory) {... */\ntag_30:\n  swap4\n  swap3\n  pop\n  pop\n  pop\n  jump\t// out\n    /* \"https://github.com/OmniDexFinance/helper/blob/master/%40openzeppelin/contracts/utils/Address.sol\":4608:5131  function functionCallWithValue(address target, bytes memory data, uint256 value, string memory errorMessage) internal returns (bytes memory) {... */\ntag_32:\n    /* \"https://github.com/OmniDexFinance/helper/blob/master/%40openzeppelin/contracts/utils/Address.sol\":4735:4747  bytes memory */\n  0x60\n    /* \"https://github.com/OmniDexFinance/helper/blob/master/%40openzeppelin/contracts/utils/Address.sol\":4792:4797  value */\n  dup3\n    /* \"https://github.com/OmniDexFinance/helper/blob/master/%40openzeppelin/contracts/utils/Address.sol\":4767:4788  address(this).balance */\n  selfbalance\n    /* \"https://github.com/OmniDexFinance/helper/blob/master/%40openzeppelin/contracts/utils/Address.sol\":4767:4797  address(this).balance >= value */\n  lt\n  iszero\n    /* \"https://github.com/OmniDexFinance/helper/blob/master/%40openzeppelin/contracts/utils/Address.sol\":4759:4840  require(address(this).balance >= value, \"Address: insufficient balance for call\") */\n  tag_34\n  jumpi\n  mload(0x40)\n  shl(0xe5, 0x461bcd)\n  dup2\n  mstore\n  0x04\n  add\n  dup1\n  dup1\n  0x20\n  add\n  dup3\n  dup2\n  sub\n  dup3\n  mstore\n  0x26\n  dup2\n  mstore\n  0x20\n  add\n  dup1\n  data_565f1a77334fc4792800921178c71e4521acffab18ff9e7885b49377ee80ab4c\n  0x26\n  swap2\n  codecopy\n  0x40\n  add\n  swap2\n  pop\n  pop\n  mload(0x40)\n  dup1\n  swap2\n  sub\n  swap1\n  revert\ntag_34:\n    /* \"https://github.com/OmniDexFinance/helper/blob/master/%40openzeppelin/contracts/utils/Address.sol\":4858:4876  isContract(target) */\n  tag_35\n    /* \"https://github.com/OmniDexFinance/helper/blob/master/%40openzeppelin/contracts/utils/Address.sol\":4869:4875  target */\n  dup6\n    /* \"https://github.com/OmniDexFinance/helper/blob/master/%40openzeppelin/contracts/utils/Address.sol\":4858:4868  isContract */\n  tag_36\n    /* \"https://github.com/OmniDexFinance/helper/blob/master/%40openzeppelin/contracts/utils/Address.sol\":4858:4876  isContract(target) */\n  jump\t// in\ntag_35:\n    /* \"https://github.com/OmniDexFinance/helper/blob/master/%40openzeppelin/contracts/utils/Address.sol\":4850:4910  require(isContract(target), \"Address: call to non-contract\") */\n  tag_37\n  jumpi\n  0x40\n  dup1\n  mload\n  shl(0xe5, 0x461bcd)\n  dup2\n  mstore\n  0x20\n  0x04\n  dup3\n  add\n  mstore\n  0x1d\n  0x24\n  dup3\n  add\n  mstore\n  0x416464726573733a2063616c6c20746f206e6f6e2d636f6e7472616374000000\n  0x44\n  dup3\n  add\n  mstore\n  swap1\n  mload\n  swap1\n  dup2\n  swap1\n  sub\n  0x64\n  add\n  swap1\n  revert\ntag_37:\n    /* \"https://github.com/OmniDexFinance/helper/blob/master/%40openzeppelin/contracts/utils/Address.sol\":4981:4993  bool success */\n  0x00\n    /* \"https://github.com/OmniDexFinance/helper/blob/master/%40openzeppelin/contracts/utils/Address.sol\":4995:5018  bytes memory returndata */\n  0x60\n    /* \"https://github.com/OmniDexFinance/helper/blob/master/%40openzeppelin/contracts/utils/Address.sol\":5022:5028  target */\n  dup7\n  sub(shl(0xa0, 0x01), 0x01)\n    /* \"https://github.com/OmniDexFinance/helper/blob/master/%40openzeppelin/contracts/utils/Address.sol\":5022:5033  target.call */\n  and\n    /* \"https://github.com/OmniDexFinance/helper/blob/master/%40openzeppelin/contracts/utils/Address.sol\":5042:5047  value */\n  dup6\n    /* \"https://github.com/OmniDexFinance/helper/blob/master/%40openzeppelin/contracts/utils/Address.sol\":5050:5054  data */\n  dup8\n    /* \"https://github.com/OmniDexFinance/helper/blob/master/%40openzeppelin/contracts/utils/Address.sol\":5022:5055  target.call{ value: value }(data) */\n  mload(0x40)\n  dup1\n  dup3\n  dup1\n  mload\n  swap1\n  0x20\n  add\n  swap1\n  dup1\n  dup4\n  dup4\ntag_38:\n  0x20\n  dup4\n  lt\n  tag_40\n  jumpi\n  dup1\n  mload\n  dup3\n  mstore\n  not(0x1f)\n  swap1\n  swap3\n  add\n  swap2\n  0x20\n  swap2\n  dup3\n  add\n  swap2\n  add\n  jump(tag_38)\ntag_40:\n  0x01\n  dup4\n  0x20\n  sub\n  0x0100\n  exp\n  sub\n  dup1\n  not\n  dup3\n  mload\n  and\n  dup2\n  dup5\n  mload\n  and\n  dup1\n  dup3\n  or\n  dup6\n  mstore\n  pop\n  pop\n  pop\n  pop\n  pop\n  pop\n  swap1\n  pop\n  add\n  swap2\n  pop\n  pop\n  0x00\n  mload(0x40)\n  dup1\n  dup4\n  sub\n  dup2\n  dup6\n  dup8\n  gas\n  call\n  swap3\n  pop\n  pop\n  pop\n  returndatasize\n  dup1\n  0x00\n  dup2\n  eq\n  tag_43\n  jumpi\n  mload(0x40)\n  swap2\n  pop\n  and(add(returndatasize, 0x3f), not(0x1f))\n  dup3\n  add\n  0x40\n  mstore\n  returndatasize\n  dup3\n  mstore\n  returndatasize\n  0x00\n  0x20\n  dup5\n  add\n  returndatacopy\n  jump(tag_42)\ntag_43:\n  0x60\n  swap2\n  pop\ntag_42:\n  pop\n    /* \"https://github.com/OmniDexFinance/helper/blob/master/%40openzeppelin/contracts/utils/Address.sol\":4980:5055  (bool success, bytes memory returndata) = target.call{ value: value }(data) */\n  swap1\n  swap3\n  pop\n  swap1\n  pop\n    /* \"https://github.com/OmniDexFinance/helper/blob/master/%40openzeppelin/contracts/utils/Address.sol\":5072:5124  _verifyCallResult(success, returndata, errorMessage) */\n  tag_44\n    /* \"https://github.com/OmniDexFinance/helper/blob/master/%40openzeppelin/contracts/utils/Address.sol\":4980:5055  (bool success, bytes memory returndata) = target.call{ value: value }(data) */\n  dup3\n  dup3\n    /* \"https://github.com/OmniDexFinance/helper/blob/master/%40openzeppelin/contracts/utils/Address.sol\":5111:5123  errorMessage */\n  dup7\n    /* \"https://github.com/OmniDexFinance/helper/blob/master/%40openzeppelin/contracts/utils/Address.sol\":5072:5089  _verifyCallResult */\n  tag_45\n    /* \"https://github.com/OmniDexFinance/helper/blob/master/%40openzeppelin/contracts/utils/Address.sol\":5072:5124  _verifyCallResult(success, returndata, errorMessage) */\n  jump\t// in\ntag_44:\n    /* \"https://github.com/OmniDexFinance/helper/blob/master/%40openzeppelin/contracts/utils/Address.sol\":5065:5124  return _verifyCallResult(success, returndata, errorMessage) */\n  swap8\n    /* \"https://github.com/OmniDexFinance/helper/blob/master/%40openzeppelin/contracts/utils/Address.sol\":4608:5131  function functionCallWithValue(address target, bytes memory data, uint256 value, string memory errorMessage) internal returns (bytes memory) {... */\n  swap7\n  pop\n  pop\n  pop\n  pop\n  pop\n  pop\n  pop\n  jump\t// out\n    /* \"https://github.com/OmniDexFinance/helper/blob/master/%40openzeppelin/contracts/utils/Address.sol\":726:1139  function isContract(address account) internal view returns (bool) {... */\ntag_36:\n    /* \"https://github.com/OmniDexFinance/helper/blob/master/%40openzeppelin/contracts/utils/Address.sol\":1086:1106  extcodesize(account) */\n  extcodesize\n    /* \"https://github.com/OmniDexFinance/helper/blob/master/%40openzeppelin/contracts/utils/Address.sol\":1124:1132  size > 0 */\n  iszero\n  iszero\n  swap1\n    /* \"https://github.com/OmniDexFinance/helper/blob/master/%40openzeppelin/contracts/utils/Address.sol\":726:1139  function isContract(address account) internal view returns (bool) {... */\n  jump\t// out\n    /* \"https://github.com/OmniDexFinance/helper/blob/master/%40openzeppelin/contracts/utils/Address.sol\":7091:7816  function _verifyCallResult(bool success, bytes memory returndata, string memory errorMessage) private pure returns(bytes memory) {... */\ntag_45:\n    /* \"https://github.com/OmniDexFinance/helper/blob/master/%40openzeppelin/contracts/utils/Address.sol\":7206:7218  bytes memory */\n  0x60\n    /* \"https://github.com/OmniDexFinance/helper/blob/master/%40openzeppelin/contracts/utils/Address.sol\":7234:7241  success */\n  dup4\n    /* \"https://github.com/OmniDexFinance/helper/blob/master/%40openzeppelin/contracts/utils/Address.sol\":7230:7810  if (success) {... */\n  iszero\n  tag_48\n  jumpi\n  pop\n    /* \"https://github.com/OmniDexFinance/helper/blob/master/%40openzeppelin/contracts/utils/Address.sol\":7264:7274  returndata */\n  dup2\n    /* \"https://github.com/OmniDexFinance/helper/blob/master/%40openzeppelin/contracts/utils/Address.sol\":7257:7274  return returndata */\n  jump(tag_30)\n    /* \"https://github.com/OmniDexFinance/helper/blob/master/%40openzeppelin/contracts/utils/Address.sol\":7230:7810  if (success) {... */\ntag_48:\n    /* \"https://github.com/OmniDexFinance/helper/blob/master/%40openzeppelin/contracts/utils/Address.sol\":7375:7392  returndata.length */\n  dup3\n  mload\n    /* \"https://github.com/OmniDexFinance/helper/blob/master/%40openzeppelin/contracts/utils/Address.sol\":7375:7396  returndata.length > 0 */\n  iszero\n    /* \"https://github.com/OmniDexFinance/helper/blob/master/%40openzeppelin/contracts/utils/Address.sol\":7371:7800  if (returndata.length > 0) {... */\n  tag_50\n  jumpi\n    /* \"https://github.com/OmniDexFinance/helper/blob/master/%40openzeppelin/contracts/utils/Address.sol\":7633:7643  returndata */\n  dup3\n    /* \"https://github.com/OmniDexFinance/helper/blob/master/%40openzeppelin/contracts/utils/Address.sol\":7627:7644  mload(returndata) */\n  mload\n    /* \"https://github.com/OmniDexFinance/helper/blob/master/%40openzeppelin/contracts/utils/Address.sol\":7693:7708  returndata_size */\n  dup1\n    /* \"https://github.com/OmniDexFinance/helper/blob/master/%40openzeppelin/contracts/utils/Address.sol\":7680:7690  returndata */\n  dup5\n    /* \"https://github.com/OmniDexFinance/helper/blob/master/%40openzeppelin/contracts/utils/Address.sol\":7676:7678  32 */\n  0x20\n    /* \"https://github.com/OmniDexFinance/helper/blob/master/%40openzeppelin/contracts/utils/Address.sol\":7672:7691  add(32, returndata) */\n  add\n    /* \"https://github.com/OmniDexFinance/helper/blob/master/%40openzeppelin/contracts/utils/Address.sol\":7665:7709  revert(add(32, returndata), returndata_size) */\n  revert\n    /* \"https://github.com/OmniDexFinance/helper/blob/master/%40openzeppelin/contracts/utils/Address.sol\":7582:7727  {... */\ntag_50:\n    /* \"https://github.com/OmniDexFinance/helper/blob/master/%40openzeppelin/contracts/utils/Address.sol\":7772:7784  errorMessage */\n  dup2\n    /* \"https://github.com/OmniDexFinance/helper/blob/master/%40openzeppelin/contracts/utils/Address.sol\":7765:7785  revert(errorMessage) */\n  mload(0x40)\n  shl(0xe5, 0x461bcd)\n  dup2\n  mstore\n  0x04\n  add\n  dup1\n  dup1\n  0x20\n  add\n  dup3\n  dup2\n  sub\n  dup3\n  mstore\n  dup4\n  dup2\n  dup2\n  mload\n  dup2\n  mstore\n  0x20\n  add\n  swap2\n  pop\n  dup1\n  mload\n  swap1\n  0x20\n  add\n  swap1\n  dup1\n  dup4\n  dup4\n  0x00\ntag_52:\n  dup4\n  dup2\n  lt\n  iszero\n  tag_54\n  jumpi\n  dup2\n  dup2\n  add\n  mload\n  dup4\n  dup3\n  add\n  mstore\n  0x20\n  add\n  jump(tag_52)\ntag_54:\n  pop\n  pop\n  pop\n  pop\n  swap1\n  pop\n  swap1\n  dup2\n  add\n  swap1\n  0x1f\n  and\n  dup1\n  iszero\n  tag_55\n  jumpi\n  dup1\n  dup3\n  sub\n  dup1\n  mload\n  0x01\n  dup4\n  0x20\n  sub\n  0x0100\n  exp\n  sub\n  not\n  and\n  dup2\n  mstore\n  0x20\n  add\n  swap2\n  pop\ntag_55:\n  pop\n  swap3\n  pop\n  pop\n  pop\n  mload(0x40)\n  dup1\n  swap2\n  sub\n  swap1\n  revert\n    /* \"contracts/Omnidex-incentives/incentives/OmnidexIncentivesVault.sol\":575:5266  contract OmnidexIncentivesVault is Ownable, Pausable {... */\ntag_13:\n  shr(0x60, mload(0x80))\n  codecopy(0x00, dataOffset(sub_0), dataSize(sub_0))\n  assignImmutable(\"0x8fef2229291b68be841adf029e58b87f39ba144b2d3b0af1760243d0a9bc6a1c\")\n  return(0x00, dataSize(sub_0))\nstop\ndata_565f1a77334fc4792800921178c71e4521acffab18ff9e7885b49377ee80ab4c 416464726573733a20696e73756666696369656e742062616c616e636520666f722063616c6c\ndata_e11ad79d1e4a7f2e5f376964cb99e8e8f7904e3fc16a109f7a7ecb9aa7956dcd 5361666545524332303a204552433230206f7065726174696f6e20646964206e6f742073756363656564\ndata_ef945ddb1bfdc0da870feb4560d868b047642b4ac7f2fb7f8b7c51cb4a411e25 5361666545524332303a20617070726f76652066726f6d206e6f6e2d7a65726f20746f206e6f6e2d7a65726f20616c6c6f77616e6365\n\nsub_0: assembly {\n        /* \"contracts/Omnidex-incentives/incentives/OmnidexIncentivesVault.sol\":575:5266  contract OmnidexIncentivesVault is Ownable, Pausable {... */\n      mstore(0x40, 0x80)\n      callvalue\n      dup1\n      iszero\n      tag_1\n      jumpi\n      0x00\n      dup1\n      revert\n    tag_1:\n      pop\n      jumpi(tag_2, lt(calldatasize, 0x04))\n      shr(0xe0, calldataload(0x00))\n      dup1\n      0x8ef57f5e\n      gt\n      tag_22\n      jumpi\n      dup1\n      0xf059cf2b\n      gt\n      tag_23\n      jumpi\n      dup1\n      0xf059cf2b\n      eq\n      tag_17\n      jumpi\n      dup1\n      0xf2fde38b\n      eq\n      tag_18\n      jumpi\n      dup1\n      0xf3fef3a3\n      eq\n      tag_19\n      jumpi\n      dup1\n      0xf851a440\n      eq\n      tag_20\n      jumpi\n      dup1\n      0xfc0c546a\n      eq\n      tag_21\n      jumpi\n      jump(tag_2)\n    tag_23:\n      dup1\n      0x8ef57f5e\n      eq\n      tag_12\n      jumpi\n      dup1\n      0xa6895b5a\n      eq\n      tag_13\n      jumpi\n      dup1\n      0xb20d30a9\n      eq\n      tag_14\n      jumpi\n      dup1\n      0xb6b55f25\n      eq\n      tag_15\n      jumpi\n      dup1\n      0xdef68a9c\n      eq\n      tag_16\n      jumpi\n      jump(tag_2)\n    tag_22:\n      dup1\n      0x704b6c02\n      gt\n      tag_24\n      jumpi\n      dup1\n      0x704b6c02\n      eq\n      tag_7\n      jumpi\n      dup1\n      0x715018a6\n      eq\n      tag_8\n      jumpi\n      dup1\n      0x8456cb59\n      eq\n      tag_9\n      jumpi\n      dup1\n      0x853828b6\n      eq\n      tag_10\n      jumpi\n      dup1\n      0x8da5cb5b\n      eq\n      tag_11\n      jumpi\n      jump(tag_2)\n    tag_24:\n      dup1\n      0x3f4ba83a\n      eq\n      tag_3\n      jumpi\n      dup1\n      0x5c975abb\n      eq\n      tag_4\n      jumpi\n      dup1\n      0x67eeba0c\n      eq\n      tag_5\n      jumpi\n      dup1\n      0x6b0c932d\n      eq\n      tag_6\n      jumpi\n    tag_2:\n      0x00\n      dup1\n      revert\n        /* \"contracts/Omnidex-incentives/incentives/OmnidexIncentivesVault.sol\":4004:4104  function unpause() external onlyAdmin whenPaused {... */\n    tag_3:\n      tag_25\n      tag_26\n      jump\t// in\n    tag_25:\n      stop\n        /* \"https://github.com/OmniDexFinance/helper/blob/master/%40openzeppelin/contracts/utils/Pausable.sol\":1052:1136  function paused() public view virtual returns (bool) {... */\n    tag_4:\n      tag_27\n      tag_28\n      jump\t// in\n    tag_27:\n      0x40\n      dup1\n      mload\n      swap2\n      iszero\n      iszero\n      dup3\n      mstore\n      mload\n      swap1\n      dup2\n      swap1\n      sub\n      0x20\n      add\n      swap1\n      return\n        /* \"contracts/Omnidex-incentives/incentives/OmnidexIncentivesVault.sol\":815:837  uint public dailyLimit */\n    tag_5:\n      tag_29\n      tag_30\n      jump\t// in\n    tag_29:\n      0x40\n      dup1\n      mload\n      swap2\n      dup3\n      mstore\n      mload\n      swap1\n      dup2\n      swap1\n      sub\n      0x20\n      add\n      swap1\n      return\n        /* \"contracts/Omnidex-incentives/incentives/OmnidexIncentivesVault.sol\":843:862  uint public lastDay */\n    tag_6:\n      tag_29\n      tag_32\n      jump\t// in\n        /* \"contracts/Omnidex-incentives/incentives/OmnidexIncentivesVault.sol\":3164:3313  function setAdmin(address _admin) external onlyOwner {... */\n    tag_7:\n      tag_25\n      0x04\n      dup1\n      calldatasize\n      sub\n      0x20\n      dup2\n      lt\n      iszero\n      tag_34\n      jumpi\n      0x00\n      dup1\n      revert\n    tag_34:\n      pop\n      calldataload\n      sub(shl(0xa0, 0x01), 0x01)\n      and\n      tag_35\n      jump\t// in\n        /* \"https://github.com/OmniDexFinance/helper/blob/master/%40openzeppelin/contracts/access/Ownable.sol\":1717:1862  function renounceOwnership() public virtual onlyOwner {... */\n    tag_8:\n      tag_25\n      tag_37\n      jump\t// in\n        /* \"contracts/Omnidex-incentives/incentives/OmnidexIncentivesVault.sol\":3795:3892  function pause() external onlyAdmin whenNotPaused {... */\n    tag_9:\n      tag_25\n      tag_39\n      jump\t// in\n        /* \"contracts/Omnidex-incentives/incentives/OmnidexIncentivesVault.sol\":2565:2686  function withdrawAll() external onlyOwner {... */\n    tag_10:\n      tag_25\n      tag_41\n      jump\t// in\n        /* \"https://github.com/OmniDexFinance/helper/blob/master/%40openzeppelin/contracts/access/Ownable.sol\":1085:1170  function owner() public view virtual returns (address) {... */\n    tag_11:\n      tag_42\n      tag_43\n      jump\t// in\n    tag_42:\n      0x40\n      dup1\n      mload\n      sub(shl(0xa0, 0x01), 0x01)\n      swap1\n      swap3\n      and\n      dup3\n      mstore\n      mload\n      swap1\n      dup2\n      swap1\n      sub\n      0x20\n      add\n      swap1\n      return\n        /* \"contracts/Omnidex-incentives/incentives/OmnidexIncentivesVault.sol\":779:809  address public approvedSpender */\n    tag_12:\n      tag_42\n      tag_45\n      jump\t// in\n        /* \"contracts/Omnidex-incentives/incentives/OmnidexIncentivesVault.sol\":2973:3059  function getDailyLimit() public view returns (uint) {... */\n    tag_13:\n      tag_29\n      tag_47\n      jump\t// in\n        /* \"contracts/Omnidex-incentives/incentives/OmnidexIncentivesVault.sol\":2793:2967  function setDailyLimit(uint _newDailyLimit) external onlyOwner {... */\n    tag_14:\n      tag_25\n      0x04\n      dup1\n      calldatasize\n      sub\n      0x20\n      dup2\n      lt\n      iszero\n      tag_49\n      jumpi\n      0x00\n      dup1\n      revert\n    tag_49:\n      pop\n      calldataload\n      tag_50\n      jump\t// in\n        /* \"contracts/Omnidex-incentives/incentives/OmnidexIncentivesVault.sol\":2266:2494  function deposit(uint256 _amount) external whenNotPaused {... */\n    tag_15:\n      tag_25\n      0x04\n      dup1\n      calldatasize\n      sub\n      0x20\n      dup2\n      lt\n      iszero\n      tag_52\n      jumpi\n      0x00\n      dup1\n      revert\n    tag_52:\n      pop\n      calldataload\n      tag_53\n      jump\t// in\n        /* \"contracts/Omnidex-incentives/incentives/OmnidexIncentivesVault.sol\":3401:3683  function inCaseTokensGetStuck(address _token) external onlyAdmin {... */\n    tag_16:\n      tag_25\n      0x04\n      dup1\n      calldatasize\n      sub\n      0x20\n      dup2\n      lt\n      iszero\n      tag_55\n      jumpi\n      0x00\n      dup1\n      revert\n    tag_55:\n      pop\n      calldataload\n      sub(shl(0xa0, 0x01), 0x01)\n      and\n      tag_56\n      jump\t// in\n        /* \"contracts/Omnidex-incentives/incentives/OmnidexIncentivesVault.sol\":868:890  uint public spentToday */\n    tag_17:\n      tag_29\n      tag_58\n      jump\t// in\n        /* \"https://github.com/OmniDexFinance/helper/blob/master/%40openzeppelin/contracts/access/Ownable.sol\":2011:2251  function transferOwnership(address newOwner) public virtual onlyOwner {... */\n    tag_18:\n      tag_25\n      0x04\n      dup1\n      calldatasize\n      sub\n      0x20\n      dup2\n      lt\n      iszero\n      tag_60\n      jumpi\n      0x00\n      dup1\n      revert\n    tag_60:\n      pop\n      calldataload\n      sub(shl(0xa0, 0x01), 0x01)\n      and\n      tag_61\n      jump\t// in\n        /* \"contracts/Omnidex-incentives/incentives/OmnidexIncentivesVault.sol\":4285:4684  function withdraw(address _to, uint256 _amount) public whenNotPaused onlyAuth {... */\n    tag_19:\n      tag_25\n      0x04\n      dup1\n      calldatasize\n      sub\n      0x40\n      dup2\n      lt\n      iszero\n      tag_63\n      jumpi\n      0x00\n      dup1\n      revert\n    tag_63:\n      pop\n      sub(shl(0xa0, 0x01), 0x01)\n      dup2\n      calldataload\n      and\n      swap1\n      0x20\n      add\n      calldataload\n      tag_64\n      jump\t// in\n        /* \"contracts/Omnidex-incentives/incentives/OmnidexIncentivesVault.sol\":753:773  address public admin */\n    tag_20:\n      tag_42\n      tag_66\n      jump\t// in\n        /* \"contracts/Omnidex-incentives/incentives/OmnidexIncentivesVault.sol\":699:728  IERC20 public immutable token */\n    tag_21:\n      tag_42\n      tag_68\n      jump\t// in\n        /* \"contracts/Omnidex-incentives/incentives/OmnidexIncentivesVault.sol\":4004:4104  function unpause() external onlyAdmin whenPaused {... */\n    tag_26:\n        /* \"contracts/Omnidex-incentives/incentives/OmnidexIncentivesVault.sol\":1837:1842  admin */\n      and(sub(shl(0xa0, 0x01), 0x01), sload(0x01))\n        /* \"contracts/Omnidex-incentives/incentives/OmnidexIncentivesVault.sol\":1823:1833  msg.sender */\n      caller\n        /* \"contracts/Omnidex-incentives/incentives/OmnidexIncentivesVault.sol\":1823:1842  msg.sender == admin */\n      eq\n        /* \"contracts/Omnidex-incentives/incentives/OmnidexIncentivesVault.sol\":1815:1867  require(msg.sender == admin, \"Only admin permitted\") */\n      tag_72\n      jumpi\n      0x40\n      dup1\n      mload\n      shl(0xe5, 0x461bcd)\n      dup2\n      mstore\n      0x20\n      0x04\n      dup3\n      add\n      mstore\n      0x14\n      0x24\n      dup3\n      add\n      mstore\n      shl(0x62, 0x13db9b1e4818591b5a5b881c195c9b5a5d1d1959)\n      0x44\n      dup3\n      add\n      mstore\n      swap1\n      mload\n      swap1\n      dup2\n      swap1\n      sub\n      0x64\n      add\n      swap1\n      revert\n    tag_72:\n        /* \"https://github.com/OmniDexFinance/helper/blob/master/%40openzeppelin/contracts/utils/Pausable.sol\":1631:1639  paused() */\n      tag_74\n        /* \"https://github.com/OmniDexFinance/helper/blob/master/%40openzeppelin/contracts/utils/Pausable.sol\":1631:1637  paused */\n      tag_28\n        /* \"https://github.com/OmniDexFinance/helper/blob/master/%40openzeppelin/contracts/utils/Pausable.sol\":1631:1639  paused() */\n      jump\t// in\n    tag_74:\n        /* \"https://github.com/OmniDexFinance/helper/blob/master/%40openzeppelin/contracts/utils/Pausable.sol\":1623:1664  require(paused(), \"Pausable: not paused\") */\n      tag_75\n      jumpi\n      0x40\n      dup1\n      mload\n      shl(0xe5, 0x461bcd)\n      dup2\n      mstore\n      0x20\n      0x04\n      dup3\n      add\n      mstore\n      0x14\n      0x24\n      dup3\n      add\n      mstore\n      shl(0x62, 0x14185d5cd8589b194e881b9bdd081c185d5cd959)\n      0x44\n      dup3\n      add\n      mstore\n      swap1\n      mload\n      swap1\n      dup2\n      swap1\n      sub\n      0x64\n      add\n      swap1\n      revert\n    tag_75:\n        /* \"contracts/Omnidex-incentives/incentives/OmnidexIncentivesVault.sol\":4063:4073  _unpause() */\n      tag_77\n        /* \"contracts/Omnidex-incentives/incentives/OmnidexIncentivesVault.sol\":4063:4071  _unpause */\n      tag_78\n        /* \"contracts/Omnidex-incentives/incentives/OmnidexIncentivesVault.sol\":4063:4073  _unpause() */\n      jump\t// in\n    tag_77:\n        /* \"contracts/Omnidex-incentives/incentives/OmnidexIncentivesVault.sol\":4088:4097  Unpause() */\n      mload(0x40)\n      0x7805862f689e2f13df9f062ff482ad3ad112aca9e0847911ed832e158c525b33\n      swap1\n      0x00\n      swap1\n      log1\n        /* \"contracts/Omnidex-incentives/incentives/OmnidexIncentivesVault.sol\":4004:4104  function unpause() external onlyAdmin whenPaused {... */\n      jump\t// out\n        /* \"https://github.com/OmniDexFinance/helper/blob/master/%40openzeppelin/contracts/utils/Pausable.sol\":1052:1136  function paused() public view virtual returns (bool) {... */\n    tag_28:\n        /* \"https://github.com/OmniDexFinance/helper/blob/master/%40openzeppelin/contracts/utils/Pausable.sol\":1099:1103  bool */\n      0x00\n        /* \"https://github.com/OmniDexFinance/helper/blob/master/%40openzeppelin/contracts/utils/Pausable.sol\":1122:1129  _paused */\n      sload\n      shl(0xa0, 0x01)\n      swap1\n      div\n      0xff\n      and\n      swap1\n        /* \"https://github.com/OmniDexFinance/helper/blob/master/%40openzeppelin/contracts/utils/Pausable.sol\":1052:1136  function paused() public view virtual returns (bool) {... */\n      jump\t// out\n        /* \"contracts/Omnidex-incentives/incentives/OmnidexIncentivesVault.sol\":815:837  uint public dailyLimit */\n    tag_30:\n      sload(0x03)\n      dup2\n      jump\t// out\n        /* \"contracts/Omnidex-incentives/incentives/OmnidexIncentivesVault.sol\":843:862  uint public lastDay */\n    tag_32:\n      sload(0x04)\n      dup2\n      jump\t// out\n        /* \"contracts/Omnidex-incentives/incentives/OmnidexIncentivesVault.sol\":3164:3313  function setAdmin(address _admin) external onlyOwner {... */\n    tag_35:\n        /* \"https://github.com/OmniDexFinance/helper/blob/master/%40openzeppelin/contracts/access/Ownable.sol\":1308:1320  _msgSender() */\n      tag_81\n        /* \"https://github.com/OmniDexFinance/helper/blob/master/%40openzeppelin/contracts/access/Ownable.sol\":1308:1318  _msgSender */\n      tag_82\n        /* \"https://github.com/OmniDexFinance/helper/blob/master/%40openzeppelin/contracts/access/Ownable.sol\":1308:1320  _msgSender() */\n      jump\t// in\n    tag_81:\n      sub(shl(0xa0, 0x01), 0x01)\n        /* \"https://github.com/OmniDexFinance/helper/blob/master/%40openzeppelin/contracts/access/Ownable.sol\":1297:1320  owner() == _msgSender() */\n      and\n        /* \"https://github.com/OmniDexFinance/helper/blob/master/%40openzeppelin/contracts/access/Ownable.sol\":1297:1304  owner() */\n      tag_83\n        /* \"https://github.com/OmniDexFinance/helper/blob/master/%40openzeppelin/contracts/access/Ownable.sol\":1297:1302  owner */\n      tag_43\n        /* \"https://github.com/OmniDexFinance/helper/blob/master/%40openzeppelin/contracts/access/Ownable.sol\":1297:1304  owner() */\n      jump\t// in\n    tag_83:\n      sub(shl(0xa0, 0x01), 0x01)\n        /* \"https://github.com/OmniDexFinance/helper/blob/master/%40openzeppelin/contracts/access/Ownable.sol\":1297:1320  owner() == _msgSender() */\n      and\n      eq\n        /* \"https://github.com/OmniDexFinance/helper/blob/master/%40openzeppelin/contracts/access/Ownable.sol\":1289:1357  require(owner() == _msgSender(), \"Ownable: caller is not the owner\") */\n      tag_84\n      jumpi\n      0x40\n      dup1\n      mload\n      shl(0xe5, 0x461bcd)\n      dup2\n      mstore\n      0x20\n      0x04\n      dup3\n      add\n      dup2\n      swap1\n      mstore\n      0x24\n      dup3\n      add\n      mstore\n      0x00\n      dup1\n      mload\n      0x20\n      data_9924ebdf1add33d25d4ef888e16131f0a5687b0580a36c21b5c301a6c462effe\n      dup4\n      codecopy\n      dup2\n      mload\n      swap2\n      mstore\n      0x44\n      dup3\n      add\n      mstore\n      swap1\n      mload\n      swap1\n      dup2\n      swap1\n      sub\n      0x64\n      add\n      swap1\n      revert\n    tag_84:\n      sub(shl(0xa0, 0x01), 0x01)\n        /* \"contracts/Omnidex-incentives/incentives/OmnidexIncentivesVault.sol\":3235:3255  _admin != address(0) */\n      dup2\n      and\n        /* \"contracts/Omnidex-incentives/incentives/OmnidexIncentivesVault.sol\":3227:3282  require(_admin != address(0), \"Cannot be zero address\") */\n      tag_86\n      jumpi\n      0x40\n      dup1\n      mload\n      shl(0xe5, 0x461bcd)\n      dup2\n      mstore\n      0x20\n      0x04\n      dup3\n      add\n      mstore\n      0x16\n      0x24\n      dup3\n      add\n      mstore\n      shl(0x50, 0x43616e6e6f74206265207a65726f2061646472657373)\n      0x44\n      dup3\n      add\n      mstore\n      swap1\n      mload\n      swap1\n      dup2\n      swap1\n      sub\n      0x64\n      add\n      swap1\n      revert\n    tag_86:\n        /* \"contracts/Omnidex-incentives/incentives/OmnidexIncentivesVault.sol\":3292:3297  admin */\n      0x01\n        /* \"contracts/Omnidex-incentives/incentives/OmnidexIncentivesVault.sol\":3292:3306  admin = _admin */\n      dup1\n      sload\n      not(sub(shl(0xa0, 0x01), 0x01))\n      and\n      sub(shl(0xa0, 0x01), 0x01)\n      swap3\n      swap1\n      swap3\n      and\n      swap2\n      swap1\n      swap2\n      or\n      swap1\n      sstore\n        /* \"contracts/Omnidex-incentives/incentives/OmnidexIncentivesVault.sol\":3164:3313  function setAdmin(address _admin) external onlyOwner {... */\n      jump\t// out\n        /* \"https://github.com/OmniDexFinance/helper/blob/master/%40openzeppelin/contracts/access/Ownable.sol\":1717:1862  function renounceOwnership() public virtual onlyOwner {... */\n    tag_37:\n        /* \"https://github.com/OmniDexFinance/helper/blob/master/%40openzeppelin/contracts/access/Ownable.sol\":1308:1320  _msgSender() */\n      tag_88\n        /* \"https://github.com/OmniDexFinance/helper/blob/master/%40openzeppelin/contracts/access/Ownable.sol\":1308:1318  _msgSender */\n      tag_82\n        /* \"https://github.com/OmniDexFinance/helper/blob/master/%40openzeppelin/contracts/access/Ownable.sol\":1308:1320  _msgSender() */\n      jump\t// in\n    tag_88:\n      sub(shl(0xa0, 0x01), 0x01)\n        /* \"https://github.com/OmniDexFinance/helper/blob/master/%40openzeppelin/contracts/access/Ownable.sol\":1297:1320  owner() == _msgSender() */\n      and\n        /* \"https://github.com/OmniDexFinance/helper/blob/master/%40openzeppelin/contracts/access/Ownable.sol\":1297:1304  owner() */\n      tag_89\n        /* \"https://github.com/OmniDexFinance/helper/blob/master/%40openzeppelin/contracts/access/Ownable.sol\":1297:1302  owner */\n      tag_43\n        /* \"https://github.com/OmniDexFinance/helper/blob/master/%40openzeppelin/contracts/access/Ownable.sol\":1297:1304  owner() */\n      jump\t// in\n    tag_89:\n      sub(shl(0xa0, 0x01), 0x01)\n        /* \"https://github.com/OmniDexFinance/helper/blob/master/%40openzeppelin/contracts/access/Ownable.sol\":1297:1320  owner() == _msgSender() */\n      and\n      eq\n        /* \"https://github.com/OmniDexFinance/helper/blob/master/%40openzeppelin/contracts/access/Ownable.sol\":1289:1357  require(owner() == _msgSender(), \"Ownable: caller is not the owner\") */\n      tag_90\n      jumpi\n      0x40\n      dup1\n      mload\n      shl(0xe5, 0x461bcd)\n      dup2\n      mstore\n      0x20\n      0x04\n      dup3\n      add\n      dup2\n      swap1\n      mstore\n      0x24\n      dup3\n      add\n      mstore\n      0x00\n      dup1\n      mload\n      0x20\n      data_9924ebdf1add33d25d4ef888e16131f0a5687b0580a36c21b5c301a6c462effe\n      dup4\n      codecopy\n      dup2\n      mload\n      swap2\n      mstore\n      0x44\n      dup3\n      add\n      mstore\n      swap1\n      mload\n      swap1\n      dup2\n      swap1\n      sub\n      0x64\n      add\n      swap1\n      revert\n    tag_90:\n        /* \"https://github.com/OmniDexFinance/helper/blob/master/%40openzeppelin/contracts/access/Ownable.sol\":1823:1824  0 */\n      0x00\n        /* \"https://github.com/OmniDexFinance/helper/blob/master/%40openzeppelin/contracts/access/Ownable.sol\":1807:1813  _owner */\n      dup1\n      sload\n        /* \"https://github.com/OmniDexFinance/helper/blob/master/%40openzeppelin/contracts/access/Ownable.sol\":1786:1826  OwnershipTransferred(_owner, address(0)) */\n      mload(0x40)\n      sub(shl(0xa0, 0x01), 0x01)\n        /* \"https://github.com/OmniDexFinance/helper/blob/master/%40openzeppelin/contracts/access/Ownable.sol\":1807:1813  _owner */\n      swap1\n      swap2\n      and\n      swap1\n        /* \"https://github.com/OmniDexFinance/helper/blob/master/%40openzeppelin/contracts/access/Ownable.sol\":1786:1826  OwnershipTransferred(_owner, address(0)) */\n      0x8be0079c531659141344cd1fd0a4f28419497f9722a3daafe3b4186f6b6457e0\n      swap1\n        /* \"https://github.com/OmniDexFinance/helper/blob/master/%40openzeppelin/contracts/access/Ownable.sol\":1823:1824  0 */\n      dup4\n      swap1\n        /* \"https://github.com/OmniDexFinance/helper/blob/master/%40openzeppelin/contracts/access/Ownable.sol\":1786:1826  OwnershipTransferred(_owner, address(0)) */\n      log3\n        /* \"https://github.com/OmniDexFinance/helper/blob/master/%40openzeppelin/contracts/access/Ownable.sol\":1853:1854  0 */\n      0x00\n        /* \"https://github.com/OmniDexFinance/helper/blob/master/%40openzeppelin/contracts/access/Ownable.sol\":1836:1855  _owner = address(0) */\n      dup1\n      sload\n      not(sub(shl(0xa0, 0x01), 0x01))\n      and\n      swap1\n      sstore\n        /* \"https://github.com/OmniDexFinance/helper/blob/master/%40openzeppelin/contracts/access/Ownable.sol\":1717:1862  function renounceOwnership() public virtual onlyOwner {... */\n      jump\t// out\n        /* \"contracts/Omnidex-incentives/incentives/OmnidexIncentivesVault.sol\":3795:3892  function pause() external onlyAdmin whenNotPaused {... */\n    tag_39:\n        /* \"contracts/Omnidex-incentives/incentives/OmnidexIncentivesVault.sol\":1837:1842  admin */\n      and(sub(shl(0xa0, 0x01), 0x01), sload(0x01))\n        /* \"contracts/Omnidex-incentives/incentives/OmnidexIncentivesVault.sol\":1823:1833  msg.sender */\n      caller\n        /* \"contracts/Omnidex-incentives/incentives/OmnidexIncentivesVault.sol\":1823:1842  msg.sender == admin */\n      eq\n        /* \"contracts/Omnidex-incentives/incentives/OmnidexIncentivesVault.sol\":1815:1867  require(msg.sender == admin, \"Only admin permitted\") */\n      tag_93\n      jumpi\n      0x40\n      dup1\n      mload\n      shl(0xe5, 0x461bcd)\n      dup2\n      mstore\n      0x20\n      0x04\n      dup3\n      add\n      mstore\n      0x14\n      0x24\n      dup3\n      add\n      mstore\n      shl(0x62, 0x13db9b1e4818591b5a5b881c195c9b5a5d1d1959)\n      0x44\n      dup3\n      add\n      mstore\n      swap1\n      mload\n      swap1\n      dup2\n      swap1\n      sub\n      0x64\n      add\n      swap1\n      revert\n    tag_93:\n        /* \"https://github.com/OmniDexFinance/helper/blob/master/%40openzeppelin/contracts/utils/Pausable.sol\":1366:1374  paused() */\n      tag_95\n        /* \"https://github.com/OmniDexFinance/helper/blob/master/%40openzeppelin/contracts/utils/Pausable.sol\":1366:1372  paused */\n      tag_28\n        /* \"https://github.com/OmniDexFinance/helper/blob/master/%40openzeppelin/contracts/utils/Pausable.sol\":1366:1374  paused() */\n      jump\t// in\n    tag_95:\n        /* \"https://github.com/OmniDexFinance/helper/blob/master/%40openzeppelin/contracts/utils/Pausable.sol\":1365:1374  !paused() */\n      iszero\n        /* \"https://github.com/OmniDexFinance/helper/blob/master/%40openzeppelin/contracts/utils/Pausable.sol\":1357:1395  require(!paused(), \"Pausable: paused\") */\n      tag_96\n      jumpi\n      0x40\n      dup1\n      mload\n      shl(0xe5, 0x461bcd)\n      dup2\n      mstore\n      0x20\n      0x04\n      dup3\n      add\n      mstore\n      0x10\n      0x24\n      dup3\n      add\n      mstore\n      shl(0x82, 0x14185d5cd8589b194e881c185d5cd959)\n      0x44\n      dup3\n      add\n      mstore\n      swap1\n      mload\n      swap1\n      dup2\n      swap1\n      sub\n      0x64\n      add\n      swap1\n      revert\n    tag_96:\n        /* \"contracts/Omnidex-incentives/incentives/OmnidexIncentivesVault.sol\":3855:3863  _pause() */\n      tag_98\n        /* \"contracts/Omnidex-incentives/incentives/OmnidexIncentivesVault.sol\":3855:3861  _pause */\n      tag_99\n        /* \"contracts/Omnidex-incentives/incentives/OmnidexIncentivesVault.sol\":3855:3863  _pause() */\n      jump\t// in\n    tag_98:\n        /* \"contracts/Omnidex-incentives/incentives/OmnidexIncentivesVault.sol\":3878:3885  Pause() */\n      mload(0x40)\n      0x6985a02210a168e66602d3235cb6db0e70f92b3ba4d376a33c0f3d9434bff625\n      swap1\n      0x00\n      swap1\n      log1\n        /* \"contracts/Omnidex-incentives/incentives/OmnidexIncentivesVault.sol\":3795:3892  function pause() external onlyAdmin whenNotPaused {... */\n      jump\t// out\n        /* \"contracts/Omnidex-incentives/incentives/OmnidexIncentivesVault.sol\":2565:2686  function withdrawAll() external onlyOwner {... */\n    tag_41:\n        /* \"https://github.com/OmniDexFinance/helper/blob/master/%40openzeppelin/contracts/access/Ownable.sol\":1308:1320  _msgSender() */\n      tag_101\n        /* \"https://github.com/OmniDexFinance/helper/blob/master/%40openzeppelin/contracts/access/Ownable.sol\":1308:1318  _msgSender */\n      tag_82\n        /* \"https://github.com/OmniDexFinance/helper/blob/master/%40openzeppelin/contracts/access/Ownable.sol\":1308:1320  _msgSender() */\n      jump\t// in\n    tag_101:\n      sub(shl(0xa0, 0x01), 0x01)\n        /* \"https://github.com/OmniDexFinance/helper/blob/master/%40openzeppelin/contracts/access/Ownable.sol\":1297:1320  owner() == _msgSender() */\n      and\n        /* \"https://github.com/OmniDexFinance/helper/blob/master/%40openzeppelin/contracts/access/Ownable.sol\":1297:1304  owner() */\n      tag_102\n        /* \"https://github.com/OmniDexFinance/helper/blob/master/%40openzeppelin/contracts/access/Ownable.sol\":1297:1302  owner */\n      tag_43\n        /* \"https://github.com/OmniDexFinance/helper/blob/master/%40openzeppelin/contracts/access/Ownable.sol\":1297:1304  owner() */\n      jump\t// in\n    tag_102:\n      sub(shl(0xa0, 0x01), 0x01)\n        /* \"https://github.com/OmniDexFinance/helper/blob/master/%40openzeppelin/contracts/access/Ownable.sol\":1297:1320  owner() == _msgSender() */\n      and\n      eq\n        /* \"https://github.com/OmniDexFinance/helper/blob/master/%40openzeppelin/contracts/access/Ownable.sol\":1289:1357  require(owner() == _msgSender(), \"Ownable: caller is not the owner\") */\n      tag_103\n      jumpi\n      0x40\n      dup1\n      mload\n      shl(0xe5, 0x461bcd)\n      dup2\n      mstore\n      0x20\n      0x04\n      dup3\n      add\n      dup2\n      swap1\n      mstore\n      0x24\n      dup3\n      add\n      mstore\n      0x00\n      dup1\n      mload\n      0x20\n      data_9924ebdf1add33d25d4ef888e16131f0a5687b0580a36c21b5c301a6c462effe\n      dup4\n      codecopy\n      dup2\n      mload\n      swap2\n      mstore\n      0x44\n      dup3\n      add\n      mstore\n      swap1\n      mload\n      swap1\n      dup2\n      swap1\n      sub\n      0x64\n      add\n      swap1\n      revert\n    tag_103:\n        /* \"contracts/Omnidex-incentives/incentives/OmnidexIncentivesVault.sol\":2617:2679  token.safeTransfer(msg.sender, token.balanceOf(address(this))) */\n      tag_105\n        /* \"contracts/Omnidex-incentives/incentives/OmnidexIncentivesVault.sol\":2636:2646  msg.sender */\n      caller\n        /* \"contracts/Omnidex-incentives/incentives/OmnidexIncentivesVault.sol\":2648:2653  token */\n      immutable(\"0x8fef2229291b68be841adf029e58b87f39ba144b2d3b0af1760243d0a9bc6a1c\")\n      sub(shl(0xa0, 0x01), 0x01)\n        /* \"contracts/Omnidex-incentives/incentives/OmnidexIncentivesVault.sol\":2648:2663  token.balanceOf */\n      and\n      0x70a08231\n        /* \"contracts/Omnidex-incentives/incentives/OmnidexIncentivesVault.sol\":2672:2676  this */\n      address\n        /* \"contracts/Omnidex-incentives/incentives/OmnidexIncentivesVault.sol\":2648:2678  token.balanceOf(address(this)) */\n      mload(0x40)\n      dup3\n      0xffffffff\n      and\n      0xe0\n      shl\n      dup2\n      mstore\n      0x04\n      add\n      dup1\n      dup3\n      sub(shl(0xa0, 0x01), 0x01)\n      and\n      dup2\n      mstore\n      0x20\n      add\n      swap2\n      pop\n      pop\n      0x20\n      mload(0x40)\n      dup1\n      dup4\n      sub\n      dup2\n      dup7\n      dup1\n      extcodesize\n      iszero\n      dup1\n      iszero\n      tag_106\n      jumpi\n      0x00\n      dup1\n      revert\n    tag_106:\n      pop\n      gas\n      staticcall\n      iszero\n      dup1\n      iszero\n      tag_108\n      jumpi\n      returndatasize\n      0x00\n      dup1\n      returndatacopy\n      revert(0x00, returndatasize)\n    tag_108:\n      pop\n      pop\n      pop\n      pop\n      mload(0x40)\n      returndatasize\n      0x20\n      dup2\n      lt\n      iszero\n      tag_109\n      jumpi\n      0x00\n      dup1\n      revert\n    tag_109:\n      pop\n      mload\n      sub(shl(0xa0, 0x01), 0x01)\n        /* \"contracts/Omnidex-incentives/incentives/OmnidexIncentivesVault.sol\":2617:2622  token */\n      immutable(\"0x8fef2229291b68be841adf029e58b87f39ba144b2d3b0af1760243d0a9bc6a1c\")\n        /* \"contracts/Omnidex-incentives/incentives/OmnidexIncentivesVault.sol\":2617:2635  token.safeTransfer */\n      and\n      swap2\n        /* \"contracts/Omnidex-incentives/incentives/OmnidexIncentivesVault.sol\":2617:2679  token.safeTransfer(msg.sender, token.balanceOf(address(this))) */\n      swap1\n        /* \"contracts/Omnidex-incentives/incentives/OmnidexIncentivesVault.sol\":2617:2635  token.safeTransfer */\n      tag_110\n        /* \"contracts/Omnidex-incentives/incentives/OmnidexIncentivesVault.sol\":2617:2679  token.safeTransfer(msg.sender, token.balanceOf(address(this))) */\n      jump\t// in\n    tag_105:\n        /* \"contracts/Omnidex-incentives/incentives/OmnidexIncentivesVault.sol\":2565:2686  function withdrawAll() external onlyOwner {... */\n      jump\t// out\n        /* \"https://github.com/OmniDexFinance/helper/blob/master/%40openzeppelin/contracts/access/Ownable.sol\":1085:1170  function owner() public view virtual returns (address) {... */\n    tag_43:\n        /* \"https://github.com/OmniDexFinance/helper/blob/master/%40openzeppelin/contracts/access/Ownable.sol\":1131:1138  address */\n      0x00\n        /* \"https://github.com/OmniDexFinance/helper/blob/master/%40openzeppelin/contracts/access/Ownable.sol\":1157:1163  _owner */\n      sload\n      sub(shl(0xa0, 0x01), 0x01)\n      and\n        /* \"https://github.com/OmniDexFinance/helper/blob/master/%40openzeppelin/contracts/access/Ownable.sol\":1085:1170  function owner() public view virtual returns (address) {... */\n      swap1\n      jump\t// out\n        /* \"contracts/Omnidex-incentives/incentives/OmnidexIncentivesVault.sol\":779:809  address public approvedSpender */\n    tag_45:\n      and(sub(shl(0xa0, 0x01), 0x01), sload(0x02))\n      dup2\n      jump\t// out\n        /* \"contracts/Omnidex-incentives/incentives/OmnidexIncentivesVault.sol\":2973:3059  function getDailyLimit() public view returns (uint) {... */\n    tag_47:\n        /* \"contracts/Omnidex-incentives/incentives/OmnidexIncentivesVault.sol\":3042:3052  dailyLimit */\n      sload(0x03)\n        /* \"contracts/Omnidex-incentives/incentives/OmnidexIncentivesVault.sol\":2973:3059  function getDailyLimit() public view returns (uint) {... */\n      swap1\n      jump\t// out\n        /* \"contracts/Omnidex-incentives/incentives/OmnidexIncentivesVault.sol\":2793:2967  function setDailyLimit(uint _newDailyLimit) external onlyOwner {... */\n    tag_50:\n        /* \"https://github.com/OmniDexFinance/helper/blob/master/%40openzeppelin/contracts/access/Ownable.sol\":1308:1320  _msgSender() */\n      tag_114\n        /* \"https://github.com/OmniDexFinance/helper/blob/master/%40openzeppelin/contracts/access/Ownable.sol\":1308:1318  _msgSender */\n      tag_82\n        /* \"https://github.com/OmniDexFinance/helper/blob/master/%40openzeppelin/contracts/access/Ownable.sol\":1308:1320  _msgSender() */\n      jump\t// in\n    tag_114:\n      sub(shl(0xa0, 0x01), 0x01)\n        /* \"https://github.com/OmniDexFinance/helper/blob/master/%40openzeppelin/contracts/access/Ownable.sol\":1297:1320  owner() == _msgSender() */\n      and\n        /* \"https://github.com/OmniDexFinance/helper/blob/master/%40openzeppelin/contracts/access/Ownable.sol\":1297:1304  owner() */\n      tag_115\n        /* \"https://github.com/OmniDexFinance/helper/blob/master/%40openzeppelin/contracts/access/Ownable.sol\":1297:1302  owner */\n      tag_43\n        /* \"https://github.com/OmniDexFinance/helper/blob/master/%40openzeppelin/contracts/access/Ownable.sol\":1297:1304  owner() */\n      jump\t// in\n    tag_115:\n      sub(shl(0xa0, 0x01), 0x01)\n        /* \"https://github.com/OmniDexFinance/helper/blob/master/%40openzeppelin/contracts/access/Ownable.sol\":1297:1320  owner() == _msgSender() */\n      and\n      eq\n        /* \"https://github.com/OmniDexFinance/helper/blob/master/%40openzeppelin/contracts/access/Ownable.sol\":1289:1357  require(owner() == _msgSender(), \"Ownable: caller is not the owner\") */\n      tag_116\n      jumpi\n      0x40\n      dup1\n      mload\n      shl(0xe5, 0x461bcd)\n      dup2\n      mstore\n      0x20\n      0x04\n      dup3\n      add\n      dup2\n      swap1\n      mstore\n      0x24\n      dup3\n      add\n      mstore\n      0x00\n      dup1\n      mload\n      0x20\n      data_9924ebdf1add33d25d4ef888e16131f0a5687b0580a36c21b5c301a6c462effe\n      dup4\n      codecopy\n      dup2\n      mload\n      swap2\n      mstore\n      0x44\n      dup3\n      add\n      mstore\n      swap1\n      mload\n      swap1\n      dup2\n      swap1\n      sub\n      0x64\n      add\n      swap1\n      revert\n    tag_116:\n        /* \"contracts/Omnidex-incentives/incentives/OmnidexIncentivesVault.sol\":2933:2943  dailyLimit */\n      0x03\n        /* \"contracts/Omnidex-incentives/incentives/OmnidexIncentivesVault.sol\":2933:2960  dailyLimit = _newDailyLimit */\n      sstore\n        /* \"contracts/Omnidex-incentives/incentives/OmnidexIncentivesVault.sol\":2793:2967  function setDailyLimit(uint _newDailyLimit) external onlyOwner {... */\n      jump\t// out\n        /* \"contracts/Omnidex-incentives/incentives/OmnidexIncentivesVault.sol\":2266:2494  function deposit(uint256 _amount) external whenNotPaused {... */\n    tag_53:\n        /* \"https://github.com/OmniDexFinance/helper/blob/master/%40openzeppelin/contracts/utils/Pausable.sol\":1366:1374  paused() */\n      tag_120\n        /* \"https://github.com/OmniDexFinance/helper/blob/master/%40openzeppelin/contracts/utils/Pausable.sol\":1366:1372  paused */\n      tag_28\n        /* \"https://github.com/OmniDexFinance/helper/blob/master/%40openzeppelin/contracts/utils/Pausable.sol\":1366:1374  paused() */\n      jump\t// in\n    tag_120:\n        /* \"https://github.com/OmniDexFinance/helper/blob/master/%40openzeppelin/contracts/utils/Pausable.sol\":1365:1374  !paused() */\n      iszero\n        /* \"https://github.com/OmniDexFinance/helper/blob/master/%40openzeppelin/contracts/utils/Pausable.sol\":1357:1395  require(!paused(), \"Pausable: paused\") */\n      tag_121\n      jumpi\n      0x40\n      dup1\n      mload\n      shl(0xe5, 0x461bcd)\n      dup2\n      mstore\n      0x20\n      0x04\n      dup3\n      add\n      mstore\n      0x10\n      0x24\n      dup3\n      add\n      mstore\n      shl(0x82, 0x14185d5cd8589b194e881c185d5cd959)\n      0x44\n      dup3\n      add\n      mstore\n      swap1\n      mload\n      swap1\n      dup2\n      swap1\n      sub\n      0x64\n      add\n      swap1\n      revert\n    tag_121:\n        /* \"contracts/Omnidex-incentives/incentives/OmnidexIncentivesVault.sol\":2351:2352  0 */\n      0x00\n        /* \"contracts/Omnidex-incentives/incentives/OmnidexIncentivesVault.sol\":2341:2348  _amount */\n      dup2\n        /* \"contracts/Omnidex-incentives/incentives/OmnidexIncentivesVault.sol\":2341:2352  _amount > 0 */\n      gt\n        /* \"contracts/Omnidex-incentives/incentives/OmnidexIncentivesVault.sol\":2333:2375  require(_amount > 0, \"Nothing to deposit\") */\n      tag_123\n      jumpi\n      0x40\n      dup1\n      mload\n      shl(0xe5, 0x461bcd)\n      dup2\n      mstore\n      0x20\n      0x04\n      dup3\n      add\n      mstore\n      0x12\n      0x24\n      dup3\n      add\n      mstore\n      shl(0x72, 0x139bdd1a1a5b99c81d1bc819195c1bdcda5d)\n      0x44\n      dup3\n      add\n      mstore\n      swap1\n      mload\n      swap1\n      dup2\n      swap1\n      sub\n      0x64\n      add\n      swap1\n      revert\n    tag_123:\n        /* \"contracts/Omnidex-incentives/incentives/OmnidexIncentivesVault.sol\":2385:2443  token.safeTransferFrom(msg.sender, address(this), _amount) */\n      tag_124\n      sub(shl(0xa0, 0x01), 0x01)\n        /* \"contracts/Omnidex-incentives/incentives/OmnidexIncentivesVault.sol\":2385:2390  token */\n      immutable(\"0x8fef2229291b68be841adf029e58b87f39ba144b2d3b0af1760243d0a9bc6a1c\")\n        /* \"contracts/Omnidex-incentives/incentives/OmnidexIncentivesVault.sol\":2385:2407  token.safeTransferFrom */\n      and\n        /* \"contracts/Omnidex-incentives/incentives/OmnidexIncentivesVault.sol\":2408:2418  msg.sender */\n      caller\n        /* \"contracts/Omnidex-incentives/incentives/OmnidexIncentivesVault.sol\":2428:2432  this */\n      address\n        /* \"contracts/Omnidex-incentives/incentives/OmnidexIncentivesVault.sol\":2435:2442  _amount */\n      dup5\n        /* \"contracts/Omnidex-incentives/incentives/OmnidexIncentivesVault.sol\":2385:2407  token.safeTransferFrom */\n      tag_125\n        /* \"contracts/Omnidex-incentives/incentives/OmnidexIncentivesVault.sol\":2385:2443  token.safeTransferFrom(msg.sender, address(this), _amount) */\n      jump\t// in\n    tag_124:\n        /* \"contracts/Omnidex-incentives/incentives/OmnidexIncentivesVault.sol\":2459:2487  Deposit(msg.sender, _amount) */\n      0x40\n      dup1\n      mload\n      dup3\n      dup2\n      mstore\n      swap1\n      mload\n        /* \"contracts/Omnidex-incentives/incentives/OmnidexIncentivesVault.sol\":2467:2477  msg.sender */\n      caller\n      swap2\n        /* \"contracts/Omnidex-incentives/incentives/OmnidexIncentivesVault.sol\":2459:2487  Deposit(msg.sender, _amount) */\n      0xe1fffcc4923d04b559f4d29a8bfc6cda04eb5b0d3c460751c2402c5c5cc9109c\n      swap2\n      swap1\n      dup2\n      swap1\n      sub\n      0x20\n      add\n      swap1\n      log2\n        /* \"contracts/Omnidex-incentives/incentives/OmnidexIncentivesVault.sol\":2266:2494  function deposit(uint256 _amount) external whenNotPaused {... */\n      pop\n      jump\t// out\n        /* \"contracts/Omnidex-incentives/incentives/OmnidexIncentivesVault.sol\":3401:3683  function inCaseTokensGetStuck(address _token) external onlyAdmin {... */\n    tag_56:\n        /* \"contracts/Omnidex-incentives/incentives/OmnidexIncentivesVault.sol\":1837:1842  admin */\n      and(sub(shl(0xa0, 0x01), 0x01), sload(0x01))\n        /* \"contracts/Omnidex-incentives/incentives/OmnidexIncentivesVault.sol\":1823:1833  msg.sender */\n      caller\n        /* \"contracts/Omnidex-incentives/incentives/OmnidexIncentivesVault.sol\":1823:1842  msg.sender == admin */\n      eq\n        /* \"contracts/Omnidex-incentives/incentives/OmnidexIncentivesVault.sol\":1815:1867  require(msg.sender == admin, \"Only admin permitted\") */\n      tag_127\n      jumpi\n      0x40\n      dup1\n      mload\n      shl(0xe5, 0x461bcd)\n      dup2\n      mstore\n      0x20\n      0x04\n      dup3\n      add\n      mstore\n      0x14\n      0x24\n      dup3\n      add\n      mstore\n      shl(0x62, 0x13db9b1e4818591b5a5b881c195c9b5a5d1d1959)\n      0x44\n      dup3\n      add\n      mstore\n      swap1\n      mload\n      swap1\n      dup2\n      swap1\n      sub\n      0x64\n      add\n      swap1\n      revert\n    tag_127:\n        /* \"contracts/Omnidex-incentives/incentives/OmnidexIncentivesVault.sol\":3502:3507  token */\n      immutable(\"0x8fef2229291b68be841adf029e58b87f39ba144b2d3b0af1760243d0a9bc6a1c\")\n      sub(shl(0xa0, 0x01), 0x01)\n        /* \"contracts/Omnidex-incentives/incentives/OmnidexIncentivesVault.sol\":3484:3508  _token != address(token) */\n      and\n        /* \"contracts/Omnidex-incentives/incentives/OmnidexIncentivesVault.sol\":3484:3490  _token */\n      dup2\n      sub(shl(0xa0, 0x01), 0x01)\n        /* \"contracts/Omnidex-incentives/incentives/OmnidexIncentivesVault.sol\":3484:3508  _token != address(token) */\n      and\n      eq\n      iszero\n        /* \"contracts/Omnidex-incentives/incentives/OmnidexIncentivesVault.sol\":3476:3553  require(_token != address(token), \"Token cannot be same as incentives token\") */\n      tag_129\n      jumpi\n      mload(0x40)\n      shl(0xe5, 0x461bcd)\n      dup2\n      mstore\n      0x04\n      add\n      dup1\n      dup1\n      0x20\n      add\n      dup3\n      dup2\n      sub\n      dup3\n      mstore\n      0x28\n      dup2\n      mstore\n      0x20\n      add\n      dup1\n      data_bcc168664a3c14c72586057eda5ba29201ba9e86de7cd2fcc768efe9bd2f6ac9\n      0x28\n      swap2\n      codecopy\n      0x40\n      add\n      swap2\n      pop\n      pop\n      mload(0x40)\n      dup1\n      swap2\n      sub\n      swap1\n      revert\n    tag_129:\n        /* \"contracts/Omnidex-incentives/incentives/OmnidexIncentivesVault.sol\":3563:3577  uint256 amount */\n      0x00\n        /* \"contracts/Omnidex-incentives/incentives/OmnidexIncentivesVault.sol\":3587:3593  _token */\n      dup2\n      sub(shl(0xa0, 0x01), 0x01)\n        /* \"contracts/Omnidex-incentives/incentives/OmnidexIncentivesVault.sol\":3580:3604  IERC20(_token).balanceOf */\n      and\n      0x70a08231\n        /* \"contracts/Omnidex-incentives/incentives/OmnidexIncentivesVault.sol\":3613:3617  this */\n      address\n        /* \"contracts/Omnidex-incentives/incentives/OmnidexIncentivesVault.sol\":3580:3619  IERC20(_token).balanceOf(address(this)) */\n      mload(0x40)\n      dup3\n      0xffffffff\n      and\n      0xe0\n      shl\n      dup2\n      mstore\n      0x04\n      add\n      dup1\n      dup3\n      sub(shl(0xa0, 0x01), 0x01)\n      and\n      dup2\n      mstore\n      0x20\n      add\n      swap2\n      pop\n      pop\n      0x20\n      mload(0x40)\n      dup1\n      dup4\n      sub\n      dup2\n      dup7\n      dup1\n      extcodesize\n      iszero\n      dup1\n      iszero\n      tag_130\n      jumpi\n      0x00\n      dup1\n      revert\n    tag_130:\n      pop\n      gas\n      staticcall\n      iszero\n      dup1\n      iszero\n      tag_132\n      jumpi\n      returndatasize\n      0x00\n      dup1\n      returndatacopy\n      revert(0x00, returndatasize)\n    tag_132:\n      pop\n      pop\n      pop\n      pop\n      mload(0x40)\n      returndatasize\n      0x20\n      dup2\n      lt\n      iszero\n      tag_133\n      jumpi\n      0x00\n      dup1\n      revert\n    tag_133:\n      pop\n      mload\n      swap1\n      pop\n        /* \"contracts/Omnidex-incentives/incentives/OmnidexIncentivesVault.sol\":3629:3676  IERC20(_token).safeTransfer(msg.sender, amount) */\n      tag_134\n      sub(shl(0xa0, 0x01), 0x01)\n        /* \"contracts/Omnidex-incentives/incentives/OmnidexIncentivesVault.sol\":3629:3656  IERC20(_token).safeTransfer */\n      dup4\n      and\n        /* \"contracts/Omnidex-incentives/incentives/OmnidexIncentivesVault.sol\":3657:3667  msg.sender */\n      caller\n        /* \"contracts/Omnidex-incentives/incentives/OmnidexIncentivesVault.sol\":3580:3619  IERC20(_token).balanceOf(address(this)) */\n      dup4\n        /* \"contracts/Omnidex-incentives/incentives/OmnidexIncentivesVault.sol\":3629:3656  IERC20(_token).safeTransfer */\n      tag_110\n        /* \"contracts/Omnidex-incentives/incentives/OmnidexIncentivesVault.sol\":3629:3676  IERC20(_token).safeTransfer(msg.sender, amount) */\n      jump\t// in\n    tag_134:\n        /* \"contracts/Omnidex-incentives/incentives/OmnidexIncentivesVault.sol\":1877:1878  _ */\n      pop\n        /* \"contracts/Omnidex-incentives/incentives/OmnidexIncentivesVault.sol\":3401:3683  function inCaseTokensGetStuck(address _token) external onlyAdmin {... */\n      pop\n      jump\t// out\n        /* \"contracts/Omnidex-incentives/incentives/OmnidexIncentivesVault.sol\":868:890  uint public spentToday */\n    tag_58:\n      sload(0x05)\n      dup2\n      jump\t// out\n        /* \"https://github.com/OmniDexFinance/helper/blob/master/%40openzeppelin/contracts/access/Ownable.sol\":2011:2251  function transferOwnership(address newOwner) public virtual onlyOwner {... */\n    tag_61:\n        /* \"https://github.com/OmniDexFinance/helper/blob/master/%40openzeppelin/contracts/access/Ownable.sol\":1308:1320  _msgSender() */\n      tag_136\n        /* \"https://github.com/OmniDexFinance/helper/blob/master/%40openzeppelin/contracts/access/Ownable.sol\":1308:1318  _msgSender */\n      tag_82\n        /* \"https://github.com/OmniDexFinance/helper/blob/master/%40openzeppelin/contracts/access/Ownable.sol\":1308:1320  _msgSender() */\n      jump\t// in\n    tag_136:\n      sub(shl(0xa0, 0x01), 0x01)\n        /* \"https://github.com/OmniDexFinance/helper/blob/master/%40openzeppelin/contracts/access/Ownable.sol\":1297:1320  owner() == _msgSender() */\n      and\n        /* \"https://github.com/OmniDexFinance/helper/blob/master/%40openzeppelin/contracts/access/Ownable.sol\":1297:1304  owner() */\n      tag_137\n        /* \"https://github.com/OmniDexFinance/helper/blob/master/%40openzeppelin/contracts/access/Ownable.sol\":1297:1302  owner */\n      tag_43\n        /* \"https://github.com/OmniDexFinance/helper/blob/master/%40openzeppelin/contracts/access/Ownable.sol\":1297:1304  owner() */\n      jump\t// in\n    tag_137:\n      sub(shl(0xa0, 0x01), 0x01)\n        /* \"https://github.com/OmniDexFinance/helper/blob/master/%40openzeppelin/contracts/access/Ownable.sol\":1297:1320  owner() == _msgSender() */\n      and\n      eq\n        /* \"https://github.com/OmniDexFinance/helper/blob/master/%40openzeppelin/contracts/access/Ownable.sol\":1289:1357  require(owner() == _msgSender(), \"Ownable: caller is not the owner\") */\n      tag_138\n      jumpi\n      0x40\n      dup1\n      mload\n      shl(0xe5, 0x461bcd)\n      dup2\n      mstore\n      0x20\n      0x04\n      dup3\n      add\n      dup2\n      swap1\n      mstore\n      0x24\n      dup3\n      add\n      mstore\n      0x00\n      dup1\n      mload\n      0x20\n      data_9924ebdf1add33d25d4ef888e16131f0a5687b0580a36c21b5c301a6c462effe\n      dup4\n      codecopy\n      dup2\n      mload\n      swap2\n      mstore\n      0x44\n      dup3\n      add\n      mstore\n      swap1\n      mload\n      swap1\n      dup2\n      swap1\n      sub\n      0x64\n      add\n      swap1\n      revert\n    tag_138:\n      sub(shl(0xa0, 0x01), 0x01)\n        /* \"https://github.com/OmniDexFinance/helper/blob/master/%40openzeppelin/contracts/access/Ownable.sol\":2099:2121  newOwner != address(0) */\n      dup2\n      and\n        /* \"https://github.com/OmniDexFinance/helper/blob/master/%40openzeppelin/contracts/access/Ownable.sol\":2091:2164  require(newOwner != address(0), \"Ownable: new owner is the zero address\") */\n      tag_140\n      jumpi\n      mload(0x40)\n      shl(0xe5, 0x461bcd)\n      dup2\n      mstore\n      0x04\n      add\n      dup1\n      dup1\n      0x20\n      add\n      dup3\n      dup2\n      sub\n      dup3\n      mstore\n      0x26\n      dup2\n      mstore\n      0x20\n      add\n      dup1\n      data_245f15ff17f551913a7a18385165551503906a406f905ac1c2437281a7cd0cfe\n      0x26\n      swap2\n      codecopy\n      0x40\n      add\n      swap2\n      pop\n      pop\n      mload(0x40)\n      dup1\n      swap2\n      sub\n      swap1\n      revert\n    tag_140:\n        /* \"https://github.com/OmniDexFinance/helper/blob/master/%40openzeppelin/contracts/access/Ownable.sol\":2200:2206  _owner */\n      0x00\n      dup1\n      sload\n        /* \"https://github.com/OmniDexFinance/helper/blob/master/%40openzeppelin/contracts/access/Ownable.sol\":2179:2217  OwnershipTransferred(_owner, newOwner) */\n      mload(0x40)\n      sub(shl(0xa0, 0x01), 0x01)\n      dup1\n      dup6\n      and\n      swap4\n        /* \"https://github.com/OmniDexFinance/helper/blob/master/%40openzeppelin/contracts/access/Ownable.sol\":2200:2206  _owner */\n      swap3\n      and\n      swap2\n        /* \"https://github.com/OmniDexFinance/helper/blob/master/%40openzeppelin/contracts/access/Ownable.sol\":2179:2217  OwnershipTransferred(_owner, newOwner) */\n      0x8be0079c531659141344cd1fd0a4f28419497f9722a3daafe3b4186f6b6457e0\n      swap2\n      log3\n        /* \"https://github.com/OmniDexFinance/helper/blob/master/%40openzeppelin/contracts/access/Ownable.sol\":2227:2233  _owner */\n      0x00\n        /* \"https://github.com/OmniDexFinance/helper/blob/master/%40openzeppelin/contracts/access/Ownable.sol\":2227:2244  _owner = newOwner */\n      dup1\n      sload\n      not(sub(shl(0xa0, 0x01), 0x01))\n      and\n      sub(shl(0xa0, 0x01), 0x01)\n      swap3\n      swap1\n      swap3\n      and\n      swap2\n      swap1\n      swap2\n      or\n      swap1\n      sstore\n        /* \"https://github.com/OmniDexFinance/helper/blob/master/%40openzeppelin/contracts/access/Ownable.sol\":2011:2251  function transferOwnership(address newOwner) public virtual onlyOwner {... */\n      jump\t// out\n        /* \"contracts/Omnidex-incentives/incentives/OmnidexIncentivesVault.sol\":4285:4684  function withdraw(address _to, uint256 _amount) public whenNotPaused onlyAuth {... */\n    tag_64:\n        /* \"https://github.com/OmniDexFinance/helper/blob/master/%40openzeppelin/contracts/utils/Pausable.sol\":1366:1374  paused() */\n      tag_142\n        /* \"https://github.com/OmniDexFinance/helper/blob/master/%40openzeppelin/contracts/utils/Pausable.sol\":1366:1372  paused */\n      tag_28\n        /* \"https://github.com/OmniDexFinance/helper/blob/master/%40openzeppelin/contracts/utils/Pausable.sol\":1366:1374  paused() */\n      jump\t// in\n    tag_142:\n        /* \"https://github.com/OmniDexFinance/helper/blob/master/%40openzeppelin/contracts/utils/Pausable.sol\":1365:1374  !paused() */\n      iszero\n        /* \"https://github.com/OmniDexFinance/helper/blob/master/%40openzeppelin/contracts/utils/Pausable.sol\":1357:1395  require(!paused(), \"Pausable: paused\") */\n      tag_143\n      jumpi\n      0x40\n      dup1\n      mload\n      shl(0xe5, 0x461bcd)\n      dup2\n      mstore\n      0x20\n      0x04\n      dup3\n      add\n      mstore\n      0x10\n      0x24\n      dup3\n      add\n      mstore\n      shl(0x82, 0x14185d5cd8589b194e881c185d5cd959)\n      0x44\n      dup3\n      add\n      mstore\n      swap1\n      mload\n      swap1\n      dup2\n      swap1\n      sub\n      0x64\n      add\n      swap1\n      revert\n    tag_143:\n        /* \"contracts/Omnidex-incentives/incentives/OmnidexIncentivesVault.sol\":2022:2037  approvedSpender */\n      and(sub(shl(0xa0, 0x01), 0x01), sload(0x02))\n        /* \"contracts/Omnidex-incentives/incentives/OmnidexIncentivesVault.sol\":2008:2018  msg.sender */\n      caller\n        /* \"contracts/Omnidex-incentives/incentives/OmnidexIncentivesVault.sol\":2008:2037  msg.sender == approvedSpender */\n      eq\n        /* \"contracts/Omnidex-incentives/incentives/OmnidexIncentivesVault.sol\":2000:2067  require(msg.sender == approvedSpender, \"Not an authorised spender\") */\n      tag_145\n      jumpi\n      0x40\n      dup1\n      mload\n      shl(0xe5, 0x461bcd)\n      dup2\n      mstore\n      0x20\n      0x04\n      dup3\n      add\n      mstore\n      0x19\n      0x24\n      dup3\n      add\n      mstore\n      0x4e6f7420616e20617574686f7269736564207370656e64657200000000000000\n      0x44\n      dup3\n      add\n      mstore\n      swap1\n      mload\n      swap1\n      dup2\n      swap1\n      sub\n      0x64\n      add\n      swap1\n      revert\n    tag_145:\n        /* \"contracts/Omnidex-incentives/incentives/OmnidexIncentivesVault.sol\":4391:4392  0 */\n      0x00\n        /* \"contracts/Omnidex-incentives/incentives/OmnidexIncentivesVault.sol\":4381:4388  _amount */\n      dup2\n        /* \"contracts/Omnidex-incentives/incentives/OmnidexIncentivesVault.sol\":4381:4392  _amount > 0 */\n      gt\n        /* \"contracts/Omnidex-incentives/incentives/OmnidexIncentivesVault.sol\":4373:4416  require(_amount > 0, \"Nothing to withdraw\") */\n      tag_147\n      jumpi\n      0x40\n      dup1\n      mload\n      shl(0xe5, 0x461bcd)\n      dup2\n      mstore\n      0x20\n      0x04\n      dup3\n      add\n      mstore\n      0x13\n      0x24\n      dup3\n      add\n      mstore\n      shl(0x68, 0x4e6f7468696e6720746f207769746864726177)\n      0x44\n      dup3\n      add\n      mstore\n      swap1\n      mload\n      swap1\n      dup2\n      swap1\n      sub\n      0x64\n      add\n      swap1\n      revert\n    tag_147:\n        /* \"contracts/Omnidex-incentives/incentives/OmnidexIncentivesVault.sol\":4467:4474  _amount */\n      dup1\n        /* \"contracts/Omnidex-incentives/incentives/OmnidexIncentivesVault.sol\":4434:4439  token */\n      immutable(\"0x8fef2229291b68be841adf029e58b87f39ba144b2d3b0af1760243d0a9bc6a1c\")\n      sub(shl(0xa0, 0x01), 0x01)\n        /* \"contracts/Omnidex-incentives/incentives/OmnidexIncentivesVault.sol\":4434:4449  token.balanceOf */\n      and\n      0x70a08231\n        /* \"contracts/Omnidex-incentives/incentives/OmnidexIncentivesVault.sol\":4458:4462  this */\n      address\n        /* \"contracts/Omnidex-incentives/incentives/OmnidexIncentivesVault.sol\":4434:4464  token.balanceOf(address(this)) */\n      mload(0x40)\n      dup3\n      0xffffffff\n      and\n      0xe0\n      shl\n      dup2\n      mstore\n      0x04\n      add\n      dup1\n      dup3\n      sub(shl(0xa0, 0x01), 0x01)\n      and\n      dup2\n      mstore\n      0x20\n      add\n      swap2\n      pop\n      pop\n      0x20\n      mload(0x40)\n      dup1\n      dup4\n      sub\n      dup2\n      dup7\n      dup1\n      extcodesize\n      iszero\n      dup1\n      iszero\n      tag_148\n      jumpi\n      0x00\n      dup1\n      revert\n    tag_148:\n      pop\n      gas\n      staticcall\n      iszero\n      dup1\n      iszero\n      tag_150\n      jumpi\n      returndatasize\n      0x00\n      dup1\n      returndatacopy\n      revert(0x00, returndatasize)\n    tag_150:\n      pop\n      pop\n      pop\n      pop\n      mload(0x40)\n      returndatasize\n      0x20\n      dup2\n      lt\n      iszero\n      tag_151\n      jumpi\n      0x00\n      dup1\n      revert\n    tag_151:\n      pop\n      mload\n        /* \"contracts/Omnidex-incentives/incentives/OmnidexIncentivesVault.sol\":4434:4474  token.balanceOf(address(this)) > _amount */\n      gt\n        /* \"contracts/Omnidex-incentives/incentives/OmnidexIncentivesVault.sol\":4426:4512  require(token.balanceOf(address(this)) > _amount, \"Insufficient incentives available\") */\n      tag_152\n      jumpi\n      mload(0x40)\n      shl(0xe5, 0x461bcd)\n      dup2\n      mstore\n      0x04\n      add\n      dup1\n      dup1\n      0x20\n      add\n      dup3\n      dup2\n      sub\n      dup3\n      mstore\n      0x21\n      dup2\n      mstore\n      0x20\n      add\n      dup1\n      data_2186895f526e488d7755616513a09664eedf819bfafe4f6fa94396f5afb14e38\n      0x21\n      swap2\n      codecopy\n      0x40\n      add\n      swap2\n      pop\n      pop\n      mload(0x40)\n      dup1\n      swap2\n      sub\n      swap1\n      revert\n    tag_152:\n        /* \"contracts/Omnidex-incentives/incentives/OmnidexIncentivesVault.sol\":4526:4547  isUnderLimit(_amount) */\n      tag_153\n        /* \"contracts/Omnidex-incentives/incentives/OmnidexIncentivesVault.sol\":4539:4546  _amount */\n      dup2\n        /* \"contracts/Omnidex-incentives/incentives/OmnidexIncentivesVault.sol\":4526:4538  isUnderLimit */\n      tag_154\n        /* \"contracts/Omnidex-incentives/incentives/OmnidexIncentivesVault.sol\":4526:4547  isUnderLimit(_amount) */\n      jump\t// in\n    tag_153:\n        /* \"contracts/Omnidex-incentives/incentives/OmnidexIncentivesVault.sol\":4522:4640  if (isUnderLimit(_amount)){... */\n      iszero\n      tag_156\n      jumpi\n        /* \"contracts/Omnidex-incentives/incentives/OmnidexIncentivesVault.sol\":4562:4572  spentToday */\n      0x05\n        /* \"contracts/Omnidex-incentives/incentives/OmnidexIncentivesVault.sol\":4562:4583  spentToday += _amount */\n      dup1\n      sload\n      dup3\n      add\n      swap1\n      sstore\n        /* \"contracts/Omnidex-incentives/incentives/OmnidexIncentivesVault.sol\":4597:4629  token.safeTransfer(_to, _amount) */\n      tag_156\n      sub(shl(0xa0, 0x01), 0x01)\n        /* \"contracts/Omnidex-incentives/incentives/OmnidexIncentivesVault.sol\":4597:4602  token */\n      immutable(\"0x8fef2229291b68be841adf029e58b87f39ba144b2d3b0af1760243d0a9bc6a1c\")\n        /* \"contracts/Omnidex-incentives/incentives/OmnidexIncentivesVault.sol\":4597:4615  token.safeTransfer */\n      and\n        /* \"contracts/Omnidex-incentives/incentives/OmnidexIncentivesVault.sol\":4616:4619  _to */\n      dup4\n        /* \"contracts/Omnidex-incentives/incentives/OmnidexIncentivesVault.sol\":4576:4583  _amount */\n      dup4\n        /* \"contracts/Omnidex-incentives/incentives/OmnidexIncentivesVault.sol\":4597:4615  token.safeTransfer */\n      tag_110\n        /* \"contracts/Omnidex-incentives/incentives/OmnidexIncentivesVault.sol\":4597:4629  token.safeTransfer(_to, _amount) */\n      jump\t// in\n    tag_156:\n        /* \"contracts/Omnidex-incentives/incentives/OmnidexIncentivesVault.sol\":4655:4677  Withdraw(_to, _amount) */\n      0x40\n      dup1\n      mload\n      dup3\n      dup2\n      mstore\n      swap1\n      mload\n      sub(shl(0xa0, 0x01), 0x01)\n      dup5\n      and\n      swap2\n      0x884edad9ce6fa2440d8a54cc123490eb96d2768479d49ff9c7366125a9424364\n      swap2\n      swap1\n      dup2\n      swap1\n      sub\n      0x20\n      add\n      swap1\n      log2\n        /* \"contracts/Omnidex-incentives/incentives/OmnidexIncentivesVault.sol\":4285:4684  function withdraw(address _to, uint256 _amount) public whenNotPaused onlyAuth {... */\n      pop\n      pop\n      jump\t// out\n        /* \"contracts/Omnidex-incentives/incentives/OmnidexIncentivesVault.sol\":753:773  address public admin */\n    tag_66:\n      and(sub(shl(0xa0, 0x01), 0x01), sload(0x01))\n      dup2\n      jump\t// out\n        /* \"contracts/Omnidex-incentives/incentives/OmnidexIncentivesVault.sol\":699:728  IERC20 public immutable token */\n    tag_68:\n      immutable(\"0x8fef2229291b68be841adf029e58b87f39ba144b2d3b0af1760243d0a9bc6a1c\")\n      dup2\n      jump\t// out\n        /* \"https://github.com/OmniDexFinance/helper/blob/master/%40openzeppelin/contracts/token/ERC20/SafeERC20.sol\":1348:1961  function safeApprove(IERC20 token, address spender, uint256 value) internal {... */\n    tag_69:\n        /* \"https://github.com/OmniDexFinance/helper/blob/master/%40openzeppelin/contracts/token/ERC20/SafeERC20.sol\":1713:1723  value == 0 */\n      dup1\n      iszero\n      dup1\n        /* \"https://github.com/OmniDexFinance/helper/blob/master/%40openzeppelin/contracts/token/ERC20/SafeERC20.sol\":1712:1774  (value == 0) || (token.allowance(address(this), spender) == 0) */\n      tag_158\n      jumpi\n      pop\n        /* \"https://github.com/OmniDexFinance/helper/blob/master/%40openzeppelin/contracts/token/ERC20/SafeERC20.sol\":1729:1768  token.allowance(address(this), spender) */\n      0x40\n      dup1\n      mload\n      shl(0xe1, 0x6eb1769f)\n      dup2\n      mstore\n        /* \"https://github.com/OmniDexFinance/helper/blob/master/%40openzeppelin/contracts/token/ERC20/SafeERC20.sol\":1753:1757  this */\n      address\n        /* \"https://github.com/OmniDexFinance/helper/blob/master/%40openzeppelin/contracts/token/ERC20/SafeERC20.sol\":1729:1768  token.allowance(address(this), spender) */\n      0x04\n      dup3\n      add\n      mstore\n      sub(shl(0xa0, 0x01), 0x01)\n      dup5\n      dup2\n      and\n      0x24\n      dup4\n      add\n      mstore\n      swap2\n      mload\n        /* \"https://github.com/OmniDexFinance/helper/blob/master/%40openzeppelin/contracts/token/ERC20/SafeERC20.sol\":1729:1744  token.allowance */\n      swap2\n      dup6\n      and\n      swap2\n      0xdd62ed3e\n      swap2\n        /* \"https://github.com/OmniDexFinance/helper/blob/master/%40openzeppelin/contracts/token/ERC20/SafeERC20.sol\":1729:1768  token.allowance(address(this), spender) */\n      0x44\n      dup1\n      dup3\n      add\n      swap3\n      0x20\n      swap3\n      swap1\n      swap2\n      swap1\n      dup3\n      swap1\n      sub\n      add\n      dup2\n        /* \"https://github.com/OmniDexFinance/helper/blob/master/%40openzeppelin/contracts/token/ERC20/SafeERC20.sol\":1729:1744  token.allowance */\n      dup7\n        /* \"https://github.com/OmniDexFinance/helper/blob/master/%40openzeppelin/contracts/token/ERC20/SafeERC20.sol\":1729:1768  token.allowance(address(this), spender) */\n      dup1\n      extcodesize\n      iszero\n      dup1\n      iszero\n      tag_159\n      jumpi\n      0x00\n      dup1\n      revert\n    tag_159:\n      pop\n      gas\n      staticcall\n      iszero\n      dup1\n      iszero\n      tag_161\n      jumpi\n      returndatasize\n      0x00\n      dup1\n      returndatacopy\n      revert(0x00, returndatasize)\n    tag_161:\n      pop\n      pop\n      pop\n      pop\n      mload(0x40)\n      returndatasize\n      0x20\n      dup2\n      lt\n      iszero\n      tag_162\n      jumpi\n      0x00\n      dup1\n      revert\n    tag_162:\n      pop\n      mload\n        /* \"https://github.com/OmniDexFinance/helper/blob/master/%40openzeppelin/contracts/token/ERC20/SafeERC20.sol\":1729:1773  token.allowance(address(this), spender) == 0 */\n      iszero\n        /* \"https://github.com/OmniDexFinance/helper/blob/master/%40openzeppelin/contracts/token/ERC20/SafeERC20.sol\":1712:1774  (value == 0) || (token.allowance(address(this), spender) == 0) */\n    tag_158:\n        /* \"https://github.com/OmniDexFinance/helper/blob/master/%40openzeppelin/contracts/token/ERC20/SafeERC20.sol\":1704:1854  require((value == 0) || (token.allowance(address(this), spender) == 0),... */\n      tag_163\n      jumpi\n      mload(0x40)\n      shl(0xe5, 0x461bcd)\n      dup2\n      mstore\n      0x04\n      add\n      dup1\n      dup1\n      0x20\n      add\n      dup3\n      dup2\n      sub\n      dup3\n      mstore\n      0x36\n      dup2\n      mstore\n      0x20\n      add\n      dup1\n      data_ef945ddb1bfdc0da870feb4560d868b047642b4ac7f2fb7f8b7c51cb4a411e25\n      0x36\n      swap2\n      codecopy\n      0x40\n      add\n      swap2\n      pop\n      pop\n      mload(0x40)\n      dup1\n      swap2\n      sub\n      swap1\n      revert\n    tag_163:\n        /* \"https://github.com/OmniDexFinance/helper/blob/master/%40openzeppelin/contracts/token/ERC20/SafeERC20.sol\":1891:1953  abi.encodeWithSelector(token.approve.selector, spender, value) */\n      0x40\n      dup1\n      mload\n      sub(shl(0xa0, 0x01), 0x01)\n      dup5\n      and\n      0x24\n      dup3\n      add\n      mstore\n      0x44\n      dup1\n      dup3\n      add\n      dup5\n      swap1\n      mstore\n      dup3\n      mload\n      dup1\n      dup4\n      sub\n      swap1\n      swap2\n      add\n      dup2\n      mstore\n      0x64\n      swap1\n      swap2\n      add\n      swap1\n      swap2\n      mstore\n      0x20\n      dup2\n      add\n      dup1\n      mload\n      sub(shl(0xe0, 0x01), 0x01)\n      and\n      shl(0xe0, 0x095ea7b3)\n      or\n      swap1\n      mstore\n        /* \"https://github.com/OmniDexFinance/helper/blob/master/%40openzeppelin/contracts/token/ERC20/SafeERC20.sol\":1864:1954  _callOptionalReturn(token, abi.encodeWithSelector(token.approve.selector, spender, value)) */\n      tag_164\n      swap1\n        /* \"https://github.com/OmniDexFinance/helper/blob/master/%40openzeppelin/contracts/token/ERC20/SafeERC20.sol\":1884:1889  token */\n      dup5\n      swap1\n        /* \"https://github.com/OmniDexFinance/helper/blob/master/%40openzeppelin/contracts/token/ERC20/SafeERC20.sol\":1864:1883  _callOptionalReturn */\n      tag_165\n        /* \"https://github.com/OmniDexFinance/helper/blob/master/%40openzeppelin/contracts/token/ERC20/SafeERC20.sol\":1864:1954  _callOptionalReturn(token, abi.encodeWithSelector(token.approve.selector, spender, value)) */\n      jump\t// in\n    tag_164:\n        /* \"https://github.com/OmniDexFinance/helper/blob/master/%40openzeppelin/contracts/token/ERC20/SafeERC20.sol\":1348:1961  function safeApprove(IERC20 token, address spender, uint256 value) internal {... */\n      pop\n      pop\n      pop\n      jump\t// out\n        /* \"https://github.com/OmniDexFinance/helper/blob/master/%40openzeppelin/contracts/utils/Address.sol\":3581:3774  function functionCall(address target, bytes memory data, string memory errorMessage) internal returns (bytes memory) {... */\n    tag_70:\n        /* \"https://github.com/OmniDexFinance/helper/blob/master/%40openzeppelin/contracts/utils/Address.sol\":3684:3696  bytes memory */\n      0x60\n        /* \"https://github.com/OmniDexFinance/helper/blob/master/%40openzeppelin/contracts/utils/Address.sol\":3715:3767  functionCallWithValue(target, data, 0, errorMessage) */\n      tag_167\n        /* \"https://github.com/OmniDexFinance/helper/blob/master/%40openzeppelin/contracts/utils/Address.sol\":3737:3743  target */\n      dup5\n        /* \"https://github.com/OmniDexFinance/helper/blob/master/%40openzeppelin/contracts/utils/Address.sol\":3745:3749  data */\n      dup5\n        /* \"https://github.com/OmniDexFinance/helper/blob/master/%40openzeppelin/contracts/utils/Address.sol\":3751:3752  0 */\n      0x00\n        /* \"https://github.com/OmniDexFinance/helper/blob/master/%40openzeppelin/contracts/utils/Address.sol\":3754:3766  errorMessage */\n      dup6\n        /* \"https://github.com/OmniDexFinance/helper/blob/master/%40openzeppelin/contracts/utils/Address.sol\":3715:3736  functionCallWithValue */\n      tag_168\n        /* \"https://github.com/OmniDexFinance/helper/blob/master/%40openzeppelin/contracts/utils/Address.sol\":3715:3767  functionCallWithValue(target, data, 0, errorMessage) */\n      jump\t// in\n    tag_167:\n        /* \"https://github.com/OmniDexFinance/helper/blob/master/%40openzeppelin/contracts/utils/Address.sol\":3708:3767  return functionCallWithValue(target, data, 0, errorMessage) */\n      swap1\n      pop\n        /* \"https://github.com/OmniDexFinance/helper/blob/master/%40openzeppelin/contracts/utils/Address.sol\":3581:3774  function functionCall(address target, bytes memory data, string memory errorMessage) internal returns (bytes memory) {... */\n    tag_166:\n      swap4\n      swap3\n      pop\n      pop\n      pop\n      jump\t// out\n        /* \"https://github.com/OmniDexFinance/helper/blob/master/%40openzeppelin/contracts/utils/Pausable.sol\":2064:2181  function _unpause() internal virtual whenPaused {... */\n    tag_78:\n        /* \"https://github.com/OmniDexFinance/helper/blob/master/%40openzeppelin/contracts/utils/Pausable.sol\":1631:1639  paused() */\n      tag_170\n        /* \"https://github.com/OmniDexFinance/helper/blob/master/%40openzeppelin/contracts/utils/Pausable.sol\":1631:1637  paused */\n      tag_28\n        /* \"https://github.com/OmniDexFinance/helper/blob/master/%40openzeppelin/contracts/utils/Pausable.sol\":1631:1639  paused() */\n      jump\t// in\n    tag_170:\n        /* \"https://github.com/OmniDexFinance/helper/blob/master/%40openzeppelin/contracts/utils/Pausable.sol\":1623:1664  require(paused(), \"Pausable: not paused\") */\n      tag_171\n      jumpi\n      0x40\n      dup1\n      mload\n      shl(0xe5, 0x461bcd)\n      dup2\n      mstore\n      0x20\n      0x04\n      dup3\n      add\n      mstore\n      0x14\n      0x24\n      dup3\n      add\n      mstore\n      shl(0x62, 0x14185d5cd8589b194e881b9bdd081c185d5cd959)\n      0x44\n      dup3\n      add\n      mstore\n      swap1\n      mload\n      swap1\n      dup2\n      swap1\n      sub\n      0x64\n      add\n      swap1\n      revert\n    tag_171:\n        /* \"https://github.com/OmniDexFinance/helper/blob/master/%40openzeppelin/contracts/utils/Pausable.sol\":2132:2137  false */\n      0x00\n        /* \"https://github.com/OmniDexFinance/helper/blob/master/%40openzeppelin/contracts/utils/Pausable.sol\":2122:2137  _paused = false */\n      dup1\n      sload\n      not(shl(0xa0, 0xff))\n      and\n      swap1\n      sstore\n        /* \"https://github.com/OmniDexFinance/helper/blob/master/%40openzeppelin/contracts/utils/Pausable.sol\":2152:2174  Unpaused(_msgSender()) */\n      0x5db9ee0a495bf2e6ff9c91a7834c1ba4fdd244a5e8aa4e537bd38aeae4b073aa\n        /* \"https://github.com/OmniDexFinance/helper/blob/master/%40openzeppelin/contracts/utils/Pausable.sol\":2161:2173  _msgSender() */\n      tag_173\n        /* \"https://github.com/OmniDexFinance/helper/blob/master/%40openzeppelin/contracts/utils/Pausable.sol\":2161:2171  _msgSender */\n      tag_82\n        /* \"https://github.com/OmniDexFinance/helper/blob/master/%40openzeppelin/contracts/utils/Pausable.sol\":2161:2173  _msgSender() */\n      jump\t// in\n    tag_173:\n        /* \"https://github.com/OmniDexFinance/helper/blob/master/%40openzeppelin/contracts/utils/Pausable.sol\":2152:2174  Unpaused(_msgSender()) */\n      0x40\n      dup1\n      mload\n      sub(shl(0xa0, 0x01), 0x01)\n      swap1\n      swap3\n      and\n      dup3\n      mstore\n      mload\n      swap1\n      dup2\n      swap1\n      sub\n      0x20\n      add\n      swap1\n      log1\n        /* \"https://github.com/OmniDexFinance/helper/blob/master/%40openzeppelin/contracts/utils/Pausable.sol\":2064:2181  function _unpause() internal virtual whenPaused {... */\n      jump\t// out\n        /* \"https://github.com/OmniDexFinance/helper/blob/master/%40openzeppelin/contracts/utils/Context.sol\":598:702  function _msgSender() internal view virtual returns (address payable) {... */\n    tag_82:\n        /* \"https://github.com/OmniDexFinance/helper/blob/master/%40openzeppelin/contracts/utils/Context.sol\":685:695  msg.sender */\n      caller\n        /* \"https://github.com/OmniDexFinance/helper/blob/master/%40openzeppelin/contracts/utils/Context.sol\":598:702  function _msgSender() internal view virtual returns (address payable) {... */\n      swap1\n      jump\t// out\n        /* \"https://github.com/OmniDexFinance/helper/blob/master/%40openzeppelin/contracts/utils/Pausable.sol\":1817:1932  function _pause() internal virtual whenNotPaused {... */\n    tag_99:\n        /* \"https://github.com/OmniDexFinance/helper/blob/master/%40openzeppelin/contracts/utils/Pausable.sol\":1366:1374  paused() */\n      tag_176\n        /* \"https://github.com/OmniDexFinance/helper/blob/master/%40openzeppelin/contracts/utils/Pausable.sol\":1366:1372  paused */\n      tag_28\n        /* \"https://github.com/OmniDexFinance/helper/blob/master/%40openzeppelin/contracts/utils/Pausable.sol\":1366:1374  paused() */\n      jump\t// in\n    tag_176:\n        /* \"https://github.com/OmniDexFinance/helper/blob/master/%40openzeppelin/contracts/utils/Pausable.sol\":1365:1374  !paused() */\n      iszero\n        /* \"https://github.com/OmniDexFinance/helper/blob/master/%40openzeppelin/contracts/utils/Pausable.sol\":1357:1395  require(!paused(), \"Pausable: paused\") */\n      tag_177\n      jumpi\n      0x40\n      dup1\n      mload\n      shl(0xe5, 0x461bcd)\n      dup2\n      mstore\n      0x20\n      0x04\n      dup3\n      add\n      mstore\n      0x10\n      0x24\n      dup3\n      add\n      mstore\n      shl(0x82, 0x14185d5cd8589b194e881c185d5cd959)\n      0x44\n      dup3\n      add\n      mstore\n      swap1\n      mload\n      swap1\n      dup2\n      swap1\n      sub\n      0x64\n      add\n      swap1\n      revert\n    tag_177:\n        /* \"https://github.com/OmniDexFinance/helper/blob/master/%40openzeppelin/contracts/utils/Pausable.sol\":1876:1883  _paused */\n      0x00\n        /* \"https://github.com/OmniDexFinance/helper/blob/master/%40openzeppelin/contracts/utils/Pausable.sol\":1876:1890  _paused = true */\n      dup1\n      sload\n      not(shl(0xa0, 0xff))\n      and\n      shl(0xa0, 0x01)\n      or\n      swap1\n      sstore\n        /* \"https://github.com/OmniDexFinance/helper/blob/master/%40openzeppelin/contracts/utils/Pausable.sol\":1905:1925  Paused(_msgSender()) */\n      0x62e78cea01bee320cd4e420270b5ea74000d11b0c9f74754ebdbfc544b05a258\n        /* \"https://github.com/OmniDexFinance/helper/blob/master/%40openzeppelin/contracts/utils/Pausable.sol\":1912:1924  _msgSender() */\n      tag_173\n        /* \"https://github.com/OmniDexFinance/helper/blob/master/%40openzeppelin/contracts/utils/Pausable.sol\":1912:1922  _msgSender */\n      tag_82\n        /* \"https://github.com/OmniDexFinance/helper/blob/master/%40openzeppelin/contracts/utils/Pausable.sol\":1912:1924  _msgSender() */\n      jump\t// in\n        /* \"https://github.com/OmniDexFinance/helper/blob/master/%40openzeppelin/contracts/token/ERC20/SafeERC20.sol\":704:879  function safeTransfer(IERC20 token, address to, uint256 value) internal {... */\n    tag_110:\n        /* \"https://github.com/OmniDexFinance/helper/blob/master/%40openzeppelin/contracts/token/ERC20/SafeERC20.sol\":813:871  abi.encodeWithSelector(token.transfer.selector, to, value) */\n      0x40\n      dup1\n      mload\n      sub(shl(0xa0, 0x01), 0x01)\n      dup5\n      and\n      0x24\n      dup3\n      add\n      mstore\n      0x44\n      dup1\n      dup3\n      add\n      dup5\n      swap1\n      mstore\n      dup3\n      mload\n      dup1\n      dup4\n      sub\n      swap1\n      swap2\n      add\n      dup2\n      mstore\n      0x64\n      swap1\n      swap2\n      add\n      swap1\n      swap2\n      mstore\n      0x20\n      dup2\n      add\n      dup1\n      mload\n      sub(shl(0xe0, 0x01), 0x01)\n      and\n      shl(0xe0, 0xa9059cbb)\n      or\n      swap1\n      mstore\n        /* \"https://github.com/OmniDexFinance/helper/blob/master/%40openzeppelin/contracts/token/ERC20/SafeERC20.sol\":786:872  _callOptionalReturn(token, abi.encodeWithSelector(token.transfer.selector, to, value)) */\n      tag_164\n      swap1\n        /* \"https://github.com/OmniDexFinance/helper/blob/master/%40openzeppelin/contracts/token/ERC20/SafeERC20.sol\":806:811  token */\n      dup5\n      swap1\n        /* \"https://github.com/OmniDexFinance/helper/blob/master/%40openzeppelin/contracts/token/ERC20/SafeERC20.sol\":786:805  _callOptionalReturn */\n      tag_165\n        /* \"https://github.com/OmniDexFinance/helper/blob/master/%40openzeppelin/contracts/token/ERC20/SafeERC20.sol\":786:872  _callOptionalReturn(token, abi.encodeWithSelector(token.transfer.selector, to, value)) */\n      jump\t// in\n        /* \"https://github.com/OmniDexFinance/helper/blob/master/%40openzeppelin/contracts/token/ERC20/SafeERC20.sol\":885:1088  function safeTransferFrom(IERC20 token, address from, address to, uint256 value) internal {... */\n    tag_125:\n        /* \"https://github.com/OmniDexFinance/helper/blob/master/%40openzeppelin/contracts/token/ERC20/SafeERC20.sol\":1012:1080  abi.encodeWithSelector(token.transferFrom.selector, from, to, value) */\n      0x40\n      dup1\n      mload\n      sub(shl(0xa0, 0x01), 0x01)\n      dup1\n      dup7\n      and\n      0x24\n      dup4\n      add\n      mstore\n      dup5\n      and\n      0x44\n      dup3\n      add\n      mstore\n      0x64\n      dup1\n      dup3\n      add\n      dup5\n      swap1\n      mstore\n      dup3\n      mload\n      dup1\n      dup4\n      sub\n      swap1\n      swap2\n      add\n      dup2\n      mstore\n      0x84\n      swap1\n      swap2\n      add\n      swap1\n      swap2\n      mstore\n      0x20\n      dup2\n      add\n      dup1\n      mload\n      sub(shl(0xe0, 0x01), 0x01)\n      and\n      shl(0xe0, 0x23b872dd)\n      or\n      swap1\n      mstore\n        /* \"https://github.com/OmniDexFinance/helper/blob/master/%40openzeppelin/contracts/token/ERC20/SafeERC20.sol\":985:1081  _callOptionalReturn(token, abi.encodeWithSelector(token.transferFrom.selector, from, to, value)) */\n      tag_183\n      swap1\n        /* \"https://github.com/OmniDexFinance/helper/blob/master/%40openzeppelin/contracts/token/ERC20/SafeERC20.sol\":1005:1010  token */\n      dup6\n      swap1\n        /* \"https://github.com/OmniDexFinance/helper/blob/master/%40openzeppelin/contracts/token/ERC20/SafeERC20.sol\":985:1004  _callOptionalReturn */\n      tag_165\n        /* \"https://github.com/OmniDexFinance/helper/blob/master/%40openzeppelin/contracts/token/ERC20/SafeERC20.sol\":985:1081  _callOptionalReturn(token, abi.encodeWithSelector(token.transferFrom.selector, from, to, value)) */\n      jump\t// in\n    tag_183:\n        /* \"https://github.com/OmniDexFinance/helper/blob/master/%40openzeppelin/contracts/token/ERC20/SafeERC20.sol\":885:1088  function safeTransferFrom(IERC20 token, address from, address to, uint256 value) internal {... */\n      pop\n      pop\n      pop\n      pop\n      jump\t// out\n        /* \"contracts/Omnidex-incentives/incentives/OmnidexIncentivesVault.sol\":4920:5264  function isUnderLimit(uint amount)... */\n    tag_154:\n        /* \"contracts/Omnidex-incentives/incentives/OmnidexIncentivesVault.sol\":4989:4993  bool */\n      0x00\n        /* \"contracts/Omnidex-incentives/incentives/OmnidexIncentivesVault.sol\":5031:5038  lastDay */\n      sload(0x04)\n        /* \"contracts/Omnidex-incentives/incentives/OmnidexIncentivesVault.sol\":5041:5049  24 hours */\n      0x015180\n        /* \"contracts/Omnidex-incentives/incentives/OmnidexIncentivesVault.sol\":5031:5049  lastDay + 24 hours */\n      add\n        /* \"contracts/Omnidex-incentives/incentives/OmnidexIncentivesVault.sol\":5013:5028  block.timestamp */\n      timestamp\n        /* \"contracts/Omnidex-incentives/incentives/OmnidexIncentivesVault.sol\":5013:5049  block.timestamp > lastDay + 24 hours */\n      gt\n        /* \"contracts/Omnidex-incentives/incentives/OmnidexIncentivesVault.sol\":5009:5129  if (block.timestamp > lastDay + 24 hours) {... */\n      iszero\n      tag_185\n      jumpi\n        /* \"contracts/Omnidex-incentives/incentives/OmnidexIncentivesVault.sol\":5075:5090  block.timestamp */\n      timestamp\n        /* \"contracts/Omnidex-incentives/incentives/OmnidexIncentivesVault.sol\":5065:5072  lastDay */\n      0x04\n        /* \"contracts/Omnidex-incentives/incentives/OmnidexIncentivesVault.sol\":5065:5090  lastDay = block.timestamp */\n      sstore\n        /* \"contracts/Omnidex-incentives/incentives/OmnidexIncentivesVault.sol\":5117:5118  0 */\n      0x00\n        /* \"contracts/Omnidex-incentives/incentives/OmnidexIncentivesVault.sol\":5104:5114  spentToday */\n      0x05\n        /* \"contracts/Omnidex-incentives/incentives/OmnidexIncentivesVault.sol\":5104:5118  spentToday = 0 */\n      sstore\n        /* \"contracts/Omnidex-incentives/incentives/OmnidexIncentivesVault.sol\":5009:5129  if (block.timestamp > lastDay + 24 hours) {... */\n    tag_185:\n        /* \"contracts/Omnidex-incentives/incentives/OmnidexIncentivesVault.sol\":5164:5174  dailyLimit */\n      sload(0x03)\n        /* \"contracts/Omnidex-incentives/incentives/OmnidexIncentivesVault.sol\":5155:5161  amount */\n      dup3\n        /* \"contracts/Omnidex-incentives/incentives/OmnidexIncentivesVault.sol\":5142:5152  spentToday */\n      sload(0x05)\n        /* \"contracts/Omnidex-incentives/incentives/OmnidexIncentivesVault.sol\":5142:5161  spentToday + amount */\n      add\n        /* \"contracts/Omnidex-incentives/incentives/OmnidexIncentivesVault.sol\":5142:5174  spentToday + amount > dailyLimit */\n      gt\n        /* \"contracts/Omnidex-incentives/incentives/OmnidexIncentivesVault.sol\":5142:5210  spentToday + amount > dailyLimit || spentToday + amount < spentToday */\n      dup1\n      tag_186\n      jumpi\n      pop\n        /* \"contracts/Omnidex-incentives/incentives/OmnidexIncentivesVault.sol\":5200:5210  spentToday */\n      sload(0x05)\n        /* \"contracts/Omnidex-incentives/incentives/OmnidexIncentivesVault.sol\":5178:5197  spentToday + amount */\n      dup3\n      dup2\n      add\n        /* \"contracts/Omnidex-incentives/incentives/OmnidexIncentivesVault.sol\":5178:5210  spentToday + amount < spentToday */\n      lt\n        /* \"contracts/Omnidex-incentives/incentives/OmnidexIncentivesVault.sol\":5142:5210  spentToday + amount > dailyLimit || spentToday + amount < spentToday */\n    tag_186:\n        /* \"contracts/Omnidex-incentives/incentives/OmnidexIncentivesVault.sol\":5138:5236  if (spentToday + amount > dailyLimit || spentToday + amount < spentToday)... */\n      iszero\n      tag_187\n      jumpi\n      pop\n        /* \"contracts/Omnidex-incentives/incentives/OmnidexIncentivesVault.sol\":5231:5236  false */\n      0x00\n        /* \"contracts/Omnidex-incentives/incentives/OmnidexIncentivesVault.sol\":5224:5236  return false */\n      jump(tag_184)\n        /* \"contracts/Omnidex-incentives/incentives/OmnidexIncentivesVault.sol\":5138:5236  if (spentToday + amount > dailyLimit || spentToday + amount < spentToday)... */\n    tag_187:\n      pop\n        /* \"contracts/Omnidex-incentives/incentives/OmnidexIncentivesVault.sol\":5253:5257  true */\n      0x01\n        /* \"contracts/Omnidex-incentives/incentives/OmnidexIncentivesVault.sol\":4920:5264  function isUnderLimit(uint amount)... */\n    tag_184:\n      swap2\n      swap1\n      pop\n      jump\t// out\n        /* \"https://github.com/OmniDexFinance/helper/blob/master/%40openzeppelin/contracts/token/ERC20/SafeERC20.sol\":2967:3718  function _callOptionalReturn(IERC20 token, bytes memory data) private {... */\n    tag_165:\n        /* \"https://github.com/OmniDexFinance/helper/blob/master/%40openzeppelin/contracts/token/ERC20/SafeERC20.sol\":3386:3409  bytes memory returndata */\n      0x60\n        /* \"https://github.com/OmniDexFinance/helper/blob/master/%40openzeppelin/contracts/token/ERC20/SafeERC20.sol\":3412:3481  address(token).functionCall(data, \"SafeERC20: low-level call failed\") */\n      tag_189\n        /* \"https://github.com/OmniDexFinance/helper/blob/master/%40openzeppelin/contracts/token/ERC20/SafeERC20.sol\":3440:3444  data */\n      dup3\n        /* \"https://github.com/OmniDexFinance/helper/blob/master/%40openzeppelin/contracts/token/ERC20/SafeERC20.sol\":3412:3481  address(token).functionCall(data, \"SafeERC20: low-level call failed\") */\n      mload(0x40)\n      dup1\n      0x40\n      add\n      0x40\n      mstore\n      dup1\n      0x20\n      dup2\n      mstore\n      0x20\n      add\n      0x5361666545524332303a206c6f772d6c6576656c2063616c6c206661696c6564\n      dup2\n      mstore\n      pop\n        /* \"https://github.com/OmniDexFinance/helper/blob/master/%40openzeppelin/contracts/token/ERC20/SafeERC20.sol\":3420:3425  token */\n      dup6\n      sub(shl(0xa0, 0x01), 0x01)\n        /* \"https://github.com/OmniDexFinance/helper/blob/master/%40openzeppelin/contracts/token/ERC20/SafeERC20.sol\":3412:3439  address(token).functionCall */\n      and\n      tag_70\n      swap1\n        /* \"https://github.com/OmniDexFinance/helper/blob/master/%40openzeppelin/contracts/token/ERC20/SafeERC20.sol\":3412:3481  address(token).functionCall(data, \"SafeERC20: low-level call failed\") */\n      swap3\n      swap2\n      swap1\n      0xffffffff\n      and\n      jump\t// in\n    tag_189:\n        /* \"https://github.com/OmniDexFinance/helper/blob/master/%40openzeppelin/contracts/token/ERC20/SafeERC20.sol\":3495:3512  returndata.length */\n      dup1\n      mload\n        /* \"https://github.com/OmniDexFinance/helper/blob/master/%40openzeppelin/contracts/token/ERC20/SafeERC20.sol\":3386:3481  bytes memory returndata = address(token).functionCall(data, \"SafeERC20: low-level call failed\") */\n      swap1\n      swap2\n      pop\n        /* \"https://github.com/OmniDexFinance/helper/blob/master/%40openzeppelin/contracts/token/ERC20/SafeERC20.sol\":3495:3516  returndata.length > 0 */\n      iszero\n        /* \"https://github.com/OmniDexFinance/helper/blob/master/%40openzeppelin/contracts/token/ERC20/SafeERC20.sol\":3491:3712  if (returndata.length > 0) { // Return data is optional... */\n      tag_164\n      jumpi\n        /* \"https://github.com/OmniDexFinance/helper/blob/master/%40openzeppelin/contracts/token/ERC20/SafeERC20.sol\":3635:3645  returndata */\n      dup1\n        /* \"https://github.com/OmniDexFinance/helper/blob/master/%40openzeppelin/contracts/token/ERC20/SafeERC20.sol\":3624:3654  abi.decode(returndata, (bool)) */\n      dup1\n      0x20\n      add\n      swap1\n      mload\n      0x20\n      dup2\n      lt\n      iszero\n      tag_191\n      jumpi\n      0x00\n      dup1\n      revert\n    tag_191:\n      pop\n      mload\n        /* \"https://github.com/OmniDexFinance/helper/blob/master/%40openzeppelin/contracts/token/ERC20/SafeERC20.sol\":3616:3701  require(abi.decode(returndata, (bool)), \"SafeERC20: ERC20 operation did not succeed\") */\n      tag_164\n      jumpi\n      mload(0x40)\n      shl(0xe5, 0x461bcd)\n      dup2\n      mstore\n      0x04\n      add\n      dup1\n      dup1\n      0x20\n      add\n      dup3\n      dup2\n      sub\n      dup3\n      mstore\n      0x2a\n      dup2\n      mstore\n      0x20\n      add\n      dup1\n      data_e11ad79d1e4a7f2e5f376964cb99e8e8f7904e3fc16a109f7a7ecb9aa7956dcd\n      0x2a\n      swap2\n      codecopy\n      0x40\n      add\n      swap2\n      pop\n      pop\n      mload(0x40)\n      dup1\n      swap2\n      sub\n      swap1\n      revert\n        /* \"https://github.com/OmniDexFinance/helper/blob/master/%40openzeppelin/contracts/utils/Address.sol\":4608:5131  function functionCallWithValue(address target, bytes memory data, uint256 value, string memory errorMessage) internal returns (bytes memory) {... */\n    tag_168:\n        /* \"https://github.com/OmniDexFinance/helper/blob/master/%40openzeppelin/contracts/utils/Address.sol\":4735:4747  bytes memory */\n      0x60\n        /* \"https://github.com/OmniDexFinance/helper/blob/master/%40openzeppelin/contracts/utils/Address.sol\":4792:4797  value */\n      dup3\n        /* \"https://github.com/OmniDexFinance/helper/blob/master/%40openzeppelin/contracts/utils/Address.sol\":4767:4788  address(this).balance */\n      selfbalance\n        /* \"https://github.com/OmniDexFinance/helper/blob/master/%40openzeppelin/contracts/utils/Address.sol\":4767:4797  address(this).balance >= value */\n      lt\n      iszero\n        /* \"https://github.com/OmniDexFinance/helper/blob/master/%40openzeppelin/contracts/utils/Address.sol\":4759:4840  require(address(this).balance >= value, \"Address: insufficient balance for call\") */\n      tag_194\n      jumpi\n      mload(0x40)\n      shl(0xe5, 0x461bcd)\n      dup2\n      mstore\n      0x04\n      add\n      dup1\n      dup1\n      0x20\n      add\n      dup3\n      dup2\n      sub\n      dup3\n      mstore\n      0x26\n      dup2\n      mstore\n      0x20\n      add\n      dup1\n      data_565f1a77334fc4792800921178c71e4521acffab18ff9e7885b49377ee80ab4c\n      0x26\n      swap2\n      codecopy\n      0x40\n      add\n      swap2\n      pop\n      pop\n      mload(0x40)\n      dup1\n      swap2\n      sub\n      swap1\n      revert\n    tag_194:\n        /* \"https://github.com/OmniDexFinance/helper/blob/master/%40openzeppelin/contracts/utils/Address.sol\":4858:4876  isContract(target) */\n      tag_195\n        /* \"https://github.com/OmniDexFinance/helper/blob/master/%40openzeppelin/contracts/utils/Address.sol\":4869:4875  target */\n      dup6\n        /* \"https://github.com/OmniDexFinance/helper/blob/master/%40openzeppelin/contracts/utils/Address.sol\":4858:4868  isContract */\n      tag_196\n        /* \"https://github.com/OmniDexFinance/helper/blob/master/%40openzeppelin/contracts/utils/Address.sol\":4858:4876  isContract(target) */\n      jump\t// in\n    tag_195:\n        /* \"https://github.com/OmniDexFinance/helper/blob/master/%40openzeppelin/contracts/utils/Address.sol\":4850:4910  require(isContract(target), \"Address: call to non-contract\") */\n      tag_197\n      jumpi\n      0x40\n      dup1\n      mload\n      shl(0xe5, 0x461bcd)\n      dup2\n      mstore\n      0x20\n      0x04\n      dup3\n      add\n      mstore\n      0x1d\n      0x24\n      dup3\n      add\n      mstore\n      0x416464726573733a2063616c6c20746f206e6f6e2d636f6e7472616374000000\n      0x44\n      dup3\n      add\n      mstore\n      swap1\n      mload\n      swap1\n      dup2\n      swap1\n      sub\n      0x64\n      add\n      swap1\n      revert\n    tag_197:\n        /* \"https://github.com/OmniDexFinance/helper/blob/master/%40openzeppelin/contracts/utils/Address.sol\":4981:4993  bool success */\n      0x00\n        /* \"https://github.com/OmniDexFinance/helper/blob/master/%40openzeppelin/contracts/utils/Address.sol\":4995:5018  bytes memory returndata */\n      0x60\n        /* \"https://github.com/OmniDexFinance/helper/blob/master/%40openzeppelin/contracts/utils/Address.sol\":5022:5028  target */\n      dup7\n      sub(shl(0xa0, 0x01), 0x01)\n        /* \"https://github.com/OmniDexFinance/helper/blob/master/%40openzeppelin/contracts/utils/Address.sol\":5022:5033  target.call */\n      and\n        /* \"https://github.com/OmniDexFinance/helper/blob/master/%40openzeppelin/contracts/utils/Address.sol\":5042:5047  value */\n      dup6\n        /* \"https://github.com/OmniDexFinance/helper/blob/master/%40openzeppelin/contracts/utils/Address.sol\":5050:5054  data */\n      dup8\n        /* \"https://github.com/OmniDexFinance/helper/blob/master/%40openzeppelin/contracts/utils/Address.sol\":5022:5055  target.call{ value: value }(data) */\n      mload(0x40)\n      dup1\n      dup3\n      dup1\n      mload\n      swap1\n      0x20\n      add\n      swap1\n      dup1\n      dup4\n      dup4\n    tag_198:\n      0x20\n      dup4\n      lt\n      tag_200\n      jumpi\n      dup1\n      mload\n      dup3\n      mstore\n      not(0x1f)\n      swap1\n      swap3\n      add\n      swap2\n      0x20\n      swap2\n      dup3\n      add\n      swap2\n      add\n      jump(tag_198)\n    tag_200:\n      0x01\n      dup4\n      0x20\n      sub\n      0x0100\n      exp\n      sub\n      dup1\n      not\n      dup3\n      mload\n      and\n      dup2\n      dup5\n      mload\n      and\n      dup1\n      dup3\n      or\n      dup6\n      mstore\n      pop\n      pop\n      pop\n      pop\n      pop\n      pop\n      swap1\n      pop\n      add\n      swap2\n      pop\n      pop\n      0x00\n      mload(0x40)\n      dup1\n      dup4\n      sub\n      dup2\n      dup6\n      dup8\n      gas\n      call\n      swap3\n      pop\n      pop\n      pop\n      returndatasize\n      dup1\n      0x00\n      dup2\n      eq\n      tag_203\n      jumpi\n      mload(0x40)\n      swap2\n      pop\n      and(add(returndatasize, 0x3f), not(0x1f))\n      dup3\n      add\n      0x40\n      mstore\n      returndatasize\n      dup3\n      mstore\n      returndatasize\n      0x00\n      0x20\n      dup5\n      add\n      returndatacopy\n      jump(tag_202)\n    tag_203:\n      0x60\n      swap2\n      pop\n    tag_202:\n      pop\n        /* \"https://github.com/OmniDexFinance/helper/blob/master/%40openzeppelin/contracts/utils/Address.sol\":4980:5055  (bool success, bytes memory returndata) = target.call{ value: value }(data) */\n      swap2\n      pop\n      swap2\n      pop\n        /* \"https://github.com/OmniDexFinance/helper/blob/master/%40openzeppelin/contracts/utils/Address.sol\":5072:5124  _verifyCallResult(success, returndata, errorMessage) */\n      tag_204\n        /* \"https://github.com/OmniDexFinance/helper/blob/master/%40openzeppelin/contracts/utils/Address.sol\":5090:5097  success */\n      dup3\n        /* \"https://github.com/OmniDexFinance/helper/blob/master/%40openzeppelin/contracts/utils/Address.sol\":5099:5109  returndata */\n      dup3\n        /* \"https://github.com/OmniDexFinance/helper/blob/master/%40openzeppelin/contracts/utils/Address.sol\":5111:5123  errorMessage */\n      dup7\n        /* \"https://github.com/OmniDexFinance/helper/blob/master/%40openzeppelin/contracts/utils/Address.sol\":5072:5089  _verifyCallResult */\n      tag_205\n        /* \"https://github.com/OmniDexFinance/helper/blob/master/%40openzeppelin/contracts/utils/Address.sol\":5072:5124  _verifyCallResult(success, returndata, errorMessage) */\n      jump\t// in\n    tag_204:\n        /* \"https://github.com/OmniDexFinance/helper/blob/master/%40openzeppelin/contracts/utils/Address.sol\":5065:5124  return _verifyCallResult(success, returndata, errorMessage) */\n      swap8\n        /* \"https://github.com/OmniDexFinance/helper/blob/master/%40openzeppelin/contracts/utils/Address.sol\":4608:5131  function functionCallWithValue(address target, bytes memory data, uint256 value, string memory errorMessage) internal returns (bytes memory) {... */\n      swap7\n      pop\n      pop\n      pop\n      pop\n      pop\n      pop\n      pop\n      jump\t// out\n        /* \"https://github.com/OmniDexFinance/helper/blob/master/%40openzeppelin/contracts/utils/Address.sol\":726:1139  function isContract(address account) internal view returns (bool) {... */\n    tag_196:\n        /* \"https://github.com/OmniDexFinance/helper/blob/master/%40openzeppelin/contracts/utils/Address.sol\":1086:1106  extcodesize(account) */\n      extcodesize\n        /* \"https://github.com/OmniDexFinance/helper/blob/master/%40openzeppelin/contracts/utils/Address.sol\":1124:1132  size > 0 */\n      iszero\n      iszero\n      swap1\n        /* \"https://github.com/OmniDexFinance/helper/blob/master/%40openzeppelin/contracts/utils/Address.sol\":726:1139  function isContract(address account) internal view returns (bool) {... */\n      jump\t// out\n        /* \"https://github.com/OmniDexFinance/helper/blob/master/%40openzeppelin/contracts/utils/Address.sol\":7091:7816  function _verifyCallResult(bool success, bytes memory returndata, string memory errorMessage) private pure returns(bytes memory) {... */\n    tag_205:\n        /* \"https://github.com/OmniDexFinance/helper/blob/master/%40openzeppelin/contracts/utils/Address.sol\":7206:7218  bytes memory */\n      0x60\n        /* \"https://github.com/OmniDexFinance/helper/blob/master/%40openzeppelin/contracts/utils/Address.sol\":7234:7241  success */\n      dup4\n        /* \"https://github.com/OmniDexFinance/helper/blob/master/%40openzeppelin/contracts/utils/Address.sol\":7230:7810  if (success) {... */\n      iszero\n      tag_208\n      jumpi\n      pop\n        /* \"https://github.com/OmniDexFinance/helper/blob/master/%40openzeppelin/contracts/utils/Address.sol\":7264:7274  returndata */\n      dup2\n        /* \"https://github.com/OmniDexFinance/helper/blob/master/%40openzeppelin/contracts/utils/Address.sol\":7257:7274  return returndata */\n      jump(tag_166)\n        /* \"https://github.com/OmniDexFinance/helper/blob/master/%40openzeppelin/contracts/utils/Address.sol\":7230:7810  if (success) {... */\n    tag_208:\n        /* \"https://github.com/OmniDexFinance/helper/blob/master/%40openzeppelin/contracts/utils/Address.sol\":7375:7392  returndata.length */\n      dup3\n      mload\n        /* \"https://github.com/OmniDexFinance/helper/blob/master/%40openzeppelin/contracts/utils/Address.sol\":7375:7396  returndata.length > 0 */\n      iszero\n        /* \"https://github.com/OmniDexFinance/helper/blob/master/%40openzeppelin/contracts/utils/Address.sol\":7371:7800  if (returndata.length > 0) {... */\n      tag_210\n      jumpi\n        /* \"https://github.com/OmniDexFinance/helper/blob/master/%40openzeppelin/contracts/utils/Address.sol\":7633:7643  returndata */\n      dup3\n        /* \"https://github.com/OmniDexFinance/helper/blob/master/%40openzeppelin/contracts/utils/Address.sol\":7627:7644  mload(returndata) */\n      mload\n        /* \"https://github.com/OmniDexFinance/helper/blob/master/%40openzeppelin/contracts/utils/Address.sol\":7693:7708  returndata_size */\n      dup1\n        /* \"https://github.com/OmniDexFinance/helper/blob/master/%40openzeppelin/contracts/utils/Address.sol\":7680:7690  returndata */\n      dup5\n        /* \"https://github.com/OmniDexFinance/helper/blob/master/%40openzeppelin/contracts/utils/Address.sol\":7676:7678  32 */\n      0x20\n        /* \"https://github.com/OmniDexFinance/helper/blob/master/%40openzeppelin/contracts/utils/Address.sol\":7672:7691  add(32, returndata) */\n      add\n        /* \"https://github.com/OmniDexFinance/helper/blob/master/%40openzeppelin/contracts/utils/Address.sol\":7665:7709  revert(add(32, returndata), returndata_size) */\n      revert\n        /* \"https://github.com/OmniDexFinance/helper/blob/master/%40openzeppelin/contracts/utils/Address.sol\":7582:7727  {... */\n    tag_210:\n        /* \"https://github.com/OmniDexFinance/helper/blob/master/%40openzeppelin/contracts/utils/Address.sol\":7772:7784  errorMessage */\n      dup2\n        /* \"https://github.com/OmniDexFinance/helper/blob/master/%40openzeppelin/contracts/utils/Address.sol\":7765:7785  revert(errorMessage) */\n      mload(0x40)\n      shl(0xe5, 0x461bcd)\n      dup2\n      mstore\n      0x04\n      add\n      dup1\n      dup1\n      0x20\n      add\n      dup3\n      dup2\n      sub\n      dup3\n      mstore\n      dup4\n      dup2\n      dup2\n      mload\n      dup2\n      mstore\n      0x20\n      add\n      swap2\n      pop\n      dup1\n      mload\n      swap1\n      0x20\n      add\n      swap1\n      dup1\n      dup4\n      dup4\n      0x00\n    tag_212:\n      dup4\n      dup2\n      lt\n      iszero\n      tag_214\n      jumpi\n      dup2\n      dup2\n      add\n      mload\n      dup4\n      dup3\n      add\n      mstore\n      0x20\n      add\n      jump(tag_212)\n    tag_214:\n      pop\n      pop\n      pop\n      pop\n      swap1\n      pop\n      swap1\n      dup2\n      add\n      swap1\n      0x1f\n      and\n      dup1\n      iszero\n      tag_215\n      jumpi\n      dup1\n      dup3\n      sub\n      dup1\n      mload\n      0x01\n      dup4\n      0x20\n      sub\n      0x0100\n      exp\n      sub\n      not\n      and\n      dup2\n      mstore\n      0x20\n      add\n      swap2\n      pop\n    tag_215:\n      pop\n      swap3\n      pop\n      pop\n      pop\n      mload(0x40)\n      dup1\n      swap2\n      sub\n      swap1\n      revert\n    stop\n    data_2186895f526e488d7755616513a09664eedf819bfafe4f6fa94396f5afb14e38 496e73756666696369656e7420696e63656e746976657320617661696c61626c65\n    data_245f15ff17f551913a7a18385165551503906a406f905ac1c2437281a7cd0cfe 4f776e61626c653a206e6577206f776e657220697320746865207a65726f2061646472657373\n    data_565f1a77334fc4792800921178c71e4521acffab18ff9e7885b49377ee80ab4c 416464726573733a20696e73756666696369656e742062616c616e636520666f722063616c6c\n    data_9924ebdf1add33d25d4ef888e16131f0a5687b0580a36c21b5c301a6c462effe 4f776e61626c653a2063616c6c6572206973206e6f7420746865206f776e6572\n    data_bcc168664a3c14c72586057eda5ba29201ba9e86de7cd2fcc768efe9bd2f6ac9 546f6b656e2063616e6e6f742062652073616d6520617320696e63656e746976657320746f6b656e\n    data_e11ad79d1e4a7f2e5f376964cb99e8e8f7904e3fc16a109f7a7ecb9aa7956dcd 5361666545524332303a204552433230206f7065726174696f6e20646964206e6f742073756363656564\n    data_ef945ddb1bfdc0da870feb4560d868b047642b4ac7f2fb7f8b7c51cb4a411e25 5361666545524332303a20617070726f76652066726f6d206e6f6e2d7a65726f20746f206e6f6e2d7a65726f20616c6c6f77616e6365\n\n    auxdata: 0xa26469706673582212204cfa605730eb00dd6df59580a935833c5c163b1a41934ad1ed93bedfedaf8a6e64736f6c63430007050033\n}\n",
				"bytecode": {
					"linkReferences": {},
					"object": "60a06040523480156200001157600080fd5b5060405162001b0038038062001b00833981810160405260808110156200003757600080fd5b508051602082015160408301516060909301519192909160006200005a6200011e565b600080546001600160a01b0319166001600160a01b0383169081178255604051929350917f8be0079c531659141344cd1fd0a4f28419497f9722a3daafe3b4186f6b6457e0908290a3506000805460ff60a01b19169055606084901b6001600160601b031916608052600280546001600160a01b03199081166001600160a01b0386811691909117909255600180549091168483161790556003829055620001149085168460001962000122602090811b62000dac17901c565b5050505062000535565b3390565b801580620001ac575060408051636eb1769f60e11b81523060048201526001600160a01b03848116602483015291519185169163dd62ed3e91604480820192602092909190829003018186803b1580156200017c57600080fd5b505afa15801562000191573d6000803e3d6000fd5b505050506040513d6020811015620001a857600080fd5b5051155b620001e95760405162461bcd60e51b815260040180806020018281038252603681526020018062001aca6036913960400191505060405180910390fd5b604080516001600160a01b038416602482015260448082018490528251808303909101815260649091019091526020810180516001600160e01b0390811663095ea7b360e01b17909152620002419185916200024616565b505050565b6060620002a2826040518060400160405280602081526020017f5361666545524332303a206c6f772d6c6576656c2063616c6c206661696c6564815250856001600160a01b03166200030260201b62000ec4179092919060201c565b8051909150156200024157808060200190516020811015620002c357600080fd5b5051620002415760405162461bcd60e51b815260040180806020018281038252602a81526020018062001aa0602a913960400191505060405180910390fd5b60606200031384846000856200031d565b90505b9392505050565b606082471015620003605760405162461bcd60e51b815260040180806020018281038252602681526020018062001a7a6026913960400191505060405180910390fd5b6200036b8562000485565b620003bd576040805162461bcd60e51b815260206004820152601d60248201527f416464726573733a2063616c6c20746f206e6f6e2d636f6e7472616374000000604482015290519081900360640190fd5b60006060866001600160a01b031685876040518082805190602001908083835b60208310620003fe5780518252601f199092019160209182019101620003dd565b6001836020036101000a03801982511681845116808217855250505050505090500191505060006040518083038185875af1925050503d806000811462000462576040519150601f19603f3d011682016040523d82523d6000602084013e62000467565b606091505b5090925090506200047a8282866200048b565b979650505050505050565b3b151590565b606083156200049c57508162000316565b825115620004ad5782518084602001fd5b8160405162461bcd60e51b81526004018080602001828103825283818151815260200191508051906020019080838360005b83811015620004f9578181015183820152602001620004df565b50505050905090810190601f168015620005275780820380516001836020036101000a031916815260200191505b509250505060405180910390fd5b60805160601c61150962000571600039806106615280610702528061085a52806109135280610c195280610d0f5280610d8a52506115096000f3fe608060405234801561001057600080fd5b50600436106101215760003560e01c80638ef57f5e116100ad578063f059cf2b11610071578063f059cf2b14610240578063f2fde38b14610248578063f3fef3a31461026e578063f851a4401461029a578063fc0c546a146102a257610121565b80638ef57f5e146101d0578063a6895b5a146101d8578063b20d30a9146101e0578063b6b55f25146101fd578063def68a9c1461021a57610121565b8063704b6c02116100f4578063704b6c021461016e578063715018a6146101945780638456cb591461019c578063853828b6146101a45780638da5cb5b146101ac57610121565b80633f4ba83a146101265780635c975abb1461013057806367eeba0c1461014c5780636b0c932d14610166575b600080fd5b61012e6102aa565b005b610138610383565b604080519115158252519081900360200190f35b610154610393565b60408051918252519081900360200190f35b610154610399565b61012e6004803603602081101561018457600080fd5b50356001600160a01b031661039f565b61012e610477565b61012e610523565b61012e6105f9565b6101b461072b565b604080516001600160a01b039092168252519081900360200190f35b6101b461073a565b610154610749565b61012e600480360360208110156101f657600080fd5b503561074f565b61012e6004803603602081101561021357600080fd5b50356107b6565b61012e6004803603602081101561023057600080fd5b50356001600160a01b03166108bb565b610154610a17565b61012e6004803603602081101561025e57600080fd5b50356001600160a01b0316610a1d565b61012e6004803603604081101561028457600080fd5b506001600160a01b038135169060200135610b1f565b6101b4610d79565b6101b4610d88565b6001546001600160a01b03163314610300576040805162461bcd60e51b815260206004820152601460248201527313db9b1e4818591b5a5b881c195c9b5a5d1d195960621b604482015290519081900360640190fd5b610308610383565b610350576040805162461bcd60e51b815260206004820152601460248201527314185d5cd8589b194e881b9bdd081c185d5cd95960621b604482015290519081900360640190fd5b610358610edd565b6040517f7805862f689e2f13df9f062ff482ad3ad112aca9e0847911ed832e158c525b3390600090a1565b600054600160a01b900460ff1690565b60035481565b60045481565b6103a7610f80565b6001600160a01b03166103b861072b565b6001600160a01b031614610401576040805162461bcd60e51b8152602060048201819052602482015260008051602061142c833981519152604482015290519081900360640190fd5b6001600160a01b038116610455576040805162461bcd60e51b815260206004820152601660248201527543616e6e6f74206265207a65726f206164647265737360501b604482015290519081900360640190fd5b600180546001600160a01b0319166001600160a01b0392909216919091179055565b61047f610f80565b6001600160a01b031661049061072b565b6001600160a01b0316146104d9576040805162461bcd60e51b8152602060048201819052602482015260008051602061142c833981519152604482015290519081900360640190fd5b600080546040516001600160a01b03909116907f8be0079c531659141344cd1fd0a4f28419497f9722a3daafe3b4186f6b6457e0908390a3600080546001600160a01b0319169055565b6001546001600160a01b03163314610579576040805162461bcd60e51b815260206004820152601460248201527313db9b1e4818591b5a5b881c195c9b5a5d1d195960621b604482015290519081900360640190fd5b610581610383565b156105c6576040805162461bcd60e51b815260206004820152601060248201526f14185d5cd8589b194e881c185d5cd95960821b604482015290519081900360640190fd5b6105ce610f84565b6040517f6985a02210a168e66602d3235cb6db0e70f92b3ba4d376a33c0f3d9434bff62590600090a1565b610601610f80565b6001600160a01b031661061261072b565b6001600160a01b03161461065b576040805162461bcd60e51b8152602060048201819052602482015260008051602061142c833981519152604482015290519081900360640190fd5b610729337f00000000000000000000000000000000000000000000000000000000000000006001600160a01b03166370a08231306040518263ffffffff1660e01b815260040180826001600160a01b0316815260200191505060206040518083038186803b1580156106cc57600080fd5b505afa1580156106e0573d6000803e3d6000fd5b505050506040513d60208110156106f657600080fd5b50516001600160a01b037f000000000000000000000000000000000000000000000000000000000000000016919061100d565b565b6000546001600160a01b031690565b6002546001600160a01b031681565b60035490565b610757610f80565b6001600160a01b031661076861072b565b6001600160a01b0316146107b1576040805162461bcd60e51b8152602060048201819052602482015260008051602061142c833981519152604482015290519081900360640190fd5b600355565b6107be610383565b15610803576040805162461bcd60e51b815260206004820152601060248201526f14185d5cd8589b194e881c185d5cd95960821b604482015290519081900360640190fd5b6000811161084d576040805162461bcd60e51b8152602060048201526012602482015271139bdd1a1a5b99c81d1bc819195c1bdcda5d60721b604482015290519081900360640190fd5b6108826001600160a01b037f00000000000000000000000000000000000000000000000000000000000000001633308461105f565b60408051828152905133917fe1fffcc4923d04b559f4d29a8bfc6cda04eb5b0d3c460751c2402c5c5cc9109c919081900360200190a250565b6001546001600160a01b03163314610911576040805162461bcd60e51b815260206004820152601460248201527313db9b1e4818591b5a5b881c195c9b5a5d1d195960621b604482015290519081900360640190fd5b7f00000000000000000000000000000000000000000000000000000000000000006001600160a01b0316816001600160a01b031614156109825760405162461bcd60e51b815260040180806020018281038252602881526020018061144c6028913960400191505060405180910390fd5b6000816001600160a01b03166370a08231306040518263ffffffff1660e01b815260040180826001600160a01b0316815260200191505060206040518083038186803b1580156109d157600080fd5b505afa1580156109e5573d6000803e3d6000fd5b505050506040513d60208110156109fb57600080fd5b50519050610a136001600160a01b038316338361100d565b5050565b60055481565b610a25610f80565b6001600160a01b0316610a3661072b565b6001600160a01b031614610a7f576040805162461bcd60e51b8152602060048201819052602482015260008051602061142c833981519152604482015290519081900360640190fd5b6001600160a01b038116610ac45760405162461bcd60e51b81526004018080602001828103825260268152602001806113e06026913960400191505060405180910390fd5b600080546040516001600160a01b03808516939216917f8be0079c531659141344cd1fd0a4f28419497f9722a3daafe3b4186f6b6457e091a3600080546001600160a01b0319166001600160a01b0392909216919091179055565b610b27610383565b15610b6c576040805162461bcd60e51b815260206004820152601060248201526f14185d5cd8589b194e881c185d5cd95960821b604482015290519081900360640190fd5b6002546001600160a01b03163314610bcb576040805162461bcd60e51b815260206004820152601960248201527f4e6f7420616e20617574686f7269736564207370656e64657200000000000000604482015290519081900360640190fd5b60008111610c16576040805162461bcd60e51b81526020600482015260136024820152724e6f7468696e6720746f20776974686472617760681b604482015290519081900360640190fd5b807f00000000000000000000000000000000000000000000000000000000000000006001600160a01b03166370a08231306040518263ffffffff1660e01b815260040180826001600160a01b0316815260200191505060206040518083038186803b158015610c8457600080fd5b505afa158015610c98573d6000803e3d6000fd5b505050506040513d6020811015610cae57600080fd5b505111610cec5760405162461bcd60e51b81526004018080602001828103825260218152602001806113bf6021913960400191505060405180910390fd5b610cf5816110bf565b15610d36576005805482019055610d366001600160a01b037f000000000000000000000000000000000000000000000000000000000000000016838361100d565b6040805182815290516001600160a01b038416917f884edad9ce6fa2440d8a54cc123490eb96d2768479d49ff9c7366125a9424364919081900360200190a25050565b6001546001600160a01b031681565b7f000000000000000000000000000000000000000000000000000000000000000081565b801580610e32575060408051636eb1769f60e11b81523060048201526001600160a01b03848116602483015291519185169163dd62ed3e91604480820192602092909190829003018186803b158015610e0457600080fd5b505afa158015610e18573d6000803e3d6000fd5b505050506040513d6020811015610e2e57600080fd5b5051155b610e6d5760405162461bcd60e51b815260040180806020018281038252603681526020018061149e6036913960400191505060405180910390fd5b604080516001600160a01b038416602482015260448082018490528251808303909101815260649091019091526020810180516001600160e01b031663095ea7b360e01b179052610ebf908490611107565b505050565b6060610ed384846000856111b8565b90505b9392505050565b610ee5610383565b610f2d576040805162461bcd60e51b815260206004820152601460248201527314185d5cd8589b194e881b9bdd081c185d5cd95960621b604482015290519081900360640190fd5b6000805460ff60a01b191690557f5db9ee0a495bf2e6ff9c91a7834c1ba4fdd244a5e8aa4e537bd38aeae4b073aa610f63610f80565b604080516001600160a01b039092168252519081900360200190a1565b3390565b610f8c610383565b15610fd1576040805162461bcd60e51b815260206004820152601060248201526f14185d5cd8589b194e881c185d5cd95960821b604482015290519081900360640190fd5b6000805460ff60a01b1916600160a01b1790557f62e78cea01bee320cd4e420270b5ea74000d11b0c9f74754ebdbfc544b05a258610f63610f80565b604080516001600160a01b038416602482015260448082018490528251808303909101815260649091019091526020810180516001600160e01b031663a9059cbb60e01b179052610ebf908490611107565b604080516001600160a01b0380861660248301528416604482015260648082018490528251808303909101815260849091019091526020810180516001600160e01b03166323b872dd60e01b1790526110b9908590611107565b50505050565b600060045462015180014211156110da574260045560006005555b600354826005540111806110f15750600554828101105b156110fe57506000611102565b5060015b919050565b606061115c826040518060400160405280602081526020017f5361666545524332303a206c6f772d6c6576656c2063616c6c206661696c6564815250856001600160a01b0316610ec49092919063ffffffff16565b805190915015610ebf5780806020019051602081101561117b57600080fd5b5051610ebf5760405162461bcd60e51b815260040180806020018281038252602a815260200180611474602a913960400191505060405180910390fd5b6060824710156111f95760405162461bcd60e51b81526004018080602001828103825260268152602001806114066026913960400191505060405180910390fd5b61120285611314565b611253576040805162461bcd60e51b815260206004820152601d60248201527f416464726573733a2063616c6c20746f206e6f6e2d636f6e7472616374000000604482015290519081900360640190fd5b60006060866001600160a01b031685876040518082805190602001908083835b602083106112925780518252601f199092019160209182019101611273565b6001836020036101000a03801982511681845116808217855250505050505090500191505060006040518083038185875af1925050503d80600081146112f4576040519150601f19603f3d011682016040523d82523d6000602084013e6112f9565b606091505b509150915061130982828661131a565b979650505050505050565b3b151590565b60608315611329575081610ed6565b8251156113395782518084602001fd5b8160405162461bcd60e51b81526004018080602001828103825283818151815260200191508051906020019080838360005b8381101561138357818101518382015260200161136b565b50505050905090810190601f1680156113b05780820380516001836020036101000a031916815260200191505b509250505060405180910390fdfe496e73756666696369656e7420696e63656e746976657320617661696c61626c654f776e61626c653a206e6577206f776e657220697320746865207a65726f2061646472657373416464726573733a20696e73756666696369656e742062616c616e636520666f722063616c6c4f776e61626c653a2063616c6c6572206973206e6f7420746865206f776e6572546f6b656e2063616e6e6f742062652073616d6520617320696e63656e746976657320746f6b656e5361666545524332303a204552433230206f7065726174696f6e20646964206e6f7420737563636565645361666545524332303a20617070726f76652066726f6d206e6f6e2d7a65726f20746f206e6f6e2d7a65726f20616c6c6f77616e6365a26469706673582212204cfa605730eb00dd6df59580a935833c5c163b1a41934ad1ed93bedfedaf8a6e64736f6c63430007050033416464726573733a20696e73756666696369656e742062616c616e636520666f722063616c6c5361666545524332303a204552433230206f7065726174696f6e20646964206e6f7420737563636565645361666545524332303a20617070726f76652066726f6d206e6f6e2d7a65726f20746f206e6f6e2d7a65726f20616c6c6f77616e6365",
					"opcodes": "PUSH1 0xA0 PUSH1 0x40 MSTORE CALLVALUE DUP1 ISZERO PUSH3 0x11 JUMPI PUSH1 0x0 DUP1 REVERT JUMPDEST POP PUSH1 0x40 MLOAD PUSH3 0x1B00 CODESIZE SUB DUP1 PUSH3 0x1B00 DUP4 CODECOPY DUP2 DUP2 ADD PUSH1 0x40 MSTORE PUSH1 0x80 DUP2 LT ISZERO PUSH3 0x37 JUMPI PUSH1 0x0 DUP1 REVERT JUMPDEST POP DUP1 MLOAD PUSH1 0x20 DUP3 ADD MLOAD PUSH1 0x40 DUP4 ADD MLOAD PUSH1 0x60 SWAP1 SWAP4 ADD MLOAD SWAP2 SWAP3 SWAP1 SWAP2 PUSH1 0x0 PUSH3 0x5A PUSH3 0x11E JUMP JUMPDEST PUSH1 0x0 DUP1 SLOAD PUSH1 0x1 PUSH1 0x1 PUSH1 0xA0 SHL SUB NOT AND PUSH1 0x1 PUSH1 0x1 PUSH1 0xA0 SHL SUB DUP4 AND SWAP1 DUP2 OR DUP3 SSTORE PUSH1 0x40 MLOAD SWAP3 SWAP4 POP SWAP2 PUSH32 0x8BE0079C531659141344CD1FD0A4F28419497F9722A3DAAFE3B4186F6B6457E0 SWAP1 DUP3 SWAP1 LOG3 POP PUSH1 0x0 DUP1 SLOAD PUSH1 0xFF PUSH1 0xA0 SHL NOT AND SWAP1 SSTORE PUSH1 0x60 DUP5 SWAP1 SHL PUSH1 0x1 PUSH1 0x1 PUSH1 0x60 SHL SUB NOT AND PUSH1 0x80 MSTORE PUSH1 0x2 DUP1 SLOAD PUSH1 0x1 PUSH1 0x1 PUSH1 0xA0 SHL SUB NOT SWAP1 DUP2 AND PUSH1 0x1 PUSH1 0x1 PUSH1 0xA0 SHL SUB DUP7 DUP2 AND SWAP2 SWAP1 SWAP2 OR SWAP1 SWAP3 SSTORE PUSH1 0x1 DUP1 SLOAD SWAP1 SWAP2 AND DUP5 DUP4 AND OR SWAP1 SSTORE PUSH1 0x3 DUP3 SWAP1 SSTORE PUSH3 0x114 SWAP1 DUP6 AND DUP5 PUSH1 0x0 NOT PUSH3 0x122 PUSH1 0x20 SWAP1 DUP2 SHL PUSH3 0xDAC OR SWAP1 SHR JUMP JUMPDEST POP POP POP POP PUSH3 0x535 JUMP JUMPDEST CALLER SWAP1 JUMP JUMPDEST DUP1 ISZERO DUP1 PUSH3 0x1AC JUMPI POP PUSH1 0x40 DUP1 MLOAD PUSH4 0x6EB1769F PUSH1 0xE1 SHL DUP2 MSTORE ADDRESS PUSH1 0x4 DUP3 ADD MSTORE PUSH1 0x1 PUSH1 0x1 PUSH1 0xA0 SHL SUB DUP5 DUP2 AND PUSH1 0x24 DUP4 ADD MSTORE SWAP2 MLOAD SWAP2 DUP6 AND SWAP2 PUSH4 0xDD62ED3E SWAP2 PUSH1 0x44 DUP1 DUP3 ADD SWAP3 PUSH1 0x20 SWAP3 SWAP1 SWAP2 SWAP1 DUP3 SWAP1 SUB ADD DUP2 DUP7 DUP1 EXTCODESIZE ISZERO DUP1 ISZERO PUSH3 0x17C JUMPI PUSH1 0x0 DUP1 REVERT JUMPDEST POP GAS STATICCALL ISZERO DUP1 ISZERO PUSH3 0x191 JUMPI RETURNDATASIZE PUSH1 0x0 DUP1 RETURNDATACOPY RETURNDATASIZE PUSH1 0x0 REVERT JUMPDEST POP POP POP POP PUSH1 0x40 MLOAD RETURNDATASIZE PUSH1 0x20 DUP2 LT ISZERO PUSH3 0x1A8 JUMPI PUSH1 0x0 DUP1 REVERT JUMPDEST POP MLOAD ISZERO JUMPDEST PUSH3 0x1E9 JUMPI PUSH1 0x40 MLOAD PUSH3 0x461BCD PUSH1 0xE5 SHL DUP2 MSTORE PUSH1 0x4 ADD DUP1 DUP1 PUSH1 0x20 ADD DUP3 DUP2 SUB DUP3 MSTORE PUSH1 0x36 DUP2 MSTORE PUSH1 0x20 ADD DUP1 PUSH3 0x1ACA PUSH1 0x36 SWAP2 CODECOPY PUSH1 0x40 ADD SWAP2 POP POP PUSH1 0x40 MLOAD DUP1 SWAP2 SUB SWAP1 REVERT JUMPDEST PUSH1 0x40 DUP1 MLOAD PUSH1 0x1 PUSH1 0x1 PUSH1 0xA0 SHL SUB DUP5 AND PUSH1 0x24 DUP3 ADD MSTORE PUSH1 0x44 DUP1 DUP3 ADD DUP5 SWAP1 MSTORE DUP3 MLOAD DUP1 DUP4 SUB SWAP1 SWAP2 ADD DUP2 MSTORE PUSH1 0x64 SWAP1 SWAP2 ADD SWAP1 SWAP2 MSTORE PUSH1 0x20 DUP2 ADD DUP1 MLOAD PUSH1 0x1 PUSH1 0x1 PUSH1 0xE0 SHL SUB SWAP1 DUP2 AND PUSH4 0x95EA7B3 PUSH1 0xE0 SHL OR SWAP1 SWAP2 MSTORE PUSH3 0x241 SWAP2 DUP6 SWAP2 PUSH3 0x246 AND JUMP JUMPDEST POP POP POP JUMP JUMPDEST PUSH1 0x60 PUSH3 0x2A2 DUP3 PUSH1 0x40 MLOAD DUP1 PUSH1 0x40 ADD PUSH1 0x40 MSTORE DUP1 PUSH1 0x20 DUP2 MSTORE PUSH1 0x20 ADD PUSH32 0x5361666545524332303A206C6F772D6C6576656C2063616C6C206661696C6564 DUP2 MSTORE POP DUP6 PUSH1 0x1 PUSH1 0x1 PUSH1 0xA0 SHL SUB AND PUSH3 0x302 PUSH1 0x20 SHL PUSH3 0xEC4 OR SWAP1 SWAP3 SWAP2 SWAP1 PUSH1 0x20 SHR JUMP JUMPDEST DUP1 MLOAD SWAP1 SWAP2 POP ISZERO PUSH3 0x241 JUMPI DUP1 DUP1 PUSH1 0x20 ADD SWAP1 MLOAD PUSH1 0x20 DUP2 LT ISZERO PUSH3 0x2C3 JUMPI PUSH1 0x0 DUP1 REVERT JUMPDEST POP MLOAD PUSH3 0x241 JUMPI PUSH1 0x40 MLOAD PUSH3 0x461BCD PUSH1 0xE5 SHL DUP2 MSTORE PUSH1 0x4 ADD DUP1 DUP1 PUSH1 0x20 ADD DUP3 DUP2 SUB DUP3 MSTORE PUSH1 0x2A DUP2 MSTORE PUSH1 0x20 ADD DUP1 PUSH3 0x1AA0 PUSH1 0x2A SWAP2 CODECOPY PUSH1 0x40 ADD SWAP2 POP POP PUSH1 0x40 MLOAD DUP1 SWAP2 SUB SWAP1 REVERT JUMPDEST PUSH1 0x60 PUSH3 0x313 DUP5 DUP5 PUSH1 0x0 DUP6 PUSH3 0x31D JUMP JUMPDEST SWAP1 POP JUMPDEST SWAP4 SWAP3 POP POP POP JUMP JUMPDEST PUSH1 0x60 DUP3 SELFBALANCE LT ISZERO PUSH3 0x360 JUMPI PUSH1 0x40 MLOAD PUSH3 0x461BCD PUSH1 0xE5 SHL DUP2 MSTORE PUSH1 0x4 ADD DUP1 DUP1 PUSH1 0x20 ADD DUP3 DUP2 SUB DUP3 MSTORE PUSH1 0x26 DUP2 MSTORE PUSH1 0x20 ADD DUP1 PUSH3 0x1A7A PUSH1 0x26 SWAP2 CODECOPY PUSH1 0x40 ADD SWAP2 POP POP PUSH1 0x40 MLOAD DUP1 SWAP2 SUB SWAP1 REVERT JUMPDEST PUSH3 0x36B DUP6 PUSH3 0x485 JUMP JUMPDEST PUSH3 0x3BD JUMPI PUSH1 0x40 DUP1 MLOAD PUSH3 0x461BCD PUSH1 0xE5 SHL DUP2 MSTORE PUSH1 0x20 PUSH1 0x4 DUP3 ADD MSTORE PUSH1 0x1D PUSH1 0x24 DUP3 ADD MSTORE PUSH32 0x416464726573733A2063616C6C20746F206E6F6E2D636F6E7472616374000000 PUSH1 0x44 DUP3 ADD MSTORE SWAP1 MLOAD SWAP1 DUP2 SWAP1 SUB PUSH1 0x64 ADD SWAP1 REVERT JUMPDEST PUSH1 0x0 PUSH1 0x60 DUP7 PUSH1 0x1 PUSH1 0x1 PUSH1 0xA0 SHL SUB AND DUP6 DUP8 PUSH1 0x40 MLOAD DUP1 DUP3 DUP1 MLOAD SWAP1 PUSH1 0x20 ADD SWAP1 DUP1 DUP4 DUP4 JUMPDEST PUSH1 0x20 DUP4 LT PUSH3 0x3FE JUMPI DUP1 MLOAD DUP3 MSTORE PUSH1 0x1F NOT SWAP1 SWAP3 ADD SWAP2 PUSH1 0x20 SWAP2 DUP3 ADD SWAP2 ADD PUSH3 0x3DD JUMP JUMPDEST PUSH1 0x1 DUP4 PUSH1 0x20 SUB PUSH2 0x100 EXP SUB DUP1 NOT DUP3 MLOAD AND DUP2 DUP5 MLOAD AND DUP1 DUP3 OR DUP6 MSTORE POP POP POP POP POP POP SWAP1 POP ADD SWAP2 POP POP PUSH1 0x0 PUSH1 0x40 MLOAD DUP1 DUP4 SUB DUP2 DUP6 DUP8 GAS CALL SWAP3 POP POP POP RETURNDATASIZE DUP1 PUSH1 0x0 DUP2 EQ PUSH3 0x462 JUMPI PUSH1 0x40 MLOAD SWAP2 POP PUSH1 0x1F NOT PUSH1 0x3F RETURNDATASIZE ADD AND DUP3 ADD PUSH1 0x40 MSTORE RETURNDATASIZE DUP3 MSTORE RETURNDATASIZE PUSH1 0x0 PUSH1 0x20 DUP5 ADD RETURNDATACOPY PUSH3 0x467 JUMP JUMPDEST PUSH1 0x60 SWAP2 POP JUMPDEST POP SWAP1 SWAP3 POP SWAP1 POP PUSH3 0x47A DUP3 DUP3 DUP7 PUSH3 0x48B JUMP JUMPDEST SWAP8 SWAP7 POP POP POP POP POP POP POP JUMP JUMPDEST EXTCODESIZE ISZERO ISZERO SWAP1 JUMP JUMPDEST PUSH1 0x60 DUP4 ISZERO PUSH3 0x49C JUMPI POP DUP2 PUSH3 0x316 JUMP JUMPDEST DUP3 MLOAD ISZERO PUSH3 0x4AD JUMPI DUP3 MLOAD DUP1 DUP5 PUSH1 0x20 ADD REVERT JUMPDEST DUP2 PUSH1 0x40 MLOAD PUSH3 0x461BCD PUSH1 0xE5 SHL DUP2 MSTORE PUSH1 0x4 ADD DUP1 DUP1 PUSH1 0x20 ADD DUP3 DUP2 SUB DUP3 MSTORE DUP4 DUP2 DUP2 MLOAD DUP2 MSTORE PUSH1 0x20 ADD SWAP2 POP DUP1 MLOAD SWAP1 PUSH1 0x20 ADD SWAP1 DUP1 DUP4 DUP4 PUSH1 0x0 JUMPDEST DUP4 DUP2 LT ISZERO PUSH3 0x4F9 JUMPI DUP2 DUP2 ADD MLOAD DUP4 DUP3 ADD MSTORE PUSH1 0x20 ADD PUSH3 0x4DF JUMP JUMPDEST POP POP POP POP SWAP1 POP SWAP1 DUP2 ADD SWAP1 PUSH1 0x1F AND DUP1 ISZERO PUSH3 0x527 JUMPI DUP1 DUP3 SUB DUP1 MLOAD PUSH1 0x1 DUP4 PUSH1 0x20 SUB PUSH2 0x100 EXP SUB NOT AND DUP2 MSTORE PUSH1 0x20 ADD SWAP2 POP JUMPDEST POP SWAP3 POP POP POP PUSH1 0x40 MLOAD DUP1 SWAP2 SUB SWAP1 REVERT JUMPDEST PUSH1 0x80 MLOAD PUSH1 0x60 SHR PUSH2 0x1509 PUSH3 0x571 PUSH1 0x0 CODECOPY DUP1 PUSH2 0x661 MSTORE DUP1 PUSH2 0x702 MSTORE DUP1 PUSH2 0x85A MSTORE DUP1 PUSH2 0x913 MSTORE DUP1 PUSH2 0xC19 MSTORE DUP1 PUSH2 0xD0F MSTORE DUP1 PUSH2 0xD8A MSTORE POP PUSH2 0x1509 PUSH1 0x0 RETURN INVALID PUSH1 0x80 PUSH1 0x40 MSTORE CALLVALUE DUP1 ISZERO PUSH2 0x10 JUMPI PUSH1 0x0 DUP1 REVERT JUMPDEST POP PUSH1 0x4 CALLDATASIZE LT PUSH2 0x121 JUMPI PUSH1 0x0 CALLDATALOAD PUSH1 0xE0 SHR DUP1 PUSH4 0x8EF57F5E GT PUSH2 0xAD JUMPI DUP1 PUSH4 0xF059CF2B GT PUSH2 0x71 JUMPI DUP1 PUSH4 0xF059CF2B EQ PUSH2 0x240 JUMPI DUP1 PUSH4 0xF2FDE38B EQ PUSH2 0x248 JUMPI DUP1 PUSH4 0xF3FEF3A3 EQ PUSH2 0x26E JUMPI DUP1 PUSH4 0xF851A440 EQ PUSH2 0x29A JUMPI DUP1 PUSH4 0xFC0C546A EQ PUSH2 0x2A2 JUMPI PUSH2 0x121 JUMP JUMPDEST DUP1 PUSH4 0x8EF57F5E EQ PUSH2 0x1D0 JUMPI DUP1 PUSH4 0xA6895B5A EQ PUSH2 0x1D8 JUMPI DUP1 PUSH4 0xB20D30A9 EQ PUSH2 0x1E0 JUMPI DUP1 PUSH4 0xB6B55F25 EQ PUSH2 0x1FD JUMPI DUP1 PUSH4 0xDEF68A9C EQ PUSH2 0x21A JUMPI PUSH2 0x121 JUMP JUMPDEST DUP1 PUSH4 0x704B6C02 GT PUSH2 0xF4 JUMPI DUP1 PUSH4 0x704B6C02 EQ PUSH2 0x16E JUMPI DUP1 PUSH4 0x715018A6 EQ PUSH2 0x194 JUMPI DUP1 PUSH4 0x8456CB59 EQ PUSH2 0x19C JUMPI DUP1 PUSH4 0x853828B6 EQ PUSH2 0x1A4 JUMPI DUP1 PUSH4 0x8DA5CB5B EQ PUSH2 0x1AC JUMPI PUSH2 0x121 JUMP JUMPDEST DUP1 PUSH4 0x3F4BA83A EQ PUSH2 0x126 JUMPI DUP1 PUSH4 0x5C975ABB EQ PUSH2 0x130 JUMPI DUP1 PUSH4 0x67EEBA0C EQ PUSH2 0x14C JUMPI DUP1 PUSH4 0x6B0C932D EQ PUSH2 0x166 JUMPI JUMPDEST PUSH1 0x0 DUP1 REVERT JUMPDEST PUSH2 0x12E PUSH2 0x2AA JUMP JUMPDEST STOP JUMPDEST PUSH2 0x138 PUSH2 0x383 JUMP JUMPDEST PUSH1 0x40 DUP1 MLOAD SWAP2 ISZERO ISZERO DUP3 MSTORE MLOAD SWAP1 DUP2 SWAP1 SUB PUSH1 0x20 ADD SWAP1 RETURN JUMPDEST PUSH2 0x154 PUSH2 0x393 JUMP JUMPDEST PUSH1 0x40 DUP1 MLOAD SWAP2 DUP3 MSTORE MLOAD SWAP1 DUP2 SWAP1 SUB PUSH1 0x20 ADD SWAP1 RETURN JUMPDEST PUSH2 0x154 PUSH2 0x399 JUMP JUMPDEST PUSH2 0x12E PUSH1 0x4 DUP1 CALLDATASIZE SUB PUSH1 0x20 DUP2 LT ISZERO PUSH2 0x184 JUMPI PUSH1 0x0 DUP1 REVERT JUMPDEST POP CALLDATALOAD PUSH1 0x1 PUSH1 0x1 PUSH1 0xA0 SHL SUB AND PUSH2 0x39F JUMP JUMPDEST PUSH2 0x12E PUSH2 0x477 JUMP JUMPDEST PUSH2 0x12E PUSH2 0x523 JUMP JUMPDEST PUSH2 0x12E PUSH2 0x5F9 JUMP JUMPDEST PUSH2 0x1B4 PUSH2 0x72B JUMP JUMPDEST PUSH1 0x40 DUP1 MLOAD PUSH1 0x1 PUSH1 0x1 PUSH1 0xA0 SHL SUB SWAP1 SWAP3 AND DUP3 MSTORE MLOAD SWAP1 DUP2 SWAP1 SUB PUSH1 0x20 ADD SWAP1 RETURN JUMPDEST PUSH2 0x1B4 PUSH2 0x73A JUMP JUMPDEST PUSH2 0x154 PUSH2 0x749 JUMP JUMPDEST PUSH2 0x12E PUSH1 0x4 DUP1 CALLDATASIZE SUB PUSH1 0x20 DUP2 LT ISZERO PUSH2 0x1F6 JUMPI PUSH1 0x0 DUP1 REVERT JUMPDEST POP CALLDATALOAD PUSH2 0x74F JUMP JUMPDEST PUSH2 0x12E PUSH1 0x4 DUP1 CALLDATASIZE SUB PUSH1 0x20 DUP2 LT ISZERO PUSH2 0x213 JUMPI PUSH1 0x0 DUP1 REVERT JUMPDEST POP CALLDATALOAD PUSH2 0x7B6 JUMP JUMPDEST PUSH2 0x12E PUSH1 0x4 DUP1 CALLDATASIZE SUB PUSH1 0x20 DUP2 LT ISZERO PUSH2 0x230 JUMPI PUSH1 0x0 DUP1 REVERT JUMPDEST POP CALLDATALOAD PUSH1 0x1 PUSH1 0x1 PUSH1 0xA0 SHL SUB AND PUSH2 0x8BB JUMP JUMPDEST PUSH2 0x154 PUSH2 0xA17 JUMP JUMPDEST PUSH2 0x12E PUSH1 0x4 DUP1 CALLDATASIZE SUB PUSH1 0x20 DUP2 LT ISZERO PUSH2 0x25E JUMPI PUSH1 0x0 DUP1 REVERT JUMPDEST POP CALLDATALOAD PUSH1 0x1 PUSH1 0x1 PUSH1 0xA0 SHL SUB AND PUSH2 0xA1D JUMP JUMPDEST PUSH2 0x12E PUSH1 0x4 DUP1 CALLDATASIZE SUB PUSH1 0x40 DUP2 LT ISZERO PUSH2 0x284 JUMPI PUSH1 0x0 DUP1 REVERT JUMPDEST POP PUSH1 0x1 PUSH1 0x1 PUSH1 0xA0 SHL SUB DUP2 CALLDATALOAD AND SWAP1 PUSH1 0x20 ADD CALLDATALOAD PUSH2 0xB1F JUMP JUMPDEST PUSH2 0x1B4 PUSH2 0xD79 JUMP JUMPDEST PUSH2 0x1B4 PUSH2 0xD88 JUMP JUMPDEST PUSH1 0x1 SLOAD PUSH1 0x1 PUSH1 0x1 PUSH1 0xA0 SHL SUB AND CALLER EQ PUSH2 0x300 JUMPI PUSH1 0x40 DUP1 MLOAD PUSH3 0x461BCD PUSH1 0xE5 SHL DUP2 MSTORE PUSH1 0x20 PUSH1 0x4 DUP3 ADD MSTORE PUSH1 0x14 PUSH1 0x24 DUP3 ADD MSTORE PUSH20 0x13DB9B1E4818591B5A5B881C195C9B5A5D1D1959 PUSH1 0x62 SHL PUSH1 0x44 DUP3 ADD MSTORE SWAP1 MLOAD SWAP1 DUP2 SWAP1 SUB PUSH1 0x64 ADD SWAP1 REVERT JUMPDEST PUSH2 0x308 PUSH2 0x383 JUMP JUMPDEST PUSH2 0x350 JUMPI PUSH1 0x40 DUP1 MLOAD PUSH3 0x461BCD PUSH1 0xE5 SHL DUP2 MSTORE PUSH1 0x20 PUSH1 0x4 DUP3 ADD MSTORE PUSH1 0x14 PUSH1 0x24 DUP3 ADD MSTORE PUSH20 0x14185D5CD8589B194E881B9BDD081C185D5CD959 PUSH1 0x62 SHL PUSH1 0x44 DUP3 ADD MSTORE SWAP1 MLOAD SWAP1 DUP2 SWAP1 SUB PUSH1 0x64 ADD SWAP1 REVERT JUMPDEST PUSH2 0x358 PUSH2 0xEDD JUMP JUMPDEST PUSH1 0x40 MLOAD PUSH32 0x7805862F689E2F13DF9F062FF482AD3AD112ACA9E0847911ED832E158C525B33 SWAP1 PUSH1 0x0 SWAP1 LOG1 JUMP JUMPDEST PUSH1 0x0 SLOAD PUSH1 0x1 PUSH1 0xA0 SHL SWAP1 DIV PUSH1 0xFF AND SWAP1 JUMP JUMPDEST PUSH1 0x3 SLOAD DUP2 JUMP JUMPDEST PUSH1 0x4 SLOAD DUP2 JUMP JUMPDEST PUSH2 0x3A7 PUSH2 0xF80 JUMP JUMPDEST PUSH1 0x1 PUSH1 0x1 PUSH1 0xA0 SHL SUB AND PUSH2 0x3B8 PUSH2 0x72B JUMP JUMPDEST PUSH1 0x1 PUSH1 0x1 PUSH1 0xA0 SHL SUB AND EQ PUSH2 0x401 JUMPI PUSH1 0x40 DUP1 MLOAD PUSH3 0x461BCD PUSH1 0xE5 SHL DUP2 MSTORE PUSH1 0x20 PUSH1 0x4 DUP3 ADD DUP2 SWAP1 MSTORE PUSH1 0x24 DUP3 ADD MSTORE PUSH1 0x0 DUP1 MLOAD PUSH1 0x20 PUSH2 0x142C DUP4 CODECOPY DUP2 MLOAD SWAP2 MSTORE PUSH1 0x44 DUP3 ADD MSTORE SWAP1 MLOAD SWAP1 DUP2 SWAP1 SUB PUSH1 0x64 ADD SWAP1 REVERT JUMPDEST PUSH1 0x1 PUSH1 0x1 PUSH1 0xA0 SHL SUB DUP2 AND PUSH2 0x455 JUMPI PUSH1 0x40 DUP1 MLOAD PUSH3 0x461BCD PUSH1 0xE5 SHL DUP2 MSTORE PUSH1 0x20 PUSH1 0x4 DUP3 ADD MSTORE PUSH1 0x16 PUSH1 0x24 DUP3 ADD MSTORE PUSH22 0x43616E6E6F74206265207A65726F2061646472657373 PUSH1 0x50 SHL PUSH1 0x44 DUP3 ADD MSTORE SWAP1 MLOAD SWAP1 DUP2 SWAP1 SUB PUSH1 0x64 ADD SWAP1 REVERT JUMPDEST PUSH1 0x1 DUP1 SLOAD PUSH1 0x1 PUSH1 0x1 PUSH1 0xA0 SHL SUB NOT AND PUSH1 0x1 PUSH1 0x1 PUSH1 0xA0 SHL SUB SWAP3 SWAP1 SWAP3 AND SWAP2 SWAP1 SWAP2 OR SWAP1 SSTORE JUMP JUMPDEST PUSH2 0x47F PUSH2 0xF80 JUMP JUMPDEST PUSH1 0x1 PUSH1 0x1 PUSH1 0xA0 SHL SUB AND PUSH2 0x490 PUSH2 0x72B JUMP JUMPDEST PUSH1 0x1 PUSH1 0x1 PUSH1 0xA0 SHL SUB AND EQ PUSH2 0x4D9 JUMPI PUSH1 0x40 DUP1 MLOAD PUSH3 0x461BCD PUSH1 0xE5 SHL DUP2 MSTORE PUSH1 0x20 PUSH1 0x4 DUP3 ADD DUP2 SWAP1 MSTORE PUSH1 0x24 DUP3 ADD MSTORE PUSH1 0x0 DUP1 MLOAD PUSH1 0x20 PUSH2 0x142C DUP4 CODECOPY DUP2 MLOAD SWAP2 MSTORE PUSH1 0x44 DUP3 ADD MSTORE SWAP1 MLOAD SWAP1 DUP2 SWAP1 SUB PUSH1 0x64 ADD SWAP1 REVERT JUMPDEST PUSH1 0x0 DUP1 SLOAD PUSH1 0x40 MLOAD PUSH1 0x1 PUSH1 0x1 PUSH1 0xA0 SHL SUB SWAP1 SWAP2 AND SWAP1 PUSH32 0x8BE0079C531659141344CD1FD0A4F28419497F9722A3DAAFE3B4186F6B6457E0 SWAP1 DUP4 SWAP1 LOG3 PUSH1 0x0 DUP1 SLOAD PUSH1 0x1 PUSH1 0x1 PUSH1 0xA0 SHL SUB NOT AND SWAP1 SSTORE JUMP JUMPDEST PUSH1 0x1 SLOAD PUSH1 0x1 PUSH1 0x1 PUSH1 0xA0 SHL SUB AND CALLER EQ PUSH2 0x579 JUMPI PUSH1 0x40 DUP1 MLOAD PUSH3 0x461BCD PUSH1 0xE5 SHL DUP2 MSTORE PUSH1 0x20 PUSH1 0x4 DUP3 ADD MSTORE PUSH1 0x14 PUSH1 0x24 DUP3 ADD MSTORE PUSH20 0x13DB9B1E4818591B5A5B881C195C9B5A5D1D1959 PUSH1 0x62 SHL PUSH1 0x44 DUP3 ADD MSTORE SWAP1 MLOAD SWAP1 DUP2 SWAP1 SUB PUSH1 0x64 ADD SWAP1 REVERT JUMPDEST PUSH2 0x581 PUSH2 0x383 JUMP JUMPDEST ISZERO PUSH2 0x5C6 JUMPI PUSH1 0x40 DUP1 MLOAD PUSH3 0x461BCD PUSH1 0xE5 SHL DUP2 MSTORE PUSH1 0x20 PUSH1 0x4 DUP3 ADD MSTORE PUSH1 0x10 PUSH1 0x24 DUP3 ADD MSTORE PUSH16 0x14185D5CD8589B194E881C185D5CD959 PUSH1 0x82 SHL PUSH1 0x44 DUP3 ADD MSTORE SWAP1 MLOAD SWAP1 DUP2 SWAP1 SUB PUSH1 0x64 ADD SWAP1 REVERT JUMPDEST PUSH2 0x5CE PUSH2 0xF84 JUMP JUMPDEST PUSH1 0x40 MLOAD PUSH32 0x6985A02210A168E66602D3235CB6DB0E70F92B3BA4D376A33C0F3D9434BFF625 SWAP1 PUSH1 0x0 SWAP1 LOG1 JUMP JUMPDEST PUSH2 0x601 PUSH2 0xF80 JUMP JUMPDEST PUSH1 0x1 PUSH1 0x1 PUSH1 0xA0 SHL SUB AND PUSH2 0x612 PUSH2 0x72B JUMP JUMPDEST PUSH1 0x1 PUSH1 0x1 PUSH1 0xA0 SHL SUB AND EQ PUSH2 0x65B JUMPI PUSH1 0x40 DUP1 MLOAD PUSH3 0x461BCD PUSH1 0xE5 SHL DUP2 MSTORE PUSH1 0x20 PUSH1 0x4 DUP3 ADD DUP2 SWAP1 MSTORE PUSH1 0x24 DUP3 ADD MSTORE PUSH1 0x0 DUP1 MLOAD PUSH1 0x20 PUSH2 0x142C DUP4 CODECOPY DUP2 MLOAD SWAP2 MSTORE PUSH1 0x44 DUP3 ADD MSTORE SWAP1 MLOAD SWAP1 DUP2 SWAP1 SUB PUSH1 0x64 ADD SWAP1 REVERT JUMPDEST PUSH2 0x729 CALLER PUSH32 0x0 PUSH1 0x1 PUSH1 0x1 PUSH1 0xA0 SHL SUB AND PUSH4 0x70A08231 ADDRESS PUSH1 0x40 MLOAD DUP3 PUSH4 0xFFFFFFFF AND PUSH1 0xE0 SHL DUP2 MSTORE PUSH1 0x4 ADD DUP1 DUP3 PUSH1 0x1 PUSH1 0x1 PUSH1 0xA0 SHL SUB AND DUP2 MSTORE PUSH1 0x20 ADD SWAP2 POP POP PUSH1 0x20 PUSH1 0x40 MLOAD DUP1 DUP4 SUB DUP2 DUP7 DUP1 EXTCODESIZE ISZERO DUP1 ISZERO PUSH2 0x6CC JUMPI PUSH1 0x0 DUP1 REVERT JUMPDEST POP GAS STATICCALL ISZERO DUP1 ISZERO PUSH2 0x6E0 JUMPI RETURNDATASIZE PUSH1 0x0 DUP1 RETURNDATACOPY RETURNDATASIZE PUSH1 0x0 REVERT JUMPDEST POP POP POP POP PUSH1 0x40 MLOAD RETURNDATASIZE PUSH1 0x20 DUP2 LT ISZERO PUSH2 0x6F6 JUMPI PUSH1 0x0 DUP1 REVERT JUMPDEST POP MLOAD PUSH1 0x1 PUSH1 0x1 PUSH1 0xA0 SHL SUB PUSH32 0x0 AND SWAP2 SWAP1 PUSH2 0x100D JUMP JUMPDEST JUMP JUMPDEST PUSH1 0x0 SLOAD PUSH1 0x1 PUSH1 0x1 PUSH1 0xA0 SHL SUB AND SWAP1 JUMP JUMPDEST PUSH1 0x2 SLOAD PUSH1 0x1 PUSH1 0x1 PUSH1 0xA0 SHL SUB AND DUP2 JUMP JUMPDEST PUSH1 0x3 SLOAD SWAP1 JUMP JUMPDEST PUSH2 0x757 PUSH2 0xF80 JUMP JUMPDEST PUSH1 0x1 PUSH1 0x1 PUSH1 0xA0 SHL SUB AND PUSH2 0x768 PUSH2 0x72B JUMP JUMPDEST PUSH1 0x1 PUSH1 0x1 PUSH1 0xA0 SHL SUB AND EQ PUSH2 0x7B1 JUMPI PUSH1 0x40 DUP1 MLOAD PUSH3 0x461BCD PUSH1 0xE5 SHL DUP2 MSTORE PUSH1 0x20 PUSH1 0x4 DUP3 ADD DUP2 SWAP1 MSTORE PUSH1 0x24 DUP3 ADD MSTORE PUSH1 0x0 DUP1 MLOAD PUSH1 0x20 PUSH2 0x142C DUP4 CODECOPY DUP2 MLOAD SWAP2 MSTORE PUSH1 0x44 DUP3 ADD MSTORE SWAP1 MLOAD SWAP1 DUP2 SWAP1 SUB PUSH1 0x64 ADD SWAP1 REVERT JUMPDEST PUSH1 0x3 SSTORE JUMP JUMPDEST PUSH2 0x7BE PUSH2 0x383 JUMP JUMPDEST ISZERO PUSH2 0x803 JUMPI PUSH1 0x40 DUP1 MLOAD PUSH3 0x461BCD PUSH1 0xE5 SHL DUP2 MSTORE PUSH1 0x20 PUSH1 0x4 DUP3 ADD MSTORE PUSH1 0x10 PUSH1 0x24 DUP3 ADD MSTORE PUSH16 0x14185D5CD8589B194E881C185D5CD959 PUSH1 0x82 SHL PUSH1 0x44 DUP3 ADD MSTORE SWAP1 MLOAD SWAP1 DUP2 SWAP1 SUB PUSH1 0x64 ADD SWAP1 REVERT JUMPDEST PUSH1 0x0 DUP2 GT PUSH2 0x84D JUMPI PUSH1 0x40 DUP1 MLOAD PUSH3 0x461BCD PUSH1 0xE5 SHL DUP2 MSTORE PUSH1 0x20 PUSH1 0x4 DUP3 ADD MSTORE PUSH1 0x12 PUSH1 0x24 DUP3 ADD MSTORE PUSH18 0x139BDD1A1A5B99C81D1BC819195C1BDCDA5D PUSH1 0x72 SHL PUSH1 0x44 DUP3 ADD MSTORE SWAP1 MLOAD SWAP1 DUP2 SWAP1 SUB PUSH1 0x64 ADD SWAP1 REVERT JUMPDEST PUSH2 0x882 PUSH1 0x1 PUSH1 0x1 PUSH1 0xA0 SHL SUB PUSH32 0x0 AND CALLER ADDRESS DUP5 PUSH2 0x105F JUMP JUMPDEST PUSH1 0x40 DUP1 MLOAD DUP3 DUP2 MSTORE SWAP1 MLOAD CALLER SWAP2 PUSH32 0xE1FFFCC4923D04B559F4D29A8BFC6CDA04EB5B0D3C460751C2402C5C5CC9109C SWAP2 SWAP1 DUP2 SWAP1 SUB PUSH1 0x20 ADD SWAP1 LOG2 POP JUMP JUMPDEST PUSH1 0x1 SLOAD PUSH1 0x1 PUSH1 0x1 PUSH1 0xA0 SHL SUB AND CALLER EQ PUSH2 0x911 JUMPI PUSH1 0x40 DUP1 MLOAD PUSH3 0x461BCD PUSH1 0xE5 SHL DUP2 MSTORE PUSH1 0x20 PUSH1 0x4 DUP3 ADD MSTORE PUSH1 0x14 PUSH1 0x24 DUP3 ADD MSTORE PUSH20 0x13DB9B1E4818591B5A5B881C195C9B5A5D1D1959 PUSH1 0x62 SHL PUSH1 0x44 DUP3 ADD MSTORE SWAP1 MLOAD SWAP1 DUP2 SWAP1 SUB PUSH1 0x64 ADD SWAP1 REVERT JUMPDEST PUSH32 0x0 PUSH1 0x1 PUSH1 0x1 PUSH1 0xA0 SHL SUB AND DUP2 PUSH1 0x1 PUSH1 0x1 PUSH1 0xA0 SHL SUB AND EQ ISZERO PUSH2 0x982 JUMPI PUSH1 0x40 MLOAD PUSH3 0x461BCD PUSH1 0xE5 SHL DUP2 MSTORE PUSH1 0x4 ADD DUP1 DUP1 PUSH1 0x20 ADD DUP3 DUP2 SUB DUP3 MSTORE PUSH1 0x28 DUP2 MSTORE PUSH1 0x20 ADD DUP1 PUSH2 0x144C PUSH1 0x28 SWAP2 CODECOPY PUSH1 0x40 ADD SWAP2 POP POP PUSH1 0x40 MLOAD DUP1 SWAP2 SUB SWAP1 REVERT JUMPDEST PUSH1 0x0 DUP2 PUSH1 0x1 PUSH1 0x1 PUSH1 0xA0 SHL SUB AND PUSH4 0x70A08231 ADDRESS PUSH1 0x40 MLOAD DUP3 PUSH4 0xFFFFFFFF AND PUSH1 0xE0 SHL DUP2 MSTORE PUSH1 0x4 ADD DUP1 DUP3 PUSH1 0x1 PUSH1 0x1 PUSH1 0xA0 SHL SUB AND DUP2 MSTORE PUSH1 0x20 ADD SWAP2 POP POP PUSH1 0x20 PUSH1 0x40 MLOAD DUP1 DUP4 SUB DUP2 DUP7 DUP1 EXTCODESIZE ISZERO DUP1 ISZERO PUSH2 0x9D1 JUMPI PUSH1 0x0 DUP1 REVERT JUMPDEST POP GAS STATICCALL ISZERO DUP1 ISZERO PUSH2 0x9E5 JUMPI RETURNDATASIZE PUSH1 0x0 DUP1 RETURNDATACOPY RETURNDATASIZE PUSH1 0x0 REVERT JUMPDEST POP POP POP POP PUSH1 0x40 MLOAD RETURNDATASIZE PUSH1 0x20 DUP2 LT ISZERO PUSH2 0x9FB JUMPI PUSH1 0x0 DUP1 REVERT JUMPDEST POP MLOAD SWAP1 POP PUSH2 0xA13 PUSH1 0x1 PUSH1 0x1 PUSH1 0xA0 SHL SUB DUP4 AND CALLER DUP4 PUSH2 0x100D JUMP JUMPDEST POP POP JUMP JUMPDEST PUSH1 0x5 SLOAD DUP2 JUMP JUMPDEST PUSH2 0xA25 PUSH2 0xF80 JUMP JUMPDEST PUSH1 0x1 PUSH1 0x1 PUSH1 0xA0 SHL SUB AND PUSH2 0xA36 PUSH2 0x72B JUMP JUMPDEST PUSH1 0x1 PUSH1 0x1 PUSH1 0xA0 SHL SUB AND EQ PUSH2 0xA7F JUMPI PUSH1 0x40 DUP1 MLOAD PUSH3 0x461BCD PUSH1 0xE5 SHL DUP2 MSTORE PUSH1 0x20 PUSH1 0x4 DUP3 ADD DUP2 SWAP1 MSTORE PUSH1 0x24 DUP3 ADD MSTORE PUSH1 0x0 DUP1 MLOAD PUSH1 0x20 PUSH2 0x142C DUP4 CODECOPY DUP2 MLOAD SWAP2 MSTORE PUSH1 0x44 DUP3 ADD MSTORE SWAP1 MLOAD SWAP1 DUP2 SWAP1 SUB PUSH1 0x64 ADD SWAP1 REVERT JUMPDEST PUSH1 0x1 PUSH1 0x1 PUSH1 0xA0 SHL SUB DUP2 AND PUSH2 0xAC4 JUMPI PUSH1 0x40 MLOAD PUSH3 0x461BCD PUSH1 0xE5 SHL DUP2 MSTORE PUSH1 0x4 ADD DUP1 DUP1 PUSH1 0x20 ADD DUP3 DUP2 SUB DUP3 MSTORE PUSH1 0x26 DUP2 MSTORE PUSH1 0x20 ADD DUP1 PUSH2 0x13E0 PUSH1 0x26 SWAP2 CODECOPY PUSH1 0x40 ADD SWAP2 POP POP PUSH1 0x40 MLOAD DUP1 SWAP2 SUB SWAP1 REVERT JUMPDEST PUSH1 0x0 DUP1 SLOAD PUSH1 0x40 MLOAD PUSH1 0x1 PUSH1 0x1 PUSH1 0xA0 SHL SUB DUP1 DUP6 AND SWAP4 SWAP3 AND SWAP2 PUSH32 0x8BE0079C531659141344CD1FD0A4F28419497F9722A3DAAFE3B4186F6B6457E0 SWAP2 LOG3 PUSH1 0x0 DUP1 SLOAD PUSH1 0x1 PUSH1 0x1 PUSH1 0xA0 SHL SUB NOT AND PUSH1 0x1 PUSH1 0x1 PUSH1 0xA0 SHL SUB SWAP3 SWAP1 SWAP3 AND SWAP2 SWAP1 SWAP2 OR SWAP1 SSTORE JUMP JUMPDEST PUSH2 0xB27 PUSH2 0x383 JUMP JUMPDEST ISZERO PUSH2 0xB6C JUMPI PUSH1 0x40 DUP1 MLOAD PUSH3 0x461BCD PUSH1 0xE5 SHL DUP2 MSTORE PUSH1 0x20 PUSH1 0x4 DUP3 ADD MSTORE PUSH1 0x10 PUSH1 0x24 DUP3 ADD MSTORE PUSH16 0x14185D5CD8589B194E881C185D5CD959 PUSH1 0x82 SHL PUSH1 0x44 DUP3 ADD MSTORE SWAP1 MLOAD SWAP1 DUP2 SWAP1 SUB PUSH1 0x64 ADD SWAP1 REVERT JUMPDEST PUSH1 0x2 SLOAD PUSH1 0x1 PUSH1 0x1 PUSH1 0xA0 SHL SUB AND CALLER EQ PUSH2 0xBCB JUMPI PUSH1 0x40 DUP1 MLOAD PUSH3 0x461BCD PUSH1 0xE5 SHL DUP2 MSTORE PUSH1 0x20 PUSH1 0x4 DUP3 ADD MSTORE PUSH1 0x19 PUSH1 0x24 DUP3 ADD MSTORE PUSH32 0x4E6F7420616E20617574686F7269736564207370656E64657200000000000000 PUSH1 0x44 DUP3 ADD MSTORE SWAP1 MLOAD SWAP1 DUP2 SWAP1 SUB PUSH1 0x64 ADD SWAP1 REVERT JUMPDEST PUSH1 0x0 DUP2 GT PUSH2 0xC16 JUMPI PUSH1 0x40 DUP1 MLOAD PUSH3 0x461BCD PUSH1 0xE5 SHL DUP2 MSTORE PUSH1 0x20 PUSH1 0x4 DUP3 ADD MSTORE PUSH1 0x13 PUSH1 0x24 DUP3 ADD MSTORE PUSH19 0x4E6F7468696E6720746F207769746864726177 PUSH1 0x68 SHL PUSH1 0x44 DUP3 ADD MSTORE SWAP1 MLOAD SWAP1 DUP2 SWAP1 SUB PUSH1 0x64 ADD SWAP1 REVERT JUMPDEST DUP1 PUSH32 0x0 PUSH1 0x1 PUSH1 0x1 PUSH1 0xA0 SHL SUB AND PUSH4 0x70A08231 ADDRESS PUSH1 0x40 MLOAD DUP3 PUSH4 0xFFFFFFFF AND PUSH1 0xE0 SHL DUP2 MSTORE PUSH1 0x4 ADD DUP1 DUP3 PUSH1 0x1 PUSH1 0x1 PUSH1 0xA0 SHL SUB AND DUP2 MSTORE PUSH1 0x20 ADD SWAP2 POP POP PUSH1 0x20 PUSH1 0x40 MLOAD DUP1 DUP4 SUB DUP2 DUP7 DUP1 EXTCODESIZE ISZERO DUP1 ISZERO PUSH2 0xC84 JUMPI PUSH1 0x0 DUP1 REVERT JUMPDEST POP GAS STATICCALL ISZERO DUP1 ISZERO PUSH2 0xC98 JUMPI RETURNDATASIZE PUSH1 0x0 DUP1 RETURNDATACOPY RETURNDATASIZE PUSH1 0x0 REVERT JUMPDEST POP POP POP POP PUSH1 0x40 MLOAD RETURNDATASIZE PUSH1 0x20 DUP2 LT ISZERO PUSH2 0xCAE JUMPI PUSH1 0x0 DUP1 REVERT JUMPDEST POP MLOAD GT PUSH2 0xCEC JUMPI PUSH1 0x40 MLOAD PUSH3 0x461BCD PUSH1 0xE5 SHL DUP2 MSTORE PUSH1 0x4 ADD DUP1 DUP1 PUSH1 0x20 ADD DUP3 DUP2 SUB DUP3 MSTORE PUSH1 0x21 DUP2 MSTORE PUSH1 0x20 ADD DUP1 PUSH2 0x13BF PUSH1 0x21 SWAP2 CODECOPY PUSH1 0x40 ADD SWAP2 POP POP PUSH1 0x40 MLOAD DUP1 SWAP2 SUB SWAP1 REVERT JUMPDEST PUSH2 0xCF5 DUP2 PUSH2 0x10BF JUMP JUMPDEST ISZERO PUSH2 0xD36 JUMPI PUSH1 0x5 DUP1 SLOAD DUP3 ADD SWAP1 SSTORE PUSH2 0xD36 PUSH1 0x1 PUSH1 0x1 PUSH1 0xA0 SHL SUB PUSH32 0x0 AND DUP4 DUP4 PUSH2 0x100D JUMP JUMPDEST PUSH1 0x40 DUP1 MLOAD DUP3 DUP2 MSTORE SWAP1 MLOAD PUSH1 0x1 PUSH1 0x1 PUSH1 0xA0 SHL SUB DUP5 AND SWAP2 PUSH32 0x884EDAD9CE6FA2440D8A54CC123490EB96D2768479D49FF9C7366125A9424364 SWAP2 SWAP1 DUP2 SWAP1 SUB PUSH1 0x20 ADD SWAP1 LOG2 POP POP JUMP JUMPDEST PUSH1 0x1 SLOAD PUSH1 0x1 PUSH1 0x1 PUSH1 0xA0 SHL SUB AND DUP2 JUMP JUMPDEST PUSH32 0x0 DUP2 JUMP JUMPDEST DUP1 ISZERO DUP1 PUSH2 0xE32 JUMPI POP PUSH1 0x40 DUP1 MLOAD PUSH4 0x6EB1769F PUSH1 0xE1 SHL DUP2 MSTORE ADDRESS PUSH1 0x4 DUP3 ADD MSTORE PUSH1 0x1 PUSH1 0x1 PUSH1 0xA0 SHL SUB DUP5 DUP2 AND PUSH1 0x24 DUP4 ADD MSTORE SWAP2 MLOAD SWAP2 DUP6 AND SWAP2 PUSH4 0xDD62ED3E SWAP2 PUSH1 0x44 DUP1 DUP3 ADD SWAP3 PUSH1 0x20 SWAP3 SWAP1 SWAP2 SWAP1 DUP3 SWAP1 SUB ADD DUP2 DUP7 DUP1 EXTCODESIZE ISZERO DUP1 ISZERO PUSH2 0xE04 JUMPI PUSH1 0x0 DUP1 REVERT JUMPDEST POP GAS STATICCALL ISZERO DUP1 ISZERO PUSH2 0xE18 JUMPI RETURNDATASIZE PUSH1 0x0 DUP1 RETURNDATACOPY RETURNDATASIZE PUSH1 0x0 REVERT JUMPDEST POP POP POP POP PUSH1 0x40 MLOAD RETURNDATASIZE PUSH1 0x20 DUP2 LT ISZERO PUSH2 0xE2E JUMPI PUSH1 0x0 DUP1 REVERT JUMPDEST POP MLOAD ISZERO JUMPDEST PUSH2 0xE6D JUMPI PUSH1 0x40 MLOAD PUSH3 0x461BCD PUSH1 0xE5 SHL DUP2 MSTORE PUSH1 0x4 ADD DUP1 DUP1 PUSH1 0x20 ADD DUP3 DUP2 SUB DUP3 MSTORE PUSH1 0x36 DUP2 MSTORE PUSH1 0x20 ADD DUP1 PUSH2 0x149E PUSH1 0x36 SWAP2 CODECOPY PUSH1 0x40 ADD SWAP2 POP POP PUSH1 0x40 MLOAD DUP1 SWAP2 SUB SWAP1 REVERT JUMPDEST PUSH1 0x40 DUP1 MLOAD PUSH1 0x1 PUSH1 0x1 PUSH1 0xA0 SHL SUB DUP5 AND PUSH1 0x24 DUP3 ADD MSTORE PUSH1 0x44 DUP1 DUP3 ADD DUP5 SWAP1 MSTORE DUP3 MLOAD DUP1 DUP4 SUB SWAP1 SWAP2 ADD DUP2 MSTORE PUSH1 0x64 SWAP1 SWAP2 ADD SWAP1 SWAP2 MSTORE PUSH1 0x20 DUP2 ADD DUP1 MLOAD PUSH1 0x1 PUSH1 0x1 PUSH1 0xE0 SHL SUB AND PUSH4 0x95EA7B3 PUSH1 0xE0 SHL OR SWAP1 MSTORE PUSH2 0xEBF SWAP1 DUP5 SWAP1 PUSH2 0x1107 JUMP JUMPDEST POP POP POP JUMP JUMPDEST PUSH1 0x60 PUSH2 0xED3 DUP5 DUP5 PUSH1 0x0 DUP6 PUSH2 0x11B8 JUMP JUMPDEST SWAP1 POP JUMPDEST SWAP4 SWAP3 POP POP POP JUMP JUMPDEST PUSH2 0xEE5 PUSH2 0x383 JUMP JUMPDEST PUSH2 0xF2D JUMPI PUSH1 0x40 DUP1 MLOAD PUSH3 0x461BCD PUSH1 0xE5 SHL DUP2 MSTORE PUSH1 0x20 PUSH1 0x4 DUP3 ADD MSTORE PUSH1 0x14 PUSH1 0x24 DUP3 ADD MSTORE PUSH20 0x14185D5CD8589B194E881B9BDD081C185D5CD959 PUSH1 0x62 SHL PUSH1 0x44 DUP3 ADD MSTORE SWAP1 MLOAD SWAP1 DUP2 SWAP1 SUB PUSH1 0x64 ADD SWAP1 REVERT JUMPDEST PUSH1 0x0 DUP1 SLOAD PUSH1 0xFF PUSH1 0xA0 SHL NOT AND SWAP1 SSTORE PUSH32 0x5DB9EE0A495BF2E6FF9C91A7834C1BA4FDD244A5E8AA4E537BD38AEAE4B073AA PUSH2 0xF63 PUSH2 0xF80 JUMP JUMPDEST PUSH1 0x40 DUP1 MLOAD PUSH1 0x1 PUSH1 0x1 PUSH1 0xA0 SHL SUB SWAP1 SWAP3 AND DUP3 MSTORE MLOAD SWAP1 DUP2 SWAP1 SUB PUSH1 0x20 ADD SWAP1 LOG1 JUMP JUMPDEST CALLER SWAP1 JUMP JUMPDEST PUSH2 0xF8C PUSH2 0x383 JUMP JUMPDEST ISZERO PUSH2 0xFD1 JUMPI PUSH1 0x40 DUP1 MLOAD PUSH3 0x461BCD PUSH1 0xE5 SHL DUP2 MSTORE PUSH1 0x20 PUSH1 0x4 DUP3 ADD MSTORE PUSH1 0x10 PUSH1 0x24 DUP3 ADD MSTORE PUSH16 0x14185D5CD8589B194E881C185D5CD959 PUSH1 0x82 SHL PUSH1 0x44 DUP3 ADD MSTORE SWAP1 MLOAD SWAP1 DUP2 SWAP1 SUB PUSH1 0x64 ADD SWAP1 REVERT JUMPDEST PUSH1 0x0 DUP1 SLOAD PUSH1 0xFF PUSH1 0xA0 SHL NOT AND PUSH1 0x1 PUSH1 0xA0 SHL OR SWAP1 SSTORE PUSH32 0x62E78CEA01BEE320CD4E420270B5EA74000D11B0C9F74754EBDBFC544B05A258 PUSH2 0xF63 PUSH2 0xF80 JUMP JUMPDEST PUSH1 0x40 DUP1 MLOAD PUSH1 0x1 PUSH1 0x1 PUSH1 0xA0 SHL SUB DUP5 AND PUSH1 0x24 DUP3 ADD MSTORE PUSH1 0x44 DUP1 DUP3 ADD DUP5 SWAP1 MSTORE DUP3 MLOAD DUP1 DUP4 SUB SWAP1 SWAP2 ADD DUP2 MSTORE PUSH1 0x64 SWAP1 SWAP2 ADD SWAP1 SWAP2 MSTORE PUSH1 0x20 DUP2 ADD DUP1 MLOAD PUSH1 0x1 PUSH1 0x1 PUSH1 0xE0 SHL SUB AND PUSH4 0xA9059CBB PUSH1 0xE0 SHL OR SWAP1 MSTORE PUSH2 0xEBF SWAP1 DUP5 SWAP1 PUSH2 0x1107 JUMP JUMPDEST PUSH1 0x40 DUP1 MLOAD PUSH1 0x1 PUSH1 0x1 PUSH1 0xA0 SHL SUB DUP1 DUP7 AND PUSH1 0x24 DUP4 ADD MSTORE DUP5 AND PUSH1 0x44 DUP3 ADD MSTORE PUSH1 0x64 DUP1 DUP3 ADD DUP5 SWAP1 MSTORE DUP3 MLOAD DUP1 DUP4 SUB SWAP1 SWAP2 ADD DUP2 MSTORE PUSH1 0x84 SWAP1 SWAP2 ADD SWAP1 SWAP2 MSTORE PUSH1 0x20 DUP2 ADD DUP1 MLOAD PUSH1 0x1 PUSH1 0x1 PUSH1 0xE0 SHL SUB AND PUSH4 0x23B872DD PUSH1 0xE0 SHL OR SWAP1 MSTORE PUSH2 0x10B9 SWAP1 DUP6 SWAP1 PUSH2 0x1107 JUMP JUMPDEST POP POP POP POP JUMP JUMPDEST PUSH1 0x0 PUSH1 0x4 SLOAD PUSH3 0x15180 ADD TIMESTAMP GT ISZERO PUSH2 0x10DA JUMPI TIMESTAMP PUSH1 0x4 SSTORE PUSH1 0x0 PUSH1 0x5 SSTORE JUMPDEST PUSH1 0x3 SLOAD DUP3 PUSH1 0x5 SLOAD ADD GT DUP1 PUSH2 0x10F1 JUMPI POP PUSH1 0x5 SLOAD DUP3 DUP2 ADD LT JUMPDEST ISZERO PUSH2 0x10FE JUMPI POP PUSH1 0x0 PUSH2 0x1102 JUMP JUMPDEST POP PUSH1 0x1 JUMPDEST SWAP2 SWAP1 POP JUMP JUMPDEST PUSH1 0x60 PUSH2 0x115C DUP3 PUSH1 0x40 MLOAD DUP1 PUSH1 0x40 ADD PUSH1 0x40 MSTORE DUP1 PUSH1 0x20 DUP2 MSTORE PUSH1 0x20 ADD PUSH32 0x5361666545524332303A206C6F772D6C6576656C2063616C6C206661696C6564 DUP2 MSTORE POP DUP6 PUSH1 0x1 PUSH1 0x1 PUSH1 0xA0 SHL SUB AND PUSH2 0xEC4 SWAP1 SWAP3 SWAP2 SWAP1 PUSH4 0xFFFFFFFF AND JUMP JUMPDEST DUP1 MLOAD SWAP1 SWAP2 POP ISZERO PUSH2 0xEBF JUMPI DUP1 DUP1 PUSH1 0x20 ADD SWAP1 MLOAD PUSH1 0x20 DUP2 LT ISZERO PUSH2 0x117B JUMPI PUSH1 0x0 DUP1 REVERT JUMPDEST POP MLOAD PUSH2 0xEBF JUMPI PUSH1 0x40 MLOAD PUSH3 0x461BCD PUSH1 0xE5 SHL DUP2 MSTORE PUSH1 0x4 ADD DUP1 DUP1 PUSH1 0x20 ADD DUP3 DUP2 SUB DUP3 MSTORE PUSH1 0x2A DUP2 MSTORE PUSH1 0x20 ADD DUP1 PUSH2 0x1474 PUSH1 0x2A SWAP2 CODECOPY PUSH1 0x40 ADD SWAP2 POP POP PUSH1 0x40 MLOAD DUP1 SWAP2 SUB SWAP1 REVERT JUMPDEST PUSH1 0x60 DUP3 SELFBALANCE LT ISZERO PUSH2 0x11F9 JUMPI PUSH1 0x40 MLOAD PUSH3 0x461BCD PUSH1 0xE5 SHL DUP2 MSTORE PUSH1 0x4 ADD DUP1 DUP1 PUSH1 0x20 ADD DUP3 DUP2 SUB DUP3 MSTORE PUSH1 0x26 DUP2 MSTORE PUSH1 0x20 ADD DUP1 PUSH2 0x1406 PUSH1 0x26 SWAP2 CODECOPY PUSH1 0x40 ADD SWAP2 POP POP PUSH1 0x40 MLOAD DUP1 SWAP2 SUB SWAP1 REVERT JUMPDEST PUSH2 0x1202 DUP6 PUSH2 0x1314 JUMP JUMPDEST PUSH2 0x1253 JUMPI PUSH1 0x40 DUP1 MLOAD PUSH3 0x461BCD PUSH1 0xE5 SHL DUP2 MSTORE PUSH1 0x20 PUSH1 0x4 DUP3 ADD MSTORE PUSH1 0x1D PUSH1 0x24 DUP3 ADD MSTORE PUSH32 0x416464726573733A2063616C6C20746F206E6F6E2D636F6E7472616374000000 PUSH1 0x44 DUP3 ADD MSTORE SWAP1 MLOAD SWAP1 DUP2 SWAP1 SUB PUSH1 0x64 ADD SWAP1 REVERT JUMPDEST PUSH1 0x0 PUSH1 0x60 DUP7 PUSH1 0x1 PUSH1 0x1 PUSH1 0xA0 SHL SUB AND DUP6 DUP8 PUSH1 0x40 MLOAD DUP1 DUP3 DUP1 MLOAD SWAP1 PUSH1 0x20 ADD SWAP1 DUP1 DUP4 DUP4 JUMPDEST PUSH1 0x20 DUP4 LT PUSH2 0x1292 JUMPI DUP1 MLOAD DUP3 MSTORE PUSH1 0x1F NOT SWAP1 SWAP3 ADD SWAP2 PUSH1 0x20 SWAP2 DUP3 ADD SWAP2 ADD PUSH2 0x1273 JUMP JUMPDEST PUSH1 0x1 DUP4 PUSH1 0x20 SUB PUSH2 0x100 EXP SUB DUP1 NOT DUP3 MLOAD AND DUP2 DUP5 MLOAD AND DUP1 DUP3 OR DUP6 MSTORE POP POP POP POP POP POP SWAP1 POP ADD SWAP2 POP POP PUSH1 0x0 PUSH1 0x40 MLOAD DUP1 DUP4 SUB DUP2 DUP6 DUP8 GAS CALL SWAP3 POP POP POP RETURNDATASIZE DUP1 PUSH1 0x0 DUP2 EQ PUSH2 0x12F4 JUMPI PUSH1 0x40 MLOAD SWAP2 POP PUSH1 0x1F NOT PUSH1 0x3F RETURNDATASIZE ADD AND DUP3 ADD PUSH1 0x40 MSTORE RETURNDATASIZE DUP3 MSTORE RETURNDATASIZE PUSH1 0x0 PUSH1 0x20 DUP5 ADD RETURNDATACOPY PUSH2 0x12F9 JUMP JUMPDEST PUSH1 0x60 SWAP2 POP JUMPDEST POP SWAP2 POP SWAP2 POP PUSH2 0x1309 DUP3 DUP3 DUP7 PUSH2 0x131A JUMP JUMPDEST SWAP8 SWAP7 POP POP POP POP POP POP POP JUMP JUMPDEST EXTCODESIZE ISZERO ISZERO SWAP1 JUMP JUMPDEST PUSH1 0x60 DUP4 ISZERO PUSH2 0x1329 JUMPI POP DUP2 PUSH2 0xED6 JUMP JUMPDEST DUP3 MLOAD ISZERO PUSH2 0x1339 JUMPI DUP3 MLOAD DUP1 DUP5 PUSH1 0x20 ADD REVERT JUMPDEST DUP2 PUSH1 0x40 MLOAD PUSH3 0x461BCD PUSH1 0xE5 SHL DUP2 MSTORE PUSH1 0x4 ADD DUP1 DUP1 PUSH1 0x20 ADD DUP3 DUP2 SUB DUP3 MSTORE DUP4 DUP2 DUP2 MLOAD DUP2 MSTORE PUSH1 0x20 ADD SWAP2 POP DUP1 MLOAD SWAP1 PUSH1 0x20 ADD SWAP1 DUP1 DUP4 DUP4 PUSH1 0x0 JUMPDEST DUP4 DUP2 LT ISZERO PUSH2 0x1383 JUMPI DUP2 DUP2 ADD MLOAD DUP4 DUP3 ADD MSTORE PUSH1 0x20 ADD PUSH2 0x136B JUMP JUMPDEST POP POP POP POP SWAP1 POP SWAP1 DUP2 ADD SWAP1 PUSH1 0x1F AND DUP1 ISZERO PUSH2 0x13B0 JUMPI DUP1 DUP3 SUB DUP1 MLOAD PUSH1 0x1 DUP4 PUSH1 0x20 SUB PUSH2 0x100 EXP SUB NOT AND DUP2 MSTORE PUSH1 0x20 ADD SWAP2 POP JUMPDEST POP SWAP3 POP POP POP PUSH1 0x40 MLOAD DUP1 SWAP2 SUB SWAP1 REVERT INVALID 0x49 PUSH15 0x73756666696369656E7420696E6365 PUSH15 0x746976657320617661696C61626C65 0x4F PUSH24 0x6E61626C653A206E6577206F776E65722069732074686520 PUSH27 0x65726F2061646472657373416464726573733A20696E7375666669 PUSH4 0x69656E74 KECCAK256 PUSH3 0x616C61 PUSH15 0x636520666F722063616C6C4F776E61 PUSH3 0x6C653A KECCAK256 PUSH4 0x616C6C65 PUSH19 0x206973206E6F7420746865206F776E6572546F PUSH12 0x656E2063616E6E6F74206265 KECCAK256 PUSH20 0x616D6520617320696E63656E746976657320746F PUSH12 0x656E5361666545524332303A KECCAK256 GASLIMIT MSTORE NUMBER ORIGIN ADDRESS KECCAK256 PUSH16 0x7065726174696F6E20646964206E6F74 KECCAK256 PUSH20 0x7563636565645361666545524332303A20617070 PUSH19 0x6F76652066726F6D206E6F6E2D7A65726F2074 PUSH16 0x206E6F6E2D7A65726F20616C6C6F7761 PUSH15 0x6365A26469706673582212204CFA60 JUMPI ADDRESS 0xEB STOP 0xDD PUSH14 0xF59580A935833C5C163B1A41934A 0xD1 0xED SWAP4 0xBE 0xDF 0xED 0xAF DUP11 PUSH15 0x64736F6C6343000705003341646472 PUSH6 0x73733A20696E PUSH20 0x756666696369656E742062616C616E636520666F PUSH19 0x2063616C6C5361666545524332303A20455243 ORIGIN ADDRESS KECCAK256 PUSH16 0x7065726174696F6E20646964206E6F74 KECCAK256 PUSH20 0x7563636565645361666545524332303A20617070 PUSH19 0x6F76652066726F6D206E6F6E2D7A65726F2074 PUSH16 0x206E6F6E2D7A65726F20616C6C6F7761 PUSH15 0x636500000000000000000000000000 "
				},
				"gasEstimates": {
					"creation": {
						"codeDepositCost": "1077000",
						"executionCost": "infinite",
						"totalCost": "infinite"
					},
					"external": {
						"admin()": "1125",
						"approvedSpender()": "1060",
						"dailyLimit()": "1066",
						"deposit(uint256)": "infinite",
						"getDailyLimit()": "1043",
						"inCaseTokensGetStuck(address)": "infinite",
						"lastDay()": "1088",
						"owner()": "1148",
						"pause()": "infinite",
						"paused()": "1073",
						"renounceOwnership()": "infinite",
						"setAdmin(address)": "infinite",
						"setDailyLimit(uint256)": "infinite",
						"spentToday()": "1020",
						"token()": "infinite",
						"transferOwnership(address)": "infinite",
						"unpause()": "infinite",
						"withdraw(address,uint256)": "infinite",
						"withdrawAll()": "infinite"
					},
					"internal": {
						"isUnderLimit(uint256)": "28334"
					}
				},
				"methodIdentifiers": {
					"admin()": "f851a440",
					"approvedSpender()": "8ef57f5e",
					"dailyLimit()": "67eeba0c",
					"deposit(uint256)": "b6b55f25",
					"getDailyLimit()": "a6895b5a",
					"inCaseTokensGetStuck(address)": "def68a9c",
					"lastDay()": "6b0c932d",
					"owner()": "8da5cb5b",
					"pause()": "8456cb59",
					"paused()": "5c975abb",
					"renounceOwnership()": "715018a6",
					"setAdmin(address)": "704b6c02",
					"setDailyLimit(uint256)": "b20d30a9",
					"spentToday()": "f059cf2b",
					"token()": "fc0c546a",
					"transferOwnership(address)": "f2fde38b",
					"unpause()": "3f4ba83a",
					"withdraw(address,uint256)": "f3fef3a3",
					"withdrawAll()": "853828b6"
				}
			},
			"storageLayout": {
				"storage": [
					{
						"astId": 395,
						"contract": "contracts/Omnidex-incentives/incentives/OmnidexIncentivesVault.sol:OmnidexIncentivesVault",
						"label": "_owner",
						"offset": 0,
						"slot": "0",
						"type": "t_address"
					},
					{
						"astId": 1480,
						"contract": "contracts/Omnidex-incentives/incentives/OmnidexIncentivesVault.sol:OmnidexIncentivesVault",
						"label": "_paused",
						"offset": 20,
						"slot": "0",
						"type": "t_bool"
					},
					{
						"astId": 20,
						"contract": "contracts/Omnidex-incentives/incentives/OmnidexIncentivesVault.sol:OmnidexIncentivesVault",
						"label": "admin",
						"offset": 0,
						"slot": "1",
						"type": "t_address"
					},
					{
						"astId": 22,
						"contract": "contracts/Omnidex-incentives/incentives/OmnidexIncentivesVault.sol:OmnidexIncentivesVault",
						"label": "approvedSpender",
						"offset": 0,
						"slot": "2",
						"type": "t_address"
					},
					{
						"astId": 24,
						"contract": "contracts/Omnidex-incentives/incentives/OmnidexIncentivesVault.sol:OmnidexIncentivesVault",
						"label": "dailyLimit",
						"offset": 0,
						"slot": "3",
						"type": "t_uint256"
					},
					{
						"astId": 26,
						"contract": "contracts/Omnidex-incentives/incentives/OmnidexIncentivesVault.sol:OmnidexIncentivesVault",
						"label": "lastDay",
						"offset": 0,
						"slot": "4",
						"type": "t_uint256"
					},
					{
						"astId": 28,
						"contract": "contracts/Omnidex-incentives/incentives/OmnidexIncentivesVault.sol:OmnidexIncentivesVault",
						"label": "spentToday",
						"offset": 0,
						"slot": "5",
						"type": "t_uint256"
					}
				],
				"types": {
					"t_address": {
						"encoding": "inplace",
						"label": "address",
						"numberOfBytes": "20"
					},
					"t_bool": {
						"encoding": "inplace",
						"label": "bool",
						"numberOfBytes": "1"
					},
					"t_uint256": {
						"encoding": "inplace",
						"label": "uint256",
						"numberOfBytes": "32"
					}
				}
			},
			"userdoc": {
				"kind": "user",
				"methods": {
					"constructor": {
						"notice": "Constructor"
					},
					"deposit(uint256)": {
						"notice": "Deposits funds into the  Vault"
					},
					"inCaseTokensGetStuck(address)": {
						"notice": "Withdraw unexpected tokens sent to the Charm Vault"
					},
					"pause()": {
						"notice": "Triggers stopped state"
					},
					"setAdmin(address)": {
						"notice": "Sets admin address"
					},
					"setDailyLimit(uint256)": {
						"notice": "Sets new daily limit"
					},
					"unpause()": {
						"notice": "Returns to normal state"
					},
					"withdraw(address,uint256)": {
						"notice": "Withdraws incentives from funds in the Vaultcan only be called by authorised spenders"
					},
					"withdrawAll()": {
						"notice": "Withdraws all funds back to owner"
					}
				},
				"version": 1
			}
		}
	}
}