{
	"@aave/aave-stake/contracts/lib/InitializableUpgradeabilityProxy.sol": {
		"InitializableUpgradeabilityProxy": {
			"abi": [
				{
					"anonymous": false,
					"inputs": [
						{
							"indexed": true,
							"internalType": "address",
							"name": "implementation",
							"type": "address"
						}
					],
					"name": "Upgraded",
					"type": "event"
				},
				{
					"stateMutability": "payable",
					"type": "fallback"
				},
				{
					"inputs": [
						{
							"internalType": "address",
							"name": "_logic",
							"type": "address"
						},
						{
							"internalType": "bytes",
							"name": "_data",
							"type": "bytes"
						}
					],
					"name": "initialize",
					"outputs": [],
					"stateMutability": "payable",
					"type": "function"
				}
			],
			"devdoc": {
				"details": "From https://github.com/OpenZeppelin/openzeppelin-sdk/tree/solc-0.6/packages/lib/contracts/upgradeability Extends BaseUpgradeabilityProxy with an initializer for initializing implementation and init data.",
				"kind": "dev",
				"methods": {
					"initialize(address,bytes)": {
						"details": "Contract initializer.",
						"params": {
							"_data": "Data to send as msg.data to the implementation to initialize the proxied contract. It should include the signature and the parameters of the function to be called, as described in https://solidity.readthedocs.io/en/v0.4.24/abi-spec.html#function-selector-and-argument-encoding. This parameter is optional, if no data is given the initialization call to proxied contract will be skipped.",
							"_logic": "Address of the initial implementation."
						}
					}
				},
				"title": "InitializableUpgradeabilityProxy",
				"version": 1
			},
			"evm": {
				"assembly": "    /* \"@aave/aave-stake/contracts/lib/InitializableUpgradeabilityProxy.sol\":367:1329  contract InitializableUpgradeabilityProxy is BaseUpgradeabilityProxy {... */\n  mstore(0x40, 0x80)\n  callvalue\n  dup1\n  iszero\n  tag_1\n  jumpi\n  0x00\n  dup1\n  revert\ntag_1:\n  pop\n  dataSize(sub_0)\n  dup1\n  dataOffset(sub_0)\n  0x00\n  codecopy\n  0x00\n  return\nstop\n\nsub_0: assembly {\n        /* \"@aave/aave-stake/contracts/lib/InitializableUpgradeabilityProxy.sol\":367:1329  contract InitializableUpgradeabilityProxy is BaseUpgradeabilityProxy {... */\n      mstore(0x40, 0x80)\n      jumpi(tag_1, lt(calldatasize, 0x04))\n      shr(0xe0, calldataload(0x00))\n      dup1\n      0xd1f57894\n      eq\n      tag_3\n      jumpi\n    tag_1:\n        /* \"@aave/aave-stake/contracts/lib/Proxy.sol\":601:612  _fallback() */\n      tag_6\n        /* \"@aave/aave-stake/contracts/lib/Proxy.sol\":601:610  _fallback */\n      tag_7\n        /* \"@aave/aave-stake/contracts/lib/Proxy.sol\":601:612  _fallback() */\n      jump\t// in\n    tag_6:\n        /* \"@aave/aave-stake/contracts/lib/InitializableUpgradeabilityProxy.sol\":367:1329  contract InitializableUpgradeabilityProxy is BaseUpgradeabilityProxy {... */\n      stop\n        /* \"@aave/aave-stake/contracts/lib/InitializableUpgradeabilityProxy.sol\":962:1327  function initialize(address _logic, bytes memory _data) public payable {... */\n    tag_3:\n      tag_6\n      0x04\n      dup1\n      calldatasize\n      sub\n      0x40\n      dup2\n      lt\n      iszero\n      tag_9\n      jumpi\n      0x00\n      dup1\n      revert\n    tag_9:\n      sub(shl(0xa0, 0x01), 0x01)\n      dup3\n      calldataload\n      and\n      swap2\n      swap1\n      dup2\n      add\n      swap1\n      0x40\n      dup2\n      add\n      0x20\n      dup3\n      add\n      calldataload\n      0x0100000000\n      dup2\n      gt\n      iszero\n      tag_10\n      jumpi\n      0x00\n      dup1\n      revert\n    tag_10:\n      dup3\n      add\n      dup4\n      0x20\n      dup3\n      add\n      gt\n      iszero\n      tag_11\n      jumpi\n      0x00\n      dup1\n      revert\n    tag_11:\n      dup1\n      calldataload\n      swap1\n      0x20\n      add\n      swap2\n      dup5\n      0x01\n      dup4\n      mul\n      dup5\n      add\n      gt\n      0x0100000000\n      dup4\n      gt\n      or\n      iszero\n      tag_12\n      jumpi\n      0x00\n      dup1\n      revert\n    tag_12:\n      swap2\n      swap1\n      dup1\n      dup1\n      0x1f\n      add\n      0x20\n      dup1\n      swap2\n      div\n      mul\n      0x20\n      add\n      mload(0x40)\n      swap1\n      dup2\n      add\n      0x40\n      mstore\n      dup1\n      swap4\n      swap3\n      swap2\n      swap1\n      dup2\n      dup2\n      mstore\n      0x20\n      add\n      dup4\n      dup4\n      dup1\n      dup3\n      dup5\n      calldatacopy\n      0x00\n      swap3\n      add\n      swap2\n      swap1\n      swap2\n      mstore\n      pop\n      swap3\n      swap6\n      pop\n      tag_13\n      swap5\n      pop\n      pop\n      pop\n      pop\n      pop\n      jump\t// in\n        /* \"@aave/aave-stake/contracts/lib/Proxy.sol\":2167:2257  function _fallback() internal {... */\n    tag_7:\n        /* \"@aave/aave-stake/contracts/lib/Proxy.sol\":2203:2218  _willFallback() */\n      tag_15\n        /* \"@aave/aave-stake/contracts/lib/Proxy.sol\":2203:2216  _willFallback */\n      tag_17\n        /* \"@aave/aave-stake/contracts/lib/Proxy.sol\":2203:2218  _willFallback() */\n      jump\t// in\n    tag_15:\n        /* \"@aave/aave-stake/contracts/lib/Proxy.sol\":2224:2252  _delegate(_implementation()) */\n      tag_17\n        /* \"@aave/aave-stake/contracts/lib/Proxy.sol\":2234:2251  _implementation() */\n      tag_18\n        /* \"@aave/aave-stake/contracts/lib/Proxy.sol\":2234:2249  _implementation */\n      tag_19\n        /* \"@aave/aave-stake/contracts/lib/Proxy.sol\":2234:2251  _implementation() */\n      jump\t// in\n    tag_18:\n        /* \"@aave/aave-stake/contracts/lib/Proxy.sol\":2224:2233  _delegate */\n      tag_20\n        /* \"@aave/aave-stake/contracts/lib/Proxy.sol\":2224:2252  _delegate(_implementation()) */\n      jump\t// in\n    tag_17:\n        /* \"@aave/aave-stake/contracts/lib/Proxy.sol\":2167:2257  function _fallback() internal {... */\n      jump\t// out\n        /* \"@aave/aave-stake/contracts/lib/InitializableUpgradeabilityProxy.sol\":962:1327  function initialize(address _logic, bytes memory _data) public payable {... */\n    tag_13:\n        /* \"@aave/aave-stake/contracts/lib/InitializableUpgradeabilityProxy.sol\":1076:1077  0 */\n      0x00\n        /* \"@aave/aave-stake/contracts/lib/InitializableUpgradeabilityProxy.sol\":1047:1064  _implementation() */\n      tag_22\n        /* \"@aave/aave-stake/contracts/lib/InitializableUpgradeabilityProxy.sol\":1047:1062  _implementation */\n      tag_19\n        /* \"@aave/aave-stake/contracts/lib/InitializableUpgradeabilityProxy.sol\":1047:1064  _implementation() */\n      jump\t// in\n    tag_22:\n      sub(shl(0xa0, 0x01), 0x01)\n        /* \"@aave/aave-stake/contracts/lib/InitializableUpgradeabilityProxy.sol\":1047:1078  _implementation() == address(0) */\n      and\n      eq\n        /* \"@aave/aave-stake/contracts/lib/InitializableUpgradeabilityProxy.sol\":1039:1079  require(_implementation() == address(0)) */\n      tag_23\n      jumpi\n      0x00\n      dup1\n      revert\n    tag_23:\n        /* \"@aave/aave-stake/contracts/lib/InitializableUpgradeabilityProxy.sol\":1185:1211  _setImplementation(_logic) */\n      tag_25\n        /* \"@aave/aave-stake/contracts/lib/InitializableUpgradeabilityProxy.sol\":1204:1210  _logic */\n      dup3\n        /* \"@aave/aave-stake/contracts/lib/InitializableUpgradeabilityProxy.sol\":1185:1203  _setImplementation */\n      tag_26\n        /* \"@aave/aave-stake/contracts/lib/InitializableUpgradeabilityProxy.sol\":1185:1211  _setImplementation(_logic) */\n      jump\t// in\n    tag_25:\n        /* \"@aave/aave-stake/contracts/lib/InitializableUpgradeabilityProxy.sol\":1221:1233  _data.length */\n      dup1\n      mload\n        /* \"@aave/aave-stake/contracts/lib/InitializableUpgradeabilityProxy.sol\":1221:1237  _data.length > 0 */\n      iszero\n        /* \"@aave/aave-stake/contracts/lib/InitializableUpgradeabilityProxy.sol\":1217:1323  if (_data.length > 0) {... */\n      tag_27\n      jumpi\n        /* \"@aave/aave-stake/contracts/lib/InitializableUpgradeabilityProxy.sol\":1248:1260  bool success */\n      0x00\n        /* \"@aave/aave-stake/contracts/lib/InitializableUpgradeabilityProxy.sol\":1266:1272  _logic */\n      dup3\n      sub(shl(0xa0, 0x01), 0x01)\n        /* \"@aave/aave-stake/contracts/lib/InitializableUpgradeabilityProxy.sol\":1266:1285  _logic.delegatecall */\n      and\n        /* \"@aave/aave-stake/contracts/lib/InitializableUpgradeabilityProxy.sol\":1286:1291  _data */\n      dup3\n        /* \"@aave/aave-stake/contracts/lib/InitializableUpgradeabilityProxy.sol\":1266:1292  _logic.delegatecall(_data) */\n      mload(0x40)\n      dup1\n      dup3\n      dup1\n      mload\n      swap1\n      0x20\n      add\n      swap1\n      dup1\n      dup4\n      dup4\n    tag_28:\n      0x20\n      dup4\n      lt\n      tag_30\n      jumpi\n      dup1\n      mload\n      dup3\n      mstore\n      not(0x1f)\n      swap1\n      swap3\n      add\n      swap2\n      0x20\n      swap2\n      dup3\n      add\n      swap2\n      add\n      jump(tag_28)\n    tag_30:\n      0x01\n      dup4\n      0x20\n      sub\n      0x0100\n      exp\n      sub\n      dup1\n      not\n      dup3\n      mload\n      and\n      dup2\n      dup5\n      mload\n      and\n      dup1\n      dup3\n      or\n      dup6\n      mstore\n      pop\n      pop\n      pop\n      pop\n      pop\n      pop\n      swap1\n      pop\n      add\n      swap2\n      pop\n      pop\n      0x00\n      mload(0x40)\n      dup1\n      dup4\n      sub\n      dup2\n      dup6\n      gas\n      delegatecall\n      swap2\n      pop\n      pop\n      returndatasize\n      dup1\n      0x00\n      dup2\n      eq\n      tag_33\n      jumpi\n      mload(0x40)\n      swap2\n      pop\n      and(add(returndatasize, 0x3f), not(0x1f))\n      dup3\n      add\n      0x40\n      mstore\n      returndatasize\n      dup3\n      mstore\n      returndatasize\n      0x00\n      0x20\n      dup5\n      add\n      returndatacopy\n      jump(tag_32)\n    tag_33:\n      0x60\n      swap2\n      pop\n    tag_32:\n      pop\n        /* \"@aave/aave-stake/contracts/lib/InitializableUpgradeabilityProxy.sol\":1247:1292  (bool success, ) = _logic.delegatecall(_data) */\n      pop\n      swap1\n      pop\n        /* \"@aave/aave-stake/contracts/lib/InitializableUpgradeabilityProxy.sol\":1308:1315  success */\n      dup1\n        /* \"@aave/aave-stake/contracts/lib/InitializableUpgradeabilityProxy.sol\":1300:1316  require(success) */\n      tag_34\n      jumpi\n      0x00\n      dup1\n      revert\n    tag_34:\n        /* \"@aave/aave-stake/contracts/lib/InitializableUpgradeabilityProxy.sol\":1217:1323  if (_data.length > 0) {... */\n      pop\n    tag_27:\n        /* \"@aave/aave-stake/contracts/lib/InitializableUpgradeabilityProxy.sol\":962:1327  function initialize(address _logic, bytes memory _data) public payable {... */\n      pop\n      pop\n      jump\t// out\n        /* \"@aave/aave-stake/contracts/lib/BaseUpgradeabilityProxy.sol\":1100:1265  function _implementation() internal view override returns (address impl) {... */\n    tag_19:\n        /* \"@aave/aave-stake/contracts/lib/BaseUpgradeabilityProxy.sol\":915:981  0x360894a13ba1a3210667c828492db98dca3e2076cc3735a920a3ca505d382bbc */\n      0x360894a13ba1a3210667c828492db98dca3e2076cc3735a920a3ca505d382bbc\n        /* \"@aave/aave-stake/contracts/lib/BaseUpgradeabilityProxy.sol\":1244:1255  sload(slot) */\n      sload\n      swap1\n        /* \"@aave/aave-stake/contracts/lib/BaseUpgradeabilityProxy.sol\":1228:1261  {... */\n      jump\t// out\n        /* \"@aave/aave-stake/contracts/lib/Proxy.sol\":1034:1819  function _delegate(address implementation) internal {... */\n    tag_20:\n        /* \"@aave/aave-stake/contracts/lib/Proxy.sol\":1336:1350  calldatasize() */\n      calldatasize\n        /* \"@aave/aave-stake/contracts/lib/Proxy.sol\":1333:1334  0 */\n      0x00\n        /* \"@aave/aave-stake/contracts/lib/Proxy.sol\":1330:1331  0 */\n      dup1\n        /* \"@aave/aave-stake/contracts/lib/Proxy.sol\":1317:1351  calldatacopy(0, 0, calldatasize()) */\n      calldatacopy\n        /* \"@aave/aave-stake/contracts/lib/Proxy.sol\":1532:1533  0 */\n      0x00\n        /* \"@aave/aave-stake/contracts/lib/Proxy.sol\":1529:1530  0 */\n      dup1\n        /* \"@aave/aave-stake/contracts/lib/Proxy.sol\":1513:1527  calldatasize() */\n      calldatasize\n        /* \"@aave/aave-stake/contracts/lib/Proxy.sol\":1510:1511  0 */\n      0x00\n        /* \"@aave/aave-stake/contracts/lib/Proxy.sol\":1494:1508  implementation */\n      dup5\n        /* \"@aave/aave-stake/contracts/lib/Proxy.sol\":1487:1492  gas() */\n      gas\n        /* \"@aave/aave-stake/contracts/lib/Proxy.sol\":1474:1534  delegatecall(gas(), implementation, 0, calldatasize(), 0, 0) */\n      delegatecall\n        /* \"@aave/aave-stake/contracts/lib/Proxy.sol\":1596:1612  returndatasize() */\n      returndatasize\n        /* \"@aave/aave-stake/contracts/lib/Proxy.sol\":1593:1594  0 */\n      0x00\n        /* \"@aave/aave-stake/contracts/lib/Proxy.sol\":1590:1591  0 */\n      dup1\n        /* \"@aave/aave-stake/contracts/lib/Proxy.sol\":1575:1613  returndatacopy(0, 0, returndatasize()) */\n      returndatacopy\n        /* \"@aave/aave-stake/contracts/lib/Proxy.sol\":1628:1634  result */\n      dup1\n        /* \"@aave/aave-stake/contracts/lib/Proxy.sol\":1687:1743  case 0 {... */\n      dup1\n      iszero\n      tag_39\n      jumpi\n        /* \"@aave/aave-stake/contracts/lib/Proxy.sol\":1782:1798  returndatasize() */\n      returndatasize\n        /* \"@aave/aave-stake/contracts/lib/Proxy.sol\":1779:1780  0 */\n      0x00\n        /* \"@aave/aave-stake/contracts/lib/Proxy.sol\":1772:1799  return(0, returndatasize()) */\n      return\n        /* \"@aave/aave-stake/contracts/lib/Proxy.sol\":1687:1743  case 0 {... */\n    tag_39:\n        /* \"@aave/aave-stake/contracts/lib/Proxy.sol\":1716:1732  returndatasize() */\n      returndatasize\n        /* \"@aave/aave-stake/contracts/lib/Proxy.sol\":1713:1714  0 */\n      0x00\n        /* \"@aave/aave-stake/contracts/lib/Proxy.sol\":1706:1733  revert(0, returndatasize()) */\n      revert\n        /* \"@aave/aave-stake/contracts/lib/BaseUpgradeabilityProxy.sol\":1679:1982  function _setImplementation(address newImplementation) internal {... */\n    tag_26:\n        /* \"@aave/aave-stake/contracts/lib/BaseUpgradeabilityProxy.sol\":1764:1801  Address.isContract(newImplementation) */\n      tag_41\n        /* \"@aave/aave-stake/contracts/lib/BaseUpgradeabilityProxy.sol\":1783:1800  newImplementation */\n      dup2\n        /* \"@aave/aave-stake/contracts/lib/BaseUpgradeabilityProxy.sol\":1764:1782  Address.isContract */\n      tag_42\n        /* \"@aave/aave-stake/contracts/lib/BaseUpgradeabilityProxy.sol\":1764:1801  Address.isContract(newImplementation) */\n      jump\t// in\n    tag_41:\n        /* \"@aave/aave-stake/contracts/lib/BaseUpgradeabilityProxy.sol\":1749:1876  require(... */\n      tag_43\n      jumpi\n      mload(0x40)\n      shl(0xe5, 0x461bcd)\n      dup2\n      mstore\n      0x04\n      add\n      dup1\n      dup1\n      0x20\n      add\n      dup3\n      dup2\n      sub\n      dup3\n      mstore\n      0x3b\n      dup2\n      mstore\n      0x20\n      add\n      dup1\n      data_b5145a64ce8c406e5785204fe5b300f0ceda96d6636350b38fdccb9cd8c0c37c\n      0x3b\n      swap2\n      codecopy\n      0x40\n      add\n      swap2\n      pop\n      pop\n      mload(0x40)\n      dup1\n      swap2\n      sub\n      swap1\n      revert\n    tag_43:\n        /* \"@aave/aave-stake/contracts/lib/BaseUpgradeabilityProxy.sol\":915:981  0x360894a13ba1a3210667c828492db98dca3e2076cc3735a920a3ca505d382bbc */\n      0x360894a13ba1a3210667c828492db98dca3e2076cc3735a920a3ca505d382bbc\n        /* \"@aave/aave-stake/contracts/lib/BaseUpgradeabilityProxy.sol\":1941:1972  sstore(slot, newImplementation) */\n      sstore\n        /* \"@aave/aave-stake/contracts/lib/BaseUpgradeabilityProxy.sol\":1933:1978  {... */\n      jump\t// out\n        /* \"@aave/aave-stake/contracts/lib/Address.sol\":743:1329  function isContract(address account) internal view returns (bool) {... */\n    tag_42:\n        /* \"@aave/aave-stake/contracts/lib/Address.sol\":803:807  bool */\n      0x00\n        /* \"@aave/aave-stake/contracts/lib/Address.sol\":1242:1262  extcodehash(account) */\n      dup2\n      extcodehash\n        /* \"@aave/aave-stake/contracts/lib/Address.sol\":1089:1155  0xc5d2460186f7233c927e7db2dcc703c0e500b653ca82273b7bfad8045d85a470 */\n      0xc5d2460186f7233c927e7db2dcc703c0e500b653ca82273b7bfad8045d85a470\n        /* \"@aave/aave-stake/contracts/lib/Address.sol\":1281:1304  codehash != accountHash */\n      dup2\n      dup2\n      eq\n      dup1\n      iszero\n      swap1\n        /* \"@aave/aave-stake/contracts/lib/Address.sol\":1281:1323  codehash != accountHash && codehash != 0x0 */\n      tag_45\n      jumpi\n      pop\n        /* \"@aave/aave-stake/contracts/lib/Address.sol\":1308:1323  codehash != 0x0 */\n      dup2\n      iszero\n      iszero\n        /* \"@aave/aave-stake/contracts/lib/Address.sol\":1281:1323  codehash != accountHash && codehash != 0x0 */\n    tag_45:\n        /* \"@aave/aave-stake/contracts/lib/Address.sol\":1273:1324  return (codehash != accountHash && codehash != 0x0) */\n      swap5\n        /* \"@aave/aave-stake/contracts/lib/Address.sol\":743:1329  function isContract(address account) internal view returns (bool) {... */\n      swap4\n      pop\n      pop\n      pop\n      pop\n      jump\t// out\n    stop\n    data_b5145a64ce8c406e5785204fe5b300f0ceda96d6636350b38fdccb9cd8c0c37c 43616e6e6f742073657420612070726f787920696d706c656d656e746174696f6e20746f2061206e6f6e2d636f6e74726163742061646472657373\n\n    auxdata: 0xa264697066735822122054f7cd170461ae85ebe7a153aa8d055ad091622a3c2c2a1530e72132fa4c2d4264736f6c63430007050033\n}\n",
				"bytecode": {
					"linkReferences": {},
					"object": "608060405234801561001057600080fd5b50610338806100206000396000f3fe60806040526004361061001e5760003560e01c8063d1f5789414610028575b6100266100de565b005b6100266004803603604081101561003e57600080fd5b6001600160a01b03823516919081019060408101602082013564010000000081111561006957600080fd5b82018360208201111561007b57600080fd5b8035906020019184600183028401116401000000008311171561009d57600080fd5b91908080601f0160208091040260200160405190810160405280939291908181526020018383808284376000920191909152509295506100f8945050505050565b6100e66100f6565b6100f66100f16101da565b6101ff565b565b60006101026101da565b6001600160a01b03161461011557600080fd5b61011e82610223565b8051156101d6576000826001600160a01b0316826040518082805190602001908083835b602083106101615780518252601f199092019160209182019101610142565b6001836020036101000a038019825116818451168082178552505050505050905001915050600060405180830381855af49150503d80600081146101c1576040519150601f19603f3d011682016040523d82523d6000602084013e6101c6565b606091505b50509050806101d457600080fd5b505b5050565b7f360894a13ba1a3210667c828492db98dca3e2076cc3735a920a3ca505d382bbc5490565b3660008037600080366000845af43d6000803e80801561021e573d6000f35b3d6000fd5b61022c8161028b565b6102675760405162461bcd60e51b815260040180806020018281038252603b8152602001806102c8603b913960400191505060405180910390fd5b7f360894a13ba1a3210667c828492db98dca3e2076cc3735a920a3ca505d382bbc55565b6000813f7fc5d2460186f7233c927e7db2dcc703c0e500b653ca82273b7bfad8045d85a4708181148015906102bf57508115155b94935050505056fe43616e6e6f742073657420612070726f787920696d706c656d656e746174696f6e20746f2061206e6f6e2d636f6e74726163742061646472657373a264697066735822122054f7cd170461ae85ebe7a153aa8d055ad091622a3c2c2a1530e72132fa4c2d4264736f6c63430007050033",
					"opcodes": "PUSH1 0x80 PUSH1 0x40 MSTORE CALLVALUE DUP1 ISZERO PUSH2 0x10 JUMPI PUSH1 0x0 DUP1 REVERT JUMPDEST POP PUSH2 0x338 DUP1 PUSH2 0x20 PUSH1 0x0 CODECOPY PUSH1 0x0 RETURN INVALID PUSH1 0x80 PUSH1 0x40 MSTORE PUSH1 0x4 CALLDATASIZE LT PUSH2 0x1E JUMPI PUSH1 0x0 CALLDATALOAD PUSH1 0xE0 SHR DUP1 PUSH4 0xD1F57894 EQ PUSH2 0x28 JUMPI JUMPDEST PUSH2 0x26 PUSH2 0xDE JUMP JUMPDEST STOP JUMPDEST PUSH2 0x26 PUSH1 0x4 DUP1 CALLDATASIZE SUB PUSH1 0x40 DUP2 LT ISZERO PUSH2 0x3E JUMPI PUSH1 0x0 DUP1 REVERT JUMPDEST PUSH1 0x1 PUSH1 0x1 PUSH1 0xA0 SHL SUB DUP3 CALLDATALOAD AND SWAP2 SWAP1 DUP2 ADD SWAP1 PUSH1 0x40 DUP2 ADD PUSH1 0x20 DUP3 ADD CALLDATALOAD PUSH5 0x100000000 DUP2 GT ISZERO PUSH2 0x69 JUMPI PUSH1 0x0 DUP1 REVERT JUMPDEST DUP3 ADD DUP4 PUSH1 0x20 DUP3 ADD GT ISZERO PUSH2 0x7B JUMPI PUSH1 0x0 DUP1 REVERT JUMPDEST DUP1 CALLDATALOAD SWAP1 PUSH1 0x20 ADD SWAP2 DUP5 PUSH1 0x1 DUP4 MUL DUP5 ADD GT PUSH5 0x100000000 DUP4 GT OR ISZERO PUSH2 0x9D JUMPI PUSH1 0x0 DUP1 REVERT JUMPDEST SWAP2 SWAP1 DUP1 DUP1 PUSH1 0x1F ADD PUSH1 0x20 DUP1 SWAP2 DIV MUL PUSH1 0x20 ADD PUSH1 0x40 MLOAD SWAP1 DUP2 ADD PUSH1 0x40 MSTORE DUP1 SWAP4 SWAP3 SWAP2 SWAP1 DUP2 DUP2 MSTORE PUSH1 0x20 ADD DUP4 DUP4 DUP1 DUP3 DUP5 CALLDATACOPY PUSH1 0x0 SWAP3 ADD SWAP2 SWAP1 SWAP2 MSTORE POP SWAP3 SWAP6 POP PUSH2 0xF8 SWAP5 POP POP POP POP POP JUMP JUMPDEST PUSH2 0xE6 PUSH2 0xF6 JUMP JUMPDEST PUSH2 0xF6 PUSH2 0xF1 PUSH2 0x1DA JUMP JUMPDEST PUSH2 0x1FF JUMP JUMPDEST JUMP JUMPDEST PUSH1 0x0 PUSH2 0x102 PUSH2 0x1DA JUMP JUMPDEST PUSH1 0x1 PUSH1 0x1 PUSH1 0xA0 SHL SUB AND EQ PUSH2 0x115 JUMPI PUSH1 0x0 DUP1 REVERT JUMPDEST PUSH2 0x11E DUP3 PUSH2 0x223 JUMP JUMPDEST DUP1 MLOAD ISZERO PUSH2 0x1D6 JUMPI PUSH1 0x0 DUP3 PUSH1 0x1 PUSH1 0x1 PUSH1 0xA0 SHL SUB AND DUP3 PUSH1 0x40 MLOAD DUP1 DUP3 DUP1 MLOAD SWAP1 PUSH1 0x20 ADD SWAP1 DUP1 DUP4 DUP4 JUMPDEST PUSH1 0x20 DUP4 LT PUSH2 0x161 JUMPI DUP1 MLOAD DUP3 MSTORE PUSH1 0x1F NOT SWAP1 SWAP3 ADD SWAP2 PUSH1 0x20 SWAP2 DUP3 ADD SWAP2 ADD PUSH2 0x142 JUMP JUMPDEST PUSH1 0x1 DUP4 PUSH1 0x20 SUB PUSH2 0x100 EXP SUB DUP1 NOT DUP3 MLOAD AND DUP2 DUP5 MLOAD AND DUP1 DUP3 OR DUP6 MSTORE POP POP POP POP POP POP SWAP1 POP ADD SWAP2 POP POP PUSH1 0x0 PUSH1 0x40 MLOAD DUP1 DUP4 SUB DUP2 DUP6 GAS DELEGATECALL SWAP2 POP POP RETURNDATASIZE DUP1 PUSH1 0x0 DUP2 EQ PUSH2 0x1C1 JUMPI PUSH1 0x40 MLOAD SWAP2 POP PUSH1 0x1F NOT PUSH1 0x3F RETURNDATASIZE ADD AND DUP3 ADD PUSH1 0x40 MSTORE RETURNDATASIZE DUP3 MSTORE RETURNDATASIZE PUSH1 0x0 PUSH1 0x20 DUP5 ADD RETURNDATACOPY PUSH2 0x1C6 JUMP JUMPDEST PUSH1 0x60 SWAP2 POP JUMPDEST POP POP SWAP1 POP DUP1 PUSH2 0x1D4 JUMPI PUSH1 0x0 DUP1 REVERT JUMPDEST POP JUMPDEST POP POP JUMP JUMPDEST PUSH32 0x360894A13BA1A3210667C828492DB98DCA3E2076CC3735A920A3CA505D382BBC SLOAD SWAP1 JUMP JUMPDEST CALLDATASIZE PUSH1 0x0 DUP1 CALLDATACOPY PUSH1 0x0 DUP1 CALLDATASIZE PUSH1 0x0 DUP5 GAS DELEGATECALL RETURNDATASIZE PUSH1 0x0 DUP1 RETURNDATACOPY DUP1 DUP1 ISZERO PUSH2 0x21E JUMPI RETURNDATASIZE PUSH1 0x0 RETURN JUMPDEST RETURNDATASIZE PUSH1 0x0 REVERT JUMPDEST PUSH2 0x22C DUP2 PUSH2 0x28B JUMP JUMPDEST PUSH2 0x267 JUMPI PUSH1 0x40 MLOAD PUSH3 0x461BCD PUSH1 0xE5 SHL DUP2 MSTORE PUSH1 0x4 ADD DUP1 DUP1 PUSH1 0x20 ADD DUP3 DUP2 SUB DUP3 MSTORE PUSH1 0x3B DUP2 MSTORE PUSH1 0x20 ADD DUP1 PUSH2 0x2C8 PUSH1 0x3B SWAP2 CODECOPY PUSH1 0x40 ADD SWAP2 POP POP PUSH1 0x40 MLOAD DUP1 SWAP2 SUB SWAP1 REVERT JUMPDEST PUSH32 0x360894A13BA1A3210667C828492DB98DCA3E2076CC3735A920A3CA505D382BBC SSTORE JUMP JUMPDEST PUSH1 0x0 DUP2 EXTCODEHASH PUSH32 0xC5D2460186F7233C927E7DB2DCC703C0E500B653CA82273B7BFAD8045D85A470 DUP2 DUP2 EQ DUP1 ISZERO SWAP1 PUSH2 0x2BF JUMPI POP DUP2 ISZERO ISZERO JUMPDEST SWAP5 SWAP4 POP POP POP POP JUMP INVALID NUMBER PUSH2 0x6E6E PUSH16 0x742073657420612070726F787920696D PUSH17 0x6C656D656E746174696F6E20746F206120 PUSH15 0x6F6E2D636F6E747261637420616464 PUSH19 0x657373A264697066735822122054F7CD170461 0xAE DUP6 0xEB 0xE7 LOG1 MSTORE8 0xAA DUP14 SDIV GAS 0xD0 SWAP2 PUSH3 0x2A3C2C 0x2A ISZERO ADDRESS 0xE7 0x21 ORIGIN STATICCALL 0x4C 0x2D TIMESTAMP PUSH5 0x736F6C6343 STOP SMOD SDIV STOP CALLER "
				},
				"gasEstimates": {
					"creation": {
						"codeDepositCost": "164800",
						"executionCost": "208",
						"totalCost": "165008"
					},
					"external": {
						"": "infinite",
						"initialize(address,bytes)": "infinite"
					}
				},
				"methodIdentifiers": {
					"initialize(address,bytes)": "d1f57894"
				}
			},
			"storageLayout": {
				"storage": [],
				"types": null
			},
			"userdoc": {
				"kind": "user",
				"methods": {},
				"version": 1
			}
		}
	}
}