{
	"@aave/aave-stake/contracts/lib/InitializableAdminUpgradeabilityProxy.sol": {
		"InitializableAdminUpgradeabilityProxy": {
			"abi": [
				{
					"anonymous": false,
					"inputs": [
						{
							"indexed": false,
							"internalType": "address",
							"name": "previousAdmin",
							"type": "address"
						},
						{
							"indexed": false,
							"internalType": "address",
							"name": "newAdmin",
							"type": "address"
						}
					],
					"name": "AdminChanged",
					"type": "event"
				},
				{
					"anonymous": false,
					"inputs": [
						{
							"indexed": true,
							"internalType": "address",
							"name": "implementation",
							"type": "address"
						}
					],
					"name": "Upgraded",
					"type": "event"
				},
				{
					"stateMutability": "payable",
					"type": "fallback"
				},
				{
					"inputs": [],
					"name": "admin",
					"outputs": [
						{
							"internalType": "address",
							"name": "",
							"type": "address"
						}
					],
					"stateMutability": "nonpayable",
					"type": "function"
				},
				{
					"inputs": [
						{
							"internalType": "address",
							"name": "newAdmin",
							"type": "address"
						}
					],
					"name": "changeAdmin",
					"outputs": [],
					"stateMutability": "nonpayable",
					"type": "function"
				},
				{
					"inputs": [],
					"name": "implementation",
					"outputs": [
						{
							"internalType": "address",
							"name": "",
							"type": "address"
						}
					],
					"stateMutability": "nonpayable",
					"type": "function"
				},
				{
					"inputs": [
						{
							"internalType": "address",
							"name": "_logic",
							"type": "address"
						},
						{
							"internalType": "address",
							"name": "_admin",
							"type": "address"
						},
						{
							"internalType": "bytes",
							"name": "_data",
							"type": "bytes"
						}
					],
					"name": "initialize",
					"outputs": [],
					"stateMutability": "payable",
					"type": "function"
				},
				{
					"inputs": [
						{
							"internalType": "address",
							"name": "_logic",
							"type": "address"
						},
						{
							"internalType": "bytes",
							"name": "_data",
							"type": "bytes"
						}
					],
					"name": "initialize",
					"outputs": [],
					"stateMutability": "payable",
					"type": "function"
				},
				{
					"inputs": [
						{
							"internalType": "address",
							"name": "newImplementation",
							"type": "address"
						}
					],
					"name": "upgradeTo",
					"outputs": [],
					"stateMutability": "nonpayable",
					"type": "function"
				},
				{
					"inputs": [
						{
							"internalType": "address",
							"name": "newImplementation",
							"type": "address"
						},
						{
							"internalType": "bytes",
							"name": "data",
							"type": "bytes"
						}
					],
					"name": "upgradeToAndCall",
					"outputs": [],
					"stateMutability": "payable",
					"type": "function"
				}
			],
			"devdoc": {
				"details": "From https://github.com/OpenZeppelin/openzeppelin-sdk/tree/solc-0.6/packages/lib/contracts/upgradeability Extends from BaseAdminUpgradeabilityProxy with an initializer for initializing the implementation, admin, and init data.",
				"kind": "dev",
				"methods": {
					"admin()": {
						"returns": {
							"_0": "The address of the proxy admin."
						}
					},
					"changeAdmin(address)": {
						"details": "Changes the admin of the proxy. Only the current admin can call this function.",
						"params": {
							"newAdmin": "Address to transfer proxy administration to."
						}
					},
					"implementation()": {
						"returns": {
							"_0": "The address of the implementation."
						}
					},
					"initialize(address,address,bytes)": {
						"params": {
							"_admin": "Address of the proxy administrator.",
							"_data": "Data to send as msg.data to the implementation to initialize the proxied contract. It should include the signature and the parameters of the function to be called, as described in https://solidity.readthedocs.io/en/v0.4.24/abi-spec.html#function-selector-and-argument-encoding. This parameter is optional, if no data is given the initialization call to proxied contract will be skipped.",
							"_logic": "address of the initial implementation."
						}
					},
					"initialize(address,bytes)": {
						"details": "Contract initializer.",
						"params": {
							"_data": "Data to send as msg.data to the implementation to initialize the proxied contract. It should include the signature and the parameters of the function to be called, as described in https://solidity.readthedocs.io/en/v0.4.24/abi-spec.html#function-selector-and-argument-encoding. This parameter is optional, if no data is given the initialization call to proxied contract will be skipped.",
							"_logic": "Address of the initial implementation."
						}
					},
					"upgradeTo(address)": {
						"details": "Upgrade the backing implementation of the proxy. Only the admin can call this function.",
						"params": {
							"newImplementation": "Address of the new implementation."
						}
					},
					"upgradeToAndCall(address,bytes)": {
						"details": "Upgrade the backing implementation of the proxy and call a function on the new implementation. This is useful to initialize the proxied contract.",
						"params": {
							"data": "Data to send as msg.data in the low level call. It should include the signature and the parameters of the function to be called, as described in https://solidity.readthedocs.io/en/v0.4.24/abi-spec.html#function-selector-and-argument-encoding.",
							"newImplementation": "Address of the new implementation."
						}
					}
				},
				"title": "InitializableAdminUpgradeabilityProxy",
				"version": 1
			},
			"evm": {
				"assembly": "    /* \"@aave/aave-stake/contracts/lib/InitializableAdminUpgradeabilityProxy.sol\":448:1676  contract InitializableAdminUpgradeabilityProxy is... */\n  mstore(0x40, 0x80)\n  callvalue\n  dup1\n  iszero\n  tag_1\n  jumpi\n  0x00\n  dup1\n  revert\ntag_1:\n  pop\n  dataSize(sub_0)\n  dup1\n  dataOffset(sub_0)\n  0x00\n  codecopy\n  0x00\n  return\nstop\n\nsub_0: assembly {\n        /* \"@aave/aave-stake/contracts/lib/InitializableAdminUpgradeabilityProxy.sol\":448:1676  contract InitializableAdminUpgradeabilityProxy is... */\n      mstore(0x40, 0x80)\n      jumpi(tag_1, lt(calldatasize, 0x04))\n      shr(0xe0, calldataload(0x00))\n      dup1\n      0x8f283970\n      gt\n      tag_10\n      jumpi\n      dup1\n      0x8f283970\n      eq\n      tag_6\n      jumpi\n      dup1\n      0xcf7a1d77\n      eq\n      tag_7\n      jumpi\n      dup1\n      0xd1f57894\n      eq\n      tag_8\n      jumpi\n      dup1\n      0xf851a440\n      eq\n      tag_9\n      jumpi\n      jump(tag_1)\n    tag_10:\n      dup1\n      0x3659cfe6\n      eq\n      tag_3\n      jumpi\n      dup1\n      0x4f1ef286\n      eq\n      tag_4\n      jumpi\n      dup1\n      0x5c60da1b\n      eq\n      tag_5\n      jumpi\n    tag_1:\n        /* \"@aave/aave-stake/contracts/lib/Proxy.sol\":601:612  _fallback() */\n      tag_13\n        /* \"@aave/aave-stake/contracts/lib/Proxy.sol\":601:610  _fallback */\n      tag_14\n        /* \"@aave/aave-stake/contracts/lib/Proxy.sol\":601:612  _fallback() */\n      jump\t// in\n    tag_13:\n        /* \"@aave/aave-stake/contracts/lib/InitializableAdminUpgradeabilityProxy.sol\":448:1676  contract InitializableAdminUpgradeabilityProxy is... */\n      stop\n        /* \"@aave/aave-stake/contracts/lib/BaseAdminUpgradeabilityProxy.sol\":2350:2453  function upgradeTo(address newImplementation) external ifAdmin {... */\n    tag_3:\n      callvalue\n      dup1\n      iszero\n      tag_15\n      jumpi\n      0x00\n      dup1\n      revert\n    tag_15:\n      pop\n      tag_13\n      0x04\n      dup1\n      calldatasize\n      sub\n      0x20\n      dup2\n      lt\n      iszero\n      tag_17\n      jumpi\n      0x00\n      dup1\n      revert\n    tag_17:\n      pop\n      calldataload\n      sub(shl(0xa0, 0x01), 0x01)\n      and\n      tag_18\n      jump\t// in\n        /* \"@aave/aave-stake/contracts/lib/BaseAdminUpgradeabilityProxy.sol\":2970:3206  function upgradeToAndCall(address newImplementation, bytes calldata data)... */\n    tag_4:\n      tag_13\n      0x04\n      dup1\n      calldatasize\n      sub\n      0x40\n      dup2\n      lt\n      iszero\n      tag_20\n      jumpi\n      0x00\n      dup1\n      revert\n    tag_20:\n      sub(shl(0xa0, 0x01), 0x01)\n      dup3\n      calldataload\n      and\n      swap2\n      swap1\n      dup2\n      add\n      swap1\n      0x40\n      dup2\n      add\n      0x20\n      dup3\n      add\n      calldataload\n      0x0100000000\n      dup2\n      gt\n      iszero\n      tag_21\n      jumpi\n      0x00\n      dup1\n      revert\n    tag_21:\n      dup3\n      add\n      dup4\n      0x20\n      dup3\n      add\n      gt\n      iszero\n      tag_22\n      jumpi\n      0x00\n      dup1\n      revert\n    tag_22:\n      dup1\n      calldataload\n      swap1\n      0x20\n      add\n      swap2\n      dup5\n      0x01\n      dup4\n      mul\n      dup5\n      add\n      gt\n      0x0100000000\n      dup4\n      gt\n      or\n      iszero\n      tag_23\n      jumpi\n      0x00\n      dup1\n      revert\n    tag_23:\n      pop\n      swap1\n      swap3\n      pop\n      swap1\n      pop\n      tag_24\n      jump\t// in\n        /* \"@aave/aave-stake/contracts/lib/BaseAdminUpgradeabilityProxy.sol\":1670:1766  function implementation() external ifAdmin returns (address) {... */\n    tag_5:\n      callvalue\n      dup1\n      iszero\n      tag_25\n      jumpi\n      0x00\n      dup1\n      revert\n    tag_25:\n      pop\n      tag_26\n      tag_27\n      jump\t// in\n    tag_26:\n      0x40\n      dup1\n      mload\n      sub(shl(0xa0, 0x01), 0x01)\n      swap1\n      swap3\n      and\n      dup3\n      mstore\n      mload\n      swap1\n      dup2\n      swap1\n      sub\n      0x20\n      add\n      swap1\n      return\n        /* \"@aave/aave-stake/contracts/lib/BaseAdminUpgradeabilityProxy.sol\":1942:2166  function changeAdmin(address newAdmin) external ifAdmin {... */\n    tag_6:\n      callvalue\n      dup1\n      iszero\n      tag_28\n      jumpi\n      0x00\n      dup1\n      revert\n    tag_28:\n      pop\n      tag_13\n      0x04\n      dup1\n      calldatasize\n      sub\n      0x20\n      dup2\n      lt\n      iszero\n      tag_30\n      jumpi\n      0x00\n      dup1\n      revert\n    tag_30:\n      pop\n      calldataload\n      sub(shl(0xa0, 0x01), 0x01)\n      and\n      tag_31\n      jump\t// in\n        /* \"@aave/aave-stake/contracts/lib/InitializableAdminUpgradeabilityProxy.sol\":1141:1464  function initialize(... */\n    tag_7:\n      tag_13\n      0x04\n      dup1\n      calldatasize\n      sub\n      0x60\n      dup2\n      lt\n      iszero\n      tag_33\n      jumpi\n      0x00\n      dup1\n      revert\n    tag_33:\n      sub(shl(0xa0, 0x01), 0x01)\n      dup3\n      calldataload\n      dup2\n      and\n      swap3\n      0x20\n      dup2\n      add\n      calldataload\n      swap1\n      swap2\n      and\n      swap2\n      dup2\n      add\n      swap1\n      0x60\n      dup2\n      add\n      0x40\n      dup3\n      add\n      calldataload\n      0x0100000000\n      dup2\n      gt\n      iszero\n      tag_34\n      jumpi\n      0x00\n      dup1\n      revert\n    tag_34:\n      dup3\n      add\n      dup4\n      0x20\n      dup3\n      add\n      gt\n      iszero\n      tag_35\n      jumpi\n      0x00\n      dup1\n      revert\n    tag_35:\n      dup1\n      calldataload\n      swap1\n      0x20\n      add\n      swap2\n      dup5\n      0x01\n      dup4\n      mul\n      dup5\n      add\n      gt\n      0x0100000000\n      dup4\n      gt\n      or\n      iszero\n      tag_36\n      jumpi\n      0x00\n      dup1\n      revert\n    tag_36:\n      swap2\n      swap1\n      dup1\n      dup1\n      0x1f\n      add\n      0x20\n      dup1\n      swap2\n      div\n      mul\n      0x20\n      add\n      mload(0x40)\n      swap1\n      dup2\n      add\n      0x40\n      mstore\n      dup1\n      swap4\n      swap3\n      swap2\n      swap1\n      dup2\n      dup2\n      mstore\n      0x20\n      add\n      dup4\n      dup4\n      dup1\n      dup3\n      dup5\n      calldatacopy\n      0x00\n      swap3\n      add\n      swap2\n      swap1\n      swap2\n      mstore\n      pop\n      swap3\n      swap6\n      pop\n      tag_37\n      swap5\n      pop\n      pop\n      pop\n      pop\n      pop\n      jump\t// in\n        /* \"@aave/aave-stake/contracts/lib/InitializableUpgradeabilityProxy.sol\":962:1327  function initialize(address _logic, bytes memory _data) public payable {... */\n    tag_8:\n      tag_13\n      0x04\n      dup1\n      calldatasize\n      sub\n      0x40\n      dup2\n      lt\n      iszero\n      tag_39\n      jumpi\n      0x00\n      dup1\n      revert\n    tag_39:\n      sub(shl(0xa0, 0x01), 0x01)\n      dup3\n      calldataload\n      and\n      swap2\n      swap1\n      dup2\n      add\n      swap1\n      0x40\n      dup2\n      add\n      0x20\n      dup3\n      add\n      calldataload\n      0x0100000000\n      dup2\n      gt\n      iszero\n      tag_40\n      jumpi\n      0x00\n      dup1\n      revert\n    tag_40:\n      dup3\n      add\n      dup4\n      0x20\n      dup3\n      add\n      gt\n      iszero\n      tag_41\n      jumpi\n      0x00\n      dup1\n      revert\n    tag_41:\n      dup1\n      calldataload\n      swap1\n      0x20\n      add\n      swap2\n      dup5\n      0x01\n      dup4\n      mul\n      dup5\n      add\n      gt\n      0x0100000000\n      dup4\n      gt\n      or\n      iszero\n      tag_42\n      jumpi\n      0x00\n      dup1\n      revert\n    tag_42:\n      swap2\n      swap1\n      dup1\n      dup1\n      0x1f\n      add\n      0x20\n      dup1\n      swap2\n      div\n      mul\n      0x20\n      add\n      mload(0x40)\n      swap1\n      dup2\n      add\n      0x40\n      mstore\n      dup1\n      swap4\n      swap3\n      swap2\n      swap1\n      dup2\n      dup2\n      mstore\n      0x20\n      add\n      dup4\n      dup4\n      dup1\n      dup3\n      dup5\n      calldatacopy\n      0x00\n      swap3\n      add\n      swap2\n      swap1\n      swap2\n      mstore\n      pop\n      swap3\n      swap6\n      pop\n      tag_43\n      swap5\n      pop\n      pop\n      pop\n      pop\n      pop\n      jump\t// in\n        /* \"@aave/aave-stake/contracts/lib/BaseAdminUpgradeabilityProxy.sol\":1528:1606  function admin() external ifAdmin returns (address) {... */\n    tag_9:\n      callvalue\n      dup1\n      iszero\n      tag_44\n      jumpi\n      0x00\n      dup1\n      revert\n    tag_44:\n      pop\n      tag_26\n      tag_46\n      jump\t// in\n        /* \"@aave/aave-stake/contracts/lib/Proxy.sol\":2167:2257  function _fallback() internal {... */\n    tag_14:\n        /* \"@aave/aave-stake/contracts/lib/Proxy.sol\":2203:2218  _willFallback() */\n      tag_48\n        /* \"@aave/aave-stake/contracts/lib/Proxy.sol\":2203:2216  _willFallback */\n      tag_49\n        /* \"@aave/aave-stake/contracts/lib/Proxy.sol\":2203:2218  _willFallback() */\n      jump\t// in\n    tag_48:\n        /* \"@aave/aave-stake/contracts/lib/Proxy.sol\":2224:2252  _delegate(_implementation()) */\n      tag_50\n        /* \"@aave/aave-stake/contracts/lib/Proxy.sol\":2234:2251  _implementation() */\n      tag_51\n        /* \"@aave/aave-stake/contracts/lib/Proxy.sol\":2234:2249  _implementation */\n      tag_52\n        /* \"@aave/aave-stake/contracts/lib/Proxy.sol\":2234:2251  _implementation() */\n      jump\t// in\n    tag_51:\n        /* \"@aave/aave-stake/contracts/lib/Proxy.sol\":2224:2233  _delegate */\n      tag_53\n        /* \"@aave/aave-stake/contracts/lib/Proxy.sol\":2224:2252  _delegate(_implementation()) */\n      jump\t// in\n    tag_50:\n        /* \"@aave/aave-stake/contracts/lib/Proxy.sol\":2167:2257  function _fallback() internal {... */\n      jump\t// out\n        /* \"@aave/aave-stake/contracts/lib/BaseAdminUpgradeabilityProxy.sol\":2350:2453  function upgradeTo(address newImplementation) external ifAdmin {... */\n    tag_18:\n        /* \"@aave/aave-stake/contracts/lib/BaseAdminUpgradeabilityProxy.sol\":1405:1413  _admin() */\n      tag_55\n        /* \"@aave/aave-stake/contracts/lib/BaseAdminUpgradeabilityProxy.sol\":1405:1411  _admin */\n      tag_56\n        /* \"@aave/aave-stake/contracts/lib/BaseAdminUpgradeabilityProxy.sol\":1405:1413  _admin() */\n      jump\t// in\n    tag_55:\n      sub(shl(0xa0, 0x01), 0x01)\n        /* \"@aave/aave-stake/contracts/lib/BaseAdminUpgradeabilityProxy.sol\":1391:1413  msg.sender == _admin() */\n      and\n        /* \"@aave/aave-stake/contracts/lib/BaseAdminUpgradeabilityProxy.sol\":1391:1401  msg.sender */\n      caller\n      sub(shl(0xa0, 0x01), 0x01)\n        /* \"@aave/aave-stake/contracts/lib/BaseAdminUpgradeabilityProxy.sol\":1391:1413  msg.sender == _admin() */\n      and\n      eq\n        /* \"@aave/aave-stake/contracts/lib/BaseAdminUpgradeabilityProxy.sol\":1387:1463  if (msg.sender == _admin()) {... */\n      iszero\n      tag_57\n      jumpi\n        /* \"@aave/aave-stake/contracts/lib/BaseAdminUpgradeabilityProxy.sol\":2419:2448  _upgradeTo(newImplementation) */\n      tag_59\n        /* \"@aave/aave-stake/contracts/lib/BaseAdminUpgradeabilityProxy.sol\":2430:2447  newImplementation */\n      dup2\n        /* \"@aave/aave-stake/contracts/lib/BaseAdminUpgradeabilityProxy.sol\":2419:2429  _upgradeTo */\n      tag_60\n        /* \"@aave/aave-stake/contracts/lib/BaseAdminUpgradeabilityProxy.sol\":2419:2448  _upgradeTo(newImplementation) */\n      jump\t// in\n    tag_59:\n        /* \"@aave/aave-stake/contracts/lib/BaseAdminUpgradeabilityProxy.sol\":1387:1463  if (msg.sender == _admin()) {... */\n      jump(tag_62)\n    tag_57:\n        /* \"@aave/aave-stake/contracts/lib/BaseAdminUpgradeabilityProxy.sol\":1445:1456  _fallback() */\n      tag_62\n        /* \"@aave/aave-stake/contracts/lib/BaseAdminUpgradeabilityProxy.sol\":1445:1454  _fallback */\n      tag_14\n        /* \"@aave/aave-stake/contracts/lib/BaseAdminUpgradeabilityProxy.sol\":1445:1456  _fallback() */\n      jump\t// in\n    tag_62:\n        /* \"@aave/aave-stake/contracts/lib/BaseAdminUpgradeabilityProxy.sol\":2350:2453  function upgradeTo(address newImplementation) external ifAdmin {... */\n      pop\n      jump\t// out\n        /* \"@aave/aave-stake/contracts/lib/BaseAdminUpgradeabilityProxy.sol\":2970:3206  function upgradeToAndCall(address newImplementation, bytes calldata data)... */\n    tag_24:\n        /* \"@aave/aave-stake/contracts/lib/BaseAdminUpgradeabilityProxy.sol\":1405:1413  _admin() */\n      tag_64\n        /* \"@aave/aave-stake/contracts/lib/BaseAdminUpgradeabilityProxy.sol\":1405:1411  _admin */\n      tag_56\n        /* \"@aave/aave-stake/contracts/lib/BaseAdminUpgradeabilityProxy.sol\":1405:1413  _admin() */\n      jump\t// in\n    tag_64:\n      sub(shl(0xa0, 0x01), 0x01)\n        /* \"@aave/aave-stake/contracts/lib/BaseAdminUpgradeabilityProxy.sol\":1391:1413  msg.sender == _admin() */\n      and\n        /* \"@aave/aave-stake/contracts/lib/BaseAdminUpgradeabilityProxy.sol\":1391:1401  msg.sender */\n      caller\n      sub(shl(0xa0, 0x01), 0x01)\n        /* \"@aave/aave-stake/contracts/lib/BaseAdminUpgradeabilityProxy.sol\":1391:1413  msg.sender == _admin() */\n      and\n      eq\n        /* \"@aave/aave-stake/contracts/lib/BaseAdminUpgradeabilityProxy.sol\":1387:1463  if (msg.sender == _admin()) {... */\n      iszero\n      tag_65\n      jumpi\n        /* \"@aave/aave-stake/contracts/lib/BaseAdminUpgradeabilityProxy.sol\":3089:3118  _upgradeTo(newImplementation) */\n      tag_67\n        /* \"@aave/aave-stake/contracts/lib/BaseAdminUpgradeabilityProxy.sol\":3100:3117  newImplementation */\n      dup4\n        /* \"@aave/aave-stake/contracts/lib/BaseAdminUpgradeabilityProxy.sol\":3089:3099  _upgradeTo */\n      tag_60\n        /* \"@aave/aave-stake/contracts/lib/BaseAdminUpgradeabilityProxy.sol\":3089:3118  _upgradeTo(newImplementation) */\n      jump\t// in\n    tag_67:\n        /* \"@aave/aave-stake/contracts/lib/BaseAdminUpgradeabilityProxy.sol\":3125:3137  bool success */\n      0x00\n        /* \"@aave/aave-stake/contracts/lib/BaseAdminUpgradeabilityProxy.sol\":3143:3160  newImplementation */\n      dup4\n      sub(shl(0xa0, 0x01), 0x01)\n        /* \"@aave/aave-stake/contracts/lib/BaseAdminUpgradeabilityProxy.sol\":3143:3173  newImplementation.delegatecall */\n      and\n        /* \"@aave/aave-stake/contracts/lib/BaseAdminUpgradeabilityProxy.sol\":3174:3178  data */\n      dup4\n      dup4\n        /* \"@aave/aave-stake/contracts/lib/BaseAdminUpgradeabilityProxy.sol\":3143:3179  newImplementation.delegatecall(data) */\n      mload(0x40)\n      dup1\n      dup4\n      dup4\n      dup1\n      dup3\n      dup5\n      calldatacopy\n      mload(0x40)\n      swap3\n      add\n      swap5\n      pop\n      0x00\n      swap4\n      pop\n      swap1\n      swap2\n      pop\n      pop\n      dup1\n      dup4\n      sub\n      dup2\n      dup6\n      gas\n      delegatecall\n      swap2\n      pop\n      pop\n      returndatasize\n      dup1\n      0x00\n      dup2\n      eq\n      tag_70\n      jumpi\n      mload(0x40)\n      swap2\n      pop\n      and(add(returndatasize, 0x3f), not(0x1f))\n      dup3\n      add\n      0x40\n      mstore\n      returndatasize\n      dup3\n      mstore\n      returndatasize\n      0x00\n      0x20\n      dup5\n      add\n      returndatacopy\n      jump(tag_69)\n    tag_70:\n      0x60\n      swap2\n      pop\n    tag_69:\n      pop\n        /* \"@aave/aave-stake/contracts/lib/BaseAdminUpgradeabilityProxy.sol\":3124:3179  (bool success, ) = newImplementation.delegatecall(data) */\n      pop\n      swap1\n      pop\n        /* \"@aave/aave-stake/contracts/lib/BaseAdminUpgradeabilityProxy.sol\":3193:3200  success */\n      dup1\n        /* \"@aave/aave-stake/contracts/lib/BaseAdminUpgradeabilityProxy.sol\":3185:3201  require(success) */\n      tag_71\n      jumpi\n      0x00\n      dup1\n      revert\n    tag_71:\n        /* \"@aave/aave-stake/contracts/lib/BaseAdminUpgradeabilityProxy.sol\":1423:1424  _ */\n      pop\n        /* \"@aave/aave-stake/contracts/lib/BaseAdminUpgradeabilityProxy.sol\":1387:1463  if (msg.sender == _admin()) {... */\n      jump(tag_73)\n    tag_65:\n        /* \"@aave/aave-stake/contracts/lib/BaseAdminUpgradeabilityProxy.sol\":1445:1456  _fallback() */\n      tag_73\n        /* \"@aave/aave-stake/contracts/lib/BaseAdminUpgradeabilityProxy.sol\":1445:1454  _fallback */\n      tag_14\n        /* \"@aave/aave-stake/contracts/lib/BaseAdminUpgradeabilityProxy.sol\":1445:1456  _fallback() */\n      jump\t// in\n    tag_73:\n        /* \"@aave/aave-stake/contracts/lib/BaseAdminUpgradeabilityProxy.sol\":2970:3206  function upgradeToAndCall(address newImplementation, bytes calldata data)... */\n      pop\n      pop\n      pop\n      jump\t// out\n        /* \"@aave/aave-stake/contracts/lib/BaseAdminUpgradeabilityProxy.sol\":1670:1766  function implementation() external ifAdmin returns (address) {... */\n    tag_27:\n        /* \"@aave/aave-stake/contracts/lib/BaseAdminUpgradeabilityProxy.sol\":1722:1729  address */\n      0x00\n        /* \"@aave/aave-stake/contracts/lib/BaseAdminUpgradeabilityProxy.sol\":1405:1413  _admin() */\n      tag_75\n        /* \"@aave/aave-stake/contracts/lib/BaseAdminUpgradeabilityProxy.sol\":1405:1411  _admin */\n      tag_56\n        /* \"@aave/aave-stake/contracts/lib/BaseAdminUpgradeabilityProxy.sol\":1405:1413  _admin() */\n      jump\t// in\n    tag_75:\n      sub(shl(0xa0, 0x01), 0x01)\n        /* \"@aave/aave-stake/contracts/lib/BaseAdminUpgradeabilityProxy.sol\":1391:1413  msg.sender == _admin() */\n      and\n        /* \"@aave/aave-stake/contracts/lib/BaseAdminUpgradeabilityProxy.sol\":1391:1401  msg.sender */\n      caller\n      sub(shl(0xa0, 0x01), 0x01)\n        /* \"@aave/aave-stake/contracts/lib/BaseAdminUpgradeabilityProxy.sol\":1391:1413  msg.sender == _admin() */\n      and\n      eq\n        /* \"@aave/aave-stake/contracts/lib/BaseAdminUpgradeabilityProxy.sol\":1387:1463  if (msg.sender == _admin()) {... */\n      iszero\n      tag_76\n      jumpi\n        /* \"@aave/aave-stake/contracts/lib/BaseAdminUpgradeabilityProxy.sol\":1744:1761  _implementation() */\n      tag_78\n        /* \"@aave/aave-stake/contracts/lib/BaseAdminUpgradeabilityProxy.sol\":1744:1759  _implementation */\n      tag_52\n        /* \"@aave/aave-stake/contracts/lib/BaseAdminUpgradeabilityProxy.sol\":1744:1761  _implementation() */\n      jump\t// in\n    tag_78:\n        /* \"@aave/aave-stake/contracts/lib/BaseAdminUpgradeabilityProxy.sol\":1737:1761  return _implementation() */\n      swap1\n      pop\n        /* \"@aave/aave-stake/contracts/lib/BaseAdminUpgradeabilityProxy.sol\":1387:1463  if (msg.sender == _admin()) {... */\n      jump(tag_80)\n    tag_76:\n        /* \"@aave/aave-stake/contracts/lib/BaseAdminUpgradeabilityProxy.sol\":1445:1456  _fallback() */\n      tag_80\n        /* \"@aave/aave-stake/contracts/lib/BaseAdminUpgradeabilityProxy.sol\":1445:1454  _fallback */\n      tag_14\n        /* \"@aave/aave-stake/contracts/lib/BaseAdminUpgradeabilityProxy.sol\":1445:1456  _fallback() */\n      jump\t// in\n    tag_80:\n        /* \"@aave/aave-stake/contracts/lib/BaseAdminUpgradeabilityProxy.sol\":1670:1766  function implementation() external ifAdmin returns (address) {... */\n      swap1\n      jump\t// out\n        /* \"@aave/aave-stake/contracts/lib/BaseAdminUpgradeabilityProxy.sol\":1942:2166  function changeAdmin(address newAdmin) external ifAdmin {... */\n    tag_31:\n        /* \"@aave/aave-stake/contracts/lib/BaseAdminUpgradeabilityProxy.sol\":1405:1413  _admin() */\n      tag_82\n        /* \"@aave/aave-stake/contracts/lib/BaseAdminUpgradeabilityProxy.sol\":1405:1411  _admin */\n      tag_56\n        /* \"@aave/aave-stake/contracts/lib/BaseAdminUpgradeabilityProxy.sol\":1405:1413  _admin() */\n      jump\t// in\n    tag_82:\n      sub(shl(0xa0, 0x01), 0x01)\n        /* \"@aave/aave-stake/contracts/lib/BaseAdminUpgradeabilityProxy.sol\":1391:1413  msg.sender == _admin() */\n      and\n        /* \"@aave/aave-stake/contracts/lib/BaseAdminUpgradeabilityProxy.sol\":1391:1401  msg.sender */\n      caller\n      sub(shl(0xa0, 0x01), 0x01)\n        /* \"@aave/aave-stake/contracts/lib/BaseAdminUpgradeabilityProxy.sol\":1391:1413  msg.sender == _admin() */\n      and\n      eq\n        /* \"@aave/aave-stake/contracts/lib/BaseAdminUpgradeabilityProxy.sol\":1387:1463  if (msg.sender == _admin()) {... */\n      iszero\n      tag_57\n      jumpi\n      sub(shl(0xa0, 0x01), 0x01)\n        /* \"@aave/aave-stake/contracts/lib/BaseAdminUpgradeabilityProxy.sol\":2012:2034  newAdmin != address(0) */\n      dup2\n      and\n        /* \"@aave/aave-stake/contracts/lib/BaseAdminUpgradeabilityProxy.sol\":2004:2093  require(newAdmin != address(0), 'Cannot change the admin of a proxy to the zero address') */\n      tag_85\n      jumpi\n      mload(0x40)\n      shl(0xe5, 0x461bcd)\n      dup2\n      mstore\n      0x04\n      add\n      dup1\n      dup1\n      0x20\n      add\n      dup3\n      dup2\n      sub\n      dup3\n      mstore\n      0x36\n      dup2\n      mstore\n      0x20\n      add\n      dup1\n      data_37112268ceb11e15373f32f9374a1f3287d0a3e6e5a9a435ac06367e6cd0cf00\n      0x36\n      swap2\n      codecopy\n      0x40\n      add\n      swap2\n      pop\n      pop\n      mload(0x40)\n      dup1\n      swap2\n      sub\n      swap1\n      revert\n    tag_85:\n        /* \"@aave/aave-stake/contracts/lib/BaseAdminUpgradeabilityProxy.sol\":2104:2136  AdminChanged(_admin(), newAdmin) */\n      0x7e644d79422f17c01e4894b5f4f588d331ebfa28653d42ae832dc59e38c9798f\n        /* \"@aave/aave-stake/contracts/lib/BaseAdminUpgradeabilityProxy.sol\":2117:2125  _admin() */\n      tag_86\n        /* \"@aave/aave-stake/contracts/lib/BaseAdminUpgradeabilityProxy.sol\":2117:2123  _admin */\n      tag_56\n        /* \"@aave/aave-stake/contracts/lib/BaseAdminUpgradeabilityProxy.sol\":2117:2125  _admin() */\n      jump\t// in\n    tag_86:\n        /* \"@aave/aave-stake/contracts/lib/BaseAdminUpgradeabilityProxy.sol\":2104:2136  AdminChanged(_admin(), newAdmin) */\n      0x40\n      dup1\n      mload\n      sub(shl(0xa0, 0x01), 0x01)\n      swap3\n      dup4\n      and\n      dup2\n      mstore\n      swap2\n      dup5\n      and\n      0x20\n      dup4\n      add\n      mstore\n      dup1\n      mload\n      swap2\n      dup3\n      swap1\n      sub\n      add\n      swap1\n      log1\n        /* \"@aave/aave-stake/contracts/lib/BaseAdminUpgradeabilityProxy.sol\":2142:2161  _setAdmin(newAdmin) */\n      tag_59\n        /* \"@aave/aave-stake/contracts/lib/BaseAdminUpgradeabilityProxy.sol\":2152:2160  newAdmin */\n      dup2\n        /* \"@aave/aave-stake/contracts/lib/BaseAdminUpgradeabilityProxy.sol\":2142:2151  _setAdmin */\n      tag_88\n        /* \"@aave/aave-stake/contracts/lib/BaseAdminUpgradeabilityProxy.sol\":2142:2161  _setAdmin(newAdmin) */\n      jump\t// in\n        /* \"@aave/aave-stake/contracts/lib/InitializableAdminUpgradeabilityProxy.sol\":1141:1464  function initialize(... */\n    tag_37:\n        /* \"@aave/aave-stake/contracts/lib/InitializableAdminUpgradeabilityProxy.sol\":1287:1288  0 */\n      0x00\n        /* \"@aave/aave-stake/contracts/lib/InitializableAdminUpgradeabilityProxy.sol\":1258:1275  _implementation() */\n      tag_92\n        /* \"@aave/aave-stake/contracts/lib/InitializableAdminUpgradeabilityProxy.sol\":1258:1273  _implementation */\n      tag_52\n        /* \"@aave/aave-stake/contracts/lib/InitializableAdminUpgradeabilityProxy.sol\":1258:1275  _implementation() */\n      jump\t// in\n    tag_92:\n      sub(shl(0xa0, 0x01), 0x01)\n        /* \"@aave/aave-stake/contracts/lib/InitializableAdminUpgradeabilityProxy.sol\":1258:1289  _implementation() == address(0) */\n      and\n      eq\n        /* \"@aave/aave-stake/contracts/lib/InitializableAdminUpgradeabilityProxy.sol\":1250:1290  require(_implementation() == address(0)) */\n      tag_93\n      jumpi\n      0x00\n      dup1\n      revert\n    tag_93:\n        /* \"@aave/aave-stake/contracts/lib/InitializableAdminUpgradeabilityProxy.sol\":1296:1354  InitializableUpgradeabilityProxy.initialize(_logic, _data) */\n      tag_94\n        /* \"@aave/aave-stake/contracts/lib/InitializableAdminUpgradeabilityProxy.sol\":1340:1346  _logic */\n      dup4\n        /* \"@aave/aave-stake/contracts/lib/InitializableAdminUpgradeabilityProxy.sol\":1348:1353  _data */\n      dup3\n        /* \"@aave/aave-stake/contracts/lib/InitializableAdminUpgradeabilityProxy.sol\":1296:1339  InitializableUpgradeabilityProxy.initialize */\n      tag_43\n        /* \"@aave/aave-stake/contracts/lib/InitializableAdminUpgradeabilityProxy.sol\":1296:1354  InitializableUpgradeabilityProxy.initialize(_logic, _data) */\n      jump\t// in\n    tag_94:\n        /* \"@aave/aave-stake/contracts/lib/InitializableAdminUpgradeabilityProxy.sol\":1442:1459  _setAdmin(_admin) */\n      tag_73\n        /* \"@aave/aave-stake/contracts/lib/InitializableAdminUpgradeabilityProxy.sol\":1452:1458  _admin */\n      dup3\n        /* \"@aave/aave-stake/contracts/lib/InitializableAdminUpgradeabilityProxy.sol\":1442:1451  _setAdmin */\n      tag_88\n        /* \"@aave/aave-stake/contracts/lib/InitializableAdminUpgradeabilityProxy.sol\":1442:1459  _setAdmin(_admin) */\n      jump\t// in\n        /* \"@aave/aave-stake/contracts/lib/InitializableUpgradeabilityProxy.sol\":962:1327  function initialize(address _logic, bytes memory _data) public payable {... */\n    tag_43:\n        /* \"@aave/aave-stake/contracts/lib/InitializableUpgradeabilityProxy.sol\":1076:1077  0 */\n      0x00\n        /* \"@aave/aave-stake/contracts/lib/InitializableUpgradeabilityProxy.sol\":1047:1064  _implementation() */\n      tag_98\n        /* \"@aave/aave-stake/contracts/lib/InitializableUpgradeabilityProxy.sol\":1047:1062  _implementation */\n      tag_52\n        /* \"@aave/aave-stake/contracts/lib/InitializableUpgradeabilityProxy.sol\":1047:1064  _implementation() */\n      jump\t// in\n    tag_98:\n      sub(shl(0xa0, 0x01), 0x01)\n        /* \"@aave/aave-stake/contracts/lib/InitializableUpgradeabilityProxy.sol\":1047:1078  _implementation() == address(0) */\n      and\n      eq\n        /* \"@aave/aave-stake/contracts/lib/InitializableUpgradeabilityProxy.sol\":1039:1079  require(_implementation() == address(0)) */\n      tag_99\n      jumpi\n      0x00\n      dup1\n      revert\n    tag_99:\n        /* \"@aave/aave-stake/contracts/lib/InitializableUpgradeabilityProxy.sol\":1185:1211  _setImplementation(_logic) */\n      tag_101\n        /* \"@aave/aave-stake/contracts/lib/InitializableUpgradeabilityProxy.sol\":1204:1210  _logic */\n      dup3\n        /* \"@aave/aave-stake/contracts/lib/InitializableUpgradeabilityProxy.sol\":1185:1203  _setImplementation */\n      tag_102\n        /* \"@aave/aave-stake/contracts/lib/InitializableUpgradeabilityProxy.sol\":1185:1211  _setImplementation(_logic) */\n      jump\t// in\n    tag_101:\n        /* \"@aave/aave-stake/contracts/lib/InitializableUpgradeabilityProxy.sol\":1221:1233  _data.length */\n      dup1\n      mload\n        /* \"@aave/aave-stake/contracts/lib/InitializableUpgradeabilityProxy.sol\":1221:1237  _data.length > 0 */\n      iszero\n        /* \"@aave/aave-stake/contracts/lib/InitializableUpgradeabilityProxy.sol\":1217:1323  if (_data.length > 0) {... */\n      tag_103\n      jumpi\n        /* \"@aave/aave-stake/contracts/lib/InitializableUpgradeabilityProxy.sol\":1248:1260  bool success */\n      0x00\n        /* \"@aave/aave-stake/contracts/lib/InitializableUpgradeabilityProxy.sol\":1266:1272  _logic */\n      dup3\n      sub(shl(0xa0, 0x01), 0x01)\n        /* \"@aave/aave-stake/contracts/lib/InitializableUpgradeabilityProxy.sol\":1266:1285  _logic.delegatecall */\n      and\n        /* \"@aave/aave-stake/contracts/lib/InitializableUpgradeabilityProxy.sol\":1286:1291  _data */\n      dup3\n        /* \"@aave/aave-stake/contracts/lib/InitializableUpgradeabilityProxy.sol\":1266:1292  _logic.delegatecall(_data) */\n      mload(0x40)\n      dup1\n      dup3\n      dup1\n      mload\n      swap1\n      0x20\n      add\n      swap1\n      dup1\n      dup4\n      dup4\n    tag_104:\n      0x20\n      dup4\n      lt\n      tag_106\n      jumpi\n      dup1\n      mload\n      dup3\n      mstore\n      not(0x1f)\n      swap1\n      swap3\n      add\n      swap2\n      0x20\n      swap2\n      dup3\n      add\n      swap2\n      add\n      jump(tag_104)\n    tag_106:\n      0x01\n      dup4\n      0x20\n      sub\n      0x0100\n      exp\n      sub\n      dup1\n      not\n      dup3\n      mload\n      and\n      dup2\n      dup5\n      mload\n      and\n      dup1\n      dup3\n      or\n      dup6\n      mstore\n      pop\n      pop\n      pop\n      pop\n      pop\n      pop\n      swap1\n      pop\n      add\n      swap2\n      pop\n      pop\n      0x00\n      mload(0x40)\n      dup1\n      dup4\n      sub\n      dup2\n      dup6\n      gas\n      delegatecall\n      swap2\n      pop\n      pop\n      returndatasize\n      dup1\n      0x00\n      dup2\n      eq\n      tag_109\n      jumpi\n      mload(0x40)\n      swap2\n      pop\n      and(add(returndatasize, 0x3f), not(0x1f))\n      dup3\n      add\n      0x40\n      mstore\n      returndatasize\n      dup3\n      mstore\n      returndatasize\n      0x00\n      0x20\n      dup5\n      add\n      returndatacopy\n      jump(tag_108)\n    tag_109:\n      0x60\n      swap2\n      pop\n    tag_108:\n      pop\n        /* \"@aave/aave-stake/contracts/lib/InitializableUpgradeabilityProxy.sol\":1247:1292  (bool success, ) = _logic.delegatecall(_data) */\n      pop\n      swap1\n      pop\n        /* \"@aave/aave-stake/contracts/lib/InitializableUpgradeabilityProxy.sol\":1308:1315  success */\n      dup1\n        /* \"@aave/aave-stake/contracts/lib/InitializableUpgradeabilityProxy.sol\":1300:1316  require(success) */\n      tag_73\n      jumpi\n      0x00\n      dup1\n      revert\n        /* \"@aave/aave-stake/contracts/lib/InitializableUpgradeabilityProxy.sol\":1217:1323  if (_data.length > 0) {... */\n    tag_103:\n        /* \"@aave/aave-stake/contracts/lib/InitializableUpgradeabilityProxy.sol\":962:1327  function initialize(address _logic, bytes memory _data) public payable {... */\n      pop\n      pop\n      jump\t// out\n        /* \"@aave/aave-stake/contracts/lib/BaseAdminUpgradeabilityProxy.sol\":1528:1606  function admin() external ifAdmin returns (address) {... */\n    tag_46:\n        /* \"@aave/aave-stake/contracts/lib/BaseAdminUpgradeabilityProxy.sol\":1571:1578  address */\n      0x00\n        /* \"@aave/aave-stake/contracts/lib/BaseAdminUpgradeabilityProxy.sol\":1405:1413  _admin() */\n      tag_112\n        /* \"@aave/aave-stake/contracts/lib/BaseAdminUpgradeabilityProxy.sol\":1405:1411  _admin */\n      tag_56\n        /* \"@aave/aave-stake/contracts/lib/BaseAdminUpgradeabilityProxy.sol\":1405:1413  _admin() */\n      jump\t// in\n    tag_112:\n      sub(shl(0xa0, 0x01), 0x01)\n        /* \"@aave/aave-stake/contracts/lib/BaseAdminUpgradeabilityProxy.sol\":1391:1413  msg.sender == _admin() */\n      and\n        /* \"@aave/aave-stake/contracts/lib/BaseAdminUpgradeabilityProxy.sol\":1391:1401  msg.sender */\n      caller\n      sub(shl(0xa0, 0x01), 0x01)\n        /* \"@aave/aave-stake/contracts/lib/BaseAdminUpgradeabilityProxy.sol\":1391:1413  msg.sender == _admin() */\n      and\n      eq\n        /* \"@aave/aave-stake/contracts/lib/BaseAdminUpgradeabilityProxy.sol\":1387:1463  if (msg.sender == _admin()) {... */\n      iszero\n      tag_76\n      jumpi\n        /* \"@aave/aave-stake/contracts/lib/BaseAdminUpgradeabilityProxy.sol\":1593:1601  _admin() */\n      tag_78\n        /* \"@aave/aave-stake/contracts/lib/BaseAdminUpgradeabilityProxy.sol\":1593:1599  _admin */\n      tag_56\n        /* \"@aave/aave-stake/contracts/lib/BaseAdminUpgradeabilityProxy.sol\":1593:1601  _admin() */\n      jump\t// in\n        /* \"@aave/aave-stake/contracts/lib/InitializableAdminUpgradeabilityProxy.sol\":1539:1674  function _willFallback() internal override(BaseAdminUpgradeabilityProxy, Proxy) {... */\n    tag_49:\n        /* \"@aave/aave-stake/contracts/lib/InitializableAdminUpgradeabilityProxy.sol\":1625:1669  BaseAdminUpgradeabilityProxy._willFallback() */\n      tag_50\n        /* \"@aave/aave-stake/contracts/lib/InitializableAdminUpgradeabilityProxy.sol\":1625:1667  BaseAdminUpgradeabilityProxy._willFallback */\n      tag_120\n        /* \"@aave/aave-stake/contracts/lib/InitializableAdminUpgradeabilityProxy.sol\":1625:1669  BaseAdminUpgradeabilityProxy._willFallback() */\n      jump\t// in\n        /* \"@aave/aave-stake/contracts/lib/BaseUpgradeabilityProxy.sol\":1100:1265  function _implementation() internal view override returns (address impl) {... */\n    tag_52:\n        /* \"@aave/aave-stake/contracts/lib/BaseUpgradeabilityProxy.sol\":915:981  0x360894a13ba1a3210667c828492db98dca3e2076cc3735a920a3ca505d382bbc */\n      0x360894a13ba1a3210667c828492db98dca3e2076cc3735a920a3ca505d382bbc\n        /* \"@aave/aave-stake/contracts/lib/BaseUpgradeabilityProxy.sol\":1244:1255  sload(slot) */\n      sload\n      swap1\n        /* \"@aave/aave-stake/contracts/lib/BaseUpgradeabilityProxy.sol\":1228:1261  {... */\n      jump\t// out\n        /* \"@aave/aave-stake/contracts/lib/Proxy.sol\":1034:1819  function _delegate(address implementation) internal {... */\n    tag_53:\n        /* \"@aave/aave-stake/contracts/lib/Proxy.sol\":1336:1350  calldatasize() */\n      calldatasize\n        /* \"@aave/aave-stake/contracts/lib/Proxy.sol\":1333:1334  0 */\n      0x00\n        /* \"@aave/aave-stake/contracts/lib/Proxy.sol\":1330:1331  0 */\n      dup1\n        /* \"@aave/aave-stake/contracts/lib/Proxy.sol\":1317:1351  calldatacopy(0, 0, calldatasize()) */\n      calldatacopy\n        /* \"@aave/aave-stake/contracts/lib/Proxy.sol\":1532:1533  0 */\n      0x00\n        /* \"@aave/aave-stake/contracts/lib/Proxy.sol\":1529:1530  0 */\n      dup1\n        /* \"@aave/aave-stake/contracts/lib/Proxy.sol\":1513:1527  calldatasize() */\n      calldatasize\n        /* \"@aave/aave-stake/contracts/lib/Proxy.sol\":1510:1511  0 */\n      0x00\n        /* \"@aave/aave-stake/contracts/lib/Proxy.sol\":1494:1508  implementation */\n      dup5\n        /* \"@aave/aave-stake/contracts/lib/Proxy.sol\":1487:1492  gas() */\n      gas\n        /* \"@aave/aave-stake/contracts/lib/Proxy.sol\":1474:1534  delegatecall(gas(), implementation, 0, calldatasize(), 0, 0) */\n      delegatecall\n        /* \"@aave/aave-stake/contracts/lib/Proxy.sol\":1596:1612  returndatasize() */\n      returndatasize\n        /* \"@aave/aave-stake/contracts/lib/Proxy.sol\":1593:1594  0 */\n      0x00\n        /* \"@aave/aave-stake/contracts/lib/Proxy.sol\":1590:1591  0 */\n      dup1\n        /* \"@aave/aave-stake/contracts/lib/Proxy.sol\":1575:1613  returndatacopy(0, 0, returndatasize()) */\n      returndatacopy\n        /* \"@aave/aave-stake/contracts/lib/Proxy.sol\":1628:1634  result */\n      dup1\n        /* \"@aave/aave-stake/contracts/lib/Proxy.sol\":1687:1743  case 0 {... */\n      dup1\n      iszero\n      tag_124\n      jumpi\n        /* \"@aave/aave-stake/contracts/lib/Proxy.sol\":1782:1798  returndatasize() */\n      returndatasize\n        /* \"@aave/aave-stake/contracts/lib/Proxy.sol\":1779:1780  0 */\n      0x00\n        /* \"@aave/aave-stake/contracts/lib/Proxy.sol\":1772:1799  return(0, returndatasize()) */\n      return\n        /* \"@aave/aave-stake/contracts/lib/Proxy.sol\":1687:1743  case 0 {... */\n    tag_124:\n        /* \"@aave/aave-stake/contracts/lib/Proxy.sol\":1716:1732  returndatasize() */\n      returndatasize\n        /* \"@aave/aave-stake/contracts/lib/Proxy.sol\":1713:1714  0 */\n      0x00\n        /* \"@aave/aave-stake/contracts/lib/Proxy.sol\":1706:1733  revert(0, returndatasize()) */\n      revert\n        /* \"@aave/aave-stake/contracts/lib/BaseAdminUpgradeabilityProxy.sol\":3255:3391  function _admin() internal view returns (address adm) {... */\n    tag_56:\n        /* \"@aave/aave-stake/contracts/lib/BaseAdminUpgradeabilityProxy.sol\":1106:1172  0xb53127684a568b3173ae13b9f8a6016e243e63b6e8ee1178d6a717850b5d6103 */\n      0xb53127684a568b3173ae13b9f8a6016e243e63b6e8ee1178d6a717850b5d6103\n        /* \"@aave/aave-stake/contracts/lib/BaseAdminUpgradeabilityProxy.sol\":3370:3381  sload(slot) */\n      sload\n      swap1\n        /* \"@aave/aave-stake/contracts/lib/BaseAdminUpgradeabilityProxy.sol\":3355:3387  {... */\n      jump\t// out\n        /* \"@aave/aave-stake/contracts/lib/BaseUpgradeabilityProxy.sol\":1400:1542  function _upgradeTo(address newImplementation) internal {... */\n    tag_60:\n        /* \"@aave/aave-stake/contracts/lib/BaseUpgradeabilityProxy.sol\":1462:1499  _setImplementation(newImplementation) */\n      tag_127\n        /* \"@aave/aave-stake/contracts/lib/BaseUpgradeabilityProxy.sol\":1481:1498  newImplementation */\n      dup2\n        /* \"@aave/aave-stake/contracts/lib/BaseUpgradeabilityProxy.sol\":1462:1480  _setImplementation */\n      tag_102\n        /* \"@aave/aave-stake/contracts/lib/BaseUpgradeabilityProxy.sol\":1462:1499  _setImplementation(newImplementation) */\n      jump\t// in\n    tag_127:\n        /* \"@aave/aave-stake/contracts/lib/BaseUpgradeabilityProxy.sol\":1510:1537  Upgraded(newImplementation) */\n      mload(0x40)\n      sub(shl(0xa0, 0x01), 0x01)\n      dup3\n      and\n      swap1\n      0xbc7cd75a20ee27fd9adebab32041f755214dbc6bffa90cc0225b39da2e5c2d3b\n      swap1\n      0x00\n      swap1\n      log2\n        /* \"@aave/aave-stake/contracts/lib/BaseUpgradeabilityProxy.sol\":1400:1542  function _upgradeTo(address newImplementation) internal {... */\n      pop\n      jump\t// out\n        /* \"@aave/aave-stake/contracts/lib/BaseAdminUpgradeabilityProxy.sol\":3507:3640  function _setAdmin(address newAdmin) internal {... */\n    tag_88:\n        /* \"@aave/aave-stake/contracts/lib/BaseAdminUpgradeabilityProxy.sol\":1106:1172  0xb53127684a568b3173ae13b9f8a6016e243e63b6e8ee1178d6a717850b5d6103 */\n      0xb53127684a568b3173ae13b9f8a6016e243e63b6e8ee1178d6a717850b5d6103\n        /* \"@aave/aave-stake/contracts/lib/BaseAdminUpgradeabilityProxy.sol\":3608:3630  sstore(slot, newAdmin) */\n      sstore\n        /* \"@aave/aave-stake/contracts/lib/BaseAdminUpgradeabilityProxy.sol\":3600:3636  {... */\n      jump\t// out\n        /* \"@aave/aave-stake/contracts/lib/BaseUpgradeabilityProxy.sol\":1679:1982  function _setImplementation(address newImplementation) internal {... */\n    tag_102:\n        /* \"@aave/aave-stake/contracts/lib/BaseUpgradeabilityProxy.sol\":1764:1801  Address.isContract(newImplementation) */\n      tag_130\n        /* \"@aave/aave-stake/contracts/lib/BaseUpgradeabilityProxy.sol\":1783:1800  newImplementation */\n      dup2\n        /* \"@aave/aave-stake/contracts/lib/BaseUpgradeabilityProxy.sol\":1764:1782  Address.isContract */\n      tag_131\n        /* \"@aave/aave-stake/contracts/lib/BaseUpgradeabilityProxy.sol\":1764:1801  Address.isContract(newImplementation) */\n      jump\t// in\n    tag_130:\n        /* \"@aave/aave-stake/contracts/lib/BaseUpgradeabilityProxy.sol\":1749:1876  require(... */\n      tag_132\n      jumpi\n      mload(0x40)\n      shl(0xe5, 0x461bcd)\n      dup2\n      mstore\n      0x04\n      add\n      dup1\n      dup1\n      0x20\n      add\n      dup3\n      dup2\n      sub\n      dup3\n      mstore\n      0x3b\n      dup2\n      mstore\n      0x20\n      add\n      dup1\n      data_b5145a64ce8c406e5785204fe5b300f0ceda96d6636350b38fdccb9cd8c0c37c\n      0x3b\n      swap2\n      codecopy\n      0x40\n      add\n      swap2\n      pop\n      pop\n      mload(0x40)\n      dup1\n      swap2\n      sub\n      swap1\n      revert\n    tag_132:\n        /* \"@aave/aave-stake/contracts/lib/BaseUpgradeabilityProxy.sol\":915:981  0x360894a13ba1a3210667c828492db98dca3e2076cc3735a920a3ca505d382bbc */\n      0x360894a13ba1a3210667c828492db98dca3e2076cc3735a920a3ca505d382bbc\n        /* \"@aave/aave-stake/contracts/lib/BaseUpgradeabilityProxy.sol\":1941:1972  sstore(slot, newImplementation) */\n      sstore\n        /* \"@aave/aave-stake/contracts/lib/BaseUpgradeabilityProxy.sol\":1933:1978  {... */\n      jump\t// out\n        /* \"@aave/aave-stake/contracts/lib/BaseAdminUpgradeabilityProxy.sol\":3715:3889  function _willFallback() internal virtual override {... */\n    tag_120:\n        /* \"@aave/aave-stake/contracts/lib/BaseAdminUpgradeabilityProxy.sol\":3794:3802  _admin() */\n      tag_134\n        /* \"@aave/aave-stake/contracts/lib/BaseAdminUpgradeabilityProxy.sol\":3794:3800  _admin */\n      tag_56\n        /* \"@aave/aave-stake/contracts/lib/BaseAdminUpgradeabilityProxy.sol\":3794:3802  _admin() */\n      jump\t// in\n    tag_134:\n      sub(shl(0xa0, 0x01), 0x01)\n        /* \"@aave/aave-stake/contracts/lib/BaseAdminUpgradeabilityProxy.sol\":3780:3802  msg.sender != _admin() */\n      and\n        /* \"@aave/aave-stake/contracts/lib/BaseAdminUpgradeabilityProxy.sol\":3780:3790  msg.sender */\n      caller\n      sub(shl(0xa0, 0x01), 0x01)\n        /* \"@aave/aave-stake/contracts/lib/BaseAdminUpgradeabilityProxy.sol\":3780:3802  msg.sender != _admin() */\n      and\n      eq\n      iszero\n        /* \"@aave/aave-stake/contracts/lib/BaseAdminUpgradeabilityProxy.sol\":3772:3857  require(msg.sender != _admin(), 'Cannot call fallback function from the proxy admin') */\n      tag_135\n      jumpi\n      mload(0x40)\n      shl(0xe5, 0x461bcd)\n      dup2\n      mstore\n      0x04\n      add\n      dup1\n      dup1\n      0x20\n      add\n      dup3\n      dup2\n      sub\n      dup3\n      mstore\n      0x32\n      dup2\n      mstore\n      0x20\n      add\n      dup1\n      data_08b466bde770d6d309a22d90ec051a62ad397be6218a53e741989877ec297fc9\n      0x32\n      swap2\n      codecopy\n      0x40\n      add\n      swap2\n      pop\n      pop\n      mload(0x40)\n      dup1\n      swap2\n      sub\n      swap1\n      revert\n    tag_135:\n        /* \"@aave/aave-stake/contracts/lib/BaseAdminUpgradeabilityProxy.sol\":3863:3884  super._willFallback() */\n      tag_50\n        /* \"@aave/aave-stake/contracts/lib/BaseAdminUpgradeabilityProxy.sol\":3863:3882  super._willFallback */\n      tag_50\n        /* \"@aave/aave-stake/contracts/lib/BaseAdminUpgradeabilityProxy.sol\":3863:3884  super._willFallback() */\n      jump\t// in\n        /* \"@aave/aave-stake/contracts/lib/Address.sol\":743:1329  function isContract(address account) internal view returns (bool) {... */\n    tag_131:\n        /* \"@aave/aave-stake/contracts/lib/Address.sol\":803:807  bool */\n      0x00\n        /* \"@aave/aave-stake/contracts/lib/Address.sol\":1242:1262  extcodehash(account) */\n      dup2\n      extcodehash\n        /* \"@aave/aave-stake/contracts/lib/Address.sol\":1089:1155  0xc5d2460186f7233c927e7db2dcc703c0e500b653ca82273b7bfad8045d85a470 */\n      0xc5d2460186f7233c927e7db2dcc703c0e500b653ca82273b7bfad8045d85a470\n        /* \"@aave/aave-stake/contracts/lib/Address.sol\":1281:1304  codehash != accountHash */\n      dup2\n      dup2\n      eq\n      dup1\n      iszero\n      swap1\n        /* \"@aave/aave-stake/contracts/lib/Address.sol\":1281:1323  codehash != accountHash && codehash != 0x0 */\n      tag_139\n      jumpi\n      pop\n        /* \"@aave/aave-stake/contracts/lib/Address.sol\":1308:1323  codehash != 0x0 */\n      dup2\n      iszero\n      iszero\n        /* \"@aave/aave-stake/contracts/lib/Address.sol\":1281:1323  codehash != accountHash && codehash != 0x0 */\n    tag_139:\n        /* \"@aave/aave-stake/contracts/lib/Address.sol\":1273:1324  return (codehash != accountHash && codehash != 0x0) */\n      swap5\n        /* \"@aave/aave-stake/contracts/lib/Address.sol\":743:1329  function isContract(address account) internal view returns (bool) {... */\n      swap4\n      pop\n      pop\n      pop\n      pop\n      jump\t// out\n    stop\n    data_08b466bde770d6d309a22d90ec051a62ad397be6218a53e741989877ec297fc9 43616e6e6f742063616c6c2066616c6c6261636b2066756e6374696f6e2066726f6d207468652070726f78792061646d696e\n    data_37112268ceb11e15373f32f9374a1f3287d0a3e6e5a9a435ac06367e6cd0cf00 43616e6e6f74206368616e6765207468652061646d696e206f6620612070726f787920746f20746865207a65726f2061646472657373\n    data_b5145a64ce8c406e5785204fe5b300f0ceda96d6636350b38fdccb9cd8c0c37c 43616e6e6f742073657420612070726f787920696d706c656d656e746174696f6e20746f2061206e6f6e2d636f6e74726163742061646472657373\n\n    auxdata: 0xa2646970667358221220afd841edb7944f16318a0a40ccfd88fc9b0847fa5b0bdf29edbe6d9c4f23b7c664736f6c63430007050033\n}\n",
				"bytecode": {
					"linkReferences": {},
					"object": "608060405234801561001057600080fd5b50610905806100206000396000f3fe6080604052600436106100705760003560e01c80638f2839701161004e5780638f2839701461015e578063cf7a1d7714610191578063d1f5789414610250578063f851a4401461030657610070565b80633659cfe61461007a5780634f1ef286146100ad5780635c60da1b1461012d575b61007861031b565b005b34801561008657600080fd5b506100786004803603602081101561009d57600080fd5b50356001600160a01b0316610335565b610078600480360360408110156100c357600080fd5b6001600160a01b0382351691908101906040810160208201356401000000008111156100ee57600080fd5b82018360208201111561010057600080fd5b8035906020019184600183028401116401000000008311171561012257600080fd5b50909250905061036f565b34801561013957600080fd5b5061014261041c565b604080516001600160a01b039092168252519081900360200190f35b34801561016a57600080fd5b506100786004803603602081101561018157600080fd5b50356001600160a01b0316610459565b610078600480360360608110156101a757600080fd5b6001600160a01b0382358116926020810135909116918101906060810160408201356401000000008111156101db57600080fd5b8201836020820111156101ed57600080fd5b8035906020019184600183028401116401000000008311171561020f57600080fd5b91908080601f016020809104026020016040519081016040528093929190818152602001838380828437600092019190915250929550610513945050505050565b6100786004803603604081101561026657600080fd5b6001600160a01b03823516919081019060408101602082013564010000000081111561029157600080fd5b8201836020820111156102a357600080fd5b803590602001918460018302840111640100000000831117156102c557600080fd5b91908080601f016020809104026020016040519081016040528093929190818152602001838380828437600092019190915250929550610543945050505050565b34801561031257600080fd5b50610142610623565b61032361064e565b61033361032e610656565b61067b565b565b61033d61069f565b6001600160a01b0316336001600160a01b031614156103645761035f816106c4565b61036c565b61036c61031b565b50565b61037761069f565b6001600160a01b0316336001600160a01b0316141561040f57610399836106c4565b6000836001600160a01b031683836040518083838082843760405192019450600093509091505080830381855af49150503d80600081146103f6576040519150601f19603f3d011682016040523d82523d6000602084013e6103fb565b606091505b505090508061040957600080fd5b50610417565b61041761031b565b505050565b600061042661069f565b6001600160a01b0316336001600160a01b0316141561044e57610447610656565b9050610456565b61045661031b565b90565b61046161069f565b6001600160a01b0316336001600160a01b03161415610364576001600160a01b0381166104bf5760405162461bcd60e51b815260040180806020018281038252603681526020018061085f6036913960400191505060405180910390fd5b7f7e644d79422f17c01e4894b5f4f588d331ebfa28653d42ae832dc59e38c9798f6104e861069f565b604080516001600160a01b03928316815291841660208301528051918290030190a161035f81610704565b600061051d610656565b6001600160a01b03161461053057600080fd5b61053a8382610543565b61041782610704565b600061054d610656565b6001600160a01b03161461056057600080fd5b61056982610728565b80511561061f576000826001600160a01b0316826040518082805190602001908083835b602083106105ac5780518252601f19909201916020918201910161058d565b6001836020036101000a038019825116818451168082178552505050505050905001915050600060405180830381855af49150503d806000811461060c576040519150601f19603f3d011682016040523d82523d6000602084013e610611565b606091505b505090508061041757600080fd5b5050565b600061062d61069f565b6001600160a01b0316336001600160a01b0316141561044e5761044761069f565b610333610790565b7f360894a13ba1a3210667c828492db98dca3e2076cc3735a920a3ca505d382bbc5490565b3660008037600080366000845af43d6000803e80801561069a573d6000f35b3d6000fd5b7fb53127684a568b3173ae13b9f8a6016e243e63b6e8ee1178d6a717850b5d61035490565b6106cd81610728565b6040516001600160a01b038216907fbc7cd75a20ee27fd9adebab32041f755214dbc6bffa90cc0225b39da2e5c2d3b90600090a250565b7fb53127684a568b3173ae13b9f8a6016e243e63b6e8ee1178d6a717850b5d610355565b610731816107f0565b61076c5760405162461bcd60e51b815260040180806020018281038252603b815260200180610895603b913960400191505060405180910390fd5b7f360894a13ba1a3210667c828492db98dca3e2076cc3735a920a3ca505d382bbc55565b61079861069f565b6001600160a01b0316336001600160a01b031614156107e85760405162461bcd60e51b815260040180806020018281038252603281526020018061082d6032913960400191505060405180910390fd5b610333610333565b6000813f7fc5d2460186f7233c927e7db2dcc703c0e500b653ca82273b7bfad8045d85a47081811480159061082457508115155b94935050505056fe43616e6e6f742063616c6c2066616c6c6261636b2066756e6374696f6e2066726f6d207468652070726f78792061646d696e43616e6e6f74206368616e6765207468652061646d696e206f6620612070726f787920746f20746865207a65726f206164647265737343616e6e6f742073657420612070726f787920696d706c656d656e746174696f6e20746f2061206e6f6e2d636f6e74726163742061646472657373a2646970667358221220afd841edb7944f16318a0a40ccfd88fc9b0847fa5b0bdf29edbe6d9c4f23b7c664736f6c63430007050033",
					"opcodes": "PUSH1 0x80 PUSH1 0x40 MSTORE CALLVALUE DUP1 ISZERO PUSH2 0x10 JUMPI PUSH1 0x0 DUP1 REVERT JUMPDEST POP PUSH2 0x905 DUP1 PUSH2 0x20 PUSH1 0x0 CODECOPY PUSH1 0x0 RETURN INVALID PUSH1 0x80 PUSH1 0x40 MSTORE PUSH1 0x4 CALLDATASIZE LT PUSH2 0x70 JUMPI PUSH1 0x0 CALLDATALOAD PUSH1 0xE0 SHR DUP1 PUSH4 0x8F283970 GT PUSH2 0x4E JUMPI DUP1 PUSH4 0x8F283970 EQ PUSH2 0x15E JUMPI DUP1 PUSH4 0xCF7A1D77 EQ PUSH2 0x191 JUMPI DUP1 PUSH4 0xD1F57894 EQ PUSH2 0x250 JUMPI DUP1 PUSH4 0xF851A440 EQ PUSH2 0x306 JUMPI PUSH2 0x70 JUMP JUMPDEST DUP1 PUSH4 0x3659CFE6 EQ PUSH2 0x7A JUMPI DUP1 PUSH4 0x4F1EF286 EQ PUSH2 0xAD JUMPI DUP1 PUSH4 0x5C60DA1B EQ PUSH2 0x12D JUMPI JUMPDEST PUSH2 0x78 PUSH2 0x31B JUMP JUMPDEST STOP JUMPDEST CALLVALUE DUP1 ISZERO PUSH2 0x86 JUMPI PUSH1 0x0 DUP1 REVERT JUMPDEST POP PUSH2 0x78 PUSH1 0x4 DUP1 CALLDATASIZE SUB PUSH1 0x20 DUP2 LT ISZERO PUSH2 0x9D JUMPI PUSH1 0x0 DUP1 REVERT JUMPDEST POP CALLDATALOAD PUSH1 0x1 PUSH1 0x1 PUSH1 0xA0 SHL SUB AND PUSH2 0x335 JUMP JUMPDEST PUSH2 0x78 PUSH1 0x4 DUP1 CALLDATASIZE SUB PUSH1 0x40 DUP2 LT ISZERO PUSH2 0xC3 JUMPI PUSH1 0x0 DUP1 REVERT JUMPDEST PUSH1 0x1 PUSH1 0x1 PUSH1 0xA0 SHL SUB DUP3 CALLDATALOAD AND SWAP2 SWAP1 DUP2 ADD SWAP1 PUSH1 0x40 DUP2 ADD PUSH1 0x20 DUP3 ADD CALLDATALOAD PUSH5 0x100000000 DUP2 GT ISZERO PUSH2 0xEE JUMPI PUSH1 0x0 DUP1 REVERT JUMPDEST DUP3 ADD DUP4 PUSH1 0x20 DUP3 ADD GT ISZERO PUSH2 0x100 JUMPI PUSH1 0x0 DUP1 REVERT JUMPDEST DUP1 CALLDATALOAD SWAP1 PUSH1 0x20 ADD SWAP2 DUP5 PUSH1 0x1 DUP4 MUL DUP5 ADD GT PUSH5 0x100000000 DUP4 GT OR ISZERO PUSH2 0x122 JUMPI PUSH1 0x0 DUP1 REVERT JUMPDEST POP SWAP1 SWAP3 POP SWAP1 POP PUSH2 0x36F JUMP JUMPDEST CALLVALUE DUP1 ISZERO PUSH2 0x139 JUMPI PUSH1 0x0 DUP1 REVERT JUMPDEST POP PUSH2 0x142 PUSH2 0x41C JUMP JUMPDEST PUSH1 0x40 DUP1 MLOAD PUSH1 0x1 PUSH1 0x1 PUSH1 0xA0 SHL SUB SWAP1 SWAP3 AND DUP3 MSTORE MLOAD SWAP1 DUP2 SWAP1 SUB PUSH1 0x20 ADD SWAP1 RETURN JUMPDEST CALLVALUE DUP1 ISZERO PUSH2 0x16A JUMPI PUSH1 0x0 DUP1 REVERT JUMPDEST POP PUSH2 0x78 PUSH1 0x4 DUP1 CALLDATASIZE SUB PUSH1 0x20 DUP2 LT ISZERO PUSH2 0x181 JUMPI PUSH1 0x0 DUP1 REVERT JUMPDEST POP CALLDATALOAD PUSH1 0x1 PUSH1 0x1 PUSH1 0xA0 SHL SUB AND PUSH2 0x459 JUMP JUMPDEST PUSH2 0x78 PUSH1 0x4 DUP1 CALLDATASIZE SUB PUSH1 0x60 DUP2 LT ISZERO PUSH2 0x1A7 JUMPI PUSH1 0x0 DUP1 REVERT JUMPDEST PUSH1 0x1 PUSH1 0x1 PUSH1 0xA0 SHL SUB DUP3 CALLDATALOAD DUP2 AND SWAP3 PUSH1 0x20 DUP2 ADD CALLDATALOAD SWAP1 SWAP2 AND SWAP2 DUP2 ADD SWAP1 PUSH1 0x60 DUP2 ADD PUSH1 0x40 DUP3 ADD CALLDATALOAD PUSH5 0x100000000 DUP2 GT ISZERO PUSH2 0x1DB JUMPI PUSH1 0x0 DUP1 REVERT JUMPDEST DUP3 ADD DUP4 PUSH1 0x20 DUP3 ADD GT ISZERO PUSH2 0x1ED JUMPI PUSH1 0x0 DUP1 REVERT JUMPDEST DUP1 CALLDATALOAD SWAP1 PUSH1 0x20 ADD SWAP2 DUP5 PUSH1 0x1 DUP4 MUL DUP5 ADD GT PUSH5 0x100000000 DUP4 GT OR ISZERO PUSH2 0x20F JUMPI PUSH1 0x0 DUP1 REVERT JUMPDEST SWAP2 SWAP1 DUP1 DUP1 PUSH1 0x1F ADD PUSH1 0x20 DUP1 SWAP2 DIV MUL PUSH1 0x20 ADD PUSH1 0x40 MLOAD SWAP1 DUP2 ADD PUSH1 0x40 MSTORE DUP1 SWAP4 SWAP3 SWAP2 SWAP1 DUP2 DUP2 MSTORE PUSH1 0x20 ADD DUP4 DUP4 DUP1 DUP3 DUP5 CALLDATACOPY PUSH1 0x0 SWAP3 ADD SWAP2 SWAP1 SWAP2 MSTORE POP SWAP3 SWAP6 POP PUSH2 0x513 SWAP5 POP POP POP POP POP JUMP JUMPDEST PUSH2 0x78 PUSH1 0x4 DUP1 CALLDATASIZE SUB PUSH1 0x40 DUP2 LT ISZERO PUSH2 0x266 JUMPI PUSH1 0x0 DUP1 REVERT JUMPDEST PUSH1 0x1 PUSH1 0x1 PUSH1 0xA0 SHL SUB DUP3 CALLDATALOAD AND SWAP2 SWAP1 DUP2 ADD SWAP1 PUSH1 0x40 DUP2 ADD PUSH1 0x20 DUP3 ADD CALLDATALOAD PUSH5 0x100000000 DUP2 GT ISZERO PUSH2 0x291 JUMPI PUSH1 0x0 DUP1 REVERT JUMPDEST DUP3 ADD DUP4 PUSH1 0x20 DUP3 ADD GT ISZERO PUSH2 0x2A3 JUMPI PUSH1 0x0 DUP1 REVERT JUMPDEST DUP1 CALLDATALOAD SWAP1 PUSH1 0x20 ADD SWAP2 DUP5 PUSH1 0x1 DUP4 MUL DUP5 ADD GT PUSH5 0x100000000 DUP4 GT OR ISZERO PUSH2 0x2C5 JUMPI PUSH1 0x0 DUP1 REVERT JUMPDEST SWAP2 SWAP1 DUP1 DUP1 PUSH1 0x1F ADD PUSH1 0x20 DUP1 SWAP2 DIV MUL PUSH1 0x20 ADD PUSH1 0x40 MLOAD SWAP1 DUP2 ADD PUSH1 0x40 MSTORE DUP1 SWAP4 SWAP3 SWAP2 SWAP1 DUP2 DUP2 MSTORE PUSH1 0x20 ADD DUP4 DUP4 DUP1 DUP3 DUP5 CALLDATACOPY PUSH1 0x0 SWAP3 ADD SWAP2 SWAP1 SWAP2 MSTORE POP SWAP3 SWAP6 POP PUSH2 0x543 SWAP5 POP POP POP POP POP JUMP JUMPDEST CALLVALUE DUP1 ISZERO PUSH2 0x312 JUMPI PUSH1 0x0 DUP1 REVERT JUMPDEST POP PUSH2 0x142 PUSH2 0x623 JUMP JUMPDEST PUSH2 0x323 PUSH2 0x64E JUMP JUMPDEST PUSH2 0x333 PUSH2 0x32E PUSH2 0x656 JUMP JUMPDEST PUSH2 0x67B JUMP JUMPDEST JUMP JUMPDEST PUSH2 0x33D PUSH2 0x69F JUMP JUMPDEST PUSH1 0x1 PUSH1 0x1 PUSH1 0xA0 SHL SUB AND CALLER PUSH1 0x1 PUSH1 0x1 PUSH1 0xA0 SHL SUB AND EQ ISZERO PUSH2 0x364 JUMPI PUSH2 0x35F DUP2 PUSH2 0x6C4 JUMP JUMPDEST PUSH2 0x36C JUMP JUMPDEST PUSH2 0x36C PUSH2 0x31B JUMP JUMPDEST POP JUMP JUMPDEST PUSH2 0x377 PUSH2 0x69F JUMP JUMPDEST PUSH1 0x1 PUSH1 0x1 PUSH1 0xA0 SHL SUB AND CALLER PUSH1 0x1 PUSH1 0x1 PUSH1 0xA0 SHL SUB AND EQ ISZERO PUSH2 0x40F JUMPI PUSH2 0x399 DUP4 PUSH2 0x6C4 JUMP JUMPDEST PUSH1 0x0 DUP4 PUSH1 0x1 PUSH1 0x1 PUSH1 0xA0 SHL SUB AND DUP4 DUP4 PUSH1 0x40 MLOAD DUP1 DUP4 DUP4 DUP1 DUP3 DUP5 CALLDATACOPY PUSH1 0x40 MLOAD SWAP3 ADD SWAP5 POP PUSH1 0x0 SWAP4 POP SWAP1 SWAP2 POP POP DUP1 DUP4 SUB DUP2 DUP6 GAS DELEGATECALL SWAP2 POP POP RETURNDATASIZE DUP1 PUSH1 0x0 DUP2 EQ PUSH2 0x3F6 JUMPI PUSH1 0x40 MLOAD SWAP2 POP PUSH1 0x1F NOT PUSH1 0x3F RETURNDATASIZE ADD AND DUP3 ADD PUSH1 0x40 MSTORE RETURNDATASIZE DUP3 MSTORE RETURNDATASIZE PUSH1 0x0 PUSH1 0x20 DUP5 ADD RETURNDATACOPY PUSH2 0x3FB JUMP JUMPDEST PUSH1 0x60 SWAP2 POP JUMPDEST POP POP SWAP1 POP DUP1 PUSH2 0x409 JUMPI PUSH1 0x0 DUP1 REVERT JUMPDEST POP PUSH2 0x417 JUMP JUMPDEST PUSH2 0x417 PUSH2 0x31B JUMP JUMPDEST POP POP POP JUMP JUMPDEST PUSH1 0x0 PUSH2 0x426 PUSH2 0x69F JUMP JUMPDEST PUSH1 0x1 PUSH1 0x1 PUSH1 0xA0 SHL SUB AND CALLER PUSH1 0x1 PUSH1 0x1 PUSH1 0xA0 SHL SUB AND EQ ISZERO PUSH2 0x44E JUMPI PUSH2 0x447 PUSH2 0x656 JUMP JUMPDEST SWAP1 POP PUSH2 0x456 JUMP JUMPDEST PUSH2 0x456 PUSH2 0x31B JUMP JUMPDEST SWAP1 JUMP JUMPDEST PUSH2 0x461 PUSH2 0x69F JUMP JUMPDEST PUSH1 0x1 PUSH1 0x1 PUSH1 0xA0 SHL SUB AND CALLER PUSH1 0x1 PUSH1 0x1 PUSH1 0xA0 SHL SUB AND EQ ISZERO PUSH2 0x364 JUMPI PUSH1 0x1 PUSH1 0x1 PUSH1 0xA0 SHL SUB DUP2 AND PUSH2 0x4BF JUMPI PUSH1 0x40 MLOAD PUSH3 0x461BCD PUSH1 0xE5 SHL DUP2 MSTORE PUSH1 0x4 ADD DUP1 DUP1 PUSH1 0x20 ADD DUP3 DUP2 SUB DUP3 MSTORE PUSH1 0x36 DUP2 MSTORE PUSH1 0x20 ADD DUP1 PUSH2 0x85F PUSH1 0x36 SWAP2 CODECOPY PUSH1 0x40 ADD SWAP2 POP POP PUSH1 0x40 MLOAD DUP1 SWAP2 SUB SWAP1 REVERT JUMPDEST PUSH32 0x7E644D79422F17C01E4894B5F4F588D331EBFA28653D42AE832DC59E38C9798F PUSH2 0x4E8 PUSH2 0x69F JUMP JUMPDEST PUSH1 0x40 DUP1 MLOAD PUSH1 0x1 PUSH1 0x1 PUSH1 0xA0 SHL SUB SWAP3 DUP4 AND DUP2 MSTORE SWAP2 DUP5 AND PUSH1 0x20 DUP4 ADD MSTORE DUP1 MLOAD SWAP2 DUP3 SWAP1 SUB ADD SWAP1 LOG1 PUSH2 0x35F DUP2 PUSH2 0x704 JUMP JUMPDEST PUSH1 0x0 PUSH2 0x51D PUSH2 0x656 JUMP JUMPDEST PUSH1 0x1 PUSH1 0x1 PUSH1 0xA0 SHL SUB AND EQ PUSH2 0x530 JUMPI PUSH1 0x0 DUP1 REVERT JUMPDEST PUSH2 0x53A DUP4 DUP3 PUSH2 0x543 JUMP JUMPDEST PUSH2 0x417 DUP3 PUSH2 0x704 JUMP JUMPDEST PUSH1 0x0 PUSH2 0x54D PUSH2 0x656 JUMP JUMPDEST PUSH1 0x1 PUSH1 0x1 PUSH1 0xA0 SHL SUB AND EQ PUSH2 0x560 JUMPI PUSH1 0x0 DUP1 REVERT JUMPDEST PUSH2 0x569 DUP3 PUSH2 0x728 JUMP JUMPDEST DUP1 MLOAD ISZERO PUSH2 0x61F JUMPI PUSH1 0x0 DUP3 PUSH1 0x1 PUSH1 0x1 PUSH1 0xA0 SHL SUB AND DUP3 PUSH1 0x40 MLOAD DUP1 DUP3 DUP1 MLOAD SWAP1 PUSH1 0x20 ADD SWAP1 DUP1 DUP4 DUP4 JUMPDEST PUSH1 0x20 DUP4 LT PUSH2 0x5AC JUMPI DUP1 MLOAD DUP3 MSTORE PUSH1 0x1F NOT SWAP1 SWAP3 ADD SWAP2 PUSH1 0x20 SWAP2 DUP3 ADD SWAP2 ADD PUSH2 0x58D JUMP JUMPDEST PUSH1 0x1 DUP4 PUSH1 0x20 SUB PUSH2 0x100 EXP SUB DUP1 NOT DUP3 MLOAD AND DUP2 DUP5 MLOAD AND DUP1 DUP3 OR DUP6 MSTORE POP POP POP POP POP POP SWAP1 POP ADD SWAP2 POP POP PUSH1 0x0 PUSH1 0x40 MLOAD DUP1 DUP4 SUB DUP2 DUP6 GAS DELEGATECALL SWAP2 POP POP RETURNDATASIZE DUP1 PUSH1 0x0 DUP2 EQ PUSH2 0x60C JUMPI PUSH1 0x40 MLOAD SWAP2 POP PUSH1 0x1F NOT PUSH1 0x3F RETURNDATASIZE ADD AND DUP3 ADD PUSH1 0x40 MSTORE RETURNDATASIZE DUP3 MSTORE RETURNDATASIZE PUSH1 0x0 PUSH1 0x20 DUP5 ADD RETURNDATACOPY PUSH2 0x611 JUMP JUMPDEST PUSH1 0x60 SWAP2 POP JUMPDEST POP POP SWAP1 POP DUP1 PUSH2 0x417 JUMPI PUSH1 0x0 DUP1 REVERT JUMPDEST POP POP JUMP JUMPDEST PUSH1 0x0 PUSH2 0x62D PUSH2 0x69F JUMP JUMPDEST PUSH1 0x1 PUSH1 0x1 PUSH1 0xA0 SHL SUB AND CALLER PUSH1 0x1 PUSH1 0x1 PUSH1 0xA0 SHL SUB AND EQ ISZERO PUSH2 0x44E JUMPI PUSH2 0x447 PUSH2 0x69F JUMP JUMPDEST PUSH2 0x333 PUSH2 0x790 JUMP JUMPDEST PUSH32 0x360894A13BA1A3210667C828492DB98DCA3E2076CC3735A920A3CA505D382BBC SLOAD SWAP1 JUMP JUMPDEST CALLDATASIZE PUSH1 0x0 DUP1 CALLDATACOPY PUSH1 0x0 DUP1 CALLDATASIZE PUSH1 0x0 DUP5 GAS DELEGATECALL RETURNDATASIZE PUSH1 0x0 DUP1 RETURNDATACOPY DUP1 DUP1 ISZERO PUSH2 0x69A JUMPI RETURNDATASIZE PUSH1 0x0 RETURN JUMPDEST RETURNDATASIZE PUSH1 0x0 REVERT JUMPDEST PUSH32 0xB53127684A568B3173AE13B9F8A6016E243E63B6E8EE1178D6A717850B5D6103 SLOAD SWAP1 JUMP JUMPDEST PUSH2 0x6CD DUP2 PUSH2 0x728 JUMP JUMPDEST PUSH1 0x40 MLOAD PUSH1 0x1 PUSH1 0x1 PUSH1 0xA0 SHL SUB DUP3 AND SWAP1 PUSH32 0xBC7CD75A20EE27FD9ADEBAB32041F755214DBC6BFFA90CC0225B39DA2E5C2D3B SWAP1 PUSH1 0x0 SWAP1 LOG2 POP JUMP JUMPDEST PUSH32 0xB53127684A568B3173AE13B9F8A6016E243E63B6E8EE1178D6A717850B5D6103 SSTORE JUMP JUMPDEST PUSH2 0x731 DUP2 PUSH2 0x7F0 JUMP JUMPDEST PUSH2 0x76C JUMPI PUSH1 0x40 MLOAD PUSH3 0x461BCD PUSH1 0xE5 SHL DUP2 MSTORE PUSH1 0x4 ADD DUP1 DUP1 PUSH1 0x20 ADD DUP3 DUP2 SUB DUP3 MSTORE PUSH1 0x3B DUP2 MSTORE PUSH1 0x20 ADD DUP1 PUSH2 0x895 PUSH1 0x3B SWAP2 CODECOPY PUSH1 0x40 ADD SWAP2 POP POP PUSH1 0x40 MLOAD DUP1 SWAP2 SUB SWAP1 REVERT JUMPDEST PUSH32 0x360894A13BA1A3210667C828492DB98DCA3E2076CC3735A920A3CA505D382BBC SSTORE JUMP JUMPDEST PUSH2 0x798 PUSH2 0x69F JUMP JUMPDEST PUSH1 0x1 PUSH1 0x1 PUSH1 0xA0 SHL SUB AND CALLER PUSH1 0x1 PUSH1 0x1 PUSH1 0xA0 SHL SUB AND EQ ISZERO PUSH2 0x7E8 JUMPI PUSH1 0x40 MLOAD PUSH3 0x461BCD PUSH1 0xE5 SHL DUP2 MSTORE PUSH1 0x4 ADD DUP1 DUP1 PUSH1 0x20 ADD DUP3 DUP2 SUB DUP3 MSTORE PUSH1 0x32 DUP2 MSTORE PUSH1 0x20 ADD DUP1 PUSH2 0x82D PUSH1 0x32 SWAP2 CODECOPY PUSH1 0x40 ADD SWAP2 POP POP PUSH1 0x40 MLOAD DUP1 SWAP2 SUB SWAP1 REVERT JUMPDEST PUSH2 0x333 PUSH2 0x333 JUMP JUMPDEST PUSH1 0x0 DUP2 EXTCODEHASH PUSH32 0xC5D2460186F7233C927E7DB2DCC703C0E500B653CA82273B7BFAD8045D85A470 DUP2 DUP2 EQ DUP1 ISZERO SWAP1 PUSH2 0x824 JUMPI POP DUP2 ISZERO ISZERO JUMPDEST SWAP5 SWAP4 POP POP POP POP JUMP INVALID NUMBER PUSH2 0x6E6E PUSH16 0x742063616C6C2066616C6C6261636B20 PUSH7 0x756E6374696F6E KECCAK256 PUSH7 0x726F6D20746865 KECCAK256 PUSH17 0x726F78792061646D696E43616E6E6F7420 PUSH4 0x68616E67 PUSH6 0x207468652061 PUSH5 0x6D696E206F PUSH7 0x20612070726F78 PUSH26 0x20746F20746865207A65726F206164647265737343616E6E6F74 KECCAK256 PUSH20 0x657420612070726F787920696D706C656D656E74 PUSH2 0x7469 PUSH16 0x6E20746F2061206E6F6E2D636F6E7472 PUSH2 0x6374 KECCAK256 PUSH2 0x6464 PUSH19 0x657373A2646970667358221220AFD841EDB794 0x4F AND BALANCE DUP11 EXP BLOCKHASH 0xCC REVERT DUP9 0xFC SWAP12 ADDMOD SELFBALANCE STATICCALL JUMPDEST SIGNEXTEND 0xDF 0x29 0xED 0xBE PUSH14 0x9C4F23B7C664736F6C6343000705 STOP CALLER "
				},
				"gasEstimates": {
					"creation": {
						"codeDepositCost": "461800",
						"executionCost": "499",
						"totalCost": "462299"
					},
					"external": {
						"": "infinite",
						"admin()": "infinite",
						"changeAdmin(address)": "infinite",
						"implementation()": "infinite",
						"initialize(address,address,bytes)": "infinite",
						"initialize(address,bytes)": "infinite",
						"upgradeTo(address)": "infinite",
						"upgradeToAndCall(address,bytes)": "infinite"
					},
					"internal": {
						"_willFallback()": "infinite"
					}
				},
				"methodIdentifiers": {
					"admin()": "f851a440",
					"changeAdmin(address)": "8f283970",
					"implementation()": "5c60da1b",
					"initialize(address,address,bytes)": "cf7a1d77",
					"initialize(address,bytes)": "d1f57894",
					"upgradeTo(address)": "3659cfe6",
					"upgradeToAndCall(address,bytes)": "4f1ef286"
				}
			},
			"storageLayout": {
				"storage": [],
				"types": null
			},
			"userdoc": {
				"kind": "user",
				"methods": {
					"initialize(address,address,bytes)": {
						"notice": "Contract initializer."
					}
				},
				"version": 1
			}
		}
	}
}