{
	"contracts/Omnidex-incentives/proposals/ProposalIncentivesExecutor.sol": {
		"ProposalIncentivesExecutor": {
			"abi": [
				{
					"inputs": [
						{
							"internalType": "address[6]",
							"name": "oTokenImplementations",
							"type": "address[6]"
						},
						{
							"internalType": "address[6]",
							"name": "variableDebtImplementations",
							"type": "address[6]"
						}
					],
					"name": "execute",
					"outputs": [],
					"stateMutability": "nonpayable",
					"type": "function"
				}
			],
			"devdoc": {
				"kind": "dev",
				"methods": {},
				"version": 1
			},
			"evm": {
				"assembly": "    /* \"contracts/Omnidex-incentives/proposals/ProposalIncentivesExecutor.sol\":1000:6038  contract ProposalIncentivesExecutor is IProposalIncentivesExecutor {\r... */\n  mstore(0x40, 0x80)\n  callvalue\n  dup1\n  iszero\n  tag_1\n  jumpi\n  0x00\n  dup1\n  revert\ntag_1:\n  pop\n  dataSize(sub_0)\n  dup1\n  dataOffset(sub_0)\n  0x00\n  codecopy\n  0x00\n  return\nstop\n\nsub_0: assembly {\n        /* \"contracts/Omnidex-incentives/proposals/ProposalIncentivesExecutor.sol\":1000:6038  contract ProposalIncentivesExecutor is IProposalIncentivesExecutor {\r... */\n      mstore(0x40, 0x80)\n      callvalue\n      dup1\n      iszero\n      tag_1\n      jumpi\n      0x00\n      dup1\n      revert\n    tag_1:\n      pop\n      jumpi(tag_2, lt(calldatasize, 0x04))\n      shr(0xe0, calldataload(0x00))\n      dup1\n      0x8314b221\n      eq\n      tag_3\n      jumpi\n    tag_2:\n      0x00\n      dup1\n      revert\n        /* \"contracts/Omnidex-incentives/proposals/ProposalIncentivesExecutor.sol\":2143:6035  function execute(\r... */\n    tag_3:\n      tag_4\n      tag_5\n      calldatasize\n      0x04\n      tag_6\n      jump\t// in\n    tag_5:\n      tag_7\n      jump\t// in\n    tag_4:\n      stop\n    tag_7:\n        /* \"contracts/Omnidex-incentives/proposals/ProposalIncentivesExecutor.sol\":2344:2361  new address[](12) */\n      0x40\n      dup1\n      mload\n        /* \"contracts/Omnidex-incentives/proposals/ProposalIncentivesExecutor.sol\":2358:2360  12 */\n      0x0c\n        /* \"contracts/Omnidex-incentives/proposals/ProposalIncentivesExecutor.sol\":2344:2361  new address[](12) */\n      dup1\n      dup3\n      mstore\n      0x01a0\n      dup3\n      add\n      swap1\n      swap3\n      mstore\n        /* \"contracts/Omnidex-incentives/proposals/ProposalIncentivesExecutor.sol\":2288:2309  uint256 tokensCounter */\n      0x00\n      swap2\n        /* \"contracts/Omnidex-incentives/proposals/ProposalIncentivesExecutor.sol\":2318:2341  address[] memory assets */\n      0x60\n      swap2\n        /* \"contracts/Omnidex-incentives/proposals/ProposalIncentivesExecutor.sol\":2344:2361  new address[](12) */\n      swap1\n      0x20\n      dup3\n      add\n      0x0180\n      dup1\n      calldatasize\n      dup4\n      calldatacopy\n      add\n      swap1\n      pop\n      pop\n        /* \"contracts/Omnidex-incentives/proposals/ProposalIncentivesExecutor.sol\":2318:2361  address[] memory assets = new address[](12) */\n      swap1\n      pop\n        /* \"contracts/Omnidex-incentives/proposals/ProposalIncentivesExecutor.sol\":2423:2457  address payable[6] memory reserves */\n      tag_11\n      tag_12\n      jump\t// in\n    tag_11:\n      pop\n        /* \"contracts/Omnidex-incentives/proposals/ProposalIncentivesExecutor.sol\":2423:2794  address payable[6] memory reserves =\r... */\n      0x40\n      dup1\n      mload\n      0xc0\n      dup2\n      add\n      dup3\n      mstore\n        /* \"contracts/Omnidex-incentives/proposals/ProposalIncentivesExecutor.sol\":2478:2520  0x6B175474E89094C44Da98b954EedeAC495271d0F */\n      0x6b175474e89094c44da98b954eedeac495271d0f\n        /* \"contracts/Omnidex-incentives/proposals/ProposalIncentivesExecutor.sol\":2423:2794  address payable[6] memory reserves =\r... */\n      dup2\n      mstore\n        /* \"contracts/Omnidex-incentives/proposals/ProposalIncentivesExecutor.sol\":2531:2573  0x056Fd409E1d7A124BD7017459dFEa2F387b6d5Cd */\n      0x056fd409e1d7a124bd7017459dfea2f387b6d5cd\n        /* \"contracts/Omnidex-incentives/proposals/ProposalIncentivesExecutor.sol\":2423:2794  address payable[6] memory reserves =\r... */\n      0x20\n      dup3\n      add\n      mstore\n        /* \"contracts/Omnidex-incentives/proposals/ProposalIncentivesExecutor.sol\":2584:2626  0xA0b86991c6218b36c1d19D4a2e9Eb0cE3606eB48 */\n      0xa0b86991c6218b36c1d19d4a2e9eb0ce3606eb48\n        /* \"contracts/Omnidex-incentives/proposals/ProposalIncentivesExecutor.sol\":2423:2794  address payable[6] memory reserves =\r... */\n      dup2\n      dup4\n      add\n      mstore\n        /* \"contracts/Omnidex-incentives/proposals/ProposalIncentivesExecutor.sol\":2637:2679  0xdAC17F958D2ee523a2206206994597C13D831ec7 */\n      0xdac17f958d2ee523a2206206994597c13d831ec7\n        /* \"contracts/Omnidex-incentives/proposals/ProposalIncentivesExecutor.sol\":2423:2794  address payable[6] memory reserves =\r... */\n      0x60\n      dup1\n      dup4\n      add\n      swap2\n      swap1\n      swap2\n      mstore\n        /* \"contracts/Omnidex-incentives/proposals/ProposalIncentivesExecutor.sol\":2690:2732  0x2260FAC5E5542a773Aa44fBCfeDf7C193bc2C599 */\n      0x2260fac5e5542a773aa44fbcfedf7c193bc2c599\n        /* \"contracts/Omnidex-incentives/proposals/ProposalIncentivesExecutor.sol\":2423:2794  address payable[6] memory reserves =\r... */\n      0x80\n      dup4\n      add\n      mstore\n        /* \"contracts/Omnidex-incentives/proposals/ProposalIncentivesExecutor.sol\":2743:2785  0xC02aaA39b223FE8D0A0e5C4F27eAD9083C756Cc2 */\n      0xc02aaa39b223fe8d0a0e5c4f27ead9083c756cc2\n        /* \"contracts/Omnidex-incentives/proposals/ProposalIncentivesExecutor.sol\":2423:2794  address payable[6] memory reserves =\r... */\n      0xa0\n      dup4\n      add\n      mstore\n        /* \"contracts/Omnidex-incentives/proposals/ProposalIncentivesExecutor.sol\":2832:2849  new uint256[](12) */\n      dup3\n      mload\n        /* \"contracts/Omnidex-incentives/proposals/ProposalIncentivesExecutor.sol\":2846:2848  12 */\n      0x0c\n        /* \"contracts/Omnidex-incentives/proposals/ProposalIncentivesExecutor.sol\":2832:2849  new uint256[](12) */\n      dup1\n      dup3\n      mstore\n      0x01a0\n      dup3\n      add\n      swap1\n      swap5\n      mstore\n        /* \"contracts/Omnidex-incentives/proposals/ProposalIncentivesExecutor.sol\":2423:2794  address payable[6] memory reserves =\r... */\n      swap2\n      swap3\n      swap1\n      swap2\n        /* \"contracts/Omnidex-incentives/proposals/ProposalIncentivesExecutor.sol\":2832:2849  new uint256[](12) */\n      swap1\n      dup2\n      0x20\n      add\n      0x20\n      dup3\n      mul\n      dup1\n      calldatasize\n      dup4\n      calldatacopy\n      add\n      swap1\n      pop\n      pop\n        /* \"contracts/Omnidex-incentives/proposals/ProposalIncentivesExecutor.sol\":2803:2849  uint256[] memory emissions = new uint256[](12) */\n      swap1\n      pop\n        /* \"contracts/Omnidex-incentives/proposals/ProposalIncentivesExecutor.sol\":2873:2889  1706018518518520 */\n      0x060f9d63c6caf8\n        /* \"contracts/Omnidex-incentives/proposals/ProposalIncentivesExecutor.sol\":2858:2867  emissions */\n      dup2\n        /* \"contracts/Omnidex-incentives/proposals/ProposalIncentivesExecutor.sol\":2868:2869  0 */\n      0x00\n        /* \"contracts/Omnidex-incentives/proposals/ProposalIncentivesExecutor.sol\":2858:2870  emissions[0] */\n      dup2\n      mload\n      dup2\n      lt\n      tag_15\n      jumpi\n      invalid\n    tag_15:\n      0x20\n      mul\n      0x20\n      add\n      add\n        /* \"contracts/Omnidex-incentives/proposals/ProposalIncentivesExecutor.sol\":2858:2889  emissions[0] = 1706018518518520 */\n      dup2\n      dup2\n      mstore\n      pop\n      pop\n        /* \"contracts/Omnidex-incentives/proposals/ProposalIncentivesExecutor.sol\":2918:2934  1706018518518520 */\n      0x060f9d63c6caf8\n        /* \"contracts/Omnidex-incentives/proposals/ProposalIncentivesExecutor.sol\":2903:2912  emissions */\n      dup2\n        /* \"contracts/Omnidex-incentives/proposals/ProposalIncentivesExecutor.sol\":2913:2914  1 */\n      0x01\n        /* \"contracts/Omnidex-incentives/proposals/ProposalIncentivesExecutor.sol\":2903:2915  emissions[1] */\n      dup2\n      mload\n      dup2\n      lt\n      tag_16\n      jumpi\n      invalid\n    tag_16:\n      0x20\n      mul\n      0x20\n      add\n      add\n        /* \"contracts/Omnidex-incentives/proposals/ProposalIncentivesExecutor.sol\":2903:2934  emissions[1] = 1706018518518520 */\n      dup2\n      dup2\n      mstore\n      pop\n      pop\n        /* \"contracts/Omnidex-incentives/proposals/ProposalIncentivesExecutor.sol\":2967:2981  92939814814815 */\n      0x54873ca5c45f\n        /* \"contracts/Omnidex-incentives/proposals/ProposalIncentivesExecutor.sol\":2952:2961  emissions */\n      dup2\n        /* \"contracts/Omnidex-incentives/proposals/ProposalIncentivesExecutor.sol\":2962:2963  2 */\n      0x02\n        /* \"contracts/Omnidex-incentives/proposals/ProposalIncentivesExecutor.sol\":2952:2964  emissions[2] */\n      dup2\n      mload\n      dup2\n      lt\n      tag_17\n      jumpi\n      invalid\n    tag_17:\n      0x20\n      mul\n      0x20\n      add\n      add\n        /* \"contracts/Omnidex-incentives/proposals/ProposalIncentivesExecutor.sol\":2952:2981  emissions[2] = 92939814814815 */\n      dup2\n      dup2\n      mstore\n      pop\n      pop\n        /* \"contracts/Omnidex-incentives/proposals/ProposalIncentivesExecutor.sol\":3011:3025  92939814814815 */\n      0x54873ca5c45f\n        /* \"contracts/Omnidex-incentives/proposals/ProposalIncentivesExecutor.sol\":2996:3005  emissions */\n      dup2\n        /* \"contracts/Omnidex-incentives/proposals/ProposalIncentivesExecutor.sol\":3006:3007  3 */\n      0x03\n        /* \"contracts/Omnidex-incentives/proposals/ProposalIncentivesExecutor.sol\":2996:3008  emissions[3] */\n      dup2\n      mload\n      dup2\n      lt\n      tag_18\n      jumpi\n      invalid\n    tag_18:\n      0x20\n      mul\n      0x20\n      add\n      add\n        /* \"contracts/Omnidex-incentives/proposals/ProposalIncentivesExecutor.sol\":2996:3025  emissions[3] = 92939814814815 */\n      dup2\n      dup2\n      mstore\n      pop\n      pop\n        /* \"contracts/Omnidex-incentives/proposals/ProposalIncentivesExecutor.sol\":3059:3075  5291203703703700 */\n      0x12cc525d318894\n        /* \"contracts/Omnidex-incentives/proposals/ProposalIncentivesExecutor.sol\":3044:3053  emissions */\n      dup2\n        /* \"contracts/Omnidex-incentives/proposals/ProposalIncentivesExecutor.sol\":3054:3055  4 */\n      0x04\n        /* \"contracts/Omnidex-incentives/proposals/ProposalIncentivesExecutor.sol\":3044:3056  emissions[4] */\n      dup2\n      mload\n      dup2\n      lt\n      tag_19\n      jumpi\n      invalid\n    tag_19:\n      0x20\n      mul\n      0x20\n      add\n      add\n        /* \"contracts/Omnidex-incentives/proposals/ProposalIncentivesExecutor.sol\":3044:3075  emissions[4] = 5291203703703700 */\n      dup2\n      dup2\n      mstore\n      pop\n      pop\n        /* \"contracts/Omnidex-incentives/proposals/ProposalIncentivesExecutor.sol\":3105:3121  5291203703703700 */\n      0x12cc525d318894\n        /* \"contracts/Omnidex-incentives/proposals/ProposalIncentivesExecutor.sol\":3090:3099  emissions */\n      dup2\n        /* \"contracts/Omnidex-incentives/proposals/ProposalIncentivesExecutor.sol\":3100:3101  5 */\n      0x05\n        /* \"contracts/Omnidex-incentives/proposals/ProposalIncentivesExecutor.sol\":3090:3102  emissions[5] */\n      dup2\n      mload\n      dup2\n      lt\n      tag_20\n      jumpi\n      invalid\n    tag_20:\n      0x20\n      mul\n      0x20\n      add\n      add\n        /* \"contracts/Omnidex-incentives/proposals/ProposalIncentivesExecutor.sol\":3090:3121  emissions[5] = 5291203703703700 */\n      dup2\n      dup2\n      mstore\n      pop\n      pop\n        /* \"contracts/Omnidex-incentives/proposals/ProposalIncentivesExecutor.sol\":3155:3171  3293634259259260 */\n      0x0bb38afc0b0f7c\n        /* \"contracts/Omnidex-incentives/proposals/ProposalIncentivesExecutor.sol\":3140:3149  emissions */\n      dup2\n        /* \"contracts/Omnidex-incentives/proposals/ProposalIncentivesExecutor.sol\":3150:3151  6 */\n      0x06\n        /* \"contracts/Omnidex-incentives/proposals/ProposalIncentivesExecutor.sol\":3140:3152  emissions[6] */\n      dup2\n      mload\n      dup2\n      lt\n      tag_21\n      jumpi\n      invalid\n    tag_21:\n      0x20\n      mul\n      0x20\n      add\n      add\n        /* \"contracts/Omnidex-incentives/proposals/ProposalIncentivesExecutor.sol\":3140:3171  emissions[6] = 3293634259259260 */\n      dup2\n      dup2\n      mstore\n      pop\n      pop\n        /* \"contracts/Omnidex-incentives/proposals/ProposalIncentivesExecutor.sol\":3201:3217  3293634259259260 */\n      0x0bb38afc0b0f7c\n        /* \"contracts/Omnidex-incentives/proposals/ProposalIncentivesExecutor.sol\":3186:3195  emissions */\n      dup2\n        /* \"contracts/Omnidex-incentives/proposals/ProposalIncentivesExecutor.sol\":3196:3197  7 */\n      0x07\n        /* \"contracts/Omnidex-incentives/proposals/ProposalIncentivesExecutor.sol\":3186:3198  emissions[7] */\n      dup2\n      mload\n      dup2\n      lt\n      tag_22\n      jumpi\n      invalid\n    tag_22:\n      0x20\n      mul\n      0x20\n      add\n      add\n        /* \"contracts/Omnidex-incentives/proposals/ProposalIncentivesExecutor.sol\":3186:3217  emissions[7] = 3293634259259260 */\n      dup2\n      dup2\n      mstore\n      pop\n      pop\n        /* \"contracts/Omnidex-incentives/proposals/ProposalIncentivesExecutor.sol\":3251:3267  1995659722222220 */\n      0x07170abcd5ea8c\n        /* \"contracts/Omnidex-incentives/proposals/ProposalIncentivesExecutor.sol\":3236:3245  emissions */\n      dup2\n        /* \"contracts/Omnidex-incentives/proposals/ProposalIncentivesExecutor.sol\":3246:3247  8 */\n      0x08\n        /* \"contracts/Omnidex-incentives/proposals/ProposalIncentivesExecutor.sol\":3236:3248  emissions[8] */\n      dup2\n      mload\n      dup2\n      lt\n      tag_23\n      jumpi\n      invalid\n    tag_23:\n      0x20\n      mul\n      0x20\n      add\n      add\n        /* \"contracts/Omnidex-incentives/proposals/ProposalIncentivesExecutor.sol\":3236:3267  emissions[8] = 1995659722222220 */\n      dup2\n      dup2\n      mstore\n      pop\n      pop\n        /* \"contracts/Omnidex-incentives/proposals/ProposalIncentivesExecutor.sol\":3297:3312  105034722222222 */\n      0x5f874d4ea08e\n        /* \"contracts/Omnidex-incentives/proposals/ProposalIncentivesExecutor.sol\":3282:3291  emissions */\n      dup2\n        /* \"contracts/Omnidex-incentives/proposals/ProposalIncentivesExecutor.sol\":3292:3293  9 */\n      0x09\n        /* \"contracts/Omnidex-incentives/proposals/ProposalIncentivesExecutor.sol\":3282:3294  emissions[9] */\n      dup2\n      mload\n      dup2\n      lt\n      tag_24\n      jumpi\n      invalid\n    tag_24:\n      0x20\n      mul\n      0x20\n      add\n      add\n        /* \"contracts/Omnidex-incentives/proposals/ProposalIncentivesExecutor.sol\":3282:3312  emissions[9] = 105034722222222 */\n      dup2\n      dup2\n      mstore\n      pop\n      pop\n        /* \"contracts/Omnidex-incentives/proposals/ProposalIncentivesExecutor.sol\":3347:3363  2464942129629630 */\n      0x08c1da100749be\n        /* \"contracts/Omnidex-incentives/proposals/ProposalIncentivesExecutor.sol\":3331:3340  emissions */\n      dup2\n        /* \"contracts/Omnidex-incentives/proposals/ProposalIncentivesExecutor.sol\":3341:3343  10 */\n      0x0a\n        /* \"contracts/Omnidex-incentives/proposals/ProposalIncentivesExecutor.sol\":3331:3344  emissions[10] */\n      dup2\n      mload\n      dup2\n      lt\n      tag_25\n      jumpi\n      invalid\n    tag_25:\n      0x20\n      mul\n      0x20\n      add\n      add\n        /* \"contracts/Omnidex-incentives/proposals/ProposalIncentivesExecutor.sol\":3331:3363  emissions[10] = 2464942129629630 */\n      dup2\n      dup2\n      mstore\n      pop\n      pop\n        /* \"contracts/Omnidex-incentives/proposals/ProposalIncentivesExecutor.sol\":3393:3408  129733796296296 */\n      0x75fe00d7f668\n        /* \"contracts/Omnidex-incentives/proposals/ProposalIncentivesExecutor.sol\":3377:3386  emissions */\n      dup2\n        /* \"contracts/Omnidex-incentives/proposals/ProposalIncentivesExecutor.sol\":3387:3389  11 */\n      0x0b\n        /* \"contracts/Omnidex-incentives/proposals/ProposalIncentivesExecutor.sol\":3377:3390  emissions[11] */\n      dup2\n      mload\n      dup2\n      lt\n      tag_26\n      jumpi\n      invalid\n    tag_26:\n      0x20\n      swap1\n      dup2\n      mul\n      swap2\n      swap1\n      swap2\n      add\n      add\n        /* \"contracts/Omnidex-incentives/proposals/ProposalIncentivesExecutor.sol\":3377:3408  emissions[11] = 129733796296296 */\n      mstore\n        /* \"contracts/Omnidex-incentives/proposals/ProposalIncentivesExecutor.sol\":3964:4056  provider.setAddress(keccak256('INCENTIVES_CONTROLLER'), INCENTIVES_CONTROLLER_PROXY_ADDRESS) */\n      mload(0x40)\n      shl(0xe0, 0xca446dd9)\n      dup2\n      mstore\n        /* \"contracts/Omnidex-incentives/proposals/ProposalIncentivesExecutor.sol\":1289:1331  0x2F75fEDA7423D8B85988d9545428d00f3213CF00 */\n      0x2f75feda7423d8b85988d9545428d00f3213cf00\n      swap1\n        /* \"contracts/Omnidex-incentives/proposals/ProposalIncentivesExecutor.sol\":1743:1785  0x8761e889ad797BdE3bb2b6561982fD1cA4118872 */\n      0x8761e889ad797bde3bb2b6561982fd1ca4118872\n      swap1\n        /* \"contracts/Omnidex-incentives/proposals/ProposalIncentivesExecutor.sol\":1417:1459  0x64968B59Dd39128C287D76BE50015161d10C08C2 */\n      0x64968b59dd39128c287d76be50015161d10c08c2\n      swap1\n      dup2\n      swap1\n        /* \"contracts/Omnidex-incentives/proposals/ProposalIncentivesExecutor.sol\":3964:3983  provider.setAddress */\n      0xca446dd9\n      swap1\n        /* \"contracts/Omnidex-incentives/proposals/ProposalIncentivesExecutor.sol\":3964:4056  provider.setAddress(keccak256('INCENTIVES_CONTROLLER'), INCENTIVES_CONTROLLER_PROXY_ADDRESS) */\n      tag_27\n      swap1\n        /* \"contracts/Omnidex-incentives/proposals/ProposalIncentivesExecutor.sol\":3984:4018  keccak256('INCENTIVES_CONTROLLER') */\n      0x703c2c8634bed68d98c029c18f310e7f7ec0e5d6342c590190b3cb8b3ba54532\n      swap1\n        /* \"contracts/Omnidex-incentives/proposals/ProposalIncentivesExecutor.sol\":1743:1785  0x8761e889ad797BdE3bb2b6561982fD1cA4118872 */\n      dup7\n      swap1\n        /* \"contracts/Omnidex-incentives/proposals/ProposalIncentivesExecutor.sol\":3964:4056  provider.setAddress(keccak256('INCENTIVES_CONTROLLER'), INCENTIVES_CONTROLLER_PROXY_ADDRESS) */\n      0x04\n      add\n      tag_28\n      jump\t// in\n    tag_27:\n      0x00\n      mload(0x40)\n      dup1\n      dup4\n      sub\n      dup2\n      0x00\n      dup8\n      dup1\n      extcodesize\n      iszero\n      dup1\n      iszero\n      tag_29\n      jumpi\n      0x00\n      dup1\n      revert\n    tag_29:\n      pop\n      gas\n      call\n      iszero\n      dup1\n      iszero\n      tag_31\n      jumpi\n      returndatasize\n      0x00\n      dup1\n      returndatacopy\n      revert(0x00, returndatasize)\n    tag_31:\n      pop\n      pop\n        /* \"contracts/Omnidex-incentives/proposals/ProposalIncentivesExecutor.sol\":4135:4233  provider.setAddressAsProxy(keccak256('INCENTIVES_CONTROLLER'), INCENTIVES_CONTROLLER_IMPL_ADDRESS) */\n      mload(0x40)\n      shl(0xe2, 0x177314a3)\n      dup2\n      mstore\n      sub(shl(0xa0, 0x01), 0x01)\n        /* \"contracts/Omnidex-incentives/proposals/ProposalIncentivesExecutor.sol\":4135:4161  provider.setAddressAsProxy */\n      dup5\n      and\n      swap3\n      pop\n      0x5dcc528c\n      swap2\n      pop\n        /* \"contracts/Omnidex-incentives/proposals/ProposalIncentivesExecutor.sol\":4135:4233  provider.setAddressAsProxy(keccak256('INCENTIVES_CONTROLLER'), INCENTIVES_CONTROLLER_IMPL_ADDRESS) */\n      tag_32\n      swap1\n        /* \"contracts/Omnidex-incentives/proposals/ProposalIncentivesExecutor.sol\":4162:4196  keccak256('INCENTIVES_CONTROLLER') */\n      0x703c2c8634bed68d98c029c18f310e7f7ec0e5d6342c590190b3cb8b3ba54532\n      swap1\n        /* \"contracts/Omnidex-incentives/proposals/ProposalIncentivesExecutor.sol\":1895:1937  0x554928b31c4eF45862195B0233A3D689b08552A4 */\n      0x554928b31c4ef45862195b0233a3d689b08552a4\n      swap1\n        /* \"contracts/Omnidex-incentives/proposals/ProposalIncentivesExecutor.sol\":4135:4233  provider.setAddressAsProxy(keccak256('INCENTIVES_CONTROLLER'), INCENTIVES_CONTROLLER_IMPL_ADDRESS) */\n      0x04\n      add\n      tag_28\n      jump\t// in\n    tag_32:\n      0x00\n      mload(0x40)\n      dup1\n      dup4\n      sub\n      dup2\n      0x00\n      dup8\n      dup1\n      extcodesize\n      iszero\n      dup1\n      iszero\n      tag_33\n      jumpi\n      0x00\n      dup1\n      revert\n    tag_33:\n      pop\n      gas\n      call\n      iszero\n      dup1\n      iszero\n      tag_35\n      jumpi\n      returndatasize\n      0x00\n      dup1\n      returndatacopy\n      revert(0x00, returndatasize)\n    tag_35:\n      pop\n        /* \"contracts/Omnidex-incentives/proposals/ProposalIncentivesExecutor.sol\":4242:4423  require(\r... */\n      tag_37\n      swap3\n      pop\n      pop\n      pop\n      jump\n    tag_38:\n      mload(0x40)\n      dup1\n      swap2\n      sub\n      swap1\n      revert\n    tag_37:\n        /* \"contracts/Omnidex-incentives/proposals/ProposalIncentivesExecutor.sol\":4552:4561  uint256 x */\n      0x00\n        /* \"contracts/Omnidex-incentives/proposals/ProposalIncentivesExecutor.sol\":4547:5500  for (uint256 x = 0; x < reserves.length; x++) {\r... */\n    tag_40:\n        /* \"contracts/Omnidex-incentives/proposals/ProposalIncentivesExecutor.sol\":4571:4586  reserves.length */\n      0x06\n        /* \"contracts/Omnidex-incentives/proposals/ProposalIncentivesExecutor.sol\":4567:4568  x */\n      dup2\n        /* \"contracts/Omnidex-incentives/proposals/ProposalIncentivesExecutor.sol\":4567:4586  x < reserves.length */\n      lt\n        /* \"contracts/Omnidex-incentives/proposals/ProposalIncentivesExecutor.sol\":4547:5500  for (uint256 x = 0; x < reserves.length; x++) {\r... */\n      iszero\n      tag_41\n      jumpi\n        /* \"contracts/Omnidex-incentives/proposals/ProposalIncentivesExecutor.sol\":4692:4700  reserves */\n      dup6\n        /* \"contracts/Omnidex-incentives/proposals/ProposalIncentivesExecutor.sol\":4701:4702  x */\n      dup2\n        /* \"contracts/Omnidex-incentives/proposals/ProposalIncentivesExecutor.sol\":4692:4703  reserves[x] */\n      0x06\n      dup2\n      lt\n      tag_43\n      jumpi\n      invalid\n    tag_43:\n      0x20\n      mul\n      add\n      mload\n      sub(shl(0xa0, 0x01), 0x01)\n        /* \"contracts/Omnidex-incentives/proposals/ProposalIncentivesExecutor.sol\":4620:4703  IOTokenDetailed(oTokenImplementations[x]).UNDERLYING_ASSET_ADDRESS() == reserves[x] */\n      and\n        /* \"contracts/Omnidex-incentives/proposals/ProposalIncentivesExecutor.sol\":4636:4657  oTokenImplementations */\n      dup11\n        /* \"contracts/Omnidex-incentives/proposals/ProposalIncentivesExecutor.sol\":4658:4659  x */\n      dup3\n        /* \"contracts/Omnidex-incentives/proposals/ProposalIncentivesExecutor.sol\":4636:4660  oTokenImplementations[x] */\n      0x06\n      dup2\n      lt\n      tag_44\n      jumpi\n      invalid\n    tag_44:\n      0x20\n      mul\n      add\n      mload\n      sub(shl(0xa0, 0x01), 0x01)\n        /* \"contracts/Omnidex-incentives/proposals/ProposalIncentivesExecutor.sol\":4620:4686  IOTokenDetailed(oTokenImplementations[x]).UNDERLYING_ASSET_ADDRESS */\n      and\n      0xb16a19de\n        /* \"contracts/Omnidex-incentives/proposals/ProposalIncentivesExecutor.sol\":4620:4688  IOTokenDetailed(oTokenImplementations[x]).UNDERLYING_ASSET_ADDRESS() */\n      mload(0x40)\n      dup2\n      0xffffffff\n      and\n      0xe0\n      shl\n      dup2\n      mstore\n      0x04\n      add\n      0x20\n      mload(0x40)\n      dup1\n      dup4\n      sub\n      dup2\n      dup7\n      dup1\n      extcodesize\n      iszero\n      dup1\n      iszero\n      tag_45\n      jumpi\n      0x00\n      dup1\n      revert\n    tag_45:\n      pop\n      gas\n      staticcall\n      iszero\n      dup1\n      iszero\n      tag_47\n      jumpi\n      returndatasize\n      0x00\n      dup1\n      returndatacopy\n      revert(0x00, returndatasize)\n    tag_47:\n      pop\n      pop\n      pop\n      pop\n      mload(0x40)\n      returndatasize\n      not(0x1f)\n      0x1f\n      dup3\n      add\n      and\n      dup3\n      add\n      dup1\n      0x40\n      mstore\n      pop\n      dup2\n      add\n      swap1\n      tag_48\n      swap2\n      swap1\n      tag_49\n      jump\t// in\n    tag_48:\n      sub(shl(0xa0, 0x01), 0x01)\n        /* \"contracts/Omnidex-incentives/proposals/ProposalIncentivesExecutor.sol\":4620:4703  IOTokenDetailed(oTokenImplementations[x]).UNDERLYING_ASSET_ADDRESS() == reserves[x] */\n      and\n      eq\n        /* \"contracts/Omnidex-incentives/proposals/ProposalIncentivesExecutor.sol\":4602:4757  require(\r... */\n      tag_50\n      jumpi\n      mload(0x40)\n      shl(0xe5, 0x461bcd)\n      dup2\n      mstore\n      0x04\n      add\n      tag_38\n      swap1\n      tag_52\n      jump\t// in\n    tag_50:\n        /* \"contracts/Omnidex-incentives/proposals/ProposalIncentivesExecutor.sol\":4862:4870  reserves */\n      dup6\n        /* \"contracts/Omnidex-incentives/proposals/ProposalIncentivesExecutor.sol\":4871:4872  x */\n      dup2\n        /* \"contracts/Omnidex-incentives/proposals/ProposalIncentivesExecutor.sol\":4862:4873  reserves[x] */\n      0x06\n      dup2\n      lt\n      tag_53\n      jumpi\n      invalid\n    tag_53:\n      0x20\n      mul\n      add\n      mload\n      sub(shl(0xa0, 0x01), 0x01)\n        /* \"contracts/Omnidex-incentives/proposals/ProposalIncentivesExecutor.sol\":4784:4873  IOTokenDetailed(variableDebtImplementations[x]).UNDERLYING_ASSET_ADDRESS() == reserves[x] */\n      and\n        /* \"contracts/Omnidex-incentives/proposals/ProposalIncentivesExecutor.sol\":4800:4827  variableDebtImplementations */\n      dup10\n        /* \"contracts/Omnidex-incentives/proposals/ProposalIncentivesExecutor.sol\":4828:4829  x */\n      dup3\n        /* \"contracts/Omnidex-incentives/proposals/ProposalIncentivesExecutor.sol\":4800:4830  variableDebtImplementations[x] */\n      0x06\n      dup2\n      lt\n      tag_54\n      jumpi\n      invalid\n    tag_54:\n      0x20\n      mul\n      add\n      mload\n      sub(shl(0xa0, 0x01), 0x01)\n        /* \"contracts/Omnidex-incentives/proposals/ProposalIncentivesExecutor.sol\":4784:4856  IOTokenDetailed(variableDebtImplementations[x]).UNDERLYING_ASSET_ADDRESS */\n      and\n      0xb16a19de\n        /* \"contracts/Omnidex-incentives/proposals/ProposalIncentivesExecutor.sol\":4784:4858  IOTokenDetailed(variableDebtImplementations[x]).UNDERLYING_ASSET_ADDRESS() */\n      mload(0x40)\n      dup2\n      0xffffffff\n      and\n      0xe0\n      shl\n      dup2\n      mstore\n      0x04\n      add\n      0x20\n      mload(0x40)\n      dup1\n      dup4\n      sub\n      dup2\n      dup7\n      dup1\n      extcodesize\n      iszero\n      dup1\n      iszero\n      tag_55\n      jumpi\n      0x00\n      dup1\n      revert\n    tag_55:\n      pop\n      gas\n      staticcall\n      iszero\n      dup1\n      iszero\n      tag_57\n      jumpi\n      returndatasize\n      0x00\n      dup1\n      returndatacopy\n      revert(0x00, returndatasize)\n    tag_57:\n      pop\n      pop\n      pop\n      pop\n      mload(0x40)\n      returndatasize\n      not(0x1f)\n      0x1f\n      dup3\n      add\n      and\n      dup3\n      add\n      dup1\n      0x40\n      mstore\n      pop\n      dup2\n      add\n      swap1\n      tag_58\n      swap2\n      swap1\n      tag_49\n      jump\t// in\n    tag_58:\n      sub(shl(0xa0, 0x01), 0x01)\n        /* \"contracts/Omnidex-incentives/proposals/ProposalIncentivesExecutor.sol\":4784:4873  IOTokenDetailed(variableDebtImplementations[x]).UNDERLYING_ASSET_ADDRESS() == reserves[x] */\n      and\n      eq\n        /* \"contracts/Omnidex-incentives/proposals/ProposalIncentivesExecutor.sol\":4766:4931  require(\r... */\n      tag_59\n      jumpi\n      mload(0x40)\n      shl(0xe5, 0x461bcd)\n      dup2\n      mstore\n      0x04\n      add\n      tag_38\n      swap1\n      tag_61\n      jump\t// in\n    tag_59:\n        /* \"contracts/Omnidex-incentives/proposals/ProposalIncentivesExecutor.sol\":4940:4980  DataTypes.ReserveData memory reserveData */\n      tag_62\n      tag_63\n      jump\t// in\n    tag_62:\n        /* \"contracts/Omnidex-incentives/proposals/ProposalIncentivesExecutor.sol\":1529:1571  0xA9Ae6E3207bdCCcB8f081EE0b4D0D2b4a79EA984 */\n      0xa9ae6e3207bdcccb8f081ee0b4d0d2b4a79ea984\n        /* \"contracts/Omnidex-incentives/proposals/ProposalIncentivesExecutor.sol\":4992:5037  ILendingPoolData(LENDING_POOL).getReserveData */\n      0x35ea6a75\n        /* \"contracts/Omnidex-incentives/proposals/ProposalIncentivesExecutor.sol\":5038:5046  reserves */\n      dup9\n        /* \"contracts/Omnidex-incentives/proposals/ProposalIncentivesExecutor.sol\":5047:5048  x */\n      dup5\n        /* \"contracts/Omnidex-incentives/proposals/ProposalIncentivesExecutor.sol\":5038:5049  reserves[x] */\n      0x06\n      dup2\n      lt\n      tag_64\n      jumpi\n      invalid\n    tag_64:\n      0x20\n      mul\n      add\n      mload\n        /* \"contracts/Omnidex-incentives/proposals/ProposalIncentivesExecutor.sol\":4992:5050  ILendingPoolData(LENDING_POOL).getReserveData(reserves[x]) */\n      mload(0x40)\n      dup3\n      0xffffffff\n      and\n      0xe0\n      shl\n      dup2\n      mstore\n      0x04\n      add\n      tag_65\n      swap2\n      swap1\n      tag_66\n      jump\t// in\n    tag_65:\n      0x0180\n      mload(0x40)\n      dup1\n      dup4\n      sub\n      dup2\n      dup7\n      dup1\n      extcodesize\n      iszero\n      dup1\n      iszero\n      tag_67\n      jumpi\n      0x00\n      dup1\n      revert\n    tag_67:\n      pop\n      gas\n      staticcall\n      iszero\n      dup1\n      iszero\n      tag_69\n      jumpi\n      returndatasize\n      0x00\n      dup1\n      returndatacopy\n      revert(0x00, returndatasize)\n    tag_69:\n      pop\n      pop\n      pop\n      pop\n      mload(0x40)\n      returndatasize\n      not(0x1f)\n      0x1f\n      dup3\n      add\n      and\n      dup3\n      add\n      dup1\n      0x40\n      mstore\n      pop\n      dup2\n      add\n      swap1\n      tag_70\n      swap2\n      swap1\n      tag_71\n      jump\t// in\n    tag_70:\n        /* \"contracts/Omnidex-incentives/proposals/ProposalIncentivesExecutor.sol\":4940:5050  DataTypes.ReserveData memory reserveData =\r... */\n      swap1\n      pop\n        /* \"contracts/Omnidex-incentives/proposals/ProposalIncentivesExecutor.sol\":5090:5106  poolConfigurator */\n      dup5\n      sub(shl(0xa0, 0x01), 0x01)\n        /* \"contracts/Omnidex-incentives/proposals/ProposalIncentivesExecutor.sol\":5090:5119  poolConfigurator.updateOToken */\n      and\n      0x12e3ae16\n        /* \"contracts/Omnidex-incentives/proposals/ProposalIncentivesExecutor.sol\":5120:5128  reserves */\n      dup9\n        /* \"contracts/Omnidex-incentives/proposals/ProposalIncentivesExecutor.sol\":5129:5130  x */\n      dup5\n        /* \"contracts/Omnidex-incentives/proposals/ProposalIncentivesExecutor.sol\":5120:5131  reserves[x] */\n      0x06\n      dup2\n      lt\n      tag_72\n      jumpi\n      invalid\n    tag_72:\n      0x20\n      mul\n      add\n      mload\n        /* \"contracts/Omnidex-incentives/proposals/ProposalIncentivesExecutor.sol\":5133:5154  oTokenImplementations */\n      dup14\n        /* \"contracts/Omnidex-incentives/proposals/ProposalIncentivesExecutor.sol\":5155:5156  x */\n      dup6\n        /* \"contracts/Omnidex-incentives/proposals/ProposalIncentivesExecutor.sol\":5133:5157  oTokenImplementations[x] */\n      0x06\n      dup2\n      lt\n      tag_73\n      jumpi\n      invalid\n    tag_73:\n      0x20\n      mul\n      add\n      mload\n        /* \"contracts/Omnidex-incentives/proposals/ProposalIncentivesExecutor.sol\":5090:5158  poolConfigurator.updateOToken(reserves[x], oTokenImplementations[x]) */\n      mload(0x40)\n      dup4\n      0xffffffff\n      and\n      0xe0\n      shl\n      dup2\n      mstore\n      0x04\n      add\n      tag_74\n      swap3\n      swap2\n      swap1\n      tag_75\n      jump\t// in\n    tag_74:\n      0x00\n      mload(0x40)\n      dup1\n      dup4\n      sub\n      dup2\n      0x00\n      dup8\n      dup1\n      extcodesize\n      iszero\n      dup1\n      iszero\n      tag_76\n      jumpi\n      0x00\n      dup1\n      revert\n    tag_76:\n      pop\n      gas\n      call\n      iszero\n      dup1\n      iszero\n      tag_78\n      jumpi\n      returndatasize\n      0x00\n      dup1\n      returndatacopy\n      revert(0x00, returndatasize)\n    tag_78:\n      pop\n      pop\n      pop\n      pop\n        /* \"contracts/Omnidex-incentives/proposals/ProposalIncentivesExecutor.sol\":5205:5221  poolConfigurator */\n      dup5\n      sub(shl(0xa0, 0x01), 0x01)\n        /* \"contracts/Omnidex-incentives/proposals/ProposalIncentivesExecutor.sol\":5205:5245  poolConfigurator.updateVariableDebtToken */\n      and\n      0x4d978258\n        /* \"contracts/Omnidex-incentives/proposals/ProposalIncentivesExecutor.sol\":5246:5254  reserves */\n      dup9\n        /* \"contracts/Omnidex-incentives/proposals/ProposalIncentivesExecutor.sol\":5255:5256  x */\n      dup5\n        /* \"contracts/Omnidex-incentives/proposals/ProposalIncentivesExecutor.sol\":5246:5257  reserves[x] */\n      0x06\n      dup2\n      lt\n      tag_79\n      jumpi\n      invalid\n    tag_79:\n      0x20\n      mul\n      add\n      mload\n        /* \"contracts/Omnidex-incentives/proposals/ProposalIncentivesExecutor.sol\":5259:5286  variableDebtImplementations */\n      dup13\n        /* \"contracts/Omnidex-incentives/proposals/ProposalIncentivesExecutor.sol\":5287:5288  x */\n      dup6\n        /* \"contracts/Omnidex-incentives/proposals/ProposalIncentivesExecutor.sol\":5259:5289  variableDebtImplementations[x] */\n      0x06\n      dup2\n      lt\n      tag_80\n      jumpi\n      invalid\n    tag_80:\n      0x20\n      mul\n      add\n      mload\n        /* \"contracts/Omnidex-incentives/proposals/ProposalIncentivesExecutor.sol\":5205:5290  poolConfigurator.updateVariableDebtToken(reserves[x], variableDebtImplementations[x]) */\n      mload(0x40)\n      dup4\n      0xffffffff\n      and\n      0xe0\n      shl\n      dup2\n      mstore\n      0x04\n      add\n      tag_81\n      swap3\n      swap2\n      swap1\n      tag_75\n      jump\t// in\n    tag_81:\n      0x00\n      mload(0x40)\n      dup1\n      dup4\n      sub\n      dup2\n      0x00\n      dup8\n      dup1\n      extcodesize\n      iszero\n      dup1\n      iszero\n      tag_82\n      jumpi\n      0x00\n      dup1\n      revert\n    tag_82:\n      pop\n      gas\n      call\n      iszero\n      dup1\n      iszero\n      tag_84\n      jumpi\n      returndatasize\n      0x00\n      dup1\n      returndatacopy\n      revert(0x00, returndatasize)\n    tag_84:\n      pop\n      pop\n      pop\n      pop\n        /* \"contracts/Omnidex-incentives/proposals/ProposalIncentivesExecutor.sol\":5327:5338  reserveData */\n      dup1\n        /* \"contracts/Omnidex-incentives/proposals/ProposalIncentivesExecutor.sol\":5327:5352  reserveData.oTokenAddress */\n      0xe0\n      add\n      mload\n        /* \"contracts/Omnidex-incentives/proposals/ProposalIncentivesExecutor.sol\":5301:5307  assets */\n      dup9\n        /* \"contracts/Omnidex-incentives/proposals/ProposalIncentivesExecutor.sol\":5308:5323  tokensCounter++ */\n      dup11\n      dup1\n      0x01\n      add\n      swap12\n      pop\n        /* \"contracts/Omnidex-incentives/proposals/ProposalIncentivesExecutor.sol\":5301:5324  assets[tokensCounter++] */\n      dup2\n      mload\n      dup2\n      lt\n      tag_85\n      jumpi\n      invalid\n    tag_85:\n      sub(shl(0xa0, 0x01), 0x01)\n        /* \"contracts/Omnidex-incentives/proposals/ProposalIncentivesExecutor.sol\":5301:5352  assets[tokensCounter++] = reserveData.oTokenAddress */\n      swap1\n      swap3\n      and\n        /* \"contracts/Omnidex-incentives/proposals/ProposalIncentivesExecutor.sol\":5301:5324  assets[tokensCounter++] */\n      0x20\n      swap3\n      dup4\n      mul\n      swap2\n      swap1\n      swap2\n      add\n      swap1\n      swap2\n      add\n        /* \"contracts/Omnidex-incentives/proposals/ProposalIncentivesExecutor.sol\":5301:5352  assets[tokensCounter++] = reserveData.oTokenAddress */\n      mstore\n        /* \"contracts/Omnidex-incentives/proposals/ProposalIncentivesExecutor.sol\":5454:5490  reserveData.variableDebtTokenAddress */\n      0x0120\n      dup2\n      add\n      mload\n        /* \"contracts/Omnidex-incentives/proposals/ProposalIncentivesExecutor.sol\":5428:5451  assets[tokensCounter++] */\n      dup9\n      mload\n        /* \"contracts/Omnidex-incentives/proposals/ProposalIncentivesExecutor.sol\":5435:5450  tokensCounter++ */\n      0x01\n      dup12\n      add\n      swap11\n        /* \"contracts/Omnidex-incentives/proposals/ProposalIncentivesExecutor.sol\":5428:5434  assets */\n      dup11\n      swap2\n        /* \"contracts/Omnidex-incentives/proposals/ProposalIncentivesExecutor.sol\":5428:5451  assets[tokensCounter++] */\n      dup2\n      lt\n      tag_86\n      jumpi\n      invalid\n    tag_86:\n      sub(shl(0xa0, 0x01), 0x01)\n        /* \"contracts/Omnidex-incentives/proposals/ProposalIncentivesExecutor.sol\":5428:5490  assets[tokensCounter++] = reserveData.variableDebtTokenAddress */\n      swap1\n      swap3\n      and\n        /* \"contracts/Omnidex-incentives/proposals/ProposalIncentivesExecutor.sol\":5428:5451  assets[tokensCounter++] */\n      0x20\n      swap3\n      dup4\n      mul\n      swap2\n      swap1\n      swap2\n      add\n      swap1\n      swap2\n      add\n        /* \"contracts/Omnidex-incentives/proposals/ProposalIncentivesExecutor.sol\":5428:5490  assets[tokensCounter++] = reserveData.variableDebtTokenAddress */\n      mstore\n      pop\n        /* \"contracts/Omnidex-incentives/proposals/ProposalIncentivesExecutor.sol\":4588:4591  x++ */\n      0x01\n      add\n        /* \"contracts/Omnidex-incentives/proposals/ProposalIncentivesExecutor.sol\":4547:5500  for (uint256 x = 0; x < reserves.length; x++) {\r... */\n      jump(tag_40)\n    tag_41:\n      pop\n        /* \"contracts/Omnidex-incentives/proposals/ProposalIncentivesExecutor.sol\":5838:5893  incentivesController.configureAssets(assets, emissions) */\n      mload(0x40)\n      shl(0xe1, 0x3cf8b8d9)\n      dup2\n      mstore\n      sub(shl(0xa0, 0x01), 0x01)\n        /* \"contracts/Omnidex-incentives/proposals/ProposalIncentivesExecutor.sol\":5838:5874  incentivesController.configureAssets */\n      dup4\n      and\n      swap1\n      0x79f171b2\n      swap1\n        /* \"contracts/Omnidex-incentives/proposals/ProposalIncentivesExecutor.sol\":5838:5893  incentivesController.configureAssets(assets, emissions) */\n      tag_87\n      swap1\n        /* \"contracts/Omnidex-incentives/proposals/ProposalIncentivesExecutor.sol\":5875:5881  assets */\n      dup10\n      swap1\n        /* \"contracts/Omnidex-incentives/proposals/ProposalIncentivesExecutor.sol\":5883:5892  emissions */\n      dup9\n      swap1\n        /* \"contracts/Omnidex-incentives/proposals/ProposalIncentivesExecutor.sol\":5838:5893  incentivesController.configureAssets(assets, emissions) */\n      0x04\n      add\n      tag_88\n      jump\t// in\n    tag_87:\n      0x00\n      mload(0x40)\n      dup1\n      dup4\n      sub\n      dup2\n      0x00\n      dup8\n      dup1\n      extcodesize\n      iszero\n      dup1\n      iszero\n      tag_89\n      jumpi\n      0x00\n      dup1\n      revert\n    tag_89:\n      pop\n      gas\n      call\n      iszero\n      dup1\n      iszero\n      tag_91\n      jumpi\n      returndatasize\n      0x00\n      dup1\n      returndatacopy\n      revert(0x00, returndatasize)\n    tag_91:\n      pop\n      pop\n        /* \"contracts/Omnidex-incentives/proposals/ProposalIncentivesExecutor.sol\":5949:6029  incentivesController.setDistributionEnd(block.timestamp + DISTRIBUTION_DURATION) */\n      mload(0x40)\n      shl(0xe0, 0x39ccbdd3)\n      dup2\n      mstore\n      sub(shl(0xa0, 0x01), 0x01)\n        /* \"contracts/Omnidex-incentives/proposals/ProposalIncentivesExecutor.sol\":5949:5988  incentivesController.setDistributionEnd */\n      dup6\n      and\n      swap3\n      pop\n      0x39ccbdd3\n      swap2\n      pop\n        /* \"contracts/Omnidex-incentives/proposals/ProposalIncentivesExecutor.sol\":5949:6029  incentivesController.setDistributionEnd(block.timestamp + DISTRIBUTION_DURATION) */\n      tag_92\n      swap1\n        /* \"contracts/Omnidex-incentives/proposals/ProposalIncentivesExecutor.sol\":5989:6004  block.timestamp */\n      timestamp\n        /* \"contracts/Omnidex-incentives/proposals/ProposalIncentivesExecutor.sol\":2020:2027  7776000 */\n      0x76a700\n        /* \"contracts/Omnidex-incentives/proposals/ProposalIncentivesExecutor.sol\":5989:6028  block.timestamp + DISTRIBUTION_DURATION */\n      add\n      swap1\n        /* \"contracts/Omnidex-incentives/proposals/ProposalIncentivesExecutor.sol\":5949:6029  incentivesController.setDistributionEnd(block.timestamp + DISTRIBUTION_DURATION) */\n      0x04\n      add\n      tag_93\n      jump\t// in\n    tag_92:\n      0x00\n      mload(0x40)\n      dup1\n      dup4\n      sub\n      dup2\n      0x00\n      dup8\n      dup1\n      extcodesize\n      iszero\n      dup1\n      iszero\n      tag_94\n      jumpi\n      0x00\n      dup1\n      revert\n    tag_94:\n      pop\n      gas\n      call\n      iszero\n      dup1\n      iszero\n      tag_96\n      jumpi\n      returndatasize\n      0x00\n      dup1\n      returndatacopy\n      revert(0x00, returndatasize)\n    tag_96:\n      pop\n      pop\n      pop\n      pop\n        /* \"contracts/Omnidex-incentives/proposals/ProposalIncentivesExecutor.sol\":2143:6035  function execute(\r... */\n      pop\n      pop\n      pop\n      pop\n      pop\n      pop\n      pop\n      pop\n      pop\n      jump\t// out\n    tag_12:\n      mload(0x40)\n      dup1\n      0xc0\n      add\n      0x40\n      mstore\n      dup1\n      0x06\n      swap1\n      0x20\n      dup3\n      mul\n      dup1\n      calldatasize\n      dup4\n      calldatacopy\n      pop\n      swap2\n      swap3\n      swap2\n      pop\n      pop\n      jump\t// out\n    tag_63:\n      mload(0x40)\n      dup1\n      0x0180\n      add\n      0x40\n      mstore\n      dup1\n      tag_97\n      tag_98\n      jump\t// in\n    tag_97:\n      dup2\n      mstore\n      0x00\n      0x20\n      dup3\n      add\n      dup2\n      swap1\n      mstore\n      0x40\n      dup3\n      add\n      dup2\n      swap1\n      mstore\n      0x60\n      dup3\n      add\n      dup2\n      swap1\n      mstore\n      0x80\n      dup3\n      add\n      dup2\n      swap1\n      mstore\n      0xa0\n      dup3\n      add\n      dup2\n      swap1\n      mstore\n      0xc0\n      dup3\n      add\n      dup2\n      swap1\n      mstore\n      0xe0\n      dup3\n      add\n      dup2\n      swap1\n      mstore\n      0x0100\n      dup3\n      add\n      dup2\n      swap1\n      mstore\n      0x0120\n      dup3\n      add\n      dup2\n      swap1\n      mstore\n      0x0140\n      dup3\n      add\n      dup2\n      swap1\n      mstore\n      0x0160\n      swap1\n      swap2\n      add\n      mstore\n      swap1\n      jump\t// out\n    tag_98:\n      mload(0x40)\n      dup1\n      0x20\n      add\n      0x40\n      mstore\n      dup1\n      0x00\n      dup2\n      mstore\n      pop\n      swap1\n      jump\t// out\n        /* \"#utility.yul\":14:156   */\n    tag_100:\n        /* \"#utility.yul\":95:108   */\n      dup1\n      mload\n        /* \"#utility.yul\":117:150   */\n      tag_102\n        /* \"#utility.yul\":95:108   */\n      dup2\n        /* \"#utility.yul\":117:150   */\n      tag_103\n      jump\t// in\n    tag_102:\n        /* \"#utility.yul\":76:156   */\n      swap2\n      swap1\n      pop\n      jump\t// out\n        /* \"#utility.yul\":161:926   */\n    tag_104:\n      0x00\n        /* \"#utility.yul\":269:272   */\n      dup3\n        /* \"#utility.yul\":262:266   */\n      0x1f\n        /* \"#utility.yul\":254:260   */\n      dup4\n        /* \"#utility.yul\":250:267   */\n      add\n        /* \"#utility.yul\":246:273   */\n      slt\n        /* \"#utility.yul\":236:238   */\n      tag_106\n      jumpi\n        /* \"#utility.yul\":291:296   */\n      dup1\n        /* \"#utility.yul\":284:289   */\n      dup2\n        /* \"#utility.yul\":277:297   */\n      revert\n        /* \"#utility.yul\":236:238   */\n    tag_106:\n        /* \"#utility.yul\":328:330   */\n      0x40\n        /* \"#utility.yul\":322:331   */\n      mload\n        /* \"#utility.yul\":370:373   */\n      0xc0\n        /* \"#utility.yul\":362:368   */\n      dup2\n        /* \"#utility.yul\":358:374   */\n      add\n        /* \"#utility.yul\":440:446   */\n      dup2\n        /* \"#utility.yul\":428:438   */\n      dup2\n        /* \"#utility.yul\":425:447   */\n      lt\n        /* \"#utility.yul\":404:422   */\n      0xffffffffffffffff\n        /* \"#utility.yul\":392:402   */\n      dup3\n        /* \"#utility.yul\":389:423   */\n      gt\n        /* \"#utility.yul\":386:448   */\n      or\n        /* \"#utility.yul\":383:385   */\n      iszero\n      tag_107\n      jumpi\n        /* \"#utility.yul\":451:460   */\n      invalid\n        /* \"#utility.yul\":383:385   */\n    tag_107:\n        /* \"#utility.yul\":478:480   */\n      0x40\n        /* \"#utility.yul\":471:493   */\n      mstore\n        /* \"#utility.yul\":511:517   */\n      swap1\n      pop\n      dup1\n        /* \"#utility.yul\":563:569   */\n      dup3\n        /* \"#utility.yul\":596:599   */\n      0xc0\n        /* \"#utility.yul\":584:600   */\n      dup2\n      add\n        /* \"#utility.yul\":581:606   */\n      dup6\n      lt\n        /* \"#utility.yul\":578:580   */\n      iszero\n      tag_108\n      jumpi\n        /* \"#utility.yul\":619:620   */\n      0x00\n        /* \"#utility.yul\":616:617   */\n      dup1\n        /* \"#utility.yul\":609:621   */\n      revert\n        /* \"#utility.yul\":578:580   */\n    tag_108:\n        /* \"#utility.yul\":641:642   */\n      0x00\n        /* \"#utility.yul\":651:920   */\n    tag_109:\n        /* \"#utility.yul\":665:669   */\n      0x06\n        /* \"#utility.yul\":662:663   */\n      dup2\n        /* \"#utility.yul\":659:670   */\n      lt\n        /* \"#utility.yul\":651:920   */\n      iszero\n      tag_111\n      jumpi\n        /* \"#utility.yul\":738:741   */\n      dup2\n        /* \"#utility.yul\":725:742   */\n      calldataload\n        /* \"#utility.yul\":755:788   */\n      tag_112\n        /* \"#utility.yul\":782:787   */\n      dup2\n        /* \"#utility.yul\":755:788   */\n      tag_103\n      jump\t// in\n    tag_112:\n        /* \"#utility.yul\":801:819   */\n      dup4\n      mstore\n        /* \"#utility.yul\":842:846   */\n      0x20\n        /* \"#utility.yul\":866:878   */\n      swap3\n      dup4\n      add\n      swap3\n        /* \"#utility.yul\":898:910   */\n      swap2\n      swap1\n      swap2\n      add\n      swap1\n        /* \"#utility.yul\":685:686   */\n      0x01\n        /* \"#utility.yul\":678:687   */\n      add\n        /* \"#utility.yul\":651:920   */\n      jump(tag_109)\n    tag_111:\n        /* \"#utility.yul\":655:658   */\n      pop\n      pop\n      pop\n        /* \"#utility.yul\":226:926   */\n      swap3\n      swap2\n      pop\n      pop\n      jump\t// out\n        /* \"#utility.yul\":931:1359   */\n    tag_113:\n      0x00\n        /* \"#utility.yul\":1063:1067   */\n      0x20\n        /* \"#utility.yul\":1051:1060   */\n      dup3\n        /* \"#utility.yul\":1046:1049   */\n      dup5\n        /* \"#utility.yul\":1042:1061   */\n      sub\n        /* \"#utility.yul\":1038:1068   */\n      slt\n        /* \"#utility.yul\":1035:1037   */\n      iszero\n      tag_115\n      jumpi\n        /* \"#utility.yul\":1085:1090   */\n      dup1\n        /* \"#utility.yul\":1078:1083   */\n      dup2\n        /* \"#utility.yul\":1071:1091   */\n      revert\n        /* \"#utility.yul\":1035:1037   */\n    tag_115:\n        /* \"#utility.yul\":1122:1124   */\n      0x40\n        /* \"#utility.yul\":1116:1125   */\n      mload\n        /* \"#utility.yul\":1164:1168   */\n      0x20\n        /* \"#utility.yul\":1156:1162   */\n      dup2\n        /* \"#utility.yul\":1152:1169   */\n      add\n        /* \"#utility.yul\":1235:1241   */\n      dup2\n        /* \"#utility.yul\":1223:1233   */\n      dup2\n        /* \"#utility.yul\":1220:1242   */\n      lt\n        /* \"#utility.yul\":1199:1217   */\n      0xffffffffffffffff\n        /* \"#utility.yul\":1187:1197   */\n      dup3\n        /* \"#utility.yul\":1184:1218   */\n      gt\n        /* \"#utility.yul\":1181:1243   */\n      or\n        /* \"#utility.yul\":1178:1180   */\n      iszero\n      tag_116\n      jumpi\n        /* \"#utility.yul\":1246:1255   */\n      invalid\n        /* \"#utility.yul\":1178:1180   */\n    tag_116:\n        /* \"#utility.yul\":1273:1275   */\n      0x40\n        /* \"#utility.yul\":1266:1288   */\n      mstore\n        /* \"#utility.yul\":1336:1352   */\n      swap2\n      mload\n        /* \"#utility.yul\":1321:1353   */\n      dup3\n      mstore\n      pop\n        /* \"#utility.yul\":1306:1312   */\n      swap2\n        /* \"#utility.yul\":1025:1359   */\n      swap1\n      pop\n      jump\t// out\n        /* \"#utility.yul\":1364:1558   */\n    tag_117:\n        /* \"#utility.yul\":1445:1458   */\n      dup1\n      mload\n        /* \"#utility.yul\":1498:1532   */\n      0xffffffffffffffffffffffffffffffff\n        /* \"#utility.yul\":1487:1533   */\n      dup2\n      and\n        /* \"#utility.yul\":1477:1534   */\n      dup2\n      eq\n        /* \"#utility.yul\":1467:1469   */\n      tag_102\n      jumpi\n        /* \"#utility.yul\":1548:1549   */\n      0x00\n        /* \"#utility.yul\":1545:1546   */\n      dup1\n        /* \"#utility.yul\":1538:1550   */\n      revert\n        /* \"#utility.yul\":1563:1734   */\n    tag_120:\n        /* \"#utility.yul\":1643:1656   */\n      dup1\n      mload\n        /* \"#utility.yul\":1696:1708   */\n      0xffffffffff\n        /* \"#utility.yul\":1685:1709   */\n      dup2\n      and\n        /* \"#utility.yul\":1675:1710   */\n      dup2\n      eq\n        /* \"#utility.yul\":1665:1667   */\n      tag_102\n      jumpi\n        /* \"#utility.yul\":1724:1725   */\n      0x00\n        /* \"#utility.yul\":1721:1722   */\n      dup1\n        /* \"#utility.yul\":1714:1726   */\n      revert\n        /* \"#utility.yul\":1739:1901   */\n    tag_123:\n        /* \"#utility.yul\":1818:1831   */\n      dup1\n      mload\n        /* \"#utility.yul\":1871:1875   */\n      0xff\n        /* \"#utility.yul\":1860:1876   */\n      dup2\n      and\n        /* \"#utility.yul\":1850:1877   */\n      dup2\n      eq\n        /* \"#utility.yul\":1840:1842   */\n      tag_102\n      jumpi\n        /* \"#utility.yul\":1891:1892   */\n      0x00\n        /* \"#utility.yul\":1888:1889   */\n      dup1\n        /* \"#utility.yul\":1881:1893   */\n      revert\n        /* \"#utility.yul\":1906:2169   */\n    tag_49:\n      0x00\n        /* \"#utility.yul\":2029:2031   */\n      0x20\n        /* \"#utility.yul\":2017:2026   */\n      dup3\n        /* \"#utility.yul\":2008:2015   */\n      dup5\n        /* \"#utility.yul\":2004:2027   */\n      sub\n        /* \"#utility.yul\":2000:2032   */\n      slt\n        /* \"#utility.yul\":1997:1999   */\n      iszero\n      tag_127\n      jumpi\n        /* \"#utility.yul\":2050:2056   */\n      dup1\n        /* \"#utility.yul\":2042:2048   */\n      dup2\n        /* \"#utility.yul\":2035:2057   */\n      revert\n        /* \"#utility.yul\":1997:1999   */\n    tag_127:\n        /* \"#utility.yul\":2087:2096   */\n      dup2\n        /* \"#utility.yul\":2081:2097   */\n      mload\n        /* \"#utility.yul\":2106:2139   */\n      tag_128\n        /* \"#utility.yul\":2133:2138   */\n      dup2\n        /* \"#utility.yul\":2106:2139   */\n      tag_103\n      jump\t// in\n    tag_128:\n        /* \"#utility.yul\":2158:2163   */\n      swap4\n        /* \"#utility.yul\":1987:2169   */\n      swap3\n      pop\n      pop\n      pop\n      jump\t// out\n        /* \"#utility.yul\":2174:2532   */\n    tag_6:\n      0x00\n      dup1\n        /* \"#utility.yul\":2349:2352   */\n      0x0180\n        /* \"#utility.yul\":2337:2346   */\n      dup4\n        /* \"#utility.yul\":2328:2335   */\n      dup6\n        /* \"#utility.yul\":2324:2347   */\n      sub\n        /* \"#utility.yul\":2320:2353   */\n      slt\n        /* \"#utility.yul\":2317:2319   */\n      iszero\n      tag_130\n      jumpi\n        /* \"#utility.yul\":2371:2377   */\n      dup1\n        /* \"#utility.yul\":2363:2369   */\n      dup2\n        /* \"#utility.yul\":2356:2378   */\n      revert\n        /* \"#utility.yul\":2317:2319   */\n    tag_130:\n        /* \"#utility.yul\":2399:2448   */\n      tag_131\n        /* \"#utility.yul\":2440:2447   */\n      dup5\n        /* \"#utility.yul\":2429:2438   */\n      dup5\n        /* \"#utility.yul\":2399:2448   */\n      tag_104\n      jump\t// in\n    tag_131:\n        /* \"#utility.yul\":2389:2448   */\n      swap2\n      pop\n        /* \"#utility.yul\":2467:2526   */\n      tag_132\n        /* \"#utility.yul\":2518:2525   */\n      dup5\n        /* \"#utility.yul\":2512:2515   */\n      0xc0\n        /* \"#utility.yul\":2501:2510   */\n      dup6\n        /* \"#utility.yul\":2497:2516   */\n      add\n        /* \"#utility.yul\":2467:2526   */\n      tag_104\n      jump\t// in\n    tag_132:\n        /* \"#utility.yul\":2457:2526   */\n      swap1\n      pop\n        /* \"#utility.yul\":2307:2532   */\n      swap3\n      pop\n      swap3\n      swap1\n      pop\n      jump\t// out\n        /* \"#utility.yul\":2537:3926   */\n    tag_71:\n      0x00\n        /* \"#utility.yul\":2666:2669   */\n      0x0180\n        /* \"#utility.yul\":2710:2712   */\n      dup1\n        /* \"#utility.yul\":2698:2707   */\n      dup4\n        /* \"#utility.yul\":2689:2696   */\n      dup6\n        /* \"#utility.yul\":2685:2708   */\n      sub\n        /* \"#utility.yul\":2681:2713   */\n      slt\n        /* \"#utility.yul\":2678:2680   */\n      iszero\n      tag_134\n      jumpi\n        /* \"#utility.yul\":2731:2737   */\n      dup2\n        /* \"#utility.yul\":2723:2729   */\n      dup3\n        /* \"#utility.yul\":2716:2738   */\n      revert\n        /* \"#utility.yul\":2678:2680   */\n    tag_134:\n        /* \"#utility.yul\":2762:2780   */\n      tag_135\n        /* \"#utility.yul\":2777:2779   */\n      dup2\n        /* \"#utility.yul\":2762:2780   */\n      tag_136\n      jump\t// in\n    tag_135:\n        /* \"#utility.yul\":2749:2780   */\n      swap1\n      pop\n        /* \"#utility.yul\":2803:2878   */\n      tag_137\n        /* \"#utility.yul\":2870:2877   */\n      dup5\n        /* \"#utility.yul\":2859:2868   */\n      dup5\n        /* \"#utility.yul\":2803:2878   */\n      tag_113\n      jump\t// in\n    tag_137:\n        /* \"#utility.yul\":2796:2801   */\n      dup2\n        /* \"#utility.yul\":2789:2879   */\n      mstore\n        /* \"#utility.yul\":2911:2962   */\n      tag_138\n        /* \"#utility.yul\":2958:2960   */\n      0x20\n        /* \"#utility.yul\":2947:2956   */\n      dup5\n        /* \"#utility.yul\":2943:2961   */\n      add\n        /* \"#utility.yul\":2911:2962   */\n      tag_117\n      jump\t// in\n    tag_138:\n        /* \"#utility.yul\":2906:2908   */\n      0x20\n        /* \"#utility.yul\":2899:2904   */\n      dup3\n        /* \"#utility.yul\":2895:2909   */\n      add\n        /* \"#utility.yul\":2888:2963   */\n      mstore\n        /* \"#utility.yul\":2995:3046   */\n      tag_139\n        /* \"#utility.yul\":3042:3044   */\n      0x40\n        /* \"#utility.yul\":3031:3040   */\n      dup5\n        /* \"#utility.yul\":3027:3045   */\n      add\n        /* \"#utility.yul\":2995:3046   */\n      tag_117\n      jump\t// in\n    tag_139:\n        /* \"#utility.yul\":2990:2992   */\n      0x40\n        /* \"#utility.yul\":2983:2988   */\n      dup3\n        /* \"#utility.yul\":2979:2993   */\n      add\n        /* \"#utility.yul\":2972:3047   */\n      mstore\n        /* \"#utility.yul\":3079:3130   */\n      tag_140\n        /* \"#utility.yul\":3126:3128   */\n      0x60\n        /* \"#utility.yul\":3115:3124   */\n      dup5\n        /* \"#utility.yul\":3111:3129   */\n      add\n        /* \"#utility.yul\":3079:3130   */\n      tag_117\n      jump\t// in\n    tag_140:\n        /* \"#utility.yul\":3074:3076   */\n      0x60\n        /* \"#utility.yul\":3067:3072   */\n      dup3\n        /* \"#utility.yul\":3063:3077   */\n      add\n        /* \"#utility.yul\":3056:3131   */\n      mstore\n        /* \"#utility.yul\":3164:3216   */\n      tag_141\n        /* \"#utility.yul\":3211:3214   */\n      0x80\n        /* \"#utility.yul\":3200:3209   */\n      dup5\n        /* \"#utility.yul\":3196:3215   */\n      add\n        /* \"#utility.yul\":3164:3216   */\n      tag_117\n      jump\t// in\n    tag_141:\n        /* \"#utility.yul\":3158:3161   */\n      0x80\n        /* \"#utility.yul\":3151:3156   */\n      dup3\n        /* \"#utility.yul\":3147:3162   */\n      add\n        /* \"#utility.yul\":3140:3217   */\n      mstore\n        /* \"#utility.yul\":3250:3302   */\n      tag_142\n        /* \"#utility.yul\":3297:3300   */\n      0xa0\n        /* \"#utility.yul\":3286:3295   */\n      dup5\n        /* \"#utility.yul\":3282:3301   */\n      add\n        /* \"#utility.yul\":3250:3302   */\n      tag_117\n      jump\t// in\n    tag_142:\n        /* \"#utility.yul\":3244:3247   */\n      0xa0\n        /* \"#utility.yul\":3237:3242   */\n      dup3\n        /* \"#utility.yul\":3233:3248   */\n      add\n        /* \"#utility.yul\":3226:3303   */\n      mstore\n        /* \"#utility.yul\":3336:3387   */\n      tag_143\n        /* \"#utility.yul\":3382:3385   */\n      0xc0\n        /* \"#utility.yul\":3371:3380   */\n      dup5\n        /* \"#utility.yul\":3367:3386   */\n      add\n        /* \"#utility.yul\":3336:3387   */\n      tag_120\n      jump\t// in\n    tag_143:\n        /* \"#utility.yul\":3330:3333   */\n      0xc0\n        /* \"#utility.yul\":3323:3328   */\n      dup3\n        /* \"#utility.yul\":3319:3334   */\n      add\n        /* \"#utility.yul\":3312:3388   */\n      mstore\n        /* \"#utility.yul\":3421:3473   */\n      tag_144\n        /* \"#utility.yul\":3468:3471   */\n      0xe0\n        /* \"#utility.yul\":3457:3466   */\n      dup5\n        /* \"#utility.yul\":3453:3472   */\n      add\n        /* \"#utility.yul\":3421:3473   */\n      tag_100\n      jump\t// in\n    tag_144:\n        /* \"#utility.yul\":3415:3418   */\n      0xe0\n        /* \"#utility.yul\":3408:3413   */\n      dup3\n        /* \"#utility.yul\":3404:3419   */\n      add\n        /* \"#utility.yul\":3397:3474   */\n      mstore\n        /* \"#utility.yul\":3493:3496   */\n      0x0100\n        /* \"#utility.yul\":3528:3579   */\n      tag_145\n        /* \"#utility.yul\":3575:3577   */\n      dup2\n        /* \"#utility.yul\":3564:3573   */\n      dup6\n        /* \"#utility.yul\":3560:3578   */\n      add\n        /* \"#utility.yul\":3528:3579   */\n      tag_100\n      jump\t// in\n    tag_145:\n        /* \"#utility.yul\":3512:3526   */\n      swap1\n      dup3\n      add\n        /* \"#utility.yul\":3505:3580   */\n      mstore\n        /* \"#utility.yul\":3599:3602   */\n      0x0120\n        /* \"#utility.yul\":3634:3685   */\n      tag_146\n        /* \"#utility.yul\":3666:3684   */\n      dup5\n      dup3\n      add\n        /* \"#utility.yul\":3634:3685   */\n      tag_100\n      jump\t// in\n    tag_146:\n        /* \"#utility.yul\":3618:3632   */\n      swap1\n      dup3\n      add\n        /* \"#utility.yul\":3611:3686   */\n      mstore\n        /* \"#utility.yul\":3705:3708   */\n      0x0140\n        /* \"#utility.yul\":3740:3791   */\n      tag_147\n        /* \"#utility.yul\":3772:3790   */\n      dup5\n      dup3\n      add\n        /* \"#utility.yul\":3740:3791   */\n      tag_100\n      jump\t// in\n    tag_147:\n        /* \"#utility.yul\":3724:3738   */\n      swap1\n      dup3\n      add\n        /* \"#utility.yul\":3717:3792   */\n      mstore\n        /* \"#utility.yul\":3811:3814   */\n      0x0160\n        /* \"#utility.yul\":3846:3895   */\n      tag_148\n        /* \"#utility.yul\":3876:3894   */\n      dup5\n      dup3\n      add\n        /* \"#utility.yul\":3846:3895   */\n      tag_123\n      jump\t// in\n    tag_148:\n        /* \"#utility.yul\":3830:3844   */\n      swap1\n      dup3\n      add\n        /* \"#utility.yul\":3823:3896   */\n      mstore\n        /* \"#utility.yul\":3834:3839   */\n      swap4\n        /* \"#utility.yul\":2646:3926   */\n      swap3\n      pop\n      pop\n      pop\n      jump\t// out\n        /* \"#utility.yul\":3931:4142   */\n    tag_66:\n      sub(shl(0xa0, 0x01), 0x01)\n        /* \"#utility.yul\":4103:4135   */\n      swap2\n      swap1\n      swap2\n      and\n        /* \"#utility.yul\":4085:4136   */\n      dup2\n      mstore\n        /* \"#utility.yul\":4073:4075   */\n      0x20\n        /* \"#utility.yul\":4058:4076   */\n      add\n      swap1\n        /* \"#utility.yul\":4040:4142   */\n      jump\t// out\n        /* \"#utility.yul\":4147:4459   */\n    tag_75:\n      sub(shl(0xa0, 0x01), 0x01)\n        /* \"#utility.yul\":4385:4400   */\n      swap3\n      dup4\n      and\n        /* \"#utility.yul\":4367:4401   */\n      dup2\n      mstore\n        /* \"#utility.yul\":4437:4452   */\n      swap2\n      and\n        /* \"#utility.yul\":4432:4434   */\n      0x20\n        /* \"#utility.yul\":4417:4435   */\n      dup3\n      add\n        /* \"#utility.yul\":4410:4453   */\n      mstore\n        /* \"#utility.yul\":4317:4319   */\n      0x40\n        /* \"#utility.yul\":4302:4320   */\n      add\n      swap1\n        /* \"#utility.yul\":4284:4459   */\n      jump\t// out\n        /* \"#utility.yul\":4464:5648   */\n    tag_88:\n        /* \"#utility.yul\":4732:4734   */\n      0x40\n        /* \"#utility.yul\":4744:4765   */\n      dup1\n      dup3\n      mstore\n        /* \"#utility.yul\":4814:4827   */\n      dup4\n      mload\n        /* \"#utility.yul\":4717:4735   */\n      swap1\n      dup3\n      add\n        /* \"#utility.yul\":4836:4858   */\n      dup2\n      swap1\n      mstore\n        /* \"#utility.yul\":4464:5648   */\n      0x00\n      swap1\n        /* \"#utility.yul\":4911:4915   */\n      0x20\n      swap1\n        /* \"#utility.yul\":4889:4891   */\n      0x60\n        /* \"#utility.yul\":4874:4892   */\n      dup5\n      add\n      swap1\n        /* \"#utility.yul\":4938:4953   */\n      dup3\n      dup8\n      add\n        /* \"#utility.yul\":4464:5648   */\n      dup5\n        /* \"#utility.yul\":4984:5179   */\n    tag_152:\n        /* \"#utility.yul\":4998:5004   */\n      dup3\n        /* \"#utility.yul\":4995:4996   */\n      dup2\n        /* \"#utility.yul\":4992:5005   */\n      lt\n        /* \"#utility.yul\":4984:5179   */\n      iszero\n      tag_154\n      jumpi\n        /* \"#utility.yul\":5063:5076   */\n      dup2\n      mload\n      sub(shl(0xa0, 0x01), 0x01)\n        /* \"#utility.yul\":5059:5098   */\n      and\n        /* \"#utility.yul\":5047:5099   */\n      dup5\n      mstore\n        /* \"#utility.yul\":5119:5131   */\n      swap3\n      dup5\n      add\n      swap3\n        /* \"#utility.yul\":5154:5169   */\n      swap1\n      dup5\n      add\n      swap1\n        /* \"#utility.yul\":5095:5096   */\n      0x01\n        /* \"#utility.yul\":5013:5022   */\n      add\n        /* \"#utility.yul\":4984:5179   */\n      jump(tag_152)\n    tag_154:\n      pop\n      pop\n      pop\n        /* \"#utility.yul\":5215:5234   */\n      dup4\n      dup2\n      sub\n        /* \"#utility.yul\":5195:5213   */\n      dup3\n      dup6\n      add\n        /* \"#utility.yul\":5188:5235   */\n      mstore\n        /* \"#utility.yul\":5285:5298   */\n      dup5\n      mload\n        /* \"#utility.yul\":5307:5328   */\n      dup1\n      dup3\n      mstore\n        /* \"#utility.yul\":5383:5398   */\n      dup6\n      dup4\n      add\n      swap2\n        /* \"#utility.yul\":5346:5358   */\n      dup4\n      add\n      swap1\n        /* \"#utility.yul\":5418:5422   */\n      dup5\n        /* \"#utility.yul\":5431:5620   */\n    tag_155:\n        /* \"#utility.yul\":5447:5455   */\n      dup2\n        /* \"#utility.yul\":5442:5445   */\n      dup2\n        /* \"#utility.yul\":5439:5456   */\n      lt\n        /* \"#utility.yul\":5431:5620   */\n      iszero\n      tag_157\n      jumpi\n        /* \"#utility.yul\":5516:5531   */\n      dup4\n      mload\n        /* \"#utility.yul\":5502:5532   */\n      dup4\n      mstore\n        /* \"#utility.yul\":5593:5610   */\n      swap3\n      dup5\n      add\n      swap3\n        /* \"#utility.yul\":5554:5568   */\n      swap2\n      dup5\n      add\n      swap2\n        /* \"#utility.yul\":5475:5476   */\n      0x01\n        /* \"#utility.yul\":5466:5477   */\n      add\n        /* \"#utility.yul\":5431:5620   */\n      jump(tag_155)\n    tag_157:\n      pop\n        /* \"#utility.yul\":5637:5642   */\n      swap1\n      swap8\n        /* \"#utility.yul\":4693:5648   */\n      swap7\n      pop\n      pop\n      pop\n      pop\n      pop\n      pop\n      pop\n      jump\t// out\n        /* \"#utility.yul\":5653:5927   */\n    tag_28:\n        /* \"#utility.yul\":5827:5852   */\n      swap2\n      dup3\n      mstore\n      sub(shl(0xa0, 0x01), 0x01)\n        /* \"#utility.yul\":5888:5920   */\n      and\n        /* \"#utility.yul\":5883:5885   */\n      0x20\n        /* \"#utility.yul\":5868:5886   */\n      dup3\n      add\n        /* \"#utility.yul\":5861:5921   */\n      mstore\n        /* \"#utility.yul\":5815:5817   */\n      0x40\n        /* \"#utility.yul\":5800:5818   */\n      add\n      swap1\n        /* \"#utility.yul\":5782:5927   */\n      jump\t// out\n        /* \"#utility.yul\":5932:6332   */\n    tag_61:\n        /* \"#utility.yul\":6134:6136   */\n      0x20\n        /* \"#utility.yul\":6116:6137   */\n      dup1\n      dup3\n      mstore\n        /* \"#utility.yul\":6173:6175   */\n      0x24\n        /* \"#utility.yul\":6153:6171   */\n      swap1\n      dup3\n      add\n        /* \"#utility.yul\":6146:6176   */\n      mstore\n        /* \"#utility.yul\":6212:6246   */\n      0x4465627420546f6b656e20756e6465726c79696e6720646f6573206e6f74206d\n        /* \"#utility.yul\":6207:6209   */\n      0x40\n        /* \"#utility.yul\":6192:6210   */\n      dup3\n      add\n        /* \"#utility.yul\":6185:6247   */\n      mstore\n      shl(0xe3, 0x0c2e8c6d)\n        /* \"#utility.yul\":6278:6280   */\n      0x60\n        /* \"#utility.yul\":6263:6281   */\n      dup3\n      add\n        /* \"#utility.yul\":6256:6290   */\n      mstore\n        /* \"#utility.yul\":6322:6325   */\n      0x80\n        /* \"#utility.yul\":6307:6326   */\n      add\n      swap1\n        /* \"#utility.yul\":6106:6332   */\n      jump\t// out\n        /* \"#utility.yul\":6337:6693   */\n    tag_52:\n        /* \"#utility.yul\":6539:6541   */\n      0x20\n        /* \"#utility.yul\":6521:6542   */\n      dup1\n      dup3\n      mstore\n        /* \"#utility.yul\":6558:6576   */\n      dup2\n      dup2\n      add\n        /* \"#utility.yul\":6551:6581   */\n      mstore\n        /* \"#utility.yul\":6617:6651   */\n      0x4f546f6b656e20756e6465726c79696e6720646f6573206e6f74206d61746368\n        /* \"#utility.yul\":6612:6614   */\n      0x40\n        /* \"#utility.yul\":6597:6615   */\n      dup3\n      add\n        /* \"#utility.yul\":6590:6652   */\n      mstore\n        /* \"#utility.yul\":6684:6686   */\n      0x60\n        /* \"#utility.yul\":6669:6687   */\n      add\n      swap1\n        /* \"#utility.yul\":6511:6693   */\n      jump\t// out\n        /* \"#utility.yul\":7048:7225   */\n    tag_93:\n        /* \"#utility.yul\":7194:7219   */\n      swap1\n      dup2\n      mstore\n        /* \"#utility.yul\":7182:7184   */\n      0x20\n        /* \"#utility.yul\":7167:7185   */\n      add\n      swap1\n        /* \"#utility.yul\":7149:7225   */\n      jump\t// out\n        /* \"#utility.yul\":7230:7472   */\n    tag_136:\n        /* \"#utility.yul\":7300:7302   */\n      0x40\n        /* \"#utility.yul\":7294:7303   */\n      mload\n        /* \"#utility.yul\":7330:7347   */\n      dup2\n      dup2\n      add\n        /* \"#utility.yul\":7377:7395   */\n      0xffffffffffffffff\n        /* \"#utility.yul\":7362:7396   */\n      dup2\n      gt\n        /* \"#utility.yul\":7398:7420   */\n      dup3\n      dup3\n      lt\n        /* \"#utility.yul\":7359:7421   */\n      or\n        /* \"#utility.yul\":7356:7358   */\n      iszero\n      tag_164\n      jumpi\n        /* \"#utility.yul\":7424:7433   */\n      invalid\n        /* \"#utility.yul\":7356:7358   */\n    tag_164:\n        /* \"#utility.yul\":7451:7453   */\n      0x40\n        /* \"#utility.yul\":7444:7466   */\n      mstore\n        /* \"#utility.yul\":7274:7472   */\n      swap2\n      swap1\n      pop\n      jump\t// out\n        /* \"#utility.yul\":7477:7610   */\n    tag_103:\n      sub(shl(0xa0, 0x01), 0x01)\n        /* \"#utility.yul\":7554:7585   */\n      dup2\n      and\n        /* \"#utility.yul\":7544:7586   */\n      dup2\n      eq\n        /* \"#utility.yul\":7534:7536   */\n      tag_166\n      jumpi\n        /* \"#utility.yul\":7600:7601   */\n      0x00\n        /* \"#utility.yul\":7597:7598   */\n      dup1\n        /* \"#utility.yul\":7590:7602   */\n      revert\n        /* \"#utility.yul\":7534:7536   */\n    tag_166:\n        /* \"#utility.yul\":7524:7610   */\n      pop\n      jump\t// out\n\n    auxdata: 0xa26469706673582212202e4301c9a8f2aff751a98ff0b856abdc80fcb3501ebd14ff2fe7c54b05b14a3364736f6c63430007050033\n}\n",
				"bytecode": {
					"linkReferences": {},
					"object": "608060405234801561001057600080fd5b50610d36806100206000396000f3fe608060405234801561001057600080fd5b506004361061002b5760003560e01c80638314b22114610030575b600080fd5b61004361003e366004610a55565b610045565b005b60408051600c8082526101a0820190925260009160609190602082016101808036833701905050905061007661088c565b506040805160c081018252736b175474e89094c44da98b954eedeac495271d0f815273056fd409e1d7a124bd7017459dfea2f387b6d5cd602082015273a0b86991c6218b36c1d19d4a2e9eb0ce3606eb488183015273dac17f958d2ee523a2206206994597c13d831ec7606080830191909152732260fac5e5542a773aa44fbcfedf7c193bc2c599608083015273c02aaa39b223fe8d0a0e5c4f27ead9083c756cc260a08301528251600c8082526101a08201909452919290919081602001602082028036833701905050905066060f9d63c6caf88160008151811061015857fe5b60200260200101818152505066060f9d63c6caf88160018151811061017957fe5b6020026020010181815250506554873ca5c45f8160028151811061019957fe5b6020026020010181815250506554873ca5c45f816003815181106101b957fe5b6020026020010181815250506612cc525d318894816004815181106101da57fe5b6020026020010181815250506612cc525d318894816005815181106101fb57fe5b602002602001018181525050660bb38afc0b0f7c8160068151811061021c57fe5b602002602001018181525050660bb38afc0b0f7c8160078151811061023d57fe5b6020026020010181815250506607170abcd5ea8c8160088151811061025e57fe5b602002602001018181525050655f874d4ea08e8160098151811061027e57fe5b6020026020010181815250506608c1da100749be81600a8151811061029f57fe5b6020026020010181815250506575fe00d7f66881600b815181106102bf57fe5b602090810291909101015260405163ca446dd960e01b8152732f75feda7423d8b85988d9545428d00f3213cf0090738761e889ad797bde3bb2b6561982fd1ca4118872907364968b59dd39128c287d76be50015161d10c08c290819063ca446dd990610351907f703c2c8634bed68d98c029c18f310e7f7ec0e5d6342c590190b3cb8b3ba54532908690600401610c2b565b600060405180830381600087803b15801561036b57600080fd5b505af115801561037f573d6000803e3d6000fd5b505060405163177314a360e21b81526001600160a01b0384169250635dcc528c91506103e5907f703c2c8634bed68d98c029c18f310e7f7ec0e5d6342c590190b3cb8b3ba545329073554928b31c4ef45862195b0233a3d689b08552a490600401610c2b565b600060405180830381600087803b1580156103ff57600080fd5b505af1158015610413573d6000803e3d6000fd5b5061042692505050565b60405180910390fd5b60005b60068110156107bd5785816006811061043e57fe5b60200201516001600160a01b03168a826006811061045857fe5b60200201516001600160a01b031663b16a19de6040518163ffffffff1660e01b815260040160206040518083038186803b15801561049557600080fd5b505afa1580156104a9573d6000803e3d6000fd5b505050506040513d601f19601f820116820180604052508101906104cd9190610a32565b6001600160a01b0316146104f35760405162461bcd60e51b815260040161041d90610c86565b8581600681106104ff57fe5b60200201516001600160a01b031689826006811061051957fe5b60200201516001600160a01b031663b16a19de6040518163ffffffff1660e01b815260040160206040518083038186803b15801561055657600080fd5b505afa15801561056a573d6000803e3d6000fd5b505050506040513d601f19601f8201168201806040525081019061058e9190610a32565b6001600160a01b0316146105b45760405162461bcd60e51b815260040161041d90610c42565b6105bc6108aa565b73a9ae6e3207bdcccb8f081ee0b4d0d2b4a79ea9846335ea6a758884600681106105e257fe5b60200201516040518263ffffffff1660e01b81526004016106039190610b7a565b6101806040518083038186803b15801561061c57600080fd5b505afa158015610630573d6000803e3d6000fd5b505050506040513d601f19601f820116820180604052508101906106549190610a8a565b9050846001600160a01b03166312e3ae1688846006811061067157fe5b60200201518d856006811061068257fe5b60200201516040518363ffffffff1660e01b81526004016106a4929190610b8e565b600060405180830381600087803b1580156106be57600080fd5b505af11580156106d2573d6000803e3d6000fd5b50505050846001600160a01b0316634d9782588884600681106106f157fe5b60200201518c856006811061070257fe5b60200201516040518363ffffffff1660e01b8152600401610724929190610b8e565b600060405180830381600087803b15801561073e57600080fd5b505af1158015610752573d6000803e3d6000fd5b505050508060e00151888a806001019b508151811061076d57fe5b6001600160a01b0390921660209283029190910190910152610120810151885160018b019a8a91811061079c57fe5b6001600160a01b039092166020928302919091019091015250600101610429565b50604051633cf8b8d960e11b81526001600160a01b038316906379f171b2906107ec9089908890600401610ba8565b600060405180830381600087803b15801561080657600080fd5b505af115801561081a573d6000803e3d6000fd5b50506040516339ccbdd360e01b81526001600160a01b03851692506339ccbdd3915061084f90426276a7000190600401610cbb565b600060405180830381600087803b15801561086957600080fd5b505af115801561087d573d6000803e3d6000fd5b50505050505050505050505050565b6040518060c001604052806006906020820280368337509192915050565b6040518061018001604052806108be610915565b815260006020820181905260408201819052606082018190526080820181905260a0820181905260c0820181905260e082018190526101008201819052610120820181905261014082018190526101609091015290565b6040518060200160405280600081525090565b805161093381610ce8565b919050565b600082601f830112610948578081fd5b60405160c0810181811067ffffffffffffffff8211171561096557fe5b6040529050808260c0810185101561097c57600080fd5b60005b60068110156109a857813561099381610ce8565b8352602092830192919091019060010161097f565b50505092915050565b6000602082840312156109c2578081fd5b6040516020810181811067ffffffffffffffff821117156109df57fe5b6040529151825250919050565b80516fffffffffffffffffffffffffffffffff8116811461093357600080fd5b805164ffffffffff8116811461093357600080fd5b805160ff8116811461093357600080fd5b600060208284031215610a43578081fd5b8151610a4e81610ce8565b9392505050565b6000806101808385031215610a68578081fd5b610a728484610938565b9150610a818460c08501610938565b90509250929050565b6000610180808385031215610a9d578182fd5b610aa681610cc4565b9050610ab284846109b1565b8152610ac0602084016109ec565b6020820152610ad1604084016109ec565b6040820152610ae2606084016109ec565b6060820152610af3608084016109ec565b6080820152610b0460a084016109ec565b60a0820152610b1560c08401610a0c565b60c0820152610b2660e08401610928565b60e0820152610100610b39818501610928565b90820152610120610b4b848201610928565b90820152610140610b5d848201610928565b90820152610160610b6f848201610a21565b908201529392505050565b6001600160a01b0391909116815260200190565b6001600160a01b0392831681529116602082015260400190565b604080825283519082018190526000906020906060840190828701845b82811015610bea5781516001600160a01b031684529284019290840190600101610bc5565b50505083810382850152845180825285830191830190845b81811015610c1e57835183529284019291840191600101610c02565b5090979650505050505050565b9182526001600160a01b0316602082015260400190565b60208082526024908201527f4465627420546f6b656e20756e6465726c79696e6720646f6573206e6f74206d6040820152630c2e8c6d60e31b606082015260800190565b6020808252818101527f4f546f6b656e20756e6465726c79696e6720646f6573206e6f74206d61746368604082015260600190565b90815260200190565b60405181810167ffffffffffffffff81118282101715610ce057fe5b604052919050565b6001600160a01b0381168114610cfd57600080fd5b5056fea26469706673582212202e4301c9a8f2aff751a98ff0b856abdc80fcb3501ebd14ff2fe7c54b05b14a3364736f6c63430007050033",
					"opcodes": "PUSH1 0x80 PUSH1 0x40 MSTORE CALLVALUE DUP1 ISZERO PUSH2 0x10 JUMPI PUSH1 0x0 DUP1 REVERT JUMPDEST POP PUSH2 0xD36 DUP1 PUSH2 0x20 PUSH1 0x0 CODECOPY PUSH1 0x0 RETURN INVALID PUSH1 0x80 PUSH1 0x40 MSTORE CALLVALUE DUP1 ISZERO PUSH2 0x10 JUMPI PUSH1 0x0 DUP1 REVERT JUMPDEST POP PUSH1 0x4 CALLDATASIZE LT PUSH2 0x2B JUMPI PUSH1 0x0 CALLDATALOAD PUSH1 0xE0 SHR DUP1 PUSH4 0x8314B221 EQ PUSH2 0x30 JUMPI JUMPDEST PUSH1 0x0 DUP1 REVERT JUMPDEST PUSH2 0x43 PUSH2 0x3E CALLDATASIZE PUSH1 0x4 PUSH2 0xA55 JUMP JUMPDEST PUSH2 0x45 JUMP JUMPDEST STOP JUMPDEST PUSH1 0x40 DUP1 MLOAD PUSH1 0xC DUP1 DUP3 MSTORE PUSH2 0x1A0 DUP3 ADD SWAP1 SWAP3 MSTORE PUSH1 0x0 SWAP2 PUSH1 0x60 SWAP2 SWAP1 PUSH1 0x20 DUP3 ADD PUSH2 0x180 DUP1 CALLDATASIZE DUP4 CALLDATACOPY ADD SWAP1 POP POP SWAP1 POP PUSH2 0x76 PUSH2 0x88C JUMP JUMPDEST POP PUSH1 0x40 DUP1 MLOAD PUSH1 0xC0 DUP2 ADD DUP3 MSTORE PUSH20 0x6B175474E89094C44DA98B954EEDEAC495271D0F DUP2 MSTORE PUSH20 0x56FD409E1D7A124BD7017459DFEA2F387B6D5CD PUSH1 0x20 DUP3 ADD MSTORE PUSH20 0xA0B86991C6218B36C1D19D4A2E9EB0CE3606EB48 DUP2 DUP4 ADD MSTORE PUSH20 0xDAC17F958D2EE523A2206206994597C13D831EC7 PUSH1 0x60 DUP1 DUP4 ADD SWAP2 SWAP1 SWAP2 MSTORE PUSH20 0x2260FAC5E5542A773AA44FBCFEDF7C193BC2C599 PUSH1 0x80 DUP4 ADD MSTORE PUSH20 0xC02AAA39B223FE8D0A0E5C4F27EAD9083C756CC2 PUSH1 0xA0 DUP4 ADD MSTORE DUP3 MLOAD PUSH1 0xC DUP1 DUP3 MSTORE PUSH2 0x1A0 DUP3 ADD SWAP1 SWAP5 MSTORE SWAP2 SWAP3 SWAP1 SWAP2 SWAP1 DUP2 PUSH1 0x20 ADD PUSH1 0x20 DUP3 MUL DUP1 CALLDATASIZE DUP4 CALLDATACOPY ADD SWAP1 POP POP SWAP1 POP PUSH7 0x60F9D63C6CAF8 DUP2 PUSH1 0x0 DUP2 MLOAD DUP2 LT PUSH2 0x158 JUMPI INVALID JUMPDEST PUSH1 0x20 MUL PUSH1 0x20 ADD ADD DUP2 DUP2 MSTORE POP POP PUSH7 0x60F9D63C6CAF8 DUP2 PUSH1 0x1 DUP2 MLOAD DUP2 LT PUSH2 0x179 JUMPI INVALID JUMPDEST PUSH1 0x20 MUL PUSH1 0x20 ADD ADD DUP2 DUP2 MSTORE POP POP PUSH6 0x54873CA5C45F DUP2 PUSH1 0x2 DUP2 MLOAD DUP2 LT PUSH2 0x199 JUMPI INVALID JUMPDEST PUSH1 0x20 MUL PUSH1 0x20 ADD ADD DUP2 DUP2 MSTORE POP POP PUSH6 0x54873CA5C45F DUP2 PUSH1 0x3 DUP2 MLOAD DUP2 LT PUSH2 0x1B9 JUMPI INVALID JUMPDEST PUSH1 0x20 MUL PUSH1 0x20 ADD ADD DUP2 DUP2 MSTORE POP POP PUSH7 0x12CC525D318894 DUP2 PUSH1 0x4 DUP2 MLOAD DUP2 LT PUSH2 0x1DA JUMPI INVALID JUMPDEST PUSH1 0x20 MUL PUSH1 0x20 ADD ADD DUP2 DUP2 MSTORE POP POP PUSH7 0x12CC525D318894 DUP2 PUSH1 0x5 DUP2 MLOAD DUP2 LT PUSH2 0x1FB JUMPI INVALID JUMPDEST PUSH1 0x20 MUL PUSH1 0x20 ADD ADD DUP2 DUP2 MSTORE POP POP PUSH7 0xBB38AFC0B0F7C DUP2 PUSH1 0x6 DUP2 MLOAD DUP2 LT PUSH2 0x21C JUMPI INVALID JUMPDEST PUSH1 0x20 MUL PUSH1 0x20 ADD ADD DUP2 DUP2 MSTORE POP POP PUSH7 0xBB38AFC0B0F7C DUP2 PUSH1 0x7 DUP2 MLOAD DUP2 LT PUSH2 0x23D JUMPI INVALID JUMPDEST PUSH1 0x20 MUL PUSH1 0x20 ADD ADD DUP2 DUP2 MSTORE POP POP PUSH7 0x7170ABCD5EA8C DUP2 PUSH1 0x8 DUP2 MLOAD DUP2 LT PUSH2 0x25E JUMPI INVALID JUMPDEST PUSH1 0x20 MUL PUSH1 0x20 ADD ADD DUP2 DUP2 MSTORE POP POP PUSH6 0x5F874D4EA08E DUP2 PUSH1 0x9 DUP2 MLOAD DUP2 LT PUSH2 0x27E JUMPI INVALID JUMPDEST PUSH1 0x20 MUL PUSH1 0x20 ADD ADD DUP2 DUP2 MSTORE POP POP PUSH7 0x8C1DA100749BE DUP2 PUSH1 0xA DUP2 MLOAD DUP2 LT PUSH2 0x29F JUMPI INVALID JUMPDEST PUSH1 0x20 MUL PUSH1 0x20 ADD ADD DUP2 DUP2 MSTORE POP POP PUSH6 0x75FE00D7F668 DUP2 PUSH1 0xB DUP2 MLOAD DUP2 LT PUSH2 0x2BF JUMPI INVALID JUMPDEST PUSH1 0x20 SWAP1 DUP2 MUL SWAP2 SWAP1 SWAP2 ADD ADD MSTORE PUSH1 0x40 MLOAD PUSH4 0xCA446DD9 PUSH1 0xE0 SHL DUP2 MSTORE PUSH20 0x2F75FEDA7423D8B85988D9545428D00F3213CF00 SWAP1 PUSH20 0x8761E889AD797BDE3BB2B6561982FD1CA4118872 SWAP1 PUSH20 0x64968B59DD39128C287D76BE50015161D10C08C2 SWAP1 DUP2 SWAP1 PUSH4 0xCA446DD9 SWAP1 PUSH2 0x351 SWAP1 PUSH32 0x703C2C8634BED68D98C029C18F310E7F7EC0E5D6342C590190B3CB8B3BA54532 SWAP1 DUP7 SWAP1 PUSH1 0x4 ADD PUSH2 0xC2B JUMP JUMPDEST PUSH1 0x0 PUSH1 0x40 MLOAD DUP1 DUP4 SUB DUP2 PUSH1 0x0 DUP8 DUP1 EXTCODESIZE ISZERO DUP1 ISZERO PUSH2 0x36B JUMPI PUSH1 0x0 DUP1 REVERT JUMPDEST POP GAS CALL ISZERO DUP1 ISZERO PUSH2 0x37F JUMPI RETURNDATASIZE PUSH1 0x0 DUP1 RETURNDATACOPY RETURNDATASIZE PUSH1 0x0 REVERT JUMPDEST POP POP PUSH1 0x40 MLOAD PUSH4 0x177314A3 PUSH1 0xE2 SHL DUP2 MSTORE PUSH1 0x1 PUSH1 0x1 PUSH1 0xA0 SHL SUB DUP5 AND SWAP3 POP PUSH4 0x5DCC528C SWAP2 POP PUSH2 0x3E5 SWAP1 PUSH32 0x703C2C8634BED68D98C029C18F310E7F7EC0E5D6342C590190B3CB8B3BA54532 SWAP1 PUSH20 0x554928B31C4EF45862195B0233A3D689B08552A4 SWAP1 PUSH1 0x4 ADD PUSH2 0xC2B JUMP JUMPDEST PUSH1 0x0 PUSH1 0x40 MLOAD DUP1 DUP4 SUB DUP2 PUSH1 0x0 DUP8 DUP1 EXTCODESIZE ISZERO DUP1 ISZERO PUSH2 0x3FF JUMPI PUSH1 0x0 DUP1 REVERT JUMPDEST POP GAS CALL ISZERO DUP1 ISZERO PUSH2 0x413 JUMPI RETURNDATASIZE PUSH1 0x0 DUP1 RETURNDATACOPY RETURNDATASIZE PUSH1 0x0 REVERT JUMPDEST POP PUSH2 0x426 SWAP3 POP POP POP JUMP JUMPDEST PUSH1 0x40 MLOAD DUP1 SWAP2 SUB SWAP1 REVERT JUMPDEST PUSH1 0x0 JUMPDEST PUSH1 0x6 DUP2 LT ISZERO PUSH2 0x7BD JUMPI DUP6 DUP2 PUSH1 0x6 DUP2 LT PUSH2 0x43E JUMPI INVALID JUMPDEST PUSH1 0x20 MUL ADD MLOAD PUSH1 0x1 PUSH1 0x1 PUSH1 0xA0 SHL SUB AND DUP11 DUP3 PUSH1 0x6 DUP2 LT PUSH2 0x458 JUMPI INVALID JUMPDEST PUSH1 0x20 MUL ADD MLOAD PUSH1 0x1 PUSH1 0x1 PUSH1 0xA0 SHL SUB AND PUSH4 0xB16A19DE PUSH1 0x40 MLOAD DUP2 PUSH4 0xFFFFFFFF AND PUSH1 0xE0 SHL DUP2 MSTORE PUSH1 0x4 ADD PUSH1 0x20 PUSH1 0x40 MLOAD DUP1 DUP4 SUB DUP2 DUP7 DUP1 EXTCODESIZE ISZERO DUP1 ISZERO PUSH2 0x495 JUMPI PUSH1 0x0 DUP1 REVERT JUMPDEST POP GAS STATICCALL ISZERO DUP1 ISZERO PUSH2 0x4A9 JUMPI RETURNDATASIZE PUSH1 0x0 DUP1 RETURNDATACOPY RETURNDATASIZE PUSH1 0x0 REVERT JUMPDEST POP POP POP POP PUSH1 0x40 MLOAD RETURNDATASIZE PUSH1 0x1F NOT PUSH1 0x1F DUP3 ADD AND DUP3 ADD DUP1 PUSH1 0x40 MSTORE POP DUP2 ADD SWAP1 PUSH2 0x4CD SWAP2 SWAP1 PUSH2 0xA32 JUMP JUMPDEST PUSH1 0x1 PUSH1 0x1 PUSH1 0xA0 SHL SUB AND EQ PUSH2 0x4F3 JUMPI PUSH1 0x40 MLOAD PUSH3 0x461BCD PUSH1 0xE5 SHL DUP2 MSTORE PUSH1 0x4 ADD PUSH2 0x41D SWAP1 PUSH2 0xC86 JUMP JUMPDEST DUP6 DUP2 PUSH1 0x6 DUP2 LT PUSH2 0x4FF JUMPI INVALID JUMPDEST PUSH1 0x20 MUL ADD MLOAD PUSH1 0x1 PUSH1 0x1 PUSH1 0xA0 SHL SUB AND DUP10 DUP3 PUSH1 0x6 DUP2 LT PUSH2 0x519 JUMPI INVALID JUMPDEST PUSH1 0x20 MUL ADD MLOAD PUSH1 0x1 PUSH1 0x1 PUSH1 0xA0 SHL SUB AND PUSH4 0xB16A19DE PUSH1 0x40 MLOAD DUP2 PUSH4 0xFFFFFFFF AND PUSH1 0xE0 SHL DUP2 MSTORE PUSH1 0x4 ADD PUSH1 0x20 PUSH1 0x40 MLOAD DUP1 DUP4 SUB DUP2 DUP7 DUP1 EXTCODESIZE ISZERO DUP1 ISZERO PUSH2 0x556 JUMPI PUSH1 0x0 DUP1 REVERT JUMPDEST POP GAS STATICCALL ISZERO DUP1 ISZERO PUSH2 0x56A JUMPI RETURNDATASIZE PUSH1 0x0 DUP1 RETURNDATACOPY RETURNDATASIZE PUSH1 0x0 REVERT JUMPDEST POP POP POP POP PUSH1 0x40 MLOAD RETURNDATASIZE PUSH1 0x1F NOT PUSH1 0x1F DUP3 ADD AND DUP3 ADD DUP1 PUSH1 0x40 MSTORE POP DUP2 ADD SWAP1 PUSH2 0x58E SWAP2 SWAP1 PUSH2 0xA32 JUMP JUMPDEST PUSH1 0x1 PUSH1 0x1 PUSH1 0xA0 SHL SUB AND EQ PUSH2 0x5B4 JUMPI PUSH1 0x40 MLOAD PUSH3 0x461BCD PUSH1 0xE5 SHL DUP2 MSTORE PUSH1 0x4 ADD PUSH2 0x41D SWAP1 PUSH2 0xC42 JUMP JUMPDEST PUSH2 0x5BC PUSH2 0x8AA JUMP JUMPDEST PUSH20 0xA9AE6E3207BDCCCB8F081EE0B4D0D2B4A79EA984 PUSH4 0x35EA6A75 DUP9 DUP5 PUSH1 0x6 DUP2 LT PUSH2 0x5E2 JUMPI INVALID JUMPDEST PUSH1 0x20 MUL ADD MLOAD PUSH1 0x40 MLOAD DUP3 PUSH4 0xFFFFFFFF AND PUSH1 0xE0 SHL DUP2 MSTORE PUSH1 0x4 ADD PUSH2 0x603 SWAP2 SWAP1 PUSH2 0xB7A JUMP JUMPDEST PUSH2 0x180 PUSH1 0x40 MLOAD DUP1 DUP4 SUB DUP2 DUP7 DUP1 EXTCODESIZE ISZERO DUP1 ISZERO PUSH2 0x61C JUMPI PUSH1 0x0 DUP1 REVERT JUMPDEST POP GAS STATICCALL ISZERO DUP1 ISZERO PUSH2 0x630 JUMPI RETURNDATASIZE PUSH1 0x0 DUP1 RETURNDATACOPY RETURNDATASIZE PUSH1 0x0 REVERT JUMPDEST POP POP POP POP PUSH1 0x40 MLOAD RETURNDATASIZE PUSH1 0x1F NOT PUSH1 0x1F DUP3 ADD AND DUP3 ADD DUP1 PUSH1 0x40 MSTORE POP DUP2 ADD SWAP1 PUSH2 0x654 SWAP2 SWAP1 PUSH2 0xA8A JUMP JUMPDEST SWAP1 POP DUP5 PUSH1 0x1 PUSH1 0x1 PUSH1 0xA0 SHL SUB AND PUSH4 0x12E3AE16 DUP9 DUP5 PUSH1 0x6 DUP2 LT PUSH2 0x671 JUMPI INVALID JUMPDEST PUSH1 0x20 MUL ADD MLOAD DUP14 DUP6 PUSH1 0x6 DUP2 LT PUSH2 0x682 JUMPI INVALID JUMPDEST PUSH1 0x20 MUL ADD MLOAD PUSH1 0x40 MLOAD DUP4 PUSH4 0xFFFFFFFF AND PUSH1 0xE0 SHL DUP2 MSTORE PUSH1 0x4 ADD PUSH2 0x6A4 SWAP3 SWAP2 SWAP1 PUSH2 0xB8E JUMP JUMPDEST PUSH1 0x0 PUSH1 0x40 MLOAD DUP1 DUP4 SUB DUP2 PUSH1 0x0 DUP8 DUP1 EXTCODESIZE ISZERO DUP1 ISZERO PUSH2 0x6BE JUMPI PUSH1 0x0 DUP1 REVERT JUMPDEST POP GAS CALL ISZERO DUP1 ISZERO PUSH2 0x6D2 JUMPI RETURNDATASIZE PUSH1 0x0 DUP1 RETURNDATACOPY RETURNDATASIZE PUSH1 0x0 REVERT JUMPDEST POP POP POP POP DUP5 PUSH1 0x1 PUSH1 0x1 PUSH1 0xA0 SHL SUB AND PUSH4 0x4D978258 DUP9 DUP5 PUSH1 0x6 DUP2 LT PUSH2 0x6F1 JUMPI INVALID JUMPDEST PUSH1 0x20 MUL ADD MLOAD DUP13 DUP6 PUSH1 0x6 DUP2 LT PUSH2 0x702 JUMPI INVALID JUMPDEST PUSH1 0x20 MUL ADD MLOAD PUSH1 0x40 MLOAD DUP4 PUSH4 0xFFFFFFFF AND PUSH1 0xE0 SHL DUP2 MSTORE PUSH1 0x4 ADD PUSH2 0x724 SWAP3 SWAP2 SWAP1 PUSH2 0xB8E JUMP JUMPDEST PUSH1 0x0 PUSH1 0x40 MLOAD DUP1 DUP4 SUB DUP2 PUSH1 0x0 DUP8 DUP1 EXTCODESIZE ISZERO DUP1 ISZERO PUSH2 0x73E JUMPI PUSH1 0x0 DUP1 REVERT JUMPDEST POP GAS CALL ISZERO DUP1 ISZERO PUSH2 0x752 JUMPI RETURNDATASIZE PUSH1 0x0 DUP1 RETURNDATACOPY RETURNDATASIZE PUSH1 0x0 REVERT JUMPDEST POP POP POP POP DUP1 PUSH1 0xE0 ADD MLOAD DUP9 DUP11 DUP1 PUSH1 0x1 ADD SWAP12 POP DUP2 MLOAD DUP2 LT PUSH2 0x76D JUMPI INVALID JUMPDEST PUSH1 0x1 PUSH1 0x1 PUSH1 0xA0 SHL SUB SWAP1 SWAP3 AND PUSH1 0x20 SWAP3 DUP4 MUL SWAP2 SWAP1 SWAP2 ADD SWAP1 SWAP2 ADD MSTORE PUSH2 0x120 DUP2 ADD MLOAD DUP9 MLOAD PUSH1 0x1 DUP12 ADD SWAP11 DUP11 SWAP2 DUP2 LT PUSH2 0x79C JUMPI INVALID JUMPDEST PUSH1 0x1 PUSH1 0x1 PUSH1 0xA0 SHL SUB SWAP1 SWAP3 AND PUSH1 0x20 SWAP3 DUP4 MUL SWAP2 SWAP1 SWAP2 ADD SWAP1 SWAP2 ADD MSTORE POP PUSH1 0x1 ADD PUSH2 0x429 JUMP JUMPDEST POP PUSH1 0x40 MLOAD PUSH4 0x3CF8B8D9 PUSH1 0xE1 SHL DUP2 MSTORE PUSH1 0x1 PUSH1 0x1 PUSH1 0xA0 SHL SUB DUP4 AND SWAP1 PUSH4 0x79F171B2 SWAP1 PUSH2 0x7EC SWAP1 DUP10 SWAP1 DUP9 SWAP1 PUSH1 0x4 ADD PUSH2 0xBA8 JUMP JUMPDEST PUSH1 0x0 PUSH1 0x40 MLOAD DUP1 DUP4 SUB DUP2 PUSH1 0x0 DUP8 DUP1 EXTCODESIZE ISZERO DUP1 ISZERO PUSH2 0x806 JUMPI PUSH1 0x0 DUP1 REVERT JUMPDEST POP GAS CALL ISZERO DUP1 ISZERO PUSH2 0x81A JUMPI RETURNDATASIZE PUSH1 0x0 DUP1 RETURNDATACOPY RETURNDATASIZE PUSH1 0x0 REVERT JUMPDEST POP POP PUSH1 0x40 MLOAD PUSH4 0x39CCBDD3 PUSH1 0xE0 SHL DUP2 MSTORE PUSH1 0x1 PUSH1 0x1 PUSH1 0xA0 SHL SUB DUP6 AND SWAP3 POP PUSH4 0x39CCBDD3 SWAP2 POP PUSH2 0x84F SWAP1 TIMESTAMP PUSH3 0x76A700 ADD SWAP1 PUSH1 0x4 ADD PUSH2 0xCBB JUMP JUMPDEST PUSH1 0x0 PUSH1 0x40 MLOAD DUP1 DUP4 SUB DUP2 PUSH1 0x0 DUP8 DUP1 EXTCODESIZE ISZERO DUP1 ISZERO PUSH2 0x869 JUMPI PUSH1 0x0 DUP1 REVERT JUMPDEST POP GAS CALL ISZERO DUP1 ISZERO PUSH2 0x87D JUMPI RETURNDATASIZE PUSH1 0x0 DUP1 RETURNDATACOPY RETURNDATASIZE PUSH1 0x0 REVERT JUMPDEST POP POP POP POP POP POP POP POP POP POP POP POP POP JUMP JUMPDEST PUSH1 0x40 MLOAD DUP1 PUSH1 0xC0 ADD PUSH1 0x40 MSTORE DUP1 PUSH1 0x6 SWAP1 PUSH1 0x20 DUP3 MUL DUP1 CALLDATASIZE DUP4 CALLDATACOPY POP SWAP2 SWAP3 SWAP2 POP POP JUMP JUMPDEST PUSH1 0x40 MLOAD DUP1 PUSH2 0x180 ADD PUSH1 0x40 MSTORE DUP1 PUSH2 0x8BE PUSH2 0x915 JUMP JUMPDEST DUP2 MSTORE PUSH1 0x0 PUSH1 0x20 DUP3 ADD DUP2 SWAP1 MSTORE PUSH1 0x40 DUP3 ADD DUP2 SWAP1 MSTORE PUSH1 0x60 DUP3 ADD DUP2 SWAP1 MSTORE PUSH1 0x80 DUP3 ADD DUP2 SWAP1 MSTORE PUSH1 0xA0 DUP3 ADD DUP2 SWAP1 MSTORE PUSH1 0xC0 DUP3 ADD DUP2 SWAP1 MSTORE PUSH1 0xE0 DUP3 ADD DUP2 SWAP1 MSTORE PUSH2 0x100 DUP3 ADD DUP2 SWAP1 MSTORE PUSH2 0x120 DUP3 ADD DUP2 SWAP1 MSTORE PUSH2 0x140 DUP3 ADD DUP2 SWAP1 MSTORE PUSH2 0x160 SWAP1 SWAP2 ADD MSTORE SWAP1 JUMP JUMPDEST PUSH1 0x40 MLOAD DUP1 PUSH1 0x20 ADD PUSH1 0x40 MSTORE DUP1 PUSH1 0x0 DUP2 MSTORE POP SWAP1 JUMP JUMPDEST DUP1 MLOAD PUSH2 0x933 DUP2 PUSH2 0xCE8 JUMP JUMPDEST SWAP2 SWAP1 POP JUMP JUMPDEST PUSH1 0x0 DUP3 PUSH1 0x1F DUP4 ADD SLT PUSH2 0x948 JUMPI DUP1 DUP2 REVERT JUMPDEST PUSH1 0x40 MLOAD PUSH1 0xC0 DUP2 ADD DUP2 DUP2 LT PUSH8 0xFFFFFFFFFFFFFFFF DUP3 GT OR ISZERO PUSH2 0x965 JUMPI INVALID JUMPDEST PUSH1 0x40 MSTORE SWAP1 POP DUP1 DUP3 PUSH1 0xC0 DUP2 ADD DUP6 LT ISZERO PUSH2 0x97C JUMPI PUSH1 0x0 DUP1 REVERT JUMPDEST PUSH1 0x0 JUMPDEST PUSH1 0x6 DUP2 LT ISZERO PUSH2 0x9A8 JUMPI DUP2 CALLDATALOAD PUSH2 0x993 DUP2 PUSH2 0xCE8 JUMP JUMPDEST DUP4 MSTORE PUSH1 0x20 SWAP3 DUP4 ADD SWAP3 SWAP2 SWAP1 SWAP2 ADD SWAP1 PUSH1 0x1 ADD PUSH2 0x97F JUMP JUMPDEST POP POP POP SWAP3 SWAP2 POP POP JUMP JUMPDEST PUSH1 0x0 PUSH1 0x20 DUP3 DUP5 SUB SLT ISZERO PUSH2 0x9C2 JUMPI DUP1 DUP2 REVERT JUMPDEST PUSH1 0x40 MLOAD PUSH1 0x20 DUP2 ADD DUP2 DUP2 LT PUSH8 0xFFFFFFFFFFFFFFFF DUP3 GT OR ISZERO PUSH2 0x9DF JUMPI INVALID JUMPDEST PUSH1 0x40 MSTORE SWAP2 MLOAD DUP3 MSTORE POP SWAP2 SWAP1 POP JUMP JUMPDEST DUP1 MLOAD PUSH16 0xFFFFFFFFFFFFFFFFFFFFFFFFFFFFFFFF DUP2 AND DUP2 EQ PUSH2 0x933 JUMPI PUSH1 0x0 DUP1 REVERT JUMPDEST DUP1 MLOAD PUSH5 0xFFFFFFFFFF DUP2 AND DUP2 EQ PUSH2 0x933 JUMPI PUSH1 0x0 DUP1 REVERT JUMPDEST DUP1 MLOAD PUSH1 0xFF DUP2 AND DUP2 EQ PUSH2 0x933 JUMPI PUSH1 0x0 DUP1 REVERT JUMPDEST PUSH1 0x0 PUSH1 0x20 DUP3 DUP5 SUB SLT ISZERO PUSH2 0xA43 JUMPI DUP1 DUP2 REVERT JUMPDEST DUP2 MLOAD PUSH2 0xA4E DUP2 PUSH2 0xCE8 JUMP JUMPDEST SWAP4 SWAP3 POP POP POP JUMP JUMPDEST PUSH1 0x0 DUP1 PUSH2 0x180 DUP4 DUP6 SUB SLT ISZERO PUSH2 0xA68 JUMPI DUP1 DUP2 REVERT JUMPDEST PUSH2 0xA72 DUP5 DUP5 PUSH2 0x938 JUMP JUMPDEST SWAP2 POP PUSH2 0xA81 DUP5 PUSH1 0xC0 DUP6 ADD PUSH2 0x938 JUMP JUMPDEST SWAP1 POP SWAP3 POP SWAP3 SWAP1 POP JUMP JUMPDEST PUSH1 0x0 PUSH2 0x180 DUP1 DUP4 DUP6 SUB SLT ISZERO PUSH2 0xA9D JUMPI DUP2 DUP3 REVERT JUMPDEST PUSH2 0xAA6 DUP2 PUSH2 0xCC4 JUMP JUMPDEST SWAP1 POP PUSH2 0xAB2 DUP5 DUP5 PUSH2 0x9B1 JUMP JUMPDEST DUP2 MSTORE PUSH2 0xAC0 PUSH1 0x20 DUP5 ADD PUSH2 0x9EC JUMP JUMPDEST PUSH1 0x20 DUP3 ADD MSTORE PUSH2 0xAD1 PUSH1 0x40 DUP5 ADD PUSH2 0x9EC JUMP JUMPDEST PUSH1 0x40 DUP3 ADD MSTORE PUSH2 0xAE2 PUSH1 0x60 DUP5 ADD PUSH2 0x9EC JUMP JUMPDEST PUSH1 0x60 DUP3 ADD MSTORE PUSH2 0xAF3 PUSH1 0x80 DUP5 ADD PUSH2 0x9EC JUMP JUMPDEST PUSH1 0x80 DUP3 ADD MSTORE PUSH2 0xB04 PUSH1 0xA0 DUP5 ADD PUSH2 0x9EC JUMP JUMPDEST PUSH1 0xA0 DUP3 ADD MSTORE PUSH2 0xB15 PUSH1 0xC0 DUP5 ADD PUSH2 0xA0C JUMP JUMPDEST PUSH1 0xC0 DUP3 ADD MSTORE PUSH2 0xB26 PUSH1 0xE0 DUP5 ADD PUSH2 0x928 JUMP JUMPDEST PUSH1 0xE0 DUP3 ADD MSTORE PUSH2 0x100 PUSH2 0xB39 DUP2 DUP6 ADD PUSH2 0x928 JUMP JUMPDEST SWAP1 DUP3 ADD MSTORE PUSH2 0x120 PUSH2 0xB4B DUP5 DUP3 ADD PUSH2 0x928 JUMP JUMPDEST SWAP1 DUP3 ADD MSTORE PUSH2 0x140 PUSH2 0xB5D DUP5 DUP3 ADD PUSH2 0x928 JUMP JUMPDEST SWAP1 DUP3 ADD MSTORE PUSH2 0x160 PUSH2 0xB6F DUP5 DUP3 ADD PUSH2 0xA21 JUMP JUMPDEST SWAP1 DUP3 ADD MSTORE SWAP4 SWAP3 POP POP POP JUMP JUMPDEST PUSH1 0x1 PUSH1 0x1 PUSH1 0xA0 SHL SUB SWAP2 SWAP1 SWAP2 AND DUP2 MSTORE PUSH1 0x20 ADD SWAP1 JUMP JUMPDEST PUSH1 0x1 PUSH1 0x1 PUSH1 0xA0 SHL SUB SWAP3 DUP4 AND DUP2 MSTORE SWAP2 AND PUSH1 0x20 DUP3 ADD MSTORE PUSH1 0x40 ADD SWAP1 JUMP JUMPDEST PUSH1 0x40 DUP1 DUP3 MSTORE DUP4 MLOAD SWAP1 DUP3 ADD DUP2 SWAP1 MSTORE PUSH1 0x0 SWAP1 PUSH1 0x20 SWAP1 PUSH1 0x60 DUP5 ADD SWAP1 DUP3 DUP8 ADD DUP5 JUMPDEST DUP3 DUP2 LT ISZERO PUSH2 0xBEA JUMPI DUP2 MLOAD PUSH1 0x1 PUSH1 0x1 PUSH1 0xA0 SHL SUB AND DUP5 MSTORE SWAP3 DUP5 ADD SWAP3 SWAP1 DUP5 ADD SWAP1 PUSH1 0x1 ADD PUSH2 0xBC5 JUMP JUMPDEST POP POP POP DUP4 DUP2 SUB DUP3 DUP6 ADD MSTORE DUP5 MLOAD DUP1 DUP3 MSTORE DUP6 DUP4 ADD SWAP2 DUP4 ADD SWAP1 DUP5 JUMPDEST DUP2 DUP2 LT ISZERO PUSH2 0xC1E JUMPI DUP4 MLOAD DUP4 MSTORE SWAP3 DUP5 ADD SWAP3 SWAP2 DUP5 ADD SWAP2 PUSH1 0x1 ADD PUSH2 0xC02 JUMP JUMPDEST POP SWAP1 SWAP8 SWAP7 POP POP POP POP POP POP POP JUMP JUMPDEST SWAP2 DUP3 MSTORE PUSH1 0x1 PUSH1 0x1 PUSH1 0xA0 SHL SUB AND PUSH1 0x20 DUP3 ADD MSTORE PUSH1 0x40 ADD SWAP1 JUMP JUMPDEST PUSH1 0x20 DUP1 DUP3 MSTORE PUSH1 0x24 SWAP1 DUP3 ADD MSTORE PUSH32 0x4465627420546F6B656E20756E6465726C79696E6720646F6573206E6F74206D PUSH1 0x40 DUP3 ADD MSTORE PUSH4 0xC2E8C6D PUSH1 0xE3 SHL PUSH1 0x60 DUP3 ADD MSTORE PUSH1 0x80 ADD SWAP1 JUMP JUMPDEST PUSH1 0x20 DUP1 DUP3 MSTORE DUP2 DUP2 ADD MSTORE PUSH32 0x4F546F6B656E20756E6465726C79696E6720646F6573206E6F74206D61746368 PUSH1 0x40 DUP3 ADD MSTORE PUSH1 0x60 ADD SWAP1 JUMP JUMPDEST SWAP1 DUP2 MSTORE PUSH1 0x20 ADD SWAP1 JUMP JUMPDEST PUSH1 0x40 MLOAD DUP2 DUP2 ADD PUSH8 0xFFFFFFFFFFFFFFFF DUP2 GT DUP3 DUP3 LT OR ISZERO PUSH2 0xCE0 JUMPI INVALID JUMPDEST PUSH1 0x40 MSTORE SWAP2 SWAP1 POP JUMP JUMPDEST PUSH1 0x1 PUSH1 0x1 PUSH1 0xA0 SHL SUB DUP2 AND DUP2 EQ PUSH2 0xCFD JUMPI PUSH1 0x0 DUP1 REVERT JUMPDEST POP JUMP INVALID LOG2 PUSH5 0x6970667358 0x22 SLT KECCAK256 0x2E NUMBER ADD 0xC9 0xA8 CALLCODE 0xAF 0xF7 MLOAD 0xA9 DUP16 CREATE 0xB8 JUMP 0xAB 0xDC DUP1 0xFC 0xB3 POP 0x1E 0xBD EQ SELFDESTRUCT 0x2F 0xE7 0xC5 0x4B SDIV 0xB1 0x4A CALLER PUSH5 0x736F6C6343 STOP SMOD SDIV STOP CALLER "
				},
				"gasEstimates": {
					"creation": {
						"codeDepositCost": "676400",
						"executionCost": "708",
						"totalCost": "677108"
					},
					"external": {
						"execute(address[6],address[6])": "infinite"
					}
				},
				"methodIdentifiers": {
					"execute(address[6],address[6])": "8314b221"
				}
			},
			"storageLayout": {
				"storage": [],
				"types": null
			},
			"userdoc": {
				"kind": "user",
				"methods": {},
				"version": 1
			}
		}
	}
}