{
	"contracts/Omnidex-incentives/proposals/TestConfig.sol": {
		"TestConfig": {
			"abi": [
				{
					"inputs": [],
					"name": "execute",
					"outputs": [],
					"stateMutability": "nonpayable",
					"type": "function"
				}
			],
			"devdoc": {
				"kind": "dev",
				"methods": {},
				"version": 1
			},
			"evm": {
				"assembly": "    /* \"contracts/Omnidex-incentives/proposals/TestConfig.sol\":908:2343  contract TestConfig {\r... */\n  mstore(0x40, 0x80)\n  callvalue\n  dup1\n  iszero\n  tag_1\n  jumpi\n  0x00\n  dup1\n  revert\ntag_1:\n  pop\n  dataSize(sub_0)\n  dup1\n  dataOffset(sub_0)\n  0x00\n  codecopy\n  0x00\n  return\nstop\n\nsub_0: assembly {\n        /* \"contracts/Omnidex-incentives/proposals/TestConfig.sol\":908:2343  contract TestConfig {\r... */\n      mstore(0x40, 0x80)\n      callvalue\n      dup1\n      iszero\n      tag_1\n      jumpi\n      0x00\n      dup1\n      revert\n    tag_1:\n      pop\n      jumpi(tag_2, lt(calldatasize, 0x04))\n      shr(0xe0, calldataload(0x00))\n      dup1\n      0x61461954\n      eq\n      tag_3\n      jumpi\n    tag_2:\n      0x00\n      dup1\n      revert\n        /* \"contracts/Omnidex-incentives/proposals/TestConfig.sol\":2083:2340  function execute() external  {\r... */\n    tag_3:\n      tag_4\n      tag_5\n      jump\t// in\n    tag_4:\n      stop\n    tag_5:\n        /* \"contracts/Omnidex-incentives/proposals/TestConfig.sol\":2254:2320  poolConfigurator.updateOToken(myreserves, myoTokenImplementations) */\n      mload(0x40)\n      shl(0xe1, 0x0971d70b)\n      dup2\n      mstore\n        /* \"contracts/Omnidex-incentives/proposals/TestConfig.sol\":1150:1192  0x2F75fEDA7423D8B85988d9545428d00f3213CF00 */\n      0x2f75feda7423d8b85988d9545428d00f3213cf00\n      swap1\n      dup2\n      swap1\n        /* \"contracts/Omnidex-incentives/proposals/TestConfig.sol\":2254:2283  poolConfigurator.updateOToken */\n      0x12e3ae16\n      swap1\n        /* \"contracts/Omnidex-incentives/proposals/TestConfig.sol\":2254:2320  poolConfigurator.updateOToken(myreserves, myoTokenImplementations) */\n      tag_7\n      swap1\n        /* \"contracts/Omnidex-incentives/proposals/TestConfig.sol\":1780:1822  0x818ec0A7Fe18Ff94269904fCED6AE3DaE6d6dC0b */\n      0x818ec0a7fe18ff94269904fced6ae3dae6d6dc0b\n      swap1\n        /* \"contracts/Omnidex-incentives/proposals/TestConfig.sol\":1870:1912  0x63D03492cD26c0C1f73a563f7eaB79b52334852A */\n      0x63d03492cd26c0c1f73a563f7eab79b52334852a\n      swap1\n        /* \"contracts/Omnidex-incentives/proposals/TestConfig.sol\":2254:2320  poolConfigurator.updateOToken(myreserves, myoTokenImplementations) */\n      0x04\n      add\n      tag_8\n      jump\t// in\n    tag_7:\n      0x00\n      mload(0x40)\n      dup1\n      dup4\n      sub\n      dup2\n      0x00\n      dup8\n      dup1\n      extcodesize\n      iszero\n      dup1\n      iszero\n      tag_9\n      jumpi\n      0x00\n      dup1\n      revert\n    tag_9:\n      pop\n      gas\n      call\n      iszero\n      dup1\n      iszero\n      tag_11\n      jumpi\n      returndatasize\n      0x00\n      dup1\n      returndatacopy\n      revert(0x00, returndatasize)\n    tag_11:\n      pop\n      pop\n      pop\n      pop\n        /* \"contracts/Omnidex-incentives/proposals/TestConfig.sol\":2083:2340  function execute() external  {\r... */\n      pop\n      jump\t// out\n        /* \"#utility.yul\":14:318   */\n    tag_8:\n      sub(shl(0xa0, 0x01), 0x01)\n        /* \"#utility.yul\":244:259   */\n      swap3\n      dup4\n      and\n        /* \"#utility.yul\":226:260   */\n      dup2\n      mstore\n        /* \"#utility.yul\":296:311   */\n      swap2\n      and\n        /* \"#utility.yul\":291:293   */\n      0x20\n        /* \"#utility.yul\":276:294   */\n      dup3\n      add\n        /* \"#utility.yul\":269:312   */\n      mstore\n        /* \"#utility.yul\":176:178   */\n      0x40\n        /* \"#utility.yul\":161:179   */\n      add\n      swap1\n        /* \"#utility.yul\":143:318   */\n      jump\t// out\n\n    auxdata: 0xa26469706673582212204a7f039122ce0b1f61f8cd327122b4d5a52778958b77fff0f7101cbab53c3b1f64736f6c63430007050033\n}\n",
				"bytecode": {
					"linkReferences": {},
					"object": "608060405234801561001057600080fd5b50610119806100206000396000f3fe6080604052348015600f57600080fd5b506004361060285760003560e01c80636146195414602d575b600080fd5b60336035565b005b604051630971d70b60e11b8152732f75feda7423d8b85988d9545428d00f3213cf009081906312e3ae169060969073818ec0a7fe18ff94269904fced6ae3dae6d6dc0b907363d03492cd26c0c1f73a563f7eab79b52334852a9060040160c9565b600060405180830381600087803b15801560af57600080fd5b505af115801560c2573d6000803e3d6000fd5b5050505050565b6001600160a01b039283168152911660208201526040019056fea26469706673582212204a7f039122ce0b1f61f8cd327122b4d5a52778958b77fff0f7101cbab53c3b1f64736f6c63430007050033",
					"opcodes": "PUSH1 0x80 PUSH1 0x40 MSTORE CALLVALUE DUP1 ISZERO PUSH2 0x10 JUMPI PUSH1 0x0 DUP1 REVERT JUMPDEST POP PUSH2 0x119 DUP1 PUSH2 0x20 PUSH1 0x0 CODECOPY PUSH1 0x0 RETURN INVALID PUSH1 0x80 PUSH1 0x40 MSTORE CALLVALUE DUP1 ISZERO PUSH1 0xF JUMPI PUSH1 0x0 DUP1 REVERT JUMPDEST POP PUSH1 0x4 CALLDATASIZE LT PUSH1 0x28 JUMPI PUSH1 0x0 CALLDATALOAD PUSH1 0xE0 SHR DUP1 PUSH4 0x61461954 EQ PUSH1 0x2D JUMPI JUMPDEST PUSH1 0x0 DUP1 REVERT JUMPDEST PUSH1 0x33 PUSH1 0x35 JUMP JUMPDEST STOP JUMPDEST PUSH1 0x40 MLOAD PUSH4 0x971D70B PUSH1 0xE1 SHL DUP2 MSTORE PUSH20 0x2F75FEDA7423D8B85988D9545428D00F3213CF00 SWAP1 DUP2 SWAP1 PUSH4 0x12E3AE16 SWAP1 PUSH1 0x96 SWAP1 PUSH20 0x818EC0A7FE18FF94269904FCED6AE3DAE6D6DC0B SWAP1 PUSH20 0x63D03492CD26C0C1F73A563F7EAB79B52334852A SWAP1 PUSH1 0x4 ADD PUSH1 0xC9 JUMP JUMPDEST PUSH1 0x0 PUSH1 0x40 MLOAD DUP1 DUP4 SUB DUP2 PUSH1 0x0 DUP8 DUP1 EXTCODESIZE ISZERO DUP1 ISZERO PUSH1 0xAF JUMPI PUSH1 0x0 DUP1 REVERT JUMPDEST POP GAS CALL ISZERO DUP1 ISZERO PUSH1 0xC2 JUMPI RETURNDATASIZE PUSH1 0x0 DUP1 RETURNDATACOPY RETURNDATASIZE PUSH1 0x0 REVERT JUMPDEST POP POP POP POP POP JUMP JUMPDEST PUSH1 0x1 PUSH1 0x1 PUSH1 0xA0 SHL SUB SWAP3 DUP4 AND DUP2 MSTORE SWAP2 AND PUSH1 0x20 DUP3 ADD MSTORE PUSH1 0x40 ADD SWAP1 JUMP INVALID LOG2 PUSH5 0x6970667358 0x22 SLT KECCAK256 0x4A PUSH32 0x39122CE0B1F61F8CD327122B4D5A52778958B77FFF0F7101CBAB53C3B1F6473 PUSH16 0x6C634300070500330000000000000000 "
				},
				"gasEstimates": {
					"creation": {
						"codeDepositCost": "56200",
						"executionCost": "105",
						"totalCost": "56305"
					},
					"external": {
						"execute()": "infinite"
					}
				},
				"methodIdentifiers": {
					"execute()": "61461954"
				}
			},
			"storageLayout": {
				"storage": [],
				"types": null
			},
			"userdoc": {
				"kind": "user",
				"methods": {},
				"version": 1
			}
		}
	}
}