{
	"contracts/Omnidex-incentives/proposals/TestConfig.sol": {
		"TestConfig": {
			"abi": [
				{
					"inputs": [
						{
							"internalType": "address",
							"name": "_reserves",
							"type": "address"
						},
						{
							"internalType": "address",
							"name": "_myoTokenImplementations",
							"type": "address"
						}
					],
					"name": "executeChange",
					"outputs": [],
					"stateMutability": "nonpayable",
					"type": "function"
				},
				{
					"inputs": [],
					"name": "executeFixed",
					"outputs": [],
					"stateMutability": "nonpayable",
					"type": "function"
				}
			],
			"devdoc": {
				"kind": "dev",
				"methods": {},
				"version": 1
			},
			"evm": {
				"assembly": "    /* \"contracts/Omnidex-incentives/proposals/TestConfig.sol\":908:1955  contract TestConfig {\r... */\n  mstore(0x40, 0x80)\n  callvalue\n  dup1\n  iszero\n  tag_1\n  jumpi\n  0x00\n  dup1\n  revert\ntag_1:\n  pop\n  dataSize(sub_0)\n  dup1\n  dataOffset(sub_0)\n  0x00\n  codecopy\n  0x00\n  return\nstop\n\nsub_0: assembly {\n        /* \"contracts/Omnidex-incentives/proposals/TestConfig.sol\":908:1955  contract TestConfig {\r... */\n      mstore(0x40, 0x80)\n      callvalue\n      dup1\n      iszero\n      tag_1\n      jumpi\n      0x00\n      dup1\n      revert\n    tag_1:\n      pop\n      jumpi(tag_2, lt(calldatasize, 0x04))\n      shr(0xe0, calldataload(0x00))\n      dup1\n      0x027eca31\n      eq\n      tag_3\n      jumpi\n      dup1\n      0xeca98adb\n      eq\n      tag_4\n      jumpi\n    tag_2:\n      0x00\n      dup1\n      revert\n        /* \"contracts/Omnidex-incentives/proposals/TestConfig.sol\":1411:1651  function executeFixed() external  {\r... */\n    tag_3:\n      tag_5\n      tag_6\n      jump\t// in\n    tag_5:\n      stop\n        /* \"contracts/Omnidex-incentives/proposals/TestConfig.sol\":1657:1952  function executeChange (address _reserves, address _myoTokenImplementations) external  {\r... */\n    tag_4:\n      tag_5\n      tag_8\n      calldatasize\n      0x04\n      tag_9\n      jump\t// in\n    tag_8:\n      tag_10\n      jump\t// in\n        /* \"contracts/Omnidex-incentives/proposals/TestConfig.sol\":1411:1651  function executeFixed() external  {\r... */\n    tag_6:\n        /* \"contracts/Omnidex-incentives/proposals/TestConfig.sol\":1579:1645  poolConfigurator.updateOToken(myreserves, myoTokenImplementations) */\n      mload(0x40)\n      shl(0xe1, 0x0971d70b)\n      dup2\n      mstore\n        /* \"contracts/Omnidex-incentives/proposals/TestConfig.sol\":1150:1192  0x2F75fEDA7423D8B85988d9545428d00f3213CF00 */\n      0x2f75feda7423d8b85988d9545428d00f3213cf00\n      swap1\n      dup2\n      swap1\n        /* \"contracts/Omnidex-incentives/proposals/TestConfig.sol\":1579:1608  poolConfigurator.updateOToken */\n      0x12e3ae16\n      swap1\n        /* \"contracts/Omnidex-incentives/proposals/TestConfig.sol\":1579:1645  poolConfigurator.updateOToken(myreserves, myoTokenImplementations) */\n      tag_12\n      swap1\n        /* \"contracts/Omnidex-incentives/proposals/TestConfig.sol\":1272:1314  0x818ec0A7Fe18Ff94269904fCED6AE3DaE6d6dC0b */\n      0x818ec0a7fe18ff94269904fced6ae3dae6d6dc0b\n      swap1\n        /* \"contracts/Omnidex-incentives/proposals/TestConfig.sol\":1362:1404  0x63D03492cD26c0C1f73a563f7eaB79b52334852A */\n      0x63d03492cd26c0c1f73a563f7eab79b52334852a\n      swap1\n        /* \"contracts/Omnidex-incentives/proposals/TestConfig.sol\":1579:1645  poolConfigurator.updateOToken(myreserves, myoTokenImplementations) */\n      0x04\n      add\n      tag_13\n      jump\t// in\n    tag_12:\n      0x00\n      mload(0x40)\n      dup1\n      dup4\n      sub\n      dup2\n      0x00\n      dup8\n      dup1\n      extcodesize\n      iszero\n      dup1\n      iszero\n      tag_14\n      jumpi\n      0x00\n      dup1\n      revert\n    tag_14:\n      pop\n      gas\n      call\n      iszero\n      dup1\n      iszero\n      tag_16\n      jumpi\n      returndatasize\n      0x00\n      dup1\n      returndatacopy\n      revert(0x00, returndatasize)\n    tag_16:\n      pop\n      pop\n      pop\n      pop\n        /* \"contracts/Omnidex-incentives/proposals/TestConfig.sol\":1411:1651  function executeFixed() external  {\r... */\n      pop\n      jump\t// out\n        /* \"contracts/Omnidex-incentives/proposals/TestConfig.sol\":1657:1952  function executeChange (address _reserves, address _myoTokenImplementations) external  {\r... */\n    tag_10:\n        /* \"contracts/Omnidex-incentives/proposals/TestConfig.sol\":1878:1944  poolConfigurator.updateOToken(_reserves, _myoTokenImplementations) */\n      mload(0x40)\n      shl(0xe1, 0x0971d70b)\n      dup2\n      mstore\n        /* \"contracts/Omnidex-incentives/proposals/TestConfig.sol\":1150:1192  0x2F75fEDA7423D8B85988d9545428d00f3213CF00 */\n      0x2f75feda7423d8b85988d9545428d00f3213cf00\n      swap1\n      dup2\n      swap1\n        /* \"contracts/Omnidex-incentives/proposals/TestConfig.sol\":1878:1907  poolConfigurator.updateOToken */\n      0x12e3ae16\n      swap1\n        /* \"contracts/Omnidex-incentives/proposals/TestConfig.sol\":1878:1944  poolConfigurator.updateOToken(_reserves, _myoTokenImplementations) */\n      tag_18\n      swap1\n        /* \"contracts/Omnidex-incentives/proposals/TestConfig.sol\":1908:1917  _reserves */\n      dup7\n      swap1\n        /* \"contracts/Omnidex-incentives/proposals/TestConfig.sol\":1919:1943  _myoTokenImplementations */\n      dup7\n      swap1\n        /* \"contracts/Omnidex-incentives/proposals/TestConfig.sol\":1878:1944  poolConfigurator.updateOToken(_reserves, _myoTokenImplementations) */\n      0x04\n      add\n      tag_13\n      jump\t// in\n    tag_18:\n      0x00\n      mload(0x40)\n      dup1\n      dup4\n      sub\n      dup2\n      0x00\n      dup8\n      dup1\n      extcodesize\n      iszero\n      dup1\n      iszero\n      tag_19\n      jumpi\n      0x00\n      dup1\n      revert\n    tag_19:\n      pop\n      gas\n      call\n      iszero\n      dup1\n      iszero\n      tag_21\n      jumpi\n      returndatasize\n      0x00\n      dup1\n      returndatacopy\n      revert(0x00, returndatasize)\n    tag_21:\n      pop\n      pop\n      pop\n      pop\n        /* \"contracts/Omnidex-incentives/proposals/TestConfig.sol\":1657:1952  function executeChange (address _reserves, address _myoTokenImplementations) external  {\r... */\n      pop\n      pop\n      pop\n      jump\t// out\n        /* \"#utility.yul\":14:189   */\n    tag_23:\n        /* \"#utility.yul\":84:104   */\n      dup1\n      calldataload\n      sub(shl(0xa0, 0x01), 0x01)\n        /* \"#utility.yul\":133:164   */\n      dup2\n      and\n        /* \"#utility.yul\":123:165   */\n      dup2\n      eq\n        /* \"#utility.yul\":113:115   */\n      tag_25\n      jumpi\n        /* \"#utility.yul\":179:180   */\n      0x00\n        /* \"#utility.yul\":176:177   */\n      dup1\n        /* \"#utility.yul\":169:181   */\n      revert\n        /* \"#utility.yul\":113:115   */\n    tag_25:\n        /* \"#utility.yul\":65:189   */\n      swap2\n      swap1\n      pop\n      jump\t// out\n        /* \"#utility.yul\":194:468   */\n    tag_9:\n      0x00\n      dup1\n        /* \"#utility.yul\":323:325   */\n      0x40\n        /* \"#utility.yul\":311:320   */\n      dup4\n        /* \"#utility.yul\":302:309   */\n      dup6\n        /* \"#utility.yul\":298:321   */\n      sub\n        /* \"#utility.yul\":294:326   */\n      slt\n        /* \"#utility.yul\":291:293   */\n      iszero\n      tag_27\n      jumpi\n        /* \"#utility.yul\":344:350   */\n      dup2\n        /* \"#utility.yul\":336:342   */\n      dup3\n        /* \"#utility.yul\":329:351   */\n      revert\n        /* \"#utility.yul\":291:293   */\n    tag_27:\n        /* \"#utility.yul\":372:403   */\n      tag_28\n        /* \"#utility.yul\":393:402   */\n      dup4\n        /* \"#utility.yul\":372:403   */\n      tag_23\n      jump\t// in\n    tag_28:\n        /* \"#utility.yul\":362:403   */\n      swap2\n      pop\n        /* \"#utility.yul\":422:462   */\n      tag_29\n        /* \"#utility.yul\":458:460   */\n      0x20\n        /* \"#utility.yul\":447:456   */\n      dup5\n        /* \"#utility.yul\":443:461   */\n      add\n        /* \"#utility.yul\":422:462   */\n      tag_23\n      jump\t// in\n    tag_29:\n        /* \"#utility.yul\":412:462   */\n      swap1\n      pop\n        /* \"#utility.yul\":281:468   */\n      swap3\n      pop\n      swap3\n      swap1\n      pop\n      jump\t// out\n        /* \"#utility.yul\":473:777   */\n    tag_13:\n      sub(shl(0xa0, 0x01), 0x01)\n        /* \"#utility.yul\":703:718   */\n      swap3\n      dup4\n      and\n        /* \"#utility.yul\":685:719   */\n      dup2\n      mstore\n        /* \"#utility.yul\":755:770   */\n      swap2\n      and\n        /* \"#utility.yul\":750:752   */\n      0x20\n        /* \"#utility.yul\":735:753   */\n      dup3\n      add\n        /* \"#utility.yul\":728:771   */\n      mstore\n        /* \"#utility.yul\":635:637   */\n      0x40\n        /* \"#utility.yul\":620:638   */\n      add\n      swap1\n        /* \"#utility.yul\":602:777   */\n      jump\t// out\n\n    auxdata: 0xa2646970667358221220699c24c1fe2c8e5687582a3cf07a08e2c61ae1c0b8bff212c5ba71f25d1e331164736f6c63430007050033\n}\n",
				"bytecode": {
					"linkReferences": {},
					"object": "608060405234801561001057600080fd5b50610200806100206000396000f3fe608060405234801561001057600080fd5b50600436106100365760003560e01c8063027eca311461003b578063eca98adb14610045575b600080fd5b610043610058565b005b61004361005336600461017e565b6100f0565b604051630971d70b60e11b8152732f75feda7423d8b85988d9545428d00f3213cf009081906312e3ae16906100bb9073818ec0a7fe18ff94269904fced6ae3dae6d6dc0b907363d03492cd26c0c1f73a563f7eab79b52334852a906004016101b0565b600060405180830381600087803b1580156100d557600080fd5b505af11580156100e9573d6000803e3d6000fd5b5050505050565b604051630971d70b60e11b8152732f75feda7423d8b85988d9545428d00f3213cf009081906312e3ae169061012b90869086906004016101b0565b600060405180830381600087803b15801561014557600080fd5b505af1158015610159573d6000803e3d6000fd5b50505050505050565b80356001600160a01b038116811461017957600080fd5b919050565b60008060408385031215610190578182fd5b61019983610162565b91506101a760208401610162565b90509250929050565b6001600160a01b039283168152911660208201526040019056fea2646970667358221220699c24c1fe2c8e5687582a3cf07a08e2c61ae1c0b8bff212c5ba71f25d1e331164736f6c63430007050033",
					"opcodes": "PUSH1 0x80 PUSH1 0x40 MSTORE CALLVALUE DUP1 ISZERO PUSH2 0x10 JUMPI PUSH1 0x0 DUP1 REVERT JUMPDEST POP PUSH2 0x200 DUP1 PUSH2 0x20 PUSH1 0x0 CODECOPY PUSH1 0x0 RETURN INVALID PUSH1 0x80 PUSH1 0x40 MSTORE CALLVALUE DUP1 ISZERO PUSH2 0x10 JUMPI PUSH1 0x0 DUP1 REVERT JUMPDEST POP PUSH1 0x4 CALLDATASIZE LT PUSH2 0x36 JUMPI PUSH1 0x0 CALLDATALOAD PUSH1 0xE0 SHR DUP1 PUSH4 0x27ECA31 EQ PUSH2 0x3B JUMPI DUP1 PUSH4 0xECA98ADB EQ PUSH2 0x45 JUMPI JUMPDEST PUSH1 0x0 DUP1 REVERT JUMPDEST PUSH2 0x43 PUSH2 0x58 JUMP JUMPDEST STOP JUMPDEST PUSH2 0x43 PUSH2 0x53 CALLDATASIZE PUSH1 0x4 PUSH2 0x17E JUMP JUMPDEST PUSH2 0xF0 JUMP JUMPDEST PUSH1 0x40 MLOAD PUSH4 0x971D70B PUSH1 0xE1 SHL DUP2 MSTORE PUSH20 0x2F75FEDA7423D8B85988D9545428D00F3213CF00 SWAP1 DUP2 SWAP1 PUSH4 0x12E3AE16 SWAP1 PUSH2 0xBB SWAP1 PUSH20 0x818EC0A7FE18FF94269904FCED6AE3DAE6D6DC0B SWAP1 PUSH20 0x63D03492CD26C0C1F73A563F7EAB79B52334852A SWAP1 PUSH1 0x4 ADD PUSH2 0x1B0 JUMP JUMPDEST PUSH1 0x0 PUSH1 0x40 MLOAD DUP1 DUP4 SUB DUP2 PUSH1 0x0 DUP8 DUP1 EXTCODESIZE ISZERO DUP1 ISZERO PUSH2 0xD5 JUMPI PUSH1 0x0 DUP1 REVERT JUMPDEST POP GAS CALL ISZERO DUP1 ISZERO PUSH2 0xE9 JUMPI RETURNDATASIZE PUSH1 0x0 DUP1 RETURNDATACOPY RETURNDATASIZE PUSH1 0x0 REVERT JUMPDEST POP POP POP POP POP JUMP JUMPDEST PUSH1 0x40 MLOAD PUSH4 0x971D70B PUSH1 0xE1 SHL DUP2 MSTORE PUSH20 0x2F75FEDA7423D8B85988D9545428D00F3213CF00 SWAP1 DUP2 SWAP1 PUSH4 0x12E3AE16 SWAP1 PUSH2 0x12B SWAP1 DUP7 SWAP1 DUP7 SWAP1 PUSH1 0x4 ADD PUSH2 0x1B0 JUMP JUMPDEST PUSH1 0x0 PUSH1 0x40 MLOAD DUP1 DUP4 SUB DUP2 PUSH1 0x0 DUP8 DUP1 EXTCODESIZE ISZERO DUP1 ISZERO PUSH2 0x145 JUMPI PUSH1 0x0 DUP1 REVERT JUMPDEST POP GAS CALL ISZERO DUP1 ISZERO PUSH2 0x159 JUMPI RETURNDATASIZE PUSH1 0x0 DUP1 RETURNDATACOPY RETURNDATASIZE PUSH1 0x0 REVERT JUMPDEST POP POP POP POP POP POP POP JUMP JUMPDEST DUP1 CALLDATALOAD PUSH1 0x1 PUSH1 0x1 PUSH1 0xA0 SHL SUB DUP2 AND DUP2 EQ PUSH2 0x179 JUMPI PUSH1 0x0 DUP1 REVERT JUMPDEST SWAP2 SWAP1 POP JUMP JUMPDEST PUSH1 0x0 DUP1 PUSH1 0x40 DUP4 DUP6 SUB SLT ISZERO PUSH2 0x190 JUMPI DUP2 DUP3 REVERT JUMPDEST PUSH2 0x199 DUP4 PUSH2 0x162 JUMP JUMPDEST SWAP2 POP PUSH2 0x1A7 PUSH1 0x20 DUP5 ADD PUSH2 0x162 JUMP JUMPDEST SWAP1 POP SWAP3 POP SWAP3 SWAP1 POP JUMP JUMPDEST PUSH1 0x1 PUSH1 0x1 PUSH1 0xA0 SHL SUB SWAP3 DUP4 AND DUP2 MSTORE SWAP2 AND PUSH1 0x20 DUP3 ADD MSTORE PUSH1 0x40 ADD SWAP1 JUMP INVALID LOG2 PUSH5 0x6970667358 0x22 SLT KECCAK256 PUSH10 0x9C24C1FE2C8E5687582A EXTCODECOPY CREATE PUSH27 0x8E2C61AE1C0B8BFF212C5BA71F25D1E331164736F6C6343000705 STOP CALLER "
				},
				"gasEstimates": {
					"creation": {
						"codeDepositCost": "102400",
						"executionCost": "147",
						"totalCost": "102547"
					},
					"external": {
						"executeChange(address,address)": "infinite",
						"executeFixed()": "infinite"
					}
				},
				"methodIdentifiers": {
					"executeChange(address,address)": "eca98adb",
					"executeFixed()": "027eca31"
				}
			},
			"storageLayout": {
				"storage": [],
				"types": null
			},
			"userdoc": {
				"kind": "user",
				"methods": {},
				"version": 1
			}
		}
	}
}