{
	"contracts/Omnidex-incentives/proposals/TestConfig.sol": {
		"TestConfig": {
			"abi": [
				{
					"inputs": [
						{
							"internalType": "address[6]",
							"name": "oTokenImplementations",
							"type": "address[6]"
						},
						{
							"internalType": "address[6]",
							"name": "variableDebtImplementations",
							"type": "address[6]"
						}
					],
					"name": "execute",
					"outputs": [],
					"stateMutability": "nonpayable",
					"type": "function"
				}
			],
			"devdoc": {
				"kind": "dev",
				"methods": {},
				"version": 1
			},
			"evm": {
				"assembly": "    /* \"contracts/Omnidex-incentives/proposals/TestConfig.sol\":908:3708  contract TestConfig {\r... */\n  mstore(0x40, 0x80)\n  callvalue\n  dup1\n  iszero\n  tag_1\n  jumpi\n  0x00\n  dup1\n  revert\ntag_1:\n  pop\n  dataSize(sub_0)\n  dup1\n  dataOffset(sub_0)\n  0x00\n  codecopy\n  0x00\n  return\nstop\n\nsub_0: assembly {\n        /* \"contracts/Omnidex-incentives/proposals/TestConfig.sol\":908:3708  contract TestConfig {\r... */\n      mstore(0x40, 0x80)\n      callvalue\n      dup1\n      iszero\n      tag_1\n      jumpi\n      0x00\n      dup1\n      revert\n    tag_1:\n      pop\n      jumpi(tag_2, lt(calldatasize, 0x04))\n      shr(0xe0, calldataload(0x00))\n      dup1\n      0x8314b221\n      eq\n      tag_3\n      jumpi\n    tag_2:\n      0x00\n      dup1\n      revert\n        /* \"contracts/Omnidex-incentives/proposals/TestConfig.sol\":2083:3705  function execute(\r... */\n    tag_3:\n      tag_4\n      tag_5\n      calldatasize\n      0x04\n      tag_6\n      jump\t// in\n    tag_5:\n      tag_7\n      jump\t// in\n    tag_4:\n      stop\n    tag_7:\n        /* \"contracts/Omnidex-incentives/proposals/TestConfig.sol\":2276:2293  new address[](12) */\n      0x40\n      dup1\n      mload\n        /* \"contracts/Omnidex-incentives/proposals/TestConfig.sol\":2290:2292  12 */\n      0x0c\n        /* \"contracts/Omnidex-incentives/proposals/TestConfig.sol\":2276:2293  new address[](12) */\n      dup1\n      dup3\n      mstore\n      0x01a0\n      dup3\n      add\n      swap1\n      swap3\n      mstore\n        /* \"contracts/Omnidex-incentives/proposals/TestConfig.sol\":2220:2241  uint256 tokensCounter */\n      0x00\n      swap2\n        /* \"contracts/Omnidex-incentives/proposals/TestConfig.sol\":2250:2273  address[] memory assets */\n      0x60\n      swap2\n        /* \"contracts/Omnidex-incentives/proposals/TestConfig.sol\":2276:2293  new address[](12) */\n      swap1\n      0x20\n      dup3\n      add\n      0x0180\n      dup1\n      calldatasize\n      dup4\n      calldatacopy\n      add\n      swap1\n      pop\n      pop\n        /* \"contracts/Omnidex-incentives/proposals/TestConfig.sol\":2250:2293  address[] memory assets = new address[](12) */\n      swap1\n      pop\n        /* \"contracts/Omnidex-incentives/proposals/TestConfig.sol\":2355:2389  address payable[6] memory reserves */\n      tag_11\n      tag_12\n      jump\t// in\n    tag_11:\n      pop\n        /* \"contracts/Omnidex-incentives/proposals/TestConfig.sol\":2355:2726  address payable[6] memory reserves =\r... */\n      0x40\n      dup1\n      mload\n      0xc0\n      dup2\n      add\n      dup3\n      mstore\n        /* \"contracts/Omnidex-incentives/proposals/TestConfig.sol\":2410:2452  0x6B175474E89094C44Da98b954EedeAC495271d0F */\n      0x6b175474e89094c44da98b954eedeac495271d0f\n        /* \"contracts/Omnidex-incentives/proposals/TestConfig.sol\":2355:2726  address payable[6] memory reserves =\r... */\n      dup2\n      mstore\n        /* \"contracts/Omnidex-incentives/proposals/TestConfig.sol\":2463:2505  0x056Fd409E1d7A124BD7017459dFEa2F387b6d5Cd */\n      0x056fd409e1d7a124bd7017459dfea2f387b6d5cd\n        /* \"contracts/Omnidex-incentives/proposals/TestConfig.sol\":2355:2726  address payable[6] memory reserves =\r... */\n      0x20\n      dup3\n      add\n      mstore\n        /* \"contracts/Omnidex-incentives/proposals/TestConfig.sol\":2516:2558  0xA0b86991c6218b36c1d19D4a2e9Eb0cE3606eB48 */\n      0xa0b86991c6218b36c1d19d4a2e9eb0ce3606eb48\n        /* \"contracts/Omnidex-incentives/proposals/TestConfig.sol\":2355:2726  address payable[6] memory reserves =\r... */\n      dup2\n      dup4\n      add\n      mstore\n        /* \"contracts/Omnidex-incentives/proposals/TestConfig.sol\":2569:2611  0xdAC17F958D2ee523a2206206994597C13D831ec7 */\n      0xdac17f958d2ee523a2206206994597c13d831ec7\n        /* \"contracts/Omnidex-incentives/proposals/TestConfig.sol\":2355:2726  address payable[6] memory reserves =\r... */\n      0x60\n      dup1\n      dup4\n      add\n      swap2\n      swap1\n      swap2\n      mstore\n        /* \"contracts/Omnidex-incentives/proposals/TestConfig.sol\":2622:2664  0x2260FAC5E5542a773Aa44fBCfeDf7C193bc2C599 */\n      0x2260fac5e5542a773aa44fbcfedf7c193bc2c599\n        /* \"contracts/Omnidex-incentives/proposals/TestConfig.sol\":2355:2726  address payable[6] memory reserves =\r... */\n      0x80\n      dup4\n      add\n      mstore\n        /* \"contracts/Omnidex-incentives/proposals/TestConfig.sol\":2675:2717  0xC02aaA39b223FE8D0A0e5C4F27eAD9083C756Cc2 */\n      0xc02aaa39b223fe8d0a0e5c4f27ead9083c756cc2\n        /* \"contracts/Omnidex-incentives/proposals/TestConfig.sol\":2355:2726  address payable[6] memory reserves =\r... */\n      0xa0\n      dup4\n      add\n      mstore\n        /* \"contracts/Omnidex-incentives/proposals/TestConfig.sol\":2764:2781  new uint256[](12) */\n      dup3\n      mload\n        /* \"contracts/Omnidex-incentives/proposals/TestConfig.sol\":2778:2780  12 */\n      0x0c\n        /* \"contracts/Omnidex-incentives/proposals/TestConfig.sol\":2764:2781  new uint256[](12) */\n      dup1\n      dup3\n      mstore\n      0x01a0\n      dup3\n      add\n      swap1\n      swap5\n      mstore\n        /* \"contracts/Omnidex-incentives/proposals/TestConfig.sol\":2355:2726  address payable[6] memory reserves =\r... */\n      swap2\n      swap3\n      swap1\n      swap2\n        /* \"contracts/Omnidex-incentives/proposals/TestConfig.sol\":2764:2781  new uint256[](12) */\n      swap1\n      dup2\n      0x20\n      add\n      0x20\n      dup3\n      mul\n      dup1\n      calldatasize\n      dup4\n      calldatacopy\n      add\n      swap1\n      pop\n      pop\n        /* \"contracts/Omnidex-incentives/proposals/TestConfig.sol\":2735:2781  uint256[] memory emissions = new uint256[](12) */\n      swap1\n      pop\n        /* \"contracts/Omnidex-incentives/proposals/TestConfig.sol\":2805:2821  1706018518518520 */\n      0x060f9d63c6caf8\n        /* \"contracts/Omnidex-incentives/proposals/TestConfig.sol\":2790:2799  emissions */\n      dup2\n        /* \"contracts/Omnidex-incentives/proposals/TestConfig.sol\":2800:2801  0 */\n      0x00\n        /* \"contracts/Omnidex-incentives/proposals/TestConfig.sol\":2790:2802  emissions[0] */\n      dup2\n      mload\n      dup2\n      lt\n      tag_15\n      jumpi\n      invalid\n    tag_15:\n      0x20\n      mul\n      0x20\n      add\n      add\n        /* \"contracts/Omnidex-incentives/proposals/TestConfig.sol\":2790:2821  emissions[0] = 1706018518518520 */\n      dup2\n      dup2\n      mstore\n      pop\n      pop\n        /* \"contracts/Omnidex-incentives/proposals/TestConfig.sol\":2850:2866  1706018518518520 */\n      0x060f9d63c6caf8\n        /* \"contracts/Omnidex-incentives/proposals/TestConfig.sol\":2835:2844  emissions */\n      dup2\n        /* \"contracts/Omnidex-incentives/proposals/TestConfig.sol\":2845:2846  1 */\n      0x01\n        /* \"contracts/Omnidex-incentives/proposals/TestConfig.sol\":2835:2847  emissions[1] */\n      dup2\n      mload\n      dup2\n      lt\n      tag_16\n      jumpi\n      invalid\n    tag_16:\n      0x20\n      mul\n      0x20\n      add\n      add\n        /* \"contracts/Omnidex-incentives/proposals/TestConfig.sol\":2835:2866  emissions[1] = 1706018518518520 */\n      dup2\n      dup2\n      mstore\n      pop\n      pop\n        /* \"contracts/Omnidex-incentives/proposals/TestConfig.sol\":2899:2913  92939814814815 */\n      0x54873ca5c45f\n        /* \"contracts/Omnidex-incentives/proposals/TestConfig.sol\":2884:2893  emissions */\n      dup2\n        /* \"contracts/Omnidex-incentives/proposals/TestConfig.sol\":2894:2895  2 */\n      0x02\n        /* \"contracts/Omnidex-incentives/proposals/TestConfig.sol\":2884:2896  emissions[2] */\n      dup2\n      mload\n      dup2\n      lt\n      tag_17\n      jumpi\n      invalid\n    tag_17:\n      0x20\n      mul\n      0x20\n      add\n      add\n        /* \"contracts/Omnidex-incentives/proposals/TestConfig.sol\":2884:2913  emissions[2] = 92939814814815 */\n      dup2\n      dup2\n      mstore\n      pop\n      pop\n        /* \"contracts/Omnidex-incentives/proposals/TestConfig.sol\":2943:2957  92939814814815 */\n      0x54873ca5c45f\n        /* \"contracts/Omnidex-incentives/proposals/TestConfig.sol\":2928:2937  emissions */\n      dup2\n        /* \"contracts/Omnidex-incentives/proposals/TestConfig.sol\":2938:2939  3 */\n      0x03\n        /* \"contracts/Omnidex-incentives/proposals/TestConfig.sol\":2928:2940  emissions[3] */\n      dup2\n      mload\n      dup2\n      lt\n      tag_18\n      jumpi\n      invalid\n    tag_18:\n      0x20\n      mul\n      0x20\n      add\n      add\n        /* \"contracts/Omnidex-incentives/proposals/TestConfig.sol\":2928:2957  emissions[3] = 92939814814815 */\n      dup2\n      dup2\n      mstore\n      pop\n      pop\n        /* \"contracts/Omnidex-incentives/proposals/TestConfig.sol\":2991:3007  5291203703703700 */\n      0x12cc525d318894\n        /* \"contracts/Omnidex-incentives/proposals/TestConfig.sol\":2976:2985  emissions */\n      dup2\n        /* \"contracts/Omnidex-incentives/proposals/TestConfig.sol\":2986:2987  4 */\n      0x04\n        /* \"contracts/Omnidex-incentives/proposals/TestConfig.sol\":2976:2988  emissions[4] */\n      dup2\n      mload\n      dup2\n      lt\n      tag_19\n      jumpi\n      invalid\n    tag_19:\n      0x20\n      mul\n      0x20\n      add\n      add\n        /* \"contracts/Omnidex-incentives/proposals/TestConfig.sol\":2976:3007  emissions[4] = 5291203703703700 */\n      dup2\n      dup2\n      mstore\n      pop\n      pop\n        /* \"contracts/Omnidex-incentives/proposals/TestConfig.sol\":3037:3053  5291203703703700 */\n      0x12cc525d318894\n        /* \"contracts/Omnidex-incentives/proposals/TestConfig.sol\":3022:3031  emissions */\n      dup2\n        /* \"contracts/Omnidex-incentives/proposals/TestConfig.sol\":3032:3033  5 */\n      0x05\n        /* \"contracts/Omnidex-incentives/proposals/TestConfig.sol\":3022:3034  emissions[5] */\n      dup2\n      mload\n      dup2\n      lt\n      tag_20\n      jumpi\n      invalid\n    tag_20:\n      0x20\n      mul\n      0x20\n      add\n      add\n        /* \"contracts/Omnidex-incentives/proposals/TestConfig.sol\":3022:3053  emissions[5] = 5291203703703700 */\n      dup2\n      dup2\n      mstore\n      pop\n      pop\n        /* \"contracts/Omnidex-incentives/proposals/TestConfig.sol\":3087:3103  3293634259259260 */\n      0x0bb38afc0b0f7c\n        /* \"contracts/Omnidex-incentives/proposals/TestConfig.sol\":3072:3081  emissions */\n      dup2\n        /* \"contracts/Omnidex-incentives/proposals/TestConfig.sol\":3082:3083  6 */\n      0x06\n        /* \"contracts/Omnidex-incentives/proposals/TestConfig.sol\":3072:3084  emissions[6] */\n      dup2\n      mload\n      dup2\n      lt\n      tag_21\n      jumpi\n      invalid\n    tag_21:\n      0x20\n      mul\n      0x20\n      add\n      add\n        /* \"contracts/Omnidex-incentives/proposals/TestConfig.sol\":3072:3103  emissions[6] = 3293634259259260 */\n      dup2\n      dup2\n      mstore\n      pop\n      pop\n        /* \"contracts/Omnidex-incentives/proposals/TestConfig.sol\":3133:3149  3293634259259260 */\n      0x0bb38afc0b0f7c\n        /* \"contracts/Omnidex-incentives/proposals/TestConfig.sol\":3118:3127  emissions */\n      dup2\n        /* \"contracts/Omnidex-incentives/proposals/TestConfig.sol\":3128:3129  7 */\n      0x07\n        /* \"contracts/Omnidex-incentives/proposals/TestConfig.sol\":3118:3130  emissions[7] */\n      dup2\n      mload\n      dup2\n      lt\n      tag_22\n      jumpi\n      invalid\n    tag_22:\n      0x20\n      mul\n      0x20\n      add\n      add\n        /* \"contracts/Omnidex-incentives/proposals/TestConfig.sol\":3118:3149  emissions[7] = 3293634259259260 */\n      dup2\n      dup2\n      mstore\n      pop\n      pop\n        /* \"contracts/Omnidex-incentives/proposals/TestConfig.sol\":3183:3199  1995659722222220 */\n      0x07170abcd5ea8c\n        /* \"contracts/Omnidex-incentives/proposals/TestConfig.sol\":3168:3177  emissions */\n      dup2\n        /* \"contracts/Omnidex-incentives/proposals/TestConfig.sol\":3178:3179  8 */\n      0x08\n        /* \"contracts/Omnidex-incentives/proposals/TestConfig.sol\":3168:3180  emissions[8] */\n      dup2\n      mload\n      dup2\n      lt\n      tag_23\n      jumpi\n      invalid\n    tag_23:\n      0x20\n      mul\n      0x20\n      add\n      add\n        /* \"contracts/Omnidex-incentives/proposals/TestConfig.sol\":3168:3199  emissions[8] = 1995659722222220 */\n      dup2\n      dup2\n      mstore\n      pop\n      pop\n        /* \"contracts/Omnidex-incentives/proposals/TestConfig.sol\":3229:3244  105034722222222 */\n      0x5f874d4ea08e\n        /* \"contracts/Omnidex-incentives/proposals/TestConfig.sol\":3214:3223  emissions */\n      dup2\n        /* \"contracts/Omnidex-incentives/proposals/TestConfig.sol\":3224:3225  9 */\n      0x09\n        /* \"contracts/Omnidex-incentives/proposals/TestConfig.sol\":3214:3226  emissions[9] */\n      dup2\n      mload\n      dup2\n      lt\n      tag_24\n      jumpi\n      invalid\n    tag_24:\n      0x20\n      mul\n      0x20\n      add\n      add\n        /* \"contracts/Omnidex-incentives/proposals/TestConfig.sol\":3214:3244  emissions[9] = 105034722222222 */\n      dup2\n      dup2\n      mstore\n      pop\n      pop\n        /* \"contracts/Omnidex-incentives/proposals/TestConfig.sol\":3279:3295  2464942129629630 */\n      0x08c1da100749be\n        /* \"contracts/Omnidex-incentives/proposals/TestConfig.sol\":3263:3272  emissions */\n      dup2\n        /* \"contracts/Omnidex-incentives/proposals/TestConfig.sol\":3273:3275  10 */\n      0x0a\n        /* \"contracts/Omnidex-incentives/proposals/TestConfig.sol\":3263:3276  emissions[10] */\n      dup2\n      mload\n      dup2\n      lt\n      tag_25\n      jumpi\n      invalid\n    tag_25:\n      0x20\n      mul\n      0x20\n      add\n      add\n        /* \"contracts/Omnidex-incentives/proposals/TestConfig.sol\":3263:3295  emissions[10] = 2464942129629630 */\n      dup2\n      dup2\n      mstore\n      pop\n      pop\n        /* \"contracts/Omnidex-incentives/proposals/TestConfig.sol\":3325:3340  129733796296296 */\n      0x75fe00d7f668\n        /* \"contracts/Omnidex-incentives/proposals/TestConfig.sol\":3309:3318  emissions */\n      dup2\n        /* \"contracts/Omnidex-incentives/proposals/TestConfig.sol\":3319:3321  11 */\n      0x0b\n        /* \"contracts/Omnidex-incentives/proposals/TestConfig.sol\":3309:3322  emissions[11] */\n      dup2\n      mload\n      dup2\n      lt\n      tag_26\n      jumpi\n      invalid\n    tag_26:\n      0x20\n      swap1\n      dup2\n      mul\n      swap2\n      swap1\n      swap2\n      add\n      add\n        /* \"contracts/Omnidex-incentives/proposals/TestConfig.sol\":3309:3340  emissions[11] = 129733796296296 */\n      mstore\n        /* \"contracts/Omnidex-incentives/proposals/TestConfig.sol\":3619:3685  poolConfigurator.updateOToken(myreserves, myoTokenImplementations) */\n      mload(0x40)\n      shl(0xe1, 0x0971d70b)\n      dup2\n      mstore\n        /* \"contracts/Omnidex-incentives/proposals/TestConfig.sol\":1150:1192  0x2F75fEDA7423D8B85988d9545428d00f3213CF00 */\n      0x2f75feda7423d8b85988d9545428d00f3213cf00\n      swap1\n        /* \"contracts/Omnidex-incentives/proposals/TestConfig.sol\":1514:1556  0x8761e889ad797BdE3bb2b6561982fD1cA4118872 */\n      0x8761e889ad797bde3bb2b6561982fd1ca4118872\n      swap1\n        /* \"contracts/Omnidex-incentives/proposals/TestConfig.sol\":1150:1192  0x2F75fEDA7423D8B85988d9545428d00f3213CF00 */\n      dup3\n      swap1\n        /* \"contracts/Omnidex-incentives/proposals/TestConfig.sol\":3619:3648  poolConfigurator.updateOToken */\n      0x12e3ae16\n      swap1\n        /* \"contracts/Omnidex-incentives/proposals/TestConfig.sol\":3619:3685  poolConfigurator.updateOToken(myreserves, myoTokenImplementations) */\n      tag_27\n      swap1\n        /* \"contracts/Omnidex-incentives/proposals/TestConfig.sol\":1780:1822  0x818ec0A7Fe18Ff94269904fCED6AE3DaE6d6dC0b */\n      0x818ec0a7fe18ff94269904fced6ae3dae6d6dc0b\n      swap1\n        /* \"contracts/Omnidex-incentives/proposals/TestConfig.sol\":1870:1912  0x63D03492cD26c0C1f73a563f7eaB79b52334852A */\n      0x63d03492cd26c0c1f73a563f7eab79b52334852a\n      swap1\n        /* \"contracts/Omnidex-incentives/proposals/TestConfig.sol\":3619:3685  poolConfigurator.updateOToken(myreserves, myoTokenImplementations) */\n      0x04\n      add\n      tag_28\n      jump\t// in\n    tag_27:\n      0x00\n      mload(0x40)\n      dup1\n      dup4\n      sub\n      dup2\n      0x00\n      dup8\n      dup1\n      extcodesize\n      iszero\n      dup1\n      iszero\n      tag_29\n      jumpi\n      0x00\n      dup1\n      revert\n    tag_29:\n      pop\n      gas\n      call\n      iszero\n      dup1\n      iszero\n      tag_31\n      jumpi\n      returndatasize\n      0x00\n      dup1\n      returndatacopy\n      revert(0x00, returndatasize)\n    tag_31:\n      pop\n      pop\n      pop\n      pop\n        /* \"contracts/Omnidex-incentives/proposals/TestConfig.sol\":2083:3705  function execute(\r... */\n      pop\n      pop\n      pop\n      pop\n      pop\n      pop\n      pop\n      pop\n      jump\t// out\n    tag_12:\n      mload(0x40)\n      dup1\n      0xc0\n      add\n      0x40\n      mstore\n      dup1\n      0x06\n      swap1\n      0x20\n      dup3\n      mul\n      dup1\n      calldatasize\n      dup4\n      calldatacopy\n      pop\n      swap2\n      swap3\n      swap2\n      pop\n      pop\n      jump\t// out\n        /* \"#utility.yul\":14:843   */\n    tag_33:\n      0x00\n        /* \"#utility.yul\":122:125   */\n      dup3\n        /* \"#utility.yul\":115:119   */\n      0x1f\n        /* \"#utility.yul\":107:113   */\n      dup4\n        /* \"#utility.yul\":103:120   */\n      add\n        /* \"#utility.yul\":99:126   */\n      slt\n        /* \"#utility.yul\":89:91   */\n      tag_35\n      jumpi\n        /* \"#utility.yul\":144:149   */\n      dup1\n        /* \"#utility.yul\":137:142   */\n      dup2\n        /* \"#utility.yul\":130:150   */\n      revert\n        /* \"#utility.yul\":89:91   */\n    tag_35:\n        /* \"#utility.yul\":181:183   */\n      0x40\n        /* \"#utility.yul\":175:184   */\n      mload\n        /* \"#utility.yul\":223:226   */\n      0xc0\n        /* \"#utility.yul\":215:221   */\n      dup2\n        /* \"#utility.yul\":211:227   */\n      add\n        /* \"#utility.yul\":293:299   */\n      dup2\n        /* \"#utility.yul\":281:291   */\n      dup2\n        /* \"#utility.yul\":278:300   */\n      lt\n        /* \"#utility.yul\":257:275   */\n      0xffffffffffffffff\n        /* \"#utility.yul\":245:255   */\n      dup3\n        /* \"#utility.yul\":242:276   */\n      gt\n        /* \"#utility.yul\":239:301   */\n      or\n        /* \"#utility.yul\":236:238   */\n      iszero\n      tag_36\n      jumpi\n        /* \"#utility.yul\":304:313   */\n      invalid\n        /* \"#utility.yul\":236:238   */\n    tag_36:\n        /* \"#utility.yul\":331:333   */\n      0x40\n        /* \"#utility.yul\":324:346   */\n      mstore\n        /* \"#utility.yul\":364:370   */\n      swap1\n      pop\n      dup1\n        /* \"#utility.yul\":416:422   */\n      dup3\n        /* \"#utility.yul\":449:452   */\n      0xc0\n        /* \"#utility.yul\":437:453   */\n      dup2\n      add\n        /* \"#utility.yul\":434:459   */\n      dup6\n      lt\n        /* \"#utility.yul\":431:433   */\n      iszero\n      tag_37\n      jumpi\n        /* \"#utility.yul\":472:473   */\n      0x00\n        /* \"#utility.yul\":469:470   */\n      dup1\n        /* \"#utility.yul\":462:474   */\n      revert\n        /* \"#utility.yul\":431:433   */\n    tag_37:\n        /* \"#utility.yul\":494:495   */\n      0x00\n        /* \"#utility.yul\":515:516   */\n      dup1\n        /* \"#utility.yul\":525:837   */\n    tag_38:\n        /* \"#utility.yul\":541:545   */\n      0x06\n        /* \"#utility.yul\":536:539   */\n      dup2\n        /* \"#utility.yul\":533:546   */\n      lt\n        /* \"#utility.yul\":525:837   */\n      iszero\n      tag_40\n      jumpi\n        /* \"#utility.yul\":605:622   */\n      dup3\n      calldataload\n      sub(shl(0xa0, 0x01), 0x01)\n        /* \"#utility.yul\":655:686   */\n      dup2\n      and\n        /* \"#utility.yul\":645:687   */\n      dup2\n      eq\n        /* \"#utility.yul\":635:637   */\n      tag_41\n      jumpi\n        /* \"#utility.yul\":701:702   */\n      dup3\n        /* \"#utility.yul\":698:699   */\n      dup4\n        /* \"#utility.yul\":691:703   */\n      revert\n        /* \"#utility.yul\":635:637   */\n    tag_41:\n        /* \"#utility.yul\":718:736   */\n      dup5\n      mstore\n        /* \"#utility.yul\":759:763   */\n      0x20\n        /* \"#utility.yul\":783:795   */\n      swap4\n      dup5\n      add\n      swap4\n        /* \"#utility.yul\":815:827   */\n      swap3\n      swap1\n      swap3\n      add\n      swap2\n        /* \"#utility.yul\":565:566   */\n      0x01\n        /* \"#utility.yul\":556:567   */\n      add\n        /* \"#utility.yul\":525:837   */\n      jump(tag_38)\n    tag_40:\n        /* \"#utility.yul\":529:532   */\n      pop\n      pop\n      pop\n      pop\n        /* \"#utility.yul\":79:843   */\n      swap3\n      swap2\n      pop\n      pop\n      jump\t// out\n        /* \"#utility.yul\":848:1206   */\n    tag_6:\n      0x00\n      dup1\n        /* \"#utility.yul\":1023:1026   */\n      0x0180\n        /* \"#utility.yul\":1011:1020   */\n      dup4\n        /* \"#utility.yul\":1002:1009   */\n      dup6\n        /* \"#utility.yul\":998:1021   */\n      sub\n        /* \"#utility.yul\":994:1027   */\n      slt\n        /* \"#utility.yul\":991:993   */\n      iszero\n      tag_43\n      jumpi\n        /* \"#utility.yul\":1045:1051   */\n      dup2\n        /* \"#utility.yul\":1037:1043   */\n      dup3\n        /* \"#utility.yul\":1030:1052   */\n      revert\n        /* \"#utility.yul\":991:993   */\n    tag_43:\n        /* \"#utility.yul\":1073:1122   */\n      tag_44\n        /* \"#utility.yul\":1114:1121   */\n      dup5\n        /* \"#utility.yul\":1103:1112   */\n      dup5\n        /* \"#utility.yul\":1073:1122   */\n      tag_33\n      jump\t// in\n    tag_44:\n        /* \"#utility.yul\":1063:1122   */\n      swap2\n      pop\n        /* \"#utility.yul\":1141:1200   */\n      tag_45\n        /* \"#utility.yul\":1192:1199   */\n      dup5\n        /* \"#utility.yul\":1186:1189   */\n      0xc0\n        /* \"#utility.yul\":1175:1184   */\n      dup6\n        /* \"#utility.yul\":1171:1190   */\n      add\n        /* \"#utility.yul\":1141:1200   */\n      tag_33\n      jump\t// in\n    tag_45:\n        /* \"#utility.yul\":1131:1200   */\n      swap1\n      pop\n        /* \"#utility.yul\":981:1206   */\n      swap3\n      pop\n      swap3\n      swap1\n      pop\n      jump\t// out\n        /* \"#utility.yul\":1211:1515   */\n    tag_28:\n      sub(shl(0xa0, 0x01), 0x01)\n        /* \"#utility.yul\":1441:1456   */\n      swap3\n      dup4\n      and\n        /* \"#utility.yul\":1423:1457   */\n      dup2\n      mstore\n        /* \"#utility.yul\":1493:1508   */\n      swap2\n      and\n        /* \"#utility.yul\":1488:1490   */\n      0x20\n        /* \"#utility.yul\":1473:1491   */\n      dup3\n      add\n        /* \"#utility.yul\":1466:1509   */\n      mstore\n        /* \"#utility.yul\":1373:1375   */\n      0x40\n        /* \"#utility.yul\":1358:1376   */\n      add\n      swap1\n        /* \"#utility.yul\":1340:1515   */\n      jump\t// out\n\n    auxdata: 0xa264697066735822122054c506d5a30a99c9a269d292db44f5301d92a22948f7bc605c3fcbf1b7cfaa2564736f6c63430007050033\n}\n",
				"bytecode": {
					"linkReferences": {},
					"object": "608060405234801561001057600080fd5b506104a8806100206000396000f3fe608060405234801561001057600080fd5b506004361061002b5760003560e01c80638314b22114610030575b600080fd5b61004361003e366004610423565b610045565b005b60408051600c8082526101a0820190925260009160609190602082016101808036833701905050905061007661037f565b506040805160c081018252736b175474e89094c44da98b954eedeac495271d0f815273056fd409e1d7a124bd7017459dfea2f387b6d5cd602082015273a0b86991c6218b36c1d19d4a2e9eb0ce3606eb488183015273dac17f958d2ee523a2206206994597c13d831ec7606080830191909152732260fac5e5542a773aa44fbcfedf7c193bc2c599608083015273c02aaa39b223fe8d0a0e5c4f27ead9083c756cc260a08301528251600c8082526101a08201909452919290919081602001602082028036833701905050905066060f9d63c6caf88160008151811061015857fe5b60200260200101818152505066060f9d63c6caf88160018151811061017957fe5b6020026020010181815250506554873ca5c45f8160028151811061019957fe5b6020026020010181815250506554873ca5c45f816003815181106101b957fe5b6020026020010181815250506612cc525d318894816004815181106101da57fe5b6020026020010181815250506612cc525d318894816005815181106101fb57fe5b602002602001018181525050660bb38afc0b0f7c8160068151811061021c57fe5b602002602001018181525050660bb38afc0b0f7c8160078151811061023d57fe5b6020026020010181815250506607170abcd5ea8c8160088151811061025e57fe5b602002602001018181525050655f874d4ea08e8160098151811061027e57fe5b6020026020010181815250506608c1da100749be81600a8151811061029f57fe5b6020026020010181815250506575fe00d7f66881600b815181106102bf57fe5b6020908102919091010152604051630971d70b60e11b8152732f75feda7423d8b85988d9545428d00f3213cf0090738761e889ad797bde3bb2b6561982fd1ca41188729082906312e3ae16906103439073818ec0a7fe18ff94269904fced6ae3dae6d6dc0b907363d03492cd26c0c1f73a563f7eab79b52334852a90600401610458565b600060405180830381600087803b15801561035d57600080fd5b505af1158015610371573d6000803e3d6000fd5b505050505050505050505050565b6040518060c001604052806006906020820280368337509192915050565b600082601f8301126103ad578081fd5b60405160c0810181811067ffffffffffffffff821117156103ca57fe5b6040529050808260c081018510156103e157600080fd5b6000805b60068110156104195782356001600160a01b0381168114610404578283fd5b845260209384019392909201916001016103e5565b5050505092915050565b6000806101808385031215610436578182fd5b610440848461039d565b915061044f8460c0850161039d565b90509250929050565b6001600160a01b039283168152911660208201526040019056fea264697066735822122054c506d5a30a99c9a269d292db44f5301d92a22948f7bc605c3fcbf1b7cfaa2564736f6c63430007050033",
					"opcodes": "PUSH1 0x80 PUSH1 0x40 MSTORE CALLVALUE DUP1 ISZERO PUSH2 0x10 JUMPI PUSH1 0x0 DUP1 REVERT JUMPDEST POP PUSH2 0x4A8 DUP1 PUSH2 0x20 PUSH1 0x0 CODECOPY PUSH1 0x0 RETURN INVALID PUSH1 0x80 PUSH1 0x40 MSTORE CALLVALUE DUP1 ISZERO PUSH2 0x10 JUMPI PUSH1 0x0 DUP1 REVERT JUMPDEST POP PUSH1 0x4 CALLDATASIZE LT PUSH2 0x2B JUMPI PUSH1 0x0 CALLDATALOAD PUSH1 0xE0 SHR DUP1 PUSH4 0x8314B221 EQ PUSH2 0x30 JUMPI JUMPDEST PUSH1 0x0 DUP1 REVERT JUMPDEST PUSH2 0x43 PUSH2 0x3E CALLDATASIZE PUSH1 0x4 PUSH2 0x423 JUMP JUMPDEST PUSH2 0x45 JUMP JUMPDEST STOP JUMPDEST PUSH1 0x40 DUP1 MLOAD PUSH1 0xC DUP1 DUP3 MSTORE PUSH2 0x1A0 DUP3 ADD SWAP1 SWAP3 MSTORE PUSH1 0x0 SWAP2 PUSH1 0x60 SWAP2 SWAP1 PUSH1 0x20 DUP3 ADD PUSH2 0x180 DUP1 CALLDATASIZE DUP4 CALLDATACOPY ADD SWAP1 POP POP SWAP1 POP PUSH2 0x76 PUSH2 0x37F JUMP JUMPDEST POP PUSH1 0x40 DUP1 MLOAD PUSH1 0xC0 DUP2 ADD DUP3 MSTORE PUSH20 0x6B175474E89094C44DA98B954EEDEAC495271D0F DUP2 MSTORE PUSH20 0x56FD409E1D7A124BD7017459DFEA2F387B6D5CD PUSH1 0x20 DUP3 ADD MSTORE PUSH20 0xA0B86991C6218B36C1D19D4A2E9EB0CE3606EB48 DUP2 DUP4 ADD MSTORE PUSH20 0xDAC17F958D2EE523A2206206994597C13D831EC7 PUSH1 0x60 DUP1 DUP4 ADD SWAP2 SWAP1 SWAP2 MSTORE PUSH20 0x2260FAC5E5542A773AA44FBCFEDF7C193BC2C599 PUSH1 0x80 DUP4 ADD MSTORE PUSH20 0xC02AAA39B223FE8D0A0E5C4F27EAD9083C756CC2 PUSH1 0xA0 DUP4 ADD MSTORE DUP3 MLOAD PUSH1 0xC DUP1 DUP3 MSTORE PUSH2 0x1A0 DUP3 ADD SWAP1 SWAP5 MSTORE SWAP2 SWAP3 SWAP1 SWAP2 SWAP1 DUP2 PUSH1 0x20 ADD PUSH1 0x20 DUP3 MUL DUP1 CALLDATASIZE DUP4 CALLDATACOPY ADD SWAP1 POP POP SWAP1 POP PUSH7 0x60F9D63C6CAF8 DUP2 PUSH1 0x0 DUP2 MLOAD DUP2 LT PUSH2 0x158 JUMPI INVALID JUMPDEST PUSH1 0x20 MUL PUSH1 0x20 ADD ADD DUP2 DUP2 MSTORE POP POP PUSH7 0x60F9D63C6CAF8 DUP2 PUSH1 0x1 DUP2 MLOAD DUP2 LT PUSH2 0x179 JUMPI INVALID JUMPDEST PUSH1 0x20 MUL PUSH1 0x20 ADD ADD DUP2 DUP2 MSTORE POP POP PUSH6 0x54873CA5C45F DUP2 PUSH1 0x2 DUP2 MLOAD DUP2 LT PUSH2 0x199 JUMPI INVALID JUMPDEST PUSH1 0x20 MUL PUSH1 0x20 ADD ADD DUP2 DUP2 MSTORE POP POP PUSH6 0x54873CA5C45F DUP2 PUSH1 0x3 DUP2 MLOAD DUP2 LT PUSH2 0x1B9 JUMPI INVALID JUMPDEST PUSH1 0x20 MUL PUSH1 0x20 ADD ADD DUP2 DUP2 MSTORE POP POP PUSH7 0x12CC525D318894 DUP2 PUSH1 0x4 DUP2 MLOAD DUP2 LT PUSH2 0x1DA JUMPI INVALID JUMPDEST PUSH1 0x20 MUL PUSH1 0x20 ADD ADD DUP2 DUP2 MSTORE POP POP PUSH7 0x12CC525D318894 DUP2 PUSH1 0x5 DUP2 MLOAD DUP2 LT PUSH2 0x1FB JUMPI INVALID JUMPDEST PUSH1 0x20 MUL PUSH1 0x20 ADD ADD DUP2 DUP2 MSTORE POP POP PUSH7 0xBB38AFC0B0F7C DUP2 PUSH1 0x6 DUP2 MLOAD DUP2 LT PUSH2 0x21C JUMPI INVALID JUMPDEST PUSH1 0x20 MUL PUSH1 0x20 ADD ADD DUP2 DUP2 MSTORE POP POP PUSH7 0xBB38AFC0B0F7C DUP2 PUSH1 0x7 DUP2 MLOAD DUP2 LT PUSH2 0x23D JUMPI INVALID JUMPDEST PUSH1 0x20 MUL PUSH1 0x20 ADD ADD DUP2 DUP2 MSTORE POP POP PUSH7 0x7170ABCD5EA8C DUP2 PUSH1 0x8 DUP2 MLOAD DUP2 LT PUSH2 0x25E JUMPI INVALID JUMPDEST PUSH1 0x20 MUL PUSH1 0x20 ADD ADD DUP2 DUP2 MSTORE POP POP PUSH6 0x5F874D4EA08E DUP2 PUSH1 0x9 DUP2 MLOAD DUP2 LT PUSH2 0x27E JUMPI INVALID JUMPDEST PUSH1 0x20 MUL PUSH1 0x20 ADD ADD DUP2 DUP2 MSTORE POP POP PUSH7 0x8C1DA100749BE DUP2 PUSH1 0xA DUP2 MLOAD DUP2 LT PUSH2 0x29F JUMPI INVALID JUMPDEST PUSH1 0x20 MUL PUSH1 0x20 ADD ADD DUP2 DUP2 MSTORE POP POP PUSH6 0x75FE00D7F668 DUP2 PUSH1 0xB DUP2 MLOAD DUP2 LT PUSH2 0x2BF JUMPI INVALID JUMPDEST PUSH1 0x20 SWAP1 DUP2 MUL SWAP2 SWAP1 SWAP2 ADD ADD MSTORE PUSH1 0x40 MLOAD PUSH4 0x971D70B PUSH1 0xE1 SHL DUP2 MSTORE PUSH20 0x2F75FEDA7423D8B85988D9545428D00F3213CF00 SWAP1 PUSH20 0x8761E889AD797BDE3BB2B6561982FD1CA4118872 SWAP1 DUP3 SWAP1 PUSH4 0x12E3AE16 SWAP1 PUSH2 0x343 SWAP1 PUSH20 0x818EC0A7FE18FF94269904FCED6AE3DAE6D6DC0B SWAP1 PUSH20 0x63D03492CD26C0C1F73A563F7EAB79B52334852A SWAP1 PUSH1 0x4 ADD PUSH2 0x458 JUMP JUMPDEST PUSH1 0x0 PUSH1 0x40 MLOAD DUP1 DUP4 SUB DUP2 PUSH1 0x0 DUP8 DUP1 EXTCODESIZE ISZERO DUP1 ISZERO PUSH2 0x35D JUMPI PUSH1 0x0 DUP1 REVERT JUMPDEST POP GAS CALL ISZERO DUP1 ISZERO PUSH2 0x371 JUMPI RETURNDATASIZE PUSH1 0x0 DUP1 RETURNDATACOPY RETURNDATASIZE PUSH1 0x0 REVERT JUMPDEST POP POP POP POP POP POP POP POP POP POP POP POP JUMP JUMPDEST PUSH1 0x40 MLOAD DUP1 PUSH1 0xC0 ADD PUSH1 0x40 MSTORE DUP1 PUSH1 0x6 SWAP1 PUSH1 0x20 DUP3 MUL DUP1 CALLDATASIZE DUP4 CALLDATACOPY POP SWAP2 SWAP3 SWAP2 POP POP JUMP JUMPDEST PUSH1 0x0 DUP3 PUSH1 0x1F DUP4 ADD SLT PUSH2 0x3AD JUMPI DUP1 DUP2 REVERT JUMPDEST PUSH1 0x40 MLOAD PUSH1 0xC0 DUP2 ADD DUP2 DUP2 LT PUSH8 0xFFFFFFFFFFFFFFFF DUP3 GT OR ISZERO PUSH2 0x3CA JUMPI INVALID JUMPDEST PUSH1 0x40 MSTORE SWAP1 POP DUP1 DUP3 PUSH1 0xC0 DUP2 ADD DUP6 LT ISZERO PUSH2 0x3E1 JUMPI PUSH1 0x0 DUP1 REVERT JUMPDEST PUSH1 0x0 DUP1 JUMPDEST PUSH1 0x6 DUP2 LT ISZERO PUSH2 0x419 JUMPI DUP3 CALLDATALOAD PUSH1 0x1 PUSH1 0x1 PUSH1 0xA0 SHL SUB DUP2 AND DUP2 EQ PUSH2 0x404 JUMPI DUP3 DUP4 REVERT JUMPDEST DUP5 MSTORE PUSH1 0x20 SWAP4 DUP5 ADD SWAP4 SWAP3 SWAP1 SWAP3 ADD SWAP2 PUSH1 0x1 ADD PUSH2 0x3E5 JUMP JUMPDEST POP POP POP POP SWAP3 SWAP2 POP POP JUMP JUMPDEST PUSH1 0x0 DUP1 PUSH2 0x180 DUP4 DUP6 SUB SLT ISZERO PUSH2 0x436 JUMPI DUP2 DUP3 REVERT JUMPDEST PUSH2 0x440 DUP5 DUP5 PUSH2 0x39D JUMP JUMPDEST SWAP2 POP PUSH2 0x44F DUP5 PUSH1 0xC0 DUP6 ADD PUSH2 0x39D JUMP JUMPDEST SWAP1 POP SWAP3 POP SWAP3 SWAP1 POP JUMP JUMPDEST PUSH1 0x1 PUSH1 0x1 PUSH1 0xA0 SHL SUB SWAP3 DUP4 AND DUP2 MSTORE SWAP2 AND PUSH1 0x20 DUP3 ADD MSTORE PUSH1 0x40 ADD SWAP1 JUMP INVALID LOG2 PUSH5 0x6970667358 0x22 SLT KECCAK256 SLOAD 0xC5 MOD 0xD5 LOG3 EXP SWAP10 0xC9 LOG2 PUSH10 0xD292DB44F5301D92A229 0x48 0xF7 0xBC PUSH1 0x5C EXTCODEHASH 0xCB CALL 0xB7 0xCF 0xAA 0x25 PUSH5 0x736F6C6343 STOP SMOD SDIV STOP CALLER "
				},
				"gasEstimates": {
					"creation": {
						"codeDepositCost": "238400",
						"executionCost": "281",
						"totalCost": "238681"
					},
					"external": {
						"execute(address[6],address[6])": "infinite"
					}
				},
				"methodIdentifiers": {
					"execute(address[6],address[6])": "8314b221"
				}
			},
			"storageLayout": {
				"storage": [],
				"types": null
			},
			"userdoc": {
				"kind": "user",
				"methods": {},
				"version": 1
			}
		}
	}
}