{
	"contracts/Omnidex-incentives/proposals/TestConfig.sol": {
		"TestConfig": {
			"abi": [
				{
					"inputs": [
						{
							"internalType": "address",
							"name": "_reserves",
							"type": "address"
						},
						{
							"internalType": "address",
							"name": "_myoTokenImplementations",
							"type": "address"
						}
					],
					"name": "executeChange",
					"outputs": [],
					"stateMutability": "nonpayable",
					"type": "function"
				},
				{
					"inputs": [],
					"name": "executeFixed",
					"outputs": [],
					"stateMutability": "nonpayable",
					"type": "function"
				}
			],
			"devdoc": {
				"kind": "dev",
				"methods": {},
				"version": 1
			},
			"evm": {
				"assembly": "    /* \"contracts/Omnidex-incentives/proposals/TestConfig.sol\":154:1131  contract TestConfig {\r... */\n  mstore(0x40, 0x80)\n  callvalue\n  dup1\n  iszero\n  tag_1\n  jumpi\n  0x00\n  dup1\n  revert\ntag_1:\n  pop\n  dataSize(sub_0)\n  dup1\n  dataOffset(sub_0)\n  0x00\n  codecopy\n  0x00\n  return\nstop\n\nsub_0: assembly {\n        /* \"contracts/Omnidex-incentives/proposals/TestConfig.sol\":154:1131  contract TestConfig {\r... */\n      mstore(0x40, 0x80)\n      callvalue\n      dup1\n      iszero\n      tag_1\n      jumpi\n      0x00\n      dup1\n      revert\n    tag_1:\n      pop\n      jumpi(tag_2, lt(calldatasize, 0x04))\n      shr(0xe0, calldataload(0x00))\n      dup1\n      0x027eca31\n      eq\n      tag_3\n      jumpi\n      dup1\n      0xeca98adb\n      eq\n      tag_4\n      jumpi\n    tag_2:\n      0x00\n      dup1\n      revert\n        /* \"contracts/Omnidex-incentives/proposals/TestConfig.sol\":587:827  function executeFixed() external  {\r... */\n    tag_3:\n      tag_5\n      tag_6\n      jump\t// in\n    tag_5:\n      stop\n        /* \"contracts/Omnidex-incentives/proposals/TestConfig.sol\":833:1128  function executeChange (address _reserves, address _myoTokenImplementations) external  {\r... */\n    tag_4:\n      tag_5\n      0x04\n      dup1\n      calldatasize\n      sub\n      0x40\n      dup2\n      lt\n      iszero\n      tag_8\n      jumpi\n      0x00\n      dup1\n      revert\n    tag_8:\n      pop\n      sub(shl(0xa0, 0x01), 0x01)\n      dup2\n      calldataload\n      dup2\n      and\n      swap2\n      0x20\n      add\n      calldataload\n      and\n      tag_9\n      jump\t// in\n        /* \"contracts/Omnidex-incentives/proposals/TestConfig.sol\":587:827  function executeFixed() external  {\r... */\n    tag_6:\n        /* \"contracts/Omnidex-incentives/proposals/TestConfig.sol\":755:821  poolConfigurator.updateOToken(myreserves, myoTokenImplementations) */\n      0x40\n      dup1\n      mload\n      shl(0xe1, 0x0971d70b)\n      dup2\n      mstore\n        /* \"contracts/Omnidex-incentives/proposals/TestConfig.sol\":448:490  0x818ec0A7Fe18Ff94269904fCED6AE3DaE6d6dC0b */\n      0x818ec0a7fe18ff94269904fced6ae3dae6d6dc0b\n        /* \"contracts/Omnidex-incentives/proposals/TestConfig.sol\":755:821  poolConfigurator.updateOToken(myreserves, myoTokenImplementations) */\n      0x04\n      dup3\n      add\n      mstore\n        /* \"contracts/Omnidex-incentives/proposals/TestConfig.sol\":538:580  0x63D03492cD26c0C1f73a563f7eaB79b52334852A */\n      0x63d03492cd26c0c1f73a563f7eab79b52334852a\n        /* \"contracts/Omnidex-incentives/proposals/TestConfig.sol\":755:821  poolConfigurator.updateOToken(myreserves, myoTokenImplementations) */\n      0x24\n      dup3\n      add\n      mstore\n      swap1\n      mload\n        /* \"contracts/Omnidex-incentives/proposals/TestConfig.sol\":328:370  0x2F75fEDA7423D8B85988d9545428d00f3213CF00 */\n      0x2f75feda7423d8b85988d9545428d00f3213cf00\n      swap2\n      dup3\n      swap2\n        /* \"contracts/Omnidex-incentives/proposals/TestConfig.sol\":755:784  poolConfigurator.updateOToken */\n      0x12e3ae16\n      swap2\n        /* \"contracts/Omnidex-incentives/proposals/TestConfig.sol\":755:821  poolConfigurator.updateOToken(myreserves, myoTokenImplementations) */\n      0x44\n      dup1\n      dup3\n      add\n      swap3\n        /* \"contracts/Omnidex-incentives/proposals/TestConfig.sol\":634:675  ILendingPoolConfigurator poolConfigurator */\n      0x00\n      swap3\n        /* \"contracts/Omnidex-incentives/proposals/TestConfig.sol\":755:821  poolConfigurator.updateOToken(myreserves, myoTokenImplementations) */\n      swap1\n      swap2\n      swap1\n      dup3\n      swap1\n      sub\n      add\n      dup2\n        /* \"contracts/Omnidex-incentives/proposals/TestConfig.sol\":634:675  ILendingPoolConfigurator poolConfigurator */\n      dup4\n        /* \"contracts/Omnidex-incentives/proposals/TestConfig.sol\":328:370  0x2F75fEDA7423D8B85988d9545428d00f3213CF00 */\n      dup8\n        /* \"contracts/Omnidex-incentives/proposals/TestConfig.sol\":755:821  poolConfigurator.updateOToken(myreserves, myoTokenImplementations) */\n      dup1\n      extcodesize\n      iszero\n      dup1\n      iszero\n      tag_11\n      jumpi\n      0x00\n      dup1\n      revert\n    tag_11:\n      pop\n      gas\n      call\n      iszero\n      dup1\n      iszero\n      tag_13\n      jumpi\n      returndatasize\n      0x00\n      dup1\n      returndatacopy\n      revert(0x00, returndatasize)\n    tag_13:\n      pop\n      pop\n      pop\n      pop\n        /* \"contracts/Omnidex-incentives/proposals/TestConfig.sol\":587:827  function executeFixed() external  {\r... */\n      pop\n      jump\t// out\n        /* \"contracts/Omnidex-incentives/proposals/TestConfig.sol\":833:1128  function executeChange (address _reserves, address _myoTokenImplementations) external  {\r... */\n    tag_9:\n        /* \"contracts/Omnidex-incentives/proposals/TestConfig.sol\":1054:1120  poolConfigurator.updateOToken(_reserves, _myoTokenImplementations) */\n      0x40\n      dup1\n      mload\n      shl(0xe1, 0x0971d70b)\n      dup2\n      mstore\n      sub(shl(0xa0, 0x01), 0x01)\n      dup5\n      dup2\n      and\n      0x04\n      dup4\n      add\n      mstore\n      dup4\n      and\n      0x24\n      dup3\n      add\n      mstore\n      swap1\n      mload\n        /* \"contracts/Omnidex-incentives/proposals/TestConfig.sol\":328:370  0x2F75fEDA7423D8B85988d9545428d00f3213CF00 */\n      0x2f75feda7423d8b85988d9545428d00f3213cf00\n      swap2\n      dup3\n      swap2\n        /* \"contracts/Omnidex-incentives/proposals/TestConfig.sol\":1054:1083  poolConfigurator.updateOToken */\n      0x12e3ae16\n      swap2\n        /* \"contracts/Omnidex-incentives/proposals/TestConfig.sol\":1054:1120  poolConfigurator.updateOToken(_reserves, _myoTokenImplementations) */\n      0x44\n      dup1\n      dup3\n      add\n      swap3\n        /* \"contracts/Omnidex-incentives/proposals/TestConfig.sol\":933:974  ILendingPoolConfigurator poolConfigurator */\n      0x00\n      swap3\n        /* \"contracts/Omnidex-incentives/proposals/TestConfig.sol\":1054:1120  poolConfigurator.updateOToken(_reserves, _myoTokenImplementations) */\n      swap1\n      swap2\n      swap1\n      dup3\n      swap1\n      sub\n      add\n      dup2\n        /* \"contracts/Omnidex-incentives/proposals/TestConfig.sol\":933:974  ILendingPoolConfigurator poolConfigurator */\n      dup4\n        /* \"contracts/Omnidex-incentives/proposals/TestConfig.sol\":328:370  0x2F75fEDA7423D8B85988d9545428d00f3213CF00 */\n      dup8\n        /* \"contracts/Omnidex-incentives/proposals/TestConfig.sol\":1054:1120  poolConfigurator.updateOToken(_reserves, _myoTokenImplementations) */\n      dup1\n      extcodesize\n      iszero\n      dup1\n      iszero\n      tag_15\n      jumpi\n      0x00\n      dup1\n      revert\n    tag_15:\n      pop\n      gas\n      call\n      iszero\n      dup1\n      iszero\n      tag_17\n      jumpi\n      returndatasize\n      0x00\n      dup1\n      returndatacopy\n      revert(0x00, returndatasize)\n    tag_17:\n      pop\n      pop\n      pop\n      pop\n        /* \"contracts/Omnidex-incentives/proposals/TestConfig.sol\":833:1128  function executeChange (address _reserves, address _myoTokenImplementations) external  {\r... */\n      pop\n      pop\n      pop\n      jump\t// out\n\n    auxdata: 0xa2646970667358221220bf8562b54dcd8f05b34516923cdc0f14cc984d1595640c9985d8b1ea818b3d4264736f6c63430007050033\n}\n",
				"bytecode": {
					"linkReferences": {},
					"object": "608060405234801561001057600080fd5b506101ca806100206000396000f3fe608060405234801561001057600080fd5b50600436106100365760003560e01c8063027eca311461003b578063eca98adb14610045575b600080fd5b610043610073565b005b6100436004803603604081101561005b57600080fd5b506001600160a01b0381358116916020013516610111565b60408051630971d70b60e11b815273818ec0a7fe18ff94269904fced6ae3dae6d6dc0b60048201527363d03492cd26c0c1f73a563f7eab79b52334852a60248201529051732f75feda7423d8b85988d9545428d00f3213cf009182916312e3ae169160448082019260009290919082900301818387803b1580156100f657600080fd5b505af115801561010a573d6000803e3d6000fd5b5050505050565b60408051630971d70b60e11b81526001600160a01b038481166004830152831660248201529051732f75feda7423d8b85988d9545428d00f3213cf009182916312e3ae169160448082019260009290919082900301818387803b15801561017757600080fd5b505af115801561018b573d6000803e3d6000fd5b5050505050505056fea2646970667358221220bf8562b54dcd8f05b34516923cdc0f14cc984d1595640c9985d8b1ea818b3d4264736f6c63430007050033",
					"opcodes": "PUSH1 0x80 PUSH1 0x40 MSTORE CALLVALUE DUP1 ISZERO PUSH2 0x10 JUMPI PUSH1 0x0 DUP1 REVERT JUMPDEST POP PUSH2 0x1CA DUP1 PUSH2 0x20 PUSH1 0x0 CODECOPY PUSH1 0x0 RETURN INVALID PUSH1 0x80 PUSH1 0x40 MSTORE CALLVALUE DUP1 ISZERO PUSH2 0x10 JUMPI PUSH1 0x0 DUP1 REVERT JUMPDEST POP PUSH1 0x4 CALLDATASIZE LT PUSH2 0x36 JUMPI PUSH1 0x0 CALLDATALOAD PUSH1 0xE0 SHR DUP1 PUSH4 0x27ECA31 EQ PUSH2 0x3B JUMPI DUP1 PUSH4 0xECA98ADB EQ PUSH2 0x45 JUMPI JUMPDEST PUSH1 0x0 DUP1 REVERT JUMPDEST PUSH2 0x43 PUSH2 0x73 JUMP JUMPDEST STOP JUMPDEST PUSH2 0x43 PUSH1 0x4 DUP1 CALLDATASIZE SUB PUSH1 0x40 DUP2 LT ISZERO PUSH2 0x5B JUMPI PUSH1 0x0 DUP1 REVERT JUMPDEST POP PUSH1 0x1 PUSH1 0x1 PUSH1 0xA0 SHL SUB DUP2 CALLDATALOAD DUP2 AND SWAP2 PUSH1 0x20 ADD CALLDATALOAD AND PUSH2 0x111 JUMP JUMPDEST PUSH1 0x40 DUP1 MLOAD PUSH4 0x971D70B PUSH1 0xE1 SHL DUP2 MSTORE PUSH20 0x818EC0A7FE18FF94269904FCED6AE3DAE6D6DC0B PUSH1 0x4 DUP3 ADD MSTORE PUSH20 0x63D03492CD26C0C1F73A563F7EAB79B52334852A PUSH1 0x24 DUP3 ADD MSTORE SWAP1 MLOAD PUSH20 0x2F75FEDA7423D8B85988D9545428D00F3213CF00 SWAP2 DUP3 SWAP2 PUSH4 0x12E3AE16 SWAP2 PUSH1 0x44 DUP1 DUP3 ADD SWAP3 PUSH1 0x0 SWAP3 SWAP1 SWAP2 SWAP1 DUP3 SWAP1 SUB ADD DUP2 DUP4 DUP8 DUP1 EXTCODESIZE ISZERO DUP1 ISZERO PUSH2 0xF6 JUMPI PUSH1 0x0 DUP1 REVERT JUMPDEST POP GAS CALL ISZERO DUP1 ISZERO PUSH2 0x10A JUMPI RETURNDATASIZE PUSH1 0x0 DUP1 RETURNDATACOPY RETURNDATASIZE PUSH1 0x0 REVERT JUMPDEST POP POP POP POP POP JUMP JUMPDEST PUSH1 0x40 DUP1 MLOAD PUSH4 0x971D70B PUSH1 0xE1 SHL DUP2 MSTORE PUSH1 0x1 PUSH1 0x1 PUSH1 0xA0 SHL SUB DUP5 DUP2 AND PUSH1 0x4 DUP4 ADD MSTORE DUP4 AND PUSH1 0x24 DUP3 ADD MSTORE SWAP1 MLOAD PUSH20 0x2F75FEDA7423D8B85988D9545428D00F3213CF00 SWAP2 DUP3 SWAP2 PUSH4 0x12E3AE16 SWAP2 PUSH1 0x44 DUP1 DUP3 ADD SWAP3 PUSH1 0x0 SWAP3 SWAP1 SWAP2 SWAP1 DUP3 SWAP1 SUB ADD DUP2 DUP4 DUP8 DUP1 EXTCODESIZE ISZERO DUP1 ISZERO PUSH2 0x177 JUMPI PUSH1 0x0 DUP1 REVERT JUMPDEST POP GAS CALL ISZERO DUP1 ISZERO PUSH2 0x18B JUMPI RETURNDATASIZE PUSH1 0x0 DUP1 RETURNDATACOPY RETURNDATASIZE PUSH1 0x0 REVERT JUMPDEST POP POP POP POP POP POP POP JUMP INVALID LOG2 PUSH5 0x6970667358 0x22 SLT KECCAK256 0xBF DUP6 PUSH3 0xB54DCD DUP16 SDIV 0xB3 GASLIMIT AND SWAP3 EXTCODECOPY 0xDC 0xF EQ 0xCC SWAP9 0x4D ISZERO SWAP6 PUSH5 0xC9985D8B1 0xEA DUP2 DUP12 RETURNDATASIZE TIMESTAMP PUSH5 0x736F6C6343 STOP SMOD SDIV STOP CALLER "
				},
				"gasEstimates": {
					"creation": {
						"codeDepositCost": "91600",
						"executionCost": "141",
						"totalCost": "91741"
					},
					"external": {
						"executeChange(address,address)": "infinite",
						"executeFixed()": "infinite"
					}
				},
				"methodIdentifiers": {
					"executeChange(address,address)": "eca98adb",
					"executeFixed()": "027eca31"
				}
			},
			"storageLayout": {
				"storage": [],
				"types": null
			},
			"userdoc": {
				"kind": "user",
				"methods": {},
				"version": 1
			}
		}
	}
}